:100000000C94D4010C94F1010C940C020C94F101A9
:100010000C940C050C94CB040C94F1010C94F1019C
:100020000C94F1010C949D040C94F1010C944A047D
:100030000C94F1010C94F1010C94F1010C94F10178
:100040000C94F1010C94F1010C94F1010C94F10168
:100050000C94F10149203520652039203B203D20BA
:100060004120632045204720432051206B204B2016
:100070006F2073207C2075207520752075207520D9
:10008000752075207520752061205F206D204F2020
:1000900071207720372075207520752075207520F8
:1000A00075207520752075207520752075207520A8
:1000B0007520752075207520752075207520752098
:1000C0007520752075207520752053205B205720E2
:1000D0003F204D20672075207520752075207520E4
:1000E0007520752075207520752075207520752068
:1000F0007520752075207520752075207520752058
:100100007520752075207520752055205D2059209B
:10011000692005010906A101050719E029E7150075
:1001200025019508750181029501750881039505E2
:1001300075010508190129059102950175039103BF
:100140000507190029FF95067508150026FF00818F
:1001500000C00600FF0901A101150026FF00750877
:10016000850195070900B20201850295830900B255
:100170000201C005010980A1018504150125B719F7
:100180000129B7751095018100C0050C0901A10175
:1001900085031501269C0219012A9C027510950100
:1001A0008100C009023B00020100A0FA090400001E
:1001B000010301010009210101000122400007059E
:1001C0008103080001090401000103000000092166
:1001D0000101000122510007058303080001FEFE12
:1001E000F8F86C6C68686D6D69696B6B6767FEF831
:1001F000F6F6F6FEF8F68E8D8E8D8E8D8E8D8E8DAA
:100200008E8D8E8D8E8D39398E8D39656565FEF8B2
:10021000F6FB01020408102040800000FC001C32A4
:100220002123242B3433433B424B3A31444D152D8B
:100230001B2C3C2A1D22351A161E26252E363D3E25
:1002400046455A76660D294E55545B5D5D4C520EFF
:1002500041494A580506040C030B830A0109780733
:100260007C7E7C706C7D71697A746B7275774A7C68
:100270007B795A69727A6B73746C757D7071612FBA
:10028000001412111F145911270000373F5E481047
:100290003A38302820184D153B34233221502B405A
:1002A0004B1C43221D0000F1F2370F0810182028C4
:1002B0003038404850575F6D000081008200830055
:1002C0008A012102230224022502260227022A0291
:1002D000B500B600B700CD00E200E900EA008301F6
:1002E00092019401000000000000000000009190C5
:1002F000666768696A6B6C6D6E6F70717273858604
:10030000464800488E8D007172738F006A6B6E6D67
:100310006546494A4B4C4D4E52504F51545871729C
:10032000737475767778797A7B7C7D7E7F80818225
:10033000838485868788898A8F00494C4A4D4B4E35
:100340006A6E65504F5251540039534700040309F7
:10035000041C03770069006E006B00650079006C77
:10036000006500730073002E006B007200120370B2
:1003700000730032006100760072004700420012F4
:1003800001100100000008A0202D4201010102001F
:100390000145464765666700202B2D2E30313233EC
:1003A000343536373839680011241FBECFE5D8E020
:1003B000DEBFCDBF10E0A0E6B0E0E6EAF5E502C0A2
:1003C00005900D92A238B107D9F715E0A2E8B0E088
:1003D00001C01D92A936B107E1F70E94BD260C9419
:1003E000D12A0C940000A82FB92F80E090E041E0C2
:1003F00050EA609530E009C02D9182279795879546
:1004000010F084279527305EC8F36F5FA8F3089536
:10041000EADF8D939D930895CF93CFB7CF93C39584
:10042000839BE9F7839B0EC0839B0CC0839B0AC010
:10043000839B08C0839B06C0C0914005C395C093B1
:100440004005A3C0DF93C0913F05DD27C95BDA4FAC
:10045000839B02C0DF91E6CF2F930F931F9300B3CE
:100460002FEF03FB20F94F933F9310B34FEF01277A
:1004700003FB21F93BE031C04E7F012F10B3216017
:1004800028C0102F4D7F2260000000B329C04B7F91
:100490002460012F000010B32BC010B3477F2860E9
:1004A0002AC04F7E00B320612CC04F7D10B3206264
:1004B0002FC04F7B00B3206432C0422700B3499362
:1004C0004FEF0000102713FB20F910B31C70C9F187
:1004D000297F91F2012703FB21F900B3237F89F2E1
:1004E000315058F1102713FB22F910B3277E79F20F
:1004F000012703FB23F92F7C81F200B3102713FBA4
:1005000024F92F7971F200C010B3012703FB25F9FC
:100510002F7359F200C000B3102713FB26F92230C5
:1005200040F200C010B3012703FB27F9243028F65E
:100530004F77206810B30000F9CF10E81ABF0027EA
:1005400019C03B503195C31BD04010E81ABF088139
:10055000033CF9F00B34E9F020913C051981110FAF
:100560001213EDCF4A81441F093641F10D3211F0CB
:10057000013E29F7009345053F914F911F910F913F
:100580002F91DF91CAB7C7FD4ACFCF91CFBFCF918F
:10059000189520914505222379F3109143051123E5
:1005A000C1F53430C2F13093430520933E051091DC
:1005B0003F053BE0311B30933F052DC000914305C3
:1005C00001303CF50AE54F7049F430917E0034FD6E
:1005D00024C000937E00C5E2D5E023C0433049F03B
:1005E0003091300534FD19C000933005C1E3D5E0EA
:1005F00018C030915D0534FD10C000935D05CEE557
:10060000D5E00FC02795A8F45150A9F4220F00009F
:10061000F9CF4AE503C042ED01C0432FC4E1D0E069
:1006200032E011B31C60939A11BB02B320E41CE0CA
:100630005F93012756E002BB279520F4515021F427
:10064000220FF9CF012756E000003B5A02BBD0F23F
:10065000279528F4515029F4220F0000F9CF0127E3
:1006600056E0279502BB20F4515021F4220FF9CF18
:10067000012756E02991332302BB21F6037F109115
:100680004405110FC651D04002BB11F010933C0538
:1006900010E81ABF086011B3137F402F437F5F91AA
:1006A00000C000C002BB11BB42BB66CFA89AA99A8A
:1006B00086B7846086BF109282000895BC010898B6
:1006C000099880EE9EE20E94DE28603130F0862F8D
:1006D00090E0409795958795682F60B9089586B703
:1006E0008F70806A86BF089586B78F70806D86BFD1
:1006F0000895FC01108205C080818F5F8083803A5D
:1007000018F406B607FEF8CF089583B986B78F7040
:10071000806886BF0895CF92DF92EF92FF920F9389
:100720001F93DF93CF930F92CDB7DEB7E82EF62E4F
:100730006A0186B78E7F86BF0E946F038E010F5FAE
:100740001F4FC8010E9479038981803A08F58E2DD8
:100750008E7F0E948503C8010E9479038981803AB7
:10076000B8F481B1883159F011E00CC0F6018191E3
:100770006F010E948503C8010E947903FA94FF204B
:10078000A9F710E00E94740386B7816086BF01C09C
:1007900011E0812F0F90CF91DF911F910F91FF906A
:1007A000EF90DF90CF90089593B7987F982B93BFE9
:1007B000089582E00E94D40312BE89B7816089BF88
:1007C00010920A0510920B0510920C0510920D055F
:1007D00008959EB5987F982B9EBD089583E00E9452
:1007E000E9031DBC1CBC89B7846089BF089595B519
:1007F000987F982B95BD0895883040F4E82FF0E05D
:10080000EE0FFF1FED57FF4F71836083089588300F
:1008100040F4E82FF0E0EE0FFF1FED57FF4F11827D
:10082000108208951092120510921305109214056B
:1008300010921505089584E00E94F70314BC89B74F
:10084000806489BF0E94120408952091120530919E
:1008500013054091140550911505B901CA01089579
:100860008FB58D7F8FBD8FB581608FBD19BC18BCD2
:1008700008958FB580628FBD8FB58F7E8FBD08952F
:100880008FB58F7D8FBD8FB58F7E8FBD089599BD3C
:1008900088BD08951F920F920FB60F9211242F93C7
:1008A0003F934F935F936F937F938F939F93AF93F8
:1008B000BF93EF93FF9380910A0590910B05A09150
:1008C0000C05B0910D050196A11DB11D80930A057F
:1008D00090930B05A0930C05B0930D0580910E0528
:1008E00090910F05A0911005B09111050196A11DE1
:1008F000B11D80930E0590930F05A0931005B09342
:1009000011058091830090918400892B29F0E0915A
:100910008300F09184000995FF91EF91BF91AF9111
:100920009F918F917F916F915F914F913F912F9107
:100930000F900FBE0F901F9018951F920F920FB639
:100940000F9211242F933F934F935F936F937F9355
:100950008F939F93AF93BF93EF93FF93789480917E
:10096000850090918600892B29F0E0918500F09117
:1009700086000995FF91EF91BF91AF919F918F9163
:100980007F916F915F914F913F912F910F900FBE8B
:100990000F901F9018951F920F920FB60F9211246F
:1009A0002F933F934F935F936F937F938F939F9377
:1009B000AF93BF93EF93FF9378948091120590913A
:1009C0001305A0911405B09115050196A11DB11D47
:1009D0008093120590931305A0931405B093150509
:1009E00080918D0090918E00892B29F0E0918D00EF
:1009F000F0918E000995FF91EF91BF91AF919F917A
:100A00008F917F916F915F914F913F912F910F90B7
:100A10000FBE0F901F9018951F920F920FB60F9256
:100A200011242F933F934F935F936F937F938F93F3
:100A30009F93AF93BF93EF93FF93789480918F0030
:100A400090919000892B29F0E0918F00F091900017
:100A50000995FF91EF91BF91AF919F918F917F91F8
:100A60006F915F914F913F912F910F900FBE0F901B
:100A70001F901895982FFA01D9018091AD00892314
:100A8000E081882341F0E92379F4662311F485E0BD
:100A900007C084E005C0E92339F0662319F483E038
:100AA0008C93089582E08C930895662361F08130E1
:100AB00011F4909A0895823011F4919A0895843037
:100AC00069F4969A0895813011F4909808958230CF
:100AD00011F491980895843009F496980895CF936D
:100AE000DF93FC0180916800808380919600818370
:100AF000809115019091160163E070E00E94DE285C
:100B00006283EF012396AEE1B1E083E00D9009929C
:100B10008150E1F7EF012696A1E2B1E083E00D906C
:100B200009928150E1F7EF012996A4E2B1E083E058
:100B30000D9009928150E1F780E091E09F01245FE0
:100B40003F4FE901DC0143E00D9009924150E1F78C
:100B500003962D5F3F4F41E08531940791F78091D7
:100B6000930081A3EF01A296A7E2B1E083E00D908C
:100B700009928150E1F780919C0085A380916900E2
:100B800086A380919B0087A38091670080A7DF9157
:100B9000CF910895809193008F5F8093930083306D
:100BA00011F41092930080919400816080939400DE
:100BB00008950F931F93CF93DF9300911C01109121
:100BC0001D0180911501909116018017910738F051
:100BD000C0911A01D0911B01C017D10721F48FEFEA
:100BE0008093B70018C0BE01681B790B80E090E0CD
:100BF0002DEC30E040E050E00E94B328C01BD10B48
:100C00009E01442737FD4095542F0E9405292E5CF4
:100C10003F4F2093B700DF91CF911F910F9108951F
:100C200020911701309118018091150190911601C2
:100C30002817390720F430931601209315010895E1
:100C4000882309F44AC0809368008F3F11F48CE038
:100C500003C0893118F088E1809368002091680012
:100C60008CEC95E1622F70E00E94F22870931B01DA
:100C700060931A0132E06B3F730734F08AEF92E021
:100C800090931B0180931A018EE898E0622F70E028
:100C90000E94F22870931D0160931C0122E06B3FBB
:100CA000720734F08AEF92E090931D0180931C014B
:100CB00080918000882311F0833029F480911C01F9
:100CC00090911D0104C080911A0190911B01909395
:100CD0001801809317010E94100608951092950044
:100CE00008958093AD0008958091AD0008952091FE
:100CF000670030E0AC01429FC001439F900D529FBE
:100D0000900D11246FEF70E00E94DE288091B700F3
:100D1000482F50E09B014617570708F49A01C90174
:100D200008958F929F92AF92BF92CF92DF92EF92EF
:100D3000FF920F931F93CF93DF93EC01298198804B
:100D4000822F90E0890D911D8A80880D911D609100
:100D50001501709116016817790760F57B0100E0B5
:100D600010E05C01CC24DD2430E040E050E0C8011C
:100D7000B7010E94B328A60195010E940529298385
:100D8000692D70E080E090E0A80197010E94B328EF
:100D9000A60195010E9405292883682D70E080E056
:100DA00090E0A80197010E94B328A60195010E9436
:100DB00005292A839981933050F08881981739F456
:100DC0008A81981721F49150988391509A83DF91EA
:100DD000CF911F910F91FF90EF90DF90CF90BF9038
:100DE000AF909F908F9008958091AB008F5F80931C
:100DF000AB00873010F01092AB000895FC018081A9
:100E0000873010F0875080830895BF92CF92DF9291
:100E1000EF92FF920F931F93DF93CF930F92CDB773
:100E2000DEB78C01B0906800E090AB00FF246E014B
:100E30000894C11CD11C21C0F80180818E0D8983CA
:100E4000C6010E94FE06898190E0FC01EE0FFF1FA3
:100E5000E80FF91FE050FF4F8181882381F48081E2
:100E6000882369F48281882351F4F80180818F5F9F
:100E70008083C8010E94FE06F394FB14E8F20F90F1
:100E8000CF91DF911F910F91FF90EF90DF90CF9066
:100E9000BF9008951F93FC01DB011081E12FF0E06A
:100EA0005C91252F30E0642F70E0CB01820F931FFF
:100EB0008E179F0714F4540F06C0261B370BE2173A
:100EC000F3071CF4541B5C9301C01C931F910895FD
:100ED0000E944704089590919B00913029F410924C
:100EE0009D0010929E000895923029F48FEF90E0BB
:100EF0000E9477061BC0892F83508230A8F483E0BC
:100F000080939F00943019F481E080939F0080913A
:100F10009F009FEF899FC00111246CE070E00E9448
:100F2000F2286093A000089580E090E00E94680796
:100F3000089580919B00823011F40E946B07089500
:100F40000E94D905809196008250833018F482E087
:100F50008093A8000E9499078091980084608093F4
:100F6000980008958130A1F4809167008E31A1F13D
:100F70008951809367008E3118F48EE18093670069
:100F80000E9499078091980082608093980020C009
:100F90008230F1F48091150190911601853691050A
:100FA00018F482E390E002C08456904090931601BA
:100FB000809315018091150190911601C29730F42C
:100FC00082E390E090931601809315010E94A007A0
:100FD00010929A001092990008958130A9F480919E
:100FE00067008F3F29F190E049968F3F910511F0FE
:100FF0000CF08FEF809367000E9499078091980012
:1010000082608093980010C0823071F48091150145
:10101000909116018C599F4F909316018093150162
:101020000E9410060E94A00710929A001092990048
:10103000089580EB6091190148EB50E00E948B030A
:101040001092190108950F931F93CF93DF938C0192
:101050009091680048EB50E083E0989FB001112424
:10106000EB01C40FD51F09C0DA01F80183E001903C
:101070000D928150E1F74D5F5F4F4C175D07A1F76F
:10108000609319010E941908DF91CF911F910F9170
:101090000895DF93CF9300D00F92CDB7DEB7698369
:1010A0007A838B83CE0101960E94910690912B0149
:1010B0008A81981751F490912A018981981729F40F
:1010C00090912C018B81981769F0AAE2B1E0FE01A2
:1010D000319683E001900D928150E1F7CE010196A7
:1010E0000E9423080F900F900F90CF91DF910895E9
:1010F0001092B9001092B8001092BA0010922B0111
:1011000010922A0110922C011092B500E5EBF0E04C
:1011100012921092B600CF010E9423080895909871
:101120009198969880E090E00E94680794980E94B9
:101130007808089581E08093970080E090E00E9415
:10114000680794980E94780808950F931F93CF938F
:10115000DF931092A20080916800C8EBD0E000916C
:101160001901182F110F180F100F2AC082EA90E0F2
:101170000E94050782EA90E00E94FE068091A2008C
:1011800090E0FC01EE0FFF1FE80FF91FDE01E050B9
:10119000FF4F83E001900D928150E1F7A4EBB0E0A6
:1011A000FE0183E001900D928150E1F7CE010E9493
:1011B00091068091A2008F5F8093A2000D5F23961D
:1011C0000117A1F6009319010E941908DF91CF9130
:1011D0001F910F9108950E943221813069F40E947D
:1011E0002F2160E0811161E081E04EEA50E02CEABD
:1011F00030E00E943A0507C08091AD0080FF02C038
:10120000909A01C090988091AD0081FF02C0919AA0
:1012100001C091980E943221823069F40E942F21EE
:1012200060E0811161E084E04EEA50E02CEA30E0B9
:101230000E943A0507C08091AD0082FF02C0969AD5
:1012400001C096988091AD008093AE0008952091E2
:10125000AC00222309F442C08091B2009091B30007
:1012600001969093B3008093B20085369105D4F136
:10127000253011F0233029F40E9432218130F1F41D
:1012800022C0243011F0223041F40E9432218130FA
:1012900011F4909819C0969817C00E94322181309D
:1012A00029F40E942F21882371F40EC00E9432215C
:1012B000823031F40E942F21882331F0969A04C0A5
:1012C0000E94740680FD909A1092B3001092B200B2
:1012D0008091AC0081508093AC0008951092B300CF
:1012E0001092B2000895882371F080E00E94E90313
:1012F00089B78B7F89BF80E090E00E94680794984F
:101300000E94400408950E94EE030E9439048091D7
:101310009B00823011F40E946B0708958091800039
:10132000882311F0833031F480919600811181E09F
:101330000E94730980919600813049F40E94D9057A
:101340001092A1001092A2001092A30037C0823028
:1013500061F40E94D905A4EBB0E0EEE1F1E083E096
:1013600001900D928150E1F71BC0833061F40E941F
:10137000D905A4EBB0E0E1E2F1E083E001900D9249
:101380008150E1F70DC08430A1F40E94D905A4EB8F
:10139000B0E0E4E2F1E083E001900D928150E1F7EA
:1013A0006091B4007091B5008091B6000E94490828
:1013B00005C00E9478088FEF8093B7000E949907BC
:1013C0000895109297000E94EB080E946B070E94FC
:1013D0008E090895109297000E946B070E948E0953
:1013E00008950F931F93082F122F0E946B1D8823BF
:1013F00009F097C080919700882309F092C01123CB
:1014000009F46FC020919B00233008F184EF91E034
:101410009093A5008093A40080919F008C3030F4BD
:10142000233011F48F5F05C0882329F0243019F48C
:10143000815080939F0080919F009FEF899FC00102
:1014400011246CE070E00E94DE286093A00080917F
:101450009600882309F465C0053F09F462C08091B5
:1014600093008130B9F4A8EBB0E0E7E2F1E083E06B
:1014700001900D928150E1F788EB90E00E94910677
:10148000AAE2B1E0E8EBF0E083E001900D92815038
:10149000E1F71FC0823009F044C08091B40080950C
:1014A0008093B8008091B50080958093B9008091B9
:1014B000B60080958093BA0088EB90E00E94910678
:1014C000AAE2B1E0E8EBF0E083E001900D928150F8
:1014D000E1F788EB90E00E94230881E08093A80068
:1014E00020C08091A8008130B1F4809196008130B5
:1014F00049F480919C00833019F40E94A5080FC024
:10150000843069F06091B4007091B5008091B600AC
:101510000E94490804C0823011F40E948E09109282
:10152000A8001F910F9108951092980010929400B6
:1015300089E090E00E948B2A809367008BE090E026
:101540000E948B2A8F7080939B008F3011F4109231
:101550009B008BE090E00E948B2A82958F70809395
:1015600096008F3011F4109296008EE191E06AE8B7
:1015700071E043E050E00E947B2A81E291E06DE857
:1015800071E043E050E00E947B2A84E291E060E950
:1015900071E043E050E00E947B2A80E091E065E743
:1015A00071E045E150E00E947B2A85E090E00E94D6
:1015B0008B2A80939C0082E090E00E948B2A90E02E
:1015C0008F3F910519F42DEE30E005C09C01220FEC
:1015D000331F280F391F309316012093150184E023
:1015E00090E00E948B2A0E94200683E090E00E94F7
:1015F0008B2A8F70809393008F3011F41092930098
:1016000087E291E065EE73E043E050E00E947B2AC0
:1016100083E991E00E948B2A809369008F3F11F447
:1016200088E703C08B3F18F08AEF809369000E941F
:10163000D9050E946B070E948E0908958093960039
:10164000853010F010929600662329F41092A800BD
:101650000E948E0903C082E08093A80080919800C8
:1016600081608093980008951F93182F0E946B1D2E
:10167000882301F5113089F480919B008F5F80935E
:101680009B00853011F410929B000E946B078091A3
:10169000980081608093980009C0123039F48091DD
:1016A00096008F5F609193000E941E0B10929A002B
:1016B000109299001F9108950F931F93082F162FD2
:1016C0000E94C71C112359F0093349F48230A1F05C
:1016D000803291F0813069F0803119F40AC00D3FF9
:1016E00011F481E00AC0013F59F4813011F08031DA
:1016F00019F40E94CA051DC082E00E94340B19C073
:101700000A3F51F4823011F0803211F482E001C0BE
:1017100081E00E94ED070DC0093F11F081E00AC091
:10172000823011F0803211F482E001C081E00E9429
:10173000B20780E01F910F910895CF93DF93EC01E2
:1017400089818F3119F41092AF00EAC0803109F01D
:1017500041C04091AF00842F8150833038F5242F51
:1017600030E0C9010197FC01EE0FFF1FE80FF91FE0
:10177000EE0FFF1FE050FF4FDE01129683E00D9049
:1017800001928150E1F7C901880F991F0197FC016F
:10179000EE0FFF1FE80FF91FE050FF4FDE01159617
:1017A00083E00D9001928150E1F710C0443071F454
:1017B000A2E1B1E0FE01329683E001900D928150EA
:1017C000E1F7809198008068809398004F5F409384
:1017D000AF00A6C0813169F4AEE1B1E0FE013296FE
:1017E00083E001900D928150E1F780919800806133
:1017F0000EC0823189F4A1E2B1E0FE01329683E0AD
:1018000001900D928150E1F7809198008062809361
:1018100098000E948E0984C0833169F4A4E2B1E08B
:10182000FE01329683E001900D928150E1F78091A4
:1018300098008064ECCF813A69F4A7E2B1E0FE0140
:10184000329683E001900D928150E1F780919400EF
:10185000826064C0803229F48A8160E00E941E0B9D
:101860005FC08034B1F48A8123E0829FC0011124DB
:101870009093160180931501892B31F483E090E059
:1018800090931601809315010E9410060E94A007F4
:10189000C0CF813239F48A81809393008091940083
:1018A00081603CC0833279F48A8180939C001092DD
:1018B000A1001092A2001092AB001092A3008091A0
:1018C000940084602BC0803359F40E9478088A8188
:1018D0000E9420060E94D90580919800886013C05C
:1018E000803839F48A8180939B00809198008160D0
:1018F0000AC0813859F48A81809367000E94990751
:10190000809198008260809398000AC0843841F4E6
:101910008A8180936900809194008860809394000C
:1019200010929A0010929900DF91CF9108958091C2
:1019300095008823B1F481E08093950088E00E94AF
:10194000300480919600882329F080918000815096
:10195000823010F480E001C081E00E9473090E948F
:10196000940A089581B3836581BB82B38C7A82BB6C
:101970000E94560380E991E00E945E030895CF9390
:10198000DF93EC010E943221813029F40E942F2143
:10199000882339F004C08091AD0080FF02C0909888
:1019A00001C0909A8091AD0081FF02C0919801C062
:1019B000919ACE010E942E1F0E943221813029F47B
:1019C0000E942F21882339F004C08091AD0080FF50
:1019D00002C0909A01C090988091AD0081FF02C032
:1019E000919A01C09198DF91CF9108950E94F820BB
:1019F0008823E1F08091B0009091B100019690931E
:101A0000B1008093B000855893409CF090916A009B
:101A1000913011F4919801C0919A1092B1001092F6
:101A2000B00081E0982790936A00089581E0809348
:101A30006A0008958F929F92AF92BF92CF92DF92E9
:101A4000EF92FF920F931F93DF93CF930F92CDB737
:101A5000DEB780919500882309F426C30E946B1D90
:101A6000882309F021C30E94F60C0E9427092091C7
:101A70009800222329F480919400882309F4BFC0A0
:101A80008091990090919A00019690939A0080938A
:101A90009900885B9B4009F0B2C010929A001092A6
:101AA000990020FF0CC0609196006295607F809144
:101AB0009B008F70682B8BE090E00E94A32A80919E
:101AC0009800869580FF06C089E090E060916700ED
:101AD0000E94A32A809198008695869580FF0CC06D
:101AE000809115019091160163E070E00E94DE285C
:101AF00082E090E00E94A32A8091980086958695C6
:101B0000869580FF0AC00E946B070E948E0984E0C0
:101B100090E0609168000E94A32A809198008295CD
:101B20008F7080FF08C08EE191E06AE871E043E0C9
:101B300050E00E94932A8091980082958695877044
:101B400080FF08C081E291E06DE871E043E050E081
:101B50000E94932A8091980082958695869583703D
:101B600080FF08C084E291E060E971E043E050E06A
:101B70000E94932A8091980087FF08C080E091E03E
:101B800065E771E045E150E00E94932A809194005E
:101B90008695869580FF06C085E090E060919C0068
:101BA0000E94A32A8091940080FF07C06091930057
:101BB0006F7083E090E00E94A32A80919400869544
:101BC00080FF08C087E291E065EE73E043E050E0FB
:101BD0000E94932A8091940086958695869580FF31
:101BE00006C083E991E0609169000E94A32A1092E7
:101BF00098001092940082E390E00E94BF0C8091C4
:101C00009700882309F050C220919B00213009F0F1
:101C100046C08091A6009091A70001969093A700DE
:101C20008093A600089709F08BC01092A70010922D
:101C3000A60080919E00882331F480919D0090E061
:101C40000E9477060AC0823061F420919D008FEFD8
:101C500090E0821B91090E94770690E00E9468073D
:101C600009C0813011F0833029F480919D008F5F8D
:101C700080939D0080919D008F3F69F410929D009C
:101C800080919E008F5F80939E00843008F458C03E
:101C900010929E0055C08F5F80939D0051C0822F8F
:101CA0008350823008F04CC08091A4009091A50030
:101CB0001816190634F401979093A5008093A40098
:101CC00037C0233029F48091A000882339F428C03C
:101CD000243049F58091A0008F3F29F180919D002B
:101CE0008F5F80939D00883018F110929D00809145
:101CF0009B009091A000833011F4915001C09F5F30
:101D00009093A0002091A0008FEF90E0821B91099A
:101D10006BEE7FEF0E94F228645F60939F0008C023
:101D200010929F0003C08CE080939F0010929D0052
:101D30008091A00090E00E94770690E00E946807E2
:101D40008091A800813009F4AFC18091A9009091E1
:101D5000AA0001969093AA008093A900889708F49E
:101D6000A3C11092AA001092A90080919600813020
:101D700009F09AC180919C00813039F58091A100D1
:101D8000909169008F5F8093A1008150891708F4BA
:101D90008BC11092A1008091AB0090E0FC01EE0F8E
:101DA000FF1FE80FF91FA4EBB0E0E050FF4F83E006
:101DB00001900D928150E1F76091B4007091B500EF
:101DC0008091B6000E9449086DC1823009F07FC041
:101DD0009091A20080916800981708F044C000E03C
:101DE00013E036C0802F90E0201778F4FC01EE0F4E
:101DF000FF1FE80FF91FE854FF4FA4EBB0E083E0AA
:101E00000D9001928150E1F71DC0DC01AA0FBB1FAC
:101E1000A80FB91F8091AB0090E0FC01EE0FFF1FEF
:101E2000E80FF91FA854BF4FE050FF4F83E0019027
:101E30000D928150E1F7019FC001112488549F4FFA
:101E40000E949106809119018D5F809319010F5FA7
:101E5000809168002091A200081720F22F5F209344
:101E6000A2000E9419089091A20080916800981722
:101E7000C1F49F5F9093A2008091AB0090E0FC01C1
:101E8000EE0FFF1FE80FF91FA4EBB0E0E050FF4F8B
:101E900083E001900D928150E1F784EB90E00E9485
:101EA00091069091A20080916800891708F0FCC00B
:101EB0008091A3008F5F8093A300909169008917A0
:101EC00008F4F2C01092A3001092A200EBC083307D
:101ED00059F48091A1008F5F8093A100815009F097
:101EE000E3C00E94A508E0C090916900843009F029
:101EF00089C01092A2008FE0989FC001112466E073
:101F00007FEF0E94F2286B0184E190E0C80ED91E99
:101F1000BB244E010894811C911C53E0A52E5AC08D
:101F200082EA90E00E9405078091AB009091A200A8
:101F3000890F8983C4010E94FE062B2D30E0898120
:101F40008A9DC00111248901000F111F020F131F68
:101F5000B80167547F4F8F5F9E4F4C2D0E944A07F8
:101F600089818A9DC001112428EBE22E20E0F22E07
:101F7000E00EF11E80509F4FB7014C2D0E944A0782
:101F800089818A9DC001112406541F4F8E5F9E4F88
:101F9000B8014C2D0E944A07A4EBB0E0F70183E0A2
:101FA00001900D928150E1F7BA9CC0011124885430
:101FB0009F4F0E949106809119018D5F80931901B6
:101FC0008091A2008F5F8093A20082EA90E00E943D
:101FD000FE06B39480916800B81608F4A1CF0E9461
:101FE00019082091A3002C0D2093A30030E08FEF5F
:101FF00090E08C199D092817390708F455C01092F4
:10200000A30050C0892F90E06BEF7FEF0E94F22871
:102010008B010D5C1F4F8091AB0013E0F12E8F9D63
:10202000C00111248F5F9E4F65EB70E0402F0E942E
:102030004A078091AB008F9DC001112480509F4FB3
:1020400064EB70E0402F0E944A078091AB008F9DA7
:10205000C00111248E5F9E4F66EB70E0402F0E94FE
:102060004A076091B4007091B5008091B6000E945B
:1020700049088091AB0090E0FC01EE0FFF1FE80FD4
:10208000F91FE050FF4F91818091B500981761F4DE
:1020900090818091B400981739F492818091B600B4
:1020A000981711F40E94F4060F90CF91DF911F91C1
:1020B0000F91FF90EF90DF90CF90BF90AF909F90E7
:1020C0008F9008950E94730908950F931F938C01B8
:1020D0000E946F050E94AB22F80181A70E94322165
:1020E000F80182A71F910F910895CF93DF93EC0120
:1020F0000E949D0B8981823841F490E08A81811190
:1021000091E0892F0E94AE2205C0833819F48A819C
:102110000E948822DF91CF910895FC018381813252
:1021200061F08232D9F0823081F583EA91E09093B8
:102130004205809341058BE308958281882319F03D
:10214000813019F503C085EB91E002C08EEC91E07F
:10215000909342058093410589E00895848195819B
:10216000009719F0019789F408C082E191E09093FB
:1021700042058093410580E4089582E591E09093C3
:1021800042058093410581E5089580E00895FC01B2
:1021900080912E01813041F4613081F580810E946F
:1021A0001C2510922E012AC0823019F581818823C6
:1021B00069F4683001F582818F3F29F481E090E075
:1021C00060E00E94B42A0E94691218C0813039F47C
:1021D0008281813009F080E00E941C210FC080398B
:1021E00011F481E003C0813931F480E00E94621073
:1021F00005C0843019F4CF010E94751081E0089564
:102200000F931F93CF93DF93EC010E94E02288810C
:102210008076803209F0B1C02981213009F065C093
:102220008A819B8132E08030930741F486E195E01A
:10223000909342058093410588E0A0C043E082303E
:10224000940749F48E819F818538910509F095C0E6
:1022500020935A0192C08150934009F08EC02E8184
:102260003F812436310559F40FE211E0C8010E9484
:10227000651010934205009341058BE27FC0C901B0
:10228000895790400497A8F480E480933D0588E73F
:1022900090E0AC01249FC001259F900D349F900DCC
:1022A0001124885B924D909342058093410588E705
:1022B00065C0C901885A90400C97A8F480E48093C7
:1022C0003D0588EA90E0AC01249FC001259F900D58
:1022D000349F900D11248054964090934205809332
:1022E000410588EA4BC0822F49C0293039F58A81DF
:1022F0009B8152E08030950731F48C819D81892B40
:10230000E1F581E017C023E08230920779F48091F3
:102310005A01813041F48FE18983CE010E9475100A
:1023200084E080932E0110925A0106C081509340A0
:1023300021F582E080932E018FEF20C0223019F426
:1023400080912D0114C02A3031F40E94E4228B8147
:1023500080932D0112C0233031F48B81882369F4DE
:1023600010926B000BC02B3041F480916B00809376
:1023700041051092420581E001C080E0DF91CF91DC
:102380001F910F910895813011F090E006C090E008
:10239000613009F091E081E09827892F08958FEF4F
:1023A00087BB88BB1ABA94B39B7B94BB8F988BBBBB
:1023B00085B38C6F85BB979A089521E030E002C009
:1023C000220F331F8A95E2F727BB209528BB84E1B3
:1023D0008A95F1F70895282F883058F449B381E0A1
:1023E00090E002C0880F991F2A95E2F74095482394
:1023F00018C08E3078F443B38FE090E0821B9109CF
:1024000021E030E002C0220F331F8A95E2F74095A9
:10241000422307C08E3011F040E003C040B3409526
:102420004078842F08956F927F928F929F92AF92FF
:10243000BF92CF92DF92EF92FF920F931F93CF93B1
:10244000DF93782EA92E6B0100E010E081E0882E4A
:10245000912C66246394802F0E94DD11C401002E0C
:1024600002C0880F991F0A94E2F7E82EB82EB094A4
:10247000272D3A2DC901EC01FF248F2D0E94EB116D
:10248000282F98818E2D892319F0222329F008C046
:10249000222331F09E2901C09B219883F60160829E
:1024A000F3942196FFE0FF1641F70F5F1F4F0830AE
:1024B000110589F6DF91CF911F910F91FF90EF9059
:1024C000DF90CF90BF90AF909F908F907F906F9054
:1024D00008950E948F088B9A28E088E190E00FB65B
:1024E000F894A89581BD0FBE21BDFFCF8A98929A1E
:1024F000089592988A9A08958B98939A089593983C
:102500008B9A089580935C01F89480911F058F7ECB
:1025100080931F0580911F05886080931F05789424
:102520000895F89480911F058B7F80931F05789400
:1025300080915B01089580911F0590E096958795A5
:10254000969587958170089580911F0590E034E0FD
:10255000969587953A95E1F7817008958FEC82BF43
:1025600080911E05833000F50E947C1280911F052A
:1025700080FF23C0829BA3C080911E05813031F073
:10258000813040F0823009F0F6C006C0839902C065
:102590008DE096C082E094C080911F0583FFEBC060
:1025A0000E947F1284E28CC080911E058A3108F05F
:1025B00079C080911F0580FD08C080911F05816052
:1025C00080931F050E9476120895829B76C08091A9
:1025D0001E05873140F4803118F58D3061F08F3061
:1025E00009F055C00CC08831E1F1883158F18931CA
:1025F00009F04DC049C080911F058D7F4DC080916D
:102600001F058B7F80931F05839B05C080E8809307
:102610005B0181E014C010925E0110925B0137C033
:1026200080915B01869580935B01839B30C0809194
:102630005B01806880935B0180915E018F5F809376
:102640005E0125C0839B05C080915E018F5F8093F2
:102650005E0180915E0180FD1AC080911F0582603D
:1026600010C0839905C080911F05826080931F056B
:1026700080911F0581FD0BC00E947F1280911F0574
:10268000846080931F0503C00E947C126CC00E946E
:10269000791280911F058E7F80931F0580911E0502
:1026A0008F5F0EC080911E058F3208F064C080914C
:1026B0001F0580FF10C0829906C00E947C1281E035
:1026C00080931E05089580911F058E7F80931F05BE
:1026D0000E947912089580911F05816080931F05E3
:1026E0000E94761280911E058C3228F4853280F487
:1026F0008432E1F507C08D3299F18D32E8F08E32E7
:10270000A9F531C080915C0180935D0110925E015A
:1027100080915D0180FF08C00E947C1280915E0163
:102720008F5F80935E0102C00E947F1280915D01E5
:10273000869580935D011AC080915E0180FF03C081
:102740000E947F1202C00E947C1280911F05877F29
:1027500080931F0580911F05806180931F0506C02F
:102760000E947C1203C010921E05089580911E05E0
:102770008F5F80931E05089510921E0581E180935E
:102780001F050E9476120E947C120E94D90382E0EB
:102790000E94D40380E06EEA72E10E94FC038FEC99
:1027A00082BF0895282F8F3F31F41092620181E09B
:1027B0008093670108958E3F21F08D3F29F4109298
:1027C000620110926701089580916701882351F09A
:1027D00080916201E82FF0E0EB5CFD4F20838F5F7A
:1027E000809362018091630190916401019668EC8D
:1027F00070E00E94F228FC019093640180936301D1
:1028000080916501909166018E179F0759F400979A
:1028100019F487EC90E001C00197909364018093D4
:1028200063010895E459FE4F2083089540E020910C
:1028300065013091660180916301909164012817D0
:10284000390709F441E0842F08951092660110922F
:10285000650110926401109263011092620110925E
:10286000680110923F0210924002109241021092B1
:1028700042020895282F882339F08CEF90E090933E
:102880006A018093690102C01092610120936B017B
:1028900008950E94161490E0882309F491E0892F8E
:1028A0000895FF920F931F93182F882309F4A0C057
:1028B0008D3B08F09DC0A82FB0E0FD01E65EFD4F06
:1028C0000491662309F463C08093340210923F029E
:1028D0001092400210924102109242021092220580
:1028E000AD5BBD4F8C91F82E81FF2DC0163419F0D1
:1028F0001834F1F50EC08FEF0E94D21380EE0E94C3
:10290000D21382E10E94D21380EE0E94D2138CE790
:1029100027C08DEF0E94D21381EE0E94D21384E172
:102920000E94D21387E70E94D21381EE0E94D21335
:1029300080EF0E94D21384E10E94D21380EF0E94A4
:10294000D21387E710C082FF02C0802F0CC08FEF28
:102950000E94D213F0FE03C080EE0E94D213802F9B
:102960000E94D2138EEF0E94D2138CEF0E94D213DA
:10297000F5FE40C0809161018823E1F581E08093FC
:102980006101173411F40E94C71C8BEF2EC0809197
:102990003402811711F410926201E12FF0E0ED5B37
:1029A000FD4F808181FF13C0163421F580EE0E9417
:1029B000D21380EF0E94D2138CE70E94D21380EED4
:1029C0000E94D21380EF0E94D21382E10BC082FDDD
:1029D00011C080FF03C080EE0E94D21380EF0E94DE
:1029E000D213802F0E94D2138CEF0E94D21302C008
:1029F00080E001C081E01F910F91FF9008958091C8
:102A00000705882329F481E0809307050E948D271C
:102A100008951F93162F8E3F11F0809321050E9479
:102A20008212109322051F9108950E940E1B089593
:102A30008F929F92AF92BF92CF92DF92EF92FF92CE
:102A40000F931F9388E0809322050E94BC13E3E458
:102A5000F2E0119222E0E33EF207D9F720E033E002
:102A600006C0FC01ED5BFD4F808182608083F9012F
:102A7000849190E02F5F3F4F009799F723E033E078
:102A800006C0FC01ED5BFD4F808184608083F9010D
:102A9000849190E02F5F3F4F009799F727E033E054
:102AA00006C0FC01ED5BFD4F808188608083F901E9
:102AB000849190E02F5F3F4F009799F72CE033E02F
:102AC00006C0FC01ED5BFD4F808181608083F901D0
:102AD000849190E02F5F3F4F009799F72AE333E00E
:102AE00006C0FC01ED5BFD4F808180618083F901B0
:102AF000849190E02F5F3F4F009799F729E433E0EE
:102B000006C0FC01ED5BFD4F808180628083F9018E
:102B1000849190E02F5F3F4F009799F70E94251412
:102B200086E090E00E948B2A8F3F09F481E060915B
:102B30006001662319F48093600106C0681721F0D4
:102B400086E090E00E94A32A8CE690E00E94A21901
:102B50008EE690E00E9488260E94EC1878949924D2
:102B60009394A5E0AA2EB12CC12CD12CF6E98F2E7E
:102B7000809180008823F9F4809107058823D9F497
:102B80008091050590910605019690930605809326
:102B900005050197895E934074F081E08093800081
:102BA0001F910F91FF90EF90DF90CF90BF90AF906B
:102BB0009F908F90089580911F0581FF07C0F89422
:102BC00080911F058D7F80931F0578940E949B1232
:102BD000882309F4E0C08091690190916A018C3FDB
:102BE000910529F00E941614882309F4D4C00E948C
:102BF00091128093E30280E00E943A1460912205D2
:102C0000623009F45DC0633018F4613039F450C0AB
:102C1000663009F4ACC0673009F45DC08091E3020E
:102C2000833F79F1843F70F48E3ED1F08F3E20F4E3
:102C30008D3E09F0ACC022C0803FE9F0823F09F030
:102C4000A6C010C0863F39F1873F20F4843F09F0C9
:102C50009EC01AC08E3F61F08F3F09F098C005C03A
:102C60008EEE97C08AEF64E094C08AEF68E091C06E
:102C7000809121058EC08AEF62E08BC08AEF66E00A
:102C800088C08AEF67E085C08AEF60E00E9409157E
:102C90000E94FF1480C090927000A0927100B092C8
:102CA0007200C0927300D09274000E9425146FC00D
:102CB0008091E302853F09F46AC08AEF61E069C050
:102CC0000E9425148091E302882311F060E001C086
:102CD00063E08AEF5EC08091E30290E09C01207681
:102CE0003070E5E035952795EA95E1F7209370007F
:102CF0009C01277030703093E5022093E4028871C4
:102D0000907073E0959587957A95E1F79093E70237
:102D10008093E60241E050E020E030E004C0440F40
:102D2000551F2F5F3F4F28173907CCF34093EA0216
:102D30005093EB023093E9022093E8028091E40281
:102D40009091E5029C01429FC001439F900D529FCC
:102D5000900D1124AA2797FDA095BA2F809371009A
:102D600090937200A0937300B093740010C00E94FF
:102D7000FF148091E302982F80E090FD84E091FDA4
:102D8000816092FD82600E9471060E94EB088AEFCA
:102D900060E00E9409150E94A412882309F4E8CE7D
:102DA00080916B01882309F0E3CE80912205843065
:102DB00009F4FBC0853030F4882371F0833009F0CA
:102DC000D7CEF1C0883009F4F5C08C3009F476C054
:102DD000853009F0CDCEECC00E941614882311F086
:102DE0000E9415150E9421212091650130916601F4
:102DF00080916301909164012817390711F480E0F4
:102E00000EC0C901019668EC70E00E94F228FC0136
:102E10009093660180936501E459FE4F8081282FCD
:102E200030E030936A01209369012B3F310521F492
:102E300081E00E943A149CCE2C3F310509F498CED3
:102E4000232B21F060E00E9409154AC080916201A5
:102E5000882309F48DCE20913F02309140024091A9
:102E60004102509142022F5F3F4F4F4F5F4F2093DF
:102E70003F023093400240934102509342028091BE
:102E80007000889DC00111248A519F4FAA2797FD89
:102E9000A095BA2F281739074A075B070CF468CEAC
:102EA00010923F0210924002109241021092420290
:102EB000109268018CE0809322055ACE80916801BF
:102EC000882311F40E9415150E942121809162012E
:102ED000882321F00E941614882359F410922205A9
:102EE00010923F0210924002109241021092420250
:102EF0003FCE80913F0290914002A0914102B0915B
:102F000042020197A105B10521F080916801882353
:102F1000A9F090916801E92FF0E0EB5CFD4F808112
:102F20009F5F909368016CE00E94091560916201B7
:102F3000809168010E94D22890936801E0903F023E
:102F4000F090400200914102109142020894E11C6D
:102F5000F11C011D111D6091710070917200809132
:102F60007300909174002AE030E040E050E00E944D
:102F7000B3286D5F7F4F8F4F9F4F2091600130E0EE
:102F800040E050E00E94B3289B01AC01C801B701AA
:102F90000E94272960933F02709340028093410270
:102FA00090934202E5CD82E008C08BEA65E006C05E
:102FB00083E803C00E9425148AEA60E00E94091594
:102FC000D7CD809176000895809177000895809103
:102FD000ED0208958EEF92E008958FEE92E008954D
:102FE00081E080937600EEEFF2E08081882319F093
:102FF0001092760005C0319683E0ED30F807A9F70E
:1030000081E080937700EFEEF2E08081882319F071
:103010001092770005C0319682E0EE3FF807A9F7DD
:103020000E94E117882341F40E94BD1C882339F4D3
:103030000E94E717882319F483E6809375000E94A5
:10304000E117882311F00E94BF1B08950E94EA1720
:10305000AFEEB2E0FC018FE001900D928150E1F7FC
:103060000895DF93CF930F92CDB7DEB719828EEF1D
:1030700092E0BE016F5F7F4F0E9413128981882307
:1030800019F010920D0307C080910D03843618F4D7
:103090008F5F80930D0390E080910D03843009F4DD
:1030A00091E0892F0F90CF91DF9108950E94311800
:1030B0000895CF92DF92EF92FF920F931F93CF93D9
:1030C000DF9310917500133639F08091EE028093F2
:1030D000EC021092ED0276C00E942F21882329F085
:1030E0000E942F218093EE0202C01092EE020E94F5
:1030F000EA177C0100E081E0C82ED12CF701808125
:10310000882309F452C0C0E0D0E096010C2E02C022
:10311000220F331F0A94E2F7F7018081822309F41A
:103120003FC08091EE02602F4C2F0E94321D182F5D
:103130000E942C21882329F4812F61E00E94D81B52
:10314000182F1E3F89F0183F11F412E00EC0163FF1
:1031500011F413E00AC01B3F19F58091EE02825072
:103160008230F0F410E001C011E00E94E4178823DF
:1031700021F48091ED02882361F41093750081E0C1
:103180008093ED029091EC028091EE02981721F469
:1031900017C01091EE0216C0911791F0192F12C0AE
:1031A0002196C830D10509F0B0CF0F5F0894E11C1B
:1031B000F11C0F3009F0A2CF1092ED021091EE0237
:1031C0001093EC02812FDF91CF911F910F91FF900F
:1031D000EF90DF90CF9008958FE0EFEEF2E0DF0107
:1031E000982F1D929A95E9F7EEEFF2E0DF011D921C
:1031F0008A95E9F708950E94CF1187E080930D0327
:10320000089586E084BD8091230590912405019660
:103210009093240580932305089598EA899FF001EF
:103220001124E050F849E49180E0E150EE3F08F4C9
:1032300081E0089580910E03089580E00E94F703D5
:10324000089510920E030E941D1908950F931F9365
:1032500010922405109223051092100310920F0370
:1032600008EA2091110330911203283A31051CF02D
:103270000E94211930C0E0917800E09FA001112444
:10328000C9010196240F351F20503849F9012491B6
:10329000019690931203809311030197480F591FD1
:1032A00040505849FA011491822F81508E3F78F492
:1032B000822F0E94B71F912F9F7799F28BE4989FDE
:1032C000C00111249093100380930F0304C00E9447
:1032D00021190E94FB1F1F910F91089580910E03E9
:1032E000882369F0209123053091240580910F03F4
:1032F000909110032817390714F00E942619089599
:10330000982F80910E03882391F481E080930E031F
:10331000909378001092100310920F0310921203F2
:10332000109211030E94261985B5836085BD08950A
:103330000E941B0485E061E079E10E94FC030E9489
:103340001D190895909316038093150308951F93F4
:10335000162F60E00E94D81BE0911503F091160330
:103360000190F081E02D612F09951F9108950F9331
:103370001F93182F062F662331F060E00E94D81BA0
:1033800061E00E94D61C812F602F0E94A7191F9117
:103390000F910895FF920F931F93082F162F642FFC
:1033A000422F212F0E949A21F82E112329F0002369
:1033B00019F081E00E94801CFF2071F0112329F098
:1033C000802F0E94921E882339F4802F612F0E9443
:1033D000BF22612F0E94A7191F910F91FF9008959E
:1033E000EF92FF920F931F93F82E142FE22E641783
:1033F000D1F060E00E94D81B612F0E94D61C8F2D57
:10340000612F0E943E218F2D0E944E21882359F06A
:10341000112319F08F2D61E002C08F2D60E04E2D39
:10342000202F0E94CA191F910F91FF90EF900895CD
:103430002F923F924F925F926F927F928F929F92C4
:10344000AF92BF92CF92DF92EF92FF920F931F93B2
:10345000DF93CF9300D00F92CDB7DEB70E945618FE
:10346000882309F4C5C00E945918982E0E94EA17B3
:103470003C010E94ED178983492E80911403882313
:1034800009F05AC080911303891509F455C0EE2440
:10349000FF2491E0292E312C3FC05A8080911303E4
:1034A000652D4B2D0E94321D082F892D6A814B2DD1
:1034B0000E94321DA82E0817F1F0802F0E94551D82
:1034C0008823C9F4EA81FB81E60DF71D1081F6011E
:1034D0008081882139F0802F61E040E02B2D0A8126
:1034E0000E94F019182139F08A2D60E041E02B2D5F
:1034F000052D0E94F0198A819B8101969B838A8306
:103500000894C11CD11C0F9741F60894E11CF11CD2
:1035100098E0E916F10481F0BE2CC1010E2C02C026
:10352000880F991F0A94E2F7882E2981342DC9014A
:103530006C011B821A82B1CF909213030E94E7178D
:10354000809314030E94EA17182F092F0E94ED1789
:103550006C01212F302FC9012C01EE2481E0682E4F
:10356000712CF6018081882321F4F2018081882367
:1035700081F1FF24C3010F2C02C0880F991F0A9408
:10358000E2F7F60110811823F20100810823892D4A
:103590006E2D4F2D0E94321DB82E0E94F8208823D8
:1035A00049F0101791F00023A1F08E2D6F2D0E948D
:1035B000FB200FC060E0111161E040E0011141E02B
:1035C0008B2D2F2D0E2D0E94F019F394F7E0FF158F
:1035D00088F6E3940894C11CD11C0894411C511C2A
:1035E0008FE0E81609F0BDCF0E9426180E94F01760
:1035F0000F900F900F90CF91DF911F910F91FF903F
:10360000EF90DF90CF90BF90AF909F908F907F9082
:103610006F905F904F903F902F9008950F931F935E
:103620000E948C208823E1F00E94FE1F8823C1F4B1
:103630000E94C120092F813019F4892F61E00EC04A
:10364000892F8756883040F40E94C71C182F802F7E
:103650000E94641D182321F4802F60E00E94A719A6
:103660000E94181A1F910F910895982F80911803A6
:1036700080FF0FC0993611F49AE60BC09A3611F408
:1036800099E607C09D3611F49EE603C09E3609F404
:103690009DE6892F089580E00E94BD1C882319F0C3
:1036A0001092190308950E94C71C982F8091170348
:1036B0009817A1F09C3231F0903E21F0983611F02D
:1036C000943A41F410921D0310921C0382E08093FF
:1036D000190302C010921903909317034091190324
:1036E0004423B1F180911C0390911D0301969093A6
:1036F0001D0380931C0320911A0330911B0328178C
:10370000390734F54230E1F482E390E00E94BF0CC7
:103710008091180380FF04C08E7F8093180310C02F
:1037200081608093180384EF91E02CE231E0F9018D
:103730003197F1F70197D9F784E690E00E94BF0C2A
:1037400088E090E0609118030E94A32A1092190368
:10375000089588E090E00E948B2A809318038F3FA1
:1037600011F41092180388E893E10E947D2690934B
:103770001B0380931A03089580911E0308951092ED
:103780001F03109220031092210310921E03109227
:1037900022030895E82F865D883140F4F0E0E85F69
:1037A000FE4FE4918E2F0E942F1DE82F8E2F08953B
:1037B0000F931F93182F062F0E94BC1B882311F410
:1037C000002321F0812F0E94CA1B182F812F1F91E7
:1037D0000F910895E82F865D883140F4F0E0E05EB7
:1037E000FE4FE4918E2F0E942F1DE82F8E2F0895FB
:1037F0001F93182F865D883158F4812F0E94CA1BB1
:103800000E94551D882321F0812F0E94EA1B182F4A
:10381000812F1F9108951F93982F865D662381F154
:103820008831A8F480911F038F5F80931F038091DC
:103830002203882309F5809120038823E9F49093DB
:10384000210381E08093220310921E0357C08091D0
:103850002103882339F081E080931E0380912003A7
:103860008F5F4AC080912203882309F047C080916E
:1038700020038F5F8093200381E080931E033EC06E
:103880008831A8F580911F03882319F08150809317
:103890001F0310912103112319F10E94BC1B8823DF
:1038A000F9F4812F0E94EA1B182F0E94B71F812F65
:1038B0000E94B71F10922103109224031092230339
:1038C0000E94B31D882361F0812F60E040E021E079
:1038D0000E940E1E812F60E040E020E00E940E1E3C
:1038E00080911F03882351F41092220307C0809116
:1038F0002003882319F08150809320031F9108959D
:103900000F931F93082F109121031123E9F00E94B8
:10391000BC1B8823C9F0812F0E94CA1B602F0E9404
:10392000B7190E94B31D882349F0809121030E949A
:10393000CA1B60E040E021E00E940E1E10922103AD
:1039400010922403109223031F910F9108958091E8
:103950002103882389F08091230390912403019609
:103960009093240380932303855F914028F081E0A6
:1039700080931E030E94801C0895863010F080E022
:103980000895E82FF0E0EB5DFC4F80810895809171
:103990002B03089510922C0310922B0386E0E5E28E
:1039A000F3E0DF011D928A95E9F708950F931F93C5
:1039B000082F8756662301F1883038F410912B03C5
:1039C000802F0E94641D182B20C080912C0386300C
:1039D00080F50D3B70F585E293E0602F0E945F1F3C
:1039E0008F5F9F4F31F580912C03E82FF0E0EB5D66
:1039F000FC4F00838F5F1BC0883050F410912B0365
:103A0000802F0E94641D8095182310932B0311C0F2
:103A100085E293E0602F0E945F1FBC0197FD09C003
:103A200085E293E00E94791F80912C03815080935E
:103A30002C031F910F91089598E7899FF00111249D
:103A4000E050FA4970E083E0660F771F8A95E1F74E
:103A5000E60FF71FE40FF11DE4918E2F08950E94E9
:103A6000351B0895FF920F931F93182F062FF42EE6
:103A70000E94B31D882361F0812F602F4F2D0E947B
:103A80001C1D182F0E94A51D882341F010E006C0C0
:103A9000812F602F4F2D0E941C1D182F812F0E94F7
:103AA0002F1D1F910F91FF900895982FEEE0F2E0E7
:103AB0008491981711F481E00895319682E0E23103
:103AC000F807B1F780E00895E82FF0E0E555FE4FE4
:103AD000E4918E2F089580912D03089580912D03F8
:103AE000882329F481E080932D030E948F08089594
:103AF00080912D038823C9F480912E0390912F0388
:103B0000019690932F0380932E038053954768F07E
:103B100010922F0310922E03809130038F5F8093B9
:103B200030038A3011F40E946E1D089580912D0398
:103B3000882321F010922D030E94E10910922F0397
:103B400010922E0310923003089590E08D5B88311F
:103B500008F491E0892F089590E0895C8C3008F496
:103B600091E0892F089590E0809181038B3009F4D2
:103B700091E0892F089580913603089590E3E1E55F
:103B8000F3E0DF01292F1D922A95E9F710923803FF
:103B9000E9E3F3E0DF011D929A95E9F71092330310
:103BA0008093370381E08093360384EF91E00E9495
:103BB000BF0C88EE93E02CE231E0F9013197F1F788
:103BC0000197D9F784EF91E00E94BF0C089580918E
:103BD00037038C3078F460E3869FB00111246B5575
:103BE0007E4F81E593E040E350E00E94932A8FEFFF
:103BF0008093370308950E94E71D8FEF809337036A
:103C00001092360388EE93E00E94BF0C08958091D5
:103C10003603882311F00E94FB1D08950F931F9314
:103C2000022F60E00E94D81B182F8D3B08F053C074
:103C300080913103882371F0109232031092310386
:103C4000812F0E94B71FE0913803F0E0E05BFC4F4A
:103C500010822EC0002369F0809133038831D8F59B
:103C60008F5F8093330389E393E0612F0E94AB1F42
:103C70000EC089E393E0612F0E945F1FBC018FEFAC
:103C80006F3F780741F189E393E00E94791F8091AB
:103C90003803E82FF0E0EF5AFC4F10838F5F8093DA
:103CA0003803812F0E94B71F80913803803318F0AA
:103CB0000E94071E10C0002351F0193241F481E028
:103CC00080933203109235031092340304C0109293
:103CD0003203109231031F910F9108950F931F9398
:103CE000CF93DF93982F8C30C0F480E3989FC0016E
:103CF0001124EC01CB55DE4F8C010B521E4FCE012F
:103D00000E948B2A982F81508E3F18F4892F0E9491
:103D1000B71F2196C017D10791F7DF91CF911F915F
:103D20000F9108951F93182F0E94A51D882371F1EC
:103D30000E948C20882301F5193C90F0195C80E3E7
:103D4000189FC00111248B559E4F0E948B2A8150D1
:103D50008E3FD0F40E949620812F0E946E1E14C0C8
:103D60001D5B812F0E940D19882371F00E949620FF
:103D7000812F0E94801908C00E94F81F882331F00B
:103D80000E94BC200E94FB1F81E001C080E01F91C7
:103D900008958F929F92AF92BF92DF92EF92FF921F
:103DA0000F931F93DF93CF930F92CDB7DEB78C01A4
:103DB000DD244E010894811C911C80E6A82E80E031
:103DC000B82E33C000D000D000D0EDB7FEB731968A
:103DD000ADB7BEB712969C928E921197B382A28213
:103DE000800F911FDC018C91848315820E94F92938
:103DF0008DB79EB706960FB6F8949EBF0FBE8DBFC7
:103E000089810E940D207C01882319F088E60E9498
:103E1000B71F8F2D0E94B71F8F2D0E94B71FEE2056
:103E200019F088E60E94B71FD3948D2D90E0F80119
:103E300001900020E9F73197E01BF10B8E179F07E7
:103E400008F20F90CF91DF911F910F91FF90EF90AB
:103E5000DF90BF90AF909F908F90089528EB3BE04C
:103E600003C0F9013197F1F70197D9F708951F932E
:103E7000162F0E948B2A90E002C0959587951A957F
:103E8000E2F7809581701F9108950F931F93162F6D
:103E9000042F0E948B2A21E030E002C0220F331F42
:103EA0001A95E2F7622F60956823002309F4622BCC
:103EB00087E090E00E94A32A1F910F910895CF936D
:103EC000DF93EC01DC010D900020E9F71197A81BAE
:103ED000B90B70E0AD010E948429009719F4EFEF4F
:103EE000FFEF03C0FC01EC1BFD0BCF01DF91CF9175
:103EF00008959B01FC0101900020E9F73197E81B30
:103F0000F90B6F5F7F4F680F791FE21BF30B820F76
:103F1000931FAF010E949A290895FF920F931F9358
:103F2000F42E9B01DC010D900020E9F78C01060FB7
:103F3000171FA81BB90BA61BB70B2F5F3F4F820F94
:103F4000931FB801AD010E949A29F801F0821F91D8
:103F50000F91FF900895462FDC010D900020E9F7A6
:103F60001197A81BB90BBD010E948D1F0895282F22
:103F70008091B7039091B80301966CE271E00E94C2
:103F8000F228FC019093B8038093B7038091B503A6
:103F90009091B6038E179F0759F4009719F48BE29E
:103FA00091E001C001979093B8038093B7030895FF
:103FB000E654FC4F208308952091B5033091B60359
:103FC0008091B7039091B8032817390711F480E066
:103FD0000895C90101966CE271E00E94F228FC018B
:103FE0009093B6038093B503E654FC4F8081089507
:103FF0008091B90308951092B903089540E020918B
:10400000B5033091B6038091B7039091B803281798
:10401000390709F441E0842F0895982F81568A3199
:1040200018F4292F2D5510C0892F81548A3120F47E
:10403000292F2D5332E009C0892F8153893010F088
:1040400020E002C0292F235130E0892F90E0FC01AD
:10405000B097EF35F10508F048C0E65DFF4FEE0F71
:10406000FF1F0590F491E02D09942EE141C02FE14E
:104070003FC020E23DC021E23BC022E239C023E242
:1040800037C024E235C025E233C026E231C027E242
:104090002FC02CE22EC02DE22CC02DE229C02EE232
:1040A00028C02EE225C02FE224C02FE221C020E349
:1040B00020C020E31DC021E31CC021E319C023E37D
:1040C00018C023E315C024E314C024E311C025E382
:1040D00010C025E30DC026E30CC026E309C027E38A
:1040E00008C027E305C028E304C0222311F428E315
:1040F00032E0832F922F089527E2FBCF0F931F9377
:1041000002E813E090E0B8014AE050E00E94AC29D8
:10411000C8011F910F9108950E94FE1F882319F472
:1041200081E090E008950E941A1908950E94FE1FF0
:10413000882339F080E3E5E8F3E0DF011D928A95FA
:10414000E9F708951092B8031092B7031092B603DE
:104150001092B5038CE291E0EAEBF3E0DF019C0101
:104160001D9221503040E1F780E3E5E8F3E0DF0104
:104170001D928A95E9F708950E94A2200E942119B4
:1041800008950F931F93CF93DF930E94DC1F082F96
:10419000182F1D5B1C3058F40E94BC20812F0E94F8
:1041A000801981E08093B90382E000E01BC0C5E87C
:1041B000D3E0882331F480E3FE0111928A95E9F778
:1041C0000AC0CE01602F0E945F1FBC0197FD05C091
:1041D000CE010E94791F82E005C0CE01602F0E94AF
:1041E000AB1F81E0902FDF91CF911F910F91089528
:1041F0008091E6040895EF92FF920F931F93E82EAB
:10420000F62E03E610E0C8010E94C91E8F2D0E9401
:104210007E200E94C91E85E690E00E94C91E8E2D58
:104220000E947E200E94C91EC8010E94C91E1F91C3
:104230000F91FF90EF9008958093E6040E94EB08A1
:1042400008950E944B1B0E946E190E9446220E94F4
:10425000A71C0E941A0D08958091E704089580918B
:10426000E80408958091EE040895FC018081823075
:1042700011F483E001C081E080830895662369F032
:10428000843F29F48CEE94E00E9435210895833F09
:1042900021F48DEE94E00E9435210895982F8091AD
:1042A000EC04823059F08091ED04823029F49A3682
:1042B00029F080E09E3619F081E0089580E00895AD
:1042C000FC0180818130A1F482E0808382E390E070
:1042D0000E94BF0C84EF91E02CE231E0F9013197AC
:1042E000F1F70197D9F784E690E00E94BF0C08959A
:1042F000833029F4108284E690E00E94BF0C089578
:104300000E94EB080E943221813049F40E942F2143
:1043100060E0811161E081E00E94550508958230DE
:1043200041F40E942F2160E0811161E084E00E944D
:10433000550508950F931F93182F022F0E94F1091E
:10434000812F0E94551D882309F09CC0812F602F6A
:104350000E940B1C812F0E94F81B182F0E94551DD4
:10436000882309F08FC0002309F47FC01C3F51F05F
:10437000173F41F08091E704882309F43DC01A32C9
:10438000D9F515C08091E804882319F41C3F59F42D
:1043900004C01C3F21F4823051F082E005C0173F79
:1043A00031F4833021F083E08093E80402C010925E
:1043B000E8040E9432218823C1F48091E804882314
:1043C00019F484E690E00FC084E690E00E94BF0CF0
:1043D00080E293E02CE231E0F9013197F1F70197A7
:1043E000D9F786E490E00E94BF0C0E94802180E013
:1043F0001A3209F048C042C08091E904882361F074
:10440000812F0E94AC1D882339F0195C109379002C
:1044100081E08093EA0436C0193221F481E0809370
:10442000E70431C0153F71F48091EB0491E08927D6
:104430008093EB04882319F40E94EA0923C00E94A8
:104440009A0820C0123F59F40E94BB1D882319F01E
:104450000E94FB1D17C081E08093E90413C0812FE7
:104460006091E7040E945C0B0EC01C3F59F01932AA
:1044700019F41092E70402C0123F11F081E003C06A
:104480001092E90480E01F910F9108950E94E117B6
:10449000882341F08CEE94E00E9460218DEE94E040
:1044A0000E9460210E94E417882379F08091EA0439
:1044B000882359F01092EA04809179008F3F29F007
:1044C0000E94BE1D8FEF80937900089587E090E0F1
:1044D0000E948B2A482F8695869590E09C0121703A
:1044E000307080FD07C0842F82958F7080FF0DC0D3
:1044F00081E008C0222349F0842F82958F7080FDCF
:1045000004C082E08093EE0408951092EE040895B2
:104510008093EE04813041F487E090E00E948B2A82
:10452000682F6B7E606110C0823041F487E090E0BC
:104530000E948B2A682F6B7E646006C087E090E043
:104540000E948B2A682F646187E090E00E94A32A72
:104550000E94802108958091F0040895482F80934F
:10456000F00487E090E063E00E94451F089587E033
:1045700090E063E00E94371F8093F00408950F934A
:104580001F93182F062F8932B9F40E94AB2288237B
:1045900099F0002351F00E94C71C823011F0803244
:1045A00059F481E08093EF0406C08091EF048823E2
:1045B00019F01092EF0415E3812F1F910F910895C8
:1045C00081E080930705089581E08093F5041092BF
:1045D000F6048093F1040895982F81578A31B0F43E
:1045E00081E08093F704662369F0E92FF0E0EE0F95
:1045F000FF1FE852FE4F859194919093F9048093A8
:10460000F80408951092F9041092F8040895982F70
:1046100081578330B0F481E08093FA04662369F017
:10462000E92FF0E0EE0FFF1FE852FE4F85919491C5
:104630009093FC048093FB0408951092FC04109264
:10464000FB0408958091F204811181E008950F9395
:104650001F93082F81508C3B08F059C080578A3136
:1046600008F455C081E08093F204802F87566623BA
:1046700041F1883038F41091F304802F0E94641DBA
:10468000182B28C08091F404863008F040C0802F99
:104690008D58823128F4E02FF0E0EF59FD4F04915E
:1046A0008FEF94E0602F0E945F1F8F5F9F4F79F51F
:1046B0008FEF94E0602F0E94AB1F8091F4048F5F16
:1046C00024C0883050F41091F304802F0E94641DA0
:1046D000809518231093F3041AC0802F8D588231CF
:1046E00028F4E02FF0E0EF59FD4F04918FEF94E0B4
:1046F000602F0E945F1FBC0197FD09C08FEF94E0FF
:104700000E94791F8091F40481508093F4041F91DA
:104710000F9108951F93182F662351F061E00E94B6
:104720002723812F61E00E94EC22812F61E009C0E4
:1047300060E00E942723812F60E00E94EC22812FFD
:1047400060E00E94072381E01F9108952F923F921D
:104750004F925F926F927F928F929F92AF92BF9291
:10476000CF92DF92EF92FF920F931F93DF93CF933D
:1047700000D00F92CDB7DEB782B3837F82BB81B307
:10478000837F81BB0E942E258B9A20E048EB5BE063
:10479000CA010197F1F72150D9F78B988AE790E089
:1047A0000E94A2198CE790E00E94882686E0EFEF35
:1047B000F4E0DF011D928A95E9F71092F40410925B
:1047C000F3041092F9041092F8047894EE24FF2474
:1047D000DD2473E0972E64E0862E1E010894211CD0
:1047E000311C56E1A52E55E0B52E48E0C42E32E02E
:1047F000432E512C4A0C5B1C2FEF622E24E0722EAC
:1048000080918000813061F580910705882341F512
:104810008091050590910605019690930605809379
:1048200005050197895B9B40DCF0109280008BB7F7
:104830008F778BBF0F900F900F90CF91DF911F91CB
:104840000F91FF90EF90DF90CF90BF90AF909F902F
:104850008F907F906F905F904F903F902F90089532
:1048600080914005882349F0109240051092F10490
:104870000E94961DEE24FF2409C08091F104882334
:1048800039F0E1E0E09340050E94961DDD2419C057
:10489000DD20B9F487010F5F1F4FF1E1EF16F7E25A
:1048A000FF0674F00E94C71C882351F40E94BD1CAF
:1048B000882331F40E946E1D7801DD24D39401C059
:1048C00078010E943C258091300584FF6CC0809166
:1048D000F704882331F48091FA04882311F40E94AC
:1048E0000E1B0E9421218091F204882309F441C00B
:1048F00080910705882309F483CFDD2001F1F89426
:1049000022B331B3929A939881B38C6081BB88EEC5
:1049100093E0ECE2F1E03197F1F70197D1F782B340
:10492000882582BB82B38C2582BB88E293E2019703
:10493000F1F722BB31BB78941092F20461CFD5011C
:10494000EC2D1D92EA95E9F78091F304809316050A
:10495000109217054091F404C201B30150E00E9487
:10496000912986E195E068E00E9472261092F20497
:104970001AC08091F504813081F4F2E0F093F504DF
:10498000D501EC2D1D92EA95E9F786E195E068E006
:104990000E9472260E94EC1806C08091F6048230B4
:1049A00011F49092F60480915D0584FF22C08091FD
:1049B000F704882369F08091F8049091F9049982B2
:1049C0009B838A83C10163E00E946D261092F704E5
:1049D0008091FA04882369F08091FB049091FC0493
:1049E00089829B838A83C10163E00E946D261092B5
:1049F000FA048091F504823009F002CF8091FD0421
:104A00009091FE049C012F5F3F4F3093FE04209352
:104A1000FD04883C910519F40E948D27F1CE293CB4
:104A200031050CF4EDCE89EC90E09093FE04809378
:104A3000FD049092F504E4CE0E9471060E94EB08FA
:104A40008091F604882319F482E08093F604089597
:104A50008BE48093310580935E05089585B7886067
:104A600085BF8BB780688BBF0E9428258AE580931D
:104A7000300580935D0508951F93CF93DF93609178
:104A80004305635067FDB7C080913F05CCE0D0E09F
:104A9000C81BD109C95BDA4F80913E058D3209F000
:104AA00097C0683009F0A5C083EC809325058AE59E
:104AB00080937E0010923D058881807629F0CE019A
:104AC0000E940011282F71C09A8110922E058981B1
:104AD000882331F410922F058EE295E022E061C028
:104AE000853019F49093440559C0863009F042C0CE
:104AF0008B81813031F489B78B7F89BF8FE793E059
:104B00001DC0823019F18330F9F48A81882341F481
:104B10008DE493E0909342058093410524E026C004
:104B2000813041F481E593E0909342058093410503
:104B30002CE11CC08230C9F48DE693E090934205CD
:104B40008093410522E112C0813229F4CE010E94F6
:104B50008D10282F0BC0823241F4CE010E948D109F
:104B6000282F89B7846089BF01C020E080E480934A
:104B70003D051BC0883019F486E495E009C08930F2
:104B800019F4909346050AC08A3021F48EE295E02C
:104B900021E007C08B3011F40E9428258EE295E0B9
:104BA00020E090934205809341052F3F39F488819E
:104BB00087FD2E8180E880933D0506C08F81882384
:104BC00019F48E81821708F0822F80937F0011C024
:104BD00080913D0587FF0DC0CE010E94C7108F3F19
:104BE00021F48EE180937E0004C0882311F010929E
:104BF0007F001092430580917E0084FF3DC080912C
:104C00007F008F3FC9F1182F893008F018E0811B11
:104C100080937F008091250598E88927809325055A
:104C20001123E1F0E0914105F091420580913D05AD
:104C300086FF09C0912FA6E2B5E084918D9331964D
:104C40009150D9F707C0912FA6E2B5E081918D93DD
:104C50009150E1F7F0934205E093410586E295E03B
:104C6000612F0E940802612F6C5F6C3019F08FEF8A
:104C700080937F0060937E0094E180B38C7031F468
:104C80009150D9F71092440510923C05DF91CF91D5
:104C90001F9108951F93CF93DF93DC01162FEA0134
:104CA000888184FF05C0898198E88927898302C0AB
:104CB0008AE58883AE014E5F5F4FFA01212F8D9107
:104CC00081932150E1F7CA01612F0E9408021C5F05
:104CD0001883DF91CF911F9108954DE555E00E9413
:104CE0004A26089540E355E00E944A2608958D988B
:104CF000959A08958D9A959808959C0180918000C9
:104D0000882311F0833011F435952795C901089552
:104D100090930905809308050895E0910805F091A6
:104D200009050190F081E02D09950895F8940E94FD
:104D30006E0610920605109205051092070508955B
:104D40001F93182F0E94FB18112399F010E0812F58
:104D50000E9407041F5F1730D1F789B78E7F89BF84
:104D600089B78B7F89BF89B78F7B89BF0E947726E0
:104D700002C00E947A261F9108959F92AF92BF921F
:104D8000CF92DF92EF92FF920F931F93CF93DF9317
:104D90000E94FB180E94EC1884E18A95F1F710E05C
:104DA0000E943118882319F41F5F1431C9F70E943B
:104DB000EA177C0100E0DD2431E0A32EB12C2AE0CB
:104DC000922E95E0C92EF70180818823D1F1C0E0B1
:104DD000D0E095010C2E02C0220F331F0A94E2F797
:104DE000F7018081822349F180E06D2D4C2F0E94D4
:104DF0001C1D182F8C2F6D2D0E94C311882311F4B8
:104E00001B3221F481E00E941C2117C0183111F4DB
:104E1000016013C0133111F402600FC01E3121F480
:104E200081E08093600109C01F3119F4C0926001D4
:104E300004C0103211F4909260012196C830D1055F
:104E400041F6D3940894E11CF11CFFE0DF1609F051
:104E5000BACF0E9426180E94F017002319F00F5FA6
:104E60000093800060918000643021F48CE090E039
:104E70006FEF04C0643028F48CE090E00E94A32A15
:104E800006C08CE090E00E948B2A809380008A9874
:104E9000929A209180002430D0F080E090E08299B6
:104EA00007C092FD09C08F5F863060F021E00AC024
:104EB000829B09C092FD02C080E004C08F5F8630F3
:104EC00008F020E090B3223050F7209380000E9439
:104ED000A91B0E9466220E94B7220E94CA1C8091D0
:104EE00080008150823038F40E94962681E00E9432
:104EF000A0260E94A62380918000882311F0833091
:104F000071F70E94962682E390E00E94BF0C80E039
:104F10000E94A0260E941815E2CF0E94B20C0E94A7
:104F2000970C0E9498190895ABE0B0E0EAE9F7E227
:104F30000C9446295C014B017A01FC011782168210
:104F4000838181FD08C06FEF7FEF08C142E050E030
:104F5000E40EF51E04C03E010894611C711CF501AD
:104F6000D380F401D3FC8591D3FE81914F01882336
:104F700009F4F1C0853259F4D3FC6591D3FE6191F7
:104F80004F01653219F0062F10E01BC085E290E05A
:104F90002BC0002309F4DFC088E993E0602F70E0A4
:104FA0000E947929892B39F4033211F4106103C06E
:104FB0000C3661F41068F401D3FC0591D3FE019125
:104FC0004F0117FFE6CF002309F4C5C081E993E044
:104FD000602F70E00E947929892B51F044E050E065
:104FE000E40EF51E8FE390E0B5010E94CD29B7CF06
:104FF000033629F0033779F00335F1F40BC087014C
:105000000E5F1F4FF70180819181B5010E94CD296C
:105010007801A5CF1160F701C080D18004C090E075
:10502000B5010E94CD29F60110FD859110FF8191F7
:105030006F018823A1F78ACF043611F0093639F5BC
:1050400017FF08C0F701208131814281538184E03C
:1050500090E00AC0F701808191819C01442737FDCF
:105060004095542F82E090E0E80EF91E1F7E57FF16
:1050700008C050954095309521953F4F4F4F5F4F59
:105080001064CA01B901A3012AE030E034C000373E
:10509000A9F0013730F40835B1F00F3609F05BC0E4
:1050A00006C0053739F0083709F055C008C028E0B8
:1050B00030E00CC01F7E2AE030E008C010611462AE
:1050C00020E130E003C0146020E132E017FF08C0A7
:1050D000F701608171818281938144E050E008C0D2
:1050E000F70180819181BC0180E090E042E050E0D6
:1050F000E40EF51EA3010E941D2AD82ED618012FFA
:1051000010E006FF05C08DE290E0B5010E94CD29B8
:1051100004FF15C0FE01ED0DF11D8081803379F093
:1051200080E390E0B5010E94CD2902FF08C0007223
:105130001070C801885A9F4FB5010E94CD29DA949A
:10514000F301ED0DF11D808190E0B5010E94CD29A4
:10515000DD20A9F704CFF50166817781CB012B967D
:10516000EEE00C946229629FD001739FF001829F50
:10517000E00DF11D649FE00DF11D929FF00D839FE6
:10518000F00D749FF00D659FF00D9927729FB00D83
:10519000E11DF91F639FB00DE11DF91FBD01CF0196
:1051A00011240895991B79E004C0991F961708F0FF
:1051B000961B881F7A95C9F780950895AA1BBB1B7B
:1051C00051E107C0AA1FBB1FA617B70710F0A61B07
:1051D000B70B881F991F5A95A9F780959095BC0128
:1051E000CD01089597FB092E07260AD077FD04D03C
:1051F000E5DF06D000201AF4709561957F4F089581
:10520000F6F7909581959F4F0895A1E21A2EAA1B5B
:10521000BB1BFD010DC0AA1FBB1FEE1FFF1FA21766
:10522000B307E407F50720F0A21BB30BE40BF50B63
:10523000661F771F881F991F1A9469F760957095EC
:10524000809590959B01AC01BD01CF01089597FB1E
:10525000092E05260ED057FD04D0D7DF0AD0001C3A
:1052600038F450954095309521953F4F4F4F5F4F03
:105270000895F6F790958095709561957F4F8F4FC3
:105280009F4F08952F923F924F925F926F927F921D
:105290008F929F92AF92BF92CF92DF92EF92FF9246
:1052A0000F931F93CF93DF93CDB7DEB7CA1BDB0BF2
:1052B0000FB6F894DEBF0FBECDBF09942A88398897
:1052C00048885F846E847D848C849B84AA84B9849E
:1052D000C884DF80EE80FD800C811B81AA81B981AA
:1052E000CE0FD11D0FB6F894DEBF0FBECDBFED01BE
:1052F0000895FC010590061621F00020D9F7C001A1
:1053000008953197CF010895FC014150504030F08D
:1053100001900616D1F73197CF0108958827992774
:105320000895FB01DC0102C001900D9241505040F4
:10533000D8F708956817790768F4FB01DC01E40FDA
:10534000F51FA40FB51F02C002900E9241505040AD
:10535000D8F708950C949129FB019F01E8944230FD
:10536000C4F04532B4F44A3029F497FB1EF490950A
:1053700081959F4F642F77270E94DE28805D8A33B6
:105380000CF0895D8193CB010097A1F716F45DE2E3
:1053900051931082C9010C94C12A0F931F93CF938C
:1053A000DF938C01EB018B8181FF1BC082FF0DC05D
:1053B0002E813F818C819D812817390764F4E88113
:1053C000F9810193F983E88306C0E885F985802F88
:1053D0000995892B31F48E819F8101969F838E835D
:1053E00002C00FEF1FEFC801DF91CF911F910F9106
:1053F0000895AEE0B0E0EFEFF9E20C9450290D898A
:105400001E8986E08C831A8309838FEF9FE79E8332
:105410008D839E01275E3F4FCE0101966F89788D67
:10542000A9010E9494272F813885020F131FF801CC
:1054300010822E96E4E00C946C29FA01AA272830F9
:1054400051F1203181F1E8946F936E7F6E5F7F4F51
:105450008F4F9F4FAF4FB1E03ED0B4E03CD0670FCD
:10546000781F891F9A1FA11D680F791F8A1F911D20
:10547000A11D6A0F711D811D911DA11D20D009F470
:1054800068943F912AE0269F11243019305D3193B2
:10549000DEF6CF010895462F4770405D4193B3E09B
:1054A0000FD0C9F7F6CF462F4F70405D4A3318F042
:1054B000495D31FD4052419302D0A9F7EACFB4E0F3
:1054C000A6959795879577956795BA95C9F70097AB
:1054D0006105710508959B01AC010A2E069457954C
:1054E000479537952795BA95C9F7620F731F841FA3
:1054F000951FA01D0895DC01CB01FC01E199FECFB1
:1055000006C0FFBBEEBBE09A31960DB20D92415042
:105510005040B8F70895E199FECF9FBB8EBBE09A4B
:1055200099278DB30895DC01A40FB51F4150504059
:1055300048F0CB01840F951F2E910E94A42A415060
:105540005040D0F70895262FE199FECF9FBB8EBB28
:10555000E09A01970DB2021631F02DBB0FB6F89408
:10556000E29AE19A0FBE0895262FE199FECF9FBBE4
:105570008EBB2DBB0FB6F894E29AE19A0FBE01964E
:105580000895DC01FC01672F71917723E1F73297D1
:1055900004C07C916D9370836291AE17BF07C8F30E
:0655A0000895F894FFCF0E
:1055A6002563002E002C00FF0C78010151144914CC
:1055B6000205000000630101FFFF8A2322235AFF30
:0255C600FF00E4
:00000001FF
