:100000000C949E030C94E2030C94E2030C94E20320
:100010000C94E2030C94E2030C94E2030C94E203CC
:100020000C94E2030C94E2030C94D91F0C94AB20C3
:100030000C94E8190C94E2030C94E2030C94E20390
:100040000C94E2030C94E2030C94E2030C94E2039C
:100050000C94E2030C945B1A0C94E2030C94E203FC
:100060000C94E2030C94E2030C94E2030C94E2037C
:100070000C94E2030C94E2030C94E2030C94E2036C
:100080000C94E2030C94E2030C94E2030C94E2035C
:100090000C94E2030C94E2030C94E2030C94E2034C
:1000A0000C94E2030C94E2030C94E203250428046C
:1000B000A20433043B044704A204A204A204910452
:1000C00094044A044D04520460046E0471047504DF
:1000D00083049B06A106A506A806AC06B006B406D6
:1000E000B806BD06C106C506C906CC06D006D406AC
:1000F000D806DC06E106B90FB90FF30FF30F36107F
:1001000081118111811158108111FF10FF1075119B
:10011000811181117C110C110C110C110C110C119D
:100120000C110C110C110C110C110C110C110C11E7
:100130000C110C110C111E112E1135113C11461110
:1001400011121112241224121A122412241224122F
:100150001112111220122412241220121021372100
:100160002522372125227F21A2212522F8210722BD
:100170004D004E0029003B003D003F004100430080
:1001800045004A004B003A003C003E00400042005F
:1001900044004C005600540035001F00210023008D
:1001A000250027002E0055002A001E0020002200F6
:1001B000240026002D003100570060002B001A009B
:1001C00015001C000C001300300061005F001400DB
:1001D00008001700180012002F002A0057005D00C9
:1001E000E000160009000B000E00330028005E003E
:1001F0005C00040007000A000D000F00340000003E
:1002000058005A0052001D0006000500100037007B
:10021000E5005B005900E1001B00190011003600E9
:1002200038000151580062005100015100000000E7
:1002300000000000E700630050004F00E2000000F3
:100240002C000000E600E4000100010001000100B4
:100250000100010001000100010001000100010096
:100260000100010001000100010001000100010086
:100270000100010001000100010001000100010076
:100280000100010001000100010001000100010066
:1002900001000100010052002A00010001000100DC
:1002A0000100010001004E004E00010001000100AC
:1002B00001000100010001000100510028000100BF
:1002C0000100010001000100010050004F00010089
:1002D0000100010001000000010001000100AE006A
:1002E000AA00010001000100010001000100AC00B2
:1002F000AB00A900010001000100010001000100A4
:1003000001000100000000000000000001000100E9
:1003100001000100010000000100000001000100D7
:1003200001000100010001000100010001000100C5
:1003300001000100010001000100010001000100B5
:1003400001000100010001000100010001000100A5
:100350000100010001000100010001000100010095
:100360000100010001000100010001000100010085
:100370000100010001000100010001000100010075
:100380000100010001000100010001000100010065
:100390000100010001000100010001000100010055
:1003A0000100010001000100010001000100000046
:1003B0000100010001000100010001000100010035
:1003C0000100010001000100010001000100010025
:1003D0000100010001000100010001000000000017
:1003E0000000000001000100010001000100000008
:1003F00001000000010001000100010001000100F6
:1004000001000100010001000100010001000100E4
:1004100001000100010001000100010001000100D4
:1004200001000100010001000100010001000100C4
:1004300001000100010001000100010001000100B4
:1004400001000100010001000100010001000100A4
:100450000100010001000100010001000100010094
:100460000100010001000100010001000100010084
:100470000100010001000100010001000100010074
:100480000100010001000000010001000100010065
:100490000100010001000100010001000100010054
:1004A0000100010001000100010001000100010044
:1004B0000100010000000000000000000100010038
:1004C0000100010001000000010000000100010026
:1004D00000000000000000002A2B2800000000009F
:1004E00000000000000000000000002900000000E3
:1004F0002C1E3420212224342627252E362D373851
:10050000271E1F202122232425263333362E373859
:100510001F0405060708090A0B0C0D0E0F10111217
:10052000131415161718191A1B1C1D2F3130232DE3
:10053000350405060708090A0B0C0D0E0F101112E1
:10054000131415161718191A1B1C1D2F3130354C92
:10055000000000000000000000000000000000009B
:10056000000000000000000000000000000000008B
:100570000001010101010100010101010000000071
:100580000000000000000000000001000100010167
:10059000010101010101010101010101010101014B
:1005A000010101010101010101010100000001013E
:1005B000000000000000000000000000000000003B
:1005C0000000000000000000000000010101010027
:1005D0000403300000000C0341006500670069005F
:1005E0007300000012034100450062006F006100CB
:1005F00072006400730000000403090409025B0038
:10060000030100A0FA09040000010301010009210F
:10061000110100012240000705810308000A0904B6
:1006200002000103000000092111010001227100F4
:100630000705840320000A090401000203000000EA
:100640000921110100012222000705820320000177
:1006500007050303200001120110010000000845F6
:100660004107080100010203010660FF0961A101C1
:100670000962150026FF009520750881020963159F
:100680000026FF00952075089102C005010980A190
:100690000185031601002603001A81002A830075D4
:1006A0001095018100C0050C0901A1018504160106
:1006B00000269C021A01002A9C02751095018100F7
:1006C000C005010906A1018505050719E029E715FF
:1006D0000025019508750181020508190129059574
:1006E000057501910295017503910105071900290E
:1006F000EF1500250195F075018102C0050109067D
:10070000A101050719E029E71500250195087501E4
:1007100081029501750881010508190129059505D2
:10072000750191029501750391010507190029FFD3
:10073000150026FF00950675088100C011241FBE14
:10074000CFEFDAE0DEBFCDBF04B603FE24C0809158
:100750006F0290917002A0917102B0917202873085
:10076000904BA740B04BB9F410926F0210927002F8
:10077000109271021092720214BE84B7877F84BFF8
:1007800088E10FB6F89480936000109260000FBE6D
:10079000E0E0F8E3099511E0A0E0B1E0EAE4F5E477
:1007A00002C005900D92A233B107D9F712E0A2E37F
:1007B000B1E001C01D92AF36B107E1F70E948B1C7A
:1007C0000C94A3220C94000080E290E00E94692225
:1007D0008F31954451F482E290E00E94612291E0D1
:1007E000883009F090E0892F01C080E08170089581
:1007F000CF93C82F882319F06FE175E402C06FEF23
:100800007FEF80E290E00E948D22CC2311F068E01F
:1008100001C06FEF82E290E0CF910C946F2280E0F4
:100820000E94F8030C948B181F93CF93DF93EC0175
:10083000162F488150E0FA013197E331F10508F0B5
:1008400081C0EA5AFF4F0C945B22198288E028C0CD
:100850008981813009F076C00E94261A9A838B83A1
:100860007C836D8371C04B816A8189810E94310BC9
:100870009C838D8369C02C8130E0322F22278D81AB
:10088000282B4B816A8189810E944A0B5DC00E949E
:10089000660B5AC00E94FD0B26C00E94FF0B998375
:1008A0008A8352C06B8170E0898190E0982F8827FD
:1008B0002A81AE014C5F5F4F822B0E94020C44C024
:1008C0006B8170E0898190E0982F88272A81AE01A2
:1008D0004C5F5F4F822B0E94260C36C00E944B0C4F
:1008E00033C00E941F0B89832FC06B8170E0898108
:1008F00090E0982F88272A81AE014C5F5F4F822BB2
:100900000E94A70B21C06B8170E0898190E0982F35
:1009100088272A81AE014C5F5F4F822B0E94CB0B50
:1009200013C00E940F0410C00E94791B2FEF81EEAC
:1009300094E0215080409040E1F700C000000E9408
:10094000811A02C08FEF8883612FCE01DF91CF9192
:100950001F910C94791B0E94E403811107C00E942F
:10096000660B0E944B0C81E00C94F80308950E94E2
:10097000450A8FE19EE40197F1F700C000008FE186
:100980009EE40197F1F700C000000E94450A80E054
:100990000E94DE0A80FF04C00E940F040C94811A9A
:1009A00008950E94B7040E94AB040C94F9090C94BA
:1009B000FA09FB0122818031FFE59F0731F0813187
:1009C0003FE5930781F482E001C081E0222319F022
:1009D0000E94761602C00E94911643E062E081E018
:1009E0000E94BF050EC0222351F09C0122513F45B9
:1009F0002031310520F482510E945B0C02C00C941E
:100A0000050580E0089581E0089581E00895CF9381
:100A1000282F30E0F901E053FB4FC491F901E05B6E
:100A2000FA4F2491222359F081EE0E94F00D8C2F71
:100A30000E94F00D8C2F0E94080F81EE04C08C2FB5
:100A40000E94F00D8C2FCF910C94080FFF920F9302
:100A50001F93CF93DF93EC01F62E8881882331F129
:100A60008E010F5F1F4F813031F4C9818C2F0E949E
:100A7000F00D8C2F0AC0823029F489810E94F00D7C
:100A8000E80108C0833021F489810E94080FF8CF63
:100A90000E94070521968F2D8823F9F2EFE9FFE0E8
:100AA0003197F1F700C000008150F6CFDF91CF9170
:100AB0001F910F91FF90089560E00C9426054F92CE
:100AC0005F926F927F928F929F92AF92BF92CF92DE
:100AD000DF92EF92FF920F931F932B013C01C12CE9
:100AE000D12C7601C394D701C60104C0880F991F89
:100AF000AA1FBB1F4A95D2F7AC01BD0146015701A1
:100B000004C0880C991CAA1CBB1C2A95D2F7482942
:100B100059296A297B29D701C60104C0880F991F6A
:100B2000AA1FBB1F0A95D2F76A017B01C420D520FA
:100B3000E620F720C416D506E606F70639F4BC0110
:100B4000CD0164297529862997290AC0BC01CD01E8
:100B500060957095809590956421752186219721E7
:100B60001F910F91FF90EF90DF90CF90BF90AF90CB
:100B70009F908F907F906F905F904F9008950F930C
:100B8000382F262F60910A0270910B0280910C027F
:100B900090910D02042F432F0E945F050F910C943A
:100BA00056160E949118811102C00E94FF180C94E1
:100BB000D1040C94D70408950C94DB050C94DC0547
:100BC00008950E9401120E94E0052FEF84E39CE04B
:100BD000215080409040E1F700C000000C94811A41
:100BE000FF920F931F93CF93DF938C01FC01C08181
:100BF000D18180918B01811113C08281882349F0BA
:100C0000CE010E945C17F82E682FCE010E940217B9
:100C100004C0CE010E943017F82EBE018F2D04C0F3
:100C2000CE010E945C17BE010E94F00BEC01B801DE
:100C30000E94D904882309F46DC1C63DFCE5DF0795
:100C400009F4D1C0B0F4C531ECE5DE0768F4C23078
:100C5000FCE5DF0708F04FC0C1158CE5D80701F1AE
:100C6000C130DC4529F149C1C631DC4509F420C158
:100C700044C1CB3D8CE5D80771F150F4C73DFCE58C
:100C8000DF0709F4D3C0C83DDC4509F4F6C035C11F
:100C9000CC3DECE5DE0731F1CD3DDC45A1F02DC1C9
:100CA000F8018281882309F435C10E94E10532C12F
:100CB000F8018281882309F42DC180913702816077
:100CC0008093370227C1F8018281882309F422C169
:100CD0000E94FF181FC1F8018281882309F41AC1FC
:100CE00080E006C0F8018281882309F413C182E004
:100CF0000E94561D0FC1F8018281882309F402C1A8
:100D00000E949118811102C00E94FF180E94A4182D
:100D100090E09093610280936002FE01E350FC45F5
:100D2000E231F10520F4E759FF4F0C945B228091EA
:100D30006002816003C080916002826080936002E3
:100D40004BC0809160028460F9CF8091600213C033
:100D5000809160028061F2CF809160028062EECF6C
:100D6000809160028064EACF809160028068E6CF63
:100D70008091600284608860E1CF809160028E7F04
:100D8000DDCF809160028D7FD9CF809160028B7F13
:100D9000D5CF8091600213C0809160028F7ECECF4C
:100DA000809160028F7DCACF809160028F7BC6CF19
:100DB000809160028F77C2CF809160028B7F877FA6
:100DC000BDCF9091600297FB882780F921E08227B0
:100DD00080FB97F990936002809160020E94A818AE
:100DE0000E94011297C0F8018281882351F010926D
:100DF00037010E941A1A909334018093330182E0E4
:100E000022C08091370181110FC0809133019091F0
:100E100034010E94321A883C910530F486E20E9427
:100E2000F00D86E20E94080F82E024C0F801828162
:100E3000882361F0109238010E941A1A90933601AB
:100E40008093350180E20E94690F64C0809138016F
:100E500081110FC080913501909136010E94321AA4
:100E6000883C910530F487E20E94F00D87E20E94F1
:100E7000080F80E20E94700F4DC0F801828181113D
:100E8000D9CF809138018111F4CF809135019091B3
:100E900036010E94321A883C910558F780E20E9480
:100EA000700F88E20E94F00D88E20E94080F32C0A5
:100EB0000E94DB17382FF801228180910001909168
:100EC0000101222371F03A7A21E009F420E0209315
:100ED0003201222311F065E301C069E20E946E191C
:100EE00009C020913201222311F065E301C069E2BB
:100EF0000E9479190E9427180DC081E08093370164
:100F000080933801C801DF91CF911F910F91FF901D
:100F10000C94030580E0DF91CF911F910F91FF901A
:100F2000089580E090E008950895880F991F8053F8
:100F30009A4FFC01859194910895CF93DF930E947D
:100F4000F00B0E945A09EC01811520E5920708F088
:100F500041C0C11580E4D80708F028C1C83ED105BA
:100F600010F5C03ED10508F0A1C1C83AD10578F40A
:100F7000C53AD10508F0A2C0C130D10509F496C127
:100F800008F447C1C430D10508F090C142C1CF3B3D
:100F9000D10508F49EC0C03CD10508F43AC1CE0189
:100FA000805C9109F5C0C11590E2D90758F4C115CC
:100FB00021E0D20708F07AC1C03FD10508F429C169
:100FC000D06574C1C11580E3D80708F0E5C0CE0133
:100FD0009F70DEC0C11595E5D90708F043C0C11563
:100FE00024E5D20708F0F9C0C11582E5D80708F555
:100FF000C11591E5D90708F0DCC02C2F237081E0E2
:1010000090E002C0880F991F2A95E2F79C689E0124
:10101000F4E036952795FA95E1F72370922BCF707F
:10102000C695C69520E2C29FE0011124C82BD92B9A
:101030003DC18C2F869586959E0123703327C1155F
:10104000D34508F0BBC090E2899FE001112481E004
:1010500090E002C0880F991F2A95E2F7C82BD92B80
:10106000DC6824C1C11529E5D207A0F4C11588E5C3
:10107000D80708F0B7C0C11596E5D90708F0C9C070
:101080008C2F0E94D6098F71C82FD0E0DC2FCC277F
:10109000D0620CC1C1152AE5D20708F4A8C0CE0160
:1010A00090568115904208F0B4C08D2F8F710E9428
:1010B000D609DD27D0628F71D82BF8C0C53AD1058B
:1010C00009F4AAC0C63AD10509F4A9C0C3E8D0E41E
:1010D000EDC0C83AD10509F4A5C0C93AD10509F453
:1010E000A4C0CA3AD10509F4A3C0CB3AD10509F48A
:1010F000A2C0CC3AD10509F4A1C0CB3BD10509F47B
:10110000A0C0CC3BD10509F49FC0CD3AD10509F46C
:101110009EC0C03BD10509F49DC0CE3AD10509F46B
:101120009CC0CF3AD10509F49BC0C13BD10509F45D
:101130009AC0C23BD10509F499C0C33BD10509F45B
:1011400098C0C43BD10509F497C0C53BD10509F44B
:1011500096C0C63BD10509F495C0C73BD10509F43B
:1011600094C0C83BD10509F493C0C93BD10509F42B
:1011700092C0CD3BD10509F491C0CE3BD10509F415
:1011800090C0CA3BD10509F08FC0CAE2D6E48EC038
:101190000E949507EC018AC0CE019927D3FF03C0B6
:1011A000EC01D86C83C0EC01D06C80C0DF70D06AD9
:1011B0007DC0DC2FCC27C16FD06A78C090E2899FB8
:1011C000E001112481E090E002C0880F991F2A9568
:1011D000E2F7C82BD92BDA6869C0DC2FCC27C46FA3
:1011E000D06A64C0DC2FCC27C06FD06A5FC08C2F60
:1011F0008F700E94D60934E0D695C7953A95E1F7ED
:10120000CF70D0E0DC2FCC27D06A8F70806EC82BD7
:101210004DC0C0E0D0E04AC0C1E8D0E447C0C2E859
:10122000D0E444C0C2EED4E441C0C9EED4E43EC030
:10123000CAEED4E43BC0C5EBD4E438C0C6EBD4E47A
:1012400035C0C3EBD4E432C0C4EBD4E42FC0C7EB49
:10125000D4E42CC0CCECD4E429C0CDECD4E426C03A
:10126000C3E8D5E423C0CAE8D5E420C0C2E9D5E488
:101270001DC0C4E9D5E41AC0C1E2D6E417C0C3E278
:10128000D6E414C0C4E2D6E411C0C5E2D6E40EC070
:10129000C6E2D6E40BC0C7E2D6E408C0CFE6D4E489
:1012A00005C0C0E7D4E402C0C0E0D4E4CE01DF91C1
:1012B000CF9108958238910549F1B0F481339105B9
:1012C00009F459C048F48932910509F44FC08A32B3
:1012D000910509F455C008958533910509F441C07D
:1012E0008933910599F00895833E910531F138F4E1
:1012F000803E910591F0823E9105A9F00895863EC9
:10130000910501F1873E910539F108952091600220
:1013100020FD3BC021FD39C008958091600280FF0F
:1013200034C089E341C08091600282FF32C0809165
:10133000600284FF2CC080E037C08091600282FD93
:1013400028C0F5CF8091600283FF25C080916002A4
:1013500084FDF1CF87EE28C08091600283FD1BC021
:10136000F5CF8091600285FF18C019C0809160029E
:1013700085FF15C012C08091600286FF12C013C0A5
:101380008091600286FF0FC00CC080EE0DC083EE1E
:101390000BC082EE09C086EE07C085E305C089E276
:1013A00003C081E301C08AE290E008959091600259
:1013B00092FF0DC0282F2871283019F4877F846090
:1013C00006C0282F2471243011F48B7F886093FF8E
:1013D0000DC0282F2871283119F4877E846106C03A
:1013E000282F2471243111F48B7E886194FD877E2F
:1013F000089508950895E6E1F1E021E030E081915B
:10140000A82FA295AF70B0E091964C9191978F70F4
:10141000B90102C0660F771F8A95E2F7CB0180956C
:10142000482391964C9371E0E232F70741F7ADE023
:10143000B1E021E030E08D91E82FE295EF70F0E02F
:1014400041A18F70B90102C0660F771F8A95E2F73C
:10145000CB01962F9095492341A392A1982B92A35B
:1014600071E0A631B70739F7E1E5F1E0A9E3B1E0B2
:10147000119211921D921D9281E0E936F807C1F791
:101480008CE00E94E80A0C94D1054F925F927F9203
:101490008F929F92AF92BF92CF92DF92EF92FF9284
:1014A0000F931F93CF93DF9396E1492E91E0592E2E
:1014B000A1E5B1E020E001E010E06D018D909C908D
:1014C000119711961C921E92E20149912E01E42F70
:1014D000E295EF70F0E081A14F70B80102C0660F95
:1014E000771F4A95E2F7AB01862B81A382A1362FA5
:1014F0003095832382A370EA7A95F1F78DE0E82E88
:1015000081E0F82E80E090E0E70179907E01672D80
:1015100062956F7070E0EB0168A1AD90BC9011977F
:1015200070E0D72DDF700D2E02C0759567950A9477
:10153000E2F760FD08C0B801082E02C0660F771FF1
:101540000A94E2F702C060E070E0A62AB72A11967A
:10155000BC92AE92019689309105B1F681A18323A8
:1015600081A382A1842B82A3129631E0F6018081AF
:1015700091818816990609F430E0232BF2E24F1688
:10158000F1E05F0609F099CF4CE069E371E081E595
:1015900091E00E94E90A0E94D90581E0DF91CF9194
:1015A0001F910F91FF90EF90DF90CF90BF90AF9081
:1015B0009F908F907F905F904F900895E82FF0E07C
:1015C000EE0FFF1FE75CFE4F808191810895089523
:1015D0000895FF920F931F93CF93DF93D82FC92FB6
:1015E000F62E072F142F222349F081E080936B0100
:1015F0000E941A1A90936A018093690180916B018D
:101600008823B9F08091690190916A010E94321A91
:10161000069778F0ED2FFC2FAF2DB02F20E021178B
:1016200031F0819191918D939D932F5FF8CF10921E
:101630006B01DF91CF911F910F91FF90089584E08E
:10164000089550E0440F551F92E1699F400D511DD0
:10165000112498ED899F400D511D1124CA018396D4
:1016600008950F931F93CF93DF930E94210BEC01FA
:101670000E946122082F10E0102F0027CE01019652
:101680000E9461229801282BC901DF91CF911F91FF
:101690000F9108950F931F93CF93DF9300D0CDB791
:1016A000DEB72A8339830E94210B8C013981632F95
:1016B0000E946F222A81622FC80101960F900F901D
:1016C000DF91CF911F910F910C946F22AF92BF9237
:1016D000CF92DF92EF92FF920F931F93CF93DF93FE
:1016E000A12CE12CF12CB12C00E010E0C0E0D0E006
:1016F0006801CE0CDF1CC60180599E4F6C01FE01B3
:10170000EE0FFF1FEC0DFD1D259134914C2F6B2D1D
:101710008A2D0E944A0B2196C930D10581F70E5EB1
:101720001F4FB3948CE0B812E1CF98EDE90EF11C95
:10173000A39484E0A812D7CFDF91CF911F910F918E
:10174000FF90EF90DF90CF90BF90AF900895EF9211
:10175000FF920F931F93CF93DF937B01EA01E40E77
:10176000F51E8C01C8018396CE15DF0569F00036A1
:1017700023E0120720F40E946122888301C01882AE
:1017800021960F5F1F4FEECFDF91CF911F910F91E9
:10179000FF90EF900895EF92FF920F931F93CF93D6
:1017A000DF938B017A01080F191FEC01E81AF90A7F
:1017B000CE018396C017D10761F0C03623E0D2076F
:1017C00030F4F701EC0FFD1F60810E946F2221961B
:1017D000EFCFDF91CF911F910F91FF90EF90089580
:1017E000462F843038F47C3028F4693018F4672FA1
:1017F0000C94310B80E090E0089580E108958DE72E
:1018000090E00895EF92FF920F931F93CF93DF9391
:101810007B01EA01E40EF51E8C01C8018D579C4F37
:10182000CE15DF0561F00D37110520F40E9461220D
:10183000888301C0188221960F5F1F4FEECFDF9182
:10184000CF911F910F91FF90EF900895EF92FF922B
:101850000F931F93CF93DF938B017A01080F191F0A
:10186000EC01E81AF90ACE018D579C4FC017D10739
:1018700059F0CD37D10530F4F701EC0FFD1F608131
:101880000E946F222196EFCFDF91CF911F910F9190
:10189000FF90EF900895CF93DF93C3E8D3E060E02B
:1018A000CE010E946F222196C11584E0D807B9F7B6
:1018B000DF91CF910895FF920F931F93CF93DF9302
:1018C00000D0CDB7DEB7F82E8FE08F1530F18FEF57
:1018D00093E00E946122811120C003E813E0FF2001
:1018E00069F0011584E01807C1F0C8010E94612267
:1018F000811101C0FA940F5F1F4FF1CF19821A8234
:10190000C8010E9461228983882339F0CE010196A3
:101910000E945C050F5F1F4FF3CF0F900F90DF9178
:10192000CF911F910F91FF90089590937101809333
:1019300070010895E0917001F0917101309721F0EC
:101940000190F081E02D099480E00895E09170010C
:10195000F0917101309799F020910C01222359F0F8
:101960002091600227FF07C0DC012C9111962C9377
:10197000119725E02C930280F381E02D09940895BE
:1019800020916E0130916F018217930771F090934F
:101990006F0180936E01E0917001F09171013097B9
:1019A00021F00680F781E02D0994089520916C01C3
:1019B00030916D018217930771F090936D018093C0
:1019C0006C01E0917001F0917101309721F0008479
:1019D000F185E02D0994089585B7806885BF85B7A6
:1019E000806885BF089508950E94EC0C0C94F30C58
:1019F00081E008950E94111A0E94FB090C94A61A16
:101A00005F926F927F928F929F92AF92BF92CF928E
:101A1000DF92EF92FF920F931F93CF93DF93CDB797
:101A2000DEB72A970FB6F894DEBF0FBECDBF0E9477
:101A3000450A0E94F80C811111C08FEF89838A83B7
:101A40001B820E941A1A8160782F9D838C834981A2
:101A50005A816B818D810E94BC0D57C093E7C92EBE
:101A600091E0D92E00E010E0AA24A394B12C502ECE
:101A7000802F0E94DE0A3C01F601E190F1906F0197
:101A8000E826F926E114F10431F40F5F1F4F0C3002
:101A9000110569F7D2CF8091370281FD0E94E70AD4
:101AA00020E030E04501022E02C0880C991C0A9407
:101AB000E2F7C4018E219F21892B09F12E835F82D9
:101AC0006820792081E0672809F480E088870E94F7
:101AD0001A1A8160782F9A8789874E815F8168857D
:101AE0008A850E94BC0DF801EE0FFF1FED58FE4FD6
:101AF00080819181882599259183808306C02F5FFD
:101B00003F4F2930310571F6C0CF109172010E940C
:101B10009A0C1817D9F00E949A0C809372012A9699
:101B20000FB6F894DEBF0FBECDBFDF91CF911F91EE
:101B30000F91FF90EF90DF90CF90BF90AF909F906C
:101B40008F907F906F905F900C94DE052A960FB671
:101B5000F894DEBF0FBECDBFDF91CF911F910F91E3
:101B6000FF90EF90DF90CF90BF90AF909F908F90BD
:101B70007F906F905F900895CF93DF93CDB7DEB7DE
:101B80002B970FB6F894DEBF0FBECDBF4F8358879B
:101B900069877A878B87DE01119686E0FD011192B5
:101BA0008A95E9F785E0FE01379601900D928A95B6
:101BB000E1F749815A816B817C818D819E810E94F0
:101BC000DE142B960FB6F894DEBF0FBECDBFDF91AB
:101BD000CF910895FC01808191810E949C17089506
:101BE000882309F414C18238C1F40E949A0C81FD43
:101BF0000EC169E380910001909101010E946E196C
:101C00000E9427182FEF81EE94E0215080409040F1
:101C1000E1F700C0000069E319C08338F9F40E94BD
:101C20009A0C80FDF4C063E5809100019091010160
:101C30000E946E190E9427182FEF81EE94E0215028
:101C400080409040E1F700C0000063E58091000112
:101C5000909101010E9479190C9427188438C1F4DD
:101C60000E949A0C82FDD3C067E48091000190919C
:101C700001010E946E190E9427182FEF81EE94E057
:101C8000215080409040E1F700C0000067E4DECFC3
:101C90009CEF980F913A40F4682F80910001909149
:101CA00001010E946E19D8CF90E2980F983050F43D
:101CB000877091E001C0990F8A95EAF7892F0E94F9
:101CC000DE17CACF9BE5980F933070F4853A29F060
:101CD000863A31F482E890E005C081E890E002C0E5
:101CE00083E890E00C94C00C98E5980F973108F0C9
:101CF0008EC0883A09F445C0893A09F445C08A3A49
:101D000009F445C08B3A09F445C08C3A09F445C042
:101D10008B3B09F445C08C3B09F445C08D3A09F46E
:101D200045C0803B09F445C08E3A09F445C08F3A5E
:101D300009F445C0813B09F445C0823B09F445C024
:101D4000833B09F445C0843B09F445C0853B09F455
:101D500045C0863B09F445C0873B09F445C0883B34
:101D600009F445C0893B09F445C08D3B09F445C0E1
:101D70008E3B09F445C08A3B09F045C08AE292E0F7
:101D800044C082EE90E041C089EE90E03EC08AEE11
:101D900090E03BC085EB90E038C086EB90E035C02A
:101DA00083EB90E032C084EB90E02FC087EB90E0B3
:101DB0002CC08CEC90E029C08DEC90E026C083E82C
:101DC00091E023C08AE891E020C082E991E01DC043
:101DD00084E991E01AC081E292E017C083E292E0C8
:101DE00014C084E292E011C085E292E00EC086E267
:101DF00092E00BC087E292E008C08FE690E005C059
:101E000080E790E002C080E090E00C94D60C08954A
:101E1000882309F45DC0823879F40E949A0C81FF0E
:101E200057C069E380910001909101010E946E19F1
:101E30000E94271869E310C08338B1F40E949A0CFD
:101E400080FF46C063E580910001909101010E94EE
:101E50006E190E94271863E580910001909101019D
:101E60000E9479190C942718843879F40E949A0CEE
:101E700082FF2EC067E480910001909101010E94D1
:101E80006E190E94271867E4E7CF9CEF980F913AEC
:101E900010F4682FE1CF90E2980F983050F48770DB
:101EA00091E001C0990F8A95EAF7892F0E94E41703
:101EB000D9CF9BE5980F933020F480E090E00C940C
:101EC000C00C885A873120F480E090E00C94D60C46
:101ED0000895882321F00E94DE170C942718089596
:101EE000882321F00E94E4170C94271808958F92FC
:101EF0009F92BF92CF92DF92EF92FF920F931F9328
:101F0000CF93DF9300D0CDB7DEB74C01472FFC0154
:101F1000C580C2949FE0C922D280DD2031F0798350
:101F20006A830E94FB176A81498149836A830E9400
:101F3000D41749816A81882389F0DD2079F080E215
:101F4000860F883058F082E00E9472180E94D417E1
:101F5000BB24B394B82649816A8101C0B12CE42E18
:101F6000E2948FE0E822F12CF701E558FF4F0C9442
:101F70005B22842F807F142F1F70882311F012950D
:101F8000107FDD20C1F0112309F49AC180E2860F91
:101F9000883010F0611105C0812F6A830E94DE171E
:101FA00004C0812F6A830E94EE176A816A830E94AF
:101FB00027186A8185C1862F6A830E94080F6A816B
:101FC000112309F49EC180E2860F883010F0611160
:101FD00004C0812F0E94E41703C0812F0E94F417D0
:101FE0000E9427188EC1842F807F142F1F7080328B
:101FF00011F01295107F662319F06130D9F026C0D8
:10200000DD2079F0CC2049F0F1E0CF1206C00E942B
:102010000E18812B0E94141874C10E940E18812B77
:1020200004C1CC2021F021E0C21609F46AC10E944B
:102030001D1800C1DD2029F085E08C1508F461C170
:10204000F3C094E09C1508F45CC1F4C0DD2051F0AD
:10205000CC2009F4E9C0F401858180FF31C18F7083
:102060008583E2C0CC2009F4E5C03BC1242F26952E
:102070002695237030E02115310521F021303105FE
:1020800061F03FC1DD2021F0862F942F937002C0B4
:1020900080E090E00E94C00C44C1DD2021F0862F3A
:1020A000942F937002C080E090E00E94D60C39C15A
:1020B000842F837009F04EC0D1102FC1262F229596
:1020C00026952770220F220F862F8F70C82ED12CB5
:1020D000E12CF12C022E04C0CC0CDD1CEE1CFF1CEC
:1020E0000A94D2F764FF10C06FE070E080E090E0E7
:1020F00004C0660F771F881F991F2A95D2F7609535
:1021000070958095909503C060E070E0CB01242F1E
:1021100026952695237030E02230310569F0233072
:10212000310589F06C297D298E299F2921303105BF
:1021300071F00E942F16F1C06C297D298E299F29EC
:102140000E944116EAC00E942F16C701B6010E94E4
:102150001D16E3C0DD2019F0842F817001C0869523
:10216000882309F4DAC0262F229526952770220F9E
:10217000220F862F8F70C82ED12CE12CF12C022E2D
:1021800004C0CC0CDD1CEE1CFF1C0A94D2F764FFCB
:1021900010C06FE070E080E090E004C0660F771F31
:1021A000881F991F2A95D2F7609570958095909514
:1021B00003C060E070E0CB01242F269526952370A4
:1021C00030E02230310569F02330310589F06C2987
:1021D0007D298E299F292130310571F00E94DD165D
:1021E0009CC06C297D298E299F290E94EF1695C0DD
:1021F0000E94DD16C701B6010E94CB168EC0062FC5
:1022000010E0F801E05EF109E531F10508F054C095
:10221000E557FF4F0C945B22162F1F70842F8F7190
:10222000DD2031F00E947616812F0E94690F69C06F
:102230000E949116812F0E94700F63C0DD2049F02B
:10224000F4E0FC1508F45DC0842F8F710E94B01675
:1022500058C025E02C1508F454C0F6CFDD2039F025
:10226000842F8F710E9476164CC0DD20C9F3842F15
:102270008F710E94911645C0DD2029F0842F8F7147
:102280000E9467163EC00E9462163BC0DD2051F0DE
:10229000142F1F71812F0E94761663E0812F0E94F8
:1022A0005D182FC081E00E94721881E08C1548F5FE
:1022B00082E00E94721825C0DD2031F0CC2081F22E
:1022C000862F0E94F00D1DC0CC2089F2693349F49D
:1022D0009FEFE7EEF3E09150E040F040E1F700C0FF
:1022E0000000862F0E94080F0CC04F70C4010E948E
:1022F00091070E948B1515C04F70C4010E9494076E
:1023000010C028E0E216F10441F05CF09AE0E91A0E
:10231000F108E2E0EE16F10420F40E949A0C0E940B
:10232000DE05BB20F1F00E94D01780FD1AC0F40139
:1023300012820E94CA170E947616C4010E94BF1121
:102340000E94CA170F900F90DF91CF911F910F91AC
:10235000FF90EF90DF90CF90BF909F908F900C9464
:1023600091160F900F90DF91CF911F910F91FF90D9
:10237000EF90DF90CF90BF909F908F9008950F9334
:102380001F93CF93DF93EC01288139818B819C814E
:10239000892B31F03F3F11F080E003C02F3FE1F780
:1023A00081E0811113C0CE010E94F005882371F0F5
:1023B000688179818A810E94A7178C010E94011788
:1023C0000E941A16B801CE010E94770FDF91CF91BB
:1023D0001F910F9108950E94FB170E940B180E94F5
:1023E000271880E090E00E94C00C80E090E00C9400
:1023F000D60C80910001909101010E9484190C94E7
:10240000EB110E94EB170C94F911E92FE295EF7094
:10241000F0E03297EE30F105B8F4E056FF4F0C943F
:102420005B22803F59F018F4803E70F407C0843F6F
:1024300059F404C0803E10F0813F31F481E00895EA
:1024400093FB882780F9089580E008950E949C17E7
:102450000E9405120895CF93DF9300D000D01F9201
:10246000CDB7DEB70F900F900F900F900F90DF91C8
:10247000CF910895CF93DF9300D000D000D0CDB797
:10248000DEB726960FB6F894DEBF0FBECDBFDF9144
:10249000CF9108951F93CF93DF93C0918C0116E0E5
:1024A00080918D01C81799F0D0E01C9FF0011D9F0D
:1024B000F00D1124E257FE4F4081518162817381FA
:1024C000848195810E943A122196C770E9CFDF91ED
:1024D000CF911F9108954091BE015091BF0160912D
:1024E000C0017091C1018091C2019091C3010C940F
:1024F0003A12CF938091C30182958F7009F05FC02B
:102500008091C001882309F45AC020918C01A091C8
:102510008D016091BE017091BF018091C1019091C8
:10252000C20131E06F3F09F030E0B32FC6E02A1757
:1025300009F445C0009721F07F3F21F44B2F03C0E1
:1025400041E001C040E030E040FD35C0C29FF001F5
:10255000C39FF00D1124E257FE4F418174132BC02D
:102560004081641328C04281411125C043815481B8
:102570004817590710F441505109481B590B483C62
:102580005105C8F48091C3018F7080618093C301AD
:1025900086E0829FF001839FF00D1124ED56FE4FDF
:1025A00080818F70806180838EEB91E00E94BF11EB
:1025B000CF910C944A122F5F3F4F2770B8CFCF9125
:1025C0000895CF92DF92EF92FF920F931F93CF93D4
:1025D000DF93CDB7DEB762970FB6F894DEBF0FBEBC
:1025E000CDBF8C0185E0F801DE011D9601900D92B2
:1025F0008A95E1F7D8014C9111965C91119712964A
:102600006C9112971396ED90FC9014977091BE0107
:10261000E091BF012091C1013091C2012115310526
:1026200031F0EF3F31F481E07F3F19F403C081E0E6
:1026300001C080E0B82FB170CB2E80FD6BC1D0906F
:10264000C001DD2009F4F5C0F091C301E216F306E4
:1026500038F0C701821B930B883C910548F09DC060
:10266000209530952E0D3F1D283C310508F095C072
:102670008F2F807F09F052C0E51314C0741312C06D
:10268000D62E61110FC0FF70F061F093C3010E945C
:102690006B128EEB91E00E94BF118091C301F80193
:1026A00085837CC1EF2831F05F3F31F481E04F3FFB
:1026B00019F403C081E001C080E080FD03C081E027
:1026C000862701C080E0F82FF170FF2E80FF1CC02C
:1026D00080918C0120918D0136E0821709F438C178
:1026E00090E0389FF001399FF00D1124E257FE4F22
:1026F0007181571306C07081471303C0728167133D
:1027000003C001968770E9CFD62E662309F446C12F
:102710008091C30181608093C30155C0E51308C057
:10272000741306C0611104C0D8011596FC93AEC0A5
:102730004D875E878D859E856A8B0E9426126A89E9
:10274000882329F1D62E662311F12091C301822F0F
:1027500082958F7090E002970CF462C08091BE0168
:102760009091BF0198878F831986FB86EA862C8714
:10277000CE01079653C0E51741F14D875E878D85E1
:102780009E856A8B0E9426126A89811130C0C80119
:102790000E94BF11DD24D39401C18F2F807F59F790
:1027A0007E2DF98AE88A89890E942B128EEB91E0AE
:1027B0000E94BF11EEEBF1E086E0DF011D928A95E9
:1027C000E9F70E946B12D12CE9C07413D6CF6111C6
:1027D000D4CFD8011596FC93C8010E94BF11EEEB2F
:1027E000F1E086E0DF011D928A95E9F7D7C0D62E89
:1027F000662369F22091C301822F82958F7090E049
:10280000029774F08091BE019091BF019A838983F1
:102810001B82FD82EC822E83CE0101960E94BF11A5
:1028200086E0F801AEEBB1E001900D928A95E1F7F8
:102830008AC0E216F30628F0C701821B930B9C01A5
:1028400004C0209530952E0D3F1D283C310508F021
:1028500053C0D62E662309F49ACFE5132CC0741307
:102860002AC08091C30180FD1DC0982F92959F7052
:10287000C9F0D80115968C9315979F3039F09F5F5A
:102880009295907F8F70892B15968C93C8010E942A
:10289000BF1186E0F801AEEBB1E001900D928A9590
:1028A000E1F753C086E0F801AEEBB1E001900D9284
:1028B0008A95E1F773C04D875E878D859E850E945E
:1028C0002612882381F096E0F801AEEBB1E001908A
:1028D0000D929A95E1F78A8B0E9479120E946B12F1
:1028E0008A89D82E5BC08091C30181608093C30127
:1028F000C8010E94BF1152C07E2DF98AE88A8989D9
:102900000E942B12EEEBF1E086E0DF011D928A952A
:10291000E9F71BC0662309F43ACF4D875E878D85A2
:102920009E850E942612D82E882309F430CF86E097
:10293000F801AEEBB1E001900D928A95E1F78EEBD4
:1029400091E00E94EA0D0E9479120E946B1226C04B
:102950004D875E878D859E850E949C17292F229525
:102960002F7030E0223031052CF49F7041F081113E
:1029700006C00CC0243031052CF49F7049F4805EF1
:10298000883020F0C8010E94BF11CF2CDC2C06C07B
:10299000D80115969C91907F91F7F8CF8D2D629676
:1029A0000FB6F894DEBF0FBECDBFDF91CF911F9160
:1029B0000F91FF90EF90DF90CF9008951F93CF93EA
:1029C000DF93CDB7DEB72C970FB6F894DEBF0FBEFE
:1029D000CDBF4F83588769877A878B879C87CE01C5
:1029E00007960E94E1128823C1F02F8138858A85DD
:1029F0009B85892B31F03F3F11F080E003C02F3FD2
:102A0000E1F781E0811147C04F81588569857A855A
:102A10008B859C850E943A123EC086E0FE01379667
:102A2000DE01119601900D928A95E1F7FF81E8850C
:102A30004A855B854115510531F0EF3F31F481E066
:102A4000FF3F19F403C081E001C080E080FD23C096
:102A500020918D0130E0C90101968770992760911E
:102A60008C0170E086179707F1F1F983EA835D83A3
:102A70004C8396E0929FD001939FB00D1124A257F2
:102A8000BE4FFE01319601900D929A95E1F7809329
:102A90008D010E944A1216E080918C0190918D0167
:102AA000891779F1189FC001112482579E4F0E9407
:102AB000E112882331F1E0918C011E9FF001112475
:102AC000E257FE4F408151816281738184819581FB
:102AD0000E943A1280918C0190E0019687709927AC
:102AE00080938C01D9CF0E94011210928D01109217
:102AF0008C01EEEBF1E086E0DF011D928A95E9F7AB
:102B0000CACF2C960FB6F894DEBF0FBECDBFDF91B3
:102B1000CF911F910895EF92FF920F931F93CF9340
:102B2000DF93FC01009709F46FC0F12CEE24E394CD
:102B3000EF0121968491843740F4843008F055C029
:102B4000813081F0823021F15FC0853709F447C0C0
:102B5000C0F19CE7980F903708F056C08F770E941D
:102B6000080F45C08F010E5F1F4FFE01849190E258
:102B7000980F983050F48770FE2D01C0FF0F8A9592
:102B8000EAF78F2F0E94FE1715C00E94F00D14C0A7
:102B90008F010E5F1F4FFE01849190E2980F9830D5
:102BA00068F48770FE2D01C0FF0F8A95EAF78F2F1A
:102BB0000E9404180E942718E80119C00E94080FFB
:102BC000FBCFCF010296FE01C491CC2361F0EFE967
:102BD000FFE03197F1F700C00000C150F6CFCF0100
:102BE0000296FE01F490EC0102C00E94F00D8F2DC0
:102BF000882341F0EFE9FFE03197F1F700C00000D2
:102C00008150F6CFFE0194CFDF91CF911F910F91AC
:102C1000FF90EF90089508950C940B160E940C16E7
:102C200060930E0270930F02809310029093110232
:102C30000C94EB1108950C940E160F931F930091B2
:102C40000E0210910F022091100230911102602BA0
:102C5000712B822B932B1F910F910C940E160F93B7
:102C60001F9300910E0210910F02209110023091DB
:102C7000110260237123822393231F910F910C94DF
:102C80000E160F931F9300910E0210910F022091C8
:102C900010023091110260277127822793271F911C
:102CA0000F910C940E1608950C9453160E9454160E
:102CB00060930A0270930B0280930C0290930D02B2
:102CC0000C94EB1160E070E0CB010C94561641E0DF
:102CD00050E060E070E004C0440F551F661F771F8E
:102CE0008A95D2F7CB01BA010C94561641E050E018
:102CF00060E070E004C0440F551F661F771F8A957F
:102D0000D2F780910A0290910B02A0910C02B0912F
:102D10000D02482B592B6A2B7B2BCB01BA010C944B
:102D2000561641E050E060E070E004C0440F551FCB
:102D3000661F771F8A95D2F74095509560957095DC
:102D400080910A0290910B02A0910C02B0910D02A9
:102D5000482359236A237B23CB01BA010C945616CE
:102D600041E050E060E070E004C0440F551F661F72
:102D7000771F8A95D2F780910A0290910B02A09159
:102D80000C02B0910D02482759276A277B27CB01F7
:102D9000BA010C9456160F931F9300910A021091DA
:102DA0000B0220910C0230910D02602B712B822BB3
:102DB000932B1F910F910C9456160F931F93009114
:102DC0000A0210910B0220910C0230910D02602337
:102DD0007123822393231F910F910C9456160F9306
:102DE0001F9300910A0210910B0220910C02309166
:102DF0000D0260277127822793271F910F910C9452
:102E00005616089529E0929F800D1124482F46956B
:102E1000469546958770B1E001C0BB0F8A95EAF7E9
:102E200085E0489FA00111244C535E4F80E090E064
:102E300070E0FA01E80FF91FA0819B01082E02C083
:102E4000369527950A94E2F72170332721952A2792
:102E50002B232A27208301968530910551F7089569
:102E600029E0929F800D1124682F669566956695DE
:102E7000982F977085E0689FB00111246C537E4FA6
:102E800040E050E080E0FB01E40FF51F208130E0DE
:102E9000092E02C0369527950A94E2F72170332750
:102EA000042E01C0220F0A94EAF7822B4F5F5F4F76
:102EB0004530510541F70895CF92DF92EF92FF928E
:102EC0000F931F93CF93DF93EC01C0900E02D0902D
:102ED0000F02E0901002F090110280910A0290918E
:102EE0000B02A0910C02B0910D02C82AD92AEA2A3D
:102EF000FB2A0FE110E0B701A601002E04C0769571
:102F00006795579547950A94D2F740FD05C0015043
:102F1000110988F780E007C0BE01802F0E949D073D
:102F20000197A9F3802FDF91CF911F910F91FF900F
:102F3000EF90DF90CF900895CF93DF93EC010E9444
:102F40005C17BE010E949D07DF91CF9108951F93EA
:102F5000CF93DF93EB0190918B01992321F0CB016B
:102F60000E949C1713C0882349F0CB010E945C1774
:102F7000182F682FCE010E94021704C0CB010E94B7
:102F80003017182FBE01812F0E949D07DF91CF912E
:102F90001F910895809112028595859585950895D4
:102FA000809112028770089590911202977081E0CB
:102FB00009F480E0089580913602089590913602D8
:102FC000982B90933602089580959091360298231D
:102FD000909336020895109236020895909135022A
:102FE000982B9093350208958095909135029823FF
:102FF000909335020895109235020895909134020D
:10300000982B9093340208958095909134029823E0
:10301000909334020895109234020895809113021F
:10302000089508950C94111890911302981721F0A7
:10303000809313020C941218089580911302882330
:1030400029F01092130280E00C9412180895E09178
:103050000001F0910101809136028083E09100012E
:10306000F0910101808190913502892B8083E0915C
:103070000001F0910101808190913402892B8083BD
:1030800090911302992381F0E0910001F0910101E8
:103090008081892B808380910001909101010E94A1
:1030A000011981110E941D18809100019091010168
:1030B0000C94A60C08950C945A1898E0899F9001DE
:1030C0001124622B609312020E94761680911202E4
:1030D0008595859585950C945B181092120280E079
:1030E0000C945B1840911202809584238093120205
:1030F000982F977079F450E0282F332727FD3095CB
:103100004217530739F08595859585950E9491164C
:103110000C946D1808956FEF7FEF80E090E00C94B1
:103120008D2280E090E00E94692221E08D3E9E4F3A
:1031300009F020E0822F089582E090E00C94612253
:1031400083E090E00C94612284E090E00C94612292
:10315000682F84E090E00C946F22AB01BC018FE0FB
:1031600090E00C948122AB01BC0183E190E00C94CF
:10317000812260E070E0CB010C94B31860E070E055
:10318000CB010E94AD180C94B9186DEE7EEF80E073
:1031900090E00E948D2260E082E090E00E946F2229
:1031A00060E083E090E00E946F2210920E02109285
:1031B0000F02109210021092110260E084E090E081
:1031C0000E946F2260E085E090E00E946F2260E044
:1031D00086E090E00E946F226FEF87E090E00E940F
:1031E0006F2240E050E0BA0188E090E00E94812226
:1031F00060E08DE090E00E946F220C94BE180C9469
:10320000C518029620910C01211102C026E005C0CC
:103210002091600227FFFACF2EE1FC0180E02150CF
:1032200028F091919923D9F38F5FF9CF089520E089
:1032300030E04FEFFC01E20FF31F5281561799F077
:103240004F3F19F4511101C0422F2F5F3F4F2630DD
:10325000310581F74F3F39F0FC01E40FF11D47FDC7
:10326000FA9562830895089520E030E0FC01E20FB2
:10327000F31F4281461301C012822F5F3F4F263059
:103280003105A1F70895262F2695269526952E31EE
:1032900070F4FC01E20FF11D677021E030E0062EB2
:1032A00001C0220F0A94EAF78281822B828308955B
:1032B000262F2695269526952E3178F4FC01E20FCF
:1032C000F11D677021E030E0062E01C0220F0A9444
:1032D000EAF72095828128232283089520910C010A
:1032E000222329F02091600227FD0C9443190C94AD
:1032F000171920910C01222329F02091600227FD4B
:103300000C9458190C94341920910C01FC0132963C
:10331000222331F08091600287FF02C08EE101C05C
:1033200086E0DF011D928A95E9F7089508950C94CF
:1033300096190E94971980916602843031F110929B
:10334000380220E488E190E00FB6F894A8958093C5
:1033500060000FBE2093600080E00E94DE050E94A6
:10336000971983B7817F846083BF83B7816083BFF0
:103370007894889583B78E7F83BF88E10FB6F894E1
:1033800080936000109260000FBE08950895089524
:10339000CF930E94C6190E94450A0E94C719C0E037
:1033A0008C2F0E94DE0A892B29F4CF5FCC30C1F725
:1033B00080E001C081E0CF91089508950C94DD195B
:1033C0000E9401120E949A0C0E94DE050C94DE19E4
:1033D0001F920F920FB60F9211248F939F93AF936A
:1033E000BF9380913802811113C080915C0290914B
:1033F0005D02A0915E02B0915F024196A11DB11DD8
:1034000080935C0290935D02A0935E02B0935F0292
:10341000BF91AF919F918F910F900FBE0F901F9012
:10342000189582E084BD93E095BD9AEF97BD809397
:103430006E0008952FB7F89480915C0290915D0220
:10344000A0915E02B0915F022FBF08952FB7F8944C
:1034500060915C0270915D0280915E0290915F02CA
:103460002FBF0895CF92DF92EF92FF920F931F9399
:103470002FB7F89440915C0250915D0260915E021A
:1034800070915F022FBF6A017B01EE24FF248C0143
:1034900020E030E0C016D106E206F30610F44150F9
:1034A0005109481B590BCA011F910F91FF90EF90D2
:1034B000DF90CF90089578941F920F920FB60F92DD
:1034C00011248F939F93AF93BF9380915C0290914F
:1034D0005D02A0915E02B0915F020196A11DB11D37
:1034E00080935C0290935D02A0935E02B0935F02B2
:1034F000BF91AF919F918F910F900FBE0F901F9032
:10350000189581E08093E00080E28093D8001092CB
:10351000C9008FE19EE40197F1F700C0000087E049
:1035200090EBDC0180936F0290937002A093710284
:10353000B09372022CE088E190E00FB6F894A89561
:10354000809360000FBE20936000FFCF0E9491180F
:10355000811102C00E94FF180E949C1880933702BC
:103560000E94A41890E090936102809360020E94F0
:10357000A018682F70E080E090E00C941B168091FA
:103580005902089508950F931F93CF93DF9300D0AE
:103590001F92CDB7DEB78C010E94661D823011F0FC
:1035A000843019F584E089831B830A838093E900C2
:1035B0008FEF9091E800815095FD06C095ED9A95AA
:1035C000F1F700008111F5CF8091E80085FF0DC073
:1035D00040E050E063E070E0CE0101960E94831D60
:1035E0008091E8008E778093E8000F900F900F9005
:1035F000DF91CF911F910F910895CF93DF9300D06A
:103600001F92CDB7DEB720916602243029F533E052
:103610003983805891099B838A832093E9008FEF37
:103620009091E800815095FD06C095ED9A95F1F7CF
:1036300000008111F5CF8091E80085FF0DC040E0CA
:1036400050E063E070E0CE0101960E94831D8091FE
:10365000E8008E778093E8000F900F900F90DF9135
:10366000CF910895CF93DF93EC010E94661D8230C5
:1036700011F08430D9F580910C01811103C068E00C
:1036800081E006C08091600287FFF9CF60E284E0AC
:103690008093E9008FEF9091E800815095FD06C07E
:1036A00095ED9A95F1F700008111F5CF8091E80032
:1036B00085FF1CC080910C01811105C040E050E0E5
:1036C00068E070E003C070E040E050E0CE010E948E
:1036D000831D8091E8008E778093E80080E2FE01F0
:1036E000A9E3B2E001900D928A95E1F7DF91CF91C5
:1036F0000895CF93603229F520916602243009F5B0
:103700002091E9002F703091EC0030FF02C030E8CA
:1037100001C030E0C32FC22B22E02093E9002091AA
:10372000E80020FF0BC040E050E060E270E00E9443
:10373000831D8091E8008E778093E800CF70C0935E
:10374000E900CF91089580916502811109C00E941E
:103750005E1F0E94BB1F8091E20084608093E200A4
:103760000895109265020895089508950C94E01943
:1037700042E061EC81E00E94D81E42E261EC84E00C
:103780000E94D81E42E261EC82E00E94D81E42E212
:1037900060EC83E00C94D81E80916802833009F4B9
:1037A00062C030F4813071F0823009F49BC008951A
:1037B0008A3009F487C08B3009F46DC0893009F074
:1037C000A9C020C080916702813A09F0A3C080910E
:1037D000E800877F8093E80080916B0290916C02F3
:1037E000892B21F060E080E090E003C060E289E393
:1037F00092E070E00E94151E8091E8008B77809324
:10380000E800089580916702813209F083C08091B9
:103810006B0290916C02009719F0029709F07AC040
:103820008091E800877F8093E8008091E80082FD26
:1038300005C0809166028111F8CF6CC02091F30021
:103840008091F20090E0922B029729F48091F10090
:103850008B7F813021F48091F10080935902809117
:10386000E8008B7753C080916702813A09F052C01B
:1038700080916B0290916C02892B09F04BC0809172
:10388000E800877F8093E8008091E80080FFFCCF0C
:1038900080910C0136C0809167028132D9F5809108
:1038A0006B0290916C02892BA9F58091E800877FCB
:1038B0008093E8000E940D1F8091690280930C01A3
:1038C0000C94011280916702813221F58091E80009
:1038D000877F8093E8000E940D1F80916A02809389
:1038E0005A02089580916702813AA1F48091E8001C
:1038F000877F8093E8008091E80080FFFCCF809173
:103900005A028093F1008091E8008E778093E8005E
:103910000C940D1F08951F93CF93DF93CDB7DEB79F
:10392000A0970FB6F894DEBF0FBECDBF84B7877FD8
:1039300084BF88E10FB6F894809360001092600015
:103940000FBE80E880936100109261000E94F40C29
:103950000E945E1F0E94BB1F8091E20084608093E2
:10396000E20078940E943E220E94FA0C82E091E0EC
:103970000E94950C13E080916602853069F40E94E4
:103980009919809164028823B1F30E94C819882391
:1039900091F30E946D1DEFCF0E94000D8091660291
:1039A000843049F71093E9008091E80082FFE3CF6B
:1039B0008091E80085FF0AC040E050E060E270E0DE
:1039C000CE0101960E94CC1D91E001C090E0809153
:1039D000E8008B778093E800992369F260E2CE01DA
:1039E00001960E941404C7CF0C94F61C292F33278C
:1039F00023303105A9F06CF42130310509F448C0B9
:103A00002230310509F049C08BE590E02CEF35E01C
:103A100048C021323105F9F02232310549F13DC06B
:103A200099278130910571F02CF4892BB1F5E8EFDD
:103A3000F5E00DC08230910541F0039771F5E0ED9E
:103A4000F5E005C0E4EEF5E002C0E6EDF5E08491B6
:103A500090E09F0126C063307105F8F4FB01EE0F82
:103A6000FF1FE55DFE4F2081318189E090E019C0A4
:103A70006330710590F4FB01EE0FFF1FEB5DFE4F0D
:103A800020813181FB01EE5DFE4F808190E009C015
:103A900082E190E027E536E004C080E090E020E09D
:103AA00030E0FA013183208308950895CF93C82F21
:103AB0000E94551DC0935B02CF91089580916602CC
:103AC000843011F482E0089581E0089580915B02D2
:103AD000811102C00C945E1D089580E189BD82E1D0
:103AE00089BD09B400FEFDCF8091D8008F7D809301
:103AF000D8008091E00082608093E0008091E00037
:103B000081FDFCCF0895CF92DF92EF92FF920F9349
:103B10001F93CF93DF937C018B01EA010E942E1F3C
:103B2000811131C0209731F088819981081B190BD0
:103B3000E80EF91EC12CD12C0115110519F1809147
:103B4000E80085FD14C08091E8008E778093E8003E
:103B5000209741F0888199818C0D9D1D99838883E0
:103B600085E011C00E942E1F882331F30CC0F7019D
:103B700081917F018093F10001501109FFEFCF1A6D
:103B8000DF0ADACF80E0DF91CF911F910F91FF9094
:103B9000EF90DF90CF900895CF92DF92EF92FF9257
:103BA0000F931F93CF93DF937C018B01EA010E9457
:103BB0002E1F811131C0209731F088819981081B17
:103BC000190BE80EF91EC12CD12C0115110519F1A4
:103BD0008091E80085FD14C08091E8008B77809388
:103BE000E800209741F0888199818C0D9D1D998373
:103BF000888385E011C00E942E1F882331F30CC0FA
:103C00008091F100F70181937F0101501109FFEFCD
:103C1000CF1ADF0ADACF80E0DF91CF911F910F91A9
:103C2000FF90EF90DF90CF90089520916D0230913A
:103C30006E022617370748F06115710539F4209197
:103C4000E8002E772093E80001C0B901FC0120E0D4
:103C500061157105B9F180916602882309F440C0AD
:103C6000853009F43FC08091E80083FD3DC080911C
:103C7000E80082FF06C08091E80082FF26C080E055
:103C800008958091E80080FFE3CF2091F3008091B8
:103C9000F20090E0922B6115710551F0883091058A
:103CA00038F421912093F100615071090196F3CF0E
:103CB00021E0089709F020E08091E8008E7780935A
:103CC000E800C6CF2111C7CFD6CF809166028823E6
:103CD00039F0853039F08091E80083FFCCCF04C003
:103CE00082E0089583E0089581E0089520916D02B7
:103CF00030916E022617370748F06115710539F4C7
:103D00002091E8002E772093E80001C0B901FC0162
:103D100020E061157105C1F180916602882309F4E4
:103D200041C0853009F440C08091E80083FD3EC069
:103D30008091E80082FF06C08091E80082FF27C0E2
:103D400080E008958091E80080FFE3CF2091F300A8
:103D50008091F20090E0922B6115710559F0883046
:103D6000910540F424912093F1003196615071093E
:103D70000196F2CF21E0089709F020E08091E80059
:103D80008E778093E800C5CF2111C6CFD5CF809123
:103D90006602882339F0853039F08091E80083FF8E
:103DA000CBCF04C082E0089583E0089581E00895B8
:103DB000982F973058F59093E900981739F0709143
:103DC000EC002091ED005091F00003C0242F762FDD
:103DD00050E021FF19C03091EB003E7F3093EB00A3
:103DE0003091ED003D7F3093ED003091EB0031607C
:103DF0003093EB007093EC002093ED005093F000B3
:103E00002091EE0027FF07C09F5FD3CF8F70809374
:103E1000E90081E0089580E008958091670287FDC0
:103E200005C08091E80080FF0EC012C08091E800BC
:103E300082FD05C0809166028111F8CF08958091BE
:103E4000E8008B7708C0809166028111EACF08955F
:103E50008091E8008E778093E80008958091E400D7
:103E60009091E50045E62091EC0020FF21C02091D3
:103E7000E80020FD21C020916602222389F0253030
:103E800089F02091EB0025FD0FC02091E4003091D6
:103E9000E5002817390739F3415041F0C901E3CF54
:103EA00082E0089583E0089581E0089584E0089514
:103EB0002091E80022FFDFCF80E008950E94CC1F10
:103EC0000E94D41FE0EEF0E0808181608083E8ED05
:103ED000F0E080818F77808319BCA7EDB0E08C91F2
:103EE0008E7F8C9380818F7E8083109265020895EF
:103EF0000F931F93CF93DF930E94CC1F0E94D41F78
:103F0000C8EDD0E088818F77888388818068888336
:103F100088818F7D888319BC10926602109262029C
:103F2000109264021092630200EE10E0F8018081AA
:103F30008B7F808388818160888342E060E080E0BD
:103F40000E94D81EE1EEF0E080818E7F8083E2EE59
:103F5000F0E0808181608083808188608083F801C7
:103F600080818E7F8083888180618883DF91CF917B
:103F70001F910F910895E8EDF0E080818F7E80839E
:103F8000E7EDF0E080818160808384E082BF81E0A2
:103F9000809365020C94781FE8EDF0E080818E7FBD
:103FA00080831092E20008951092DA001092E100EE
:103FB00008951F920F920FB60F9211242F933F93E3
:103FC0004F935F936F937F938F939F93AF93BF9321
:103FD000EF93FF938091E10082FF0BC08091E2009C
:103FE00082FF07C08091E1008B7F8093E1000E94F7
:103FF0003D228091DA0080FF1FC08091D80080FFB1
:104000001BC08091DA008E7F8093DA008091D90006
:1040100080FF0DC080E189BD82E189BD09B400FE49
:10402000FDCF81E0809366020E94A31B05C019BCEE
:10403000109266020E94B11B8091E10080FF19C0BE
:104040008091E20080FF15C08091E2008E7F809316
:10405000E2008091E20080618093E2008091D800CC
:1040600080628093D80019BC85E0809366020E942C
:10407000B51B8091E10084FF30C08091E20084FF95
:104080002CC080E189BD82E189BD09B400FEFDCF6D
:104090008091D8008F7D8093D8008091E1008F7E41
:1040A0008093E1008091E2008F7E8093E200809116
:1040B000E20081608093E20080916202882311F027
:1040C00084E007C08091E30087FF02C083E001C065
:1040D00081E0809366020E94B61B8091E10083FF1D
:1040E00029C08091E20083FF25C08091E100877F95
:1040F0008093E10082E080936602109262028091D8
:10410000E1008E7F8093E1008091E2008E7F8093BA
:10411000E2008091E20080618093E20042E060E092
:1041200080E00E94D81E8091F00088608093F000AB
:104130000E94B41BFF91EF91BF91AF919F918F911E
:104140007F916F915F914F913F912F910F900FBE93
:104150000F901F9018951F920F920FB60F92112477
:104160002F933F934F935F936F937F938F939F937F
:10417000AF93BF93CF93EF93FF93C091E900CF70BC
:104180008091EC001092E9008091F000877F80938D
:10419000F00078940E94E7201092E9008091F000EE
:1041A00088608093F000C093E900FF91EF91CF9178
:1041B000BF91AF919F918F917F916F915F914F913F
:1041C0003F912F910F900FBE0F901F9018951F9346
:1041D000CF93DF93CDB7DEB7AA970FB6F894DEBFC3
:1041E0000FBECDBFE7E6F2E08091F100819322E0BF
:1041F000EF36F207C9F70E94CC1B8091E80083FFDD
:1042000024C12091670230916802832F90E08A30A8
:10421000910508F01AC1FC01E255FF4F0C945B2296
:10422000203821F0223809F010C108C080916302C3
:1042300090916402992389F082600FC080916B0293
:104240008F70873008F001C18093E9008091EB0006
:1042500085FB882780F91092E9009091E800977F0C
:104260009093E8008093F1001092F100CCC0822F6F
:104270008D7F09F0EAC0222319F0223061F0E5C0F9
:1042800080916902813009F0E0C0333009F080E0AC
:10429000809364022AC080916902811126C0209116
:1042A0006B022F708FEF820F863008F0CEC0209304
:1042B000E9008091EB0080FF18C08091EB00333063
:1042C00011F4806210C080618093EB0081E090E087
:1042D00001C0880F2A95EAF78093EA001092EA005D
:1042E0008091EB0088608093EB001092E900809150
:1042F000E800877F8093E8000E940D1FA6C021116F
:10430000A4C0109169021F778091E3008078812B0F
:104310008093E3008091E800877F8093E8000E940B
:104320000D1F8091E80080FFFCCF8091E300806842
:104330008093E300112311F083E001C082E08093B9
:10434000660283C02058223008F07FC08091690245
:1043500090916A028C3D23E0920779F583E08A838D
:104360008AE289834FB7F894DE01139620E03EE09D
:1043700051E2E32FF0E050935700E49120FF03C097
:10438000E295EF703F5FEF708E2F90E0EA3010F013
:10439000C79601C0C0968D939D932F5F243149F736
:1043A0004FBF8091E800877F8093E8006AE270E069
:1043B000CE0101960E94151E15C060916B0270918E
:1043C0006C02AE014F5F5F4F0E94F41C0097E9F151
:1043D0002091E800277F2093E800BC0189819A8121
:1043E0000E94761E8091E8008B778093E8002DC0B4
:1043F000203859F58091E800877F8093E80080910C
:1044000062028093F1008091E8008E7773CF2111D2
:104410001CC0909169029230C0F48091E800877FBF
:104420008093E800909362020E940D1F80916202C7
:10443000811104C08091E30087FF02C084E001C0C5
:1044400081E0809366020E94B81B8091E80083FFA0
:104450000AC08091E800877F8093E8008091EB009C
:1044600080628093EB00AA960FB6F894DEBF0FBE71
:10447000CDBFDF91CF911F9108950895CF93809183
:1044800066028823B1F08091E9008F709091EC0072
:1044900090FF02C090E801C090E0C92FC82B109295
:1044A000E9008091E80083FD0E94E720CF70C0936F
:1044B000E900CF910895EE0FFF1F0590F491E02DD4
:1044C0000994F999FECF92BD81BDF89A992780B5DC
:1044D0000895A8E1B0E042E050E00C949522262F28
:1044E000F999FECF92BD81BDF89A019700B40216EA
:1044F00039F01FBA20BD0FB6F894FA9AF99A0FBE98
:1045000008950396272F0E9470220E946F22252F64
:104510000E947022242F0C9470220196272F0E9453
:1045200070220C946F22DC01CB01FC01F999FECFC3
:1045300006C0F2BDE1BDF89A319600B40D9241502B
:0A4540005040B8F70895F894FFCF3B
:10454A001402BF1A321BC21AFD1AC31A0167663750
:10455A00929333323130F5F6C6F7919096943497A8
:10456A003635402271FC0669068B060E0640062780
:02457A00060039
:00000001FF
