:100000000C9478030C945A160C94BC030C94BC0307
:100010000C94BC030C94BC030C94BC030C94BC0364
:100020000C94BC030C94BC030C948C2B0C945E2C91
:100030000C9422240C94BC030C94BC030C94BC03BD
:100040000C94BC030C94BC030C94BC030C94BC0334
:100050000C94BC030C9495240C94BC030C94BC032A
:100060000C94BC030C94BC030C94BC030C94BC0314
:100070000C94BC030C94BC030C94BC030C94BC0304
:100080000C94BC030C94BC030C94BC030C94BC03F4
:100090000C94BC030C94BC030C94BC030C94BC03E4
:1000A0000C94BC030C94BC030C94BC03FF0302042B
:1000B0007C040D04150421047C047C047C046B0482
:1000C0006E04240427042C043A0448044B044F040F
:1000D0005D04E907EF07F307F607FA07FE070208D2
:1000E00006080B080F08130817081A081E0822082C
:1000F00026082A082F080F1A0F1A491A491A8E1AA9
:10010000FD1BFD1BFD1BB01AFD1B571B571BCB1BFB
:10011000D21BFD1BF81B641B641B641B641B641B4C
:10012000641B641B641B641B641B641B641B641BD7
:10013000641B641B641B731B831B8A1B911B9B1B0F
:100140008D1C8D1CA01CA01C961CA01CA01CA01CFF
:100150008D1C8D1C9C1CA01CA01C9C1CC32CEA2C60
:10016000D82DEA2CD82D322D552DD82DAB2DBA2DCA
:1001700007634236B79BD8A71A39685618AEBAAB90
:10018000558C1D3CB7CC5763BD6DEDFD753EF61724
:100190007231BF000000803F05A84CCDB2D44EB9EB
:1001A0003836A9020C50B9918688083CA6AAAA2A1A
:1001B000BE000000803F29001E001F00200021001B
:1001C00022002B0014001A00080015001700E1009F
:1001D00004001600070009000A00E0001D001B00D3
:1001E000060019000500000000004A00E300105F4F
:1001F00028002A00270026002500240023004C00A8
:10020000130012000C0018001C00340033000F0013
:100210000E000D000B00E50038003700360010001E
:100220001100000000004D00E200115F2C003502BB
:100230001E021F02200221022202005C1E001F007B
:100240002000210022004C00010050004F0052000D
:100250002F00C05C01000100010051002F020000CE
:1002600000002602010001004C002A00270226029D
:100270002502240223020100270026002500240075
:10028000230031022E025E005D005C0030000100A0
:100290002D005B005A0059003002000000002702C8
:1002A000620001004C0045003A003B003C003D006C
:1002B0003E00C25C1E021F02200221022202C35C19
:1002C000AC00AB00A9004B002D02A800AD00AE00B1
:1002D000AA004E002D0000000000260201000100CF
:1002E0000100440043004200410040003F00010083
:1002F000270226022502240223023100C95CC75CC2
:10030000C55C4A002E000100CA5CC85CC65C4D009A
:100310002E020000000001000100010001000100A8
:1003200001000100010001000100010001000100C5
:1003300001000100010001000100010001000100B5
:1003400001000100010001000100010001000000A6
:100350000000010001000100010001000100010096
:100360000100010001000100010001000100010085
:100370000100010001000100010001000100010075
:100380000100010001000100010000000000010067
:1003900001000100010000000000000000002A2B05
:1003A0002800000000000000000000000000000025
:1003B0000029000000002C1E34202122243426278E
:1003C000252E362D3738271E1F20212223242526AF
:1003D0003333362E37381F0405060708090A0B0C7D
:1003E0000D0E0F101112131415161718191A1B1CC5
:1003F0001D2F3130232D350405060708090A0B0C83
:100400000D0E0F101112131415161718191A1B1CA4
:100410001D2F3130354C00000000000000000000AE
:1004200000000000000000000000000000000000CC
:1004300000000000000000010101010101000101B4
:1004400001010000000000000000000000000000AA
:10045000010001000101010101010101010101018E
:10046000010101010101010101010101010101017C
:100470000100000001010000000000000000000079
:10048000000000000000000000000000000000006C
:1004900000010101010000047F3F1F643214643237
:1004A00014783C1E1E140A056801F000B4007800A0
:1004B0005A000000000000010101010101010101D9
:1004C0000202020202020202020303030303030305
:1004D00003040404040404050505050506060606D0
:1004E0000607070707080808080909090A0A0A0A87
:1004F0000B0B0B0C0C0C0D0D0D0E0E0F0F0F101027
:1005000011111112121313141415151616171718AA
:100510001819191A1A1B1C1C1D1D1E1F1F20202113
:1005200022222324252526272728292A2B2B2C2D58
:100530002E2F2F30313233343536363738393A3B77
:100540003C3D3E3F4041424344464748494A4B4C6C
:100550004D4F50515253555657585A5B5C5E5F6031
:100560006263646667696A6C6D6E707173747678C5
:10057000797B7C7E8081838486888A8B8D8F919223
:100580009496989A9B9D9FA1A3A5A7A9ABADAFB147
:10059000B3B5B7B9BBBDBFC1C4C6C8CACCCFD1D330
:1005A000D6D8DADCDFE1E4E6E8EBEDF0F2F5F7FAD5
:1005B000FCFF0403300000001C03490072006900C6
:1005C000730020004B006500790062006F0061003D
:1005D0007200640000000E034B00650065006200BD
:1005E00069006F0000000403090409025B000301B5
:1005F00000A0FA0904000001030101000921110112
:1006000000012240000705810308000A09040200D6
:100610000103000000092111010001223600070535
:10062000840320000A0904010002030000000921DC
:1006300011010001222200070582032000010705A5
:100640000303200001120110010000000810CB5626
:10065000120002010203010660FF0961A1010962A3
:10066000150026FF009520750881020963150026F4
:10067000FF00952075089102C005010980A1018540
:10068000031601002603001A81002A8300751095C5
:10069000018100C0050C0901A10185041601002695
:1006A0009C021A01002A9C02751095018100C00568
:1006B000010906A101050719E029E71500250195A3
:1006C0000875018102950175088101050819012944
:1006D00005950575019102950175039101050719AD
:1006E0000029FF150026FF00950675088100C0004F
:1006F00011241FBECFEFDAE0DEBFCDBF04B603FE8C
:1007000024C080915B0290915C02A0915D02B09147
:100710005E028730904BA740B04BB9F410925B0259
:1007200010925C0210925D0210925E0214BE84B7B9
:10073000877F84BF88E10FB6F894809360001092A1
:1007400060000FBEE0E0F8E3099511E0A0E0B1E041
:10075000EAEDF3E602C005900D92A234B107D9F795
:1007600012E0A2E4B1E001C01D92AB35B107E1F7A0
:100770000E943C280C94EB310C94000080E290E045
:100780000E94B1318F31954451F482E290E00E9491
:10079000A33191E0883009F090E0892F01C080E01A
:1007A00081700895CF93C82F882319F06FE175E405
:1007B00002C06FEF7FEF80E290E00E94D531CC2342
:1007C00011F068E001C06FEF82E290E0CF910C94ED
:1007D000B73180E00E94D2030C9409231F93CF937A
:1007E000DF93EC01162F488150E0FA013197E33195
:1007F000F10508F081C0EA5AFF4F0C948531198247
:1008000088E028C08981813009F076C00E94602488
:100810009A838B837C836D8371C04B816A818981CC
:100820000E943E149C838D8369C02C8130E0322F5E
:1008300022278D81282B4B816A8189810E94571440
:100840005DC00E9473145AC00E940A1526C00E94FF
:100850000C1599838A8352C06B8170E0898190E086
:10086000982F88272A81AE014C5F5F4F822B0E9410
:100870000F1544C06B8170E0898190E0982F882724
:100880002A81AE014C5F5F4F822B0E94341536C027
:100890000E945A1533C00E942C1489832FC06B818B
:1008A00070E0898190E0982F88272A81AE014C5F03
:1008B0005F4F822B0E94B41421C06B8170E089814C
:1008C00090E0982F88272A81AE014C5F5F4F822BE2
:1008D0000E94D81413C00E94E90310C00E942A2766
:1008E0002FEF81EE94E0215080409040E1F700C06E
:1008F00000000E94BB2402C08FEF8883612FCE01CD
:10090000DF91CF911F910C942A270E94BE03811181
:1009100007C00E9473140E945A1581E00C94D20300
:1009200008950E94780C8FE19EE40197F1F700C0D2
:1009300000008FE19EE40197F1F700C000000E94E3
:10094000780C80E00E948D0B80FF04C00E94E903B8
:100950000C94BB2408950E9491040E9485040C9479
:100960008A0B0C948B0BFB0122818031FFE59F07E2
:1009700031F081313FE5930781F482E001C081E0ED
:10098000222319F00E94F22002C00E940D2143E0B0
:1009900062E081E00E9499050EC0222351F09C0183
:1009A00022513F452031310520F482510E946A15C1
:1009B00002C00C94DF0480E0089581E0089581E096
:1009C0000895CF93282F30E0F901EA56FC4FC491E7
:1009D000F901EA5EFB4F2491222359F081EE0E9437
:1009E0002F188C2F0E942F188C2F0E945E1981EED9
:1009F00004C08C2F0E942F188C2FCF910C945E195D
:100A0000FF920F931F93CF93DF93EC01F62E888113
:100A1000882331F18E010F5F1F4F813031F4C9817E
:100A20008C2F0E942F188C2F0AC0823029F48981C4
:100A30000E942F18E80108C0833021F489810E94A8
:100A40005E19F8CF0E94E10421968F2D8823F9F2D8
:100A5000EFE9FFE03197F1F700C000008150F6CFD9
:100A6000DF91CF911F910F91FF90089560E00C945A
:100A700000054F925F926F927F928F929F92AF92FA
:100A8000BF92CF92DF92EF92FF920F931F932B01B1
:100A90003C01C12CD12C7601C394D701C60104C0FE
:100AA000880F991FAA1FBB1F4A95D2F7AC01BD0141
:100AB0004601570104C0880C991CAA1CBB1C2A952E
:100AC000D2F7482959296A297B29D701C60104C0D0
:100AD000880F991FAA1FBB1F0A95D2F76A017B01D5
:100AE000C420D520E620F720C416D506E606F70672
:100AF00039F4BC01CD0164297529862997290AC0DA
:100B0000BC01CD016095709580959095642175210B
:100B1000862197211F910F91FF90EF90DF90CF904A
:100B2000BF90AF909F908F907F906F905F904F900D
:100B300008950F93382F262F6091F9017091FA01D3
:100B40008091FB019091FC01042F432F0E943905F5
:100B50000F910C94D2200C94B104CF92DF92EF92BB
:100B6000FF92863030F4811105C0909180009F770C
:100B700004C085E090918000906890938000282FB9
:100B800030E0AFEFBFEF0E941C3125E030E040E0E5
:100B900050E00E946331C9012C3764E1360728F424
:100BA00069E070E00E943B3129C0DA01C9018A5036
:100BB000974DAF4FBF4F6627782F892F9A2F25EF7C
:100BC00038E241E050E00E94633169017A01CA01D4
:100BD000B9010E942B319B01AC01C701B6010E94F3
:100BE0002B31BB27A92F982F872F009721E0A20731
:100BF000B10511F0BC0102C06FEF7FEF7093890067
:100C000060938800FF90EF90DF90CF900895259A31
:100C10002D9882E88093800089E1809381008FEF96
:100C20009FEF90938700809386000C94C5250E94C7
:100C30000F23811102C00E9486230E9407060C9494
:100C4000AB0408950C9421060C94220608950E948A
:100C50007D1C0E9426062FEF84E39CE021508040FB
:100C60009040E1F700C0000087E797E79093010804
:100C7000809300080C94BB24FF920F931F93CF9393
:100C8000DF938C01FC01C081D18180919801811199
:100C900013C08281882349F0CE010E94DA21F82E08
:100CA000682FCE010E947E2104C0CE010E94AD219A
:100CB000F82EBE018F2D04C0CE010E94DA21BE01A4
:100CC0000E94FD14EC01B8010E94B304882309F4CA
:100CD0006BC2CC3CFCE5DF0709F4DCC0E8F5C43CA2
:100CE0009CE5D90709F4A0C0F8F4C531FCE5DF079D
:100CF00078F4C2308CE5D80708F04BC1C1159CE5EB
:100D0000D90709F465C0C130DC4509F469C03FC2A8
:100D1000C23CFCE5DF0709F476C008F07BC0C631B1
:100D2000DC4509F40FC233C2F8018281C83CFCE5FE
:100D3000DF0709F49AC040F4C63CECE5DE0709F48D
:100D40008AC008F480C08CC0CA3C9CE5D90709F46D
:100D500096C008F48FC098C0C43DFCE5DF0709F4D5
:100D6000F3C0C0F4F8018281C03DFCE5DF0709F45F
:100D7000BDC040F4CE3CECE5DE0709F49AC008F4AF
:100D800091C0A7C0C23D9CE5D90709F4CBC008F4C7
:100D9000BAC0D5C0C83DFCE5DF0709F4B8C150F4BE
:100DA000F8018281C63DFCE5DF0709F46AC108F459
:100DB000DBC088C1CC3DECE5DE0709F4E1C0CD3DE8
:100DC000FCE5DF07C1F0CB3DDC4509F0E0C1D1C057
:100DD000F8018281882309F4E7C10E942706E4C153
:100DE000F8018281882309F4DFC180910E028160BD
:100DF00080930E02D9C1F8018281882309F4D4C1FD
:100E00000E948623D1C1F80182818111CDC10E9447
:100E1000BB101DC0F8018281882309F4C5C10E945E
:100E20005922827251F00CC0F8018281882309F4A2
:100E3000BBC10E945922827219F00E94531007C050
:100E40000E94601004C08111AFC10E94550F81E063
:100E500080935D01A9C18111A7C10E94790FF7CFCD
:100E60008111A2C10E94990FF2CF81119DC10E94F0
:100E7000B90FEDCF811198C10E94D90FE8CF811130
:100E800093C10E94F90FE3CF882309F48DC10E941A
:100E90000D0E8AC1F8018281882309F485C10E9460
:100EA000220E82C1882309F47FC181E00E94631071
:100EB000CECF882309F478C10E94040E823038F026
:100EC0000E94040E853018F40E9453106DC182E018
:100ED00026C0882309F468C10E94040E863020F0E1
:100EE0000E94040E883080F386E019C0882309F43C
:100EF0005BC10E94040E893020F00E94040E8E30E7
:100F000018F389E00CC0882309F44EC10E94040E36
:100F10008F3020F00E94040E8431B0F28FE00E94E6
:100F2000631042C1882309F43FC10E94040E853139
:100F300020F00E94040E873138F285E1F0CF88233B
:100F400009F432C188E1EBCFF8018281882309F4EA
:100F50002BC10E94040E893128F00E94040E8232B7
:100F600008F4B2CF89E1DBCF882309F41DC183E205
:100F7000D6CFF8018281882309F416C180E006C02B
:100F8000F8018281882309F40FC182E00E940929B7
:100F90000BC1F8018281882309F4FEC00E940F234F
:100FA000811102C00E9486230E94222390E0909328
:100FB0004C0280934B02FE01E350FC45E231F10507
:100FC00020F4E759FF4F0C94853180914B028160EA
:100FD00003C080914B02826080934B024BC0809192
:100FE0004B028460F9CF80914B0213C080914B0279
:100FF0008061F2CF80914B028062EECF80914B02F4
:101000008064EACF80914B028068E6CF80914B02EA
:1010100084608860E1CF80914B028E7FDDCF80912C
:101020004B028D7FD9CF80914B028B7FD5CF8091A2
:101030004B0213C080914B028F7ECECF80914B022A
:101040008F7DCACF80914B028F7BC6CF80914B02A0
:101050008F77C2CF80914B028B7F877FBDCF9091DE
:101060004B0297FB882780F921E0822780FB97F9C4
:1010700090934B0280914B020E9426230E947D1C7C
:1010800093C0882351F0109247010E9454249093FA
:1010900044018093430182E020C080914701811187
:1010A0000FC080914301909144010E946C24883CC0
:1010B000910530F486E20E942F1886E20E945E19A4
:1010C00082E022C0882361F0109248010E945424DB
:1010D000909346018093450180E20E94BF1964C04D
:1010E0008091480181110FC0809145019091460186
:1010F0000E946C24883C910530F487E20E942F18EE
:1011000087E20E945E1980E20E94C6194DC0F80174
:1011100082818111D9CF809148018111F4CF8091D2
:101120004501909146010E946C24883C910558F736
:1011300080E20E94C61988E20E942F1888E20E946D
:101140005E1932C00E945922382FF8012281809105
:10115000160190911701222371F03A7A21E009F4E7
:1011600020E020934201222311F065E301C069E2EF
:101170000E94C02309C020914201222311F065E39F
:1011800001C069E20E94C2230E94A5220DC081E035
:101190008093470180934801C801DF91CF911F914F
:1011A0000F91FF900C94DD0480E0DF91CF911F91AF
:1011B0000F91FF90089580E090E008950895880FC2
:1011C000991F8A569B4FFC01859194910895CF9366
:1011D000DF930E94FD140E94EB0AEC01811521E5CA
:1011E000920708F044C0C11580E5D80708F034C163
:1011F000C83ED10510F5C03ED10508F0E8C1C83A97
:10120000D10578F4C53AD10508F0A9C0C130D1059F
:1012100009F4DDC108F48EC1C430D10508F0D7C18E
:1012200089C1CF3BD10508F4A5C0C03CD10508F465
:1012300081C1CE01805C9109FEC0C11520E3D207B7
:1012400080F4C11580E2D80708F0F3C0C03FD10593
:1012500008F470C1CF3FD10511F008F0B8C1D065D6
:10126000B6C1C11520E4D20708F0F3C0E8C0C1152B
:1012700089E5D80760F5C11528E5D20708F037C120
:10128000C11584E5D80778F4C11523E5D20708F025
:1012900014C1C11582E5D80708F0FAC0DC2FCC27AD
:1012A000C16FD06A94C1C11525E5D20708F41AC1EF
:1012B000C11586E5D80708F03DC18C2F0E94670B49
:1012C0008F71C82FD0E0DC2FCC27D06280C1CD3BFE
:1012D0002CE5D20709F41CC1F0F4CB3B2CE5D20776
:1012E00009F40AC108F00EC1C1152AE5D20708F0B9
:1012F00021C18C2F8F700E94670B34E0D695C79563
:101300003A95E1F7CF70D0E0DC2FCC27D06A8F7010
:10131000806EC82B5CC1C03C8CE5D80709F404C1C1
:1013200078F4CE3B8CE5D80709F4F8C0CF3BDC4518
:1013300009F000C181E080935C01C0E0D2ED47C1BB
:10134000CE0190568115904208F0F4C08D2F8F7118
:101350000E94670BDD27D0628F71D82B38C1C53A48
:10136000D10509F4EAC0C63AD10509F4E9C0C3E8D9
:10137000D0E42DC1C83AD10509F4E5C0C93AD10578
:1013800009F4E4C0CA3AD10509F4E3C0CB3AD10567
:1013900009F4E2C0CC3AD10509F4E1C0CB3BD10558
:1013A00009F4E0C0CC3BD10509F4DFC0CD3AD1054A
:1013B00009F4DEC0C03BD10509F4DDC0CE3AD10549
:1013C00009F4DCC0CF3AD10509F4DBC0C13BD1053B
:1013D00009F4DAC0C23BD10509F4D9C0C33BD10539
:1013E00009F4D8C0C43BD10509F4D7C0C53BD10529
:1013F00009F4D6C0C63BD10509F4D5C0C73BD10519
:1014000009F4D4C0C83BD10509F4D3C0C93BD10508
:1014100009F4D2C0CD3BD10509F4D1C0CE3BD105F2
:1014200009F4D0C0CA3BD10509F0CFC0CAE2D6E466
:10143000CEC0CE019F700E94DF08EC01C8C0CE0173
:101440009927D3FF03C0EC01D86CC1C0EC01D06C6C
:10145000BEC0DF70D06ABBC02C2F237081E090E04B
:1014600002C0880F991F2A95E2F79C689E01F4E05C
:1014700036952795FA95E1F72370922BCF70C69594
:10148000C69520E2C29FE0011124C82BD92B9FC032
:101490008C2F8695869520E2829FC00111249E01A3
:1014A00023703327C1E0D0E002C0CC0FDD1F2A95A6
:1014B000E2F7C82BD92BDC688AC08C2F86958695DD
:1014C00020E2829FC00111249E0123703327C1E0D6
:1014D000D0E002C0CC0FDD1F2A95E2F7C82BD92B34
:1014E000DA6875C0DC2FCC27C46FD06A70C0DC2FDF
:1014F000CC27C06FD06A6BC081E080935C01C0E0F4
:10150000D4ED65C081E080935C01C0E0D5ED5FC0A3
:1015100081E080935C01C0E0D1ED59C081E080930F
:101520005C01C0E0D0ED53C081E080935C01C0E07D
:10153000D3ED4DC0C0E0D0E04AC0C1E8D0E447C020
:10154000C2E8D0E444C0C2EED4E441C0C9EED4E461
:101550003EC0CAEED4E43BC0C5EBD4E438C0C6EB11
:10156000D4E435C0C3EBD4E432C0C4EBD4E42FC020
:10157000C7EBD4E42CC0CCECD4E429C0CDECD4E44B
:1015800026C0C3E8D5E423C0CAE8D5E420C0C2E938
:10159000D5E41DC0C4E9D5E41AC0C1E2D6E417C041
:1015A000C3E2D6E414C0C4E2D6E411C0C5E2D6E476
:1015B0000EC0C6E2D6E40BC0C7E2D6E408C0CFE650
:1015C000D4E405C0C0E7D4E402C0C0E0D4E4CE0156
:1015D000DF91CF9108958238910549F1B0F48133BC
:1015E000910509F459C048F48932910509F44FC0B6
:1015F0008A32910509F455C008958533910509F49F
:1016000041C08933910599F00895833E910531F1E8
:1016100038F4803E910591F0823E9105A9F008953D
:10162000863E910501F1873E910539F1089520919B
:101630004B0220FD3BC021FD39C0089580914B0233
:1016400080FF34C089E341C080914B0282FF32C0E9
:1016500080914B0284FF2CC080E037C080914B0208
:1016600082FD28C0F5CF80914B0283FF25C0809179
:101670004B0284FDF1CF87EE28C080914B0283FDA1
:101680001BC0F5CF80914B0285FF18C019C0809117
:101690004B0285FF15C012C080914B0286FF12C01D
:1016A00013C080914B0286FF0FC00CC080EE0DC0AE
:1016B00083EE0BC082EE09C086EE07C085E305C04D
:1016C00089E203C081E301C08AE290E0089590912D
:1016D0004B0292FF0DC0282F2871283019F4877F04
:1016E000846006C0282F2471243011F48B7F886019
:1016F00093FF0DC0282F2871283119F4877E84614B
:1017000006C0282F2471243111F48B7E886194FD4A
:10171000877E0895089508950895E82FF0E0E15B2D
:10172000FE4F80810895089580910E028360886045
:1017300080930E028091000180910001882311F0B6
:1017400090E001C095E090931D0285E0891B809395
:101750001C02A9E2B1E021E030E08D91E82FE29592
:10176000EF70F0E041A18F70B90102C0660F771FE2
:101770008A95E2F7CB01962F9095492341A392A138
:10178000982B92A371E0AE32B70739F7A3E2B1E02C
:1017900021E030E08D91E82FE295EF70F0E041A17B
:1017A0008F70B90102C0660F771F8A95E2F7CB01EF
:1017B000962F9095492341A392A1982B92A371E073
:1017C000A932B70739F7EFE4F1E0119281E0E9358A
:1017D000F807D9F785E00E94B40C0C9417066F92B5
:1017E0007F929F92AF92BF92CF92DF92EF92FF9241
:1017F0000F931F93CF93DF9399E2692E91E0792E97
:10180000AAE4B1E020E001E010E06D01AC901C9290
:10181000E30149913E01E42FE295EF70F0E082A1EF
:101820004F70B80102C0660F771F4A95E2F7AB010F
:10183000362F3095832382A381A1862B81A370EA62
:101840007A95F1F783E2E82E81E0F82E80E090E0CF
:101850009C90E701B9907E016B2D62956F7070E0EE
:10186000EB0168A170E0DB2DDF700D2E02C07595D5
:1018700067950A94E2F760FD07C0602F082E01C04B
:10188000660F0A94EAF701C060E069296C9301963B
:1018900086309105E9F681A1832381A382A1842B5F
:1018A00082A3119681E0F6019081A91201C080E027
:1018B000282BFEE26F16F1E07F0609F0A6CF6091BB
:1018C0001D0270E0615B7E4F45E08AE491E00E947A
:1018D000B50C81E0DF91CF911F910F91FF90EF90B8
:1018E000DF90CF90BF90AF909F907F906F900895C2
:1018F000CF930E94EF0BC82F0E94E80C882339F188
:1019000020911C02822F90E0815B9E4F0E94230D4C
:10191000811118C0909149019F5F909349019630C1
:1019200098F040911C0220E030E050E0415B5E4FB7
:10193000FA01E20FF31F10822F5F3F4F2530310570
:10194000B9F702C0109249010E94AB050AC020916C
:101950001D02822F90E0815B9E4F0E94470D0E94E6
:101960008C0B8C2FCF9108950895FF920F931F93A6
:10197000CF93DF93EC01F62E072F142F222349F08B
:1019800081E080935B010E94542490935A018093DC
:10199000590180915B018823A9F0809159019091B0
:1019A0005A010E946C24069768F09C2FAF2DB02F2F
:1019B000FE018E2F891B811718F481918D93F9CF29
:1019C00010925B01DF91CF911F910F91FF900895CD
:1019D00080915E01811112C08091D8008061809356
:1019E000D8008AE18A95F1F700C08091D90080FF84
:1019F00002C081E001C082E080935E0181E09091AD
:101A00005E01913009F080E008950C94E80C0E948A
:101A1000050D809300010E94E80C882331F00E949C
:101A2000170D81E080935C0108950C941D0D61E019
:101A300070E081E091E00C94FF1561E070E081E0DE
:101A400091E00C940816CF93DF93D82FC92F0E94F2
:101A5000AB16892BC1F4ED2FFC2F80E090E0DC0168
:101A6000AF59BE4F2C912193019685309105B9F75E
:101A700080914D0280FF02C0869501C080E0809376
:101A8000600181E001C080E0DF91CF91089520E006
:101A900030E0FC014191CF01F901EF59FE4F408345
:101AA0002F5F3F4F25303105A1F7809160010C94E5
:101AB000AD05DF92EF92FF920F931F93CF93DF93C9
:101AC000662309F44AC0E42FF0E0AFEFB0E0A61BB4
:101AD000B109BF01A69FE001A79FD00DB69FD00D11
:101AE0001124FD2FDD2E7B01ED1AF1080CE310E02F
:101AF000B8010E943B31EB01BC01E69EC001E79EAC
:101B0000900DF69E900D1124B8010E943B31C23019
:101B1000D105B1F040F4209779F0219709F58F2F86
:101B2000D42E461B20C0C430D10599F068F025970B
:101B3000B9F4842F861B17C08F2FD62EDF0E13C04B
:101B4000862F8F0FD42E03C0D42ED61A842F4F2F5A
:101B50000AC0842F462F4F0F06C0842FD42E03C0F7
:101B600080E0D12C40E0E42FF0E0EE54FB4F4491B4
:101B7000ED2DF0E0EE54FB4F9491E82FF0E0EE54A1
:101B8000FB4FE491D90111964C9311979C931296B7
:101B9000EC93DF91CF911F910F91FF90EF90DF9029
:101BA000089588E090E00C94AB31CF92DF92EF92F1
:101BB000FF926B017C010E94D10D6C157D058E0595
:101BC0009F0551F0B701A60188E090E0FF90EF90EB
:101BD000DF90CF900C94C931FF90EF90DF90CF90C1
:101BE0000895EEE1F2E083E0808310921F028FEF10
:101BF00080932002809321021092220260817181E1
:101C0000828193810C94D50D80911E0280FF03C0C8
:101C100086958F73089580E008958091220290E068
:101C200001968430910514F083E090E080932202C5
:101C300060911E0270911F028091200290912102FA
:101C40000C94D50D8091220290E0019797FF02C07D
:101C500080E090E08430910514F083E090E0809380
:101C6000220260911E0270911F02809120029091C9
:101C700021020C94D50D80911E0280FF06C06CE0FD
:101C800070E083E292E00C942914E5E2F2E0DF01D7
:101C900011971C92DF0112971C921082339682E0FA
:101CA000E934F807A1F7EBCF90911E0290FF10C026
:101CB000E5E2F2E0DF0111978C93DF0112976C935C
:101CC0004083339692E0E934F907A1F70C943B0E78
:101CD0000895CF93DF9300D01F92CDB7DEB7209148
:101CE0001E0220FF0AC09E012F5F3F4F0E94590D28
:101CF0004B8169818A810E94540E0F900F900F9042
:101D0000DF91CF9108955F926F927F928F929F9211
:101D1000AF92BF92CF92DF92EF92FF920F931F93F9
:101D2000CF93DF9300D01F92CDB7DEB78C01662E24
:101D3000742E522E80911E0280FF89C0982F9E77AC
:101D4000923061F49E012F5F3F4FC8010E94590DF0
:101D50004B8169818A810E94540E59C0E82FE69513
:101D6000EF739EE39E0F9F73943018F470902102DE
:101D70004EC09AE39E0F9F73993068F4881F88279E
:101D8000881F90911F02292F220F022F082B97FBEB
:101D9000112710F93CC087E28E0F8F738A30B8F597
:101DA000F0E07997E0FF02C02FEF01C021E0EE7F65
:101DB000E855FB4F859194916CE070E00E943B31B7
:101DC00026035001279FB00C1124680188E9C81A26
:101DD0008EEFD80A83E2E82E82E0F82E98E6892E6C
:101DE00099249394C601B4010E943B319701472D79
:101DF000662D0E94590DCA0CDB1C83E0E80EF11C15
:101E000087E4E81682E0F80669F70E943B0E8091AD
:101E10001E0200FB87F980931E02902F96958091F9
:101E20001F028078892B10FB87F980931F02609234
:101E3000200270922102552051F060911E02709193
:101E40001F0280912002909121020E94D50D0F90D7
:101E50000F900F90DF91CF911F910F91FF90EF9016
:101E6000DF90CF90BF90AF909F908F907F906F90BA
:101E70005F900895282F90911E02991F9927991F0E
:101E800030911F02832F880F482F492B37FB55278E
:101E900050F9CA010A9668E671E00E944F314091FC
:101EA0002102609120020C94830E81E00C943A0F81
:101EB000282F90911E02991F9927991F30911F0278
:101EC000832F880F482F492B37FB552750F9CA011C
:101ED0004A3051051CF4825A9E4F01C00A9768E6A9
:101EE00071E00E944F3140912102609120020C94D8
:101EF000830E81E00C94580F60912002462F50E031
:101F00004F3E510514F46F5E01C06FEF30911E0219
:101F1000331F3327331F90911F02592F550F97FB03
:101F2000992790F9282F40912102852F832B0C941B
:101F3000830E81E00C947C0F60912002462F50E0CC
:101F40004131510514F0615101C060E030911E0231
:101F5000331F3327331F90911F02592F550F97FBC3
:101F6000992790F9282F40912102852F832B0C94DB
:101F7000830E81E00C949C0F40912102642F70E04D
:101F80006F3E710514F44F5E01C04FEF30911E0299
:101F9000331F3327331F90911F02592F550F97FB83
:101FA000992790F9282F60912002852F832B0C947C
:101FB000830E81E00C94BC0F40912102642F70E0ED
:101FC0006131710514F0415101C040E030911E02B1
:101FD000331F3327331F90911F02592F550F97FB43
:101FE000992790F9282F60912002852F832B0C943C
:101FF000830E81E00C94DC0F20E00C94830ECF93D1
:1020000090911E0290FF42C09178811102C09260AF
:1020100003C0853220F0986490931E0205C08F7330
:10202000880F892B80931E02662351F060911E0257
:1020300070911F0280912002909121020E94D50D83
:10204000C0911E026C2F66956F7370E04BE050E0FC
:102050008BE091E00E949631892B19F01092830158
:1020600003C081E080938301CC1FCC27CC1F9091CB
:102070001F02892F880F97FB992790F94091210221
:10208000609120028C2BCF910C94FC0FCF9108957E
:10209000682F80911E0286958F738F5F853208F0BE
:1020A00081E00C94FF0F81E00C944810682F809120
:1020B0001E0286958F73815009F484E20C94FF0F01
:1020C00081E00C94561061E00C94FF0FEEE1F2E019
:1020D00080818160808386958F730C94631060E0AB
:1020E0000C94FF0F80910E02816080930E020E947B
:1020F0000F23811104C00E9486230E94F10D0E94CB
:10210000D10D60931E0270931F0280932002909362
:1021100021026E7761F40E94F10D0E94D10D60934F
:102120001E0270931F02809320029093210281E08F
:102130008093830180911E0280FF04C086958F7377
:102140000C946F100895EEE1F2E080818E7F808321
:1021500060817181828193810E94D50D10928301EB
:102160002FEF80E792E0215080409040E1F700C0DF
:1021700000000C943B0E80911E0280FD0C94A31075
:102180000C946610CF93C82F8091810190918201A9
:102190000E946C24EC2FF0E0EC55FB4FE491F0E052
:1021A0008E179F0708F442C00E9454249093820126
:1021B000809381016091800170E080E090E00E9456
:1021C0003A2F20E030E04FE753E40E94732E2BEDCE
:1021D0003FE049E450E40E945B300E94BE300E9420
:1021E000E02E2BE43AE34EE25FE30E940E2E20EF56
:1021F0003BEF48ED52E40E945B300E940C2F462FCB
:1022000080911E02881F8827881F90911F02292F06
:10221000220F97FB992790F960912002822B0E9450
:10222000690E809180018F5F80938001CF91089526
:10223000CF93C82F80917E0190917F010E946C24E2
:10224000EC2FF0E0EF55FB4FE491F0E08E179F0785
:10225000E8F00E94542490937F0180937E01409186
:1022600021026091200280917C0190917D010E9469
:10227000690E80917C0190917D01019668E671E084
:102280000E943B3190937D0180937C01CF91089512
:10229000DF92EF92FF920F931F93CF93DF93D82E8D
:1022A00080917A0190917B010E946C24ED2DE6953E
:1022B000F0E0E256FB4FE491F0E08E179F07E8F163
:1022C0000E94542490937B0180937A0103E212E0F0
:1022D000C0E0D0E068E6E62EFF24F3948091780118
:1022E000909179018C0F9D1FB7010E943B3198019D
:1022F00040912102609120020E94590D6E960D5F5F
:102300001F4FC83681E0D80749F70E943B0E209145
:10231000780130917901D0FE0AC0C9010196BE0151
:102320000E943B31909379018093780106C021503F
:1023300031093093790120937801DF91CF911F917A
:102340000F91FF90EF90DF900895AF92BF92CF92E0
:10235000DF92EF92FF920F931F93CF93DF93C82FDB
:1023600080FD03C0BB24B39402C0BB24BA94809107
:102370007601909177010E946C24C695EC2FF0E0D5
:10238000E556FB4FE491F0E08E179F0708F466C016
:102390000E9454249093770180937601F3E2EF2E0C
:1023A000F2E0FF2E05E212E0C0E0D0E0F801319744
:1023B0001082F7011082F8011082E4E0CE2ED12CB9
:1023C000A12C809175018A0D87FD845F992787FD77
:1023D0009095C817D907E9F4809121028C9DA0013E
:1023E0008D9D500D11245595479555954795809194
:1023F0001E02881F8827881F90911F02592F550F92
:1024000097FB992790F9970160912002852B0E94F4
:10241000590DAB0CF1E0CF1AD108C114D10489F6E3
:10242000219683E0E80EF11C0D5F1F4FCC30D105E3
:1024300009F0BCCF0E943B0E8091750191E0B9126A
:1024400006C0811102C08BE007C0815005C090E03A
:102450000196BE010E944F3180937501DF91CF91AB
:102460001F910F91FF90EF90DF90CF90BF90AF90B2
:1024700008950F931F93CF93DF93C82F809173011B
:10248000909174010E946C24EC2FF0E0E856FB4F11
:10249000E491F0E08E179F0708F468C00E9454246E
:1024A0009093740180937301E5E2F2E0DF011197EC
:1024B0001C92DF0112971C921082339682E0E9345D
:1024C000F807A1F7C0E0D0E00CE010E0CE01B801C1
:1024D0000E944F3120917201332727FD3095FC0176
:1024E000EE0FFF1FC217D3070CF120910A0133270B
:1024F00027FD30952C173D07CCF09F01280F391F81
:102500002D5D3D4F80911E02881F8827881F909166
:102510001F02592F550F97FB992790F940912102DF
:1025200060912002852B0E94590D07C0E80FF91F0A
:10253000ED5DFD4F1182108212822196CC30D105C3
:1025400029F60E943B0E2091090180917201820FB1
:102550008093720190910A01920F90930A011916CB
:1025600014F48B301CF0219520930901DF91CF9159
:102570001F910F910895EF92FF920F931F93CF93A6
:10258000DF9380917001909171010E946C24883ECC
:102590009340C8F10E94542490937101809370017C
:1025A000C0916E01D0916F012196C170DD27D0934B
:1025B0006F01C0936E0103E212E0F12CB8E7EB2E3D
:1025C0008F2D8695FE01E80FF11DCF0181709927AF
:1025D00098014091210260912002FC01EE9EC00111
:1025E000EF9E900D11240E94590DF3940D5F1F4F23
:1025F000FCE0FF12E5CFDF91CF911F910F91FF908B
:10260000EF900C943B0EDF91CF911F910F91FF90B3
:10261000EF900895CF93DF9300D01F92CDB7DEB730
:1026200080916C0190916D010E946C24E6E9F4E0C8
:102630002591349182179307C0F180916B0181112C
:102640000CC09E012F5F3F4F4FEF6FEF80E090E097
:102650000E94590D8A8180936B010E9454249093AB
:102660006D0180936C0180916A01813051F028F0F6
:10267000823061F440916B010AC080916B0140E0AF
:1026800007C060916B0140E080E003C040E080E063
:1026900060E00E94540E80916A0190E0019663E030
:1026A00070E00E944F3180936A010F900F900F905D
:1026B000DF91CF9108950F931F93CF93DF93809174
:1026C0006801909169010E946C24843F914008F454
:1026D00048C00E9454249093690180936801C3E22A
:1026E000D2E000E010E02091660130916701809116
:1026F0001E0290911F02063011051CF4232B79F065
:1027000002C0232B61F4881F8827881F592F550F7B
:1027100097FB992790F99E01409121020AC0881FDA
:102720008827881F592F550F97FB992790F99E01ED
:1027300040E060912002852B0E94590D0F5F1F4FD2
:1027400023960C30110579F60E943B0E80916601AC
:10275000909167010196817099279093670180930A
:102760006601DF91CF911F910F91089580918301B0
:102770008823D9F120911E02822F86958F739EE3C4
:10278000980F9F73943018F482500C94C2109AE3FF
:10279000980F9F73933018F486500C94181197E398
:1027A000980F9F73963018F489500C94481191E358
:1027B000980F9F73963018F48F500C94A5119BE2DC
:1027C000980F9F73933018F485510C943912822F0F
:1027D0008E77803311F40C94BB12863411F40C9470
:1027E0000A13883411F40C945B1308953BB1242F21
:1027F000209523233BB1342B4FB7F894FC01680F8D
:10280000791FE617F70789F0819198E03BB900003E
:1028100000C087FF2BB9880F000000C000C000C0B7
:102820002BB900C09A9591F7ECCF4FBF08952AB10C
:10283000242B2AB99B01220F331F260F371FB90102
:102840000E94F61387EC90E00197F1F700C00000BA
:10285000089548E00C94171484E0089550E0440F64
:10286000551F9CE0699F400D511D112498E7899FD9
:10287000400D511D1124CA01839608950F931F9393
:10288000CF93DF930E942E14EC010E94A331082FF6
:1028900010E0102F0027CE0101960E94A33198016D
:1028A000282BC901DF91CF911F910F9108950F93AC
:1028B0001F93CF93DF9300D0CDB7DEB72A83398340
:1028C0000E942E148C013981632F0E94B7312A8116
:1028D000622FC80101960F900F90DF91CF911F9149
:1028E0000F910C94B731AF92BF92CF92DF92EF92DB
:1028F000FF920F931F93CF93DF93A12CE12CF12C28
:10290000B12C00E010E0C0E0D0E06801CE0CDF1C8C
:10291000C6018A549E4F6C01FE01EE0FFF1FEC0DA5
:10292000FD1D259134914C2F6B2D8A2D0E9457143B
:102930002196C630D10581F7045F1F4FB3948AE01A
:10294000B812E1CF98E7E90EF11CA39484E0A81235
:10295000D7CFDF91CF911F910F91FF90EF90DF9034
:10296000CF90BF90AF900895EF92FF920F931F9377
:10297000CF93DF937B01EA01E40EF51E8C01C801C1
:102980008396CE15DF0569F0003E21E0120720F4A2
:102990000E94A331888301C0188221960F5F1F4FC8
:1029A000EECFDF91CF911F910F91FF90EF9008959F
:1029B000EF92FF920F931F93CF93DF938B017A01D6
:1029C000080F191FEC01E81AF90ACE018396C01707
:1029D000D10761F0C03E21E0D20730F4F701EC0FDF
:1029E000FD1F60810E94B7312196EFCFDF91CF911B
:1029F0001F910F91FF90EF900895462F843038F487
:102A00007A3028F4663018F4672F0C943E1480E076
:102A100090E0089580E108958DEF91E00895EF92A0
:102A2000FF920F931F93CF93DF937B01EA01E40E94
:102A3000F51E8C01C8018D5F9D4FCE15DF0569F035
:102A40000D3F21E0120720F40E94A331888301C0CA
:102A5000188221960F5F1F4FEDCFDF91CF911F910D
:102A60000F91FF90EF900895EF92FF920F931F93B5
:102A7000CF93DF938B017A01080F191FEC01E81A3D
:102A8000F90ACE018D5F9D4FC017D10761F0CD3F90
:102A900021E0D20730F4F701EC0FFD1F60810E94A6
:102AA000B7312196EECFDF91CF911F910F91FF901B
:102AB000EF900895CF93DF93C3E0D2E060E0CE01C2
:102AC0000E94B7312196C11584E0D807B9F7DF918C
:102AD000CF910895FF920F931F93CF93DF9300D070
:102AE000CDB7DEB7F82E8FE08F1530F18FEF93E082
:102AF0000E94A331811120C003E012E0FF2069F0A1
:102B0000011584E01807C1F0C8010E94A3318111AA
:102B100001C0FA940F5F1F4FF1CF19821A82C801CA
:102B20000E94A3318983882339F0CE0101960E9447
:102B300036050F5F1F4FF3CF0F900F90DF91CF91AE
:102B40001F910F91FF9008958EE1489B02C0815024
:102B5000E1F7489BFECF0895589880E28A95F1F7F7
:102B6000589A0895FC013AE03A95F1F798E020E090
:102B700080E031E040E14A95F1F7880F489B02C0C0
:102B80008160232700C0000040E14A95F1F7915091
:102B900089F790E19A95F1F799B100C0000030E112
:102BA0003A95F1F7917092272081290F208308959B
:102BB000FF920F931F93CF93DF9300D0CDB7DEB773
:102BC0001982F82E8C01802F8F19861760F46A8382
:102BD0000E94A415CE0101960E94B215F8018193BE
:102BE0008F016A81F0CF81E09981911180E00F908F
:102BF0000F90DF91CF911F910F91FF9008959093C7
:102C000086018093850160938401509A589A0895B3
:102C10009093860180938501609384015098589A1F
:102C2000E89AE9E6F0E080818C7F80830895615026
:102C300091E001C0990F6A95EAF720E031E099230D
:102C400061F0492F482319F0589A232701C058985A
:102C500040E24A95F1F79695F2CF222311F0589A67
:102C600001C0589880E28A95F1F758980895EF923C
:102C7000FF920F931F93CF93DF931F92CDB7DEB7D1
:102C8000162F082F7C018E2D801B811758F4F70119
:102C900081917F0189830E94AC1568E089810E943F
:102CA0001716F1CF0F90DF91CF911F910F91FF90E9
:102CB000EF9008951F920F920FB60F9211242F9349
:102CC0003F934F935F936F937F938F939F93AF93B4
:102CD000BF93CF93DF93EF93FF935898509AC0918F
:102CE0008501D09186016D81662321F08E819F81BF
:102CF0000E9437160E94AC1580E18A95F1F758982A
:102D00005098589A80E18A95F1F76A81662351F0CC
:102D10008B819C810E94D815E881F981811104C0C2
:102D200082E003C0E881F98188E080830E94A415D5
:102D3000FF91EF91DF91CF91BF91AF919F918F91D3
:102D40007F916F915F914F913F912F910F900FBEA7
:102D50000F901F901895CF93DF93C0918501D0916C
:102D60008601F894509A589885E08A95F1F700000A
:102D70005098589A80E28A95F1F7489B0AC0509A79
:102D8000589AE881F98181E08083789481E090E02D
:102D90002CC06D81662381F08E819F810E94D815A1
:102DA00081110AC0509A589AE881F98182E08083A3
:102DB000789482E090E019C00E94A41580E28A9580
:102DC000F1F75898509A80E18A95F1F76A81662365
:102DD00021F08B819C810E9437160E94AC15E881FE
:102DE000F9811082789480E090E0DF91CF9108958E
:102DF00090938C0180938B010895E0918B01F09169
:102E00008C01309721F00190F081E02D099480E051
:102E10000895E0918B01F0918C01309721F00280B0
:102E2000F381E02D099408952091890130918A0160
:102E30008217930771F090938A0180938901E09142
:102E40008B01F0918C01309721F00680F781E02D05
:102E50000994089520918701309188018217930782
:102E600071F09093880180938701E0918B01F0913C
:102E70008C01309721F00084F185E02D09940895AC
:102E800085B7806885BF85B7806885BF08950E9433
:102E900040170C94070D0E944B240E94940B0E9433
:102EA000CD240E94C5250C947210CF92DF92EF9230
:102EB000FF920F931F93CF93DF93CDB7DEB72B977E
:102EC0000FB6F894DEBF0FBECDBF0E94780C0E94F3
:102ED000E80C811111C08FEF89838A831B820E94C5
:102EE00054248160782F9D838C8349815A816B8122
:102EF0008D810E94FB1756C03EE8E32E31E0F32E91
:102F000000E010E0C02E802F0E948D0BF701D190C1
:102F10007F01D82631F40F5F1F4F0A30110591F75A
:102F2000DACF90910E0291FF04C08B870E94930B21
:102F30008B8520E030E04D2D50E0922FBA01022E1B
:102F400002C0759567950A94E2F760FF25C02E834D
:102F5000CF82EE24E394F12C02C0EE0CFF1C9A9574
:102F6000E2F790E08E219F2121E0892B09F420E0F7
:102F700028870E9454248160782F9A8789874E8100
:102F80005F8168858A850E94FB17F801E257FE4F32
:102F900080818E25808306C02F5F3F4F263031050C
:102FA00061F6B9CF10918D010E94FD161817A1F09E
:102FB0000E94FD1680938D012B960FB6F894DEBF0C
:102FC0000FBECDBFDF91CF911F910F91FF90EF907A
:102FD000DF90CF900C9424062B960FB6F894DEBFAA
:102FE0000FBECDBFDF91CF911F910F91FF90EF905A
:102FF000DF90CF900895CF93DF93CDB7DEB72B97B7
:103000000FB6F894DEBF0FBECDBF4F8358876987D8
:103010007A878B87DE01119686E0FD0111928A95F1
:10302000E9F785E0FE01379601900D928A95E1F768
:1030300049815A816B817C818D819E810E945A1FBA
:103040002B960FB6F894DEBF0FBECDBFDF91CF91A8
:103050000895FC01808191810E941A220895CF93E6
:10306000DF931F92CDB7DEB7682F882309F422C102
:103070008238C1F40E94FD1681FD1CC169E3809174
:103080001601909117010E94C0230E94A5222FEFE4
:1030900081EE94E0215080409040E1F700C00000B4
:1030A00069E319C0833811F50E94FD1680FD02C145
:1030B00063E580911601909117010E94C0230E9440
:1030C000A522EFEFF1EE24E0E150F0402040E1F7DF
:1030D00000C0000063E580911601909117010E94E5
:1030E000C2230F90DF91CF910C94A5228438C1F4B4
:1030F0000E94FD1682FDDEC067E48091160190916A
:1031000017010E94C0230E94A5228FEF91EEE4E0F8
:1031100081509040E040E1F700C0000067E4DBCF61
:103120008CEF860F813A70F4862F69830E948C257C
:1031300069818111BFC080911601909117010E9491
:10314000C023CFCF80E2860F883048F4677081E0DB
:1031500001C0880F6A95EAF70E945C22C2CF8BE516
:10316000860F833088F4653A29F0663A31F482E8B4
:1031700090E005C081E890E002C083E890E00F9005
:10318000DF91CF910C94141788E5860F873108F0F2
:1031900091C0683A09F445C0693A09F445C06A3AF1
:1031A00009F445C06B3A09F445C06C3A09F445C0CE
:1031B0006B3B09F445C06C3B09F445C06D3A09F41A
:1031C00045C0603B09F445C06E3A09F445C06F3A0A
:1031D00009F445C0613B09F445C0623B09F445C0B0
:1031E000633B09F445C0643B09F445C0653B09F401
:1031F00045C0663B09F445C0673B09F445C0683BE0
:1032000009F445C0693B09F445C06D3B09F445C06C
:103210006E3B09F445C06A3B09F045C08AE292E082
:1032200044C082EE90E041C089EE90E03EC08AEE5C
:1032300090E03BC085EB90E038C086EB90E035C075
:1032400083EB90E032C084EB90E02FC087EB90E0FE
:103250002CC08CEC90E029C08DEC90E026C083E877
:1032600091E023C08AE891E020C082E991E01DC08E
:1032700084E991E01AC081E292E017C083E292E013
:1032800014C084E292E011C085E292E00EC086E2B2
:1032900092E00BC087E292E008C08FE690E005C0A4
:1032A00080E790E002C080E090E00F90DF91CF9146
:1032B0000C942A170F90DF91CF910895882309F479
:1032C0005DC0823879F40E94FD1681FF57C069E322
:1032D00080911601909117010E94C0230E94A5229F
:1032E00069E310C08338B1F40E94FD1680FF46C028
:1032F00063E580911601909117010E94C0230E94FE
:10330000A52263E580911601909117010E94C223C6
:103310000C94A522843879F40E94FD1682FF2EC0F9
:1033200067E480911601909117010E94C0230E94CA
:10333000A52267E4E7CF9CEF980F913A10F4682F2D
:10334000E1CF90E2980F983050F4877091E001C07F
:10335000990F8A95EAF7892F0E946222D9CF9BE5BF
:10336000980F933020F480E090E00C941417885A62
:10337000873120F480E090E00C942A170895882388
:1033800021F00E945C220C94A5220895882321F04C
:103390000E9462220C94A52208958F929F92BF9260
:1033A000CF92DF92EF92FF920F931F93CF93DF9311
:1033B00000D0CDB7DEB74C01472FFC01C580C294C9
:1033C0009FE0C922D280DD2031F079836A830E9498
:1033D00079226A81498149836A830E945222498104
:1033E0006A81882389F0DD2079F080E2860F8830B9
:1033F00058F082E00E94F0220E945222BB24B39433
:10340000B82649816A8101C0B12CE42EE2948FE094
:10341000E822F12CF701E558FF4F0C948531842FF9
:10342000807F142F1F70882311F01295107FDD20EC
:10343000C1F0112309F49AC180E2860F883010F0A0
:10344000611105C0812F6A830E945C2204C0812F14
:103450006A830E946C226A816A830E94A5226A8123
:1034600085C1862F6A830E945E196A81112309F43F
:10347000C4C180E2860F883010F0611104C0812F32
:103480000E94622203C0812F0E9472220E94A52204
:10349000B4C1842F807F142F1F70803211F01295D9
:1034A000107F662319F06130D9F026C0DD2079F055
:1034B000CC2049F0F1E0CF1206C00E948C22812B73
:1034C0000E9492229AC10E948C22812B20C0CC2083
:1034D00021F021E0C21609F490C10E949B22FFC096
:1034E000DD2029F085E08C1508F487C10FC094E039
:1034F0009C1508F482C1F3C0DD2061F0CC2031F0CE
:10350000F401858180FF32C18F708583812F0E94F5
:10351000BF1973C1CC2009F4E2C039C1242F26950C
:103520002695237030E02115310521F02130310539
:1035300061F063C1DD2021F0862F942F937002C0CB
:1035400080E090E00E94141768C1DD2021F0862FF2
:10355000942F937002C080E090E00E942A175DC112
:10356000842F837009F04EC0D11053C1262F2295AD
:1035700026952770220F220F862F8F70C82ED12CF0
:10358000E12CF12C022E04C0CC0CDD1CEE1CFF1C27
:103590000A94D2F764FF10C06FE070E080E090E022
:1035A00004C0660F771F881F991F2A95D2F7609570
:1035B00070958095909503C060E070E0CB01242F5A
:1035C00026952695237030E02230310569F02330AE
:1035D000310589F06C297D298E299F2921303105FB
:1035E00071F00E94AB2015C16C297D298E299F297D
:1035F0000E94BD200EC10E94AB20C701B6010E94EF
:10360000992007C1DD2019F0842F817001C08695B3
:10361000882309F4FEC0262F229526952770220FB5
:10362000220F862F8F70C82ED12CE12CF12C022E68
:1036300004C0CC0CDD1CEE1CFF1C0A94D2F764FF06
:1036400010C06FE070E080E090E004C0660F771F6C
:10365000881F991F2A95D2F760957095809590954F
:1036600003C060E070E0CB01242F269526952370DF
:1036700030E02230310569F02330310589F06C29C2
:103680007D298E299F292130310571F00E94592111
:10369000C0C06C297D298E299F290E946B21B9C049
:1036A0000E945921C701B6010E944721B2C0062FCE
:1036B00010E0F801E05EF109E531F10508F052C0D3
:1036C000E557FF4F0C948531162F1F70842F8F7193
:1036D000DD2019F00E94F22019CF0E940D21812FC8
:1036E0000E94C6198AC0DD2049F0F4E0FC1508F4F8
:1036F00084C0842F8F710E942C217FC025E02C155F
:1037000008F47BC0F6CFDD2039F0842F8F710E9442
:10371000F22073C0DD20C9F3842F8F710E940D2128
:103720006CC0DD2029F0842F8F710E94E32065C0DA
:103730000E94DE2062C0DD2051F0142F1F71812F06
:103740000E94F22063E0812F0E94DB2256C081E0BC
:103750000E94F02281E08C1508F04FC082E00E94A8
:10376000F0224BC0DD2031F0CC2079F2862F0E9470
:103770002F1843C0CC2081F2693349F49FEFE7EE64
:10378000F3E09150E040F040E1F700C00000862FE8
:103790000E945E1932C04F70C4010E94DB080E9473
:1037A00007203BC0D11039C0942F9F70892F90E023
:1037B0008230910599F03CF4009769F00197E9F4A3
:1037C0000E94FE252AC08430910571F054F00597BF
:1037D000A1F480E00AC00E94E2251FC00E943D269D
:1037E0001CC00E94442619C085E00E94692615C0AD
:1037F0004F70C4010E94DE0810C028E0E216F104F8
:1038000041F05CF09AE0E91AF108E2E0EE16F1040A
:1038100020F40E94FD160E942406BB20F1F00E94B5
:103820004E2280FD1AC0F40112820E9448220E949A
:10383000F220C4010E943B1C0E9448220F900F906E
:10384000DF91CF911F910F91FF90EF90DF90CF907C
:10385000BF909F908F900C940D210F900F90DF914F
:10386000CF911F910F91FF90EF90DF90CF90BF907D
:103870009F908F9008950F931F93CF93DF93EC0148
:10388000288139818B819C81892B31F03F3F11F058
:1038900080E003C02F3FE1F781E0811113C0CE012A
:1038A0000E943C06882371F0688179818A810E9498
:1038B00025228C010E947D210E949620B801CE0114
:1038C0000E94CD19DF91CF911F910F9108950E9411
:1038D00079220E9489220E94A52280E090E00E9425
:1038E000141780E090E00C942A17809116019091B3
:1038F00017010E94C4230C94671C0E9469220C9437
:10390000751CE92FE295EF70F0E03297EE30F1058B
:10391000B8F4E056FF4F0C948531803F59F018F40D
:10392000803E70F407C0843F59F404C0803E10F01C
:10393000813F31F481E0089593FB882780F9089551
:1039400080E008950E941A220E94811C0895CF935E
:10395000DF9300D000D01F92CDB7DEB70F900F904D
:103960000F900F900F90DF91CF910895CF93DF9339
:1039700000D000D000D0CDB7DEB726960FB6F894B1
:10398000DEBF0FBECDBFDF91CF9108951F93CF93C0
:10399000DF93C091990116E080919A01C81799F0C0
:1039A000D0E01C9FF0011D9FF00D1124E556FE4F45
:1039B0004081518162817381848195810E94B61C0E
:1039C0002196C770E9CFDF91CF911F910895409163
:1039D000CB015091CC016091CD017091CE018091CD
:1039E000CF019091D0010C94B61CCF938091D0015F
:1039F00082958F7009F05FC08091CD01882309F412
:103A00005AC020919901A0919A016091CB017091C7
:103A1000CC018091CE019091CF0131E06F3F09F050
:103A200030E0B32FC6E02A1709F445C0009721F013
:103A30007F3F21F44B2F03C041E001C040E030E064
:103A400040FD35C0C29FF001C39FF00D1124E55623
:103A5000FE4F418174132BC04081641328C0428102
:103A6000411125C0438154814817590710F4415032
:103A70005109481B590B483C5105C8F48091D001AD
:103A80008F7080618093D00186E0829FF001839FD8
:103A9000F00D1124E056FE4F80818F70806180838D
:103AA0008BEC91E00E943B1CCF910C94C61C2F5FC5
:103AB0003F4F2770B8CFCF910895CF92DF92EF920A
:103AC000FF920F931F93CF93DF93CDB7DEB762972B
:103AD0000FB6F894DEBF0FBECDBF8C0185E0F801B4
:103AE000DE011D9601900D928A95E1F7D8014C9167
:103AF00011965C91119712966C9112971396ED9016
:103B0000FC9014977091CB01E091CC012091CE01F3
:103B10003091CF012115310531F0EF3F31F481E0D3
:103B20007F3F19F403C081E001C080E0B82FB1707D
:103B3000CB2E80FD6BC1D090CD01DD2009F4F5C006
:103B4000F091D001E216F30638F0C701821B930B07
:103B5000883C910548F09DC0209530952E0D3F1D65
:103B6000283C310508F095C08F2F807F09F052C0A6
:103B7000E51314C0741312C0D62E61110FC0FF706C
:103B8000F061F093D0010E94E71C8BEC91E00E9461
:103B90003B1C8091D001F80185837CC1EF2831F076
:103BA0005F3F31F481E04F3F19F403C081E001C071
:103BB00080E080FD03C081E0862701C080E0F82F0F
:103BC000F170FF2E80FF1CC08091990120919A0115
:103BD00036E0821709F438C190E0389FF001399F30
:103BE000F00D1124E556FE4F7181571306C0708108
:103BF000471303C07281671303C001968770E9CF32
:103C0000D62E662309F446C18091D001816080934D
:103C1000D00155C0E51308C0741306C0611104C07B
:103C2000D8011596FC93AEC04D875E878D859E8525
:103C30006A8B0E94A21C6A89882329F1D62E6623EA
:103C400011F12091D001822F82958F7090E0029720
:103C50000CF462C08091CB019091CC0198878F8346
:103C60001986FB86EA862C87CE01079653C0E51796
:103C700041F14D875E878D859E856A8B0E94A21CCF
:103C80006A89811130C0C8010E943B1CDD24D39495
:103C900001C18F2F807F59F77E2DF98AE88A8989A3
:103CA0000E94A71C8BEC91E00E943B1CEBECF1E026
:103CB00086E0DF011D928A95E9F70E94E71CD12C6E
:103CC000E9C07413D6CF6111D4CFD8011596FC93F7
:103CD000C8010E943B1CEBECF1E086E0DF011D9285
:103CE0008A95E9F7D7C0D62E662369F22091D001D4
:103CF000822F82958F7090E0029774F08091CB01B3
:103D00009091CC019A8389831B82FD82EC822E8361
:103D1000CE0101960E943B1C86E0F801ABECB1E0BD
:103D200001900D928A95E1F78AC0E216F30628F019
:103D3000C701821B930B9C0104C0209530952E0D6A
:103D40003F1D283C310508F053C0D62E662309F4E8
:103D50009ACFE5132CC074132AC08091D00180FD46
:103D60001DC0982F92959F70C9F0D80115968C931D
:103D700015979F3039F09F5F9295907F8F70892BB8
:103D800015968C93C8010E943B1C86E0F801ABECB1
:103D9000B1E001900D928A95E1F753C086E0F801F9
:103DA000ABECB1E001900D928A95E1F773C04D87BD
:103DB0005E878D859E850E94A21C882381F096E0F7
:103DC000F801ABECB1E001900D929A95E1F78A8B86
:103DD0000E94F51C0E94E71C8A89D82E5BC0809146
:103DE000D00181608093D001C8010E943B1C52C069
:103DF0007E2DF98AE88A89890E94A71CEBECF1E004
:103E000086E0DF011D928A95E9F71BC0662309F45D
:103E10003ACF4D875E878D859E850E94A21CD82E45
:103E2000882309F430CF86E0F801ABECB1E00190D3
:103E30000D928A95E1F78BEC91E00E9429180E947F
:103E4000F51C0E94E71C26C04D875E878D859E85E8
:103E50000E941A22292F22952F7030E0223031053E
:103E60002CF49F7041F0811106C00CC02430310544
:103E70002CF49F7049F4805E883020F0C8010E94C5
:103E80003B1CCF2CDC2C06C0D80115969C91907F52
:103E900091F7F8CF8D2D62960FB6F894DEBF0FBE66
:103EA000CDBFDF91CF911F910F91FF90EF90DF90E9
:103EB000CF9008951F93CF93DF93CDB7DEB72C97A4
:103EC0000FB6F894DEBF0FBECDBF4F83588769870A
:103ED0007A878B879C87CE0107960E945D1D882379
:103EE000C1F02F8138858A859B85892B31F03F3F32
:103EF00011F080E003C02F3FE1F781E0811147C05E
:103F00004F81588569857A858B859C850E94B61C72
:103F10003EC086E0FE013796DE01119601900D92BB
:103F20008A95E1F7FF81E8854A855B854115510552
:103F300031F0EF3F31F481E0FF3F19F403C081E03D
:103F400001C080E080FD23C020919A0130E0C901CA
:103F50000196877099276091990170E086179707FD
:103F6000F1F1F983EA835D834C8396E0929FD0015F
:103F7000939FB00D1124A556BE4FFE0131960190BE
:103F80000D929A95E1F780939A010E94C61C16E063
:103F90008091990190919A01891779F1189FC00138
:103FA000112485569E4F0E945D1D882331F1E091BA
:103FB00099011E9FF0011124E556FE4F4081518169
:103FC00062817381848195810E94B61C80919901E0
:103FD00090E001968770992780939901D9CF0E942C
:103FE0007D1C10929A0110929901EBECF1E086E0B1
:103FF000DF011D928A95E9F7CACF2C960FB6F89487
:10400000DEBF0FBECDBFDF91CF911F910895EF921C
:10401000FF920F931F93CF93DF93FC01009709F456
:104020006FC0F12CEE24E394EF0121968491843744
:1040300040F4843008F055C0813081F0823021F1A5
:104040005FC0853709F447C0C0F19CE7980F9037EF
:1040500008F056C08F770E945E1945C08F010E5F31
:104060001F4FFE01849190E2980F983050F48770B2
:10407000FE2D01C0FF0F8A95EAF78F2F0E947C2248
:1040800015C00E942F1814C08F010E5F1F4FFE0134
:10409000849190E2980F983068F48770FE2D01C0EB
:1040A000FF0F8A95EAF78F2F0E9482220E94A52295
:1040B000E80119C00E945E19FBCFCF010296FE01F4
:1040C000C491CC2361F0EFE9FFE03197F1F700C034
:1040D0000000C150F6CFCF010296FE01F490EC0132
:1040E00002C00E942F188F2D882341F0EFE9FFE0D6
:1040F0003197F1F700C000008150F6CFFE0194CF58
:10410000DF91CF911F910F91FF90EF900895089547
:104110000C9487200E9488206093FD017093FE011B
:104120008093FF01909300020C94671C08950C94F7
:104130008A200F931F930091FD011091FE012091A1
:10414000FF0130910002602B712B822B932B1F916A
:104150000F910C948A200F931F930091FD011091F1
:10416000FE012091FF013091000260237123822320
:1041700093231F910F910C948A200F931F9300910A
:10418000FD011091FE012091FF0130910002602796
:104190007127822793271F910F910C948A200895ED
:1041A0000C94CF200E94D0206093F9017093FA0103
:1041B0008093FB019093FC010C94671C60E070E01D
:1041C000CB010C94D22041E050E060E070E004C0EC
:1041D000440F551F661F771F8A95D2F7CB01BA018E
:1041E0000C94D22041E050E060E070E004C0440F45
:1041F000551F661F771F8A95D2F78091F90190911C
:10420000FA01A091FB01B091FC01482B592B6A2BBC
:104210007B2BCB01BA010C94D22041E050E060E04E
:1042200070E004C0440F551F661F771F8A95D2F7B0
:1042300040955095609570958091F9019091FA01A3
:10424000A091FB01B091FC01482359236A237B23F1
:10425000CB01BA010C94D22041E050E060E070E064
:1042600004C0440F551F661F771F8A95D2F78091AF
:10427000F9019091FA01A091FB01B091FC0148274E
:1042800059276A277B27CB01BA010C94D2200F93C0
:104290001F930091F9011091FA012091FB013091D7
:1042A000FC01602B712B822B932B1F910F910C948F
:1042B000D2200F931F930091F9011091FA012091E0
:1042C000FB013091FC0160237123822393231F9112
:1042D0000F910C94D2200F931F930091F90110912C
:1042E000FA012091FB013091FC01602771278227A0
:1042F00093271F910F910C94D2200895292F220FFC
:10430000290F220F280F422F469546954695277074
:10431000B1E001C0BB0F2A95EAF785E0489FA001F4
:1043200011244F525E4F80E090E070E0FA01E80FF8
:10433000F91FA0819B01082E02C0369527950A948B
:10434000E2F72170332721952A272B232A27208360
:1043500001968530910551F70895292F220F290FD5
:10436000220F280F622F669566956695922F97709B
:1043700085E0689FB00111246F527E4F40E050E00D
:1043800080E0FB01E40FF51F208130E0092E02C020
:10439000369527950A94E2F721703327042E01C041
:1043A000220F0A94EAF7822B4F5F5F4F4530510589
:1043B00041F70895CF92DF92EF92FF920F931F93F0
:1043C000CF93DF93EC01C090FD01D090FE01E0900F
:1043D000FF01F09000028091F9019091FA01A09103
:1043E000FB01B091FC01C82AD92AEA2AFB2A0FE175
:1043F00010E0B701A601002E04C076956795579589
:1044000047950A94D2F740FD05C00150110988F77D
:1044100080E007C0BE01802F0E94E7080197A9F342
:10442000802FDF91CF911F910F91FF90EF90DF9040
:10443000CF900895CF93DF93EC010E94DA21BE0163
:104440000E94E708DF91CF9108951F93CF93DF93E8
:10445000EB0190919801992321F0CB010E941A223F
:1044600013C0882349F0CB010E94DA21182F682F4E
:10447000CE010E947E2104C0CB010E94AD21182FE5
:10448000BE01812F0E94E708DF91CF911F9108950F
:104490008091010285958595859508958091010209
:1044A0008770089590910102977081E009F480E08F
:1044B000089580910D02089590910D02982B90938C
:1044C0000D020895809590910D02982390930D020E
:1044D000089510920D02089590910C02982B9093DC
:1044E0000C020895809590910C02982390930C02F1
:1044F000089510920C02089590910B02982B9093BE
:104500000B020895809590910B02982390930B02D3
:10451000089510920B020895809102020895089563
:104520000C948F2290910202981721F0809302023E
:104530000C949022089580910202882329F0109211
:10454000020280E00C9490220895E0911601F0910F
:10455000170180910D028083E0911601F0911701FF
:10456000808190910C02892B8083E0911601F0915B
:104570001701808190910B02892B80839091020218
:10458000992381F0E0911601F09117018081892B28
:10459000808380911601909117010E9488238111D8
:1045A0000E949B2280911601909117010C9409178B
:1045B00008950C94D82298E0899F90011124622BD1
:1045C000609301020E94F2208091010285958595F9
:1045D00085950C94D9221092010280E00C94D92286
:1045E000409101028095842380930102982F977057
:1045F00079F450E0282F332727FD309542175307D1
:1046000039F08595859585950E940D210C94EB22B6
:1046100008956FEF7FEF80E090E00C94D53180E05B
:1046200090E00E94B13121E08D3E9E4F09F020E0E4
:10463000822F089582E090E00C94A33183E090E013
:104640000C94A33184E090E00C94A331682F84E0B3
:1046500090E00C94B73186E090E00C94A331682F81
:1046600086E090E00C94B731AB01BC018FE090E0A4
:104670000C94C931AB01BC0183E190E00C94C931C9
:1046800060E070E0CB010C943A2360E070E0CB0175
:104690000E9434230C9440236DEE7EEF80E090E086
:1046A0000E94D53160E082E090E00E94B73160E086
:1046B00083E090E00E94B7311092FD011092FE015C
:1046C0001092FF011092000260E084E090E00E94EE
:1046D000B73160E085E090E00E94B73160E086E0AD
:1046E00090E00E94B7316FEF87E090E00E94B73111
:1046F00040E050E0BA0188E090E00E94C93160E0FB
:104700008DE090E00E94B7310C9445230C944C232B
:10471000FC01329697E080E0915029F0219122230C
:10472000D9F38F5FF9CF089520E030E04FEFFC011F
:10473000E20FF31F5281561799F04F3F19F45111B0
:1047400001C0422F2F5F3F4F2630310581F74F3F89
:1047500039F0FC01E40FF11D47FDFA9562830895DD
:10476000089520E030E0FC01E20FF31F4281461380
:1047700001C012822F5F3F4F26303105A1F7089507
:104780000C9494230C94B123029626E0FC01119220
:104790002A95E9F7089508950C94CB230E94CC2321
:1047A00080915202843049F110920F0220E488E196
:1047B00090E00FB6F894A895809360000FBE209308
:1047C000600080E00E94AD0580E00E9424060E9407
:1047D000CC2383B7817F846083BF83B7816083BF2D
:1047E0007894889583B78E7F83BF88E10FB6F8945D
:1047F00080936000109260000FBE089508950895A0
:10480000CF930E94FE230E94780C0E94FF23C0E0F9
:104810008C2F0E948D0B811105C0CF5FCA30C1F76C
:1048200080E001C081E0CF91089508950C94152493
:104830000E947D1C0E94C5250E94FD160E94240630
:104840000C9416241F920F920FB60F9211248F937F
:104850009F93AF93BF9380910F02811113C08091FA
:10486000470290914802A0914902B0914A024196B4
:10487000A11DB11D8093470290934802A093490265
:10488000B0934A02BF91AF919F918F910F900FBE4D
:104890000F901F90189582E084BD93E095BD9AEF2C
:1048A00097BD80936E0008952FB7F89480914702CA
:1048B00090914802A0914902B0914A022FBF0895F9
:1048C0002FB7F89460914702709148028091490295
:1048D00090914A022FBF0895CF92DF92EF92FF92FC
:1048E0000F931F932FB7F8944091470250914802BD
:1048F0006091490270914A022FBF6A017B01EE2448
:10490000FF248C0120E030E0C016D106E206F30659
:1049100010F441505109481B590BCA011F910F91C6
:10492000FF90EF90DF90CF90089578941F920F92B0
:104930000FB60F9211248F939F93AF93BF938091E3
:10494000470290914802A0914902B0914A02019613
:10495000A11DB11D8093470290934802A093490284
:10496000B0934A02BF91AF919F918F910F900FBE6C
:104970000F901F90189587E797E790930108809311
:1049800000082AE088E190E00FB6F894A89580939B
:1049900060000FBE20936000FFCF0E940F238111A3
:1049A00002C00E9486230E941A2380930E020E9456
:1049B000222390E090934C0280934B020E941E238E
:1049C000682F70E080E090E00C9497208732F8F434
:1049D0008E3108F085C08E3009F465C048F4873008
:1049E00009F447C08B3009F491C0863051F127C0DB
:1049F000863109F48BC020F4803109F45EC01FC0F9
:104A0000893109F483C08B3109F443C018C088335D
:104A100009F47CC050F4893209F470C0853309F47C
:104A20006DC0873209F46AC00AC0833409F466C0D5
:104A300020F48A3308F052C002C0883461F080E06C
:104A4000089580910E02817F8E7F80930E0281E017
:104A50008093100208950E947D1C2FEF83ED90E358
:104A6000215080409040E1F700C000000E94BB242C
:104A70004DC090910E02892F8095817080FB90F936
:104A800090930E02811142C0997F977F90930E02FE
:104A90003DC090910E0291FB882780F921E082278A
:104AA00080FB91F913C090910E0292FB882780F948
:104AB00021E0822780FB92F909C090910E0293FBBE
:104AC000882780F921E0822780FB93F990930E02DA
:104AD0008823E1F0916090930E02089527EC01C0C5
:104AE00023EE280F61E070E080E090E004C0660FE4
:104AF000771F881F991F2A95D2F704C061E070E0E4
:104B000080E090E00E9497200E947D1C81E0089543
:104B100080E0089580E00895CF93C82F809110021F
:104B2000882319F0813031F028C00E945922823246
:104B300031F504C00E945922823249F48C2F0E9420
:104B40008825811117C08C2F0E94E62414C08C2F59
:104B50000E948A2581110EC0C43149F018F4CB306F
:104B600049F00FC0C93219F0C83321F00AC01092C1
:104B7000100207C081E0817006C01092100280E030
:104B800002C080E0F8CFCF9108950E940F238111D9
:104B900002C00E9486230E942B2380934D02282F5F
:104BA000269530E02630310524F081708A608093AC
:104BB0004D0280914D0280FF02C0869501C080E0C9
:104BC0000C94AD0520914D02322F3695832F90E045
:104BD000059744F491E0930F990F822F8170892BF0
:104BE00080934D0280914D02816080934D020E941E
:104BF0002F2380914D0286950C94AD0580914D0236
:104C0000982F969591F09158990F8170892B8093E8
:104C10004D028E7F91E009F490E080914D0290FB6F
:104C200080F980934D020E942F2380914D0286953A
:104C30000C94AD0580914D0280FD11C08160809380
:104C40004D02813019F483E080934D0280914D0232
:104C50000E942F2380914D0286950C94AD050895F6
:104C600080914D0280FF08C08E7F80934D020E948C
:104C70002F2380E00C94AD05089580914D0280FDB6
:104C80000C9430260C941A2630914D02232F269531
:104C90002F5F2F77822F90E0317006972CF4220F30
:104CA000232B20934D0202C030934D0280914D0280
:104CB0008E7F91E009F490E080914D0290FB80F9A5
:104CC00080934D020E942F2380914D0286950C9473
:104CD000AD05863008F085E0880F90914D02917007
:104CE000982B90934D029E7F21E009F420E0809163
:104CF0004D0220FB80F980934D020E942F2380916A
:104D00004D0286950C94AD05809119020895089581
:104D10000F931F93CF93DF9300D01F92CDB7DEB7D1
:104D20008C010E941929823011F0843019F584E039
:104D300089831B830A838093E9008FEF9091E800B9
:104D4000815095FD06C095ED9A95F1F7000081110F
:104D5000F5CF8091E80085FF0DC040E050E063E0B2
:104D600070E0CE0101960E9436298091E8008E778E
:104D70008093E8000F900F900F90DF91CF911F91DB
:104D80000F910895CF93DF9300D01F92CDB7DEB778
:104D900020915202243029F533E03983805891095B
:104DA0009B838A832093E9008FEF9091E8008150E4
:104DB00095FD06C095ED9A95F1F700008111F5CFAC
:104DC0008091E80085FF0DC040E050E063E070E0B6
:104DD000CE0101960E9436298091E8008E7780935B
:104DE000E8000F900F900F90DF91CF910895CF932F
:104DF000DF93EC010E941929823011F0843039F5DB
:104E000081E08093E9008FEF9091E800815095FD5B
:104E100006C095ED9A95F1F700008111F5CF8091CC
:104E2000E80085FF14C040E050E068E070E0CE018B
:104E30000E9436298091E8008E778093E80088E010
:104E4000FE01A1E1B2E001900D928A95E1F7DF91B8
:104E5000CF910895CF93603229F5209152022430EA
:104E600009F52091E9002F703091EC0030FF02C06D
:104E700030E801C030E0C32FC22B22E02093E900CC
:104E80002091E80020FF0BC040E050E060E270E0BD
:104E90000E9436298091E8008E778093E800CF70D9
:104EA000C093E900CF91089580915102811109C00A
:104EB0000E94112B0E946E2B8091E20084608093EF
:104EC000E2000895109251020895089508950C94F7
:104ED000182442E061EC81E00E948B2A42E261ECFE
:104EE00084E00E948B2A42E261EC82E00E948B2ADD
:104EF00042E260EC83E00C948B2A80915402833070
:104F000009F462C030F4813071F0823009F49BC042
:104F100008958A3009F487C08B3009F46DC0893058
:104F200009F0A9C020C080915302813A09F0A3C0C2
:104F30008091E800877F8093E800809157029091EC
:104F40005802892B21F060E080E090E003C068E027
:104F500081E192E070E00E94C8298091E8008B779F
:104F60008093E800089580915302813209F083C054
:104F70008091570290915802009719F0029709F01A
:104F80007AC08091E800877F8093E8008091E800F4
:104F900082FD05C0809152028111F8CF6CC0209132
:104FA000F3008091F20090E0922B029729F4809117
:104FB000F1008B7F813021F48091F1008093190200
:104FC0008091E8008B7753C080915302813A09F0B9
:104FD00052C08091570290915802892B09F04BC022
:104FE0008091E800877F8093E8008091E80080FF4F
:104FF000FCCF8091220136C0809153028132D9F5D5
:105000008091570290915802892BA9F58091E80070
:10501000877F8093E8000E94C02A80915502809388
:1050200022010C947D1C80915302813221F58091E4
:10503000E800877F8093E8000E94C02A8091560292
:1050400080931A02089580915302813AA1F48091CD
:10505000E800877F8093E8008091E80080FFFCCF24
:1050600080911A028093F1008091E8008E778093FE
:10507000E8000C94C02A08951F93CF93DF93CDB717
:10508000DEB7A0970FB6F894DEBF0FBECDBF84B7D2
:10509000877F84BF88E10FB6F894809360001092F8
:1050A00060000FBE80E880936100109261000E9452
:1050B00047170E94112B0E946E2B8091E2008460A2
:1050C0008093E20078940E94F12D0E944B1788E1B2
:1050D00091E00E94F81613E080915202853069F445
:1050E0000E94CE23809150028823B1F30E940024B5
:1050F000882391F30E942029EFCF0E9455170E9428
:10510000B61380915202843039F71093E9008091F0
:10511000E80082FFE1CF8091E80085FF0AC040E00F
:1051200050E060E270E0CE0101960E947F2991E09C
:1051300001C090E08091E8008B778093E80099238C
:1051400059F260E2CE0101960E94EE03C5CF0C94A5
:10515000A928292F332723303105A9F06CF42130F9
:10516000310509F448C02230310509F049C08BE50A
:1051700090E02AEE35E048C021323105F9F02232C4
:10518000310549F13DC099278130910571F02CF42A
:10519000892BB1F5E6EEF5E00DC08230910541F0C6
:1051A000039771F5E2EBF5E005C0E6EDF5E002C02E
:1051B000E8EBF5E0849190E09F0126C06330710533
:1051C000F8F4FB01EE0FFF1FE45CFE4F20813181FC
:1051D00089E090E019C06330710590F4FB01EE0F97
:1051E000FF1FEA5CFE4F20813181FB01ED5CFE4F29
:1051F000808190E009C082E190E025E436E004C0BF
:1052000080E090E020E030E0FA01318320830895CF
:105210000895CF93C82F0E940829C0931B02CF91F5
:10522000089580915202843011F482E0089581E063
:10523000089580911B02811102C00C9411290895D8
:1052400080E189BD82E189BD09B400FEFDCF809176
:10525000D8008F7D8093D8008091E0008260809399
:10526000E0008091E00081FDFCCF0895CF92DF92B5
:10527000EF92FF920F931F93CF93DF937C018B01EB
:10528000EA010E94E12A811131C0209731F0888122
:105290009981081B190BE80EF91EC12CD12C0115A0
:1052A000110519F18091E80085FD14C08091E80096
:1052B0008E778093E800209741F0888199818C0D4A
:1052C0009D1D9983888385E011C00E94E12A88236F
:1052D00031F30CC0F70181917F018093F1000150FF
:1052E0001109FFEFCF1ADF0ADACF80E0DF91CF910B
:1052F0001F910F91FF90EF90DF90CF900895CF9284
:10530000DF92EF92FF920F931F93CF93DF937C0175
:105310008B01EA010E94E12A811131C0209731F00E
:1053200088819981081B190BE80EF91EC12CD12C1C
:105330000115110519F18091E80085FD14C08091D7
:10534000E8008B778093E800209741F0888199816D
:105350008C0D9D1D9983888385E011C00E94E12AF0
:10536000882331F30CC08091F100F70181937F0114
:1053700001501109FFEFCF1ADF0ADACF80E0DF9189
:10538000CF911F910F91FF90EF90DF90CF900895F4
:105390002091590230915A022617370748F06115BB
:1053A000710539F42091E8002E772093E80001C0C0
:1053B000B901FC0120E061157105B9F1809152023B
:1053C000882309F440C0853009F43FC08091E8008B
:1053D00083FD3DC08091E80082FF06C08091E80017
:1053E00082FF26C080E008958091E80080FFE3CF2F
:1053F0002091F3008091F20090E0922B61157105ED
:1054000051F08830910538F421912093F1006150DA
:1054100071090196F3CF21E0089709F020E080910F
:10542000E8008E778093E800C6CF2111C7CFD6CF92
:1054300080915202882339F0853039F08091E8005C
:1054400083FFCCCF04C082E0089583E0089581E01B
:1054500008952091590230915A022617370748F0D3
:105460006115710539F42091E8002E772093E8004A
:1054700001C0B901FC0120E061157105C1F1809105
:105480005202882309F441C0853009F440C080915C
:10549000E80083FD3EC08091E80082FF06C0809155
:1054A000E80082FF27C080E008958091E80080FF37
:1054B000E3CF2091F3008091F20090E0922B6115F0
:1054C000710559F08830910540F424912093F10042
:1054D0003196615071090196F2CF21E0089709F0E9
:1054E00020E08091E8008E778093E800C5CF2111FD
:1054F000C6CFD5CF80915202882339F0853039F05C
:105500008091E80083FFCBCF04C082E0089583E060
:10551000089581E00895982F973058F59093E90009
:10552000981739F07091EC002091ED005091F00047
:1055300003C0242F762F50E021FF19C03091EB00DB
:105540003E7F3093EB003091ED003D7F3093ED00D6
:105550003091EB0031603093EB007093EC002093BE
:10556000ED005093F0002091EE0027FF07C09F5FF1
:10557000D3CF8F708093E90081E0089580E0089593
:105580008091530287FD05C08091E80080FF0EC026
:1055900012C08091E80082FD05C080915202811105
:1055A000F8CF08958091E8008B7708C0809152026F
:1055B0008111EACF08958091E8008E778093E8000A
:1055C00008958091E4009091E50045E62091EC007B
:1055D00020FF21C02091E80020FD21C0209152022F
:1055E000222389F0253089F02091EB0025FD0FC0A2
:1055F0002091E4003091E5002817390739F3415034
:1056000041F0C901E3CF82E0089583E0089581E08D
:10561000089584E008952091E80022FFDFCF80E024
:1056200008950E947F2B0E94872BE0EEF0E080819E
:1056300081608083E8EDF0E080818F77808319BC02
:10564000A7EDB0E08C918E7F8C9380818F7E8083DC
:105650001092510208950F931F93CF93DF930E94EE
:105660007F2B0E94872BC8EDD0E088818F778883BD
:1056700088818068888388818F7D888319BC109297
:10568000520210924E021092500210924F0200EEFF
:1056900010E0F80180818B7F80838881816088831E
:1056A00042E060E080E00E948B2AE1EEF0E0808141
:1056B0008E7F8083E2EEF0E0808181608083808154
:1056C00088608083F80180818E7F808388818061FB
:1056D0008883DF91CF911F910F910895E8EDF0E05D
:1056E00080818F7E8083E7EDF0E080818160808320
:1056F00084E082BF81E0809351020C942B2BE8ED73
:10570000F0E080818E7F80831092E20008951092F5
:10571000DA001092E10008951F920F920FB60F92D7
:1057200011242F933F934F935F936F937F938F93A6
:105730009F93AF93BF93EF93FF938091E10082FF1C
:105740000BC08091E20082FF07C08091E1008B7F57
:105750008093E1000E94F02D8091DA0080FF1FC04D
:105760008091D80080FF1BC08091DA008E7F8093EB
:10577000DA008091D90080FF0DC080E189BD82E10F
:1057800089BD09B400FEFDCF81E0809352020E94E2
:10579000542705C019BC109252020E9462278091C2
:1057A000E10080FF19C08091E20080FF15C0809168
:1057B000E2008E7F8093E2008091E200806180931E
:1057C000E2008091D80080628093D80019BC85E007
:1057D000809352020E9466278091E10084FF30C0CE
:1057E0008091E20084FF2CC080E189BD82E189BD07
:1057F00009B400FEFDCF8091D8008F7D8093D80042
:105800008091E1008F7E8093E1008091E2008F7EA5
:105810008093E2008091E20081608093E2008091B9
:105820004E02882311F084E007C08091E30087FFD7
:1058300002C083E001C081E0809352020E9467278A
:105840008091E10083FF29C08091E20083FF25C0A1
:105850008091E100877F8093E10082E08093520293
:1058600010924E028091E1008E7F8093E100809142
:10587000E2008E7F8093E2008091E200806180935D
:10588000E20042E060E080E00E948B2A8091F0001C
:1058900088608093F0000E946527FF91EF91BF918F
:1058A000AF919F918F917F916F915F914F913F91B8
:1058B0002F910F900FBE0F901F9018951F920F926F
:1058C0000FB60F9211242F933F934F935F936F93D3
:1058D0007F938F939F93AF93BF93CF93EF93FF9358
:1058E000C091E900CF708091EC001092E9008091A6
:1058F000F000877F8093F00078940E949A2C109299
:10590000E9008091F00088608093F000C093E90086
:10591000FF91EF91CF91BF91AF919F918F917F9127
:105920006F915F914F913F912F910F900FBE0F900C
:105930001F9018951F93CF93DF93CDB7DEB7AA972B
:105940000FB6F894DEBF0FBECDBFE3E5F2E0809165
:10595000F100819322E0EB35F207C9F70E947D2721
:105960008091E80083FF24C12091530230915402BA
:10597000832F90E08A30910508F01AC1FC01E255AE
:10598000FF4F0C948531203821F0223809F010C1E6
:1059900008C080914F0290915002992389F0826053
:1059A0000FC0809157028F70873008F001C180933B
:1059B000E9008091EB0085FB882780F91092E900CF
:1059C0009091E800977F9093E8008093F100109207
:1059D000F100CCC0822F8D7F09F0EAC0222319F09C
:1059E000223061F0E5C080915502813009F0E0C0BD
:1059F000333009F080E0809350022AC08091550234
:105A0000811126C0209157022F708FEF820F8630B0
:105A100008F0CEC02093E9008091EB0080FF18C011
:105A20008091EB00333011F4806210C0806180936C
:105A3000EB0081E090E001C0880F2A95EAF780939F
:105A4000EA001092EA008091EB0088608093EB00FE
:105A50001092E9008091E800877F8093E8000E941F
:105A6000C02AA6C02111A4C0109155021F778091B1
:105A7000E3008078812B8093E3008091E800877FAA
:105A80008093E8000E94C02A8091E80080FFFCCF4C
:105A90008091E30080688093E300112311F083E09C
:105AA00001C082E08093520283C02058223008F067
:105AB0007FC080915502909156028C3D23E0920761
:105AC00079F583E08A838AE289834FB7F894DE010F
:105AD000139620E03EE051E2E32FF0E050935700B0
