:100000000C94DC020C9420030C9420030C94200329
:100010000C9420030C9420030C9420030C942003D4
:100020000C9420030C9420030C94B0270C94822889
:100030000C9420030C9420030C9420030C942003B4
:100040000C9420030C9420030C9420030C942003A4
:100050000C9420030C9432220C9420030C94200363
:100060000C9420030C9420030C9420030C94200384
:100070000C9420030C9420030C9420030C94200374
:100080000C943E080C9420030C9420030C94200341
:100090000C9420030C9420030C9420030C94200354
:1000A0000C9420030C9420030C9420036403670336
:1000B000EB0372037A038603D003D303D603D90379
:1000C000DC0389038C0391039F03AD03B003B403E6
:1000D000C203F008D208D508D808DB08DE08E1081A
:1000E000E408E708EA08ED085D096A096F09740980
:1000F00079097E0986098E0996099C09A409AA092D
:10010000B209B809C009CB09DF090A0A0E0A150AA3
:100110001B0A210A2C0A260A320A350A380A3B0A27
:100120003E0A450A4C0A530A590A600A660A6D0AD1
:10013000730A7B0A880A9E0AC90BCF0BD50BDA0B10
:10014000DF0BE40BE90BEE0BF30BF80BFD0B020CD2
:10015000070C0D0CA30FA90FAD0FB00FB40FB80F04
:10016000BC0FC00FC50FC90FCD0FD10FD40FD80FC3
:10017000DC0FE00FE40FE90FEE17EE172818281830
:100180006B18B619B619B6198D18B6193419341971
:10019000AA19B619B619B1194119411941194119CC
:1001A000411941194119411941194119411941197F
:1001B0004119411941194119531963196A197119E2
:1001C0007B19461A461A591A591A4F1A591A591AA6
:1001D000591A461A461A551A591A591A551AE72819
:1001E0000E29FC290E29FC2956297929FC29CF2919
:1001F000DE29000305010204A0FF60FF4DFFB3FFED
:1002000033FFCDFF00000010101010002010200060
:100210001E001F002000210022002300000000001B
:1002200000000000000000000000000000000000CE
:1002300000000000000000000000000000000000BE
:1002400000000000000000002A2B28000000000031
:100250000000000000000000000000290000000075
:100260002C1E3420212224342627252E362D3738E3
:10027000271E1F202122232425263333362E3738EC
:100280001F0405060708090A0B0C0D0E0F101112AA
:10029000131415161718191A1B1C1D2F3130232D76
:1002A000350405060708090A0B0C0D0E0F10111274
:1002B000131415161718191A1B1C1D2F3130354C25
:1002C000000000000000000000000000000000002E
:1002D000000000000000000000000000000000001E
:1002E0000001010101010100010101010000000004
:1002F00000000000000000000000010001000101FA
:1003000001010101010101010101010101010101DD
:1003100001010101010101010101010000000101D0
:1003200000000000000000000000000000000000CD
:1003300000000000000000000000000101010100B9
:1003400000000000000101010101010101010202A0
:100350000202020202020203030303030303030473
:10036000040404040405050505050606060606073B
:10037000070707080808080909090A0A0A0A0B0BEF
:100380000B0C0C0C0D0D0D0E0E0F0F0F101011118C
:10039000111212131314141515161617171818190D
:1003A000191A1A1B1C1C1D1D1E1F1F202021222272
:1003B0002324252526272728292A2B2B2C2D2E2FB1
:1003C0002F30313233343536363738393A3B3C3DCD
:1003D0003E3F4041424344464748494A4B4C4D4FBB
:1003E00050515253555657585A5B5C5E5F6062637A
:1003F000646667696A6C6D6E707173747678797B08
:100400007C7E8081838486888A8B8D8F919294965E
:10041000989A9B9D9FA1A3A5A7A9ABADAFB1B3B57A
:10042000B7B9BBBDBFC1C4C6C8CACCCFD1D3D6D85B
:10043000DADCDFE1E4E6E8EBEDF0F2F5F7FAFCFFF9
:100440000403300000001403520041004D0041003D
:1004500020004D0036002D0042000000160352001F
:1004600041004D0041002E0057004F0052004B004C
:10047000530000000403090409025B00030100A00B
:10048000FA09040000010301010009211101000122
:100490002240000705810308000A09040200010345
:1004A00000000009211101000122710007058403E9
:1004B00020000A09040100020300000009211101C3
:1004C0000001222200070582032000010705030323
:1004D000200001120110010000000841526B0001D0
:1004E00000010203010660FF0961A1010962150014
:1004F00026FF009520750881020963150026FF007C
:10050000952075089102C005010980A10185031697
:1005100001002603001A81002A83007510950181CD
:1005200000C0050C0901A1018504160100269C02EA
:100530001A01002A9C02751095018100C00501096D
:1005400006A1018505050719E029E7150025019594
:1005500008750181020508190129059505750191A4
:10056000029501750391010507190029EF15002572
:100570000195F075018102C005010906A101050779
:1005800019E029E7150025019508750181029501FB
:100590007508810105081901290595057501910264
:1005A0009501750391010507190029FF150026FF24
:1005B00000950675088100C011241FBECFEFDAE058
:1005C000DEBFCDBF04B603FE24C0809141029091EE
:1005D0004202A0914302B09144028730904BA74061
:1005E000B04BB9F4109241021092420210924302B1
:1005F0001092440214BE84B7877F84BF88E10FB68F
:10060000F89480936000109260000FBEE0E0F8E381
:10061000099511E0A0E0B1E0EAEEF6E502C0059030
:100620000D92A235B107D9F712E0A2E5B1E001C001
:100630001D92A134B107E1F70E9462240C94732B40
:100640000C94000080E290E00E94D62A8F319544FD
:1006500051F482E290E00E94CE2A91E0883009F0C5
:1006600090E0892F01C080E081700895CF93C82F5A
:10067000882319F06FE175E402C06FEF7FEF80E22D
:1006800090E00E940A2BCC2311F068E001C06FEFCC
:1006900082E290E0CF910C94EC2A80E00E94360335
:1006A0000C94C2201F93CF93DF93EC01162F019679
:1006B000488150E0FA013197E331F10508F08BC031
:1006C000EA5AFF4F0C945A2A198288E028C089817F
:1006D000813009F080C00E94FD219A838B837C8346
:1006E0006D837BC04B816A8189810E94B1139C8399
:1006F0008D8373C02C8130E0322F22278D81282BEF
:100700004B816A8189810E94CA1367C00E94E613E7
:1007100064C00E94641426C00E94661499838A8370
:100720005CC06B8170E0898190E0982F88272A81D6
:10073000AE014C5F5F4F822B0E9469144EC06B81EB
:1007400070E0898190E0982F88272A81AE014C5F64
:100750005F4F822B0E948E1440C00E94B4143DC093
:100760000E949E13898339C06B8170E0898190E07B
:10077000982F88272A81AE014C5F5F4F822B0E9401
:100780000E142BC06B8170E0898190E0982F882730
:100790002A81AE014C5F5F4F822B0E9432141DC034
:1007A0000E944A091AC00E94F20917C00E94BB0A9F
:1007B00014C00E944D0311C0CE010E9450232FEFA0
:1007C00081EE94E0215080409040E1F700C00000AD
:1007D0000E94582202C08FEF8883612FCE01DF91E3
:1007E000CF911F910C9450230E942203882319F06B
:1007F0000E94B30A09C00E94BB0A0E94E6130E942D
:10080000B41481E00E9436030E94C30A0E940D05C1
:100810000C9421050E9421138FE19EE40197F1F7CA
:1008200000C000008FE19EE40197F1F700C00000D6
:100830000E94211380E00E94631380FF04C00E9485
:100840004D030C94582208950E940A040E94F40358
:100850000C94F8120E94F0040C94F9120F931F9359
:10086000CF93DF93EC018B010E94B10BF8018281E1
:10087000C031FFE5DF0729F0C1319FE5D90739F025
:1008800015C0882311F081E005C081E00CC08823E9
:1008900049F082E00E94AB1E43E062E081E00E94EA
:1008A000CA0E18C082E00E94C61EF6CF882351F0FF
:1008B000CE0182519F45409728F48C2F82510E948F
:1008C000C41408C0B801CE01DF91CF911F910F91E0
:1008D0000C94100E80E0DF91CF911F910F9108953D
:1008E0009C013F502F3F310509F058F49C013327FC
:1008F000A901415351094230510518F4C901986FBB
:100900000895FC01EE0FFF1FE05CFC4F8591949170
:100910000895CF93DF93EC018FEC860F823038F58A
:100920008A818823D9F0613311F481E001C082E02B
:100930000E94AB1E8D81982F907F61F080FD0AC0D0
:1009400082958F7090E0039794F083E0DF91CF91D0
:100950000C94E51E8D818F708D8309C0613311F475
:1009600081E001C082E0DF91CF910C94C61EDF913F
:10097000CF9108950C942A0581E00C94270580E01E
:100980000C942705E82FF0E0EE0FFF1FEC5FFD4F02
:100990008491DB018C933196E491DB011196EC9309
:1009A0000895E82FF0E0EE0FFF1FE850FE4F84910E
:1009B000DB018C933196E491DB011196EC93089561
:1009C000882321F08FEFDA018C9308956630D0F7F9
:1009D000E62FF0E0EE50FE4FE491DA01EC9308953B
:1009E0000C941F0DCF93DF931F92CDB7DEB7AE01EE
:1009F0004F5F5F4F0E94E004E981F0E0EE5FFD4F42
:100A000010821092540110925501109256011092CA
:100A100057010F90DF91CF9108958091530181117B
:100A20000FC081E0809353018DE0809391008FB7D8
:100A3000F89493E0909399009DE0909398008FBF75
:100A40000895E1E7F0E080818260808308958093DB
:100A50005D01089580935C01089580915801909103
:100A60005901A0915A01B0915B0180739927AA277F
:100A7000BB2724E0B695A795979587952A95D1F73A
:100A800082309105A105B10571F083309105A10572
:100A9000B10569F040E00197A105B10511F060E0F2
:100AA00008C06FEF02C04FEF60E080E003C04FEF7F
:100AB0006FEF8FEF0C94050D40E060E080E00C9448
:100AC000050D60910A0170910B01809107010E9450
:100AD000190C962F672F482F892F0C94050DDF9244
:100AE000EF92FF920F931F93CF93DF9300D0CDB778
:100AF000DEB780910C0190E020910A01821B9109E0
:100B00008038910514F09A9505C081382FEF92072F
:100B10000CF4939597FD03969595879595958795F4
:100B2000D82E20910D0130E080910B01281B310956
:100B300037FF02C02D5F3F4F359527953595279597
:100B4000E22EF090070100E010E0BE016F5F7F4FE2
:100B5000802F0E94C2049A8192959F7060910A0131
:100B60009D9D600D112470910B019E9D700D1124AF
:100B70008F2D0E94190C472F282FC8010E94F70CB7
:100B80000F5F1F4F0630110501F70F900F90DF9197
:100B9000CF911F910F91FF90EF90DF9008958F926A
:100BA0009F92BF92CF92DF92EF92FF920F931F938B
:100BB000CF93DF931F92CDB7DEB7D82EF0900A0106
:100BC00020910C0130E02F19310937FF02C02D5F51
:100BD0003F4F3595279535952795C22EE0900B010F
:100BE00020910D0130E02E19310937FF02C02D5F31
:100BF0003F4FA9015595479555954795B42E0E94AD
:100C0000AE2A66E070E00E94462A8C01812C912C6D
:100C10001127D11003C080169106C9F40E94AE2A94
:100C200083706F2D8C9D600D112469830E94AE2A04
:100C300083707E2D8B9D700D112469818091070139
:100C40000E94190C472F282FC4010E94F70C8FEF28
:100C5000881A980AE6E08E169104D9F60F90DF9173
:100C6000CF911F910F91FF90EF90DF90CF90BF90A9
:100C70009F908F900895DF92EF92FF920F931F93B2
:100C8000CF93DF938091580190915901A0915A011F
:100C9000B0915B010090090104C0880F991FAA1F41
:100CA000BB1F0A94D2F7D82E02E012E0C0E0D0E0D9
:100CB000EFE3EE2EF12CF80121918F01F4E02F9F4C
:100CC000900111242034310520F4B701621B730B0D
:100CD00002C060E070E06D0D7FEF809107010E941F
:100CE000190C472F282FCE010E94F70C2196C630F1
:100CF000D10509F7DF91CF911F910F91FF90EF90F0
:100D0000DF9008958F929F92AF92BF92CF92DF9221
:100D1000EF92FF920F931F93CF93DF9300D0CDB745
:100D2000DEB78091580190915901A0915A01B0917C
:100D30005B010090090104C0880F991FAA1FBB1F07
:100D40000A94D2F7882E90900701F2E0CF2EF2E0BD
:100D5000DF2E00E010E0AFE3AA2EB12CF6012191C6
:100D60006F01F4E02F9F900111242034310520F40D
:100D70007501E21AF30A02C0E12CF12CBE016F5F8B
:100D80007F4F802F0E94C2046981680D6E0D7FEF36
:100D9000892D0E94190C472F282FC8010E94F70C9B
:100DA0000F5F1F4F06301105C9F60F900F90DF91AE
:100DB000CF911F910F91FF90EF90DF90CF90BF9058
:100DC000AF909F908F9008958F929F92AF92BF9215
:100DD000CF92DF92EF92FF920F931F93CF93DF9307
:100DE00000D0CDB7DEB78091580190915901A09104
:100DF0005A01B0915B010090090104C0880F991F4E
:100E0000AA1FBB1F0A94D2F7882E90900701B2E068
:100E1000CB2EB2E0DB2E00E010E08FE3A82EB12C49
:100E2000F60121916F01F4E02F9F900111242034ED
:100E3000310520F47501E21AF30A02C0E12CF12C0D
:100E4000BE016F5F7F4F802F0E94C2046A81680DD0
:100E50006E0D7FEF892D0E94190C472F282FC80196
:100E60000E94F70C0F5F1F4F06301105C9F60F9057
:100E70000F90DF91CF911F910F91FF90EF90DF9036
:100E8000CF90BF90AF909F908F900895CF92DF92B8
:100E9000FF920F931F93CF93DF931F92CDB7DEB7CF
:100EA000F82E0E94AE2A66E070E00E94462A8C016D
:100EB000C12CD12C1127F11003C0C016D10681F42A
:100EC0000E94AE2A89830E94AE2A6981782F809180
:100ED00007010E94190C472F282FC6010E94F70C0A
:100EE0008FEFC81AD80AE6E0CE16D10421F70F908A
:100EF000DF91CF911F910F91FF90DF90CF900895D8
:100F0000EF92FF920F931F93CF93DF9300D0CDB753
:100F1000DEB78091580190915901A0915A01B0918A
:100F20005B010090090104C0880F991FAA1FBB1F15
:100F30000A94D2F7E82EF090070100E010E0BE011D
:100F40006F5F7F4F802F0E94D10469816E0D7A817F
:100F50008F2D0E94190C472F282FC8010E94F70CD3
:100F60000F5F1F4F0630110551F70F900F90DF9163
:100F7000CF911F910F91FF90EF900895EF92FF9204
:100F80000F931F93CF93DF9300D0CDB7DEB780913F
:100F9000580190915901A0915A01B0915B010090C4
:100FA000090104C0880F991FAA1FBB1F0A94D2F71A
:100FB000E82EF090070100E010E0BE016F5F7F4F68
:100FC000802F0E94D10469816E0D67FD6095669542
:100FD000669580910A01680F7A81769571588F2DF8
:100FE0000E94190C472F282FC8010E94F70C0F5F91
:100FF0001F4F0630110509F70F900F90DF91CF9129
:101000001F910F91FF90EF900895EF92FF920F9331
:101010001F93CF93DF9300D01F92CDB7DEB705E2C9
:1010200011E0F12CF80131976081F8017081809115
:1010300007010E94190CE62E282FAE014F5F5F4F6B
:101040006F2D80E02B837A830E94E00489812B81BD
:101050007A81472F6E2D90E00E94F70CF3940E5F7B
:101060001F4FF6E0FF12DECF0F900F900F90DF9131
:10107000CF911F910F91FF90EF9008951F920F92C3
:101080000FB60F9211240F931F932F933F934F93FB
:101090005F936F937F938F939F93AF93BF93EF93E0
:1010A000FF9380915201843120F48F5F809352012D
:1010B00099C08091580190915901A0915A01B09125
:1010C0005B010196A11DB11D8093580190935901B8
:1010D000A0935A01B0935B01809154019091550106
:1010E000A0915601B09157018F3F2FEF9207A207B1
:1010F000B20759F00196A11DB11D80935401909340
:101100005501A0935601B0935701E2E0F2E08081CF
:101110008F3F11F08F5F8083319682E0E830F807CF
:10112000B1F7409108014F3F19F40E942D055AC0B4
:1011300080915D01882321F08091050185FD1EC00D
:1011400050910601511102C080E019C020EB34E03B
:10115000529FC001539F900D1124AA2797FDA0957F
:10116000BA2F0091540110915501209156013091F0
:10117000570180179107A207B30730F781E081116B
:1011800040E081E090910401491301C080E0409368
:10119000040150E04B30510518F5FA01E759FF4FB3
:1011A0000C945A2A0E9461051DC00E9405081AC0AD
:1011B0000E946F0517C00E94CF0514C00E943B0615
:1011C00011C00E9482060EC00E94E4060BC00E945D
:1011D000460708C00E94800705C00E94BE0702C0E3
:1011E0000E945C05FF91EF91BF91AF919F918F910C
:1011F0007F916F915F914F913F912F911F910F912F
:101200000F900FBE0F901F901895262F642F22234A
:1012100019F0FC0120830895AC0180E00C94E004F7
:10122000BF92CF92DF92EF92FF920F931F93CF93D3
:10123000DF931F92CDB7DEB7C82E8B017A0182E013
:101240008C0D823028F4FB01C082FA01108217C095
:10125000D12CBB24BA94B982AE014F5F5F4F6D2D84
:1012600080E00E94E00489818C1105C0F8011082A1
:10127000F701D08204C0D394F6E0DF12ECCF0F90D8
:10128000DF91CF911F910F91FF90EF90DF90CF9062
:10129000BF9008950F931F93CF93DF938C01FC01B0
:1012A000408150E0475051094131510508F095C047
:1012B0004C585F4FFA010C945A2A91E0F801818151
:1012C000811101C090E08091050190FB85F9809328
:1012D000050183C0FC018181809306017EC0FC0171
:1012E00081818093070179C0FC018181809308018D
:1012F00074C0FC018181809309016FC0FC01818170
:1013000080930A01828180930B0167C0FC01818177
:1013100080930C01828180930D015FC0FC0181816B
:1013200080930E01828180930F0157C0FC0142819E
:10133000618180E191E029C0FC01818180931101EC
:1013400082818093120149C0FC014281618183E165
:1013500091E01BC0FC018181809314018281809304
:1013600015013BC0FC014281618186E191E00DC025
:10137000FC018181809317018281809318012DC027
:10138000FC014281618189E191E0DF91CF911F9160
:101390000F910C940509DC011296CAE1D1E0CD0150
:1013A0000197FC01808190E0982F88272C91822B57
:1013B000899399931296F1E0C432DF0781F7F8011F
:1013C000A181A73050F4B0E0AA0FBB1FAC5DBE4FA7
:1013D00082818C93838111968C93DF91CF911F91A1
:1013E0000F910895EF92FF920F931F93CF93DF9386
:1013F0007C01BC016F5F7F4FFC01008110E0015058
:1014000011090731110508F0A7C00B571F4FF8014C
:101410000C945A2A80910501817004C080910501C5
:1014200086958170F701818397C08091050182FBC9
:10143000882780F9F7CF8091050183FB882780F901
:10144000F1CF8091050182958170ECCF80910501EB
:1014500085FB882780F9E6CF8091050186FB8827E8
:1014600080F9E0CF80910601DDCF80910701DACFCE
:1014700080910801D7CF80910901D4CF80910A01D2
:10148000F701818380910B0134C080910C01F70139
:10149000818380910D012DC080910E01F701818320
:1014A00080910F0126C0AC014E5F5F4F809110010B
:1014B00027C080911101F70181838091120119C029
:1014C000AC014E5F5F4F809113011AC080911401EF
:1014D000F7018183809115010CC0AC014E5F5F4F15
:1014E000809116010DC080911701F70181838091D1
:1014F0001801828331C0AC014E5F5F4F80911901AA
:10150000DF91CF911F910F91FF90EF900C941009F4
:10151000AAE1B1E0EC012296CD019E0121503109F2
:1015200011964C911197F90140831296FC0180812C
:1015300088832296F1E0A432BF0771F7F701A181F9
:10154000A73050F4B0E0AA0FBB1FAC5DBE4F8C912A
:10155000828311968C918383DF91CF911F910F919C
:10156000FF90EF9008954BE250E063E270E085E079
:1015700091E00C94BE2A4BE250E063E270E085E01B
:1015800091E00C94DC2A0E942E0D0E94D50C8FEF66
:1015900080930202809303028093040280930502E9
:1015A000809306028093070208958091080190E0DD
:1015B00001968B30910514F08AE090E08093080149
:1015C0000C94BB0A8091080190E0019797FF02C03C
:1015D00080E090E08B30910514F08AE090E08093F9
:1015E00008010C94BB0A8091090190E001968430B7
:1015F000910514F083E090E0809309010C94BB0AFC
:101600008091090190E0019797FF02C080E090E08F
:101610008430910514F083E090E0809309010C94EC
:10162000BB0A8091070190E008968F3F910519F061
:1016300014F08FEF90E0809307010C94BB0A809127
:10164000070190E0089797FF02C080E090E08F3F8D
:10165000910519F014F08FEF90E0809307010C943E
:10166000BB0A80910A0190E008968F3F910519F01E
:1016700014F08FEF90E080930A010C94BB0A8091E4
:101680000A0190E0089797FF02C080E090E08F3F4A
:10169000910519F014F08FEF90E080930A010C94FB
:1016A000BB0A80910B0190E008968F3F910519F0DD
:1016B00014F08FEF90E080930B010C94BB0A8091A3
:1016C0000B0190E0089797FF02C080E090E08F3F09
:1016D000910519F014F08FEF90E080930B010C94BA
:1016E000BB0A80910C0190E008968F3F910519F09C
:1016F00014F08FEF90E080930C010C94BB0A809162
:101700000C0190E0089797FF02C080E090E08F3FC7
:10171000910519F014F08FEF90E080930C010C9478
:10172000BB0A80910D0190E008968F3F910519F05A
:1017300014F08FEF90E080930D010C94BB0A809120
:101740000D0190E0089797FF02C080E090E08F3F86
:10175000910519F014F08FEF90E080930D010C9437
:10176000BB0A0F931F93CF93DF938C01EB018A8108
:10177000882321F0688189810E94F204F801FF55D5
:10178000EE30F10508F04EC0E456FF4FCA810C94CC
:101790005A2ACC2309F447C00E94110B3CC0CC2329
:1017A00009F441C00E941F0B36C0CC23E1F10E9416
:1017B000D50A31C0CC23B9F10E94E20A2CC0CC2357
:1017C00091F10E94F30A27C0CC2369F10E94000B1B
:1017D00022C0CC2341F10E94310B1DC0CC2319F152
:1017E0000E943F0B18C0CC23F1F00E94510B13C094
:1017F000CC23C9F00E945F0B16C0CC23A1F00E943D
:10180000710B09C0CC2379F00E947F0B04C0CC235C
:1018100051F00E94910BC0E006C0CC2321F00E9441
:101820009F0B01C0C1E08C2FDF91CF911F910F91D1
:101830000895AF92BF92DF92EF92FF920F931F93A2
:10184000CF93DF93D82EF82F711103C0682F782F14
:101850007FC0E62EF12CC72FD0E0082F10E0C70183
:101860006BE270E00E94322A45ED46039001479FEB
:10187000300D11242E0D3F1D46E0429FC001439FB5
:10188000900D11244FEF50E0DA01AC1BBD0BA09F6F
:101890009001A19F300DB09F300D1124F32E8C9F2D
:1018A000D0018D9FB00D9C9FB00D1124AB2FBB2795
:1018B0005A01AA1ABB0AA09ED001A19EB00DB09EEB
:1018C000B00D1124EB2F5A01A81AB90AAC9EC00121
:1018D000AD9E900DBC9E900D1124892F9927481B19
:1018E000590B409FE001419FD00D509FD00D112416
:1018F00062307105A9F03CF46115710571F0613039
:101900007105C1F014C06330710569F06430710570
:1019100071F4D32EFF2EED2F0DC0ED2DDD2E0AC05C
:10192000E32FFD2E07C0E32FFD2CDB2E03C0EF2F8E
:10193000D32EFB2EF0E0E05CFC4F6491ED2DF0E047
:10194000E05CFC4F7491EF2DF0E0E05CFC4F849183
:10195000DF91CF911F910F91FF90EF90DF90BF909B
:10196000AF90089580931A0260931B0224E630E042
:1019700042E050E06AE172E088EA0C94DD0D21E07B
:1019800020931A02EBE1F2E0DC012D91CD012193CD
:10199000B2E0ED32FB07C1F724E630E043E150E06E
:1019A0006AE172E088EA0C94DD0DCF9360E087E194
:1019B0000E94B20C61E080E00E94B20CC0E0CF5FF8
:1019C00060E08C2F0E94B20CC231C9F76FE383E153
:1019D0000E94B20C6FE384E10E94B20C6FE385E1D8
:1019E0000E94B20C61E086E1CF910C94B20CFC0134
:1019F000EE0FFF1FE80FF91FE85FFD4F6083418383
:101A0000228381E080935E010895FF920F931F93DC
:101A1000CF93DF93182F062FF42EC0E0D0E02F2DA8
:101A2000402F612FCE010E94F70C2196C630D105C0
:101A3000B1F7DF91CF911F910F91FF9008958091A1
:101A40005E01882341F088E092E00E94BF0C61E0D3
:101A500086E10E94B20C10925E0108951092B900C6
:101A60008CE08093B8000895FF920F931F93CF935B
:101A7000DF93F82EEB011092BC0084EA8093BC0047
:101A80000E94F1218C018091BC0087FD0EC0CF3FE8
:101A90008FEFD807C1F30E94F121801B910B8C17A7
:101AA0009D0788F38EEF9FEF2EC09091B900987F2D
:101AB000983041F09091B900987F903119F08FEFF4
:101AC0009FEF21C0F092BB0084E88093BC000E948D
:101AD000F1218C018091BC0087FD0CC0CF3F8FEFBE
:101AE000D807C1F30E94F121801B910B8C179D0731
:101AF00088F3D8CF8091B900887F883111F0803485
:101B0000F1F680E090E0DF91CF911F910F91FF906F
:101B100008950F931F93CF93DF93EB018093BB0046
:101B200084E88093BC000E94F1218C018091BC006C
:101B300087FD0EC0CF3F8FEFD807C1F30E94F12180
:101B4000801B910B8C179D0788F38EEF9FEF0CC0C5
:101B50002091B900287F81E090E0283211F480E0E4
:101B600090E0919581959109DF91CF911F910F910F
:101B700008950F931F93CF93DF93EC0184E9809333
:101B8000BC000E94F1218C018091BC0084FF0EC03A
:101B9000CF3F8FEFD807C1F30E94F121801B910B3B
:101BA0008C179D0788F38EEF9FEF02C080E090E0D6
:101BB000DF91CF911F910F910895CF92DF92EF9215
:101BC000FF920F931F93CF93DF936B017A018901EB
:101BD000B9010E94340D0097C1F4E601EC0CFD1C24
:101BE000CE15DF0539F0B80189910E94890D009763
:101BF000B9F30BC0C801DF91CF911F910F91FF90F6
:101C0000EF90DF90CF900C94B90DDF91CF911F91A1
:101C10000F91FF90EF90DF90CF90089581E00895AD
:101C200081E00895CF93282F30E0F901E05CFD4F6B
:101C3000C491F901E054FD4F2491222359F081EE23
:101C40000E9425168C2F0E9425168C2F0E943D176E
:101C500081EE04C08C2F0E9425168C2FCF910C94FE
:101C60003D17FF920F931F93CF93DF93EC01F62E56
:101C70008881882331F18E010F5F1F4F813031F44D
:101C8000C9818C2F0E9425168C2F0AC0823029F41E
:101C900089810E942516E80108C0833021F48981DA
:101CA0000E943D17F8CF0E94120E21968F2D882397
:101CB000F9F2EFE9FFE03197F1F700C00000815041
:101CC000F6CFDF91CF911F910F91FF90089560E0C3
:101CD0000C94310E4F925F926F927F928F929F92EF
:101CE000AF92BF92CF92DF92EF92FF920F931F932A
:101CF0002B013C01C12CD12C7601C394D701C60124
:101D000004C0880F991FAA1FBB1F4A95D2F7AC01C8
:101D1000BD014601570104C0880C991CAA1CBB1CBC
:101D20002A95D2F7482959296A297B29D701C60162
:101D300004C0880F991FAA1FBB1F0A95D2F76A011A
:101D40007B01C420D520E620F720C416D506E60680
:101D5000F70639F4BC01CD01642975298629972934
:101D60000AC0BC01CD016095709580959095642165
:101D70007521862197211F910F91FF90EF90DF90A1
:101D8000CF90BF90AF909F908F907F906F905F901B
:101D90004F9008950F93382F262F6091B1017091C5
:101DA000B2018091B3019091B401042F432F0E949E
:101DB0006A0E0F910C948B1E0E94C820811102C0E4
:101DC0000E9436210C9424040C942A040C94BA0426
:101DD00008950E94361A0E94E80E2FEF84E39CE0DB
:101DE000215080409040E1F700C000000C94582240
:101DF000FF920F931F93CF93DF938C01FC01C0815F
:101E0000D18180917301811113C08281882349F0AF
:101E1000CE010E94931FF82E682FCE010E94371F1B
:101E200004C0CE010E94661FF82EBE018F2D04C093
:101E3000CE010E94931FBE010E945714EC01B8010D
:101E40000E942E04882309F46DC1C63DFCE5DF071E
:101E500009F4D1C0B0F4C531ECE5DE0768F4C23056
:101E6000FCE5DF0708F04FC0C1158CE5D80701F18C
:101E7000C130DC4529F149C1C631DC4509F420C136
:101E800044C1CB3D8CE5D80771F150F4C73DFCE56A
:101E9000DF0709F4D3C0C83DDC4509F4F6C035C1FD
:101EA000CC3DECE5DE0731F1CD3DDC45A1F02DC1A7
:101EB000F8018281882309F435C10E94E90E32C1FC
:101EC000F8018281882309F42DC18091DE018160AF
:101ED0008093DE0127C1F8018281882309F422C1A1
:101EE0000E9436211FC1F8018281882309F41AC19A
:101EF00080E006C0F8018281882309F413C182E0E2
:101F00000E942D250FC1F8018281882309F402C1A6
:101F10000E94C820811102C00E9436210E94DB204D
:101F200090E09093330280933202FE01E350FC452F
:101F3000E231F10520F4E655FF4F0C945A2A8091C6
:101F40003202816003C0809132028260809332024B
:101F50004BC0809132028460F9CF8091320213C06D
:101F6000809132028061F2CF809132028062EECFA6
:101F7000809132028064EACF809132028068E6CF9D
:101F80008091320284608860E1CF809132028E7F3E
:101F9000DDCF809132028D7FD9CF809132028B7F4D
:101FA000D5CF8091320213C0809132028F7ECECF86
:101FB000809132028F7DCACF809132028F7BC6CF53
:101FC000809132028F77C2CF809132028B7F877FE0
:101FD000BDCF9091320297FB882780F921E08227BC
:101FE00080FB97F990933202809132020E94DF20A9
:101FF0000E94361A97C0F8018281882351F010920E
:1020000064010E94F121909361018093600182E05C
:1020100022C08091640181110FC080916001909174
:1020200061010E940922883C910530F486E20E94F9
:10203000251686E20E943D1782E024C0F8018281C5
:10204000882361F0109265010E94F1219093630151
:102050008093620180E20E949E1764C080916501B6
:1020600081110FC080916201909163010E94092249
:10207000883C910530F487E20E94251687E20E9491
:102080003D1780E20E94A5174DC0F80182818111A1
:10209000D9CF809165018111F4CF80916201909137
:1020A00063010E940922883C910558F780E20E9452
:1020B000A51788E20E94251688E20E943D1732C0CB
:1020C0000E941220382FF8012281809130019091D6
:1020D0003101222371F03A7A21E009F420E02093C3
:1020E0005F01222311F065E301C069E20E94A5218E
:1020F00009C020915F01222311F065E301C069E26C
:102100000E94B0210E945E200DC081E08093640196
:1021100080936501C801DF91CF911F910F91FF90CE
:102120000C940E0E80E0DF91CF911F910F91FF90E4
:10213000089580E090E00895CF93DF930E945714B4
:102140000E945912EC01811520E5920708F041C068
:10215000C11580E4D80708F028C1C83ED10510F5A4
:10216000C03ED10508F0A1C1C83AD10578F4C53AFE
:10217000D10508F0A2C0C130D10509F496C108F418
:1021800047C1C430D10508F090C142C1CF3BD10551
:1021900008F49EC0C03CD10508F43AC1CE01805C71
:1021A0009109F5C0C11590E2D90758F4C11521E095
:1021B000D20708F07AC1C03FD10508F429C1D06523
:1021C00074C1C11580E3D80708F0E5C0CE019F7047
:1021D000DEC0C11595E5D90708F043C0C11524E557
:1021E000D20708F0F9C0C11582E5D80708F5C11576
:1021F00091E5D90708F0DCC02C2F237081E090E036
:1022000002C0880F991F2A95E2F79C689E01F4E0AE
:1022100036952795FA95E1F72370922BCF70C695E6
:10222000C69520E2C29FE0011124C82BD92B3DC1E5
:102230008C2F869586959E0123703327C115D34533
:1022400008F0BBC090E2899FE001112481E090E09A
:1022500002C0880F991F2A95E2F7C82BD92BDC689A
:1022600024C1C11529E5D207A0F4C11588E5D80716
:1022700008F0B7C0C11596E5D90708F0C9C08C2F82
:102280000E94D5128F71C82FD0E0DC2FCC27D062EE
:102290000CC1C1152AE5D20708F4A8C0CE0190569A
:1022A0008115904208F0B4C08D2F8F710E94D51215
:1022B000DD27D0628F71D82BF8C0C53AD10509F45B
:1022C000AAC0C63AD10509F4A9C0C3E8D0E4EDC05C
:1022D000C83AD10509F4A5C0C93AD10509F4A4C08A
:1022E000CA3AD10509F4A3C0CB3AD10509F4A2C07A
:1022F000CC3AD10509F4A1C0CB3BD10509F4A0C06B
:10230000CC3BD10509F49FC0CD3AD10509F49EC05C
:10231000C03BD10509F49DC0CE3AD10509F49CC05B
:10232000CF3AD10509F49BC0C13BD10509F49AC04D
:10233000C23BD10509F499C0C33BD10509F498C04B
:10234000C43BD10509F497C0C53BD10509F496C03B
:10235000C63BD10509F495C0C73BD10509F494C02B
:10236000C83BD10509F493C0C93BD10509F492C01B
:10237000CD3BD10509F491C0CE3BD10509F490C005
:10238000CA3BD10509F08FC0CAE2D6E48EC00E94D4
:102390007004EC018AC0CE019927D3FF03C0EC0181
:1023A000D86C83C0EC01D06C80C0DF70D06A7DC077
:1023B000DC2FCC27C16FD06A78C090E2899FE00102
:1023C000112481E090E002C0880F991F2A95E2F75E
:1023D000C82BD92BDA6869C0DC2FCC27C46FD06A30
:1023E00064C0DC2FCC27C06FD06A5FC08C2F8F7089
:1023F0000E94D51234E0D695C7953A95E1F7CF7093
:10240000D0E0DC2FCC27D06A8F70806EC82B4DC0F7
:10241000C0E0D0E04AC0C1E8D0E447C0C2E8D0E4A0
:1024200044C0C2EED4E441C0C9EED4E43EC0CAEE1A
:10243000D4E43BC0C5EBD4E438C0C6EBD4E435C02B
:10244000C3EBD4E432C0C4EBD4E42FC0C7EBD4E474
:102450002CC0CCECD4E429C0CDECD4E426C0C3E835
:10246000D5E423C0CAE8D5E420C0C2E9D5E41DC044
:10247000C4E9D5E41AC0C1E2D6E417C0C3E2D6E489
:1024800014C0C4E2D6E411C0C5E2D6E40EC0C6E270
:10249000D6E40BC0C7E2D6E408C0CFE6D4E405C05A
:1024A000C0E7D4E402C0C0E0D4E4CE01DF91CF9114
:1024B00008958238910549F1B0F48133910509F40A
:1024C00059C048F48932910509F44FC08A32910508
:1024D00009F455C008958533910509F441C0893345
:1024E000910599F00895833E910531F138F4803ECD
:1024F000910591F0823E9105A9F00895863E9105DF
:1025000001F1873E910539F108952091320220FDB5
:102510003BC021FD39C008958091320280FF34C054
:1025200089E341C08091320282FF32C08091320241
:1025300084FF2CC080E037C08091320282FD28C029
:10254000F5CF8091320283FF25C08091320284FD55
:10255000F1CF87EE28C08091320283FD1BC0F5CFFA
:102560008091320285FF18C019C08091320285FF28
:1025700015C012C08091320286FF12C013C0809134
:10258000320286FF0FC00CC080EE0DC083EE0BC080
:1025900082EE09C086EE07C085E305C089E203C06C
:1025A00081E301C08AE290E008959091320292FFA7
:1025B0000DC0282F2871283019F4877F846006C049
:1025C000282F2471243011F48B7F886093FF0DC075
:1025D000282F2871283119F4877E846106C0282F9E
:1025E0002471243111F48B7E886194FD877E0895D7
:1025F000089508956E98ADE3B1E021E030E08D914B
:10260000E82FE295EF70F0E041A18F70B90102C0B0
:10261000660F771F8A95E2F7CB01962F9095492395
:1026200041A392A1982B92A371E0A334B70739F785
:10263000109267011092660181E00E946A130C9467
:10264000DC0E50916701109267016E9A769880EACD
:102650008A95F1F7EDE3F1E080E090E071E04191DF
:10266000A42FA295AF70B0E090962C916091670175
:1026700030E04F7002C0359527954A95E2F720FD6E
:1026800007C0272F082E01C0220F0A94EAF701C0C5
:1026900020E0262B20936701019686309105F9F6FC
:1026A0006E98769A21E080916701581301C020E06E
:1026B00041E066E671E087E691E00E946B130E94BC
:1026C000E40E81E00895E82FF0E0EA59FE4F8081A2
:1026D000089508950895FF920F931F93CF93DF936A
:1026E000EC01F62E072F142F222349F081E080936E
:1026F0006A010E94F12190936901809368018091A1
:102700006A018823A9F080916801909169010E9473
:102710000922069768F09C2FAF2DB02FFE018E2F57
:10272000891B811718F481918D93F9CF10926A015A
:10273000DF91CF911F910F91FF90089584E008954C
:1027400050E0440F551F9CE0699F400D511D11241E
:102750009CE0899F400D511D1124CA01825B9F4F4F
:1027600008950F931F93CF93DF930E94A013EC0162
:102770000E94CE2A082F10E0102F0027CE010196CC
:102780000E94CE2A9801282BC901DF91CF911F9179
:102790000F9108950F931F93CF93DF9300D0CDB780
:1027A000DEB72A8339830E94A0138C013981632FFD
:1027B0000E94EC2A2A81622FC80101960F900F9087
:1027C000DF91CF911F910F910C94EC2AFF920F9300
:1027D0001F93CF93DF93F12C00E010E0C0E0D0E036
:1027E000FE01E00FF11FEE0FFF1FE05FFD4F25918F
:1027F00034914C2F60E08F2D0E94CA132196C63071
:10280000D10571F70A5F1F4FF39484E0F812E6CF09
:10281000DF91CF911F910F91FF900895EF92FF925A
:102820000F931F93CF93DF937B01EA01E40EF51E14
:102830008C01C801825B9F4FCE15DF0561F000332C
:10284000110520F40E94CE2A888301C018822196A7
:102850000F5F1F4FEECFDF91CF911F910F91FF9030
:10286000EF900895EF92FF920F931F93CF93DF9312
:102870008B017A01080F191FEC01E81AF90ACE0141
:10288000825B9F4FC017D10759F0C033D10530F498
:10289000F701EC0FFD1F60810E94EC2A2196EFCF1B
:1028A000DF91CF911F910F91FF90EF900895462FE8
:1028B000843038F4711105C0663018F460E00C946F
:1028C000B11380E090E0089580E1089582E893E0FC
:1028D0000895EF92FF920F931F93CF93DF937B01A5
:1028E000EA01E40EF51E8C01C80182589F4FCE15F7
:1028F000DF0569F0023823E0120720F40E94CE2A97
:10290000888301C0188221960F5F1F4FEDCFDF91A2
:10291000CF911F910F91FF90EF900895EF92FF924A
:102920000F931F93CF93DF938B017A01080F191F29
:10293000EC01E81AF90ACE0182589F4FC017D1075F
:1029400061F0C23823E0D20730F4F701EC0FFD1F2D
:1029500060810E94EC2A2196EECFDF91CF911F91EA
:102960000F91FF90EF900895CF93DF93CEE7D0E0E3
:1029700060E0CE010E94EC2A2196C11584E0D807C0
:10298000B9F7DF91CF910895FF920F931F93CF93E3
:10299000DF9300D0CDB7DEB7F82E8FE08F1530F182
:1029A0008FEF93E00E94CE2A811120C00EE710E045
:1029B000FF2069F0011584E01807C1F0C8010E94EA
:1029C000CE2A811101C0FA940F5F1F4FF1CF1982F7
:1029D0001A82C8010E94CE2A8983882339F0CE0149
:1029E00001960E94670E0F5F1F4FF3CF0F900F905D
:1029F000DF91CF911F910F91FF90089590937001F7
:102A000080936F010895E0916F01F091700130970C
:102A100021F00190F081E02D099480E00895E0918B
:102A20006F01F0917001309799F020913C012223C1
:102A300059F02091320227FF07C0DC012C9111963A
:102A40002C93119725E02C930280F381E02D0994BB
:102A5000089520916D0130916E018217930771F0F6
:102A600090936E0180936D01E0916F01F091700180
:102A7000309721F00680F781E02D09940895209188
:102A80006B0130916C018217930771F090936C0188
:102A900080936B01E0916F01F0917001309721F00C
:102AA0000084F185E02D0994089585B7806885BF7D
:102AB00085B7806885BF089508950E9455150C94C8
:102AC0005C1581E008950E94E8210E94FA120C949E
:102AD0007D220F931F93CF93DF93CDB7DEB72B9754
:102AE0000FB6F894DEBF0FBECDBF0E9421130E9427
:102AF0006115882309F444C080E00E94631310919B
:102B000072011827E9F19091DE0191FF04C08B87D3
:102B10000E9469138B8520E030E0412F50E0BA011C
:102B2000022E02C0759567950A94E2F760FF23C0F4
:102B30002E831F8201E010E002C0000F111F2A95B2
:102B4000E2F790E08023912321E0892B09F420E033
:102B500028870E94F1218160782F9A8789874E818A
:102B60005F8168858A850E94F115809172018027B6
:102B70008093720115C02F5F3F4F2630310579F6E3
:102B80008FEF89838A831B820E94F1218160782FD5
:102B90009D838C8349815A816B818D810E94F115BF
:102BA000109171010E940315181781F00E940315FE
:102BB000809371012B960FB6F894DEBF0FBECDBF88
:102BC000DF91CF911F910F910C94E60E2B960FB6CB
:102BD000F894DEBF0FBECDBFDF91CF911F910F9153
:102BE0000895CF93DF93CDB7DEB72B970FB6F89448
:102BF000DEBF0FBECDBF4F83588769877A878B872B
:102C0000DE01119686E0FD0111928A95E9F785E0D3
:102C1000FE01379601900D928A95E1F749815A811C
:102C20006B817C818D819E810E94131D2B960FB636
:102C3000F894DEBF0FBECDBFDF91CF910895FC01A8
:102C4000808191810E94D31F0895882309F414C1C3
:102C50008238C1F40E94031581FD0EC169E38091A1
:102C60003001909131010E94A5210E945E202FEF3A
:102C700081EE94E0215080409040E1F700C00000D8
:102C800069E319C08338F9F40E94031580FDF4C08C
:102C900063E580913001909131010E94A5210E944D
:102CA0005E202FEF81EE94E0215080409040E1F7CC
:102CB00000C0000063E580913001909131010E94D5
:102CC000B0210C945E208438C1F40E94031582FD6B
:102CD000D3C067E480913001909131010E94A52119
:102CE0000E945E202FEF81EE94E0215080409040C2
:102CF000E1F700C0000067E4DECF9CEF980F913A47
:102D000040F4682F80913001909131010E94A521FB
:102D1000D8CF90E2980F983050F4877091E001C0BE
:102D2000990F8A95EAF7892F0E941520CACF9BE553
:102D3000980F933070F4853A29F0863A31F482E89E
:102D400090E005C081E890E002C083E890E00C9438
:102D5000291598E5980F973108F08EC0883A09F444
:102D600045C0893A09F445C08A3A09F445C08B3A0E
:102D700009F445C08C3A09F445C08B3B09F445C0C1
:102D80008C3B09F445C08D3A09F445C0803B09F4F9
:102D900045C08E3A09F445C08F3A09F445C0813BDD
:102DA00009F445C0823B09F445C0833B09F445C0A2
:102DB000843B09F445C0853B09F445C0863B09F4D2
:102DC00045C0873B09F445C0883B09F445C0893BB1
:102DD00009F445C08D3B09F445C08E3B09F445C05C
:102DE0008A3B09F045C08AE292E044C082EE90E05E
:102DF00041C089EE90E03EC08AEE90E03BC085EB9A
:102E000090E038C086EB90E035C083EB90E032C0B4
:102E100084EB90E02FC087EB90E02CC08CEC90E02E
:102E200029C08DEC90E026C083E891E023C08AE8B9
:102E300091E020C082E991E01DC084E991E01AC0D0
:102E400081E292E017C083E292E014C084E292E053
:102E500011C085E292E00EC086E292E00BC087E2EC
:102E600092E008C08FE690E005C080E790E002C0E5
:102E700080E090E00C943F150895882309F45DC02C
:102E8000823879F40E94031581FF57C069E380916D
:102E90003001909131010E94A5210E945E2069E3DA
:102EA00010C08338B1F40E94031580FF46C063E56B
:102EB00080913001909131010E94A5210E945E20F5
:102EC00063E580913001909131010E94B0210C9412
:102ED0005E20843879F40E94031582FF2EC067E4D7
:102EE00080913001909131010E94A5210E945E20C5
:102EF00067E4E7CF9CEF980F913A10F4682FE1CF89
:102F000090E2980F983050F4877091E001C0990FCB
:102F10008A95EAF7892F0E941B20D9CF9BE5980F4D
:102F2000933020F480E090E00C942915885A873182
:102F300020F480E090E00C943F150895882321F060
:102F40000E9415200C945E200895882321F00E9491
:102F50001B200C945E2008958F929F92BF92CF9277
:102F6000DF92EF92FF920F931F93CF93DF9300D0E6
:102F7000CDB7DEB74C01472FFC01C580C2949FE05E
:102F8000C922D280DD2031F079836A830E94322009
:102F90006A81498149836A830E940B2049816A8141
:102FA000882389F0DD2079F080E2860F883058F0A0
:102FB00082E00E94A9200E940B20BB24B394B82673
:102FC00049816A8101C0B12CE42EE2948FE0E822AD
:102FD000F12CF701E454FF4F0C945A2A842F807F80
:102FE000142F1F70882311F01295107FDD20C1F07F
:102FF000112309F49AC180E2860F883010F0611124
:1030000005C0812F6A830E94152004C0812F6A8326
:103010000E9425206A816A830E945E206A8185C1A0
:10302000862F6A830E943D176A81112309F49EC18D
:1030300080E2860F883010F0611104C0812F0E9459
:103040001B2003C0812F0E942B200E945E208EC176
:10305000842F807F142F1F70803211F01295107F03
:10306000662319F06130D9F026C0DD2079F0CC203C
:1030700049F0F1E0CF1206C00E944520812B0E944A
:103080004B2074C10E944520812B04C1CC2021F02B
:1030900021E0C21609F46AC10E94542000C1DD205B
:1030A00029F085E08C1508F461C1F3C094E09C150B
:1030B00008F45CC1F4C0DD2051F0CC2009F4E9C073
:1030C000F401858180FF31C18F708583E2C0CC20FF
:1030D00009F4E5C03BC1242F26952695237030E0E6
:1030E0002115310521F02130310561F03FC1DD208E
:1030F00021F0862F942F937002C080E090E00E9410
:10310000291544C1DD2021F0862F942F937002C031
:1031100080E090E00E943F1539C1842F837009F050
:103120004EC0D1102FC1262F229526952770220F31
:10313000220F862F8F70C82ED12CE12CF12C022E5D
:1031400004C0CC0CDD1CEE1CFF1C0A94D2F764FFFB
:1031500010C06FE070E080E090E004C0660F771F61
:10316000881F991F2A95D2F7609570958095909544
:1031700003C060E070E0CB01242F269526952370D4
:1031800030E02230310569F02330310589F06C29B7
:103190007D298E299F292130310571F00E94641EFE
:1031A000F1C06C297D298E299F290E94761EEAC0D4
:1031B0000E94641EC701B6010E94521EE3C0DD20BA
:1031C00019F0842F817001C08695882309F4DAC034
:1031D000262F229526952770220F220F862F8F707B
:1031E000C82ED12CE12CF12C022E04C0CC0CDD1CFD
:1031F000EE1CFF1C0A94D2F764FF10C06FE070E071
:1032000080E090E004C0660F771F881F991F2A9501
:10321000D2F7609570958095909503C060E070E05E
:10322000CB01242F26952695237030E022303105DE
:1032300069F02330310589F06C297D298E299F2979
:103240002130310571F00E94121F9CC06C297D292C
:103250008E299F290E94241F95C00E94121FC7011A
:10326000B6010E94001F8EC0062F10E0F801E05E3C
:10327000F109E531F10508F054C0E453FF4F0C9417
:103280005A2A162F1F70842F8F71DD2031F00E9473
:10329000AB1E812F0E949E1769C00E94C61E812FFF
:1032A0000E94A51763C0DD2049F0F4E0FC1508F486
:1032B0005DC0842F8F710E94E51E58C025E02C153B
:1032C00008F454C0F6CFDD2039F0842F8F710E94AE
:1032D000AB1E4CC0DD20C9F3842F8F710E94C61E27
:1032E00045C0DD2029F0842F8F710E949C1E3EC0B6
:1032F0000E94971E3BC0DD2051F0142F1F71812FBB
:103300000E94AB1E63E0812F0E9494202FC081E0B9
:103310000E94A92081E08C1548F582E00E94A92036
:1033200025C0DD2031F0CC2081F2862F0E942516A9
:103330001DC0CC2089F2693349F49FEFE7EEF3E03A
:103340009150E040F040E1F700C00000862F0E945D
:103350003D170CC04F70C4010E9499100E94C01DFF
:1033600015C04F70C4010E94890410C028E0E21605
:10337000F10441F05CF09AE0E91AF108E2E0EE169F
:10338000F10420F40E9403150E94E60EBB20F1F028
:103390000E94072080FD1AC0F40112820E940120C1
:1033A0000E94AB1EC4010E94F4190E9401200F90DC
:1033B0000F90DF91CF911F910F91FF90EF90DF90D1
:1033C000CF90BF909F908F900C94C61E0F900F903F
:1033D000DF91CF911F910F91FF90EF90DF90CF90F1
:1033E000BF909F908F9008950F931F93CF93DF937B
:1033F000EC01288139818B819C81892B31F03F3F01
:1034000011F080E003C02F3FE1F781E0811113C08C
:10341000CE010E94F80E882371F0688179818A813B
:103420000E94DE1F8C010E94361F0E944F1EB801B1
:10343000CE010E94AC17DF91CF911F910F9108959B
:103440000E9432200E9442200E945E2080E090E094
:103450000E94291580E090E00C943F158091300186
:10346000909131010E94BB210C94201A0E942220CD
:103470000C942E1AE92FE295EF70F0E03297EE30BF
:10348000F105B8F4EF51FF4F0C945A2A803F59F0E0
:1034900018F4803E70F407C0843F59F404C0803EA5
:1034A00010F0813F31F481E0089593FB882780F983
:1034B000089580E008950E94D31F0E943A1A08954B
:1034C000CF93DF9300D000D01F92CDB7DEB70F901F
:1034D0000F900F900F900F90DF91CF910895CF93A1
:1034E000DF9300D000D000D0CDB7DEB726960FB660
:1034F000F894DEBF0FBECDBFDF91CF9108951F932B
:10350000CF93DF93C091740116E080917501C817C5
:1035100099F0D0E01C9FF0011D9FF00D1124EA5896
:10352000FE4F4081518162817381848195810E9427
:103530006F1A2196C770E9CFDF91CF911F9108953F
:103540004091A6015091A7016091A8017091A90135
:103550008091AA019091AB010C946F1ACF93809146
:10356000AB0182958F7009F05FC08091A80188231C
:1035700009F45AC020917401A09175016091A601CF
:103580007091A7018091A9019091AA0131E06F3F4C
:1035900009F030E0B32FC6E02A1709F445C00097C0
:1035A00021F07F3F21F44B2F03C041E001C040E0F8
:1035B00030E040FD35C0C29FF001C39FF00D1124E3
:1035C000EA58FE4F418174132BC04081641328C018
:1035D0004281411125C0438154814817590710F495
:1035E00041505109481B590B483C5105C8F4809182
:1035F000AB018F7080618093AB0186E0829FF00108
:10360000839FF00D1124E558FE4F80818F708061FB
:10361000808386EA91E00E94F419CF910C947F1A7E
:103620002F5F3F4F2770B8CFCF910895CF92DF9291
:10363000EF92FF920F931F93CF93DF93CDB7DEB737
:1036400062970FB6F894DEBF0FBECDBF8C0185E048
:10365000F801DE011D9601900D928A95E1F7D801DF
:103660004C9111965C91119712966C91129713964A
:10367000ED90FC9014977091A601E091A701209124
:10368000A9013091AA012115310531F0EF3F31F444
:1036900081E07F3F19F403C081E001C080E0B82FD2
:1036A000B170CB2E80FD6BC1D090A801DD2009F454
:1036B000F5C0F091AB01E216F30638F0C701821BAA
:1036C000930B883C910548F09DC0209530952E0DB8
:1036D0003F1D283C310508F095C08F2F807F09F0F1
:1036E00052C0E51314C0741312C0D62E61110FC05E
:1036F000FF70F061F093AB010E94A01A86EA91E09E
:103700000E94F4198091AB01F80185837CC1EF28F8
:1037100031F05F3F31F481E04F3F19F403C081E0A5
:1037200001C080E080FD03C081E0862701C080E009
:10373000F82FF170FF2E80FF1CC080917401209142
:10374000750136E0821709F438C190E0389FF00126
:10375000399FF00D1124EA58FE4F7181571306C0AE
:103760007081471303C07281671303C0019687708D
:10377000E9CFD62E662309F446C18091AB01816062
:103780008093AB0155C0E51308C0741306C06111E6
:1037900004C0D8011596FC93AEC04D875E878D8519
:1037A0009E856A8B0E945B1A6A89882329F1D62E2E
:1037B000662311F12091AB01822F82958F7090E0EA
:1037C00002970CF462C08091A6019091A70198879E
:1037D0008F831986FB86EA862C87CE01079653C015
:1037E000E51741F14D875E878D859E856A8B0E9426
:1037F0005B1A6A89811130C0C8010E94F419DD2466
:10380000D39401C18F2F807F59F77E2DF98AE88AE2
:1038100089890E94601A86EA91E00E94F419E6EA1A
:10382000F1E086E0DF011D928A95E9F70E94A01A77
:10383000D12CE9C07413D6CF6111D4CFD80115961D
:10384000FC93C8010E94F419E6EAF1E086E0DF018A
:103850001D928A95E9F7D7C0D62E662369F220918A
:10386000AB01822F82958F7090E0029774F0809167
:10387000A6019091A7019A8389831B82FD82EC8225
:103880002E83CE0101960E94F41986E0F801A6EA83
:10389000B1E001900D928A95E1F78AC0E216F30635
:1038A00028F0C701821B930B9C0104C02095309522
:1038B0002E0D3F1D283C310508F053C0D62E66233F
:1038C00009F49ACFE5132CC074132AC08091AB0180
:1038D00080FD1DC0982F92959F70C9F0D801159654
:1038E0008C9315979F3039F09F5F9295907F8F70E2
:1038F000892B15968C93C8010E94F41986E0F80173
:10390000A6EAB1E001900D928A95E1F753C086E0F6
:10391000F801A6EAB1E001900D928A95E1F773C033
:103920004D875E878D859E850E945B1A882381F076
:1039300096E0F801A6EAB1E001900D929A95E1F7C0
:103940008A8B0E94AE1A0E94A01A8A89D82E5BC068
:103950008091AB0181608093AB01C8010E94F41992
:1039600052C07E2DF98AE88A89890E94601AE6EAA7
:10397000F1E086E0DF011D928A95E9F71BC066231E
:1039800009F43ACF4D875E878D859E850E945B1A2C
:10399000D82E882309F430CF86E0F801A6EAB1E0FA
:1039A00001900D928A95E1F786EA91E00E941F1638
:1039B0000E94AE1A0E94A01A26C04D875E878D8590
:1039C0009E850E94D31F292F22952F7030E0223030
:1039D00031052CF49F7041F0811106C00CC02430D9
:1039E00031052CF49F7049F4805E883020F0C801C6
:1039F0000E94F419CF2CDC2C06C0D80115969C919E
:103A0000907F91F7F8CF8D2D62960FB6F894DEBFB8
:103A10000FBECDBFDF91CF911F910F91FF90EF901F
:103A2000DF90CF9008951F93CF93DF93CDB7DEB78C
:103A30002C970FB6F894DEBF0FBECDBF4F835887CB
:103A400069877A878B879C87CE0107960E94161B11
:103A50008823C1F02F8138858A859B85892B31F099
:103A60003F3F11F080E003C02F3FE1F781E081117B
:103A700047C04F81588569857A858B859C850E94D2
:103A80006F1A3EC086E0FE013796DE011196019066
:103A90000D928A95E1F7FF81E8854A855B8541159E
:103AA000510531F0EF3F31F481E0FF3F19F403C0DD
:103AB00081E001C080E080FD23C02091750130E0ED
:103AC000C9010196877099276091740170E086178B
:103AD0009707F1F1F983EA835D834C8396E0929F27
:103AE000D001939FB00D1124AA58BE4FFE0131960C
:103AF00001900D929A95E1F7809375010E947F1ACB
:103B000016E08091740190917501891779F1189FE1
:103B1000C00111248A589E4F0E94161B882331F140
:103B2000E09174011E9FF0011124EA58FE4F40817C
:103B3000518162817381848195810E946F1A809185
:103B4000740190E001968770992780937401D9CF12
:103B50000E94361A1092750110927401E6EAF1E0A3
:103B600086E0DF011D928A95E9F7CACF2C960FB641
:103B7000F894DEBF0FBECDBFDF91CF911F910895A6
:103B8000EF92FF920F931F93CF93DF93FC01009767
:103B900009F46FC0F12CEE24E394EF012196849197
:103BA000843740F4843008F055C0813081F0823091
:103BB00021F15FC0853709F447C0C0F19CE7980F39
:103BC000903708F056C08F770E943D1745C08F018F
:103BD0000E5F1F4FFE01849190E2980F983050F4D1
:103BE0008770FE2D01C0FF0F8A95EAF78F2F0E9484
:103BF000352015C00E94251614C08F010E5F1F4F7F
:103C0000FE01849190E2980F983068F48770FE2D41
:103C100001C0FF0F8A95EAF78F2F0E943B200E9478
:103C20005E20E80119C00E943D17FBCFCF0102962C
:103C3000FE01C491CC2361F0EFE9FFE03197F1F789
:103C400000C00000C150F6CFCF010296FE01F490F3
:103C5000EC0102C00E9425168F2D882341F0EFE968
:103C6000FFE03197F1F700C000008150F6CFFE0170
:103C700094CFDF91CF911F910F91FF90EF90089516
:103C800008950C94401E0E94411E6093B5017093EC
:103C9000B6018093B7019093B8010C94201A08954F
:103CA0000C94431E0F931F930091B5011091B60120
:103CB0002091B7013091B801602B712B822B932B8F
:103CC0001F910F910C94431E0F931F930091B50108
:103CD0001091B6012091B7013091B8016023712392
:103CE000822393231F910F910C94431E0F931F93D4
:103CF0000091B5011091B6012091B7013091B80142
:103D000060277127822793271F910F910C94431EE0
:103D100008950C94881E0E94891E6093B1017093CF
:103D2000B2018093B3019093B4010C94201A60E027
:103D300070E0CB010C948B1E41E050E060E070E03D
:103D400004C0440F551F661F771F8A95D2F7CB0119
:103D5000BA010C948B1E41E050E060E070E004C0BA
:103D6000440F551F661F771F8A95D2F78091B101C6
:103D70009091B201A091B301B091B401482B592B9D
:103D80006A2B7B2BCB01BA010C948B1E41E050E0D7
:103D900060E070E004C0440F551F661F771F8A95CE
:103DA000D2F740955095609570958091B1019091B2
:103DB000B201A091B301B091B401482359236A2301
:103DC0007B23CB01BA010C948B1E41E050E060E0F4
:103DD00070E004C0440F551F661F771F8A95D2F705
:103DE0008091B1019091B201A091B301B091B40161
:103DF000482759276A277B27CB01BA010C948B1ED1
:103E00000F931F930091B1011091B2012091B30162
:103E10003091B401602B712B822B932B1F910F914A
:103E20000C948B1E0F931F930091B1011091B2015E
:103E30002091B3013091B401602371238223932335
:103E40001F910F910C948B1E0F931F930091B10142
:103E50001091B2012091B3013091B4016027712714
:103E6000822793271F910F910C948B1E0895292F61
:103E7000220F290F220F280F422F4695469546956F
:103E80002770B1E001C0BB0F2A95EAF785E0489F93
:103E9000A001112444555E4F80E090E070E0FA01EB
:103EA000E80FF91FA0819B01082E02C036952795C7
:103EB0000A94E2F72170332721952A272B232A27FA
:103EC000208301968530910551F70895292F220FFF
:103ED000290F220F280F622F669566956695922FFF
:103EE000977085E0689FB001112464557E4F40E0D3
:103EF00050E080E0FB01E40FF51F208130E0092E47
:103F000002C0369527950A94E2F721703327042ED4
:103F100001C0220F0A94EAF7822B4F5F5F4F4530B2
:103F2000510541F70895CF92DF92EF92FF920F93E0
:103F30001F93CF93DF93EC01C090B501D090B601F1
:103F4000E090B701F090B8018091B1019091B20179
:103F5000A091B301B091B401C82AD92AEA2AFB2A58
:103F60000FE110E0B701A601002E04C07695679519
:103F7000579547950A94D2F740FD05C001501109A5
:103F800088F780E007C0BE01802F0E949C10019737
:103F9000A9F3802FDF91CF911F910F91FF90EF90A8
:103FA000DF90CF900895CF93DF93EC010E94931F91
:103FB000BE010E949C10DF91CF9108951F93CF9373
:103FC000DF93EB0190917301992321F0CB010E94C3
:103FD000D31F13C0882349F0CB010E94931F182FD1
:103FE000682FCE010E94371F04C0CB010E94661FBC
:103FF000182FBE01812F0E949C10DF91CF911F913D
:1040000008958091B901859585958595089580914C
:10401000B901877008959091B901977081E009F412
:1040200080E008958091DD0108959091DD01982B45
:104030009093DD01089580959091DD0198239093F0
:10404000DD0108951092DD0108959091DC01982B17
:104050009093DC01089580959091DC0198239093D2
:10406000DC0108951092DC0108959091DB01982BFA
:104070009093DB01089580959091DB0198239093B4
:10408000DB0108951092DB0108958091BA01089533
:1040900008950C9448209091BA01981721F08093CC
:1040A000BA010C94492008958091BA01882329F01F
:1040B0001092BA0180E00C9449200895E0913001FB
:1040C000F09131018091DD018083E0913001F09128
:1040D000310180819091DC01892B8083E091300156
:1040E000F091310180819091DB01892B8083909147
:1040F000BA01992381F0E0913001F0913101808182
:10410000892B808380913001909131010E94382168
:1041100081110E94542080913001909131010C94C2
:104120000F1508950C94912098E0899F9001112417
:10413000622B6093B9010E94AB1E8091B9018595F5
:10414000859585950C9492201092B90180E00C948D
:1041500092204091B901809584238093B901982FD2
:10416000977079F450E0282F332727FD30954217B8
:10417000530739F08595859585950E94C61E0C9448
:10418000A42008956FEF7FEF80E090E00C940A2B5D
:1041900080E090E00E94D62A21E08D3E9E4F09F0FB
:1041A00020E0822F089582E090E00C94CE2A83E0F4
:1041B00090E00C94CE2A84E090E00C94CE2A682FF4
:1041C00084E090E00C94EC2AAB01BC018FE090E01D
:1041D0000C94FE2AAB01BC0183E190E00C94FE2A12
:1041E00060E070E0CB010C94EA2060E070E0CB016D
:1041F0000E94E4200C94F0206DEE7EEF80E090E0D1
:104200000E940A2B60E082E090E00E94EC2A60E0CD
:1042100083E090E00E94EC2A1092B5011092B60162
:104220001092B7011092B80160E084E090E00E9423
:10423000EC2A60E085E090E00E94EC2A60E086E0F5
:1042400090E00E94EC2A6FEF87E090E00E94EC2A59
:1042500040E050E0BA0188E090E00E94FE2A60E071
:104260008DE090E00E94EC2A0C94F5200C94FC2048
:10427000029620913C01211102C026E005C0209148
:10428000320227FFFACF2EE1FC0180E0215028F016
:1042900091919923D9F38F5FF9CF089520E030E011
:1042A0004FEFFC01E20FF31F5281561799F04F3F79
:1042B00019F4511101C0422F2F5F3F4F26303105B5
:1042C00081F74F3F39F0FC01E40FF11D47FDFA95EE
:1042D00062830895089520E030E0FC01E20FF31FAF
:1042E0004281461301C012822F5F3F4F26303105B5
:1042F000A1F70895262F2695269526952E3170F440
:10430000FC01E20FF11D677021E030E0062E01C0D4
:10431000220F0A94EAF78281822B82830895262F46
:104320002695269526952E3178F4FC01E20FF11D95
:10433000677021E030E0062E01C0220F0A94EAF7F0
:104340002095828128232283089520913C012223F5
:1043500029F02091320227FD0C947A210C944E21F1
:1043600020913C01222329F02091320227FD0C9458
:104370008F210C946B2120913C01FC013296222369
:1043800031F08091320287FF02C08EE101C086E0E9
:10439000DF011D928A95E9F708950C94BC040895F5
:1043A00008950E94CF210E9421130E94D02180E015
:1043B0000E94631391E0811101C090E0892F08955C
:1043C0000E94361A0E9403150E94E60E0C94BF0448
:1043D00082E084BD93E095BD9AEF97BD80936E0017
:1043E00008952FB7F89480912E0290912F02A091FA
:1043F0003002B09131022FBF08952FB7F894609129
:104400002E0270912F0280913002909131022FBFC5
:104410000895CF92DF92EF92FF920F931F932FB7E1
:10442000F89440912E0250912F02609130027091C9
:1044300031022FBF6A017B01EE24FF248C0120E0B2
:1044400030E0C016D106E206F30610F441505109DF
:10445000481B590BCA011F910F91FF90EF90DF90FD
:10446000CF90089578941F920F920FB60F92112457
:104470008F939F93AF93BF9380912E0290912F02C1
:10448000A0913002B09131020196A11DB11D80931F
:104490002E0290932F02A0933002B0933102BF916D
:1044A000AF919F918F910F900FBE0F901F90189515
:1044B00081E08093E00080E28093D8001092C900F0
:1044C0008FE19EE40197F1F700C0000087E090EBD8
:1044D000DC018093410290934202A0934302B09387
:1044E00044022CE088E190E00FB6F894A895809300
:1044F00060000FBE20936000FFCF0E94C820811192
:1045000002C00E9436210E94D3208093DE010E94C7
:10451000DB2090E090933302809332020E94D720F8
:10452000682F70E080E090E00C94501E8091FF01B5
:10453000089508950F931F93CF93DF9300D01F9298
:10454000CDB7DEB78C010E943D25823011F084305A
:1045500019F584E089831B830A838093E9008FEF38
:104560009091E800815095FD06C095ED9A95F1F780
:1045700000008111F5CF8091E80085FF0DC040E07B
:1045800050E063E070E0CE0101960E945A258091D0
:10459000E8008E778093E8000F900F900F90DF91E6
:1045A000CF911F910F910895CF93DF9300D01F9269
:1045B000CDB7DEB720913802243029F533E03983B6
:1045C000805891099B838A832093E9008FEF909113
:1045D000E800815095FD06C095ED9A95F1F7000031
:1045E0008111F5CF8091E80085FF0DC040E050E0DB
:1045F00063E070E0CE0101960E945A258091E800A8
:104600008E778093E8000F900F900F90DF91CF91FD
:104610000895CF93DF93EC010E943D25823011F085
:104620008430D9F580913C01811103C068E081E0BC
:1046300006C08091320287FFF9CF60E284E0809368
:10464000E9008FEF9091E800815095FD06C095ED4F
:104650009A95F1F700008111F5CF8091E80085FF70
:104660001CC080913C01811105C040E050E068E031
:1046700070E003C070E040E050E0CE010E945A2597
:104680008091E8008E778093E80080E2FE01AFED34
:10469000B1E001900D928A95E1F7DF91CF910895F5
:1046A000CF93603229F520913802243009F520910A
:1046B000E9002F703091EC0030FF02C030E801C0FB
:1046C00030E0C32FC22B22E02093E9002091E800C4
:1046D00020FF0BC040E050E060E270E00E945A25ED
:1046E0008091E8008E778093E800CF70C093E90056
:1046F000CF91089580913702811109C00E9435271A
:104700000E9492278091E20084608093E2000895E5
:10471000109237020895089508950C94E02142E024
:1047200061EC81E00E94AF2642E261EC84E00E94ED
:10473000AF2642E261EC82E00E94AF2642E260ECEA
:1047400083E00C94AF2680913A02833009F462C072
:1047500030F4813071F0823009F49BC008958A30C2
:1047600009F487C08B3009F46DC0893009F0A9C005
:1047700020C080913902813A09F0A3C08091E800FD
:10478000877F8093E80080913D0290913E02892BC3
:1047900021F060E080E090E003C060E28FED91E006
:1047A00070E00E94EC258091E8008B778093E80010
:1047B000089580913902813209F083C080913D02D1
:1047C00090913E02009719F0029709F07AC080910B
:1047D000E800877F8093E8008091E80082FD05C0B3
:1047E000809138028111F8CF6CC02091F300809144
:1047F000F20090E0922B029729F48091F1008B7FD8
:10480000813021F48091F1008093FF018091E800D4
:104810008B7753C080913902813A09F052C0809160
:104820003D0290913E02892B09F04BC08091E80037
:10483000877F8093E8008091E80080FFFCCF809123
:104840003C0136C0809139028132D9F580913D0218
:1048500090913E02892BA9F58091E800877F809393
:10486000E8000E94E42680913B0280933C010C9476
:10487000361A80913902813221F58091E800877FD4
:104880008093E8000E94E42680913C02809300021D
:10489000089580913902813AA1F48091E800877FE0
:1048A0008093E8008091E80080FFFCCF80910002B7
:1048B0008093F1008091E8008E778093E8000C945B
:1048C000E42608951F93CF93DF93CDB7DEB7A0976B
:1048D0000FB6F894DEBF0FBECDBF84B7877F84BF0D
:1048E00088E10FB6F89480936000109260000FBECC
:1048F00080E880936100109261000E945D150E9423
:1049000035270E9492278091E20084608093E20024
:1049100078940E94152A0E94631582E391E00E9418
:10492000FE1413E080913802853069F40E94CD2195
:10493000809136028823B1F30E94D121882391F31C
:104940000E944425EFCF0E9469158091380284307F
:1049500049F71093E9008091E80082FFE3CF80914E
:10496000E80085FF0AC040E050E060E270E0CE0160
:1049700001960E94A32591E001C090E08091E8009B
:104980008B778093E800992369F260E2CE0101966B
:104990000E945203C7CF0C94CD24292F33272330F4
:1049A0003105A9F06CF42130310509F448C02230FA
:1049B000310509F049C08BE590E028E734E048C0B4
:1049C00021323105F9F02232310549F13DC09927F4
:1049D0008130910571F02CF4892BB1F5E4E7F4E016
:1049E0000DC08230910541F0039771F5E0E4F4E0E9
:1049F00005C0ECE5F4E002C0E6E4F4E0849190E068
:104A00009F0126C063307105F8F4FB01EE0FFF1F14
:104A1000E45BFE4F2081318189E090E019C0633072
:104A2000710590F4FB01EE0FFF1FEA5BFE4F208142
:104A30003181FB01ED5BFE4F808190E009C082E196
:104A400090E023ED34E004C080E090E020E030E02E
:104A5000FA013183208308950895CF93C82F0E94CF
:104A60002C25C0930102CF910895809138028430A3
:104A700011F482E0089581E008958091010281118E
:104A800002C00C943525089580E189BD82E189BD7D
:104A900009B400FEFDCF8091D8008F7D8093D800AF
:104AA0008091E00082608093E0008091E00081FDD1
:104AB000FCCF0895CF92DF92EF92FF920F931F9356
:104AC000CF93DF937C018B01EA010E9405278111BE
:104AD00031C0209731F088819981081B190BE80EAD
:104AE000F91EC12CD12C0115110519F18091E80096
:104AF00085FD14C08091E8008E778093E8002097B0
:104B000041F0888199818C0D9D1D9983888385E072
:104B100011C00E940527882331F30CC0F701819151
:104B20007F018093F10001501109FFEFCF1ADF0AD6
:104B3000DACF80E0DF91CF911F910F91FF90EF903E
:104B4000DF90CF900895CF92DF92EF92FF920F9374
:104B50001F93CF93DF937C018B01EA010E9405270D
:104B6000811131C0209731F088819981081B190B80
:104B7000E80EF91EC12CD12C0115110519F18091F7
:104B8000E80085FD14C08091E8008B778093E800F1
:104B9000209741F0888199818C0D9D1D9983888390
:104BA00085E011C00E940527882331F30CC0809155
:104BB000F100F70181937F0101501109FFEFCF1A36
:104BC000DF0ADACF80E0DF91CF911F910F91FF9044
:104BD000EF90DF90CF90089520913F0230914002F6
:104BE0002617370748F06115710539F42091E80060
:104BF0002E772093E80001C0B901FC0120E0611587
:104C00007105B9F180913802882309F440C08530DC
:104C100009F43FC08091E80083FD3DC08091E80029
:104C200082FF06C08091E80082FF26C080E00895E0
:104C30008091E80080FFE3CF2091F3008091F200A3
:104C400090E0922B6115710551F08830910538F490
:104C500021912093F100615071090196F3CF21E079
:104C6000089709F020E08091E8008E778093E800B3
:104C7000C6CF2111C7CFD6CF80913802882339F013
:104C8000853039F08091E80083FFCCCF04C082E00A
:104C9000089583E0089581E0089520913F023091C6
:104CA00040022617370748F06115710539F4209145
:104CB000E8002E772093E80001C0B901FC0120E054
:104CC00061157105C1F180913802882309F441C052
:104CD000853009F440C08091E80083FD3EC080919A
:104CE000E80082FF06C08091E80082FF27C080E0D4
:104CF00008958091E80080FFE3CF2091F300809138
:104D0000F20090E0922B6115710559F08830910501
:104D100040F424912093F10031966150710901967D
:104D2000F2CF21E0089709F020E08091E8008E772B
:104D30008093E800C5CF2111C6CFD5CF809138022E
:104D4000882339F0853039F08091E80083FFCBCF9C
:104D500004C082E0089583E0089581E00895982FCB
:104D6000973058F59093E900981739F07091EC005E
:104D70002091ED005091F00003C0242F762F50E0D9
:104D800021FF19C03091EB003E7F3093EB00309152
:104D9000ED003D7F3093ED003091EB0031603093BA
:104DA000EB007093EC002093ED005093F000209105
:104DB000EE0027FF07C09F5FD3CF8F708093E9007D
:104DC00081E0089580E008958091390287FD05C053
:104DD0008091E80080FF0EC012C08091E80082FD43
:104DE00005C0809138028111F8CF08958091E800C4
:104DF0008B7708C0809138028111EACF08958091A5
:104E0000E8008E778093E80008958091E400909107
:104E1000E50045E62091EC0020FF21C02091E8004C
:104E200020FD21C020913802222389F0253089F00D
:104E30002091EB0025FD0FC02091E4003091E500AA
:104E40002817390739F3415041F0C901E3CF82E017
:104E5000089583E0089581E0089584E00895209105
:104E6000E80022FFDFCF80E008950E94A3270E9480
:104E7000AB27E0EEF0E0808181608083E8EDF0E038
:104E800080818F77808319BCA7EDB0E08C918E7FF5
:104E90008C9380818F7E80831092370208950F93C8
:104EA0001F93CF93DF930E94A3270E94AB27C8EDE7
:104EB000D0E088818F778883888180688883888123
:104EC0008F7D888319BC10923802109234021092A0
:104ED00036021092350200EE10E0F80180818B7FDF
:104EE000808388818160888342E060E080E00E9466
:104EF000AF26E1EEF0E080818E7F8083E2EEF0E08D
:104F0000808181608083808188608083F8018081D6
:104F10008E7F8083888180618883DF91CF911F910C
:104F20000F910895E8EDF0E080818F7E8083E7EDBA
:104F3000F0E080818160808384E082BF81E08093A3
:104F400037020C944F27E8EDF0E080818E7F80835C
:104F50001092E20008951092DA001092E100089594
:104F60001F920F920FB60F9211242F933F934F93DE
:104F70005F936F937F938F939F93AF93BF93EF93C1
:104F8000FF938091E10082FF0BC08091E20082FFDD
:104F900007C08091E1008B7F8093E1000E94142A7A
:104FA0008091DA0080FF1FC08091D80080FF1BC075
:104FB0008091DA008E7F8093DA008091D90080FFA3
:104FC0000DC080E189BD82E189BD09B400FEFDCF3D
:104FD00081E0809338020E947A2305C019BC1092A8
:104FE00038020E9488238091E10080FF19C08091DF
:104FF000E20080FF15C08091E2008E7F8093E20086
:105000008091E20080618093E2008091D80080620C
:105010008093D80019BC85E0809338020E948C23CD
:105020008091E10084FF30C08091E20084FF2CC0B9
:1050300080E189BD82E189BD09B400FEFDCF809188
:10504000D8008F7D8093D8008091E1008F7E80937F
:10505000E1008091E2008F7E8093E2008091E20087
:1050600081608093E20080913402882311F084E013
:1050700007C08091E30087FF02C083E001C081E0A8
:10508000809338020E948D238091E10083FF29C024
:105090008091E20083FF25C08091E100877F8093AB
:1050A000E10082E080933802109234028091E100A6
:1050B0008E7F8093E1008091E2008E7F8093E200FA
:1050C0008091E20080618093E20042E060E080E055
:1050D0000E94AF268091F00088608093F0000E94CB
:1050E0008B23FF91EF91BF91AF919F918F917F9112
:1050F0006F915F914F913F912F910F900FBE0F9045
:105100001F9018951F920F920FB60F9211242F9394
:105110003F934F935F936F937F938F939F93AF933F
:10512000BF93CF93EF93FF93C091E900CF7080912D
:10513000EC001092E9008091F000877F8093F000EE
:1051400078940E94BE281092E9008091F000886057
:105150008093F000C093E900FF91EF91CF91BF9150
:10516000AF919F918F917F916F915F914F913F91FF
:105170002F910F900FBE0F901F9018951F93CF93F4
:10518000DF93CDB7DEB7AA970FB6F894DEBF0FBE98
:10519000CDBFE9E3F2E08091F100819322E0E134B8
:1051A000F207C9F70E94A3238091E80083FF24C17E
:1051B0002091390230913A02832F90E08A30910594
:1051C00008F01AC1FC01E151FF4F0C945A2A203813
:1051D00021F0223809F010C108C080913502909169
:1051E0003602992389F082600FC080913D028F7052
:1051F000873008F001C18093E9008091EB0085FBC6
:10520000882780F91092E9009091E800977F9093A9
:10521000E8008093F1001092F100CCC0822F8D7FC6
:1052200009F0EAC0222319F0223061F0E5C0809134
:105230003B02813009F0E0C0333009F080E0809318
:1052400036022AC080913B02811126C020913D0286
:105250002F708FEF820F863008F0CEC02093E900C8
:105260008091EB0080FF18C08091EB00333011F487
:10527000806210C080618093EB0081E090E001C00B
:10528000880F2A95EAF78093EA001092EA0080914D
:10529000EB0088608093EB001092E9008091E800B9
:1052A000877F8093E8000E94E426A6C02111A4C055
:1052B00010913B021F778091E3008078812B8093CF
:1052C000E3008091E800877F8093E8000E94E42655
:1052D0008091E80080FFFCCF8091E300806880939C
:1052E000E300112311F083E001C082E080933802D3
:1052F00083C02058223008F07FC080913B029091FB
:105300003C028C3D23E0920779F583E08A838AE2B0
:1053100089834FB7F894DE01139620E03EE051E216
:10532000E32FF0E050935700E49120FF03C0E29593
:10533000EF703F5FEF708E2F90E0EA3010F0C7966D
:1053400001C0C0968D939D932F5F243149F74FBFC5
:105350008091E800877F8093E8006AE270E0CE01E8
:1053600001960E94EC2515C060913D0270913E02AD
:10537000AE014F5F5F4F0E94CB240097E9F120916F
:10538000E800277F2093E800BC0189819A810E9470
:105390004D268091E8008B778093E8002DC020385F
:1053A00059F58091E800877F8093E800809134026E
:1053B0008093F1008091E8008E7773CF21111CC09B
:1053C00090913B029230C0F48091E800877F8093F7
:1053D000E800909334020E94E42680913402811107
:1053E00004C08091E30087FF02C084E001C081E037
:1053F000809338020E948F238091E80083FF0AC0C7
:105400008091E800877F8093E8008091EB008062C4
:105410008093EB00AA960FB6F894DEBF0FBECDBF07
:10542000DF91CF911F9108950895CF938091380215
:105430008823B1F08091E9008F709091EC0090FF8B
:1054400002C090E801C090E0C92FC82B1092E9007B
:105450008091E80083FD0E94BE28CF70C093E900D0
:10546000CF910895AA1BBB1B51E107C0AA1FBB1F08
:10547000A617B70710F0A61BB70B881F991F5A95E0
:10548000A9F780959095BC01CD01089597FB072E53
:1054900016F4009407D077FD09D00E94322A07FC49
:1054A00005D03EF4909581959F4F08957095619534
:1054B0007F4F0895EE0FFF1F0590F491E02D0994A2
:1054C0008F929F92AF92BF92CF92DF92EF92FF9214
:1054D000CF93DF93EC01688179818A819B8161158B
:1054E00071058105910521F464E279ED8BE597E082
:1054F0002DE133EF41E050E00E94232B49015A0196
:105500009B01AC01A7EAB1E40E94102B6B017C0166
:10551000ACEEB4EFA50194010E941E2BC60ED71E5F
:10552000E81EF91EF7FE06C081E0C81AD108E1089E
:1055300080E8F80AC882D982EA82FB82C6019F7796
:10554000DF91CF91FF90EF90DF90CF90BF90AF9021
:105550009F908F9008950E94602A089580E091E0C6
:105560000E94602A0895A0E0B0E08093000190932B
:105570000101A0930201B09303010895DC01CB0166
:10558000FC01F999FECF06C0F2BDE1BDF89A319653
:1055900000B40D9241505040B8F70895F999FECFEC
:1055A00092BD81BDF89A992780B50895A8E1B0E031
:1055B00042E050E00C94C02ADC01A40FB51F41501A
:1055C000504048F0CB01840F951F2E910E94ED2A88
:1055D00041505040D0F70895262FF999FECF92BD43
:1055E00081BDF89A019700B4021639F01FBA20BDA8
:1055F0000FB6F894FA9AF99A0FBE08950396272FDA
:105600000E94ED2A0E94EC2A252F0E94ED2A242FC9
:105610000C94ED2A0196272F0E94ED2A0C94EC2A77
:105620000E94422BA59F900DB49F900DA49F800DCA
:10563000911D11240895B7FF0C94102B0E94102B7C
:10564000821B930B0895052E97FB1EF400940E9475
:105650003A2B57FD07D00E94512B07FC03D04EF484
:105660000C943A2B50954095309521953F4F4F4FD4
:105670005F4F089590958095709561957F4F8F4FFE
:105680009F4F0895A29FB001B39FC001A39F700DCB
:10569000811D1124911DB29F700D811D1124911D3A
:1056A0000895A1E21A2EAA1BBB1BFD010DC0AA1F63
:1056B000BB1FEE1FFF1FA217B307E407F50720F07B
:1056C000A21BB30BE40BF50B661F771F881F991FF6
:1056D0001A9469F760957095809590959B01AC013F
:0A56E000BD01CF010895F894FFCF3B
:1056EA0001000000FF0000FFFF0000FF7FFF000035
:1056FA00FF0000FF0000FF0000FF000000000000A4
:10570A000000000000FF2BFF55FF80FFABFFD5FF15
:10571A00BB01962209239922D4229A22019435F4B4
:10572A009766F64022717805E50407058A04BC04E9
:02573A00A304C6
:00000001FF
