:100000000C948D030C94D1030C94D1030C94D10364
:100010000C94D1030C94D1030C94D1030C94D10310
:100020000C94D1030C94D1030C9493220C9465236B
:100030000C94A21C0C94D1030C94D1030C94D10306
:100040000C94D1030C94D1030C94D1030C94D103E0
:100050000C94D1030C94151D0C94D1030C94D10372
:100060000C94D1030C94D1030C94D1030C94D103C0
:100070000C94D1030C94D1030C94D1030C94D103B0
:100080000C94D5050C94D1030C94D1030C94D1039A
:100090000C94D1030C94D1030C94D1030C94D10390
:1000A0000C94D1030C94D1030C94D1035A065D0631
:1000B000D706680670067C06D706D706D706C6069A
:1000C000C9067F06820687069506A306A606AA0627
:1000D000B806D708DD08E108E408E808EC08F008ED
:1000E000F408F908FD080109050908090C091009B7
:1000F000140918091D0971127112AB12AB12EE121C
:1001000039143914391410133914B713B7132D14C3
:10011000391439143414C413C413C413C413C413CA
:10012000C413C413C413C413C413C413C413C41317
:10013000C413C413C413D613E613ED13F413FE1340
:10014000C914C914DC14DC14D214DC14DC14DC145F
:10015000C914C914D814DC14DC14D814CA23F1232C
:10016000DF24F123DF2439245C24DF24B224C124DA
:1001700029003A003B003C003D003E003F004000AB
:100180004100420043004400450000004600470093
:10019000480035001E001F0020002100220023001F
:1001A00024002500260027002D002E002A004900EB
:1001B0004A004B002B0014001A000800150017001D
:1001C0001C0018000C00120013002F00300031003A
:1001D0004C004D004E0039000400160007000900D5
:1001E0000A000B000D000E000F0033003400280041
:1001F0002A00000000000000E10000001D001B00BC
:100200000600190005001100100036003700380004
:10021000E5000100000052000000E000E300E20001
:100220000000000000002C00000000000000E600BC
:10023000E7006500E400500051004F00010001009C
:1002400001000100010001000100010001000100A6
:100250000100010001000000010001000100010097
:100260000100010001000100010001000100010086
:100270000100010001000100010001000100010076
:100280000100010001000100010001000100010066
:100290000100010001000100010001000100010056
:1002A0000100010001000100010001000100010046
:1002B0000100010001000100010001000100000037
:1002C0000000000001000000010001000100010029
:1002D0000100010001000100010001000100010016
:1002E000000001000000010001000100000000000A
:1002F00000000100000000000000010001000100FA
:1003000001000100010001000100010001000100E5
:1003100001000100010001000100010001000100D5
:1003200001000000010001000100010001000100C6
:1003300001000100010001000100010001000100B5
:1003400001000100010001000100010001000100A5
:100350000100010001000100010001000100010095
:100360000100010001000100010001000100010085
:100370000100010001000100010001000100010075
:100380000100010001000100010000000000000068
:100390000100000001000100010001000100010056
:1003A0000100010001000100010001000000010046
:1003B0000000010001000100000000000000010039
:1003C0000000000000000100010001000100010028
:1003D0000100010001000100010001000100010015
:1003E0000100010001000100010001000100000006
:1003F00001000100010001000100010001000100F5
:1004000001000100010001000100010001000100E4
:1004100001000100010001000100010001000100D4
:1004200001000100010001000100010001000100C4
:1004300001000100010001000100010001000100B4
:1004400001000100010001000100010001000100A4
:100450000100010001000000000000000100000098
:100460000100010001000100010001000100010084
:100470000100010001000100000001000000010076
:100480000100010000000000000001000000000069
:100490000000010001000100010001000100010055
:1004A00000000000000000002A2B280000000000CF
:1004B0000000000000000000000000290000000013
:1004C0002C1E3420212224342627252E362D373881
:1004D000271E1F202122232425263333362E37388A
:1004E0001F0405060708090A0B0C0D0E0F10111248
:1004F000131415161718191A1B1C1D2F3130232D14
:10050000350405060708090A0B0C0D0E0F10111211
:10051000131415161718191A1B1C1D2F3130354CC2
:1005200000000000000000000000000000000000CB
:1005300000000000000000000000000000000000BB
:1005400000010101010101000101010100000000A1
:100550000000000000000000000001000100010197
:10056000010101010101010101010101010101017B
:10057000010101010101010101010100000001016E
:10058000000000000000000000000000000000006B
:100590000000000000000000000000010101010057
:1005A0000403300000001603520041004D004100DA
:1005B00020005500380030002D00410000001603D7
:1005C000520041004D0041002E0057004F005200E4
:1005D0004B00530000000403090409025B000301FF
:1005E00000A0FA0904000001030101000921110122
:1005F00000012240000705810308000A09040200E7
:10060000010300000009211101000122710007050A
:10061000840320000A0904010002030000000921EC
:1006200011010001222200070582032000010705B5
:100630000303200001120110010000000841520ACA
:10064000080100010203010660FF0961A1010962BE
:10065000150026FF00952075088102096315002604
:10066000FF00952075089102C005010980A1018550
:10067000031601002603001A81002A8300751095D5
:10068000018100C0050C0901A101850416010026A5
:100690009C021A01002A9C02751095018100C00578
:1006A000010906A1018505050719E029E7150025BF
:1006B000019508750181020508190129059505753F
:1006C0000191029501750391010507190029EF15A4
:1006D00000250195F075018102C005010906A101FF
:1006E000050719E029E71500250195087501810224
:1006F0009501750881010508190129059505750100
:1007000091029501750391010507190029FF150054
:1007100026FF00950675088100C011241FBECFEF8B
:10072000DAE0DEBFCDBF04B603FE24C080913804FA
:1007300090913904A0913A04B0913B048730904BDA
:10074000A740B04BB9F410923804109239041092BB
:100750003A0410923B0414BE84B7877F84BF88E1BB
:100760000FB6F89480936000109260000FBEE0E036
:10077000F8E3099511E0A0E0B1E0EEEBFAE402C085
:1007800005900D92A433B107D9F714E0A4E3B1E0CA
:1007900001C01D92A833B107E1F70E94451F0C94D8
:1007A0005D250C940000609311044093120424E62C
:1007B00030E042E050E061E174E0880F0C9477058E
:1007C000FF920F931F93CF93DF938B01F82EFF0CB3
:1007D000C0E0D0E0C0931104E2E1F4E0D801AC0F36
:1007E000BD1F8D91819384E0E232F807D1F724E6B2
:1007F00030E041E150E061E174E08F2D0E94770527
:100800006096C03CD10531F7DF91CF911F910F91D8
:10081000FF900895CF93DF93C82F45EC6EEF0E94B1
:10082000D30340E06DEF8C2F0E94D303D0E040E073
:100830006D2F8C2F0E94D303DF5FD831C1F745ECB9
:100840006EEF8C2F0E94D30341E06DEF8C2F0E943E
:10085000D303D0E040E06D2F8C2F0E94D303DF5FE5
:10086000D03CC1F745EC6EEF8C2F0E94D30343E0E0
:100870006DEF8C2F0E94D3034FEF61E08C2F0E940D
:10088000D30341E060E08C2F0E94D3038FE39CE907
:100890000197F1F700C00000DF91CF9108958036F5
:1008A000910548F4880FE82FF0E0EF56FD4F608384
:1008B00081E08093650108951F93CF93DF93182FF4
:1008C000C0E0D0E0612FCE010E944F042196C036D7
:1008D000D105C1F7DF91CF911F910895880FE82FBF
:1008E000E695E695E6958770F0E0EB5CFE4F21E03B
:1008F00030E0082E01C0220F0A94EAF7662321F0A7
:100900008081822B808304C02095808128232083CE
:1009100081E0809334010895CF93C82F80916501C1
:10092000882379F045EC6EEF8C2F0E94D30341E0D1
:100930006DEF8C2F0E94D30361E972E08C2F0E942F
:10094000E00310926501CF9108950F931F93CF9309
:10095000DF93082F809134018823A9F045EC6EEFD6
:10096000802F0E94D30340E06DEF802F0E94D303BD
:10097000C5E3D1E010E04991612F802F0E94D3039D
:100980001F5F1831C1F7DF91CF911F910F9108952B
:100990001092B9008CE08093B8000895FF920F93F5
:1009A0001F93CF93DF93F82EEB011092BC0084EAE3
:1009B0008093BC000E94D41C8C018091BC0087FDF8
:1009C0000EC0CF3F8FEFD807C1F30E94D41C801B0D
:1009D000910B8C179D0788F38EEF9FEF2EC090919F
:1009E000B900987F983041F09091B900987F90318C
:1009F00019F08FEF9FEF21C0F092BB0084E8809345
:100A0000BC000E94D41C8C018091BC0087FD0CC0EE
:100A1000CF3F8FEFD807C1F30E94D41C801B910BEE
:100A20008C179D0788F3D8CF8091B900887F8831D3
:100A300011F08034F1F680E090E0DF91CF911F91CA
:100A40000F91FF9008950F931F93CF93DF93EB01C6
:100A50008093BB0084E88093BC000E94D41C8C016E
:100A60008091BC0087FD0EC0CF3F8FEFD807C1F348
:100A70000E94D41C801B910B8C179D0788F38EEF6E
:100A80009FEF0CC02091B900287F81E090E02832D0
:100A900011F480E090E0919581959109DF91CF91DB
:100AA0001F910F9108950F931F93CF93DF93EC0144
:100AB00084E98093BC000E94D41C8C018091BC000E
:100AC00084FF0EC0CF3F8FEFD807C1F30E94D41C24
:100AD000801B910B8C179D0788F38EEF9FEF02C050
:100AE00080E090E0DF91CF911F910F910895CF9218
:100AF000DF92EF92FF920F931F93CF93DF936B01DF
:100B00007A018901B9010E94CE040097C1F4E6017F
:100B1000EC0CFD1CCE15DF0539F0B80189910E945F
:100B200023050097B9F30BC0C801DF91CF911F9146
:100B30000F91FF90EF90DF90CF900C945305DF91D1
:100B4000CF911F910F91FF90EF90DF90CF9008957C
:100B5000CF930E94C80480E50E940A04C0E061E0CF
:100B60008C2F0E946E04CF5FC036C9F760E080E52D
:100B7000CF910C94A5048091670181110FC081E091
:100B8000809367018DE0809391008FB7F89493E094
:100B9000909399009DE0909398008FBF0895E1E7AE
:100BA000F0E080818260808308951F920F920FB6DB
:100BB0000F9211242F933F934F935F936F937F93E3
:100BC0008F939F93AF93BF93EF93FF9380916601B1
:100BD000843120F48F5F8093660116C08091680194
:100BE00090916901A0916A01B0916B010196A11DDC
:100BF000B11D8093680190936901A0936A01B0933D
:100C00006B018FEF0E945C04FF91EF91BF91AF9158
:100C10009F918F917F916F915F914F913F912F9114
:100C20000F900FBE0F901F90189560E080E50C9418
:100C30008C0480E290E00E9423258F31954451F48A
:100C400082E290E00E941B2591E0873009F090E05D
:100C5000892F01C080E081700895CF93C82F882329
:100C600019F06FE175E402C06FEF7FEF80E290E072
:100C70000E944725CC2311F067E001C06FEF82E2AC
:100C800090E0CF910C94292580E00E942D060C94D1
:100C9000431B1F93CF93DF93EC01162F488150E045
:100CA000FA013197E331F10508F081C0EA5AFF4FAC
:100CB0000C941525198288E028C08981813009F0BB
:100CC00076C00E94E01C9A838B837C836D8371C005
:100CD0004B816A8189810E94C30D9C838D8369C089
:100CE0002C8130E0322F22278D81282B4B816A8185
:100CF00089810E94DC0D5DC00E94F80D5AC00E94DF
:100D00008F0E26C00E94910E99838A8352C06B81F8
:100D100070E0898190E0982F88272A81AE014C5F8E
:100D20005F4F822B0E94940E44C06B8170E08981DA
:100D300090E0982F88272A81AE014C5F5F4F822B6D
:100D40000E94B80E36C00E94DD0E33C00E94B10D65
:100D500089832FC06B8170E0898190E0982F88276C
:100D60002A81AE014C5F5F4F822B0E94390E21C059
:100D70006B8170E0898190E0982F88272A81AE01ED
:100D80004C5F5F4F822B0E945D0E13C00E94440691
:100D900010C00E94331E2FEF81EE94E0215080405E
:100DA0009040E1F700C000000E943B1D02C08FEFA1
:100DB0008883612FCE01DF91CF911F910C94331E58
:100DC0000E941906811107C00E94F80D0E94DD0ED5
:100DD00081E00E942D060E94A8050E94BB050C948C
:100DE000CF050E94860C8FE19EE40197F1F700C0C9
:100DF00000008FE19EE40197F1F700C000000E941F
:100E0000860C80E00E946A0D60FF04C00E944406C8
:100E10000C943B1D08950E94F1060E94E0060C947C
:100E2000350C0E9415060C94360CFB012281803192
:100E3000FFE59F0731F081313FE5930781F482E0C0
:100E400001C081E0222319F00E942E1902C00E94E5
:100E5000491943E062E081E00E94FB070EC02223B3
:100E600051F09C0122513F452031310520F482513F
:100E70000E94ED0E02C00C94410780E0089581E0CD
:100E8000089581E00895CF93282F30E0F901E056CE
:100E9000FB4FC491F901E05EFA4F2491222359F0EF
:100EA00081EE0E94A8108C2F0E94A8108C2F0E9407
:100EB000C01181EE04C08C2F0E94A8108C2FCF91FE
:100EC0000C94C011FF920F931F93CF93DF93EC010B
:100ED000F62E8881882331F18E010F5F1F4F8130FC
:100EE00031F4C9818C2F0E94A8108C2F0AC0823047
:100EF00029F489810E94A810E80108C0833021F4F8
:100F000089810E94C011F8CF0E94430721968F2D3E
:100F10008823F9F2EFE9FFE03197F1F700C0000014
:100F20008150F6CFDF91CF911F910F91FF900895DF
:100F300060E00C9462074F925F926F927F928F9263
:100F40009F92AF92BF92CF92DF92EF92FF920F9358
:100F50001F932B013C01C12CD12C7601C394D701E6
:100F6000C60104C0880F991FAA1FBB1F4A95D2F75C
:100F7000AC01BD014601570104C0880C991CAA1C94
:100F8000BB1C2A95D2F7482959296A297B29D70100
:100F9000C60104C0880F991FAA1FBB1F0A95D2F76C
:100FA0006A017B01C420D520E620F720C416D506AF
:100FB000E606F70639F4BC01CD01642975298629B6
:100FC00097290AC0BC01CD016095709580959095D8
:100FD00064217521862197211F910F91FF90EF9039
:100FE000DF90CF90BF90AF909F908F907F906F9049
:100FF0005F904F9008950F93382F262F60913F02F6
:10100000709140028091410290914202042F432F3F
:101010000E949B070F910C940E190E94491B81118D
:1010200002C00E94B71B0C940B070C941107089583
:101030000C9417080C94180808950E94B9140E9483
:101040001C082FEF84E39CE0215080409040E1F7A2
:1010500000C000000C943B1DFF920F931F93CF9391
:10106000DF938C01FC01C081D1818091C501811188
:1010700013C08281882349F0CE010E94141AF82EF1
:10108000682FCE010E94BA1904C0CE010E94E8194F
:10109000F82EBE018F2D04C0CE010E94141ABE018D
:1010A0000E94820EEC01B8010E941507882309F402
:1010B0006DC1C63DFCE5DF0709F4D1C0B0F4C53110
:1010C000ECE5DE0768F4C230FCE5DF0708F04FC04E
:1010D000C1158CE5D80701F1C130DC4529F149C1C2
:1010E000C631DC4509F420C144C1CB3D8CE5D807AD
:1010F00071F150F4C73DFCE5DF0709F4D3C0C83DEA
:10110000DC4509F4F6C035C1CC3DECE5DE0731F134
:10111000CD3DDC45A1F02DC1F8018281882309F481
:1011200035C10E941D0832C1F8018281882309F46B
:101130002DC180916C02816080936C0227C1F801FF
:101140008281882309F422C10E94B71B1FC1F801C4
:101150008281882309F41AC180E006C0F8018281E7
:10116000882309F413C182E00E9410200FC1F80106
:101170008281882309F402C10E94491B811102C0A7
:101180000E94B71B0E945C1B90E090932A048093FE
:101190002904FE01E350FC45E231F10520F4E75952
:1011A000FF4F0C94152580912904816003C0809124
:1011B00029048260809329044BC0809129048460B3
:1011C000F9CF8091290413C0809129048061F2CF66
:1011D000809129048062EECF809129048064EACF57
:1011E000809129048068E6CF80912904846088601A
:1011F000E1CF809129048E7FDDCF809129048D7FFE
:10120000D9CF809129048B7FD5CF8091290413C039
:10121000809129048F7ECECF809129048F7DCACF03
:10122000809129048F7BC6CF809129048F77C2CF0C
:10123000809129048B7F877FBDCF9091290497FBF4
:10124000882780F921E0822780FB97F99093290471
:10125000809129040E94601B0E94B91497C0F80174
:101260008281882351F0109271010E94D41C9093C6
:101270006E0180936D0182E022C080917101811125
:101280000FC080916D0190916E010E94EC1C883C12
:10129000910530F486E20E94A81086E20E94C011F7
:1012A00082E024C0F8018281882361F010927201EB
:1012B0000E94D41C9093700180936F0180E20E9481
:1012C000211264C08091720181110FC080916F0161
:1012D000909170010E94EC1C883C910530F487E2EB
:1012E0000E94A81087E20E94C01180E20E9428128A
:1012F0004DC0F80182818111D9CF80917201811195
:10130000F4CF80916F01909170010E94EC1C883C99
:10131000910558F780E20E94281288E20E94A810E6
:1013200088E20E94C01132C00E94931A382FF8013F
:1013300022818091000190910101222371F03A7A7B
:1013400021E009F420E020936C01222311F065E3F1
:1013500001C069E20E94261C09C020916C01222371
:1013600011F065E301C069E20E94311C0E94DF1A9E
:101370000DC081E08093710180937201C801DF91FB
:10138000CF911F910F91FF900C943F0780E0DF9168
:10139000CF911F910F91FF90089580E090E0089504
:1013A0000895880F991F80569A4FFC01859194915A
:1013B0000895CF93DF930E94820E0E94960BEC015A
:1013C000811520E5920708F041C0C11580E4D807D7
:1013D00008F028C1C83ED10510F5C03ED10508F07F
:1013E000A1C1C83AD10578F4C53AD10508F0A2C028
:1013F000C130D10509F496C108F447C1C430D10504
:1014000008F090C142C1CF3BD10508F49EC0C03C5A
:10141000D10508F43AC1CE01805C9109F5C0C1152F
:1014200090E2D90758F4C11521E0D20708F07AC13B
:10143000C03FD10508F429C1D06574C1C11580E34E
:10144000D80708F0E5C0CE019F70DEC0C11595E554
:10145000D90708F043C0C11524E5D20708F0F9C048
:10146000C11582E5D80708F5C11591E5D90708F03F
:10147000DCC02C2F237081E090E002C0880F991F00
:101480002A95E2F79C689E01F4E036952795FA9537
:10149000E1F72370922BCF70C695C69520E2C29FCC
:1014A000E0011124C82BD92B3DC18C2F8695869540
:1014B0009E0123703327C115D34508F0BBC090E2CD
:1014C000899FE001112481E090E002C0880F991FFC
:1014D0002A95E2F7C82BD92BDC6824C1C11529E570
:1014E000D207A0F4C11588E5D80708F0B7C0C11528
:1014F00096E5D90708F0C9C08C2F0E94120C8F7195
:10150000C82FD0E0DC2FCC27D0620CC1C1152AE552
:10151000D20708F4A8C0CE0190568115904208F079
:10152000B4C08D2F8F710E94120CDD27D0628F7195
:10153000D82BF8C0C53AD10509F4AAC0C63AD105DE
:1015400009F4A9C0C3E8D0E4EDC0C83AD10509F454
:10155000A5C0C93AD10509F4A4C0CA3AD10509F415
:10156000A3C0CB3AD10509F4A2C0CC3AD10509F405
:10157000A1C0CB3BD10509F4A0C0CC3BD10509F4F7
:101580009FC0CD3AD10509F49EC0C03BD10509F4F6
:101590009DC0CE3AD10509F49CC0CF3AD10509F4DB
:1015A0009BC0C13BD10509F49AC0C23BD10509F4E7
:1015B00099C0C33BD10509F498C0C43BD10509F4D7
:1015C00097C0C53BD10509F496C0C63BD10509F4C7
:1015D00095C0C73BD10509F494C0C83BD10509F4B7
:1015E00093C0C93BD10509F492C0CD3BD10509F4A4
:1015F00091C0CE3BD10509F490C0CA3BD10509F09A
:101600008FC0CAE2D6E48EC00E94D109EC018AC024
:10161000CE019927D3FF03C0EC01D86C83C0EC0145
:10162000D06C80C0DF70D06A7DC0DC2FCC27C16F4A
:10163000D06A78C090E2899FE001112481E090E0B7
:1016400002C0880F991F2A95E2F7C82BD92BDA68B8
:1016500069C0DC2FCC27C46FD06A64C0DC2FCC27D4
:10166000C06FD06A5FC08C2F8F700E94120C34E064
:10167000D695C7953A95E1F7CF70D0E0DC2FCC270F
:10168000D06A8F70806EC82B4DC0C0E0D0E04AC0D9
:10169000C1E8D0E447C0C2E8D0E444C0C2EED4E41C
:1016A00041C0C9EED4E43EC0CAEED4E43BC0C5EBB1
:1016B000D4E438C0C6EBD4E435C0C3EBD4E432C0C4
:1016C000C4EBD4E42FC0C7EBD4E42CC0CCECD4E4FE
:1016D00029C0CDECD4E426C0C3E8D5E423C0CAE8D1
:1016E000D5E420C0C2E9D5E41DC0C4E9D5E41AC0E0
:1016F000C1E2D6E417C0C3E2D6E414C0C4E2D6E423
:1017000011C0C5E2D6E40EC0C6E2D6E40BC0C7E203
:10171000D6E408C0CFE6D4E405C0C0E7D4E402C0F4
:10172000C0E0D4E4CE01DF91CF91089582389105D5
:1017300049F1B0F48133910509F459C048F4893274
:10174000910509F44FC08A32910509F455C00895F6
:101750008533910509F441C08933910599F00895C5
:10176000833E910531F138F4803E910591F0823E3F
:101770009105A9F00895863E910501F1873E9105F6
:1017800039F108952091290420FD3BC021FD39C085
:1017900008958091290480FF34C089E341C080917D
:1017A000290482FF32C08091290484FF2CC080E08C
:1017B00037C08091290482FD28C0F5CF809129048B
:1017C00083FF25C08091290484FDF1CF87EE28C0D6
:1017D0008091290483FD1BC0F5CF8091290485FFEA
:1017E00018C019C08091290485FF15C012C08091CE
:1017F000290486FF12C013C08091290486FF0FC000
:101800000CC080EE0DC083EE0BC082EE09C086EEE8
:1018100007C085E305C089E203C081E301C08AE215
:1018200090E008959091290492FF0DC0282F28710F
:10183000283019F4877F846006C0282F2471243053
:1018400011F48B7F886093FF0DC0282F28712831F9
:1018500019F4877E846106C0282F2471243111F485
:101860008B7E886194FD877E089508950895ADE08C
:10187000B1E021E030E08D91E82FE295EF70F0E0EB
:1018800041A18F70B90102C0660F771F8A95E2F7F8
:10189000CB01962F9095492341A392A1982B92A317
:1018A00071E0AE31B70739F7AEE1B1E021E030E0E9
:1018B0008D91E82FE295EF70F0E041A18F70B901B2
:1018C00002C0660F771F8A95E2F7CB01962F90959D
:1018D000492341A392A1982B92A371E0A432B707A8
:1018E00039F7EBE8F1E0A3E7B1E011921192119220
:1018F00011921D921D921D921D9281E0E33AF8070C
:10190000A1F786E00E94760D0C940D082F923F926D
:101910004F925F926F927F928F929F92AF92BF92FF
:10192000CF92DF92EF92FF920F931F93CF93DF93AB
:10193000CDB7DEB72D970FB6F894DEBF0FBECDBF83
:101940008DE091E09C838B8300E010E020E0212C6F
:10195000312C21012394AB81BC819D91BC83AB834D
:10196000E92FE295EF70F0E081A19F706624639407
:10197000712C01C0660C9A95EAF7862981A382A191
:10198000B62DB095BD838B2382A380EA8A95F1F7AB
:10199000B201A101002E04C0440F551F661F771F1E
:1019A0000A94D2F74A015B0180949094A094B09479
:1019B000AEE1B1E0BA83A9838BE891E09D878C8783
:1019C00030E0AC85BD85BF83AE838D919D910D9038
:1019D000BC91A02D88879987AA87BB87A981BA81E6
:1019E000DD90BA83A983ED2CE2948FE0E822F12CFC
:1019F000D7019096EC90F12CBD2DBF700B2E02C03C
:101A0000F594E7940A94E2F7E0FC09C0C884D9840D
:101A1000EA84FB84C42AD52AE62AF72A08C0C884A7
:101A2000D984EA84FB84C820D920EA20FB20AC8535
:101A3000BD85CD92DD92ED92FC9213978C859D85AC
:101A400004969D878C87AE81BF81CD90DD90ED900F
:101A5000FC9088859985AA85BB858C159D05AE056A
:101A6000BF0509F031E0A981BA81A452B14009F063
:101A7000A8CF81A19D81892381A382A1862982A3E8
:101A8000232B0F5F1F4F0131110509F064CF46E092
:101A900063E771E08BE891E00E94770D0E941508E2
:101AA00081E02D960FB6F894DEBF0FBECDBFDF915B
:101AB000CF911F910F91FF90EF90DF90CF90BF904B
:101AC000AF909F908F907F906F905F904F903F90DE
:101AD0002F90089594E0899FF0011124ED58FE4F56
:101AE0006081718182819381089508950895FF92A4
:101AF0000F931F93CF93DF93D82FC92FF62E072F65
:101B0000142F222349F081E08093A5010E94D41C68
:101B10009093A4018093A3018091A5018823D9F01B
:101B20008091A3019091A4010E94EC1C069798F06B
:101B3000ED2FFC2FCF2DD02F20E0211751F08191D8
:101B40009191A191B19189939993A993B9932F5FA1
:101B5000F4CF1092A501DF91CF911F910F91FF90CB
:101B6000089584E0089550E0440F551F92E2699F64
:101B7000400D511D11249CEC899F400D511D1124D5
:101B8000CA01839608950F931F93CF93DF930E940A
:101B9000B30DEC010E941B25082F10E0102F002729
:101BA000CE0101960E941B259801282BC901DF91C7
:101BB000CF911F910F9108950F931F93CF93DF93B0
:101BC00000D0CDB7DEB72A8339830E94B30D8C01D4
:101BD0003981632F0E9429252A81622FC80101962D
:101BE0000F900F90DF91CF911F910F910C942925A9
:101BF000AF92BF92CF92DF92EF92FF920F931F931B
:101C0000CF93DF93A12CE12CF12CB12C00E010E05C
:101C1000C0E0D0E06801CE0CDF1CC60180599E4FA9
:101C20006C01FE01EE0FFF1FEC0DFD1D259134919F
:101C30004C2F6B2D8A2D0E94DC0D2196C131D105D0
:101C400081F70E5D1F4FB39486E0B812E1CF9CEC94
:101C5000E90EF11CA39484E0A812D7CFDF91CF91B5
:101C60001F910F91FF90EF90DF90CF90BF90AF90BA
:101C70000895EF92FF920F931F93CF93DF937B0111
:101C8000EA01E40EF51E8C01C8018396CE15DF052E
:101C900069F0003323E0120720F40E941B2588839B
:101CA00001C0188221960F5F1F4FEECFDF91CF91B9
:101CB0001F910F91FF90EF900895EF92FF920F9375
:101CC0001F93CF93DF938B017A01080F191FEC014B
:101CD000E81AF90ACE018396C017D10761F0C03324
:101CE00023E0D20730F4F701EC0FFD1F60810E9462
:101CF00029252196EFCFDF91CF911F910F91FF9072
:101D0000EF900895462F843038F4763028F461310E
:101D100018F4672F0C94C30D80E090E0089580E1E3
:101D200008958DEA90E00895EF92FF920F931F932C
:101D3000CF93DF937B01EA01E40EF51E8C01C8010D
:101D40008D5A9C4FCE15DF0561F00D3A110520F438
:101D50000E941B25888301C0188221960F5F1F4FA8
:101D6000EECFDF91CF911F910F91FF90EF900895EB
:101D7000EF92FF920F931F93CF93DF938B017A0122
:101D8000080F191FEC01E81AF90ACE018D5A9C4F71
:101D9000C017D10759F0CD3AD10530F4F701EC0F57
:101DA000FD1F60810E9429252196EFCFDF91CF9101
:101DB0001F910F91FF90EF900895CF93DF93C3E5AC
:101DC000D3E060E0CE010E9429252196C11584E070
:101DD000D807B9F7DF91CF910895FF920F931F9322
:101DE000CF93DF9300D0CDB7DEB7F82E8FE08F15FD
:101DF00030F18FEF93E00E941B25811120C003E595
:101E000013E0FF2069F0011584E01807C1F0C80154
:101E10000E941B25811101C0FA940F5F1F4FF1CF63
:101E200019821A82C8010E941B258983882339F0F0
:101E3000CE0101960E9498070F5F1F4FF3CF0F90BE
:101E40000F90DF91CF911F910F91FF900895909384
:101E5000AB018093AA010895E091AA01F091AB0132
:101E6000309721F00190F081E02D099480E00895F1
:101E7000E091AA01F091AB01309799F020910C010B
:101E8000222359F02091290427FF07C0DC012C915F
:101E900011962C93119725E02C930280F381E02D6D
:101EA000099408952091A8013091A9018217930700
:101EB00071F09093A9018093A801E091AA01F0919B
:101EC000AB01309721F00680F781E02D0994089549
:101ED0002091A6013091A7018217930771F090938A
:101EE000A7018093A601E091AA01F091AB01309780
:101EF00021F00084F185E02D0994089585B780686C
:101F000085BF85B7806885BF089508950E947E0FBC
:101F10000C94850F81E008950E94CB1C0E94370C21
:101F20000C94601D4F925F926F927F929F92AF923E
:101F3000BF92CF92DF92EF92FF920F931F93CF93B6
:101F4000DF93CDB7DEB72E970FB6F894DEBF0FBE86
:101F5000CDBF0E94860C0E948A0F811111C08FEFA5
:101F600089838A831B820E94D41C8160782F9D8381
:101F70008C8349815A816B818D810E9474107DC050
:101F80003DEAA32E31E0B32E00E010E0902E802F2A
:101F90000E946A0DF501C190D190E190F1905F012E
:101FA000C626D726E826F926C114D104E104F10497
:101FB00031F40F5F1F4F0630110541F7D0CF20914C
:101FC0006C0221FF0AC06B877C878D879E870E94E9
:101FD000750D9E858D857C856B8520E030E0422FD8
:101FE00026013701022E04C07694679457944794D3
:101FF0000A94D2F740FE3AC02E839F82C12CD12C86
:102000007601C39404C0CC0CDD1CEE1CFF1C4A9569
:10201000D2F7DC01CB018C219D21AE21BF2121E033
:10202000892B8A2B8B2B09F420E028870E94D41C53
:102030008160782F9A8789874E815F8168858A853C
:102040000E947410F801EE0FFF1FEE0FFF1FE35503
:10205000FE4F80819181A281B3818C259D25AE2583
:10206000BF2580839183A283B38307C02F5F3F4F37
:102070002131310509F0B3CF9CCF1091AC010E9402
:102080002C0F1817D9F00E942C0F8093AC012E96BC
:102090000FB6F894DEBF0FBECDBFDF91CF911F9179
:1020A0000F91FF90EF90DF90CF90BF90AF909F90F7
:1020B0007F906F905F904F900C941A082E960FB6F9
:1020C000F894DEBF0FBECDBFDF91CF911F910F916E
:1020D000FF90EF90DF90CF90BF90AF909F907F9058
:1020E0006F905F904F900895CF93DF93CDB7DEB799
:1020F0002B970FB6F894DEBF0FBECDBF4F83588726
:1021000069877A878B87DE01119686E0FD0111923F
:102110008A95E9F785E0FE01379601900D928A9540
:10212000E1F749815A816B817C818D819E810E947A
:1021300096172B960FB6F894DEBF0FBECDBFDF917A
:10214000CF910895FC01808191810E94541A0895D5
:10215000882309F414C18238C1F40E942C0F81FD38
:102160000EC169E380910001909101010E94261C3B
:102170000E94DF1A2FEF81EE94E0215080409040C2
:10218000E1F700C0000069E319C08338F9F40E9448
:102190002C0F80FDF4C063E5809100019091010156
:1021A0000E94261C0E94DF1A2FEF81EE94E021503E
:1021B00080409040E1F700C0000063E5809100019D
:1021C000909101010E94311C0C94DF1A8438C1F4F3
:1021D0000E942C0F82FDD3C067E480910001909192
:1021E00001010E94261C0E94DF1A2FEF81EE94E06D
:1021F000215080409040E1F700C0000067E4DECF4E
:102200009CEF980F913A40F4682F809100019091D3
:1022100001010E94261CD8CF90E2980F983050F40C
:10222000877091E001C0990F8A95EAF7892F0E9483
:10223000961ACACF9BE5980F933070F4853A29F02F
:10224000863A31F482E890E005C081E890E002C06F
:1022500083E890E00C94520F98E5980F973108F0BE
:102260008EC0883A09F445C0893A09F445C08A3AD3
:1022700009F445C08B3A09F445C08C3A09F445C0CD
:102280008B3B09F445C08C3B09F445C08D3A09F4F9
:1022900045C0803B09F445C08E3A09F445C08F3AE9
:1022A00009F445C0813B09F445C0823B09F445C0AF
:1022B000833B09F445C0843B09F445C0853B09F4E0
:1022C00045C0863B09F445C0873B09F445C0883BBF
:1022D00009F445C0893B09F445C08D3B09F445C06C
:1022E0008E3B09F445C08A3B09F045C08AE292E082
:1022F00044C082EE90E041C089EE90E03EC08AEE9C
:1023000090E03BC085EB90E038C086EB90E035C0B4
:1023100083EB90E032C084EB90E02FC087EB90E03D
:102320002CC08CEC90E029C08DEC90E026C083E8B6
:1023300091E023C08AE891E020C082E991E01DC0CD
:1023400084E991E01AC081E292E017C083E292E052
:1023500014C084E292E011C085E292E00EC086E2F1
:1023600092E00BC087E292E008C08FE690E005C0E3
:1023700080E790E002C080E090E00C94680F089540
:10238000882309F45DC0823879F40E942C0F81FF04
:1023900057C069E380910001909101010E94261CC1
:1023A0000E94DF1A69E310C08338B1F40E942C0F39
:1023B00080FF46C063E580910001909101010E9479
:1023C000261C0E94DF1A63E58091000190910101B3
:1023D0000E94311C0C94DF1A843879F40E942C0F6F
:1023E00082FF2EC067E480910001909101010E945C
:1023F000261C0E94DF1A67E4E7CF9CEF980F913A02
:1024000010F4682FE1CF90E2980F983050F4877065
:1024100091E001C0990F8A95EAF7892F0E949C1AD2
:10242000D9CF9BE5980F933020F480E090E00C9496
:10243000520F885A873120F480E090E00C94680FA6
:102440000895882321F00E94961A0C94DF1A0895AB
:10245000882321F00E949C1A0C94DF1A08958F9211
:102460009F92BF92CF92DF92EF92FF920F931F93B2
:10247000CF93DF9300D0CDB7DEB74C01472FFC01DF
:10248000C580C2949FE0C922D280DD2031F07983DB
:102490006A830E94B31A6A81498149836A830E94D0
:1024A0008C1A49816A81882389F0DD2079F080E2E5
:1024B000860F883058F082E00E942A1B0E948C1AF6
:1024C000BB24B394B82649816A8101C0B12CE42EA3
:1024D000E2948FE0E822F12CF701E558FF4F0C94CD
:1024E0001525842F807F142F1F70882311F01295DB
:1024F000107FDD20C1F0112309F49AC180E2860F1C
:10250000883010F0611105C0812F6A830E94961AED
:1025100004C0812F6A830E94A61A6A816A830E947E
:10252000DF1A6A8185C1862F6A830E94C0116A8181
:10253000112309F49EC180E2860F883010F06111EA
:1025400004C0812F0E949C1A03C0812F0E94AC1AE4
:102550000E94DF1A8EC1842F807F142F1F7080325B
:1025600011F01295107F662319F06130D9F026C062
:10257000DD2079F0CC2049F0F1E0CF1206C00E94B6
:10258000C61A812B0E94CC1A74C10E94C61A812BD4
:1025900004C1CC2021F021E0C21609F46AC10E94D6
:1025A000D51A00C1DD2029F085E08C1508F461C141
:1025B000F3C094E09C1508F45CC1F4C0DD2051F038
:1025C000CC2009F4E9C0F401858180FF31C18F700E
:1025D0008583E2C0CC2009F4E5C03BC1242F2695B9
:1025E0002695237030E02115310521F02130310589
:1025F00061F03FC1DD2021F0862F942F937002C03F
:1026000080E090E00E94520F44C1DD2021F0862F2F
:10261000942F937002C080E090E00E94680F39C14F
:10262000842F837009F04EC0D1102FC1262F229520
:1026300026952770220F220F862F8F70C82ED12C3F
:10264000E12CF12C022E04C0CC0CDD1CEE1CFF1C76
:102650000A94D2F764FF10C06FE070E080E090E071
:1026600004C0660F771F881F991F2A95D2F76095BF
:1026700070958095909503C060E070E0CB01242FA9
:1026800026952695237030E02230310569F02330FD
:10269000310589F06C297D298E299F29213031054A
:1026A00071F00E94E718F1C06C297D298E299F29BD
:1026B0000E94F918EAC00E94E718C701B6010E94FB
:1026C000D518E3C0DD2019F0842F817001C08695F4
:1026D000882309F4DAC0262F229526952770220F29
:1026E000220F862F8F70C82ED12CE12CF12C022EB8
:1026F00004C0CC0CDD1CEE1CFF1C0A94D2F764FF56
:1027000010C06FE070E080E090E004C0660F771FBB
:10271000881F991F2A95D2F760957095809590959E
:1027200003C060E070E0CB01242F2695269523702E
:1027300030E02230310569F02330310589F06C2911
:102740007D298E299F292130310571F00E9495192C
:102750009CC06C297D298E299F290E94A71995C0AC
:102760000E949519C701B6010E9483198EC0062FD9
:1027700010E0F801E05EF109E531F10508F054C020
:10278000E557FF4F0C941525162F1F70842F8F715E
:10279000DD2031F00E942E19812F0E94211269C084
:1027A0000E944919812F0E94281263C0DD2049F040
:1027B000F4E0FC1508F45DC0842F8F710E94681945
:1027C00058C025E02C1508F454C0F6CFDD2039F0B0
:1027D000842F8F710E942E194CC0DD20C9F3842FE5
:1027E0008F710E94491945C0DD2029F0842F8F7117
:1027F0000E941F193EC00E941A193BC0DD2051F0F3
:10280000142F1F71812F0E942E1963E0812F0E94C7
:10281000151B2FC081E00E942A1B81E08C1548F512
:1028200082E00E942A1B25C0DD2031F0CC2081F2FD
:10283000862F0E94A8101DC0CC2089F2693349F46C
:102840009FEFE7EEF3E09150E040F040E1F700C089
:102850000000862F0E94C0110CC04F70C4010E945E
:10286000CD090E94431815C04F70C4010E94D009C1
:1028700010C028E0E216F10441F05CF09AE0E91A99
:10288000F108E2E0EE16F10420F40E942C0F0E9401
:102890001A08BB20F1F00E94881A80FD1AC0F401CA
:1028A00012820E94821A0E942E19C4010E9477147B
:1028B0000E94821A0F900F90DF91CF911F910F917C
:1028C000FF90EF90DF90CF90BF909F908F900C94EF
:1028D00049190F900F90DF91CF911F910F91FF90A9
:1028E000EF90DF90CF90BF909F908F9008950F93BF
:1028F0001F93CF93DF93EC01288139818B819C81D9
:10290000892B31F03F3F11F080E003C02F3FE1F70A
:1029100081E0811113C0CE010E942C08882371F040
:10292000688179818A810E945F1A8C010E94B9199D
:102930000E94D218B801CE010E942F12DF91CF91D0
:102940001F910F9108950E94B31A0E94C31A0E940A
:10295000DF1A80E090E00E94520F80E090E00C943B
:10296000680F80910001909101010E943C1C0C9421
:10297000A3140E94A31A0C94B114E92FE295EF70EE
:10298000F0E03297EE30F105B8F4E056FF4F0C94CA
:102990001525803F59F018F4803E70F407C0843F3D
:1029A00059F404C0803E10F0813F31F481E0089575
:1029B00093FB882780F9089580E008950E94541AB7
:1029C0000E94BD140895CF93DF9300D000D01F92D2
:1029D000CDB7DEB70F900F900F900F900F90DF9153
:1029E000CF910895CF93DF9300D000D000D0CDB722
:1029F000DEB726960FB6F894DEBF0FBECDBFDF91CF
:102A0000CF9108951F93CF93DF93C091C60116E035
:102A10008091C701C81799F0D0E01C9FF0011D9F5D
:102A2000F00D1124E853FE4F408151816281738182
:102A3000848195810E94F2142196C770E9CFDF91BD
:102A4000CF911F9108954091F8015091F901609143
:102A5000FA017091FB018091FC019091FD010C94B1
:102A6000F214CF938091FD0182958F7009F05FC0C1
:102A70008091FA01882309F45AC02091C601A091DF
:102A8000C7016091F8017091F9018091FB0190916B
:102A9000FC0131E06F3F09F030E0B32FC6E02A17A8
:102AA00009F445C0009721F07F3F21F44B2F03C06C
:102AB00041E001C040E030E040FD35C0C29FF00180
:102AC000C39FF00D1124E853FE4F418174132BC0B6
:102AD0004081641328C04281411125C04381548143
:102AE0004817590710F441505109481B590B483CED
:102AF0005105C8F48091FD018F7080618093FD01C4
:102B000086E0829FF001839FF00D1124E353FE4F76
:102B100080818F708061808388EF91E00E947714BC
:102B2000CF910C9402152F5F3F4F2770B8CFCF91F4
:102B30000895CF92DF92EF92FF920F931F93CF935E
:102B4000DF93CDB7DEB762970FB6F894DEBF0FBE46
:102B5000CDBF8C0185E0F801DE011D9601900D923C
:102B60008A95E1F7D8014C9111965C9111971296D4
:102B70006C9112971396ED90FC9014977091F80158
:102B8000E091F9012091FB013091FC012115310503
:102B900031F0EF3F31F481E07F3F19F403C081E071
:102BA00001C080E0B82FB170CB2E80FD6BC1D090FA
:102BB000FA01DD2009F4F5C0F091FD01E216F306FB
:102BC00038F0C701821B930B883C910548F09DC0EB
:102BD000209530952E0D3F1D283C310508F095C0FD
:102BE0008F2F807F09F052C0E51314C0741312C0F8
:102BF000D62E61110FC0FF70F061F093FD010E94AD
:102C0000231588EF91E00E9477148091FD01F8016F
:102C100085837CC1EF2831F05F3F31F481E04F3F85
:102C200019F403C081E001C080E080FD03C081E0B1
:102C3000862701C080E0F82FF170FF2E80FF1CC0B6
:102C40008091C6012091C70136E0821709F438C18E
:102C500090E0389FF001399FF00D1124E853FE4FAA
:102C60007181571306C07081471303C072816713C7
:102C700003C001968770E9CFD62E662309F446C1BA
:102C80008091FD0181608093FD0155C0E51308C06E
:102C9000741306C0611104C0D8011596FC93AEC030
:102CA0004D875E878D859E856A8B0E94DE146A89BA
:102CB000882329F1D62E662311F12091FD01822F60
:102CC00082958F7090E002970CF462C08091F801B9
:102CD0009091F90198878F831986FB86EA862C8765
:102CE000CE01079653C0E51741F14D875E878D856C
:102CF0009E856A8B0E94DE146A89811130C0C801EA
:102D00000E947714DD24D39401C18F2F807F59F75F
:102D10007E2DF98AE88A89890E94E31488EF91E080
:102D20000E947714E8EFF1E086E0DF011D928A95BA
:102D3000E9F70E942315D12CE9C07413D6CF611195
:102D4000D4CFD8011596FC93C8010E947714E8EF00
:102D5000F1E086E0DF011D928A95E9F7D7C0D62E13
:102D6000662369F22091FD01822F82958F7090E099
:102D7000029774F08091F8019091F9019A83898308
:102D80001B82FD82EC822E83CE0101960E94771475
:102D900086E0F801A8EFB1E001900D928A95E1F785
:102DA0008AC0E216F30628F0C701821B930B9C0130
:102DB00004C0209530952E0D3F1D283C310508F0AC
:102DC00053C0D62E662309F49ACFE5132CC0741392
:102DD0002AC08091FD0180FD1DC0982F92959F70A3
:102DE000C9F0D80115968C9315979F3039F09F5FE5
:102DF0009295907F8F70892B15968C93C8010E94B5
:102E0000771486E0F801A8EFB1E001900D928A9561
:102E1000E1F753C086E0F801A8EFB1E001900D9210
:102E20008A95E1F773C04D875E878D859E850E94E8
:102E3000DE14882381F096E0F801A8EFB1E001905C
:102E40000D929A95E1F78A8B0E9431150E94231505
:102E50008A89D82E5BC08091FD0181608093FD013D
:102E6000C8010E94771452C07E2DF98AE88A8989A8
:102E70000E94E314E8EFF1E086E0DF011D928A95FD
:102E8000E9F71BC0662309F43ACF4D875E878D852D
:102E90009E850E94DE14D82E882309F430CF86E068
:102EA000F801A8EFB1E001900D928A95E1F788EF63
:102EB00091E00E94A2100E9431150E94231526C0A5
:102EC0004D875E878D859E850E94541A292F2295F5
:102ED0002F7030E0223031052CF49F7041F08111C9
:102EE00006C00CC0243031052CF49F7049F4805E7C
:102EF000883020F0C8010E947714CF2CDC2C06C04B
:102F0000D80115969C91907F91F7F8CF8D2D629600
:102F10000FB6F894DEBF0FBECDBFDF91CF911F91EA
:102F20000F91FF90EF90DF90CF9008951F93CF9374
:102F3000DF93CDB7DEB72C970FB6F894DEBF0FBE88
:102F4000CDBF4F83588769877A878B879C87CE014F
:102F500007960E9499158823C1F02F8138858A85AC
:102F60009B85892B31F03F3F11F080E003C02F3F5C
:102F7000E1F781E0811147C04F81588569857A85E5
:102F80008B859C850E94F2143EC086E0FE01379638
:102F9000DE01119601900D928A95E1F7FF81E88597
:102FA0004A855B854115510531F0EF3F31F481E0F1
:102FB000FF3F19F403C081E001C080E080FD23C021
:102FC0002091C70130E0C90101968770992760916F
:102FD000C60170E086179707F1F1F983EA835D83F4
:102FE0004C8396E0929FD001939FB00D1124A8537B
:102FF000BE4FFE01319601900D929A95E1F78093B4
:10300000C7010E94021516E08091C6019091C70188
:10301000891779F1189FC001112488539E4F0E948F
:103020009915882331F1E091C6011E9FF00111240A
:10303000E853FE4F40815181628173818481958183
:103040000E94F2148091C60190E001968770992742
:103050008093C601D9CF0E94B9141092C701109273
:10306000C601E8EFF1E086E0DF011D928A95E9F7FD
:10307000CACF2C960FB6F894DEBF0FBECDBFDF913E
:10308000CF911F910895EF92FF920F931F93CF93CB
:10309000DF93FC01009709F46FC0F12CEE24E39458
:1030A000EF0121968491843740F4843008F055C0B4
:1030B000813081F0823021F15FC0853709F447C04B
:1030C000C0F19CE7980F903708F056C08F770E94A8
:1030D000C01145C08F010E5F1F4FFE01849190E229
:1030E000980F983050F48770FE2D01C0FF0F8A951D
:1030F000EAF78F2F0E94B61A15C00E94A81014C0BC
:103100008F010E5F1F4FFE01849190E2980F98305F
:1031100068F48770FE2D01C0FF0F8A95EAF78F2FA4
:103120000E94BC1A0E94DF1AE80119C00E94C01157
:10313000FBCFCF010296FE01C491CC2361F0EFE9F1
:10314000FFE03197F1F700C00000C150F6CFCF018A
:103150000296FE01F490EC0102C00E94A8108F2D8F
:10316000882341F0EFE9FFE03197F1F700C000005C
:103170008150F6CFFE0194CFDF91CF911F910F9137
:10318000FF90EF90089508950C94C3180E94C418FE
:1031900060934302709344028093450290934602E9
:1031A0000C94A31408950C94C6180F931F930091C8
:1031B0004302109144022091450230914602602B57
:1031C000712B822B932B1F910F910C94C6180F9388
:1031D0001F930091430210914402209145023091C7
:1031E000460260237123822393231F910F910C9435
:1031F000C6180F931F93009143021091440220912F
:1032000045023091460260277127822793271F913C
:103210000F910C94C61808950C940B190E940C1968
:1032200060933F0270934002809341029093420268
:103230000C94A31460E070E0CB010C940E1941E0F3
:1032400050E060E070E004C0440F551F661F771F18
:103250008A95D2F7CB01BA010C940E1941E050E0E7
:1032600060E070E004C0440F551F661F771F8A9509
:10327000D2F780913F0290914002A0914102B0911B
:103280004202482B592B6A2B7B2BCB01BA010C94A1
:103290000E1941E050E060E070E004C0440F551F9B
:1032A000661F771F8A95D2F7409550956095709567
:1032B00080913F0290914002A0914102B091420260
:1032C000482359236A237B23CB01BA010C940E199E
:1032D00041E050E060E070E004C0440F551F661FFD
:1032E000771F8A95D2F780913F0290914002A0917A
:1032F0004102B0914202482759276A277B27CB0118
:10330000BA010C940E190F931F9300913F02109174
:1033100040022091410230914202602B712B822B9E
:10332000932B1F910F910C940E190F931F930091E3
:103330003F021091400220914102309142026023ED
:103340007123822393231F910F910C940E190F93D5
:103350001F9300913F021091400220914102309151
:10336000420260277127822793271F910F910C94A7
:103370000E19089521E1929F800D1124482F469542
:10338000469546958770B1E001C0BB0F8A95EAF774
:1033900085E0489FA001112442505E4F80E090E0FC
:1033A00070E0FA01E80FF91FA0819B01082E02C00E
:1033B000369527950A94E2F72170332721952A271D
:1033C0002B232A27208301968530910551F70895F4
:1033D00021E1929F800D1124682F66956695669570
:1033E000982F977085E0689FB001112462507E4F3E
:1033F00040E050E080E0FB01E40FF51F208130E069
:10340000092E02C0369527950A94E2F721703327DA
:10341000042E01C0220F0A94EAF7822B4F5F5F4F00
:103420004530510541F70895CF92DF92EF92FF9218
:103430000F931F93CF93DF93EC01C0904302D09082
:103440004402E0904502F090460280913F02909144
:103450004002A0914102B0914202C82AD92AEA2A28
:10346000FB2A0FE110E0B701A601002E04C07695FB
:103470006795579547950A94D2F740FD05C00150CE
:10348000110988F780E007C0BE01802F0E94D9098A
:103490000197A9F3802FDF91CF911F910F91FF909A
:1034A000EF90DF90CF900895CF93DF93EC010E94CF
:1034B000141ABE010E94D909DF91CF9108951F937C
:1034C000CF93DF93EB019091C501992321F0CB01BC
:1034D0000E94541A13C0882349F0CB010E94141A89
:1034E000182F682FCE010E94BA1904C0CB010E9488
:1034F000E819182FBE01812F0E94D909DF91CF91C1
:103500001F91089580914702859585958595089529
:10351000809147028770089590914702977081E0EB
:1035200009F480E0089580916B02089590916B02F8
:10353000982B90936B020895809590916B0298233D
:1035400090936B02089510926B02089590916A0215
:10355000982B90936A020895809590916A0298231F
:1035600090936A02089510926A02089590916902F8
:10357000982B909369020895809590916902982301
:10358000909369020895109269020895809148020B
:10359000089508950C94C91A90914802981721F043
:1035A000809348020C94CA1A089580914802882397
:1035B00029F01092480280E00C94CA1A0895E09114
:1035C0000001F091010180916B028083E091000184
:1035D000F0910101808190916A02892B8083E091B2
:1035E0000001F0910101808190916902892B808313
:1035F00090914802992381F0E0910001F09101013E
:103600008081892B808380910001909101010E942B
:10361000B91B81110E94D51A80910001909101017E
:103620000C94380F08950C94121B98E0899F900118
:103630001124622B609347020E942E198091470249
:103640008595859585950C94131B1092470280E013
:103650000C94131B4091470280958423809347026A
:10366000982F977079F450E0282F332727FD309555
:103670004217530739F08595859585950E9449191C
:103680000C94251B08956FEF7FEF80E090E00C9481
:10369000472580E090E00E94232521E08D3E9E4F4B
:1036A00009F020E0822F089582E090E00C941B2521
:1036B00083E090E00C941B2584E090E00C941B25A3
:1036C000682F84E090E00C942925AB01BC018FE0C9
:1036D00090E00C943B25AB01BC0183E190E00C949D
:1036E0003B2560E070E0CB010C946B1B60E070E068
:1036F000CB010E94651B0C94711B6DEE7EEF80E088
:1037000090E00E94472560E082E090E00E94292539
:1037100060E083E090E00E9429251092430210921D
:103720004402109245021092460260E084E090E06C
:103730000E94292560E085E090E00E94292560E054
:1037400086E090E00E9429256FEF87E090E00E94DC
:10375000292540E050E0BA0188E090E00E943B2536
:1037600060E08DE090E00E9429250C94761B0C947B
:103770007D1B029620910C01211102C026E005C09C
:103780002091290427FFFACF2EE1FC0180E021508F
:1037900028F091919923D9F38F5FF9CF089520E014
:1037A00030E04FEFFC01E20FF31F5281561799F002
:1037B0004F3F19F4511101C0422F2F5F3F4F263068
:1037C000310581F74F3F39F0FC01E40FF11D47FD52
:1037D000FA9562830895089520E030E0FC01E20F3D
:1037E000F31F4281461301C012822F5F3F4F2630E4
:1037F0003105A1F70895262F2695269526952E3179
:1038000070F4FC01E20FF11D677021E030E0062E3C
:1038100001C0220F0A94EAF78281822B82830895E5
:10382000262F2695269526952E3178F4FC01E20F59
:10383000F11D677021E030E0062E01C0220F0A94CE
:10384000EAF72095828128232283089520910C0194
:10385000222329F02091290427FD0C94FB1B0C94B2
:10386000CF1B20910C01222329F02091290427FD50
:103870000C94101C0C94EC1B20910C01FC01329652
:10388000222331F08091290487FF02C08EE101C01C
:1038900086E0DF011D928A95E9F7089508950C945A
:1038A0004E1C0E944F1C80912F04843031F11092E5
:1038B0006D0220E488E190E00FB6F894A89580931B
:1038C00060000FBE2093600080E00E941A080E94F2
:1038D0004F1C83B7817F846083BF83B7816083BFC0
:1038E0007894889583B78E7F83BF88E10FB6F8946C
:1038F00080936000109260000FBE089508950895AF
:10390000CF930E947E1C0E94860C0E947F1CC0E008
:103910008C2F0E946A0D672B682B692B29F4CF5FCF
:10392000C630B1F780E001C081E0CF9108950895DD
:103930000C94971C0E94B9140E942C0F0E941A0824
:103940000C94981C1F920F920FB60F9211248F9314
:103950009F93AF93BF9380916D02811113C08091AB
:10396000250490912604A0912704B0912804419643
:10397000A11DB11D8093250490932604A0932704D4
:10398000B0932804BF91AF919F918F910F900FBE7C
:103990000F901F90189582E084BD93E095BD9AEF3B
:1039A00097BD80936E0008952FB7F89480912504F9
:1039B00090912604A0912704B09128042FBF089568
:1039C0002FB7F89460912504709126048091270404
:1039D000909128042FBF0895CF92DF92EF92FF922B
:1039E0000F931F932FB7F89440912504509126040C
:1039F00060912704709128042FBF6A017B01EE2497
:103A0000FF248C0120E030E0C016D106E206F30668
:103A100010F441505109481B590BCA011F910F91D5
:103A2000FF90EF90DF90CF90089578941F920F92BF
:103A30000FB60F9211248F939F93AF93BF938091F2
:103A4000250490912604A0912704B09128040196A2
:103A5000A11DB11D8093250490932604A0932704F3
:103A6000B0932804BF91AF919F918F910F900FBE9B
:103A70000F901F90189581E08093E00080E2809382
:103A8000D8001092C9008FE19EE40197F1F700C0C1
:103A9000000087E090EBDC018093380490933904B8
:103AA000A0933A04B0933B042CE088E190E00FB679
:103AB000F894A895809360000FBE20936000FFCF1C
:103AC0000E94491B811102C00E94B71B0E94541B17
:103AD00080936C020E945C1B90E090932A04809378
:103AE00029040E94581B682F70E080E090E00C943D
:103AF000D31880918E02089508950F931F93CF934A
:103B0000DF9300D01F92CDB7DEB78C010E9420203A
:103B1000823011F0843019F584E089831B830A8395
:103B20008093E9008FEF9091E800815095FD06C0E9
:103B300095ED9A95F1F700008111F5CF8091E8009D
:103B400085FF0DC040E050E063E070E0CE010196DB
:103B50000E943D208091E8008E778093E8000F90CE
:103B60000F900F90DF91CF911F910F910895CF93F8
:103B7000DF9300D01F92CDB7DEB720912F04243001
:103B800029F533E03983805891099B838A832093F8
:103B9000E9008FEF9091E800815095FD06C095ED0A
:103BA0009A95F1F700008111F5CF8091E80085FF2B
:103BB0000DC040E050E063E070E0CE0101960E944D
:103BC0003D208091E8008E778093E8000F900F9061
:103BD0000F90DF91CF910895CF93DF93EC010E9476
:103BE0002020823011F08430D9F580910C018111B0
:103BF00003C068E081E006C08091290487FFF9CF07
:103C000060E284E08093E9008FEF9091E8008150BA
:103C100095FD06C095ED9A95F1F700008111F5CF5D
:103C20008091E80085FF1CC080910C01811105C0C6
:103C300040E050E068E070E003C070E040E050E039
:103C4000CE010E943D208091E8008E778093E800AD
:103C500080E2FE01AEE6B2E001900D928A95E1F7B6
:103C6000DF91CF910895CF93603229F520912F04F1
:103C7000243009F52091E9002F703091EC0030FFDD
:103C800002C030E801C030E0C32FC22B22E02093F5
:103C9000E9002091E80020FF0BC040E050E060E226
:103CA00070E00E943D208091E8008E778093E800CC
:103CB000CF70C093E900CF91089580912E048111B7
:103CC00009C00E9418220E9475228091E20084603F
:103CD0008093E200089510922E04089508950895A7
:103CE0000C949A1C42E061EC81E00E94922142E235
:103CF00061EC84E00E94922142E261EC82E00E9449
:103D0000922142E260EC83E00C9492218091310494
:103D1000833009F462C030F4813071F0823009F4EC
:103D20009BC008958A3009F487C08B3009F46DC0B8
:103D3000893009F0A9C020C080913004813A09F08F
:103D4000A3C08091E800877F8093E80080913404CD
:103D500090913504892B21F060E080E090E003C071
:103D600060E28EE692E070E00E94CF208091E80051
:103D70008B778093E800089580913004813209F0B8
:103D800083C08091340490913504009719F0029714
:103D900009F07AC08091E800877F8093E8008091E5
:103DA000E80082FD05C080912F048111F8CF6CC01E
:103DB0002091F3008091F20090E0922B029729F479
:103DC0008091F1008B7F813021F48091F10080930C
:103DD0008E028091E8008B7753C080913004813A45
:103DE00009F052C08091340490913504892B09F078
:103DF0004BC08091E800877F8093E8008091E800C5
:103E000080FFFCCF80910C0136C08091300481325C
:103E1000D9F58091340490913504892BA9F58091CE
:103E2000E800877F8093E8000E94C72180913204D8
:103E300080930C010C94B91480913004813221F5E7
:103E40008091E800877F8093E8000E94C7218091DD
:103E5000330480938F02089580913004813AA1F455
:103E60008091E800877F8093E8008091E80080FFE0
:103E7000FCCF80918F028093F1008091E8008E77D3
:103E80008093E8000C94C72108951F93CF93DF938C
:103E9000CDB7DEB7A0970FB6F894DEBF0FBECDBF8B
:103EA00084B7877F84BF88E10FB6F8948093600061
:103EB000109260000FBE80E8809361001092610054
:103EC0000E94860F0E9418220E9475228091E200B3
:103ED00084608093E20078940E94F8240E948C0F02
:103EE00082E091E00E94270F13E080912F0485303B
:103EF00069F40E94511C80912D048823B1F30E9423
:103F0000801C882391F30E942720EFCF0E94920FFC
:103F100080912F04843049F71093E9008091E800E4
:103F200082FFE3CF8091E80085FF0AC040E050E0C7
:103F300060E270E0CE0101960E94862091E001C00F
:103F400090E08091E8008B778093E800992369F2F4
:103F500060E2CE0101960E944906C7CF0C94B01FC3
:103F6000292F332723303105A9F06CF42130310596
:103F700009F448C02230310509F049C08BE590E0D2
:103F80002AED35E048C021323105F9F02232310501
:103F900049F13DC099278130910571F02CF4892BAE
:103FA000B1F5E6EDF5E00DC08230910541F00397E3
:103FB00071F5E0EAF5E005C0EEEBF5E002C0E6EAF7
:103FC000F5E0849190E09F0126C063307105F8F41C
:103FD000FB01EE0FFF1FE35DFE4F2081318189E081
:103FE00090E019C06330710590F4FB01EE0FFF1FE4
:103FF000E95DFE4F20813181FB01EC5DFE4F808148
:1040000090E009C082E190E025E336E004C080E062
:1040100090E020E030E0FA01318320830895089594
:10402000CF93C82F0E940F20C0939002CF91089584
:1040300080912F04843011F482E0089581E0089586
:1040400080919002811102C00C941820089580E1A3
:1040500089BD82E189BD09B400FEFDCF8091D80001
:104060008F7D8093D8008091E00082608093E00093
:104070008091E00081FDFCCF0895CF92DF92EF9216
:10408000FF920F931F93CF93DF937C018B01EA0183
:104090000E94E821811131C0209731F088819981F7
:1040A000081B190BE80EF91EC12CD12C01151105A6
:1040B00019F18091E80085FD14C08091E8008E77A9
:1040C0008093E800209741F0888199818C0D9D1D97
:1040D0009983888385E011C00E94E821882331F309
:1040E0000CC0F70181917F018093F100015011090B
:1040F000FFEFCF1ADF0ADACF80E0DF91CF911F9177
:104100000F91FF90EF90DF90CF900895CF92DF92C4
:10411000EF92FF920F931F93CF93DF937C018B015C
:10412000EA010E94E821811131C0209731F0888195
:104130009981081B190BE80EF91EC12CD12C011511
:10414000110519F18091E80085FD14C08091E80007
:104150008B778093E800209741F0888199818C0DBE
:104160009D1D9983888385E011C00E94E8218823E2
:1041700031F30CC08091F100F70181937F01015070
:104180001109FFEFCF1ADF0ADACF80E0DF91CF917C
:104190001F910F91FF90EF90DF90CF9008952091A5
:1041A0003604309137042617370748F0611571053A
:1041B00039F42091E8002E772093E80001C0B9017E
:1041C000FC0120E061157105B9F180912F0488236D
:1041D00009F440C0853009F43FC08091E80083FDB8
:1041E0003DC08091E80082FF06C08091E80082FF18
:1041F00026C080E008958091E80080FFE3CF209101
:10420000F3008091F20090E0922B6115710551F05E
:104210008830910538F421912093F10061507109A3
:104220000196F3CF21E0089709F020E08091E800A3
:104230008E778093E800C6CF2111C7CFD6CF80916B
:104240002F04882339F0853039F08091E80083FF0E
:10425000CCCF04C082E0089583E0089581E0089502
:1042600020913604309137042617370748F061153E
:10427000710539F42091E8002E772093E80001C001
:10428000B901FC0120E061157105C1F180912F0495
:10429000882309F441C0853009F440C08091E800CA
:1042A00083FD3EC08091E80082FF06C08091E80057
:1042B00082FF27C080E008958091E80080FFE3CF6F
:1042C0002091F3008091F20090E0922B611571052E
:1042D00059F08830910540F424912093F1003196F3
:1042E000615071090196F2CF21E0089709F020E0B2
:1042F0008091E8008E778093E800C5CF2111C6CF6A
:10430000D5CF80912F04882339F0853039F0809102
:10431000E80083FFCBCF04C082E0089583E00895D6
:1043200081E00895982F973058F59093E9009817F9
:1043300039F07091EC002091ED005091F00003C035
:10434000242F762F50E021FF19C03091EB003E7FE3
:104350003093EB003091ED003D7F3093ED003091D4
:10436000EB0031603093EB007093EC002093ED0094
:104370005093F0002091EE0027FF07C09F5FD3CF3E
:104380008F708093E90081E0089580E00895809126
:10439000300487FD05C08091E80080FF0EC012C088
:1043A0008091E80082FD05C080912F048111F8CF33
:1043B00008958091E8008B7708C080912F048111C7
:1043C000EACF08958091E8008E778093E800089501
:1043D0008091E4009091E50045E62091EC0020FFFB
:1043E00021C02091E80020FD21C020912F0422232C
:1043F00089F0253089F02091EB0025FD0FC0209138
:10440000E4003091E5002817390739F3415041F0B5
:10441000C901E3CF82E0089583E0089581E0089523
:1044200084E008952091E80022FFDFCF80E0089526
:104430000E9486220E948E22E0EEF0E08081816060
:104440008083E8EDF0E080818F77808319BCA7ED51
:10445000B0E08C918E7F8C9380818F7E80831092D0
:104460002E0408950F931F93CF93DF930E9486220B
:104470000E948E22C8EDD0E088818F778883888162
:104480008068888388818F7D888319BC10922F046F
:1044900010922B0410922D0410922C0400EE10E0C8
:1044A000F80180818B7F808388818160888342E0EE
:1044B00060E080E00E949221E1EEF0E080818E7F5A
:1044C0008083E2EEF0E0808181608083808188607B
:1044D0008083F80180818E7F8083888180618883DA
:1044E000DF91CF911F910F910895E8EDF0E0808169
:1044F0008F7E8083E7EDF0E080818160808384E0BF
:1045000082BF81E080932E040C943222E8EDF0E02B
:1045100080818E7F80831092E20008951092DA00ED
:104520001092E10008951F920F920FB60F9211247E
:104530002F933F934F935F936F937F938F939F93AB
:10454000AF93BF93EF93FF938091E10082FF0BC085
:104550008091E20082FF07C08091E1008B7F809311
:10456000E1000E94F7248091DA0080FF1FC0809153
:10457000D80080FF1BC08091DA008E7F8093DA0024
:104580008091D90080FF0DC080E189BD82E189BDA5
:1045900009B400FEFDCF81E080932F040E945D1ED0
:1045A00005C019BC10922F040E946B1E8091E1007F
:1045B00080FF19C08091E20080FF15C08091E20069
:1045C0008E7F8093E2008091E20080618093E20020
:1045D0008091D80080628093D80019BC85E08093D8
:1045E0002F040E946F1E8091E10084FF30C08091F3
:1045F000E20084FF2CC080E189BD82E189BD09B45D
:1046000000FEFDCF8091D8008F7D8093D8008091EF
:10461000E1008F7E8093E1008091E2008F7E8093A5
:10462000E2008091E20081608093E20080912B049F
:10463000882311F084E007C08091E30087FF02C067
:1046400083E001C081E080932F040E94701E80915E
:10465000E10083FF29C08091E20083FF25C08091A3
:10466000E100877F8093E10082E080932F04109225
:104670002B048091E1008E7F8093E1008091E20025
:104680008E7F8093E2008091E20080618093E2005F
:1046900042E060E080E00E9492218091F00088601A
:1046A0008093F0000E946E1EFF91EF91BF91AF9139
:1046B0009F918F917F916F915F914F913F912F913A
:1046C0000F900FBE0F901F9018951F920F920FB66C
:1046D0000F9211242F933F934F935F936F937F9388
:1046E0008F939F93AF93BF93CF93EF93FF93C0911B
:1046F000E900CF708091EC001092E9008091F00009
:10470000877F8093F00078940E94A1231092E900A3
:104710008091F00088608093F000C093E900FF91E1
:10472000EF91CF91BF91AF919F918F917F916F91B9
:104730005F914F913F912F910F900FBE0F901F905F
:1047400018951F93CF93DF93CDB7DEB7AA970FB617
:10475000F894DEBF0FBECDBFE0E3F4E08091F1003E
:10476000819324E0E833F207C9F70E94861E809106
:10477000E80083FF24C12091300430913104832F5D
:1047800090E08A30910508F01AC1FC01E255FF4F14
:104790000C941525203821F0223809F010C108C0EA
:1047A00080912C0490912D04992389F082600FC090
:1047B000809134048F70873008F001C18093E90044
:1047C0008091EB0085FB882780F91092E900909199
:1047D000E800977F9093E8008093F1001092F10039
:1047E000CCC0822F8D7F09F0EAC0222319F022303D
:1047F00061F0E5C080913204813009F0E0C03330CF
:1048000009F080E080932D042AC080913204811148
:1048100026C0209134042F708FEF820F863008F06D
:10482000CEC02093E9008091EB0080FF18C08091FA
:10483000EB00333011F4806210C080618093EB0094
:1048400081E090E001C0880F2A95EAF78093EA00A2
:104850001092EA008091EB0088608093EB00109248
:10486000E9008091E800877F8093E8000E94C721DB
:10487000A6C02111A4C0109132041F778091E300DB
:104880008078812B8093E3008091E800877F80937C
:10489000E8000E94C7218091E80080FFFCCF809152
:1048A000E30080688093E300112311F083E001C0EE
:1048B00082E080932F0483C02058223008F07FC00C
:1048C00080913204909133048C3D23E0920779F576
:1048D00083E08A838AE289834FB7F894DE011396D6
:1048E00020E03EE051E2E32FF0E050935700E491E6
:1048F00020FF03C0E295EF703F5FEF708E2F90E0D6
:10490000EA3010F0C79601C0C0968D939D932F5F3B
:10491000243149F74FBF8091E800877F8093E800FA
:104920006AE270E0CE0101960E94CF2015C060912E
:10493000340470913504AE014F5F5F4F0E94AE1F8B
:104940000097E9F12091E800277F2093E800BC015F
:1049500089819A810E9430218091E8008B77809331
:10496000E8002DC0203859F58091E800877F8093BA
:10497000E80080912B048093F1008091E8008E770D
:1049800073CF21111CC0909132049230C0F48091F9
:10499000E800877F8093E80090932B040E94C72152
:1049A00080912B04811104C08091E30087FF02C035
:1049B00084E001C081E080932F040E94721E8091E8
:1049C000E80083FF0AC08091E800877F8093E800B9
:1049D0008091EB0080628093EB00AA960FB6F8946A
:1049E000DEBF0FBECDBFDF91CF911F910895089517
:1049F000CF9380912F048823B1F08091E9008F70CC
:104A00009091EC0090FF02C090E801C090E0C92FA7
:104A1000C82B1092E9008091E80083FD0E94A12339
:104A2000CF70C093E900CF910895EE0FFF1F05905E
:104A3000F491E02D0994F999FECF92BD81BDF89AC9
:104A4000992780B50895A8E1B0E042E050E00C94C9
:104A50004F25262FF999FECF92BD81BDF89A019777
:104A600000B4021639F01FBA20BD0FB6F894FA9AB6
:104A7000F99A0FBE08950396272F0E942A250E94B7
:104A80002925252F0E942A25242F0C942A250196BA
:104A9000272F0E942A250C942925DC01CB01FC013B
:104AA000F999FECF06C0F2BDE1BDF89A319600B487
:0E4AB0000D9241505040B8F70895F894FFCF92
:104ABE004902791DEC1D7C1DB71D7D1D01F595313B
:104ACE003233939267663635349796943730F1F0D9
:104ADE00C6F4F6F7402271DA0647066906EC051EA3
:044AEE0006050600B3
:00000001FF
