:100000000C94FF010C9443020C9443020C944302A1
:100010000C9443020C9443020C9443020C9443024C
:100020000C9443020C9443020C94941D0C94661E91
:100030000C94A3170C9443020C9443020C944302B7
:100040000C9443020C9443020C9443020C9443021C
:100050000C9443020C9416180C9443020C94430223
:100060000C9443020C9443020C9443020C944302FC
:100070000C9443020C9443020C9443020C944302EC
:100080000C9443020C9443020C9443020C944302DC
:100090000C9443020C9443020C9443020C944302CC
:1000A0000C9443020C9443020C944302860289028E
:1000B000030394029C02A802030303030303F20256
:1000C000F502AB02AE02B302C102CF02D202D602E7
:1000D000E402FC040205060509050D0511051505D8
:1000E00019051E05220526052A052D0531053505AC
:1000F00039053D0542057A0D7A0DB40DB40DF70DA5
:10010000420F420F420F190E420FC00EC00E360FA3
:10011000420F420F3D0FCD0ECD0ECD0ECD0ECD0EAA
:10012000CD0ECD0ECD0ECD0ECD0ECD0ECD0ECD0EF7
:10013000CD0ECD0ECD0EDF0EEF0EF60EFD0E070F1F
:10014000D20FD20FE50FE50FDB0FE50FE50FE50F3F
:10015000D20FD20FE10FE50FE50FE10FCB1EF21E1C
:10016000E01FF21EE01F3A1F5D1FE01FB31FC21FFA
:100170005F00600061005C005D005E0059005A0095
:100180005B00620000000000000000002A2B280035
:100190000000000000000000000000000000002936
:1001A000000000002C1E3420212224342627252E76
:1001B000362D3738271E1F202122232425263333AE
:1001C000362E37381F0405060708090A0B0C0D0EDA
:1001D0000F101112131415161718191A1B1C1D2FA6
:1001E0003130232D350405060708090A0B0C0D0EC6
:1001F0000F101112131415161718191A1B1C1D2F86
:100200003130354C0000000000000000000000000C
:1002100000000000000000000000000000000000DE
:1002200000000000000101010101010001010101C4
:1002300000000000000000000000000000000100BD
:10024000010001010101010101010101010101019F
:10025000010101010101010101010101010101008F
:10026000000001010000000000000000000000008C
:10027000000000000000000000000000000000017D
:100280000101010004033000000016035200410088
:100290004D00410020004D00310030002D00420093
:1002A00000001603520041004D0041002E0057008F
:1002B0004F0052004B0053000000040309040902E0
:1002C0005B00030100A0FA09040000010301010022
:1002D0000921110100012240000705810308000ADD
:1002E000090402000103000000092111010001229C
:1002F00071000705840320000A09040100020300BD
:1003000000000921110100012222000705820320BB
:100310000001070503032000011201100100000085
:10032000084152AB000100010203010660FF0961B0
:10033000A1010962150026FF0095207508810209B8
:1003400063150026FF00952075089102C00501097C
:1003500080A10185031601002603001A81002A836B
:1003600000751095018100C0050C0901A1018504EB
:10037000160100269C021A01002A9C0275109501A4
:100380008100C005010906A1018505050719E029BD
:10039000E715002501950875018102050819012955
:1003A00005950575019102950175039101050719E0
:1003B0000029EF1500250195F075018102C00501A6
:1003C0000906A101050719E029E71500250195088F
:1003D000750181029501750881010508190129053A
:1003E00095057501910295017503910105071900A5
:1003F00029FF150026FF00950675088100C011240D
:100400001FBECFEFDAE0DEBFCDBF04B603FE24C0CF
:100410008091E5019091E601A091E701B091E8019A
:100420008730904BA740B04BB9F41092E501109281
:10043000E6011092E7011092E80114BE84B7877FAD
:1004400084BF88E10FB6F89480936000109260003A
:100450000FBEE0E0F8E3099511E0A0E0B1E0E0ECC8
:10046000F0E402C005900D92A632B107D9F711E071
:10047000A6E2B1E001C01D92A53EB107E1F70E94DE
:10048000461A0C945E200C94000080E290E00E94DA
:1004900024208F31954451F482E290E00E941C2088
:1004A00091E0883009F090E0892F01C080E08170F0
:1004B0000895CF93C82F882319F06FE175E402C027
:1004C0006FEF7FEF80E290E00E944820CC2311F094
:1004D00068E001C06FEF82E290E0CF910C942A2097
:1004E00080E00E9459020C944C161F93CF93DF9327
:1004F000EC01162F488150E0FA013197E331F10504
:1005000008F081C0EA5AFF4F0C941620198288E047
:1005100028C08981813009F076C00E94E1179A8352
:100520008B837C836D8371C04B816A8189810E943A
:1005300030099C838D8369C02C8130E0322F2227C3
:100540008D81282B4B816A8189810E9449095DC078
:100550000E9465095AC00E94E10926C00E94E30971
:1005600099838A8352C06B8170E0898190E0982FD3
:1005700088272A81AE014C5F5F4F822B0E94E609DB
:1005800044C06B8170E0898190E0982F88272A8190
:10059000AE014C5F5F4F822B0E940B0A36C00E9457
:1005A000310A33C00E941E0989832FC06B8170E01D
:1005B000898190E0982F88272A81AE014C5F5F4F98
:1005C000822B0E948D0921C06B8170E0898190E0AF
:1005D000982F88272A81AE014C5F5F4F822B0E94A3
:1005E000B00913C00E94700210C00E9434192FEF8E
:1005F00081EE94E0215080409040E1F700C000007F
:100600000E943C1802C08FEF8883612FCE01DF91DA
:10061000CF911F910C9434190E944502811107C09B
:100620000E9465090E94310A81E00C9459020895E4
:100630000E9487088FE19EE40197F1F700C0000057
:100640008FE19EE40197F1F700C000000E94870847
:1006500080E00E94DD0880FF04C00E9470020C94BC
:100660003C1808950E9418030E940C030C945A0829
:100670000C945B08FB0122818031FFE59F0731F07C
:1006800081313FE5930781F482E001C081E02223BC
:1006900019F00E94371402C00E94521443E062E035
:1006A00081E00E9420040EC0222351F09C012251BF
:1006B0003F452031310520F482510E94410A02C099
:1006C0000C94660380E0089581E0089581E0089528
:1006D000CF93282F30E0F901EC57FE4FC491F90178
:1006E000EC5FFD4F2491222359F081EE0E94B10B63
:1006F0008C2F0E94B10B8C2F0E94C90C81EE04C07C
:100700008C2F0E94B10B8C2FCF910C94C90CFF92AF
:100710000F931F93CF93DF93EC01F62E88818823EC
:1007200031F18E010F5F1F4F813031F4C9818C2F61
:100730000E94B10B8C2F0AC0823029F489810E945B
:10074000B10BE80108C0833021F489810E94C90CF3
:10075000F8CF0E94680321968F2D8823F9F2EFE9E4
:10076000FFE03197F1F700C000008150F6CFDF9134
:10077000CF911F910F91FF90089560E00C94870333
:100780004F925F926F927F928F929F92AF92BF92A1
:10079000CF92DF92EF92FF920F931F932B013C01B8
:1007A000C12CD12C7601C394D701C60104C0880F97
:1007B000991FAA1FBB1F4A95D2F7AC01BD01460184
:1007C000570104C0880C991CAA1CBB1C2A95D2F79F
:1007D000482959296A297B29D701C60104C0880FF5
:1007E000991FAA1FBB1F0A95D2F76A017B01C4207B
:1007F000D520E620F720C416D506E606F70639F41C
:10080000BC01CD0164297529862997290AC0BC013C
:10081000CD01609570958095909564217521862114
:1008200097211F910F91FF90EF90DF90CF90BF9095
:10083000AF909F908F907F906F905F904F900895B2
:100840000F93382F262F6091800170918101809144
:10085000820190918301042F432F0E94C0030F91C6
:100860000C9417140E945216811102C00E94C016E7
:100870000C9432030C94380308950C943C040C94AB
:100880003D0408950E94C20F0E9441042FEF84E3AB
:100890009CE0215080409040E1F700C000000C94A3
:1008A0003C18FF920F931F93CF93DF938C01FC01B1
:1008B000C081D18180913D01811113C08281882343
:1008C00049F0CE010E941D15F82E682FCE010E941E
:1008D000C31404C0CE010E94F114F82EBE018F2D66
:1008E00004C0CE010E941D15BE010E94D409EC0176
:1008F000B8010E943A03882309F46DC1C63DFCE5A6
:10090000DF0709F4D1C0B0F4C531ECE5DE0768F4C7
:10091000C230FCE5DF0708F04FC0C1158CE5D807F1
:1009200001F1C130DC4529F149C1C631DC4509F48A
:1009300020C144C1CB3D8CE5D80771F150F4C73DCF
:10094000FCE5DF0709F4D3C0C83DDC4509F4F6C077
:1009500035C1CC3DECE5DE0731F1CD3DDC45A1F004
:100960002DC1F8018281882309F435C10E94420417
:1009700032C1F8018281882309F42DC18091AD0133
:1009800081608093AD0127C1F8018281882309F439
:1009900022C10E94C0161FC1F8018281882309F478
:1009A0001AC180E006C0F8018281882309F413C1CE
:1009B00082E00E94111B0FC1F8018281882309F493
:1009C00002C10E945216811102C00E94C0160E94EC
:1009D000651690E09093D7018093D601FE01E35015
:1009E000FC45E231F10520F4E759FF4F0C94162045
:1009F0008091D601816003C08091D601826080938E
:100A0000D6014BC08091D6018460F9CF8091D60188
:100A100013C08091D6018061F2CF8091D6018062AF
:100A2000EECF8091D6018064EACF8091D6018068B4
:100A3000E6CF8091D60184608860E1CF8091D601B5
:100A40008E7FDDCF8091D6018D7FD9CF8091D60169
:100A50008B7FD5CF8091D60113C08091D6018F7E38
:100A6000CECF8091D6018F7DCACF8091D6018F7B6A
:100A7000C6CF8091D6018F77C2CF8091D6018B7F70
:100A8000877FBDCF9091D60197FB882780F921E021
:100A9000822780FB97F99093D6018091D6010E941E
:100AA00069160E94C20F97C0F8018281882351F015
:100AB00010922B010E94D517909328018093270153
:100AC00082E022C080912B0181110FC0809127010B
:100AD000909128010E94ED17883C910530F486E240
:100AE0000E94B10B86E20E94C90C82E024C0F8018A
:100AF0008281882361F010922C010E94D517909377
:100B00002A018093290180E20E942A0D64C080910D
:100B10002C0181110FC08091290190912A010E941E
:100B2000ED17883C910530F487E20E94B10B87E213
:100B30000E94C90C80E20E94310D4DC0F8018281F3
:100B40008111D9CF80912C018111F4CF809129019D
:100B500090912A010E94ED17883C910558F780E298
:100B60000E94310D88E20E94B10B88E20E94C90CFC
:100B700032C00E949C15382FF8012281809100011B
:100B800090910101222371F03A7A21E009F420E0EA
:100B900020932601222311F065E301C069E20E943F
:100BA0002F1709C020912601222311F065E301C00F
:100BB00069E20E943A170E94E8150DC081E0809317
:100BC0002B0180932C01C801DF91CF911F910F91D0
:100BD000FF900C94640380E0DF91CF911F910F91FF
:100BE000FF90089580E090E008950895880F991F80
:100BF0008C579D4FFC01859194910895CF93DF937D
:100C00000E94D4090E94BB07EC01811520E59207E0
:100C100008F041C0C11580E4D80708F028C1C83EDB
:100C2000D10510F5C03ED10508F0A1C1C83AD105E3
:100C300078F4C53AD10508F0A2C0C130D10509F455
:100C400096C108F447C1C430D10508F090C142C133
:100C5000CF3BD10508F49EC0C03CD10508F43AC191
:100C6000CE01805C9109F5C0C11590E2D90758F416
:100C7000C11521E0D20708F07AC1C03FD10508F4C0
:100C800029C1D06574C1C11580E3D80708F0E5C05B
:100C9000CE019F70DEC0C11595E5D90708F043C0AD
:100CA000C11524E5D20708F0F9C0C11582E5D807BF
:100CB00008F5C11591E5D90708F0DCC02C2F237089
:100CC00081E090E002C0880F991F2A95E2F79C68A6
:100CD0009E01F4E036952795FA95E1F72370922B63
:100CE000CF70C695C69520E2C29FE0011124C82BA3
:100CF000D92B3DC18C2F869586959E012370332775
:100D0000C115D34508F0BBC090E2899FE0011124D2
:100D100081E090E002C0880F991F2A95E2F7C82B66
:100D2000D92BDC6824C1C11529E5D207A0F4C1156F
:100D300088E5D80708F0B7C0C11596E5D90708F0CF
:100D4000C9C08C2F0E9437088F71C82FD0E0DC2FCC
:100D5000CC27D0620CC1C1152AE5D20708F4A8C07F
:100D6000CE0190568115904208F0B4C08D2F8F713E
:100D70000E943708DD27D0628F71D82BF8C0C53AA2
:100D8000D10509F4AAC0C63AD10509F4A9C0C3E83F
:100D9000D0E4EDC0C83AD10509F4A5C0C93AD105DF
:100DA00009F4A4C0CA3AD10509F4A3C0CB3AD105CD
:100DB00009F4A2C0CC3AD10509F4A1C0CB3BD105BE
:100DC00009F4A0C0CC3BD10509F49FC0CD3AD105B0
:100DD00009F49EC0C03BD10509F49DC0CE3AD105AF
:100DE00009F49CC0CF3AD10509F49BC0C13BD105A1
:100DF00009F49AC0C23BD10509F499C0C33BD1059F
:100E000009F498C0C43BD10509F497C0C53BD1058E
:100E100009F496C0C63BD10509F495C0C73BD1057E
:100E200009F494C0C83BD10509F493C0C93BD1056E
:100E300009F492C0CD3BD10509F491C0CE3BD10558
:100E400009F490C0CA3BD10509F08FC0CAE2D6E4CC
:100E50008EC00E94F605EC018AC0CE019927D3FF0F
:100E600003C0EC01D86C83C0EC01D06C80C0DF7093
:100E7000D06A7DC0DC2FCC27C16FD06A78C090E2E9
:100E8000899FE001112481E090E002C0880F991F42
:100E90002A95E2F7C82BD92BDA6869C0DC2FCC275A
:100EA000C46FD06A64C0DC2FCC27C06FD06A5FC02B
:100EB0008C2F8F700E94370834E0D695C7953A95ED
:100EC000E1F7CF70D0E0DC2FCC27D06A8F70806E36
:100ED000C82B4DC0C0E0D0E04AC0C1E8D0E447C054
:100EE000C2E8D0E444C0C2EED4E441C0C9EED4E4C8
:100EF0003EC0CAEED4E43BC0C5EBD4E438C0C6EB78
:100F0000D4E435C0C3EBD4E432C0C4EBD4E42FC086
:100F1000C7EBD4E42CC0CCECD4E429C0CDECD4E4B1
:100F200026C0C3E8D5E423C0CAE8D5E420C0C2E99E
:100F3000D5E41DC0C4E9D5E41AC0C1E2D6E417C0A7
:100F4000C3E2D6E414C0C4E2D6E411C0C5E2D6E4DC
:100F50000EC0C6E2D6E40BC0C7E2D6E408C0CFE6B6
:100F6000D4E405C0C0E7D4E402C0C0E0D4E4CE01BC
:100F7000DF91CF9108958238910549F1B0F4813322
:100F8000910509F459C048F48932910509F44FC01C
:100F90008A32910509F455C008958533910509F405
:100FA00041C08933910599F00895833E910531F14F
:100FB00038F4803E910591F0823E9105A9F00895A4
:100FC000863E910501F1873E910539F10895209102
:100FD000D60120FD3BC021FD39C008958091D60186
:100FE00080FF34C089E341C08091D60182FF32C0C6
:100FF0008091D60184FF2CC080E037C08091D6015B
:1010000082FD28C0F5CF8091D60183FF25C0809155
:10101000D60184FDF1CF87EE28C08091D60183FDF3
:101020001BC0F5CF8091D60185FF18C019C08091F3
:10103000D60185FF15C012C08091D60186FF12C06F
:1010400013C08091D60186FF0FC00CC080EE0DC08A
:1010500083EE0BC082EE09C086EE07C085E305C0B3
:1010600089E203C081E301C08AE290E00895909193
:10107000D60192FF0DC0282F2871283019F4877FE0
:10108000846006C0282F2471243011F48B7F88607F
:1010900093FF0DC0282F2871283119F4877E8461B1
:1010A00006C0282F2471243111F48B7E886194FDB1
:1010B000877E0895089508956E98ADE0B1E021E02F
:1010C00030E08D91E82FE295EF70F0E041A18F7054
:1010D000B90102C0660F771F8A95E2F7CB01962F00
:1010E0009095492341A392A1982B92A371E0A73137
:1010F000B70739F71092300110922F0110922E018C
:1011000010922D0181E00E94E7080C9432041F9395
:10111000CF93DF9340912F01509130011092300115
:1011200010922F016E9A769880EA8A95F1F7EDE099
:10113000F1E080E090E0A1E0B0E01191C12FC29514
:10114000CF70D0E028A160912F017091300130E084
:101150001F7002C0359527951A95E2F720FD08C04B
:101160009D01082E02C0220F331F0A94E2F702C02D
:1011700020E030E0262B372B3093300120932F01D5
:1011800001968A309105C9F66E98769A21E0809191
:101190002F01909130014817590709F420E041E0F0
:1011A0006DE271E08FE291E00E94E8080E943A044B
:1011B00081E0DF91CF911F910895E82FF0E0EE0FCD
:1011C000FF1FE35DFE4F808191810895089508958A
:1011D000FF920F931F93CF93DF93D82FC92FF62E33
:1011E000072F142F222349F081E0809333010E94BE
:1011F000D517909332018093310180913301882378
:10120000B9F080913101909132010E94ED1706975B
:1012100078F0ED2FFC2FAF2DB02F20E0211731F00B
:10122000819191918D939D932F5FF8CF109233010F
:10123000DF91CF911F910F91FF90089584E0089561
:1012400050E0440F551F94E1699F400D511D11243A
:1012500094E1899F400D511D1124CA018396089580
:101260000F931F93CF93DF930E942009EC010E94FC
:101270001C20082F10E0102F0027CE0101960E949D
:101280001C209801282BC901DF91CF911F910F914C
:1012900008950F931F93CF93DF9300D0CDB7DEB7A0
:1012A0002A8339830E9420098C013981632F0E948F
:1012B0002A202A81622FC80101960F900F90DF919A
:1012C000CF911F910F910C942A20FF920F931F939F
:1012D000CF93DF93F12C00E010E0C0E0D0E0FE01FE
:1012E000E00FF11FEE0FFF1FE059FE4F25913491E3
:1012F0004C2F60E08F2D0E9449092196CA30D105FC
:1013000071F7065F1F4FF39484E0F812E6CFDF9188
:10131000CF911F910F91FF900895EF92FF920F933D
:101320001F93CF93DF937B01EA01E40EF51E8C013E
:10133000C8018396CE15DF0561F00035110520F454
:101340000E941C20888301C0188221960F5F1F4FC6
:10135000EFCFDF91CF911F910F91FF90EF90089504
:10136000EF92FF920F931F93CF93DF938B017A013C
:10137000080F191FEC01E81AF90ACE018396C0176D
:10138000D10759F0C035D10530F4F701EC0FFD1F3E
:1013900060810E942A202196F0CFDF91CF911F918A
:1013A0000F91FF90EF900895462F843038F471111B
:1013B00005C06A3018F460E00C94300980E090E0D9
:1013C000089580E108958DE893E00895EF92FF92EB
:1013D0000F931F93CF93DF937B01EA01E40EF51E79
:1013E0008C01C8018D589F4FCE15DF0569F00D386F
:1013F00023E0120720F40E941C20888301C0188279
:1014000021960F5F1F4FEDCFDF91CF911F910F916D
:10141000FF90EF900895EF92FF920F931F93CF9359
:10142000DF938B017A01080F191FEC01E81AF90A02
:10143000CE018D589F4FC017D10761F0CD3823E002
:10144000D20730F4F701EC0FFD1F60810E942A20C3
:101450002196EECFDF91CF911F910F91FF90EF90EA
:101460000895CF93DF93C3E7D0E060E0CE010E9400
:101470002A202196C11584E0D807B9F7DF91CF91D2
:101480000895FF920F931F93CF93DF9300D0CDB7B2
:10149000DEB7F82E8FE08F1530F18FEF93E00E94CA
:1014A0001C20811120C003E710E0FF2069F0011526
:1014B00084E01807C1F0C8010E941C20811101C0FE
:1014C000FA940F5F1F4FF1CF19821A82C8010E9450
:1014D0001C208983882339F0CE0101960E94BD0328
:1014E0000F5F1F4FF3CF0F900F90DF91CF911F91A0
:1014F0000F91FF90089590933901809338010895DA
:10150000E0913801F0913901309721F00190F0819C
:10151000E02D099480E00895E0913801F0913901BF
:10152000309799F020910C01222359F02091D60197
:1015300027FF07C0DC012C9111962C93119725E011
:101540002C930280F381E02D0994089520913601B7
:10155000309137018217930771F090933701809390
:101560003601E0913801F0913901309721F0068081
:10157000F781E02D099408952091340130913501CF
:101580008217930771F09093350180933401E091B5
:101590003801F0913901309721F00084F185E02D78
:1015A0000994089585B7806885BF85B7806885BF31
:1015B000089508950E94D20A0C94D90A81E00895F2
:1015C0000E94CC170E945C080C946118CF92DF92A5
:1015D000EF92FF920F931F93CF93DF93CDB7DEB7B8
:1015E0002A970FB6F894DEBF0FBECDBF0E948708C2
:1015F0000E94DE0A882309F447C080E00E94DD08CB
:101600006C0100913B0110913C010827192701153D
:101610001105D1F18091AD0181FD0E94E60820E025
:1016200030E081E090E07C01022E02C0EE0CFF1C55
:101630000A94E2F7A70140235123452B01F12E83A1
:101640001F82CE20DF2081E0CD2809F480E088874A
:101650000E94D5178160782F9A8789874E815F8194
:1016600068858A850E947D0B80913B0190913C01A9
:101670008E259F2590933C0180933B0115C02F5FE1
:101680003F4F2A30310579F68FEF89838A831B8299
:101690000E94D5178160782F9D838C8349815A8160
:1016A0006B818D810E947D0B10913A010E94800A0E
:1016B0001817A1F00E94800A80933A012A960FB66B
:1016C000F894DEBF0FBECDBFDF91CF911F910F9178
:1016D000FF90EF90DF90CF900C943F042A960FB6C6
:1016E000F894DEBF0FBECDBFDF91CF911F910F9158
:1016F000FF90EF90DF90CF900895CF93DF93CDB719
:10170000DEB72B970FB6F894DEBF0FBECDBF4F8369
:10171000588769877A878B87DE01119686E0FD01FD
:1017200011928A95E9F785E0FE01379601900D92B6
:101730008A95E1F749815A816B817C818D819E81F7
:101740000E949F122B960FB6F894DEBF0FBECDBF3E
:10175000DF91CF910895FC01808191810E945D15F8
:101760000895882309F414C18238C1F40E94800AC4
:1017700081FD0EC169E380910001909101010E94F9
:101780002F170E94E8152FEF81EE94E02150804042
:101790009040E1F700C0000069E319C08338F9F414
:1017A0000E94800A80FDF4C063E580910001909161
:1017B00001010E942F170E94E8152FEF81EE94E09F
:1017C000215080409040E1F700C0000063E5809127
:1017D0000001909101010E943A170C94E815843899
:1017E000C1F40E94800A82FDD3C067E480910001A9
:1017F000909101010E942F170E94E8152FEF81EEB2
:1018000094E0215080409040E1F700C0000067E480
:10181000DECF9CEF980F913A40F4682F8091000141
:10182000909101010E942F17D8CF90E2980F983025
:1018300050F4877091E001C0990F8A95EAF7892FDB
:101840000E949F15CACF9BE5980F933070F4853A9C
:1018500029F0863A31F482E890E005C081E890E012
:1018600002C083E890E00C94A60A98E5980F97319F
:1018700008F08EC0883A09F445C0893A09F445C099
:101880008A3A09F445C08B3A09F445C08C3A09F408
:1018900045C08B3B09F445C08C3B09F445C08D3AEB
:1018A00009F445C0803B09F445C08E3A09F445C0AF
:1018B0008F3A09F445C0813B09F445C0823B09F4E5
:1018C00045C0833B09F445C0843B09F445C0853BD2
:1018D00009F445C0863B09F445C0873B09F445C07F
:1018E000883B09F445C0893B09F445C08D3B09F4A8
:1018F00045C08E3B09F445C08A3B09F045C08AE2E9
:1019000092E044C082EE90E041C089EE90E03EC09B
:101910008AEE90E03BC085EB90E038C086EB90E02B
:1019200035C083EB90E032C084EB90E02FC087EBB2
:1019300090E02CC08CEC90E029C08DEC90E026C0AB
:1019400083E891E023C08AE891E020C082E991E039
:101950001DC084E991E01AC081E292E017C083E2E1
:1019600092E014C084E292E011C085E292E00EC0E1
:1019700086E292E00BC087E292E008C08FE690E03A
:1019800005C080E790E002C080E090E00C94BC0AC3
:101990000895882309F45DC0823879F40E94800A92
:1019A00081FF57C069E380910001909101010E947D
:1019B0002F170E94E81569E310C08338B1F40E9424
:1019C000800A80FF46C063E580910001909101018B
:1019D0000E942F170E94E81563E580910001909105
:1019E00001010E943A170C94E815843879F40E949A
:1019F000800A82FF2EC067E480910001909101016E
:101A00000E942F170E94E81567E4E7CF9CEF980F1C
:101A1000913A10F4682FE1CF90E2980F983050F48B
:101A2000877091E001C0990F8A95EAF7892F0E948B
:101A3000A515D9CF9BE5980F933020F480E090E076
:101A40000C94A60A885A873120F480E090E00C9428
:101A5000BC0A0895882321F00E949F150C94E81574
:101A60000895882321F00E94A5150C94E815089587
:101A70008F929F92BF92CF92DF92EF92FF920F933D
:101A80001F93CF93DF9300D0CDB7DEB74C01472F24
:101A9000FC01C580C2949FE0C922D280DD2031F0D4
:101AA00079836A830E94BC156A81498149836A836C
:101AB0000E94951549816A81882389F0DD2079F09B
:101AC00080E2860F883058F082E00E9433160E9430
:101AD0009515BB24B394B82649816A8101C0B12C05
:101AE000E42EE2948FE0E822F12CF701E558FF4F55
:101AF0000C941620842F807F142F1F70882311F0E0
:101B00001295107FDD20C1F0112309F49AC180E203
:101B1000860F883010F0611105C0812F6A830E9402
:101B20009F1504C0812F6A830E94AF156A816A8362
:101B30000E94E8156A8185C1862F6A830E94C90CBC
:101B40006A81112309F49EC180E2860F883010F06B
:101B5000611104C0812F0E94A51503C0812F0E942E
:101B6000B5150E94E8158EC1842F807F142F1F7039
:101B7000803211F01295107F662319F06130D9F090
:101B800026C0DD2079F0CC2049F0F1E0CF1206C06C
:101B90000E94CF15812B0E94D51574C10E94CF15CC
:101BA000812B04C1CC2021F021E0C21609F46AC1C6
:101BB0000E94DE1500C1DD2029F085E08C1508F4B7
:101BC00061C1F3C094E09C1508F45CC1F4C0DD2051
:101BD00051F0CC2009F4E9C0F401858180FF31C1C6
:101BE0008F708583E2C0CC2009F4E5C03BC1242F6F
:101BF00026952695237030E02115310521F02130FE
:101C0000310561F03FC1DD2021F0862F942F9370C4
:101C100002C080E090E00E94A60A44C1DD2021F0CD
:101C2000862F942F937002C080E090E00E94BC0A3F
:101C300039C1842F837009F04EC0D1102FC1262FD7
:101C4000229526952770220F220F862F8F70C82E7F
:101C5000D12CE12CF12C022E04C0CC0CDD1CEE1C8E
:101C6000FF1C0A94D2F764FF10C06FE070E080E0C0
:101C700090E004C0660F771F881F991F2A95D2F73E
:101C8000609570958095909503C060E070E0CB0101
:101C9000242F26952695237030E02230310569F0F7
:101CA0002330310589F06C297D298E299F29213027
:101CB000310571F00E94F013F1C06C297D298E2945
:101CC0009F290E940214EAC00E94F013C701B601C6
:101CD0000E94DE13E3C0DD2019F0842F817001C063
:101CE0008695882309F4DAC0262F22952695277039
:101CF000220F220F862F8F70C82ED12CE12CF12CB1
:101D0000022E04C0CC0CDD1CEE1CFF1C0A94D2F782
:101D100064FF10C06FE070E080E090E004C0660FE8
:101D2000771F881F991F2A95D2F760957095809527
:101D3000909503C060E070E0CB01242F2695269596
:101D4000237030E02230310569F02330310589F00D
:101D50006C297D298E299F292130310571F00E943F
:101D60009E149CC06C297D298E299F290E94B01445
:101D700095C00E949E14C701B6010E948C148EC0AB
:101D8000062F10E0F801E05EF109E531F10508F0F9
:101D900054C0E557FF4F0C941620162F1F70842F48
:101DA0008F71DD2031F00E943714812F0E942A0D9F
:101DB00069C00E945214812F0E94310D63C0DD2042
:101DC00049F0F4E0FC1508F45DC0842F8F710E9487
:101DD000711458C025E02C1508F454C0F6CFDD204E
:101DE00039F0842F8F710E9437144CC0DD20C9F365
:101DF000842F8F710E94521445C0DD2029F0842F5A
:101E00008F710E9428143EC00E9423143BC0DD2025
:101E100051F0142F1F71812F0E94371463E0812F1E
:101E20000E941E162FC081E00E94331681E08C159F
:101E300048F582E00E94331625C0DD2031F0CC2029
:101E400081F2862F0E94B10B1DC0CC2089F269332C
:101E500049F49FEFE7EEF3E09150E040F040E1F706
:101E600000C00000862F0E94C90C0CC04F70C40136
:101E70000E94F2050E944C1315C04F70C4010E94CD
:101E8000F50510C028E0E216F10441F05CF09AE09C
:101E9000E91AF108E2E0EE16F10420F40E94800A4B
:101EA0000E943F04BB20F1F00E94911580FD1AC0F2
:101EB000F40112820E948B150E943714C4010E9403
:101EC000800F0E948B150F900F90DF91CF911F9183
:101ED0000F91FF90EF90DF90CF90BF909F908F90E9
:101EE0000C9452140F900F90DF91CF911F910F918E
:101EF000FF90EF90DF90CF90BF909F908F900895CC
:101F00000F931F93CF93DF93EC01288139818B814D
:101F10009C81892B31F03F3F11F080E003C02F3FBF
:101F2000E1F781E0811113C0CE010E9451048823A2
:101F300071F0688179818A810E9468158C010E9404
:101F4000C2140E94DB13B801CE010E94380DDF914C
:101F5000CF911F910F9108950E94BC150E94CC153E
:101F60000E94E81580E090E00E94A60A80E090E0E0
:101F70000C94BC0A80910001909101010E944517C8
:101F80000C94AC0F0E94AC150C94BA0FE92FE2959B
:101F9000EF70F0E03297EE30F105B8F4E056FF4F05
:101FA0000C941620803F59F018F4803E70F407C05E
:101FB000843F59F404C0803E10F0813F31F481E049
:101FC000089593FB882780F9089580E008950E9482
:101FD0005D150E94C60F0895CF93DF9300D000D007
:101FE0001F92CDB7DEB70F900F900F900F900F900C
:101FF000DF91CF910895CF93DF9300D000D000D030
:10200000CDB7DEB726960FB6F894DEBF0FBECDBFB4
:10201000DF91CF9108951F93CF93DF93C0913E013D
:1020200016E080913F01C81799F0D0E01C9FF001A5
:102030001D9FF00D1124E05CFE4F408151816281B3
:102040007381848195810E94FB0F2196C770E9CF2F
:10205000DF91CF911F9108954091700150917101CE
:10206000609172017091730180917401909175017A
:102070000C94FB0FCF938091750182958F7009F0BE
:102080005FC080917201882309F45AC020913E01FB
:10209000A0913F0160917001709171018091730175
:1020A0009091740131E06F3F09F030E0B32FC6E04A
:1020B0002A1709F445C0009721F07F3F21F44B2FE8
:1020C00003C041E001C040E030E040FD35C0C29FA8
:1020D000F001C39FF00D1124E05CFE4F41817413A9
:1020E0002BC04081641328C04281411125C0438127
:1020F00054814817590710F441505109481B590B96
:10210000483C5105C8F4809175018F7080618093BF
:10211000750186E0829FF001839FF00D1124EB5B37
:10212000FE4F80818F708061808380E791E00E9404
:10213000800FCF910C940B102F5F3F4F2770B8CFBB
:10214000CF910895CF92DF92EF92FF920F931F935A
:10215000CF93DF93CDB7DEB762970FB6F894DEBFAB
:102160000FBECDBF8C0185E0F801DE011D96019008
:102170000D928A95E1F7D8014C9111965C911197D7
:1021800012966C9112971396ED90FC9014977091A3
:102190007001E0917101209173013091740121155A
:1021A000310531F0EF3F31F481E07F3F19F403C096
:1021B00081E001C080E0B82FB170CB2E80FD6BC1F3
:1021C000D0907201DD2009F4F5C0F0917501E2169E
:1021D000F30638F0C701821B930B883C910548F049
:1021E0009DC0209530952E0D3F1D283C310508F0EF
:1021F00095C08F2F807F09F052C0E51314C074136F
:1022000012C0D62E61110FC0FF70F061F0937501FE
:102210000E942C1080E791E00E94800F8091750150
:10222000F80185837CC1EF2831F05F3F31F481E014
:102230004F3F19F403C081E001C080E080FD03C07E
:1022400081E0862701C080E0F82FF170FF2E80FF2B
:102250001CC080913E0120913F0136E0821709F4B5
:1022600038C190E0389FF001399FF00D1124E05CF7
:10227000FE4F7181571306C07081471303C07281EE
:10228000671303C001968770E9CFD62E662309F441
:1022900046C18091750181608093750155C0E51339
:1022A00008C0741306C0611104C0D8011596FC93D0
:1022B000AEC04D875E878D859E856A8B0E94E70F35
:1022C0006A89882329F1D62E662311F120917501A0
:1022D000822F82958F7090E002970CF462C08091FB
:1022E00070019091710198878F831986FB86EA8629
:1022F0002C87CE01079653C0E51741F14D875E87C5
:102300008D859E856A8B0E94E70F6A89811130C096
:10231000C8010E94800FDD24D39401C18F2F807FDC
:1023200059F77E2DF98AE88A89890E94EC0F80E7A7
:1023300091E00E94800FE0E7F1E086E0DF011D926E
:102340008A95E9F70E942C10D12CE9C07413D6CFDE
:102350006111D4CFD8011596FC93C8010E94800F5B
:10236000E0E7F1E086E0DF011D928A95E9F7D7C04A
:10237000D62E662369F220917501822F82958F7087
:1023800090E0029774F080917001909171019A83AE
:1023900089831B82FD82EC822E83CE0101960E94EE
:1023A000800F86E0F801A0E7B1E001900D928A95D8
:1023B000E1F78AC0E216F30628F0C701821B930BEF
:1023C0009C0104C0209530952E0D3F1D283C310501
:1023D00008F053C0D62E662309F49ACFE5132CC01B
:1023E00074132AC08091750180FD1DC0982F9295AD
:1023F0009F70C9F0D80115968C9315979F3039F0CE
:102400009F5F9295907F8F70892B15968C93C80152
:102410000E94800F86E0F801A0E7B1E001900D92E4
:102420008A95E1F753C086E0F801A0E7B1E001909A
:102430000D928A95E1F773C04D875E878D859E85E5
:102440000E94E70F882381F096E0F801A0E7B1E051
:1024500001900D929A95E1F78A8B0E943A100E94A2
:102460002C108A89D82E5BC0809175018160809381
:102470007501C8010E94800F52C07E2DF98AE88A3A
:1024800089890E94EC0FE0E7F1E086E0DF011D9210
:102490008A95E9F71BC0662309F43ACF4D875E871A
:1024A0008D859E850E94E70FD82E882309F430CFB2
:1024B00086E0F801A0E7B1E001900D928A95E1F77E
:1024C00080E791E00E94AB0B0E943A100E942C1012
:1024D00026C04D875E878D859E850E945D15292FBC
:1024E00022952F7030E0223031052CF49F7041F09E
:1024F000811106C00CC0243031052CF49F7049F4C2
:10250000805E883020F0C8010E94800FCF2CDC2C28
:1025100006C0D80115969C91907F91F7F8CF8D2D2C
:1025200062960FB6F894DEBF0FBECDBFDF91CF919C
:102530001F910F91FF90EF90DF90CF9008951F9320
:10254000CF93DF93CDB7DEB72C970FB6F894DEBFED
:102550000FBECDBF4F83588769877A878B879C874B
:10256000CE0107960E94A2108823C1F02F813885E2
:102570008A859B85892B31F03F3F11F080E003C0B5
:102580002F3FE1F781E0811147C04F815885698570
:102590007A858B859C850E94FB0F3EC086E0FE01FC
:1025A0003796DE01119601900D928A95E1F7FF8131
:1025B000E8854A855B854115510531F0EF3F31F4DF
:1025C00081E0FF3F19F403C081E001C080E080FD9D
:1025D00023C020913F0130E0C901019687709927FF
:1025E00060913E0170E086179707F1F1F983EA8365
:1025F0005D834C8396E0929FD001939FB00D112490
:10260000A05CBE4FFE01319601900D929A95E1F7C4
:1026100080933F010E940B1016E080913E01909143
:102620003F01891779F1189FC0011124805C9E4FEA
:102630000E94A210882331F1E0913E011E9FF0011B
:102640001124E05CFE4F408151816281738184815D
:1026500095810E94FB0F80913E0190E0019687706A
:10266000992780933E01D9CF0E94C20F10923F015B
:1026700010923E01E0E7F1E086E0DF011D928A95CD
:10268000E9F7CACF2C960FB6F894DEBF0FBECDBFC8
:10269000DF91CF911F910895EF92FF920F931F93B7
:1026A000CF93DF93FC01009709F46FC0F12CEE2467
:1026B000E394EF0121968491843740F4843008F04C
:1026C00055C0813081F0823021F15FC0853709F437
:1026D00047C0C0F19CE7980F903708F056C08F773D
:1026E0000E94C90C45C08F010E5F1F4FFE018491EF
:1026F00090E2980F983050F48770FE2D01C0FF0FC4
:102700008A95EAF78F2F0E94BF1515C00E94B10B62
:1027100014C08F010E5F1F4FFE01849190E2980F4D
:10272000983068F48770FE2D01C0FF0F8A95EAF794
:102730008F2F0E94C5150E94E815E80119C00E945C
:10274000C90CFBCFCF010296FE01C491CC2361F0EE
:10275000EFE9FFE03197F1F700C00000C150F6CF7C
:10276000CF010296FE01F490EC0102C00E94B10B71
:102770008F2D882341F0EFE9FFE03197F1F700C09A
:1027800000008150F6CFFE0194CFDF91CF911F91D1
:102790000F91FF90EF90089508950C94CC130E9430
:1027A000CD1360938401709385018093860190938B
:1027B00087010C94AC0F08950C94CF130F931F93C3
:1027C000009184011091850120918601309187014B
:1027D000602B712B822B932B1F910F910C94CF1395
:1027E0000F931F9300918401109185012091860120
:1027F0003091870160237123822393231F910F91CE
:102800000C94CF130F931F930091840110918501B5
:1028100020918601309187016027712782279327B5
:102820001F910F910C94CF1308950C9414140E94CF
:1028300015146093800170938101809382019093BD
:1028400083010C94AC0F60E070E0CB010C94171482
:1028500041E050E060E070E004C0440F551F661F87
:10286000771F8A95D2F7CB01BA010C94171441E077
:1028700050E060E070E004C0440F551F661F771FF2
:102880008A95D2F78091800190918101A091820177
:10289000B0918301482B592B6A2B7B2BCB01BA01BA
:1028A0000C94171441E050E060E070E004C0440F65
:1028B000551F661F771F8A95D2F7409550956095F2
:1028C00070958091800190918101A0918201B091D9
:1028D0008301482359236A237B23CB01BA010C943B
:1028E000171441E050E060E070E004C0440F551F51
:1028F000661F771F8A95D2F78091800190918101A0
:10290000A0918201B0918301482759276A277B272C
:10291000CB01BA010C9417140F931F9300918001FF
:10292000109181012091820130918301602B712BE4
:10293000822B932B1F910F910C9417140F931F93BD
:1029400000918001109181012091820130918301D9
:1029500060237123822393231F910F910C941714EA
:102960000F931F93009180011091810120918201AA
:102970003091830160277127822793271F910F9140
:102980000C94171408952AE0929F800D1124482F6B
:102990004695469546958770B1E001C0BB0F8A9574
:1029A000EAF785E0489FA00111244A585E4F80E075
:1029B00090E070E0FA01E80FF91FA0819B01082E5A
:1029C00002C0369527950A94E2F7217033272195A6
:1029D0002A272B232A27208301968530910551F73A
:1029E00008952AE0929F800D1124682F66956695C0
:1029F0006695982F977085E0689FB00111246A58FA
:102A00007E4F40E050E080E0FB01E40FF51F2081A5
:102A100030E0092E02C0369527950A94E2F721701E
:102A20003327042E01C0220F0A94EAF7822B4F5F4E
:102A30005F4F4530510541F70895CF92DF92EF92F5
:102A4000FF920F931F93CF93DF93EC01C09084010B
:102A5000D0908501E0908601F090870180918001FF
:102A600090918101A0918201B0918301C82AD92A55
:102A7000EA2AFB2A0FE110E0B701A601002E04C0EC
:102A800076956795579547950A94D2F740FD05C00E
:102A90000150110988F780E007C0BE01802F0E9415
:102AA000FE050197A9F3802FDF91CF911F910F9120
:102AB000FF90EF90DF90CF900895CF93DF93EC01DC
:102AC0000E941D15BE010E94FE05DF91CF91089561
:102AD0001F93CF93DF93EB0190913D01992321F058
:102AE000CB010E945D1513C0882349F0CB010E94E1
:102AF0001D15182F682FCE010E94C31404C0CB01EE
:102B00000E94F114182FBE01812F0E94FE05DF9153
:102B1000CF911F9108958091880185958595859520
:102B20000895809188018770089590918801977029
:102B300081E009F480E008958091AC0108959091BE
:102B4000AC01982B9093AC01089580959091AC01C5
:102B500098239093AC0108951092AC010895909140
:102B6000AB01982B9093AB01089580959091AB01A8
:102B700098239093AB0108951092AB010895909122
:102B8000AA01982B9093AA01089580959091AA018B
:102B900098239093AA0108951092AA010895809114
:102BA0008901089508950C94D21590918901981780
:102BB00021F0809389010C94D315089580918901A7
:102BC000882329F01092890180E00C94D315089590
:102BD000E0910001F09101018091AC018083E091CE
:102BE0000001F091010180819091AB01892B8083DC
:102BF000E0910001F091010180819091AA01892B5F
:102C0000808390918901992381F0E0910001F091F6
:102C100001018081892B80838091000190910101C5
:102C20000E94C21681110E94DE15809100019091D0
:102C300001010C948C0A08950C941B1698E0899F4E
:102C400090011124622B609388010E9437148091B7
:102C500088018595859585950C941C1610928801A0
:102C600080E00C941C164091880180958423809309
:102C70008801982F977079F450E0282F332727FD8B
:102C800030954217530739F08595859585950E94B3
:102C900052140C942E1608956FEF7FEF80E090E0B1
:102CA0000C94482080E090E00E94242021E08D3E9A
:102CB0009E4F09F020E0822F089582E090E00C946E
:102CC0001C2083E090E00C941C2084E090E00C94A5
:102CD0001C20682F84E090E00C942A20AB01BC01FA
:102CE0008FE090E00C943C20AB01BC0183E190E0CC
:102CF0000C943C2060E070E0CB010C94741660E012
:102D000070E0CB010E946E160C947A166DEE7EEF89
:102D100080E090E00E94482060E082E090E00E9425
:102D20002A2060E083E090E00E942A201092840133
:102D300010928501109286011092870160E084E074
:102D400090E00E942A2060E085E090E00E942A2026
:102D500060E086E090E00E942A206FEF87E090E03C
:102D60000E942A2040E050E0BA0188E090E00E94F2
:102D70003C2060E08DE090E00E942A200C947F16B9
:102D80000C948616029620910C01211102C026E0B7
:102D900005C02091D60127FFFACF2EE1FC0180E08B
:102DA000215028F091919923D9F38F5FF9CF08959D
:102DB00020E030E04FEFFC01E20FF31F5281561785
:102DC00099F04F3F19F4511101C0422F2F5F3F4F2F
:102DD0002630310581F74F3F39F0FC01E40FF11D3A
:102DE00047FDFA9562830895089520E030E0FC01E4
:102DF000E20FF31F4281461301C012822F5F3F4F43
:102E000026303105A1F70895262F2695269526957B
:102E10002E3170F4FC01E20FF11D677021E030E00B
:102E2000062E01C0220F0A94EAF78281822B828348
:102E30000895262F2695269526952E3178F4FC01A7
:102E4000E20FF11D677021E030E0062E01C0220F75
:102E50000A94EAF7209582812823228308952091FD
:102E60000C01222329F02091D60127FD0C94041790
:102E70000C94D81620910C01222329F02091D60120
:102E800027FD0C9419170C94F51620910C01FC01E8
:102E90003296222331F08091D60187FF02C08EE165
:102EA00001C086E0DF011D928A95E9F70895089533
:102EB0000C9457170E9458178091DC01843031F12F
:102EC0001092AE0120E488E190E00FB6F894A89546
:102ED000809360000FBE2093600080E00E943F045A
:102EE0000E94581783B7817F846083BF83B7816056
:102EF00083BF7894889583B78E7F83BF88E10FB6B0
:102F0000F89480936000109260000FBE08950895B9
:102F100008950E9487170E9487080E94881780E002
:102F20000E94DD0821E0892B09F420E0822F08951A
:102F300008950C9498170E94C20F0E94800A0E9464
:102F40003F040C9499171F920F920FB60F92112401
:102F50008F939F93AF93BF938091AE01811113C064
:102F60008091D2019091D301A091D401B091D5016B
:102F70004196A11DB11D8093D2019093D301A093DE
:102F8000D401B093D501BF91AF919F918F910F90D4
:102F90000FBE0F901F90189582E084BD93E095BD01
:102FA0009AEF97BD80936E0008952FB7F8948091A3
:102FB000D2019091D301A091D401B091D5012FBF3E
:102FC00008952FB7F8946091D2017091D301809148
:102FD000D4019091D5012FBF0895CF92DF92EF9247
:102FE000FF920F931F932FB7F8944091D201509105
:102FF000D3016091D4017091D5012FBF6A017B018B
:10300000EE24FF248C0120E030E0C016D106E20659
:10301000F30610F441505109481B590BCA011F9186
:103020000F91FF90EF90DF90CF90089578941F92CA
:103030000F920FB60F9211248F939F93AF93BF936C
:103040008091D2019091D301A091D401B091D5018A
:103050000196A11DB11D8093D2019093D301A0933D
:10306000D401B093D501BF91AF919F918F910F90F3
:103070000FBE0F901F90189581E08093E00080E2D2
:103080008093D8001092C9008FE19EE40197F1F778
:1030900000C0000087E090EBDC018093E501909395
:1030A000E601A093E701B093E8012CE088E190E00D
:1030B0000FB6F894A895809360000FBE209360002F
:1030C000FFCF0E945216811102C00E94C0160E94BA
:1030D0005D168093AD010E94651690E09093D70134
:1030E0008093D6010E946116682F70E080E090E026
:1030F0000C94DC138091CF01089508950F931F93D2
:10310000CF93DF9300D01F92CDB7DEB78C010E9422
:10311000211B823011F0843019F584E089831B83F0
:103120000A838093E9008FEF9091E800815095FD2C
:1031300006C095ED9A95F1F700008111F5CF8091C9
:10314000E80085FF0DC040E050E063E070E0CE0194
:1031500001960E943E1B8091E8008E778093E800E4
:103160000F900F900F90DF91CF911F910F910895C5
:10317000CF93DF9300D01F92CDB7DEB72091DC0153
:10318000243029F533E03983805891099B838A8361
:103190002093E9008FEF9091E800815095FD06C0E3
:1031A00095ED9A95F1F700008111F5CF8091E80037
:1031B00085FF0DC040E050E063E070E0CE01019675
:1031C0000E943E1B8091E8008E778093E8000F906C
:1031D0000F900F90DF91CF910895CF93DF93EC0183
:1031E0000E94211B823011F08430D9F580910C01AE
:1031F000811103C068E081E006C08091D60187FF9D
:10320000F9CF60E284E08093E9008FEF9091E800CD
:10321000815095FD06C095ED9A95F1F7000081115A
:10322000F5CF8091E80085FF1CC080910C018111D1
:1032300005C040E050E068E070E003C070E040E0AE
:1032400050E0CE010E943E1B8091E8008E77809373
:10325000E80080E2FE01AFEAB1E001900D928A95AC
:10326000E1F7DF91CF910895CF93603229F5209156
:10327000DC01243009F52091E9002F703091EC0039
:1032800030FF02C030E801C030E0C32FC22B22E083
:103290002093E9002091E80020FF0BC040E050E0BF
:1032A00060E270E00E943E1B8091E8008E77809380
:1032B000E800CF70C093E900CF9108958091DB01C1
:1032C000811109C00E94191D0E94761D8091E200A3
:1032D00084608093E20008951092DB0108950895C0
:1032E00008950C949B1742E061EC81E00E94931CCE
:1032F00042E261EC84E00E94931C42E261EC82E0D5
:103300000E94931C42E260EC83E00C94931C809139
:10331000DE01833009F462C030F4813071F0823014
:1033200009F49BC008958A3009F487C08B3009F4F2
:103330006DC0893009F0A9C020C08091DD01813ABB
:1033400009F0A3C08091E800877F8093E800809116
:10335000E1019091E201892B21F060E080E090E0B2
:1033600003C060E28FEA91E070E00E94D01B809180
:10337000E8008B778093E80008958091DD01813229
:1033800009F083C08091E1019091E201009719F06A
:10339000029709F07AC08091E800877F8093E80067
:1033A0008091E80082FD05C08091DC018111F8CF99
:1033B0006CC02091F3008091F20090E0922B029774
:1033C00029F48091F1008B7F813021F48091F1000C
:1033D0008093CF018091E8008B7753C08091DD010D
:1033E000813A09F052C08091E1019091E201892B6C
:1033F00009F04BC08091E800877F8093E8008091BE
:10340000E80080FFFCCF80910C0136C08091DD0187
:103410008132D9F58091E1019091E201892BA9F5E2
:103420008091E800877F8093E8000E94C81C80910B
:10343000DF0180930C010C94C20F8091DD01813279
:1034400021F58091E800877F8093E8000E94C81CE6
:103450008091E0018093D00108958091DD01813A4F
:10346000A1F48091E800877F8093E8008091E800D4
:1034700080FFFCCF8091D0018093F1008091E80023
:103480008E778093E8000C94C81C08951F93CF9307
:10349000DF93CDB7DEB7A0970FB6F894DEBF0FBEAF
:1034A000CDBF84B7877F84BF88E10FB6F89480933F
:1034B0006000109260000FBE80E88093610010925F
:1034C00061000E94DA0A0E94191D0E94761D8091F7
:1034D000E20084608093E20078940E94F91F0E94C9
:1034E000E00A82E091E00E947B0A13E08091DC0117
:1034F000853069F40E945A178091DA018823B1F36C
:103500000E948917882391F30E94281BEFCF0E9405
:10351000E60A8091DC01843049F71093E90080913C
:10352000E80082FFE3CF8091E80085FF0AC040E019
:1035300050E060E270E0CE0101960E94871B91E0AE
:1035400001C090E08091E8008B778093E800992398
:1035500069F260E2CE0101960E947502C7CF0C9419
:10356000B11A292F332723303105A9F06CF421300B
:10357000310509F448C02230310509F049C08BE516
:1035800090E02EEB32E048C021323105F9F02232D2
:10359000310549F13DC099278130910571F02CF436
:1035A000892BB1F5EAEBF2E00DC08230910541F0D4
:1035B000039771F5E4E8F2E005C0E2EAF2E002C048
:1035C000EAE8F2E0849190E09F0126C06330710543
:1035D000F8F4FB01EE0FFF1FE05EFE4F208131810A
:1035E00089E090E019C06330710590F4FB01EE0FA3
:1035F000FF1FE65EFE4F20813181FB01E95EFE4F39
:10360000808190E009C082E190E029E133E004C0CC
:1036100080E090E020E030E0FA01318320830895DB
:103620000895CF93C82F0E94101BC093D101CF9152
:1036300008958091DC01843011F482E0089581E0E6
:1036400008958091D101811102C00C94191B089535
:1036500080E189BD82E189BD09B400FEFDCF809182
:10366000D8008F7D8093D8008091E00082608093A5
:10367000E0008091E00081FDFCCF0895CF92DF92C1
:10368000EF92FF920F931F93CF93DF937C018B01F7
:10369000EA010E94E91C811131C0209731F0888134
:1036A0009981081B190BE80EF91EC12CD12C0115AC
:1036B000110519F18091E80085FD14C08091E800A2
:1036C0008E778093E800209741F0888199818C0D56
:1036D0009D1D9983888385E011C00E94E91C882381
:1036E00031F30CC0F70181917F018093F10001500B
:1036F0001109FFEFCF1ADF0ADACF80E0DF91CF9117
:103700001F910F91FF90EF90DF90CF900895CF928F
:10371000DF92EF92FF920F931F93CF93DF937C0181
:103720008B01EA010E94E91C811131C0209731F020
:1037300088819981081B190BE80EF91EC12CD12C28
:103740000115110519F18091E80085FD14C08091E3
:10375000E8008B778093E800209741F08881998179
:103760008C0D9D1D9983888385E011C00E94E91C02
:10377000882331F30CC08091F100F70181937F0120
:1037800001501109FFEFCF1ADF0ADACF80E0DF9195
:10379000CF911F910F91FF90EF90DF90CF90089500
:1037A0002091E3013091E4012617370748F06115B5
:1037B000710539F42091E8002E772093E80001C0CC
:1037C000B901FC0120E061157105B9F18091DC01BE
:1037D000882309F440C0853009F43FC08091E80097
:1037E00083FD3DC08091E80082FF06C08091E80023
:1037F00082FF26C080E008958091E80080FFE3CF3B
:103800002091F3008091F20090E0922B61157105F8
:1038100051F08830910538F421912093F1006150E6
:1038200071090196F3CF21E0089709F020E080911B
:10383000E8008E778093E800C6CF2111C7CFD6CF9E
:103840008091DC01882339F0853039F08091E800DF
:1038500083FFCCCF04C082E0089583E0089581E027
:1038600008952091E3013091E4012617370748F0CD
:103870006115710539F42091E8002E772093E80056
:1038800001C0B901FC0120E061157105C1F1809111
:10389000DC01882309F441C0853009F440C08091DF
:1038A000E80083FD3EC08091E80082FF06C0809161
:1038B000E80082FF27C080E008958091E80080FF43
:1038C000E3CF2091F3008091F20090E0922B6115FC
:1038D000710559F08830910540F424912093F1004E
:1038E0003196615071090196F2CF21E0089709F0F5
:1038F00020E08091E8008E778093E800C5CF211109
:10390000C6CFD5CF8091DC01882339F0853039F0DE
:103910008091E80083FFCBCF04C082E0089583E06C
:10392000089581E00895982F973058F59093E90015
:10393000981739F07091EC002091ED005091F00053
:1039400003C0242F762F50E021FF19C03091EB00E7
:103950003E7F3093EB003091ED003D7F3093ED00E2
:103960003091EB0031603093EB007093EC002093CA
:10397000ED005093F0002091EE0027FF07C09F5FFD
:10398000D3CF8F708093E90081E0089580E008959F
:103990008091DD0187FD05C08091E80080FF0EC0A9
:1039A00012C08091E80082FD05C08091DC01811188
:1039B000F8CF08958091E8008B7708C08091DC01F2
:1039C0008111EACF08958091E8008E778093E80016
:1039D00008958091E4009091E50045E62091EC0087
:1039E00020FF21C02091E80020FD21C02091DC01B2
:1039F000222389F0253089F02091EB0025FD0FC0AE
:103A00002091E4003091E5002817390739F341503F
:103A100041F0C901E3CF82E0089583E0089581E099
:103A2000089584E008952091E80022FFDFCF80E030
:103A300008950E94871D0E948F1DE0EEF0E08081B6
:103A400081608083E8EDF0E080818F77808319BC0E
:103A5000A7EDB0E08C918E7F8C9380818F7E8083E8
:103A60001092DB0108950F931F93CF93DF930E9471
:103A7000871D0E948F1DC8EDD0E088818F778883D5
:103A800088818068888388818F7D888319BC1092A3
:103A9000DC011092D8011092DA011092D90100EEE7
:103AA00010E0F80180818B7F80838881816088832A
:103AB00042E060E080E00E94931CE1EEF0E0808153
:103AC0008E7F8083E2EEF0E0808181608083808160
:103AD00088608083F80180818E7F80838881806107
:103AE0008883DF91CF911F910F910895E8EDF0E069
:103AF00080818F7E8083E7EDF0E08081816080832C
:103B000084E082BF81E08093DB010C94331DE8EDFB
:103B1000F0E080818E7F80831092E2000895109201
:103B2000DA001092E10008951F920F920FB60F92E3
:103B300011242F933F934F935F936F937F938F93B2
:103B40009F93AF93BF93EF93FF938091E10082FF28
:103B50000BC08091E20082FF07C08091E1008B7F63
:103B60008093E1000E94F81F8091DA0080FF1FC05F
:103B70008091D80080FF1BC08091DA008E7F8093F7
:103B8000DA008091D90080FF0DC080E189BD82E11B
:103B900089BD09B400FEFDCF81E08093DC010E9465
:103BA0005E1905C019BC1092DC010E946C1980914D
:103BB000E10080FF19C08091E20080FF15C0809174
:103BC000E2008E7F8093E2008091E200806180932A
:103BD000E2008091D80080628093D80019BC85E013
:103BE0008093DC010E9470198091E10084FF30C055
:103BF0008091E20084FF2CC080E189BD82E189BD13
:103C000009B400FEFDCF8091D8008F7D8093D8004D
:103C10008091E1008F7E8093E1008091E2008F7EB1
:103C20008093E2008091E20081608093E2008091C5
:103C3000D801882311F084E007C08091E30087FF5A
:103C400002C083E001C081E08093DC010E94711911
:103C50008091E10083FF29C08091E20083FF25C0AD
:103C60008091E100877F8093E10082E08093DC0116
:103C70001092D8018091E1008E7F8093E1008091C5
:103C8000E2008E7F8093E2008091E2008061809369
:103C9000E20042E060E080E00E94931C8091F0002E
:103CA00088608093F0000E946F19FF91EF91BF919F
:103CB000AF919F918F917F916F915F914F913F91C4
:103CC0002F910F900FBE0F901F9018951F920F927B
:103CD0000FB60F9211242F933F934F935F936F93DF
:103CE0007F938F939F93AF93BF93CF93EF93FF9364
:103CF000C091E900CF708091EC001092E9008091B2
:103D0000F000877F8093F00078940E94A21E1092AA
:103D1000E9008091F00088608093F000C093E90092
:103D2000FF91EF91CF91BF91AF919F918F917F9133
:103D30006F915F914F913F912F910F900FBE0F9018
:103D40001F9018951F93CF93DF93CDB7DEB7AA9737
:103D50000FB6F894DEBF0FBECDBFEDEDF1E0809160
:103D6000F100819321E0E53EF207C9F70E9487192F
:103D70008091E80083FF24C12091DD013091DE01B4
:103D8000832F90E08A30910508F01AC1FC01E255BA
:103D9000FF4F0C941620203821F0223809F010C172
:103DA00008C08091D9019091DA01992389F082604D
:103DB0000FC08091E1018F70873008F001C18093BE
:103DC000E9008091EB0085FB882780F91092E900DB
:103DD0009091E800977F9093E8008093F100109213
:103DE000F100CCC0822F8D7F09F0EAC0222319F0A8
:103DF000223061F0E5C08091DF01813009F0E0C040
:103E0000333009F080E08093DA012AC08091DF012D
:103E1000811126C02091E1012F708FEF820F863033
:103E200008F0CEC02093E9008091EB0080FF18C01D
:103E30008091EB00333011F4806210C08061809378
:103E4000EB0081E090E001C0880F2A95EAF78093AB
:103E5000EA001092EA008091EB0088608093EB000A
:103E60001092E9008091E800877F8093E8000E942B
:103E7000C81CA6C02111A4C01091DF011F7780913A
:103E8000E3008078812B8093E3008091E800877FB6
:103E90008093E8000E94C81C8091E80080FFFCCF5E
:103EA0008091E30080688093E300112311F083E0A8
:103EB00001C082E08093DC0183C02058223008F0EA
:103EC0007FC08091DF019091E0018C3D23E092075B
:103ED00079F583E08A838AE289834FB7F894DE011B
:103EE000139620E03EE051E2E32FF0E050935700BC
:103EF000E49120FF03C0E295EF703F5FEF708E2FDB
:103F000090E0EA3010F0C79601C0C0968D939D9363
:103F10002F5F243149F74FBF8091E800877F80935E
:103F2000E8006AE270E0CE0101960E94D01B15C045
:103F30006091E1017091E201AE014F5F5F4F0E941D
:103F4000AF1A0097E9F12091E800277F2093E8005D
:103F5000BC0189819A810E94311C8091E8008B7795
:103F60008093E8002DC0203859F58091E800877FC4
:103F70008093E8008091D8018093F1008091E8005F
:103F80008E7773CF21111CC09091DF019230C0F465
:103F90008091E800877F8093E8009093D8010E9489
:103FA000C81C8091D801811104C08091E30087FF73
:103FB00002C084E001C081E08093DC010E9473199B
:103FC0008091E80083FF0AC08091E800877F80939A
:103FD000E8008091EB0080628093EB00AA960FB618
:103FE000F894DEBF0FBECDBFDF91CF911F91089532
:103FF0000895CF938091DC018823B1F08091E9008E
:104000008F709091EC0090FF02C090E801C090E0AA
:10401000C92FC82B1092E9008091E80083FD0E940F
:10402000A21ECF70C093E900CF910895EE0FFF1F3D
:104030000590F491E02D0994F999FECF92BD81BDD0
:10404000F89A992780B50895A8E1B0E042E050E0E1
:104050000C945020262FF999FECF92BD81BDF89A7D
:10406000019700B4021639F01FBA20BD0FB6F894BC
:10407000FA9AF99A0FBE08950396272F0E942B20D3
:104080000E942A20252F0E942B20242F0C942B20C5
:104090000196272F0E942B200C942A20DC01CB01B3
:1040A000FC01F999FECF06C0F2BDE1BDF89A319648
:1040B00000B40D9241505040B8F70895F894FFCFE6
:1040C0008A017A18ED187D18B8187E18019736F015
:1040D0009635F19434F4F5402271BE032B034D0361
:0640E000D0020203E90218
:00000001FF
