:100000000C940C020C9450020C9450020C9450026C
:100010000C9450020C9450020C9450020C94500218
:100020000C9450020C9450020C94601D0C94321EDF
:100030000C9450020C9450020C9450020C945002F8
:100040000C9450020C9450020C9450020C945002E8
:100050000C9450020C94E2170C9450020C94500231
:100060000C9450020C9450020C9450020C945002C8
:100070000C9450020C9450020C9450020C945002B8
:100080000C9450020C9450020C9450020C945002A8
:100090000C9450020C9450020C9450020C94500298
:1000A0000C9450020C9450020C945002930296024D
:1000B0001003A102A902B502100310031003FF02EE
:1000C0000203B802BB02C002CE02DC02DF02E3027E
:1000D000F102530559055D056005640568056C0569
:1000E0007005750579057D058105840588058C05F4
:1000F0009005940599059E0D9E0DD80DD80D1B0EEB
:10010000660F660F660F3D0E660FE40EE40E5A0F83
:10011000660F660F610FF10EF10EF10EF10EF10E8A
:10012000F10EF10EF10EF10EF10EF10EF10EF10ED7
:10013000F10EF10EF10E030F130F1A0F210F2B0FFB
:10014000F60FF60F09100910FF0F0910091009101A
:10015000F60FF60F0510091009100510971EBE1EA8
:10016000AC1FBE1EAC1F061F291FAC1F7F1F8E1F9A
:100170001E001F00200021002200230000000000BC
:10018000000000000000000000000000000000006F
:10019000000000000000000000000000000000005F
:1001A00000000000000000002A2B280000000000D2
:1001B0000000000000000000000000290000000016
:1001C0002C1E3420212224342627252E362D373884
:1001D000271E1F202122232425263333362E37388D
:1001E0001F0405060708090A0B0C0D0E0F1011124B
:1001F000131415161718191A1B1C1D2F3130232D17
:10020000350405060708090A0B0C0D0E0F10111214
:10021000131415161718191A1B1C1D2F3130354CC5
:1002200000000000000000000000000000000000CE
:1002300000000000000000000000000000000000BE
:1002400000010101010101000101010100000000A4
:10025000000000000000000000000100010001019A
:10026000010101010101010101010101010101017E
:100270000101010101010101010101000000010171
:10028000000000000000000000000000000000006E
:10029000000000000000000000000001010101005A
:1002A0000403300000001403520041004D004100DF
:1002B00020004D0036002D004100000016035200C2
:1002C00041004D0041002E0057004F0052004B00EE
:1002D000530000000403090409025B00030100A0AD
:1002E000FA090400000103010100092111010001C4
:1002F0002240000705810308000A090402000103E7
:10030000000000092111010001227100070584038A
:1003100020000A0904010002030000000921110164
:1003200000012222000705820320000107050303C4
:10033000200001120110010000000841526A000172
:1003400000010203010660FF0961A10109621500B5
:1003500026FF009520750881020963150026FF001D
:10036000952075089102C005010980A10185031639
:1003700001002603001A81002A830075109501816F
:1003800000C0050C0901A1018504160100269C028C
:100390001A01002A9C02751095018100C00501090F
:1003A00006A1018505050719E029E7150025019536
:1003B0000875018102050819012905950575019146
:1003C000029501750391010507190029EF15002514
:1003D0000195F075018102C005010906A10105071B
:1003E00019E029E71500250195087501810295019D
:1003F0007508810105081901290595057501910206
:100400009501750391010507190029FF150026FFC5
:1004100000950675088100C011241FBECFEFDAE0F9
:10042000DEBFCDBF04B603FE24C08091D8019091F9
:10043000D901A091DA01B091DB018730904BA74040
:10044000B04BB9F41092D8011092D9011092DA0190
:100450001092DB0114BE84B7877F84BF88E10FB69A
:10046000F89480936000109260000FBEE0E0F8E323
:10047000099511E0A0E0B1E0E8E5F0E402C00590E4
:100480000D92A232B107D9F711E0A2E2B1E001C0AA
:100490001D92A83DB107E1F70E94121A0C942A2080
:1004A0000C94000080E290E00E94F01F8F31954490
:1004B00051F482E290E00E94E81F91E0883009F058
:1004C00090E0892F01C080E081700895CF93C82FFC
:1004D000882319F06FE175E402C06FEF7FEF80E2CF
:1004E00090E00E941420CC2311F068E001C06FEF6F
:1004F00082E290E0CF910C94F61F80E00E946602A9
:100500000C9472161F93CF93DF93EC01162F488142
:1005100050E0FA013197E331F10508F081C0EA5A61
:10052000FF4F0C94E21F198288E028C08981813036
:1005300009F076C00E94AD179A838B837C836D830C
:1005400071C04B816A8189810E9461099C838D837E
:1005500069C02C8130E0322F22278D81282B4B81DE
:100560006A8189810E947A095DC00E9496095AC0F9
:100570000E94140A26C00E94160A99838A8352C0D8
:100580006B8170E0898190E0982F88272A81AE01E5
:100590004C5F5F4F822B0E94190A44C06B8170E050
:1005A000898190E0982F88272A81AE014C5F5F4FA8
:1005B000822B0E943E0A36C00E94640A33C00E9409
:1005C0004E0989832FC06B8170E0898190E0982F5C
:1005D00088272A81AE014C5F5F4F822B0E94BE09A3
:1005E00021C06B8170E0898190E0982F88272A8153
:1005F000AE014C5F5F4F822B0E94E20913C00E9444
:100600007D0210C00E9400192FEF81EE94E021506E
:1006100080409040E1F700C000000E94081802C02E
:100620008FEF8883612FCE01DF91CF911F910C94C2
:1006300000190E945202811107C00E9496090E946F
:10064000640A81E00C94660208950E94D1088FE14B
:100650009EE40197F1F700C000008FE19EE401974E
:10066000F1F700C000000E94D10880E00E94130949
:1006700080FF04C00E947D020C94081808950E9417
:1006800025030E9419030C94A8080C94A908FB01E7
:1006900022818031FFE59F0731F081313FE59307EB
:1006A00081F482E001C081E0222319F00E945B14F2
:1006B00002C00E94761443E062E081E00E947A0466
:1006C0000EC0222351F09C0122513F4520313105BB
:1006D00020F482510E94740A02C00C94C00380E08E
:1006E00008959C013F502F3F310509F058F49C01BB
:1006F0003327A901415351094230510518F4C9016A
:10070000986F0895FC01EE0FFF1FE056FD4F859195
:1007100094910895CF93DF93EC018FEC860F823094
:1007200038F58A818823D9F0613311F481E001C062
:1007300082E00E945B148D81982F907F61F080FD94
:100740000AC082958F7090E0039794F083E0DF9168
:10075000CF910C9495148D818F708D8309C0613376
:1007600011F481E001C082E0DF91CF910C94761406
:10077000DF91CF91089508950895089581E0089537
:1007800081E00895CF93282F30E0F901E056FE4F25
:10079000C491F901E05EFD4F2491222359F081EECE
:1007A0000E94D50B8C2F0E94D50B8C2F0E94ED0C34
:1007B00081EE04C08C2F0E94D50B8C2FCF910C940E
:1007C000ED0CFF920F931F93CF93DF93EC01F62E66
:1007D0008881882331F18E010F5F1F4F813031F402
:1007E000C9818C2F0E94D50B8C2F0AC0823029F42E
:1007F00089810E94D50BE80108C0833021F48981EA
:100800000E94ED0CF8CF0E94C20321968F2D882301
:10081000F9F2EFE9FFE03197F1F700C000008150F5
:10082000F6CFDF91CF911F910F91FF90089560E077
:100830000C94E1034F925F926F927F928F929F92FE
:10084000AF92BF92CF92DF92EF92FF920F931F93DE
:100850002B013C01C12CD12C7601C394D701C601D8
:1008600004C0880F991FAA1FBB1F4A95D2F7AC017D
:10087000BD014601570104C0880C991CAA1CBB1C71
:100880002A95D2F7482959296A297B29D701C60117
:1008900004C0880F991FAA1FBB1F0A95D2F76A01CF
:1008A0007B01C420D520E620F720C416D506E60635
:1008B000F70639F4BC01CD016429752986299729E9
:1008C0000AC0BC01CD01609570958095909564211A
:1008D0007521862197211F910F91FF90EF90DF9056
:1008E000CF90BF90AF909F908F907F906F905F90D0
:1008F0004F9008950F93382F262F609174017091B7
:1009000075018091760190917701042F432F0E9409
:100910001A040F910C943B140E947816811102C0A6
:100920000E94E6160C943F030C9445030C94BB0301
:1009300008950E94E60F0E9498042FEF84E39CE044
:10094000215080409040E1F700C000000C9408184E
:10095000FF920F931F93CF93DF938C01FC01C08113
:10096000D18180913601811113C08281882349F0A1
:10097000CE010E944315F82E682FCE010E94E71485
:1009800004C0CE010E941615F82EBE018F2D04C0A2
:10099000CE010E944315BE010E94070AEC01B80176
:1009A0000E944703882309F46DC1C63DFCE5DF07BB
:1009B00009F4D1C0B0F4C531ECE5DE0768F4C2300B
:1009C000FCE5DF0708F04FC0C1158CE5D80701F141
:1009D000C130DC4529F149C1C631DC4509F420C1EB
:1009E00044C1CB3D8CE5D80771F150F4C73DFCE51F
:1009F000DF0709F4D3C0C83DDC4509F4F6C035C1B2
:100A0000CC3DECE5DE0731F1CD3DDC45A1F02DC15B
:100A1000F8018281882309F435C10E94990432C10A
:100A2000F8018281882309F42DC18091A1018160A0
:100A30008093A10127C1F8018281882309F422C192
:100A40000E94E6161FC1F8018281882309F41AC1A9
:100A500080E006C0F8018281882309F413C182E096
:100A60000E94DD1A0FC1F8018281882309F402C1B6
:100A70000E947816811102C00E94E6160E948B1611
:100A800090E09093CA018093C901FE01E350FC45B8
:100A9000E231F10520F4E759FF4F0C94E21F8091F9
:100AA000C901816003C08091C90182608093C9013E
:100AB0004BC08091C9018460F9CF8091C90113C0F6
:100AC0008091C9018061F2CF8091C9018062EECF2F
:100AD0008091C9018064EACF8091C9018068E6CF26
:100AE0008091C90184608860E1CF8091C9018E7FC7
:100AF000DDCF8091C9018D7FD9CF8091C9018B7FD6
:100B0000D5CF8091C90113C08091C9018F7ECECF0E
:100B10008091C9018F7DCACF8091C9018F7BC6CFDB
:100B20008091C9018F77C2CF8091C9018B7F877F68
:100B3000BDCF9091C90197FB882780F921E08227DA
:100B400080FB97F99093C9018091C9010E948F168B
:100B50000E94E60F97C0F8018281882351F010921D
:100B600027010E94A117909324018093230182E022
:100B700022C08091270181110FC0809123019091A3
:100B800024010E94B917883C910530F486E20E9446
:100B9000D50B86E20E94ED0C82E024C0F801828130
:100BA000882361F0109228010E94A11790932601DA
:100BB0008093250180E20E944E0D64C0809128013F
:100BC00081110FC080912501909126010E94B917D3
:100BD000883C910530F487E20E94D50B87E20E94A1
:100BE000ED0C80E20E94550D4DC0F801828181110B
:100BF000D9CF809128018111F4CF80912501909166
:100C000026010E94B917883C910558F780E20E949E
:100C1000550D88E20E94D50B88E20E94ED0C32C08F
:100C20000E94C215382FF801228180910001909115
:100C30000101222371F03A7A21E009F420E02093A7
:100C40002201222311F065E301C069E20E945517D9
:100C500009C020912201222311F065E301C069E25D
:100C60000E9460170E940E160DC081E0809327013C
:100C700080932801C801DF91CF911F910F91FF90C0
:100C80000C94BE0380E0DF91CF911F910F91FF90F4
:100C9000089580E090E00895CF93DF930E94070AC3
:100CA0000E940908EC01811520E5920708F041C077
:100CB000C11580E4D80708F028C1C83ED10510F559
:100CC000C03ED10508F0A1C1C83AD10578F4C53AB3
:100CD000D10508F0A2C0C130D10509F496C108F4CD
:100CE00047C1C430D10508F090C142C1CF3BD10506
:100CF00008F49EC0C03CD10508F43AC1CE01805C26
:100D00009109F5C0C11590E2D90758F4C11521E049
:100D1000D20708F07AC1C03FD10508F429C1D065D7
:100D200074C1C11580E3D80708F0E5C0CE019F70FB
:100D3000DEC0C11595E5D90708F043C0C11524E50B
:100D4000D20708F0F9C0C11582E5D80708F5C1152A
:100D500091E5D90708F0DCC02C2F237081E090E0EA
:100D600002C0880F991F2A95E2F79C689E01F4E063
:100D700036952795FA95E1F72370922BCF70C6959B
:100D8000C69520E2C29FE0011124C82BD92B3DC19A
:100D90008C2F869586959E0123703327C115D345E8
:100DA00008F0BBC090E2899FE001112481E090E04F
:100DB00002C0880F991F2A95E2F7C82BD92BDC684F
:100DC00024C1C11529E5D207A0F4C11588E5D807CB
:100DD00008F0B7C0C11596E5D90708F0C9C08C2F37
:100DE0000E9485088F71C82FD0E0DC2FCC27D062FD
:100DF0000CC1C1152AE5D20708F4A8C0CE0190564F
:100E00008115904208F0B4C08D2F8F710E94850823
:100E1000DD27D0628F71D82BF8C0C53AD10509F40F
:100E2000AAC0C63AD10509F4A9C0C3E8D0E4EDC010
:100E3000C83AD10509F4A5C0C93AD10509F4A4C03E
:100E4000CA3AD10509F4A3C0CB3AD10509F4A2C02E
:100E5000CC3AD10509F4A1C0CB3BD10509F4A0C01F
:100E6000CC3BD10509F49FC0CD3AD10509F49EC011
:100E7000C03BD10509F49DC0CE3AD10509F49CC010
:100E8000CF3AD10509F49BC0C13BD10509F49AC002
:100E9000C23BD10509F499C0C33BD10509F498C000
:100EA000C43BD10509F497C0C53BD10509F496C0F0
:100EB000C63BD10509F495C0C73BD10509F494C0E0
:100EC000C83BD10509F493C0C93BD10509F492C0D0
:100ED000CD3BD10509F491C0CE3BD10509F490C0BA
:100EE000CA3BD10509F08FC0CAE2D6E48EC00E9489
:100EF0007103EC018AC0CE019927D3FF03C0EC0136
:100F0000D86C83C0EC01D06C80C0DF70D06A7DC02B
:100F1000DC2FCC27C16FD06A78C090E2899FE001B6
:100F2000112481E090E002C0880F991F2A95E2F712
:100F3000C82BD92BDA6869C0DC2FCC27C46FD06AE4
:100F400064C0DC2FCC27C06FD06A5FC08C2F8F703D
:100F50000E94850834E0D695C7953A95E1F7CF70A1
:100F6000D0E0DC2FCC27D06A8F70806EC82B4DC0AC
:100F7000C0E0D0E04AC0C1E8D0E447C0C2E8D0E455
:100F800044C0C2EED4E441C0C9EED4E43EC0CAEECF
:100F9000D4E43BC0C5EBD4E438C0C6EBD4E435C0E0
:100FA000C3EBD4E432C0C4EBD4E42FC0C7EBD4E429
:100FB0002CC0CCECD4E429C0CDECD4E426C0C3E8EA
:100FC000D5E423C0CAE8D5E420C0C2E9D5E41DC0F9
:100FD000C4E9D5E41AC0C1E2D6E417C0C3E2D6E43E
:100FE00014C0C4E2D6E411C0C5E2D6E40EC0C6E225
:100FF000D6E40BC0C7E2D6E408C0CFE6D4E405C00F
:10100000C0E7D4E402C0C0E0D4E4CE01DF91CF91C8
:1010100008958238910549F1B0F48133910509F4BE
:1010200059C048F48932910509F44FC08A329105BC
:1010300009F455C008958533910509F441C08933F9
:10104000910599F00895833E910531F138F4803E81
:10105000910591F0823E9105A9F00895863E910593
:1010600001F1873E910539F108952091C90120FDD4
:101070003BC021FD39C008958091C90180FF34C073
:1010800089E341C08091C90182FF32C08091C901CA
:1010900084FF2CC080E037C08091C90182FD28C048
:1010A000F5CF8091C90183FF25C08091C90184FDDE
:1010B000F1CF87EE28C08091C90183FD1BC0F5CF19
:1010C0008091C90185FF18C019C08091C90185FFB1
:1010D00015C012C08091C90186FF12C013C0809153
:1010E000C90186FF0FC00CC080EE0DC083EE0BC09F
:1010F00082EE09C086EE07C085E305C089E203C021
:1011000081E301C08AE290E008959091C90192FFC5
:101110000DC0282F2871283019F4877F846006C0FD
:10112000282F2471243011F48B7F886093FF0DC029
:10113000282F2871283119F4877E846106C0282F52
:101140002471243111F48B7E886194FD877E08958B
:10115000089508956E98ADE0B1E021E030E08D9102
:10116000E82FE295EF70F0E041A18F70B90102C065
:10117000660F771F8A95E2F7CB01962F909549234A
:1011800041A392A1982B92A371E0A331B70739F73D
:1011900010922A011092290181E00E941A090C94F0
:1011A0008C0450912A0110922A016E9A769880EA56
:1011B0008A95F1F7EDE0F1E080E090E071E0419197
:1011C000A42FA295AF70B0E090962C9160912A0167
:1011D00030E04F7002C0359527954A95E2F720FD23
:1011E00007C0272F082E01C0220F0A94EAF701C07A
:1011F00020E0262B20932A01019686309105F9F6EE
:101200006E98769A21E080912A01581301C020E05F
:1012100041E069E271E08AE291E00E941B090E94CC
:10122000940481E00895E82FF0E0E75DFE4F8081AF
:10123000089508950895FF920F931F93CF93DF931E
:10124000EC01F62E072F142F222349F081E0809322
:101250002D010E94A11790932C0180932B01809166
:101260002D018823A9F080912B0190912C010E94DF
:10127000B917069768F09C2FAF2DB02FFE018E2F67
:10128000891B811718F481918D93F9CF10922D014C
:10129000DF91CF911F910F91FF90089584E0089501
:1012A00050E0440F551F9CE0699F400D511D1124D3
:1012B0009CE0899F400D511D1124CA01825B9F4F04
:1012C00008950F931F93CF93DF930E945009EC0171
:1012D0000E94E81F082F10E0102F0027CE01019672
:1012E0000E94E81F9801282BC901DF91CF911F911F
:1012F0000F9108950F931F93CF93DF9300D0CDB735
:10130000DEB72A8339830E9450098C013981632F0B
:101310000E94F61F2A81622FC80101960F900F903C
:10132000DF91CF911F910F910C94F61FFF920F93B5
:101330001F93CF93DF93F12C00E010E0C0E0D0E0EA
:10134000FE01E00FF11FEE0FFF1FE059FE4F259148
:1013500034914C2F60E08F2D0E947A092196C6307F
:10136000D10571F70A5F1F4FF39484E0F812E6CFBE
:10137000DF91CF911F910F91FF900895EF92FF920F
:101380000F931F93CF93DF937B01EA01E40EF51EC9
:101390008C01C801825B9F4FCE15DF0561F00033E1
:1013A000110520F40E94E81F888301C0188221964D
:1013B0000F5F1F4FEECFDF91CF911F910F91FF90E5
:1013C000EF900895EF92FF920F931F93CF93DF93C7
:1013D0008B017A01080F191FEC01E81AF90ACE01F6
:1013E000825B9F4FC017D10759F0C033D10530F44D
:1013F000F701EC0FFD1F60810E94F61F2196EFCFD1
:10140000DF91CF911F910F91FF90EF900895462F9C
:10141000843038F4711105C0663018F460E00C9423
:10142000610980E090E0089580E1089582E893E00A
:101430000895EF92FF920F931F93CF93DF937B0159
:10144000EA01E40EF51E8C01C80182589F4FCE15AB
:10145000DF0569F0023823E0120720F40E94E81F3C
:10146000888301C0188221960F5F1F4FEDCFDF9157
:10147000CF911F910F91FF90EF900895EF92FF92FF
:101480000F931F93CF93DF938B017A01080F191FDE
:10149000EC01E81AF90ACE0182589F4FC017D10714
:1014A00061F0C23823E0D20730F4F701EC0FFD1FE2
:1014B00060810E94F61F2196EECFDF91CF911F91A0
:1014C0000F91FF90EF900895CF93DF93CEE7D0E098
:1014D00060E0CE010E94F61F2196C11584E0D80776
:1014E000B9F7DF91CF910895FF920F931F93CF9398
:1014F000DF9300D0CDB7DEB7F82E8FE08F1530F137
:101500008FEF93E00E94E81F811120C00EE710E0EA
:10151000FF2069F0011584E01807C1F0C8010E949E
:10152000E81F811101C0FA940F5F1F4FF1CF19829C
:101530001A82C8010E94E81F8983882339F0CE01EE
:1015400001960E9417040F5F1F4FF3CF0F900F906B
:10155000DF91CF911F910F91FF90089590933301E8
:10156000809332010895E0913201F0913301309778
:1015700021F00190F081E02D099480E00895E09140
:101580003201F0913301309799F020910C01222320
:1015900059F02091C90127FF07C0DC012C91119659
:1015A0002C93119725E02C930280F381E02D099470
:1015B000089520913001309131018217930771F025
:1015C0009093310180933001E0913201F091330129
:1015D000309721F00680F781E02D0994089520913D
:1015E0002E0130912F018217930771F090932F01F4
:1015F00080932E01E0913201F0913301309721F078
:101600000084F185E02D0994089585B7806885BF31
:1016100085B7806885BF089508950E94050B0C94D6
:101620000C0B81E008950E9498170E94AA080C9460
:101630002D180F931F93CF93DF93CDB7DEB72B9762
:101640000FB6F894DEBF0FBECDBF0E94D1080E9436
:10165000110B882309F444C080E00E941309109103
:1016600035011827E9F19091A10191FF04C08B8702
:101670000E9419098B8520E030E0412F50E0BA012B
:10168000022E02C0759567950A94E2F760FF23C0A9
:101690002E831F8201E010E002C0000F111F2A9567
:1016A000E2F790E08023912321E0892B09F420E0E8
:1016B00028870E94A1178160782F9A8789874E8199
:1016C0005F8168858A850E94A10B80913501802702
:1016D0008093350115C02F5F3F4F2630310579F6D5
:1016E0008FEF89838A831B820E94A1178160782FE4
:1016F0009D838C8349815A816B818D810E94A10BCE
:10170000109134010E94B30A181781F00E94B30AA5
:10171000809334012B960FB6F894DEBF0FBECDBF79
:10172000DF91CF911F910F910C9496042B960FB6D9
:10173000F894DEBF0FBECDBFDF91CF911F910F9107
:101740000895CF93DF93CDB7DEB72B970FB6F894FC
:10175000DEBF0FBECDBF4F83588769877A878B87DF
:10176000DE01119686E0FD0111928A95E9F785E088
:10177000FE01379601900D928A95E1F749815A81D1
:101780006B817C818D819E810E94C3122B960FB646
:10179000F894DEBF0FBECDBFDF91CF910895FC015D
:1017A000808191810E9483150895882309F414C1D2
:1017B0008238C1F40E94B30A81FD0EC169E38091B1
:1017C0000001909101010E9455170E940E162FEF03
:1017D00081EE94E0215080409040E1F700C000008D
:1017E00069E319C08338F9F40E94B30A80FDF4C09C
:1017F00063E580910001909101010E9455170E94BC
:101800000E162FEF81EE94E0215080409040E1F7DA
:1018100000C0000063E580910001909101010E94E9
:1018200060170C940E168438C1F40E94B30A82FD2E
:10183000D3C067E480910001909101010E94551787
:101840000E940E162FEF81EE94E0215080409040D0
:10185000E1F700C0000067E4DECF9CEF980F913AFB
:1018600040F4682F80910001909101010E9455176A
:10187000D8CF90E2980F983050F4877091E001C073
:10188000990F8A95EAF7892F0E94C515CACF9BE563
:10189000980F933070F4853A29F0863A31F482E853
:1018A00090E005C081E890E002C083E890E00C94ED
:1018B000D90A98E5980F973108F08EC0883A09F454
:1018C00045C0893A09F445C08A3A09F445C08B3AC3
:1018D00009F445C08C3A09F445C08B3B09F445C076
:1018E0008C3B09F445C08D3A09F445C0803B09F4AE
:1018F00045C08E3A09F445C08F3A09F445C0813B92
:1019000009F445C0823B09F445C0833B09F445C056
:10191000843B09F445C0853B09F445C0863B09F486
:1019200045C0873B09F445C0883B09F445C0893B65
:1019300009F445C08D3B09F445C08E3B09F445C010
:101940008A3B09F045C08AE292E044C082EE90E012
:1019500041C089EE90E03EC08AEE90E03BC085EB4E
:1019600090E038C086EB90E035C083EB90E032C069
:1019700084EB90E02FC087EB90E02CC08CEC90E0E3
:1019800029C08DEC90E026C083E891E023C08AE86E
:1019900091E020C082E991E01DC084E991E01AC085
:1019A00081E292E017C083E292E014C084E292E008
:1019B00011C085E292E00EC086E292E00BC087E2A1
:1019C00092E008C08FE690E005C080E790E002C09A
:1019D00080E090E00C94EF0A0895882309F45DC03C
:1019E000823879F40E94B30A81FF57C069E380917D
:1019F0000001909101010E9455170E940E1669E3A3
:101A000010C08338B1F40E94B30A80FF46C063E57A
:101A100080910001909101010E9455170E940E16BD
:101A200063E580910001909101010E9460170C9480
:101A30000E16843879F40E94B30A82FF2EC067E440
:101A400080910001909101010E9455170E940E168D
:101A500067E4E7CF9CEF980F913A10F4682FE1CF3D
:101A600090E2980F983050F4877091E001C0990F80
:101A70008A95EAF7892F0E94CB15D9CF9BE5980F5D
:101A8000933020F480E090E00C94D90A885A873192
:101A900020F480E090E00C94EF0A0895882321F070
:101AA0000E94C5150C940E160895882321F00E94FB
:101AB000CB150C940E1608958F929F92BF92CF92E1
:101AC000DF92EF92FF920F931F93CF93DF9300D09B
:101AD000CDB7DEB74C01472FFC01C580C2949FE013
:101AE000C922D280DD2031F079836A830E94E21519
:101AF0006A81498149836A830E94BB1549816A8151
:101B0000882389F0DD2079F080E2860F883058F054
:101B100082E00E9459160E94BB15BB24B394B826DC
:101B200049816A8101C0B12CE42EE2948FE0E82261
:101B3000F12CF701E558FF4F0C94E21F842F807FB2
:101B4000142F1F70882311F01295107FDD20C1F033
:101B5000112309F49AC180E2860F883010F06111D8
:101B600005C0812F6A830E94C51504C0812F6A8336
:101B70000E94D5156A816A830E940E166A8185C10A
:101B8000862F6A830E94ED0C6A81112309F49EC19D
:101B900080E2860F883010F0611104C0812F0E940E
:101BA000CB1503C0812F0E94DB150E940E168EC13B
:101BB000842F807F142F1F70803211F01295107FB8
:101BC000662319F06130D9F026C0DD2079F0CC20F1
:101BD00049F0F1E0CF1206C00E94F515812B0E945A
:101BE000FB1574C10E94F515812B04C1CC2021F096
:101BF00021E0C21609F46AC10E94041600C1DD206A
:101C000029F085E08C1508F461C1F3C094E09C15BF
:101C100008F45CC1F4C0DD2051F0CC2009F4E9C027
:101C2000F401858180FF31C18F708583E2C0CC20B3
:101C300009F4E5C03BC1242F26952695237030E09A
:101C40002115310521F02130310561F03FC1DD2042
:101C500021F0862F942F937002C080E090E00E94C4
:101C6000D90A44C1DD2021F0862F942F937002C041
:101C700080E090E00E94EF0A39C1842F837009F060
:101C80004EC0D1102FC1262F229526952770220FE6
:101C9000220F862F8F70C82ED12CE12CF12C022E12
:101CA00004C0CC0CDD1CEE1CFF1C0A94D2F764FFB0
:101CB00010C06FE070E080E090E004C0660F771F16
:101CC000881F991F2A95D2F76095709580959095F9
:101CD00003C060E070E0CB01242F26952695237089
:101CE00030E02230310569F02330310589F06C296C
:101CF0007D298E299F292130310571F00E9414140D
:101D0000F1C06C297D298E299F290E942614EAC0E2
:101D10000E941414C701B6010E940214E3C0DD2022
:101D200019F0842F817001C08695882309F4DAC0E8
:101D3000262F229526952770220F220F862F8F702F
:101D4000C82ED12CE12CF12C022E04C0CC0CDD1CB1
:101D5000EE1CFF1C0A94D2F764FF10C06FE070E025
:101D600080E090E004C0660F771F881F991F2A95B6
:101D7000D2F7609570958095909503C060E070E013
:101D8000CB01242F26952695237030E02230310593
:101D900069F02330310589F06C297D298E299F292E
:101DA0002130310571F00E94C2149CC06C297D293C
:101DB0008E299F290E94D41495C00E94C214C70185
:101DC000B6010E94B0148EC0062F10E0F801E05E4C
:101DD000F109E531F10508F054C0E557FF4F0C94C7
:101DE000E21F162F1F70842F8F71DD2031F00E94AB
:101DF0005B14812F0E944E0D69C00E947614812FC2
:101E00000E94550D63C0DD2049F0F4E0FC1508F494
:101E10005DC0842F8F710E94951458C025E02C1549
:101E200008F454C0F6CFDD2039F0842F8F710E9462
:101E30005B144CC0DD20C9F3842F8F710E9476148F
:101E400045C0DD2029F0842F8F710E944C143EC0C4
:101E50000E9447143BC0DD2051F0142F1F71812FC9
:101E60000E945B1463E0812F0E9444162FC081E022
:101E70000E94591681E08C1548F582E00E9459169F
:101E800025C0DD2031F0CC2081F2862F0E94D50BB9
:101E90001DC0CC2089F2693349F49FEFE7EEF3E0EF
:101EA0009150E040F040E1F700C00000862F0E9412
:101EB000ED0C0CC04F70C4010E9449060E947013C3
:101EC00015C04F70C4010E948A0310C028E0E216BA
:101ED000F10441F05CF09AE0E91AF108E2E0EE1654
:101EE000F10420F40E94B30A0E949604BB20F1F092
:101EF0000E94B71580FD1AC0F40112820E94B1152C
:101F00000E945B14C4010E94A40F0E94B1150F909F
:101F10000F90DF91CF911F910F91FF90EF90DF9085
:101F2000CF90BF909F908F900C9476140F900F904D
:101F3000DF91CF911F910F91FF90EF90DF90CF90A5
:101F4000BF909F908F9008950F931F93CF93DF932F
:101F5000EC01288139818B819C81892B31F03F3FB5
:101F600011F080E003C02F3FE1F781E0811113C041
:101F7000CE010E94A804882371F0688179818A814A
:101F80000E948E158C010E94E6140E94FF13B80176
:101F9000CE010E945C0DDF91CF911F910F910895AA
:101FA0000E94E2150E94F2150E940E1680E090E059
:101FB0000E94D90A80E090E00C94EF0A8091000121
:101FC000909101010E946B170C94D00F0E94D215C2
:101FD0000C94DE0FE92FE295EF70F0E03297EE30CF
:101FE000F105B8F4E056FF4F0C94E21F803F59F022
:101FF00018F4803E70F407C0843F59F404C0803E5A
:1020000010F0813F31F481E0089593FB882780F937
:10201000089580E008950E9483150E94EA0F0895B4
:10202000CF93DF9300D000D01F92CDB7DEB70F90D3
:102030000F900F900F900F90DF91CF910895CF9355
:10204000DF9300D000D000D0CDB7DEB726960FB614
:10205000F894DEBF0FBECDBFDF91CF9108951F93DF
:10206000CF93DF93C091370116E080913801C817F4
:1020700099F0D0E01C9FF0011D9FF00D1124E75C4A
:10208000FE4F4081518162817381848195810E94DC
:102090001F102196C770E9CFDF91CF911F9108954E
:1020A0004091690150916A0160916B0170916C01DE
:1020B00080916D0190916E010C941F10CF938091CF
:1020C0006E0182958F7009F05FC080916B0188234B
:1020D00009F45AC020913701A0913801609169013B
:1020E00070916A0180916C0190916D0131E06F3FB8
:1020F00009F030E0B32FC6E02A1709F445C0009775
:1021000021F07F3F21F44B2F03C041E001C040E0AC
:1021100030E040FD35C0C29FF001C39FF00D112497
:10212000E75CFE4F418174132BC04081641328C0CB
:102130004281411125C0438154814817590710F449
:1021400041505109481B590B483C5105C8F4809136
:102150006E018F70806180936E0186E0829FF00136
:10216000839FF00D1124E25CFE4F80818F708061AF
:10217000808389E691E00E94A40FCF910C942F10E8
:102180002F5F3F4F2770B8CFCF910895CF92DF9246
:10219000EF92FF920F931F93CF93DF93CDB7DEB7EC
:1021A00062970FB6F894DEBF0FBECDBF8C0185E0FD
:1021B000F801DE011D9601900D928A95E1F7D80194
:1021C0004C9111965C91119712966C9112971396FF
:1021D000ED90FC90149770916901E0916A01209153
:1021E0006C0130916D012115310531F0EF3F31F473
:1021F00081E07F3F19F403C081E001C080E0B82F87
:10220000B170CB2E80FD6BC1D0906B01DD2009F445
:10221000F5C0F0916E01E216F30638F0C701821B9B
:10222000930B883C910548F09DC0209530952E0D6C
:102230003F1D283C310508F095C08F2F807F09F0A5
:1022400052C0E51314C0741312C0D62E61110FC012
:10225000FF70F061F0936E010E94501089E691E0EA
:102260000E94A40F80916E01F80185837CC1EF2844
:1022700031F05F3F31F481E04F3F19F403C081E05A
:1022800001C080E080FD03C081E0862701C080E0BE
:10229000F82FF170FF2E80FF1CC080913701209134
:1022A000380136E0821709F438C190E0389FF00118
:1022B000399FF00D1124E75CFE4F7181571306C062
:1022C0007081471303C07281671303C00196877042
:1022D000E9CFD62E662309F446C180916E01816054
:1022E00080936E0155C0E51308C0741306C06111D8
:1022F00004C0D8011596FC93AEC04D875E878D85CE
:102300009E856A8B0E940B106A89882329F1D62E3C
:10231000662311F120916E01822F82958F7090E0DB
:1023200002970CF462C08091690190916A019887CC
:102330008F831986FB86EA862C87CE01079653C0C9
:10234000E51741F14D875E878D859E856A8B0E94DA
:102350000B106A89811130C0C8010E94A40FDD24CE
:10236000D39401C18F2F807F59F77E2DF98AE88A97
:1023700089890E94101089E691E00E94A40FE9E685
:10238000F1E086E0DF011D928A95E9F70E94501086
:10239000D12CE9C07413D6CF6111D4CFD8011596D2
:1023A000FC93C8010E94A40FE9E6F1E086E0DF019A
:1023B0001D928A95E9F7D7C0D62E662369F220913F
:1023C0006E01822F82958F7090E0029774F0809159
:1023D000690190916A019A8389831B82FD82EC8254
:1023E0002E83CE0101960E94A40F86E0F801A9E693
:1023F000B1E001900D928A95E1F78AC0E216F306EA
:1024000028F0C701821B930B9C0104C020953095D6
:102410002E0D3F1D283C310508F053C0D62E6623F3
:1024200009F49ACFE5132CC074132AC080916E0171
:1024300080FD1DC0982F92959F70C9F0D801159608
:102440008C9315979F3039F09F5F9295907F8F7096
:10245000892B15968C93C8010E94A40F86E0F80181
:10246000A9E6B1E001900D928A95E1F753C086E0AC
:10247000F801A9E6B1E001900D928A95E1F773C0E9
:102480004D875E878D859E850E940B10882381F085
:1024900096E0F801A9E6B1E001900D929A95E1F776
:1024A0008A8B0E945E100E9450108A89D82E5BC0D1
:1024B00080916E01816080936E01C8010E94A40F1B
:1024C00052C07E2DF98AE88A89890E941010E9E6B7
:1024D000F1E086E0DF011D928A95E9F71BC06623D3
:1024E00009F43ACF4D875E878D859E850E940B103B
:1024F000D82E882309F430CF86E0F801A9E6B1E0B0
:1025000001900D928A95E1F789E691E00E94CF0B48
:102510000E945E100E94501026C04D875E878D85F8
:102520009E850E948315292F22952F7030E022303E
:1025300031052CF49F7041F0811106C00CC024308D
:1025400031052CF49F7049F4805E883020F0C8017A
:102550000E94A40FCF2CDC2C06C0D80115969C91AC
:10256000907F91F7F8CF8D2D62960FB6F894DEBF6D
:102570000FBECDBFDF91CF911F910F91FF90EF90D4
:10258000DF90CF9008951F93CF93DF93CDB7DEB741
:102590002C970FB6F894DEBF0FBECDBF4F83588780
:1025A00069877A878B879C87CE0107960E94C61021
:1025B0008823C1F02F8138858A859B85892B31F04E
:1025C0003F3F11F080E003C02F3FE1F781E0811130
:1025D00047C04F81588569857A858B859C850E9487
:1025E0001F103EC086E0FE013796DE011196019075
:1025F0000D928A95E1F7FF81E8854A855B85411553
:10260000510531F0EF3F31F481E0FF3F19F403C091
:1026100081E001C080E080FD23C02091380130E0DE
:10262000C9010196877099276091370170E086177C
:102630009707F1F1F983EA835D834C8396E0929FDB
:10264000D001939FB00D1124A75CBE4FFE013196BF
:1026500001900D929A95E1F7809338010E942F1016
:1026600016E08091370190913801891779F1189F10
:10267000C0011124875C9E4F0E94C610882331F14F
:10268000E09137011E9FF0011124E75CFE4F40816D
:10269000518162817381848195810E941F10809194
:1026A000370190E001968770992780933701D9CF41
:1026B0000E94E60F1092380110923701E9E6F1E02E
:1026C00086E0DF011D928A95E9F7CACF2C960FB6F6
:1026D000F894DEBF0FBECDBFDF91CF911F9108955B
:1026E000EF92FF920F931F93CF93DF93FC0100971C
:1026F00009F46FC0F12CEE24E394EF01219684914C
:10270000843740F4843008F055C0813081F0823045
:1027100021F15FC0853709F447C0C0F19CE7980FED
:10272000903708F056C08F770E94ED0C45C08F019E
:102730000E5F1F4FFE01849190E2980F983050F485
:102740008770FE2D01C0FF0F8A95EAF78F2F0E9438
:10275000E51515C00E94D50B14C08F010E5F1F4FE9
:10276000FE01849190E2980F983068F48770FE2DF6
:1027700001C0FF0F8A95EAF78F2F0E94EB150E9488
:102780000E16E80119C00E94ED0CFBCFCF01029696
:10279000FE01C491CC2361F0EFE9FFE03197F1F73E
:1027A00000C00000C150F6CFCF010296FE01F490A8
:1027B000EC0102C00E94D50B8F2D882341F0EFE978
:1027C000FFE03197F1F700C000008150F6CFFE0125
:1027D00094CFDF91CF911F910F91FF90EF900895CB
:1027E00008950C94F0130E94F11360937801709394
:1027F000790180937A0190937B010C94D00F089516
:102800000C94F3130F931F930091780110917901A9
:1028100020917A0130917B01602B712B822B932BBD
:102820001F910F910C94F3130F931F930091780154
:102830001091790120917A0130917B0160237123FD
:10284000822393231F910F910C94F3130F931F93E3
:10285000009178011091790120917A0130917B01EA
:1028600060277127822793271F910F910C94F313F0
:1028700008950C9438140E94391460937401709375
:10288000750180937601909377010C94D00F60E0EE
:1028900070E0CB010C943B1441E050E060E070E04C
:1028A00004C0440F551F661F771F8A95D2F7CB01CE
:1028B000BA010C943B1441E050E060E070E004C0C9
:1028C000440F551F661F771F8A95D2F780917401B8
:1028D00090917501A0917601B0917701482B592B09
:1028E0006A2B7B2BCB01BA010C943B1441E050E0E6
:1028F00060E070E004C0440F551F661F771F8A9583
:10290000D2F74095509560957095809174019091A3
:102910007501A0917601B0917701482359236A236C
:102920007B23CB01BA010C943B1441E050E060E002
:1029300070E004C0440F551F661F771F8A95D2F7B9
:102940008091740190917501A0917601B091770109
:10295000482759276A277B27CB01BA010C943B14DF
:102960000F931F93009174011091750120917601CE
:1029700030917701602B712B822B932B1F910F913C
:102980000C943B140F931F930091740110917501E7
:102990002091760130917701602371238223932364
:1029A0001F910F910C943B140F931F93009174018E
:1029B0001091750120917601309177016027712780
:1029C000822793271F910F910C943B140895292F70
:1029D000220F290F220F280F422F46954695469524
:1029E0002770B1E001C0BB0F2A95EAF785E0489F48
:1029F000A001112441595E4F80E090E070E0FA019F
:102A0000E80FF91FA0819B01082E02C0369527957B
:102A10000A94E2F72170332721952A272B232A27AE
:102A2000208301968530910551F70895292F220FB3
:102A3000290F220F280F622F669566956695922FB3
:102A4000977085E0689FB001112461597E4F40E086
:102A500050E080E0FB01E40FF51F208130E0092EFB
:102A600002C0369527950A94E2F721703327042E89
:102A700001C0220F0A94EAF7822B4F5F5F4F453067
:102A8000510541F70895CF92DF92EF92FF920F9395
:102A90001F93CF93DF93EC01C0907801D090790120
:102AA000E0907A01F0907B01809174019091750122
:102AB000A0917601B0917701C82AD92AEA2AFB2A87
:102AC0000FE110E0B701A601002E04C076956795CE
:102AD000579547950A94D2F740FD05C0015011095A
:102AE00088F780E007C0BE01802F0E944C06019746
:102AF000A9F3802FDF91CF911F910F91FF90EF905D
:102B0000DF90CF900895CF93DF93EC010E9443159F
:102B1000BE010E944C06DF91CF9108951F93CF9381
:102B2000DF93EB0190913601992321F0CB010E94B4
:102B3000831513C0882349F0CB010E944315182F39
:102B4000682FCE010E94E71404C0CB010E94161525
:102B5000182FBE01812F0E944C06DF91CF911F914B
:102B6000089580917C01859585958595089580913E
:102B70007C018770089590917C01977081E009F441
:102B800080E008958091A00108959091A001982B74
:102B90009093A001089580959091A001982390931F
:102BA000A00108951092A001089590919F01982B83
:102BB00090939F010895809590919F019823909301
:102BC0009F01089510929F01089590919E01982B66
:102BD00090939E010895809590919E0198239093E3
:102BE0009E01089510929E01089580917D0108959F
:102BF00008950C94F81590917D01981721F0809319
:102C00007D010C94F915089580917D01882329F0A8
:102C100010927D0180E00C94F9150895E091000177
:102C2000F09101018091A0018083E0910001F09179
:102C30000101808190919F01892B8083E0910001A7
:102C4000F0910101808190919E01892B8083909168
:102C50007D01992381F0E0910001F09101018081D3
:102C6000892B808380910001909101010E94E816D8
:102C700081110E94041680910001909101010C9431
:102C8000BF0A08950C94411698E0899F9001112481
:102C9000622B60937C010E945B1480917C0185957E
:102CA000859585950C94421610927C0180E00C94D9
:102CB000421640917C018095842380937C01982F5B
:102CC000977079F450E0282F332727FD309542176D
:102CD000530739F08595859585950E9476140C9457
:102CE000541608956FEF7FEF80E090E00C9414206D
:102CF00080E090E00E94F01F21E08D3E9E4F09F0A1
:102D000020E0822F089582E090E00C94E81F83E099
:102D100090E00C94E81F84E090E00C94E81F682F8A
:102D200084E090E00C94F61FAB01BC018FE090E0D2
:102D30000C940820AB01BC0183E190E00C940820C6
:102D400060E070E0CB010C949A1660E070E0CB017B
:102D50000E9494160C94A0166DEE7EEF80E090E039
:102D60000E94142060E082E090E00E94F61F60E084
:102D700083E090E00E94F61F109278011092790192
:102D800010927A0110927B0160E084E090E00E9452
:102D9000F61F60E085E090E00E94F61F60E086E0AC
:102DA00090E00E94F61F6FEF87E090E00E94F61F10
:102DB00040E050E0BA0188E090E00E94082060E026
:102DC0008DE090E00E94F61F0C94A5160C94AC16B2
:102DD000029620910C01211102C026E005C020912D
:102DE000C90127FFFACF2EE1FC0180E0215028F035
:102DF00091919923D9F38F5FF9CF089520E030E0C6
:102E00004FEFFC01E20FF31F5281561799F04F3F2D
:102E100019F4511101C0422F2F5F3F4F2630310569
:102E200081F74F3F39F0FC01E40FF11D47FDFA95A2
:102E300062830895089520E030E0FC01E20FF31F63
:102E40004281461301C012822F5F3F4F2630310569
:102E5000A1F70895262F2695269526952E3170F4F4
:102E6000FC01E20FF11D677021E030E0062E01C089
:102E7000220F0A94EAF78281822B82830895262FFB
:102E80002695269526952E3178F4FC01E20FF11D4A
:102E9000677021E030E0062E01C0220F0A94EAF7A5
:102EA0002095828128232283089520910C012223DA
:102EB00029F02091C90127FD0C942A170C94FE16C5
:102EC00020910C01222329F02091C90127FD0C94A7
:102ED0003F170C941B1720910C01FC013296222302
:102EE00031F08091C90187FF02C08EE101C086E008
:102EF000DF011D928A95E9F708950C94BC030895AB
:102F000008950E947F170E94D1080E94801780E0D8
:102F10000E94130991E0811101C090E0892F08956A
:102F20000E94E60F0E94B30A0E9496040C94BD030F
:102F300082E084BD93E095BD9AEF97BD80936E00CB
:102F400008952FB7F8948091C5019091C601A09182
:102F5000C701B091C8012FBF08952FB7F8946091B1
:102F6000C5017091C6018091C7019091C8012FBF22
:102F70000895CF92DF92EF92FF920F931F932FB796
:102F8000F8944091C5015091C6016091C7017091BC
:102F9000C8012FBF6A017B01EE24FF248C0120E0D1
:102FA00030E0C016D106E206F30610F44150510994
:102FB000481B590BCA011F910F91FF90EF90DF90B2
:102FC000CF90089578941F920F920FB60F9211240C
:102FD0008F939F93AF93BF938091C5019091C6014A
:102FE000A091C701B091C8010196A11DB11D8093A8
:102FF000C5019093C601A093C701B093C801BF91CA
:10300000AF919F918F910F900FBE0F901F901895C9
:1030100081E08093E00080E28093D8001092C900A4
:103020008FE19EE40197F1F700C0000087E090EB8C
:10303000DC018093D8019093D901A093DA01B09379
:10304000DB012CE088E190E00FB6F894A89580931E
:1030500060000FBE20936000FFCF0E9478168111A0
:1030600002C00E94E6160E9483168093A1010E946E
:103070008B1690E09093CA018093C9010E94871635
:10308000682F70E080E090E00C9400148091C20101
:10309000089508950F931F93CF93DF9300D01F924D
:1030A000CDB7DEB78C010E94ED1A823011F084306A
:1030B00019F584E089831B830A838093E9008FEFED
:1030C0009091E800815095FD06C095ED9A95F1F735
:1030D00000008111F5CF8091E80085FF0DC040E030
:1030E00050E063E070E0CE0101960E940A1B8091DF
:1030F000E8008E778093E8000F900F900F90DF919B
:10310000CF911F910F910895CF93DF9300D01F921D
:10311000CDB7DEB72091CF01243029F533E03983D4
:10312000805891099B838A832093E9008FEF9091C7
:10313000E800815095FD06C095ED9A95F1F70000E5
:103140008111F5CF8091E80085FF0DC040E050E08F
:1031500063E070E0CE0101960E940A1B8091E800B6
:103160008E778093E8000F900F900F90DF91CF91B2
:103170000895CF93DF93EC010E94ED1A823011F095
:103180008430D9F580910C01811103C068E081E0A1
:1031900006C08091C90187FFF9CF60E284E0809387
:1031A000E9008FEF9091E800815095FD06C095ED04
:1031B0009A95F1F700008111F5CF8091E80085FF25
:1031C0001CC080910C01811105C040E050E068E016
:1031D00070E003C070E040E050E0CE010E940A1BA6
:1031E0008091E8008E778093E80080E2FE01A2EAF9
:1031F000B1E001900D928A95E1F7DF91CF910895AA
:10320000CF93603229F52091CF01243009F5209128
:10321000E9002F703091EC0030FF02C030E801C0AF
:1032200030E0C32FC22B22E02093E9002091E80078
:1032300020FF0BC040E050E060E270E00E940A1BFB
:103240008091E8008E778093E800CF70C093E9000A
:10325000CF9108958091CE01811109C00E94E51C93
:103260000E94421D8091E20084608093E2000895F4
:103270001092CE010895089508950C94901742E09D
:1032800061EC81E00E945F1C42E261EC84E00E94FC
:103290005F1C42E261EC82E00E945F1C42E260EC53
:1032A00083E00C945F1C8091D101833009F462C0EB
:1032B00030F4813071F0823009F49BC008958A3077
:1032C00009F487C08B3009F46DC0893009F0A9C0BA
:1032D00020C08091D001813A09F0A3C08091E8001C
:1032E000877F8093E8008091D4019091D501892B4C
:1032F00021F060E080E090E003C060E282EA91E0CB
:1033000070E00E949C1B8091E8008B778093E8001E
:1033100008958091D001813209F083C08091D40159
:103320009091D501009719F0029709F07AC0809129
:10333000E800877F8093E8008091E80082FD05C067
:103340008091CF018111F8CF6CC02091F300809162
:10335000F20090E0922B029729F48091F1008B7F8C
:10336000813021F48091F1008093C2018091E800C6
:103370008B7753C08091D001813A09F052C080917F
:10338000D4019091D501892B09F04BC08091E800C0
:10339000877F8093E8008091E80080FFFCCF8091D8
:1033A0000C0136C08091D0018132D9F58091D401D1
:1033B0009091D501892BA9F58091E800877F8093B2
:1033C000E8000E94941C8091D20180930C010C941F
:1033D000E60F8091D001813221F58091E800877F4E
:1033E0008093E8000E94941C8091D3018093C301D4
:1033F00008958091D001813AA1F48091E800877FFF
:103400008093E8008091E80080FFFCCF8091C301A9
:103410008093F1008091E8008E778093E8000C940F
:10342000941C08951F93CF93DF93CDB7DEB7A09779
:103430000FB6F894DEBF0FBECDBF84B7877F84BFC1
:1034400088E10FB6F89480936000109260000FBE80
:1034500080E880936100109261000E940D0B0E9431
:10346000E51C0E94421D8091E20084608093E2008E
:1034700078940E94C51F0E94130B82E091E00E9485
:10348000AE0A13E08091CF01853069F40E947D1768
:103490008091CD018823B1F30E948117882391F395
:1034A0000E94F41AEFCF0E94190B8091CF01843053
:1034B00049F71093E9008091E80082FFE3CF809103
:1034C000E80085FF0AC040E050E060E270E0CE0115
:1034D00001960E94531B91E001C090E08091E800AA
:1034E0008B778093E800992369F260E2CE01019620
:1034F0000E948202C7CF0C947D1A292F33272330D4
:103500003105A9F06CF42130310509F448C02230AE
:10351000310509F049C08BE590E028ED32E048C064
:1035200021323105F9F02232310549F13DC09927A8
:103530008130910571F02CF4892BB1F5E4EDF2E0C6
:103540000DC08230910541F0039771F5E0EAF2E099
:1035500005C0ECEBF2E002C0E6EAF2E0849190E014
:103560009F0126C063307105F8F4FB01EE0FFF1FC9
:10357000E45EFE4F2081318189E090E019C0633024
:10358000710590F4FB01EE0FFF1FEA5EFE4F2081F4
:103590003181FB01ED5EFE4F808190E009C082E148
:1035A00090E023E333E004C080E090E020E030E0EE
:1035B000FA013183208308950895CF93C82F0E9484
:1035C000DC1AC093C401CF9108958091CF0184305B
:1035D00011F482E0089581E008958091C401811181
:1035E00002C00C94E51A089580E189BD82E189BD8D
:1035F00009B400FEFDCF8091D8008F7D8093D80064
:103600008091E00082608093E0008091E00081FD85
:10361000FCCF0895CF92DF92EF92FF920F931F930A
:10362000CF93DF937C018B01EA010E94B51C8111CD
:1036300031C0209731F088819981081B190BE80E61
:10364000F91EC12CD12C0115110519F18091E8004A
:1036500085FD14C08091E8008E778093E800209764
:1036600041F0888199818C0D9D1D9983888385E027
:1036700011C00E94B51C882331F30CC0F701819161
:103680007F018093F10001501109FFEFCF1ADF0A8B
:10369000DACF80E0DF91CF911F910F91FF90EF90F3
:1036A000DF90CF900895CF92DF92EF92FF920F9329
:1036B0001F93CF93DF937C018B01EA010E94B51C1D
:1036C000811131C0209731F088819981081B190B35
:1036D000E80EF91EC12CD12C0115110519F18091AC
:1036E000E80085FD14C08091E8008B778093E800A6
:1036F000209741F0888199818C0D9D1D9983888345
:1037000085E011C00E94B51C882331F30CC0809164
:10371000F100F70181937F0101501109FFEFCF1AEA
:10372000DF0ADACF80E0DF91CF911F910F91FF90F8
:10373000EF90DF90CF9008952091D6013091D7017E
:103740002617370748F06115710539F42091E80014
:103750002E772093E80001C0B901FC0120E061153B
:103760007105B9F18091CF01882309F440C08530FB
:1037700009F43FC08091E80083FD3DC08091E800DE
:1037800082FF06C08091E80082FF26C080E0089595
:103790008091E80080FFE3CF2091F3008091F20058
:1037A00090E0922B6115710551F08830910538F445
:1037B00021912093F100615071090196F3CF21E02E
:1037C000089709F020E08091E8008E778093E80068
:1037D000C6CF2111C7CFD6CF8091CF01882339F032
:1037E000853039F08091E80083FFCCCF04C082E0BF
:1037F000089583E0089581E008952091D6013091E5
:10380000D7012617370748F06115710539F4209163
:10381000E8002E772093E80001C0B901FC0120E008
:1038200061157105C1F18091CF01882309F441C070
:10383000853009F440C08091E80083FD3EC080914E
:10384000E80082FF06C08091E80082FF27C080E088
:1038500008958091E80080FFE3CF2091F3008091EC
:10386000F20090E0922B6115710559F088309105B6
:1038700040F424912093F100319661507109019632
:10388000F2CF21E0089709F020E08091E8008E77E0
:103890008093E800C5CF2111C6CFD5CF8091CF014D
:1038A000882339F0853039F08091E80083FFCBCF51
:1038B00004C082E0089583E0089581E00895982F80
:1038C000973058F59093E900981739F07091EC0013
:1038D0002091ED005091F00003C0242F762F50E08E
:1038E00021FF19C03091EB003E7F3093EB00309107
:1038F000ED003D7F3093ED003091EB00316030936F
:10390000EB007093EC002093ED005093F0002091B9
:10391000EE0027FF07C09F5FD3CF8F708093E90031
:1039200081E0089580E008958091D00187FD05C071
:103930008091E80080FF0EC012C08091E80082FDF7
:1039400005C08091CF018111F8CF08958091E800E2
:103950008B7708C08091CF018111EACF08958091C3
:10396000E8008E778093E80008958091E4009091BC
:10397000E50045E62091EC0020FF21C02091E80001
:1039800020FD21C02091CF01222389F0253089F02C
:103990002091EB0025FD0FC02091E4003091E5005F
:1039A0002817390739F3415041F0C901E3CF82E0CC
:1039B000089583E0089581E0089584E008952091BA
:1039C000E80022FFDFCF80E008950E94531D0E948F
:1039D0005B1DE0EEF0E0808181608083E8EDF0E047
:1039E00080818F77808319BCA7EDB0E08C918E7FAA
:1039F0008C9380818F7E80831092CE0108950F93E7
:103A00001F93CF93DF930E94531D0E945B1DC8ED4F
:103A1000D0E088818F7788838881806888838881D7
:103A20008F7D888319BC1092CF011092CB01109228
:103A3000CD011092CC0100EE10E0F80180818B7F67
:103A4000808388818160888342E060E080E00E941A
:103A50005F1CE1EEF0E080818E7F8083E2EEF0E09B
:103A6000808181608083808188608083F80180818B
:103A70008E7F8083888180618883DF91CF911F91C1
:103A80000F910895E8EDF0E080818F7E8083E7ED6F
:103A9000F0E080818160808384E082BF81E0809358
:103AA000CE010C94FF1CE8EDF0E080818E7F8083D6
:103AB0001092E20008951092DA001092E100089549
:103AC0001F920F920FB60F9211242F933F934F9393
:103AD0005F936F937F938F939F93AF93BF93EF9376
:103AE000FF938091E10082FF0BC08091E20082FF92
:103AF00007C08091E1008B7F8093E1000E94C41F8A
:103B00008091DA0080FF1FC08091D80080FF1BC029
:103B10008091DA008E7F8093DA008091D90080FF57
:103B20000DC080E189BD82E189BD09B400FEFDCFF1
:103B300081E08093CF010E942A1905C019BC109220
:103B4000CF010E9438198091E10080FF19C0809157
:103B5000E20080FF15C08091E2008E7F8093E2003A
:103B60008091E20080618093E2008091D8008062C1
:103B70008093D80019BC85E08093CF010E943C1946
:103B80008091E10084FF30C08091E20084FF2CC06E
:103B900080E189BD82E189BD09B400FEFDCF80913D
:103BA000D8008F7D8093D8008091E1008F7E809334
:103BB000E1008091E2008F7E8093E2008091E2003C
:103BC00081608093E2008091CB01882311F084E032
:103BD00007C08091E30087FF02C083E001C081E05D
:103BE0008093CF010E943D198091E10083FF29C09D
:103BF0008091E20083FF25C08091E100877F809360
:103C0000E10082E08093CF011092CB018091E1002E
:103C10008E7F8093E1008091E2008E7F8093E200AE
:103C20008091E20080618093E20042E060E080E009
:103C30000E945F1C8091F00088608093F0000E94D9
:103C40003B19FF91EF91BF91AF919F918F917F9120
:103C50006F915F914F913F912F910F900FBE0F90F9
:103C60001F9018951F920F920FB60F9211242F9349
:103C70003F934F935F936F937F938F939F93AF93F4
:103C8000BF93CF93EF93FF93C091E900CF708091E2
:103C9000EC001092E9008091F000877F8093F000A3
:103CA00078940E946E1E1092E9008091F000886066
:103CB0008093F000C093E900FF91EF91CF91BF9105
:103CC000AF919F918F917F916F915F914F913F91B4
:103CD0002F910F900FBE0F901F9018951F93CF93A9
:103CE000DF93CDB7DEB7AA970FB6F894DEBF0FBE4D
:103CF000CDBFE0EDF1E08091F100819321E0E83D5E
:103D0000F207C9F70E9453198091E80083FF24C18C
:103D10002091D0013091D101832F90E08A3091051C
:103D200008F01AC1FC01E255FF4F0C94E21F203845
:103D300021F0223809F010C108C08091CC01909187
:103D4000CD01992389F082600FC08091D4018F70DA
:103D5000873008F001C18093E9008091EB0085FB7A
:103D6000882780F91092E9009091E800977F90935E
:103D7000E8008093F1001092F100CCC0822F8D7F7B
:103D800009F0EAC0222319F0223061F0E5C08091E9
:103D9000D201813009F0E0C0333009F080E0809337
:103DA000CD012AC08091D201811126C02091D40179
:103DB0002F708FEF820F863008F0CEC02093E9007D
:103DC0008091EB0080FF18C08091EB00333011F43C
:103DD000806210C080618093EB0081E090E001C0C0
:103DE000880F2A95EAF78093EA001092EA00809102
:103DF000EB0088608093EB001092E9008091E8006E
:103E0000877F8093E8000E94941CA6C02111A4C063
:103E10001091D2011F778091E3008078812B8093ED
:103E2000E3008091E800877F8093E8000E94941C63
:103E30008091E80080FFFCCF8091E3008068809350
:103E4000E300112311F083E001C082E08093CF01F1
:103E500083C02058223008F07FC08091D201909119
:103E6000D3018C3D23E0920779F583E08A838AE2CF
:103E700089834FB7F894DE01139620E03EE051E2CB
:103E8000E32FF0E050935700E49120FF03C0E29548
:103E9000EF703F5FEF708E2F90E0EA3010F0C79622
:103EA00001C0C0968D939D932F5F243149F74FBF7A
:103EB0008091E800877F8093E8006AE270E0CE019D
:103EC00001960E949C1B15C06091D4017091D50190
:103ED000AE014F5F5F4F0E947B1A0097E9F120917E
:103EE000E800277F2093E800BC0189819A810E9425
:103EF000FD1B8091E8008B778093E8002DC020386F
:103F000059F58091E800877F8093E8008091CB018C
:103F10008093F1008091E8008E7773CF21111CC04F
:103F20009091D2019230C0F48091E800877F809315
:103F3000E8009093CB010E94941C8091CB018111E9
:103F400004C08091E30087FF02C084E001C081E0EB
:103F50008093CF010E943F198091E80083FF0AC03F
:103F60008091E800877F8093E8008091EB00806279
:103F70008093EB00AA960FB6F894DEBF0FBECDBFBC
:103F8000DF91CF911F9108950895CF938091CF0134
:103F90008823B1F08091E9008F709091EC0090FF40
:103FA00002C090E801C090E0C92FC82B1092E90030
:103FB0008091E80083FD0E946E1ECF70C093E900DF
:103FC000CF910895EE0FFF1F0590F491E02D099415
:103FD000F999FECF92BD81BDF89A992780B50895D1
:103FE000A8E1B0E042E050E00C941C20262FF999A3
:103FF000FECF92BD81BDF89A019700B4021639F048
:104000001FBA20BD0FB6F894FA9AF99A0FBE089518
:104010000396272F0E94F71F0E94F61F252F0E944C
:10402000F71F242F0C94F71F0196272F0E94F71FCC
:104030000C94F61FDC01CB01FC01F999FECF06C000
:10404000F2BDE1BDF89A319600B40D924150504056
:08405000B8F70895F894FFCFC2
:104058007E014618B918491884184A18019435F48D
:104068009766F6402271D80345036703EA021C03EA
:02407800030340
:00000001FF
