:100000000C947F040C94C3040C94C3040C94C30498
:100010000C94C3040C94C3040C94C3040C94C30444
:100020000C94C3040C94C3040C94B72C0C94892D29
:100030000C94C3040C94C3040C94C3040C94C30424
:100040000C94C3040C94C3040C94C3040C94C30414
:100050000C94C3040C9439270C94C3040C94C3046B
:100060000C94C3040C94C3040C94C3040C94C304F4
:100070000C94C3040C94C3040C94C3040C94C304E4
:100080000C94F10A0C94C3040C94C3040C94C304A0
:100090000C94C3040C94C3040C94C3040C94C304C4
:1000A0000C94C3040C94C3040C94C30407050A0500
:1000B0008E0515051D0529057305760579057C0551
:1000C0007F052C052F0534054205500553055705BE
:1000D0006505A50B870B8A0B8D0B900B930B960B6D
:1000E000990B9C0B9F0BA20B190C260C2B0C300CA4
:1000F000350C3A0C440C4E0C580C600C6A0C720C0B
:100100007C0C840C8E0C990CC40CC80CCE0CD40C3A
:10011000DA0CE50CDF0CEB0CEE0CF10CF40CF70C2C
:10012000FD0C030D090D0F0D150D1B0D210D270DD8
:100130002E0D390D910E970E9D0EA20EA70EAC0E30
:10014000B10EB60EBB0EC00EC50ECA0ECF0ED50E2A
:10015000D713DD13E113E413E813EC13F013F413D6
:10016000F913FD130114051408140C1410141414BD
:1001700018141D14F11CF11C2B1D2B1D6E1DB91E16
:10018000B91EB91E901DB91E371E371EAD1EB91EF1
:10019000B91EB41E441E441E441E441E441E441E6A
:1001A000441E441E441E441E441E441E441E441E3F
:1001B000441E441E561E661E6D1E741E7E1E491F62
:1001C000491F5C1F5C1F521F5C1F5C1F5C1F491F87
:1001D000491F581F5C1F5C1F581FEE2D152E032F43
:1001E000152E032F5D2E802E032FD62EE52E1110F7
:1001F0000F0E0D0C0B0A0912131415160706050431
:10020000030201001B1C1D1E1F20083231302F2E3F
:100210002D363738393A3B17343329282726253FDE
:100220004041423C3D3E352C2B2AFFFFFF24FF433B
:10023000444546473A814681508B599D60B565D00B
:1002400069EE6DFF80F73AFF40FF46FF4BFF50FF1E
:1002500055FF59FF5DFF60FF35FF30FF2BFF27FF84
:1002600022FF20FFFFFFFFFFFFFF308B279D20B500
:100270001BD017EE13FFFFFFFFFFFFFFBCFFB7838D
:10028000AD8FA5A39FBC9AD8ACFCAAFFA5FF80099F
:10029000802E80528077809B80C096F493FFA1FFD0
:1002A000001B00400065008900AEFFE9E4C9EBFFD8
:1002B000EDFFC380CE88D798DEAFCDEAD1FFD6FF61
:1002C000DBFFDFFF78106810581048103810281036
:1002D00018100410042080007000600050004000DE
:1002E00030002000100000009000A000B000C0000E
:1002F000D800E000FFFFFFFFFFFF88109810A81054
:10030000B810C810DC10FFFFFFFFFFFF664064302D
:1003100054304430343024303C402B4017406C2063
:100320005C204C203C202C201C2014300230034048
:100330007C208C209C20AC20BC20D620B430D23035
:10034000E030743084309430A4309040A140B54007
:10035000C940DD4029001E001F00200021002200AE
:10036000230024002500260027002D002E00310048
:100370002B0014001A000800150017001C001800BC
:100380000C00120013002F0030002A00E0000400CF
:100390001600070009000A000B000D000E000F00F8
:1003A0003300340028004C00E10000001D001B0059
:1003B0000600190005001100100036003700380053
:1003C000E500105F0000E300E20000000000000014
:1003D00000002C00000000000000E600115F00009B
:1003E00035003A003B003C003D003E003F0040002D
:1003F000410042004300440045004900390001002B
:100400000100010001000100010001004600470059
:1004100048005200010001000100AA00A900A80044
:10042000B0000100550054004A004B0050004F003E
:1004300001004C000100000001000100010001006A
:100440000100570056004D004E0051000100010010
:100450000000010001000000000000000000010099
:100460000000000000000100010000000100010088
:100470000100010001000100010001000100010074
:100480000100010001000100010001000100010064
:100490000100010001000100010001000100010054
:1004A0000100010001000100010001000100010044
:1004B0000100010001000100010001000100010034
:1004C0000100000001000100010001000100010025
:1004D0000100010001000100010001000000010015
:1004E000010000000000000000000100000000000A
:1004F00000000100010000000100035F025F075FD0
:10050000065F0B5F0A5F0100010001000100015F4F
:10051000005F0100010001000100095F085F0D5F3D
:100520000C5F0100010001000100055F045F010094
:1005300001000100010001000100010001000100B3
:1005400001000100010001000100010001000000A4
:100550000100010001000100010001000100010093
:100560000100010001000100000001000100000085
:100570000000000000000100000000000000010079
:100580000100000000000000000000002A2B2800ED
:100590000000000000000000000000000000002932
:1005A000000000002C1E3420212224342627252E72
:1005B000362D3738271E1F202122232425263333AA
:1005C000362E37381F0405060708090A0B0C0D0ED6
:1005D0000F101112131415161718191A1B1C1D2FA2
:1005E0003130232D350405060708090A0B0C0D0EC2
:1005F0000F101112131415161718191A1B1C1D2F82
:100600003130354C00000000000000000000000008
:1006100000000000000000000000000000000000DA
:1006200000000000000101010101010001010101C0
:1006300000000000000000000000000000000100B9
:10064000010001010101010101010101010101019B
:10065000010101010101010101010101010101008B
:100660000000010100000000000000000000000088
:100670000000000000000000000000000000000179
:100680000101010000000000000101010101010160
:100690000101020202020202020202030303030337
:1006A0000303030404040404040505050505060604
:1006B00006060607070707080808080909090A0ABD
:1006C0000A0A0B0B0B0C0C0C0D0D0D0E0E0F0F0F61
:1006D00010101111111212131314141515161617E8
:1006E00017181819191A1A1B1C1C1D1D1E1F1F2054
:1006F000202122222324252526272728292A2B2B9F
:100700002C2D2E2F2F3031323334353636373839C1
:100710003A3B3C3D3E3F4041424344464748494ABC
:100720004B4C4D4F50515253555657585A5B5C5E87
:100730005F606263646667696A6C6D6E7071737422
:100740007678797B7C7E8081838486888A8B8D8F86
:1007500091929496989A9B9D9FA1A3A5A7A9ABADB2
:10076000AFB1B3B5B7B9BBBDBFC1C4C6C8CACCCFA2
:10077000D1D3D6D8DADCDFE1E4E6E8EBEDF0F2F550
:10078000F7FAFCFF0403300000001603520041009A
:100790004D00410020004D00360030002D0041008A
:1007A00000001603520041004D0041002E0057008A
:1007B0004F0052004B0053000000040309040902DB
:1007C0005B00030100A0FA0904000001030101001D
:1007D0000921110100012240000705810308000AD8
:1007E0000904020001030000000921110100012297
:1007F00071000705840320000A09040100020300B8
:1008000000000921110100012222000705820320B6
:100810000001070503032000011201100100000080
:100820000841520A060100010203010660FF096146
:10083000A1010962150026FF0095207508810209B3
:1008400063150026FF00952075089102C005010977
:1008500080A10185031601002603001A81002A8366
:1008600000751095018100C0050C0901A1018504E6
:10087000160100269C021A01002A9C02751095019F
:100880008100C005010906A1018505050719E029B8
:10089000E715002501950875018102050819012950
:1008A00005950575019102950175039101050719DB
:1008B0000029EF1500250195F075018102C00501A1
:1008C0000906A101050719E029E71500250195088A
:1008D0007501810295017508810105081901290535
:1008E00095057501910295017503910105071900A0
:1008F00029FF150026FF00950675088100C0112408
:100900001FBECFEFDAE0DEBFCDBF04B603FE24C0CA
:1009100080911B0590911C05A0911D05B0911E05AD
:100920008730904BA740B04BB9F410921B05109242
:100930001C0510921D0510921E0514BE84B7877FFA
:1009400084BF88E10FB6F894809360001092600035
:100950000FBEE0E0F8E3099512E0A0E0B1E0E8EFB7
:10096000F0E602C005900D92A437B107D9F715E063
:10097000A4E7B2E001C01D92AB31B107E1F70E94DC
:1009800069290C947A300C94000080E290E00E9477
:10099000DD2F8F31954451F482E290E00E94D52FF3
:1009A00091E0883009F090E0892F01C080E08170EB
:1009B0000895CF93C82F882319F06FE175E402C022
:1009C0006FEF7FEF80E290E00E941130CC2311F0B6
:1009D00068E001C06FEF82E290E0CF910C94F32FBA
:1009E00080E00E94D9040C94C3251F93CF93DF931A
:1009F000EC01162F0196488150E0FA013197E3315E
:100A0000F10508F08BC0EA5AFF4F0C94612F198250
:100A100088E028C08981813009F080C00E940427C5
:100A20009A838B837C836D837BC04B816A818981B0
:100A30000E9465189C838D8373C02C8130E0322F17
:100A400022278D81282B4B816A8189810E947E1803
:100A500067C00E949A1864C00E94331926C00E9481
:100A6000351999838A835CC06B8170E0898190E03D
:100A7000982F88272A81AE014C5F5F4F822B0E94FE
:100A800038194EC06B8170E0898190E0982F8827DB
:100A90002A81AE014C5F5F4F822B0E945D1940C0DE
:100AA0000E9483193DC00E945218898339C06B810E
:100AB00070E0898190E0982F88272A81AE014C5FF1
:100AC0005F4F822B0E94DB182BC06B8170E0898105
:100AD00090E0982F88272A81AE014C5F5F4F822BD0
:100AE0000E9400191DC00E94090C1AC00E94AF0C80
:100AF00017C00E945B0D14C00E94F00411C0CE010B
:100B00000E9457282FEF81EE94E0215080409040C2
:100B1000E1F700C000000E945F2702C08FEF8883CA
:100B2000612FCE01DF91CF911F910C9457280E9425
:100B3000C504882319F00E94530D09C00E945B0D63
:100B40000E949A180E94831981E00E94D9040E9491
:100B5000630D0E94DC060C94F0060E9478178FE16A
:100B60009EE40197F1F700C000008FE19EE4019739
:100B7000F1F700C000000E94781780E00E94111871
:100B800080FF04C00E94F0040C945F2708950E9427
:100B9000AD050E9497050C942C170E94B9060C9481
:100BA0002D170F931F93CF93DF93EC018B010E94BE
:100BB000790EF8018281C031FFE5DF0729F0C131EC
:100BC0009FE5D90739F015C0882311F081E005C0F1
:100BD00081E00CC0882349F082E00E94AE2343E00C
:100BE00062E081E00E94FE1218C082E00E94C923E8
:100BF000F6CF882351F0CE0182519F45409728F4CB
:100C00008C2F82510E94931908C0B801CE01DF9148
:100C1000CF911F910F910C94441280E0DF91CF91FE
:100C20001F910F9108959C013F502F3F310509F00E
:100C300058F49C013327A901415351094230510511
:100C400018F4C901986F0895FC01EE0FFF1FEC57CF
:100C5000F94F859194910895CF93DF93EC018FEC38
:100C6000860F823038F58A818823D9F0613311F4F8
:100C700081E001C082E00E94AE238D81982F907F99
:100C800061F080FD0AC082958F7090E0039794F028
:100C900083E0DF91CF910C94E8238D818F708D8359
:100CA00009C0613311F481E001C082E0DF91CF918E
:100CB0000C94C923DF91CF9108950C94F90681E03B
:100CC0000C94F60680E00C94F606DB01E82FF0E0C9
:100CD000EE0FFF1FEC53FD4F94919C933196E491DE
:100CE0001196EC931197843271F018F4863131F03B
:100CF00008958A3271F08D3391F008958091050145
:100D000080FF13C010C08091050183FF0EC0965F65
:100D10000BC08091050183FF08C09C5F05C08091D6
:100D2000050182FD02C098509C930895E82FF0E0E1
:100D3000EE0FFF1FEC5CFD4F8491DB018C9331962D
:100D4000E491DB011196EC930895853020F08FEF4C
:100D5000DA018C9308956E30D0F7BEE08B9FF001DE
:100D60001124E60FF11DE251FE4FE491DA01EC93FC
:100D7000089566E784E70E94251166E784E70C94EE
:100D80003811CF93DF931F92CDB7DEB7AE014F5F1F
:100D90005F4F0E94A506E981F0E0E457FC4F108206
:100DA00010927602109277021092780210927902D5
:100DB0000F90DF91CF9108958091750281110FC03E
:100DC00081E0809375028DE0809391008FB7F89455
:100DD00093E0909399009DE0909398008FBF0895C1
:100DE000E1E7F0E0808182608083089580937F0254
:100DF000089580937E02089580917A0290917B02FB
:100E0000A0917C02B0917D0280739927AA27BB270D
:100E100034E0B695A795979587953A95D1F78230A6
:100E20009105A105B10571F083309105A105B105CA
:100E300069F040E00197A105B10511F060E008C03C
:100E40006FEF02C04FEF60E080E003C04FEF6FEF45
:100E50008FEF0C942B1040E060E080E00C942B109E
:100E600060910A0170910B01809107010E94E10ECF
:100E7000962F672F482F892F0C942B105F926F921B
:100E80007F928F929F92AF92BF92CF92DF92EF921A
:100E9000FF920F931F93CF93DF931F92CDB7DEB7CF
:100EA00060910A0170910B01809107010E94E10E8F
:100EB000A62E972E882E60910C0170910D018091C5
:100EC00007010E94E10E762E672E582E4AE1E42E8D
:100ED00041E0F42EB12CCC24C394D12C00E010E0DE
:100EE000AE014F5F5F4F602F8B2D0E94A506898159
:100EF0008834C0F4F601002E02C0EE0FFF1F0A94E2
:100F0000E2F7D7012D913C91E223F32390E0EF2B00
:100F100021F4282D492D6A2D03C0252D462D672D3E
:100F20000E9403100F5F1F4F0E301105C9F6B394D6
:100F3000B2E0EB0EF11C85E0B812D0CF0F90DF913C
:100F4000CF911F910F91FF90EF90DF90CF90BF90C6
:100F5000AF909F908F907F906F905F900895DF92F9
:100F6000EF92FF920F931F93CF93DF9300D0CDB7F3
:100F7000DEB780910C0190E020910A01821B91095B
:100F80008038910514F09A9505C081382FEF9207AB
:100F90000CF4939597FD0396959587959595879570
:100FA000D82E20910D0130E080910B01281B3109D2
:100FB00037FF02C02D5F3F4F359527953595279513
:100FC000E22EF090070100E010E0BE016F5F7F4F5E
:100FD000802F0E9465069A8192959F7060910A0108
:100FE0009D9D600D112470910B019E9D700D11242B
:100FF0008F2D0E94E10E472F282FC8010E94031059
:101000000F5F1F4F0834110501F70F900F90DF910C
:10101000CF911F910F91FF90EF90DF9008958F92E5
:101020009F92BF92CF92DF92EF92FF920F931F9306
:10103000CF93DF931F92CDB7DEB7D82EF0900A0181
:1010400020910C0130E02F19310937FF02C02D5FCC
:101050003F4F3595279535952795C22EE0900B018A
:1010600020910D0130E02E19310937FF02C02D5FAC
:101070003F4FA9015595479555954795B42E0E9428
:10108000B52F68E470E00E944D2F8C01812C912CCB
:101090001127D11003C080169106C9F40E94B52F04
:1010A00083706F2D8C9D600D112469830E94B52F74
:1010B00083707E2D8B9D700D1124698180910701B5
:1010C0000E94E10E472F282FC4010E9403108FEFCA
:1010D000881A980AE8E48E169104D9F60F90DF91E9
:1010E000CF911F910F91FF90EF90DF90CF90BF9025
:1010F0009F908F900895DF92EF92FF920F931F932E
:10110000CF93DF9380917A0290917B02A0917C0231
:10111000B0917D020090090104C0880F991FAA1F99
:10112000BB1F0A94D2F7D82E0CE813E0C0E0D0E041
:10113000AFE3EA2EF12CF80121918F01F4E02F9F0B
:1011400090011124CA32D10551F0C334D10539F0D0
:101150008091050183FF09C0C434D10531F4209189
:10116000B00384E0289F900111242034310520F43D
:10117000B701621B730B02C060E070E06D0D7FEF82
:10118000809107010E94E10E472F282FCE010E9477
:1011900003102196C834D10571F6DF91CF911F91CC
:1011A0000F91FF90EF90DF9008958F929F92AF92F2
:1011B000BF92CF92DF92EF92FF920F931F93CF9344
:1011C000DF9300D0CDB7DEB780917A0290917B0299
:1011D000A0917C02B0917D020090090104C0880FAB
:1011E000991FAA1FBB1F0A94D2F7882E909007015F
:1011F000BCE8CB2EB3E0DB2E00E010E08FE3A82E9E
:10120000B12CF60121916F01F4E02F9F9001112480
:101210000A32110551F00334110539F080910501AE
:1012200083FF09C00434110531F42091B00384E038
:10123000289F900111242034310520F47501E21A11
:10124000F30A02C0E12CF12CBE016F5F7F4F802FAB
:101250000E9465066981680D6E0D7FEF892D0E94E1
:10126000E10E472F282FC8010E9403100F5F1F4F68
:101270000834110531F60F900F90DF91CF911F9137
:101280000F91FF90EF90DF90CF90BF90AF909F9025
:101290008F9008958F929F92AF92BF92CF92DF92DC
:1012A000EF92FF920F931F93CF93DF9300D0CDB7B0
:1012B000DEB780917A0290917B02A0917C02B0917E
:1012C0007D020090090104C0880F991FAA1FBB1F4F
:1012D0000A94D2F7882E909007019CE8C92E93E0DB
:1012E000D92E00E010E02FE3A22EB12CF6012191BF
:1012F0006F01F4E02F9F900111240A32110551F083
:101300000334110539F08091050183FF09C00434CD
:10131000110531F42091B00384E0289F900111243D
:101320002034310520F47501E21AF30A02C0E12CE1
:10133000F12CBE016F5F7F4F802F0E9465066A818E
:10134000680D6E0D7FEF892D0E94E10E472F282F2B
:10135000C8010E9403100F5F1F4F0834110531F6BA
:101360000F900F90DF91CF911F910F91FF90EF9011
:10137000DF90CF90BF90AF909F908F900895CF92C5
:10138000DF92FF920F931F93CF93DF931F92CDB7FE
:10139000DEB7F82E0E94B52F68E470E00E944D2F52
:1013A0008C01C12CD12C1127F11003C0C016D1061D
:1013B00081F40E94B52F89830E94B52F6981782F0F
:1013C000809107010E94E10E472F282FC6010E943D
:1013D00003108FEFC81AD80AE8E4CE16D10421F71B
:1013E0000F90DF91CF911F910F91FF90DF90CF90E1
:1013F0000895EF92FF920F931F93CF93DF9300D046
:10140000CDB7DEB780917A0290917B02A0917C02E9
:10141000B0917D020090090104C0880F991FAA1F96
:10142000BB1F0A94D2F7E82EF090070100E010E00D
:10143000BE016F5F7F4F802F0E94960669816E0DFF
:101440007A818F2D0E94E10E472F282FC8010E941C
:1014500003100F5F1F4F0834110551F70F900F90C5
:10146000DF91CF911F910F91FF90EF900895EF9230
:10147000FF920F931F93CF93DF9300D0CDB7DEB7CA
:1014800080917A0290917B02A0917C02B0917D02C2
:101490000090090104C0880F991FAA1FBB1F0A945E
:1014A000D2F7E82EF090070100E010E0BE016F5F78
:1014B0007F4F802F0E94960669816E0D67FD6095B3
:1014C0006695669580910A01680F7A8176957158C4
:1014D0008F2D0E94E10E472F282FC8010E94031074
:1014E0000F5F1F4F0834110509F70F900F90DF9120
:1014F000CF911F910F91FF90EF9008950F931F933D
:10150000CF93DF93082F809107010E94E10EEB013A
:10151000182F0E3F49F4482F6D2F8C2FDF91CF915C
:101520001F910F910C942B10282F4D2F802F90E09E
:101530000E9403100432E9F4212F4D2F6C2F8AE210
:1015400090E00E940310212F4D2F6C2F83E490E038
:101550000E9403108091050183FF0BC0212F4D2FA6
:101560006C2F84E490E0DF91CF911F910F910C9448
:101570000310DF91CF911F910F9108958091100179
:101580008F3F51F090917E0291FF06C060910E0155
:1015900070910F010E947E0A80913B0383FF09C076
:1015A000809119018F3FE1F060911701709118014E
:1015B00015C082FF09C0809116018F3F89F06091AC
:1015C0001401709115010AC081FF0AC080911301B6
:1015D0008F3F31F060911101709112010C947E0ADD
:1015E00008951F920F920FB60F9211240F931F931D
:1015F0002F933F934F935F936F937F938F939F931B
:10160000AF93BF93EF93FF9380917402843120F4E2
:101610008F5F809374029FC080917A0290917B02C9
:10162000A0917C02B0917D020196A11DB11D809315
:101630007A0290937B02A0937C02B0937D0280910A
:10164000760290917702A0917802B09179028F3F53
:101650002FEF9207A207B20759F00196A11DB11D05
:101660008093760290937702A0937802B0937902E8
:10167000ECE8F3E080818F3F11F08F5F808331963B
:1016800083E0E43DF807B1F7409108014F3F19F4BA
:101690000E94FC0660C080917F02882321F0809127
:1016A000050185FD1EC050910601511102C080E068
:1016B00019C020EB34E0529FC001539F900D1124BC
:1016C000AA2797FDA095BA2F009176021091770274
:1016D000209178023091790280179107A207B30711
:1016E00030F781E0182F117009F040E081E090910F
:1016F0000401491301C080E04093040150E04B30E5
:10170000510518F5FA01E759FF4F0C94612F0E941B
:1017100030071DC00E943E071AC00E94AF0717C0C5
:101720000E940F0814C00E947B0811C00E94D508B7
:101730000EC00E944A090BC00E94BF0908C00E9447
:10174000F90905C00E94370A02C00E942B07111137
:1017500002C00E94BE0AFF91EF91BF91AF919F918D
:101760008F917F916F915F914F913F912F911F9139
:101770000F910F900FBE0F901F901895FC01862FB0
:10178000642F853010F080830895AF010C94A50676
:10179000AF92BF92CF92DF92EF92FF920F931F937F
:1017A000CF93DF931F92CDB7DEB7B82E8B017A01AE
:1017B00082E08B0D823020F0C12CAA24AA940DC0A7
:1017C000FB01B082FA01108218C0D394FEE0DF1250
:1017D00005C0C39485E0C81681F0D12CA982AE0162
:1017E0004F5F5F4F6D2D8C2D0E94A50689818B1157
:1017F000ECCFF801C082F701D0820F90DF91CF913A
:101800001F910F91FF90EF90DF90CF90BF90AF901E
:101810000895CF93DF93DC014C9150E0475051097C
:101820004031510508F098C04C585F4FFA010C94B4
:10183000612F91E011968C91811101C090E080910F
:10184000050190FB85F98093050186C011968C9166
:101850008093060181C011968C91809307017CC012
:1018600011968C918093080177C011968C9180938A
:10187000090172C011968C91119780930A011296FA
:101880008C9180930B0168C011968C911197809375
:101890000C0112968C9180930D015EC011968C9173
:1018A000119780930E0112968C9180930F0154C072
:1018B00012964C91129711966C9180E191E035C08F
:1018C00011968C9111978093110112968C918093AF
:1018D000120142C012964C91129711966C9183E1BD
:1018E00091E023C011968C91119780931401129668
:1018F0008C918093150130C012964C9112971196DD
:101900006C9186E191E011C011968C9111978093B2
:10191000170112968C91809318011EC012964C915B
:10192000129711966C9189E191E0DF91CF910C941F
:10193000BE0BFC013296AAE1B1E0EF01219788814C
:1019400090E0982F88272081822B8D939D9332964B
:1019500081E0A432B80789F7DF91CF9108950F9302
:101960001F93CF93DF93EC01BC016F5F7F4F088122
:1019700010E0015011090631110508F08FC00C5715
:101980001F4FF8010C94612F80910501817004C0F4
:101990008091050186958170898380C080910501C1
:1019A00082FB882780F9F8CF8091050183FB882787
:1019B00080F9F2CF8091050182958170EDCF809101
:1019C000050185FB882780F9E7CF8091050186FB1B
:1019D000882780F9E1CF80910601DECF8091070151
:1019E000DBCF80910801D8CF80910901D5CF8091BC
:1019F0000A01898380910B012FC080910C0189839A
:101A000080910D0129C080910E01898380910F0181
:101A100023C0AC014E5F5F4F8091100124C08091C4
:101A2000110189838091120117C0AC014E5F5F4F95
:101A30008091130118C08091140189838091150150
:101A40000BC0AC014E5F5F4F809116010CC08091BE
:101A500017018983809118018A8320C0AC014E5FF1
:101A60005F4F80911901DF91CF911F910F910C94DD
:101A7000C80BAAE1B1E0FC013296AD01CF0101979C
:101A800011962C911197EC0128831296EA01888116
:101A900080833296D1E0A432BD0779F7DF91CF91F0
:101AA0001F910F9108954FE150E063E270E085E0EF
:101AB00091E00C94C52F4FE150E063E270E085E0C7
:101AC00091E00C94E32FCF93DF930E94621184E79F
:101AD0000E94B30F86E70E94B30FC0E0D0E0CE01B2
:101AE0004897039780F0CE018197039760F0C53344
:101AF000D10549F0C333D10531F061E0CE018B7FD0
:101B00008334910509F460E06170262F462F8C2FF5
:101B10000E9445102196C834D10509F766E784E78D
:101B20000E943811ECE8F3E08FEF819393E0E43DFD
:101B3000F907D9F7DF91CF9108958091080190E0DE
:101B400001968B30910514F08AE090E080930801B3
:101B50000C945B0D8091080190E0019797FF02C003
:101B600080E090E08B30910514F08AE090E0809363
:101B700008010C945B0D8091090190E0019684307E
:101B8000910514F083E090E0809309010C945B0DC3
:101B90008091090190E0019797FF02C080E090E0FA
:101BA0008430910514F083E090E0809309010C9457
:101BB0005B0D8091070190E008968F3F910519F029
:101BC00014F08FEF90E0809307010C945B0D8091EF
:101BD000070190E0089797FF02C080E090E08F3FF8
:101BE000910519F014F08FEF90E0809307010C94A9
:101BF0005B0D80910A0190E008968F3F910519F0E6
:101C000014F08FEF90E080930A010C945B0D8091AB
:101C10000A0190E0089797FF02C080E090E08F3FB4
:101C2000910519F014F08FEF90E080930A010C9465
:101C30005B0D80910B0190E008968F3F910519F0A4
:101C400014F08FEF90E080930B010C945B0D80916A
:101C50000B0190E0089797FF02C080E090E08F3F73
:101C6000910519F014F08FEF90E080930B010C9424
:101C70005B0D80910C0190E008968F3F910519F063
:101C800014F08FEF90E080930C010C945B0D809129
:101C90000C0190E0089797FF02C080E090E08F3F32
:101CA000910519F014F08FEF90E080930C010C94E3
:101CB0005B0D80910D0190E008968F3F910519F022
:101CC00014F08FEF90E080930D010C945B0D8091E8
:101CD0000D0190E0089797FF02C080E090E08F3FF1
:101CE000910519F014F08FEF90E080930D010C94A2
:101CF0005B0D0F931F93CF93DF938C01EB018A81D0
:101D0000882321F0688189810E94C106F801FF556E
:101D1000EE30F10508F04EC0E656FF4FCA810C9434
:101D2000612FCC2309F447C00E94D90D3CC0CC23BD
:101D300009F441C00E94E70D36C0CC23E1F10E94B6
:101D40009D0D31C0CC23B9F10E94AA0D2CC0CC232B
:101D500091F10E94BB0D27C0CC2369F10E94C80DF0
:101D600022C0CC2341F10E94F90D1DC0CC2319F1F2
:101D70000E94070E18C0CC23F1F00E94190E13C068
:101D8000CC23C9F00E94270E16C0CC23A1F00E94DC
:101D9000390E09C0CC2379F00E94470E04C0CC2331
:101DA00051F00E94590EC0E006C0CC2321F00E94E1
:101DB000670E01C0C1E08C2FDF91CF911F910F9171
:101DC0000895AF92BF92DF92EF92FF920F931F930D
:101DD000CF93DF93D82EF82F711103C0682F782F7F
:101DE0007FC0E62EF12CC72FD0E0082F10E0C701EE
:101DF0006BE270E00E94392F45ED46039001479F4A
:101E0000300D11242E0D3F1D46E0429FC001439F1F
:101E1000900D11244FEF50E0DA01AC1BBD0BA09FD9
:101E20009001A19F300DB09F300D1124F32E8C9F97
:101E3000D0018D9FB00D9C9FB00D1124AB2FBB27FF
:101E40005A01AA1ABB0AA09ED001A19EB00DB09E55
:101E5000B00D1124EB2F5A01A81AB90AAC9EC0018B
:101E6000AD9E900DBC9E900D1124892F9927481B83
:101E7000590B409FE001419FD00D509FD00D112480
:101E800062307105A9F03CF46115710571F06130A3
:101E90007105C1F014C06330710569F064307105DB
:101EA00071F4D32EFF2EED2F0DC0ED2DDD2E0AC0C7
:101EB000E32FFD2E07C0E32FFD2CDB2E03C0EF2FF9
:101EC000D32EFB2EF0E0EC57F94F6491ED2DF0E0AE
:101ED000EC57F94F7491EF2DF0E0EC57F94F8491E6
:101EE000DF91CF911F910F91FF90EF90DF90BF9006
:101EF000AF9008956093F4044093F50424E630E035
:101F000042E050E064EF74E0880F0C941112FF92ED
:101F10000F931F93CF93DF938B01F82EFF0CC0E03C
:101F2000D0E08C2F8C5D8093F404E5EFF4E0D801D1
:101F3000AC0FBD1F8D91819385E0E530F807D1F797
:101F400024E630E041E150E064EF74E08F2D0E9420
:101F500011126096C039D10521F7DF91CF911F9101
:101F60000F91FF900895CF93DF93C82F4BE06DEF53
:101F70000E947A0F40E06AE08C2F0E947A0F8FE374
:101F80009CE90197F1F700C0000040E060E08C2F71
:101F90000E947A0F40E061E08C2F0E947A0F40E0AF
:101FA00066E08C2F0E947A0F40E06DEF8C2F0E942C
:101FB0007A0FD0E040E06D2F8C2F0E947A0FDF5F08
:101FC000D231C1F740E06D2F8C2F0E947A0FDF5F76
:101FD000D432C1F740E06D2F8C2F0E947A0FDF5F63
:101FE000D43BC1F74BE06DEF8C2F0E947A0F41E09C
:101FF0006AE08C2F0E947A0F40E06DEF8C2FDF910A
:10200000CF910C947A0F8834910520F5FC01EE0FE6
:10201000FF1FEE0FFF1FEF5CFE4F52813381808167
:1020200083707181E0E98E9FC00111248C529C4F16
:10203000FC01E70FF11DB4976083FC01E50FF11D72
:10204000B4974083FC01E30FF11DB497208381E036
:102050008093A5020895FF920F931F93CF93DF9370
:10206000182F062FF42EC0E0D0E02F2D402F612F27
:10207000CE010E9403102196C834D105B1F7DF913B
:10208000CF911F910F91FF9008957F928F929F9211
:10209000AF92BF92CF92DF92EF92FF920F931F9376
:1020A000CF93DF93362F54E0859FF0011124EF5C2E
:1020B000FE4F7080872D8370782E618170E0CB0198
:1020C00084974C0197FF04C04B015DE1851A91088C
:1020D00073E0959487947A95E1F7628170E07B01D3
:1020E00054E2E51AF1085701F7FE04C05B015DE117
:1020F000A51AB10863E0B594A7946A95E1F76381E6
:1021000070E08B0104521109680117FF04C06B01D4
:102110005DE1C51AD10853E0D594C7945A95E1F70B
:10212000C8E0D0E0BE010E944D2FFC01C701BE01F6
:102130000E944D2F7C01C801BE010E944D2FA72D8A
:10214000B0E09924FF273323A9F032E13A9FE00160
:102150003B9FD00D1124C80DD91DCF57DD4F61E035
:1021600070E00E2E01C0660F0A94EAF73881362B14
:10217000388314C032E13A9FE0013B9FD00D112417
:10218000C80DD91DCF57DD4F61E070E001C0660F6B
:10219000EA95EAF76095388163236883BB24FF24BE
:1021A00032E13A9FF0013B9FF00D1124EA0DFB1D37
:1021B000EF57FD4F442359F041E050E00E2C01C091
:1021C000440F0A94EAF73081342B30830BC041E08E
:1021D00050E00E2C01C0440F0A94EAF7409530817C
:1021E00043234083DD24992792E19A9FF0019B9F2E
:1021F000F00D1124EC0DFD1DEF57FD4F222351F082
:1022000021E030E001C0220F8A95EAF78081822B1D
:1022100080830AC021E030E001C0220F8A95EAF7EE
:10222000209580812823208381E080938002DF91A4
:10223000CF911F910F91FF90EF90DF90CF90BF90C3
:10224000AF909F908F907F900895CF93C62F9091DD
:10225000A502992349F064ED73E00E94870F64E6BC
:1022600074E08C2F0E94870F1092A502CF910895E1
:10227000DF92EF92FF920F931F93CF93DF93D82EAD
:10228000E62E809180028823A9F001E812E0C3E9DC
:10229000D2E0F12CF80141918F016F2D8D2D0E941C
:1022A0007A0F49916F2D8E2D0E947A0FF394F2E1EF
:1022B000FF12F0CFDF91CF911F910F91FF90EF9020
:1022C000DF9008951092B9008CE08093B8000895D3
:1022D000FF920F931F93CF93DF93F82EEB01109291
:1022E000BC0084EA8093BC000E94F8268C01809197
:1022F000BC0087FD0EC0CF3F8FEFD807C1F30E940F
:10230000F826801B910B8C179D0788F38EEF9FEFAB
:102310002EC09091B900987F983041F09091B9000B
:10232000987F903119F08FEF9FEF21C0F092BB00A2
:1023300084E88093BC000E94F8268C018091BC0048
:1023400087FD0CC0CF3F8FEFD807C1F30E94F8265E
:10235000801B910B8C179D0788F3D8CF8091B90013
:10236000887F883111F08034F1F680E090E0DF91D1
:10237000CF911F910F91FF9008950F931F93CF93CB
:10238000DF93EB018093BB0084E88093BC000E9444
:10239000F8268C018091BC0087FD0EC0CF3F8FEFE7
:1023A000D807C1F30E94F826801B910B8C179D075C
:1023B00088F38EEF9FEF0CC02091B900287F81E059
:1023C00090E0283211F480E090E091958195910998
:1023D000DF91CF911F910F9108950F931F93CF938A
:1023E000DF93EC0184E98093BC000E94F8268C0105
:1023F0008091BC0084FF0EC0CF3F8FEFD807C1F3A0
:102400000E94F826801B910B8C179D0788F38EEF96
:102410009FEF02C080E090E0DF91CF911F910F917C
:102420000895CF92DF92EF92FF920F931F93CF9375
:10243000DF936B017A018901B9010E94681100974D
:10244000C1F4E601EC0CFD1CCE15DF0539F0B80136
:1024500089910E94BD110097B9F30BC0C801DF91AB
:10246000CF911F910F91FF90EF90DF90CF900C9440
:10247000ED11DF91CF911F910F91FF90EF90DF90C1
:10248000CF90089581E0089581E00895CF93282F9B
:1024900030E0F901EC57FA4FC491F901EC5FF94FC4
:1024A0002491222359F081EE0E94281B8C2F0E9438
:1024B000281B8C2F0E94401C81EE04C08C2F0E9490
:1024C000281B8C2FCF910C94401CFF920F931F93CD
:1024D000CF93DF93EC01F62E8881882331F18E01B2
:1024E0000F5F1F4F813031F4C9818C2F0E94281B50
:1024F0008C2F0AC0823029F489810E94281BE801B0
:1025000008C0833021F489810E94401CF8CF0E94CA
:10251000461221968F2D8823F9F2EFE9FFE03197DB
:10252000F1F700C000008150F6CFDF91CF911F91ED
:102530000F91FF90089560E00C9465124F925F92A6
:102540006F927F928F929F92AF92BF92CF92DF92C3
:10255000EF92FF920F931F932B013C01C12CD12CC2
:102560007601C394D701C60104C0880F991FAA1F22
:10257000BB1F4A95D2F7AC01BD014601570104C00B
:10258000880C991CAA1CBB1C2A95D2F748295929EA
:102590006A297B29D701C60104C0880F991FAA1F89
:1025A000BB1F0A95D2F76A017B01C420D520E62023
:1025B000F720C416D506E606F70639F4BC01CD01AE
:1025C00064297529862997290AC0BC01CD01609527
:1025D00070958095909564217521862197211F9192
:1025E0000F91FF90EF90DF90CF90BF90AF909F90B2
:1025F0008F907F906F905F904F9008950F93382F3A
:10260000262F60913B0370913C0380913D03909194
:102610003E03042F432F0E949E120F910C948E2391
:102620000E94C925811102C00E9437260C94C7055B
:102630000C94CD050C945D0608950E94391F0E94EC
:102640001C132FEF84E39CE0215080409040E1F781
:1026500000C000000C945F27FF920F931F93CF934D
:10266000DF938C01FC01C081D1818091D502811161
:1026700013C08281882349F0CE010E949424F82E51
:10268000682FCE010E943A2404C0CE010E94682423
:10269000F82EBE018F2D04C0CE010E949424BE01ED
:1026A0000E942619EC01B8010E94D105882309F483
:1026B0006DC1C63DFCE5DF0709F4D1C0B0F4C531FA
:1026C000ECE5DE0768F4C230FCE5DF0708F04FC038
:1026D000C1158CE5D80701F1C130DC4529F149C1AC
:1026E000C631DC4509F420C144C1CB3D8CE5D80797
:1026F00071F150F4C73DFCE5DF0709F4D3C0C83DD4
:10270000DC4509F4F6C035C1CC3DECE5DE0731F11E
:10271000CD3DDC45A1F02DC1F8018281882309F46B
:1027200035C10E941D1332C1F8018281882309F44A
:102730002DC18091680381608093680327C1F801EF
:102740008281882309F422C10E9437261FC1F80123
:102750008281882309F41AC180E006C0F8018281D1
:10276000882309F413C182E00E94342A0FC1F801C2
:102770008281882309F402C10E94C925811102C007
:102780000E9437260E94DC2590E090930D058093EF
:102790000C05FE01E350FC45E231F10520F4E8555B
:1027A000FF4F0C94612F80910C05816003C08091D4
:1027B0000C05826080930C054BC080910C058460F1
:1027C000F9CF80910C0513C080910C058061F2CF88
:1027D00080910C058062EECF80910C058064EACF79
:1027E00080910C058068E6CF80910C05846088603C
:1027F000E1CF80910C058E7FDDCF80910C058D7F20
:10280000D9CF80910C058B7FD5CF80910C0513C05B
:1028100080910C058F7ECECF80910C058F7DCACF25
:1028200080910C058F7BC6CF80910C058F77C2CF2E
:1028300080910C058B7F877FBDCF90910C0597FB16
:10284000882780F921E0822780FB97F990930C0577
:1028500080910C050E94E0250E94391F97C0F80165
:102860008281882351F01092AB020E94F826909347
:10287000A8028093A70282E022C08091AB0281115E
:102880000FC08091A7029091A8020E941027883C57
:10289000910530F486E20E94281B86E20E94401CCB
:1028A00082E024C0F8018281882361F01092AC029A
:1028B0000E94F8269093AA028093A90280E20E94C7
:1028C000A11C64C08091AC0281110FC08091A9024B
:1028D0009091AA020E941027883C910530F487E26B
:1028E0000E94281B87E20E94401C80E20E94A81CD4
:1028F0004DC0F80182818111D9CF8091AC02811144
:10290000F4CF8091A9029091AA020E941027883CDE
:10291000910558F780E20E94A81C88E20E94281BBB
:1029200088E20E94401C32C00E941325382FF80113
:1029300022818091240190912501222371F03A7A1D
:1029400021E009F420E02093A602222311F065E3A0
:1029500001C069E20E94A62609C02091A602222396
:1029600011F065E301C069E20E94B1260E945F2573
:102970000DC081E08093AB028093AC02C801DF916F
:10298000CF911F910F91FF900C94421280E0DF9144
:10299000CF911F910F91FF90089580E090E00895EE
:1029A000CF93DF930E9426190E948D16EC018115AA
:1029B00020E5920708F041C0C11580E4D80708F06F
:1029C00028C1C83ED10510F5C03ED10508F0A1C10F
:1029D000C83AD10578F4C53AD10508F0A2C0C13093
:1029E000D10509F496C108F447C1C430D10508F0F7
:1029F00090C142C1CF3BD10508F49EC0C03CD10577
:102A000008F43AC1CE01805C9109F5C0C11590E28D
:102A1000D90758F4C11521E0D20708F07AC1C03FA8
:102A2000D10508F429C1D06574C1C11580E3D80768
:102A300008F0E5C0CE019F70DEC0C11595E5D9074D
:102A400008F043C0C11524E5D20708F0F9C0C1154C
:102A500082E5D80708F5C11591E5D90708F0DCC073
:102A60002C2F237081E090E002C0880F991F2A95D7
:102A7000E2F79C689E01F4E036952795FA95E1F718
:102A80002370922BCF70C695C69520E2C29FE001BD
:102A90001124C82BD92B3DC18C2F869586959E017C
:102AA00023703327C115D34508F0BBC090E2899F3E
:102AB000E001112481E090E002C0880F991F2A955F
:102AC000E2F7C82BD92BDC6824C1C11529E5D20750
:102AD000A0F4C11588E5D80708F0B7C0C11596E580
:102AE000D90708F0C9C08C2F0E9409178F71C82F11
:102AF000D0E0DC2FCC27D0620CC1C1152AE5D2076B
:102B000008F4A8C0CE0190568115904208F0B4C0D8
:102B10008D2F8F710E940917DD27D0628F71D82BFE
:102B2000F8C0C53AD10509F4AAC0C63AD10509F4DE
:102B3000A9C0C3E8D0E4EDC0C83AD10509F4A5C0E6
:102B4000C93AD10509F4A4C0CA3AD10509F4A3C011
:102B5000CB3AD10509F4A2C0CC3AD10509F4A1C001
:102B6000CB3BD10509F4A0C0CC3BD10509F49FC0F3
:102B7000CD3AD10509F49EC0C03BD10509F49DC0F2
:102B8000CE3AD10509F49CC0CF3AD10509F49BC0D7
:102B9000C13BD10509F49AC0C23BD10509F499C0E3
:102BA000C33BD10509F498C0C43BD10509F497C0D3
:102BB000C53BD10509F496C0C63BD10509F495C0C3
:102BC000C73BD10509F494C0C83BD10509F493C0B3
:102BD000C93BD10509F492C0CD3BD10509F491C0A0
:102BE000CE3BD10509F490C0CA3BD10509F08FC096
:102BF000CAE2D6E48EC00E941306EC018AC0CE0160
:102C00009927D3FF03C0EC01D86C83C0EC01D06CD2
:102C100080C0DF70D06A7DC0DC2FCC27C16FD06A46
:102C200078C090E2899FE001112481E090E002C029
:102C3000880F991F2A95E2F7C82BD92BDA6869C04B
:102C4000DC2FCC27C46FD06A64C0DC2FCC27C06FC8
:102C5000D06A5FC08C2F8F700E94091734E0D69520
:102C6000C7953A95E1F7CF70D0E0DC2FCC27D06A3A
:102C70008F70806EC82B4DC0C0E0D0E04AC0C1E864
:102C8000D0E447C0C2E8D0E444C0C2EED4E441C0BE
:102C9000C9EED4E43EC0CAEED4E43BC0C5EBD4E4F4
:102CA00038C0C6EBD4E435C0C3EBD4E432C0C4EBC7
:102CB000D4E42FC0C7EBD4E42CC0CCECD4E429C0BE
:102CC000CDECD4E426C0C3E8D5E423C0CAE8D5E4FB
:102CD00020C0C2E9D5E41DC0C4E9D5E41AC0C1E2F0
:102CE000D6E417C0C3E2D6E414C0C4E2D6E411C0EF
:102CF000C5E2D6E40EC0C6E2D6E40BC0C7E2D6E415
:102D000008C0CFE6D4E405C0C0E7D4E402C0C0E008
:102D1000D4E4CE01DF91CF9108958238910549F135
:102D2000B0F48133910509F459C048F48932910512
:102D300009F44FC08A32910509F455C008958533CE
:102D4000910509F441C08933910599F00895833EB6
:102D5000910531F138F4803E910591F0823E910564
:102D6000A9F00895863E910501F1873E910539F15C
:102D7000089520910C0520FD3BC021FD39C0089528
:102D800080910C0580FF34C089E341C080910C051F
:102D900082FF32C080910C0584FF2CC080E037C0D8
:102DA00080910C0582FD28C0F5CF80910C0583FF32
:102DB00025C080910C0584FDF1CF87EE28C080915D
:102DC0000C0583FD1BC0F5CF80910C0585FF18C055
:102DD00019C080910C0585FF15C012C080910C05AB
:102DE00086FF12C013C080910C0586FF0FC00CC077
:102DF00080EE0DC083EE0BC082EE09C086EE07C0E8
:102E000085E305C089E203C081E301C08AE290E066
:102E1000089590910C0592FF0DC0282F287128303D
:102E200019F4877F846006C0282F2471243011F4A0
:102E30008B7F886093FF0DC0282F2871283119F4EB
:102E4000877E846106C0282F2471243111F48B7E83
:102E5000886194FD877E089508950895EFE5F2E076
:102E600021E030E08191A82FA295AF70B0E091965B
:102E70004C9191978F70B90102C0660F771F8A95A8
:102E8000E2F7CB018095482391964C9372E0E436AB
:102E9000F70741F7A1E5B2E021E030E08D91E82F9E
:102EA000E295EF70F0E041A18F70B90102C0660FAA
:102EB000771F8A95E2F7CB01962F9095492341A37E
:102EC00092A1982B92A372E0AF35B70739F7E7EBE1
:102ED000F2E0ADEAB2E0119211921D921D9282E0F1
:102EE000E13CF807C1F785E00E941B180C94101311
:102EF0004F925F927F928F929F92AF92BF92CF92AA
:102F0000DF92EF92FF920F931F93CF93DF939FE592
:102F1000492E92E0592EA7EBB2E020E001E010E04C
:102F20006D018D909C90119711961C921E92E2015A
:102F300049912E01E42FE295EF70F0E081A14F70EE
:102F4000B80102C0660F771F4A95E2F7AB01862BE6
:102F500081A382A1362F3095832382A370EA7A95CC
:102F6000F1F781E5E82E82E0F82E80E090E0E701BD
:102F700079907E01672D62956F7070E0EB0168A11A
:102F8000AD90BC90119770E0D72DDF700D2E02C070
:102F9000759567950A94E2F760FD08C0B801082EA0
:102FA00002C0660F771F0A94E2F702C060E070E08B
:102FB000A62AB72A1196BC92AE9201968E30910540
:102FC000B1F681A1832381A382A1842B82A31296CF
:102FD00031E0F601808191818816990609F430E08C
:102FE000232BF4E64F16F2E05F0609F099CF45E097
:102FF0006DEA72E087EB92E00E941C180E941813A1
:1030000081E0DF91CF911F910F91FF90EF90DF90C2
:10301000CF90BF90AF909F908F907F905F904F9098
:103020000895E82FF0E0EE0FFF1FE355FD4F80817C
:103030009181089508950895FF920F931F93CF9360
:10304000DF93D82FC92FF62E072F142F222349F0F4
:1030500081E08093C3020E94F8269093C20280937D
:10306000C1028091C3028823B9F08091C10290917E
:10307000C2020E941027069778F0ED2FFC2FAF2D8B
:10308000B02F20E0211731F0819191918D939D9384
:103090002F5FF8CF1092C302DF91CF911F910F9154
:1030A000FF90089584E0089550E0440F551F9CE17F
:1030B000699F400D511D11249CE8899F400D511DB1
:1030C0001124CA018E5B9F4F08950F931F93CF93D6
:1030D000DF930E945418EC010E94D52F082F10E0B6
:1030E000102F0027CE0101960E94D52F9801282B82
:1030F000C901DF91CF911F910F9108950F931F93F5
:10310000CF93DF9300D0CDB7DEB72A8339830E94F7
:1031100054188C013981632F0E94F32F2A81622F6A
:10312000C80101960F900F90DF91CF911F910F91E1
:103130000C94F32FAF92BF92CF92DF92EF92FF9257
:103140000F931F93CF93DF93A12CE12CF12CB12C83
:1031500000E010E0C0E0D0E06801CE0CDF1CC6014A
:103160008C5A9C4F6C01FE01EE0FFF1FEC0DFD1DF4
:10317000259134914C2F6B2D8A2D0E947E1821961B
:10318000CE30D10581F7045E1F4FB39485E0B812AD
:10319000E1CF9CE8E90EF11CA39484E0A812D7CFFC
:1031A000DF91CF911F910F91FF90EF90DF90CF9023
:1031B000BF90AF900895EF92FF920F931F93CF931C
:1031C000DF937B01EA01E40EF51E8C01C8018E5BE2
:1031D0009F4FCE15DF0569F0003322E0120720F47F
:1031E0000E94D52F888301C0188221960F5F1F4F40
:1031F000EDCFDF91CF911F910F91FF90EF90089548
:10320000EF92FF920F931F93CF93DF938B017A017D
:10321000080F191FEC01E81AF90ACE018E5B9F4FC7
:10322000C017D10761F0C03322E0D20730F4F701B4
:10323000EC0FFD1F60810E94F32F2196EECFDF91EE
:10324000CF911F910F91FF90EF900895462F8430FA
:1032500038F4753028F46E3018F4672F0C94651824
:1032600080E090E0089580E108958EE891E008956F
:10327000EF92FF920F931F93CF93DF937B01EA01AD
:10328000E40EF51E8C01C8018E589D4FCE15DF054A
:1032900069F00E3821E0120720F40E94D52F8883B0
:1032A00001C0188221960F5F1F4FEDCFDF91CF91A4
:1032B0001F910F91FF90EF900895EF92FF920F935F
:1032C0001F93CF93DF938B017A01080F191FEC0135
:1032D000E81AF90ACE018E589D4FC017D10761F048
:1032E000CE3821E0D20730F4F701EC0FFD1F6081EA
:1032F0000E94F32F2196EECFDF91CF911F910F9176
:10330000FF90EF900895CF93DF93C2E7D2E060E0A3
:10331000CE010E94F32F2196C11584E0D807B9F79A
:10332000DF91CF910895FF920F931F93CF93DF9377
:1033300000D0CDB7DEB7F82E8FE08F1530F18FEFCC
:1033400093E00E94D52F811120C002E712E0FF20F8
:1033500069F0011584E01807C1F0C8010E94D52F5B
:10336000811101C0FA940F5F1F4FF1CF19821A82A9
:10337000C8010E94D52F8983882339F0CE01019698
:103380000E949B120F5F1F4FF3CF0F900F90DF91A2
:10339000CF911F910F91FF9008959093C902809350
:1033A000C8020895E091C802F091C902309721F057
:1033B0000190F081E02D099480E00895E091C80229
:1033C000F091C902309799F020913001222359F0F1
:1033D00020910C0527FF07C0DC012C9111962C933E
:1033E000119725E02C930280F381E02D0994089534
:1033F0002091C6023091C7028217930771F0909313
:10340000C7028093C602E091C802F091C9023097CA
:1034100021F00680F781E02D099408952091C402DF
:103420003091C5028217930771F09093C502809383
:10343000C402E091C802F091C902309721F00084E3
:10344000F185E02D0994089585B7806885BF85B71B
:10345000806885BF089508950E94241A0C942B1A41
:1034600081E008950E94EF260E942E170C94842775
:103470005F926F927F928F929F92AF92BF92CF9204
:10348000DF92EF92FF920F931F93CF93DF93CDB70D
:10349000DEB72A970FB6F894DEBF0FBECDBF0E94ED
:1034A00078170E94301A811111C08FEF89838A83A7
:1034B0001B820E94F8268160782F9D838C8349812E
:1034C0005A816B818D810E94F41A57C09BECC92EE2
:1034D00092E0D92E00E010E0AA24A394B12C502E43
:1034E000802F0E9411183C01F601E190F1906F01CC
:1034F000E826F926E114F10431F40F5F1F4F05307F
:10350000110569F7D2CF8091680381FD0E941A18D6
:1035100020E030E04501022E02C0880C991C0A947C
:10352000E2F7C4018E219F21892B09F12E835F824E
:103530006820792081E0672809F480E088870E946C
:10354000F8268160782F9A8789874E815F81688508
:103550008A850E94F41AF801EE0FFF1FE553FD4F14
:1035600080819181882599259183808306C02F5F72
:103570003F4F2E30310571F6C0CF1091CA020E9424
:10358000D2191817D9F00E94D2198093CA022A962C
:103590000FB6F894DEBF0FBECDBFDF91CF911F9164
:1035A0000F91FF90EF90DF90CF90BF90AF909F90E2
:1035B0008F907F906F905F900C941A132A960FB69D
:1035C000F894DEBF0FBECDBFDF91CF911F910F9159
:1035D000FF90EF90DF90CF90BF90AF909F908F9033
:1035E0007F906F905F900895CF93DF93CDB7DEB754
:1035F0002B970FB6F894DEBF0FBECDBF4F83588711
:1036000069877A878B87DE01119686E0FD0111922A
:103610008A95E9F785E0FE01379601900D928A952B
:10362000E1F749815A816B817C818D819E810E9465
:1036300016222B960FB6F894DEBF0FBECDBFDF91DA
:10364000CF910895FC01808191810E94D424089536
:10365000882309F414C18238C1F40E94D21981FD73
:103660000EC169E380912401909125010E94A62654
:103670000E945F252FEF81EE94E021508040904022
:10368000E1F700C0000069E319C08338F9F40E9433
:10369000D21980FDF4C063E5809124019091250149
:1036A0000E94A6260E945F252FEF81EE94E0215014
:1036B00080409040E1F700C0000063E58091240164
:1036C000909125010E94B1260C945F258438C1F4A5
:1036D0000E94D21982FDD3C067E4809124019091A9
:1036E00025010E94A6260E945F252FEF81EE94E01F
:1036F000215080409040E1F700C0000067E4DECF39
:103700009CEF980F913A40F4682F8091240190919A
:1037100025010E94A626D8CF90E2980F983050F449
:10372000877091E001C0990F8A95EAF7892F0E946E
:103730001625CACF9BE5980F933070F4853A29F08F
:10374000863A31F482E890E005C081E890E002C05A
:1037500083E890E00C94F81998E5980F973108F0F9
:103760008EC0883A09F445C0893A09F445C08A3ABE
:1037700009F445C08B3A09F445C08C3A09F445C0B8
:103780008B3B09F445C08C3B09F445C08D3A09F4E4
:1037900045C0803B09F445C08E3A09F445C08F3AD4
:1037A00009F445C0813B09F445C0823B09F445C09A
:1037B000833B09F445C0843B09F445C0853B09F4CB
:1037C00045C0863B09F445C0873B09F445C0883BAA
:1037D00009F445C0893B09F445C08D3B09F445C057
:1037E0008E3B09F445C08A3B09F045C08AE292E06D
:1037F00044C082EE90E041C089EE90E03EC08AEE87
:1038000090E03BC085EB90E038C086EB90E035C09F
:1038100083EB90E032C084EB90E02FC087EB90E028
:103820002CC08CEC90E029C08DEC90E026C083E8A1
:1038300091E023C08AE891E020C082E991E01DC0B8
:1038400084E991E01AC081E292E017C083E292E03D
:1038500014C084E292E011C085E292E00EC086E2DC
:1038600092E00BC087E292E008C08FE690E005C0CE
:1038700080E790E002C080E090E00C940E1A08957A
:10388000882309F45DC0823879F40E94D21981FF3F
:1038900057C069E380912401909125010E94A626DA
:1038A0000E945F2569E310C08338B1F40E94D219E9
:1038B00080FF46C063E580912401909125010E941C
:1038C000A6260E945F2563E5809124019091250141
:1038D0000E94B1260C945F25843879F40E94D21995
:1038E00082FF2EC067E480912401909125010E94FF
:1038F000A6260E945F2567E4E7CF9CEF980F913AD8
:1039000010F4682FE1CF90E2980F983050F4877050
:1039100091E001C0990F8A95EAF7892F0E941C2532
:10392000D9CF9BE5980F933020F480E090E00C9481
:10393000F819885A873120F480E090E00C940E1A30
:103940000895882321F00E9416250C945F25089580
:10395000882321F00E941C250C945F2508958F92E6
:103960009F92BF92CF92DF92EF92FF920F931F939D
:10397000CF93DF9300D0CDB7DEB74C01472FFC01CA
:10398000C580C2949FE0C922D280DD2031F07983C6
:103990006A830E9433256A81498149836A830E9430
:1039A0000C2549816A81882389F0DD2079F080E245
:1039B000860F883058F082E00E94AA250E940C25CC
:1039C000BB24B394B82649816A8101C0B12CE42E8E
:1039D000E2948FE0E822F12CF701E654FF4F0C94BB
:1039E000612F842F807F142F1F70882311F0129570
:1039F000107FDD20C1F0112309F49AC180E2860F07
:103A0000883010F0611105C0812F6A830E9416254D
:103A100004C0812F6A830E9426256A816A830E94DE
:103A20005F256A8185C1862F6A830E94401C6A8156
:103A3000112309F49EC180E2860F883010F06111D5
:103A400004C0812F0E941C2503C0812F0E942C25B9
:103A50000E945F258EC1842F807F142F1F708032BB
:103A600011F01295107F662319F06130D9F026C04D
:103A7000DD2079F0CC2049F0F1E0CF1206C00E94A1
:103A80004625812B0E944C2574C10E944625812B1E
:103A900004C1CC2021F021E0C21609F46AC10E94C1
:103AA000552500C1DD2029F085E08C1508F461C1A1
:103AB000F3C094E09C1508F45CC1F4C0DD2051F023
:103AC000CC2009F4E9C0F401858180FF31C18F70F9
:103AD0008583E2C0CC2009F4E5C03BC1242F2695A4
:103AE0002695237030E02115310521F02130310574
:103AF00061F03FC1DD2021F0862F942F937002C02A
:103B000080E090E00E94F81944C1DD2021F0862F6A
:103B1000942F937002C080E090E00E940E1A39C189
:103B2000842F837009F04EC0D1102FC1262F22950B
:103B300026952770220F220F862F8F70C82ED12C2A
:103B4000E12CF12C022E04C0CC0CDD1CEE1CFF1C61
:103B50000A94D2F764FF10C06FE070E080E090E05C
:103B600004C0660F771F881F991F2A95D2F76095AA
:103B700070958095909503C060E070E0CB01242F94
:103B800026952695237030E02230310569F02330E8
:103B9000310589F06C297D298E299F292130310535
:103BA00071F00E946723F1C06C297D298E299F291D
:103BB0000E947923EAC00E946723C701B6010E94D0
:103BC0005523E3C0DD2019F0842F817001C0869554
:103BD000882309F4DAC0262F229526952770220F14
:103BE000220F862F8F70C82ED12CE12CF12C022EA3
:103BF00004C0CC0CDD1CEE1CFF1C0A94D2F764FF41
:103C000010C06FE070E080E090E004C0660F771FA6
:103C1000881F991F2A95D2F7609570958095909589
:103C200003C060E070E0CB01242F26952695237019
:103C300030E02230310569F02330310589F06C29FC
:103C40007D298E299F292130310571F00E9415248C
:103C50009CC06C297D298E299F290E94272495C00C
:103C60000E941524C701B6010E9403248EC0062FAE
:103C700010E0F801E05EF109E531F10508F054C00B
:103C8000E653FF4F0C94612F162F1F70842F8F71F6
:103C9000DD2031F00E94AE23812F0E94A11C69C05B
:103CA0000E94C923812F0E94A81C63C0DD2049F017
:103CB000F4E0FC1508F45DC0842F8F710E94E823A6
:103CC00058C025E02C1508F454C0F6CFDD2039F09B
:103CD000842F8F710E94AE234CC0DD20C9F3842F46
:103CE0008F710E94C92345C0DD2029F0842F8F7178
:103CF0000E949F233EC00E949A233BC0DD2051F0CA
:103D0000142F1F71812F0E94AE2363E0812F0E9428
:103D100095252FC081E00E94AA2581E08C1548F5E9
:103D200082E00E94AA2525C0DD2031F0CC2081F25E
:103D3000862F0E94281B1DC0CC2089F2693349F4CC
:103D40009FEFE7EEF3E09150E040F040E1F700C074
:103D50000000862F0E94401C0CC04F70C4010E94BE
:103D6000CD140E94C32215C04F70C4010E942C06BE
:103D700010C028E0E216F10441F05CF09AE0E91A84
:103D8000F108E2E0EE16F10420F40E94D2190E943C
:103D90001A13BB20F1F00E94082580FD1AC0F4011F
:103DA00012820E9402250E94AE23C4010E94F71EC7
:103DB0000E9402250F900F90DF91CF911F910F91DC
:103DC000FF90EF90DF90CF90BF909F908F900C94DA
:103DD000C9230F900F90DF91CF911F910F91FF900A
:103DE000EF90DF90CF90BF909F908F9008950F93AA
:103DF0001F93CF93DF93EC01288139818B819C81C4
:103E0000892B31F03F3F11F080E003C02F3FE1F7F5
:103E100081E0811113C0CE010E942C13882371F020
:103E2000688179818A810E94DF248C010E94392473
:103E30000E945223B801CE010E94AF1CDF91CF91A6
:103E40001F910F9108950E9433250E9443250E94DF
:103E50005F2580E090E00E94F81980E090E00C94EB
:103E60000E1A80912401909125010E94BC260C9489
:103E7000231F0E9423250C94311FE92FE295EF7038
:103E8000F0E03297EE30F105B8F4E152FF4F0C94B8
:103E9000612F803F59F018F4803E70F407C0843FD2
:103EA00059F404C0803E10F0813F31F481E0089560
:103EB00093FB882780F9089580E008950E94D42418
:103EC0000E943D1F0895CF93DF9300D000D01F9232
:103ED000CDB7DEB70F900F900F900F900F90DF913E
:103EE000CF910895CF93DF9300D000D000D0CDB70D
:103EF000DEB726960FB6F894DEBF0FBECDBFDF91BA
:103F0000CF9108951F93CF93DF93C091D60216E00F
:103F10008091D702C81799F0D0E01C9FF0011D9F37
:103F2000F00D1124E852FD4F40815181628173816F
:103F3000848195810E94721F2196C770E9CFDF911D
:103F4000CF911F910895409108035091090360910A
:103F50000A0370910B0380910C0390910D030C9454
:103F6000721FCF9380910D0382958F7009F05FC00F
:103F700080910A03882309F45AC02091D602A091A7
:103F8000D702609108037091090380910B0390910F
:103F90000C0331E06F3F09F030E0B32FC6E02A1781
:103FA00009F445C0009721F07F3F21F44B2F03C057
:103FB00041E001C040E030E040FD35C0C29FF0016B
:103FC000C39FF00D1124E852FD4F418174132BC0A3
:103FD0004081641328C04281411125C0438154812E
:103FE0004817590710F441505109481B590B483CD8
:103FF0005105C8F480910D038F70806180930D038B
:1040000086E0829FF001839FF00D1124E352FD4F63
:1040100080818F708061808388E093E00E94F71E2A
:10402000CF910C94821F2F5F3F4F2770B8CFCF9155
:104030000895CF92DF92EF92FF920F931F93CF9349
:10404000DF93CDB7DEB762970FB6F894DEBF0FBE31
:10405000CDBF8C0185E0F801DE011D9601900D9227
:104060008A95E1F7D8014C9111965C9111971296BF
:104070006C9112971396ED90FC9014977091080331
:10408000E091090320910B0330910C0321153105B8
:1040900031F0EF3F31F481E07F3F19F403C081E05C
:1040A00001C080E0B82FB170CB2E80FD6BC1D090E5
:1040B0000A03DD2009F4F5C0F0910D03E216F306C2
:1040C00038F0C701821B930B883C910548F09DC0D6
:1040D000209530952E0D3F1D283C310508F095C0E8
:1040E0008F2F807F09F052C0E51314C0741312C0E3
:1040F000D62E61110FC0FF70F061F0930D030E9486
:10410000A31F88E093E00E94F71E80910D03F80141
:1041100085837CC1EF2831F05F3F31F481E04F3F70
:1041200019F403C081E001C080E080FD03C081E09C
:10413000862701C080E0F82FF170FF2E80FF1CC0A1
:104140008091D6022091D70236E0821709F438C157
:1041500090E0389FF001399FF00D1124E852FD4F97
:104160007181571306C07081471303C072816713B2
:1041700003C001968770E9CFD62E662309F446C1A5
:1041800080910D03816080930D0355C0E51308C035
:10419000741306C0611104C0D8011596FC93AEC01B
:1041A0004D875E878D859E856A8B0E945E1F6A891A
:1041B000882329F1D62E662311F120910D03822F39
:1041C00082958F7090E002970CF462C08091080392
:1041D0009091090398878F831986FB86EA862C873E
:1041E000CE01079653C0E51741F14D875E878D8557
:1041F0009E856A8B0E945E1F6A89811130C0C8014A
:104200000E94F71EDD24D39401C18F2F807F59F7C0
:104210007E2DF98AE88A89890E94631F88E093E0ED
:104220000E94F71EE8E0F3E086E0DF011D928A9528
:10423000E9F70E94A31FD12CE9C07413D6CF6111F6
:10424000D4CFD8011596FC93C8010E94F71EE8E070
:10425000F3E086E0DF011D928A95E9F7D7C0D62EFC
:10426000662369F220910D03822F82958F7090E072
:10427000029774F080910803909109039A838983CF
:104280001B82FD82EC822E83CE0101960E94F71ED6
:1042900086E0F801A8E0B3E001900D928A95E1F77D
:1042A0008AC0E216F30628F0C701821B930B9C011B
:1042B00004C0209530952E0D3F1D283C310508F097
:1042C00053C0D62E662309F49ACFE5132CC074137D
:1042D0002AC080910D0380FD1DC0982F92959F707C
:1042E000C9F0D80115968C9315979F3039F09F5FD0
:1042F0009295907F8F70892B15968C93C8010E94A0
:10430000F71E86E0F801A8E0B3E001900D928A95CF
:10431000E1F753C086E0F801A8E0B3E001900D9208
:104320008A95E1F773C04D875E878D859E850E94D3
:104330005E1F882381F096E0F801A8E0B3E00190C9
:104340000D929A95E1F78A8B0E94B11F0E94A31FDC
:104350008A89D82E5BC080910D03816080930D0304
:10436000C8010E94F71E52C07E2DF98AE88A898909
:104370000E94631FE8E0F3E086E0DF011D928A956A
:10438000E9F71BC0662309F43ACF4D875E878D8518
:104390009E850E945E1FD82E882309F430CF86E0C8
:1043A000F801A8E0B3E001900D928A95E1F788E06A
:1043B00093E00E94221B0E94B11F0E94A31F26C0EF
:1043C0004D875E878D859E850E94D424292F229556
:1043D0002F7030E0223031052CF49F7041F08111B4
:1043E00006C00CC0243031052CF49F7049F4805E67
:1043F000883020F0C8010E94F71ECF2CDC2C06C0AC
:10440000D80115969C91907F91F7F8CF8D2D6296EB
:104410000FB6F894DEBF0FBECDBFDF91CF911F91D5
:104420000F91FF90EF90DF90CF9008951F93CF935F
:10443000DF93CDB7DEB72C970FB6F894DEBF0FBE73
:10444000CDBF4F83588769877A878B879C87CE013A
:1044500007960E9419208823C1F02F8138858A850C
:104460009B85892B31F03F3F11F080E003C02F3F47
:10447000E1F781E0811147C04F81588569857A85D0
:104480008B859C850E94721F3EC086E0FE01379698
:10449000DE01119601900D928A95E1F7FF81E88582
:1044A0004A855B854115510531F0EF3F31F481E0DC
:1044B000FF3F19F403C081E001C080E080FD23C00C
:1044C0002091D70230E0C901019687709927609149
:1044D000D60270E086179707F1F1F983EA835D83CE
:1044E0004C8396E0929FD001939FB00D1124A85267
:1044F000BD4FFE01319601900D929A95E1F78093A0
:10450000D7020E94821F16E08091D6029091D702B6
:10451000891779F1189FC001112488529D4F0E947C
:104520001920882331F1E091D6021E9FF001112459
:10453000E852FD4F40815181628173818481958170
:104540000E94721F8091D60290E001968770992791
:104550008093D602D9CF0E94391F1092D7021092B1
:10456000D602E8E0F3E086E0DF011D928A95E9F7E4
:10457000CACF2C960FB6F894DEBF0FBECDBFDF9129
:10458000CF911F910895EF92FF920F931F93CF93B6
:10459000DF93FC01009709F46FC0F12CEE24E39443
:1045A000EF0121968491843740F4843008F055C09F
:1045B000813081F0823021F15FC0853709F447C036
:1045C000C0F19CE7980F903708F056C08F770E9493
:1045D000401C45C08F010E5F1F4FFE01849190E289
:1045E000980F983050F48770FE2D01C0FF0F8A9508
:1045F000EAF78F2F0E94362515C00E94281B14C091
:104600008F010E5F1F4FFE01849190E2980F98304A
:1046100068F48770FE2D01C0FF0F8A95EAF78F2F8F
:104620000E943C250E945F25E80119C00E94401CA1
:10463000FBCFCF010296FE01C491CC2361F0EFE9DC
:10464000FFE03197F1F700C00000C150F6CFCF0175
:104650000296FE01F490EC0102C00E94281B8F2DEF
:10466000882341F0EFE9FFE03197F1F700C0000047
:104670008150F6CFFE0194CFDF91CF911F910F9122
:10468000FF90EF90089508950C9443230E944423D3
:1046900060933F03709340038093410390934203E0
:1046A0000C94231F08950C9446230F931F9300919D
:1046B0003F03109140032091410330914203602B4E
:1046C000712B822B932B1F910F910C9446230F93E8
:1046D0001F9300913F0310914003209141033091BB
:1046E000420360237123822393231F910F910C9423
:1046F00046230F931F9300913F0310914003209195
:1047000041033091420360277127822793271F912D
:104710000F910C94462308950C948B230E948C23B4
:1047200060933B0370933C0380933D0390933E035F
:104730000C94231F60E070E0CB010C948E2341E0C9
:1047400050E060E070E004C0440F551F661F771F03
:104750008A95D2F7CB01BA010C948E2341E050E048
:1047600060E070E004C0440F551F661F771F8A95F4
:10477000D2F780913B0390913C03A0913D03B0910F
:104780003E03482B592B6A2B7B2BCB01BA010C948F
:104790008E2341E050E060E070E004C0440F551FFC
:1047A000661F771F8A95D2F7409550956095709552
:1047B00080913B0390913C03A0913D03B0913E0357
:1047C000482359236A237B23CB01BA010C948E23FF
:1047D00041E050E060E070E004C0440F551F661FE8
:1047E000771F8A95D2F780913B0390913C03A0916B
:1047F0003D03B0913E03482759276A277B27CB0109
:10480000BA010C948E230F931F9300913B031091D8
:104810003C0320913D0330913E03602B712B822B92
:10482000932B1F910F910C948E230F931F93009144
:104830003B0310913C0320913D0330913E036023E4
:104840007123822393231F910F910C948E230F9336
:104850001F9300913B0310913C0320913D03309145
:104860003E0360277127822793271F910F910C9495
:104870008E2308952EE0929F800D1124482F469597
:10488000469546958770B1E001C0BB0F8A95EAF75F
:1048900085E0489FA0011124425F5C4F80E090E0DA
:1048A00070E0FA01E80FF91FA0819B01082E02C0F9
:1048B000369527950A94E2F72170332721952A2708
:1048C0002B232A27208301968530910551F70895DF
:1048D0002EE0929F800D1124682F6695669566954F
:1048E000982F977085E0689FB0011124625F7C4F1C
:1048F00040E050E080E0FB01E40FF51F208130E054
:10490000092E02C0369527950A94E2F721703327C5
:10491000042E01C0220F0A94EAF7822B4F5F5F4FEB
:104920004530510541F70895CF92DF92EF92FF9203
:104930000F931F93CF93DF93EC01C0903F03D09070
:104940004003E0904103F090420380913B0390913B
:104950003C03A0913D03B0913E03C82AD92AEA2A1C
:10496000FB2A0FE110E0B701A601002E04C07695E6
:104970006795579547950A94D2F740FD05C00150B9
:10498000110988F780E007C0BE01802F0E94D01473
:104990000197A9F3802FDF91CF911F910F91FF9085
:1049A000EF90DF90CF900895CF93DF93EC010E94BA
:1049B0009424BE010E94D014DF91CF9108951F93DB
:1049C000CF93DF93EB019091D502992321F0CB0196
:1049D0000E94D42413C0882349F0CB010E94942460
:1049E000182F682FCE010E943A2404C0CB010E94E8
:1049F0006824182FBE01812F0E94D014DF91CF911F
:104A00001F91089580914303859585958595089517
:104A1000809143038770089590914303977081E0DC
:104A200009F480E0089580916703089590916703E9
:104A3000982B90936703089580959091670398232E
:104A40009093670308951092670308959091660309
:104A5000982B909366030895809590916603982310
:104A600090936603089510926603089590916503EC
:104A7000982B9093650308958095909165039823F2
:104A800090936503089510926503089580914403FF
:104A9000089508950C94492590914403981721F0A6
:104AA000809344030C944A250895809144038823FD
:104AB00029F01092440380E00C944A250895E09177
:104AC0002401F0912501809167038083E091240106
:104AD000F0912501808190916603892B8083E0917C
:104AE0002401F0912501808190916503892B8083B9
:104AF00090914403992381F0E0912401F0912501E4
:104B00008081892B808380912401909125010E94CE
:104B1000392681110E94552580912401909125010B
:104B20000C94DE1908950C94922598E0899F9001C9
:104B30001124622B609343030E94AE2380914303B0
:104B40008595859585950C9493251092430380E077
:104B50000C949325409143038095842380934303D1
:104B6000982F977079F450E0282F332727FD309540
:104B70004217530739F08595859585950E94C9237D
:104B80000C94A52508956FEF7FEF80E090E00C94E2
:104B9000113080E090E00E94DD2F21E08D3E9E4F9D
:104BA00009F020E0822F089582E090E00C94D52F48
:104BB00083E090E00C94D52F84E090E00C94D52F06
:104BC000682F84E090E00C94F32FAB01BC018FE0E0
:104BD00090E00C940530AB01BC0183E190E00C94B3
:104BE000053060E070E0CB010C94EB2560E070E0F4
:104BF000CB010E94E5250C94F1256DEE7EEF80E05F
:104C000090E00E94113060E082E090E00E94F32F7B
:104C100060E083E090E00E94F32F10923F03109237
:104C20004003109241031092420360E084E090E060
:104C30000E94F32F60E085E090E00E94F32F60E097
:104C400086E090E00E94F32F6FEF87E090E00E94F3
:104C5000F32F40E050E0BA0188E090E00E94053078
:104C600060E08DE090E00E94F32F0C94F6250C9408
:104C7000FD25029620913001211102C026E005C0D9
:104C800020910C0527FFFACF2EE1FC0180E0215096
:104C900028F091919923D9F38F5FF9CF089520E0FF
:104CA00030E04FEFFC01E20FF31F5281561799F0ED
:104CB0004F3F19F4511101C0422F2F5F3F4F263053
:104CC000310581F74F3F39F0FC01E40FF11D47FD3D
:104CD000FA9562830895089520E030E0FC01E20F28
:104CE000F31F4281461301C012822F5F3F4F2630CF
:104CF0003105A1F70895262F2695269526952E3164
:104D000070F4FC01E20FF11D677021E030E0062E27
:104D100001C0220F0A94EAF78281822B82830895D0
:104D2000262F2695269526952E3178F4FC01E20F44
:104D3000F11D677021E030E0062E01C0220F0A94B9
:104D4000EAF720958281282322830895209130015B
:104D5000222329F020910C0527FD0C947B260C942E
:104D60004F2620913001222329F020910C0527FDA8
:104D70000C9490260C946C2620913001FC01329604
:104D8000222331F080910C0587FF02C08EE101C023
:104D900086E0DF011D928A95E9F708950C945F067D
:104DA00008950895CF930E94D0260E9478170E94FC
:104DB000D126C0E08C2F0E941118892B29F4CF5FD7
:104DC000C530C1F780E001C081E0CF9108950E9415
:104DD000391F0E94D2190E941A130C94620682E0B5
:104DE00084BD93E095BD9AEF97BD80936E000895C2
:104DF0002FB7F8948091080590910905A0910A05B4
:104E0000B0910B052FBF08952FB7F8946091080556
:104E10007091090580910A0590910B052FBF0895A7
:104E2000CF92DF92EF92FF920F931F932FB7F894D8
:104E3000409108055091090560910A0570910B0594
:104E40002FBF6A017B01EE24FF248C0120E030E0BB
:104E5000C016D106E206F30610F441505109481B72
:104E6000590BCA011F910F91FF90EF90DF90CF90E7
:104E7000089578941F920F920FB60F9211248F937A
:104E80009F93AF93BF938091080590910905A091DE
:104E90000A05B0910B050196A11DB11D809308056F
:104EA00090930905A0930A05B0930B05BF91AF91AC
:104EB0009F918F910F900FBE0F901F90189581E0DA
:104EC0008093E00080E28093D8001092C9008FE1C7
:104ED0009EE40197F1F700C0000087E090EBDC0151
:104EE00080931B0590931C05A0931D05B0931E0590
:104EF0002CE088E190E00FB6F894A89580936000CC
:104F00000FBE20936000FFCF0E94C925811102C00F
:104F10000E9437260E94D425809368030E94DC25D6
:104F200090E090930D0580930C050E94D825682F82
:104F300070E080E090E00C94532380918903089501
:104F400008950F931F93CF93DF9300D01F92CDB797
:104F5000DEB78C010E94442A823011F0843019F5AA
:104F600084E089831B830A838093E9008FEF90910B
:104F7000E800815095FD06C095ED9A95F1F7000087
:104F80008111F5CF8091E80085FF0DC040E050E031
:104F900063E070E0CE0101960E94612A8091E800F2
:104FA0008E778093E8000F900F900F90DF91CF9154
:104FB0001F910F910895CF93DF9300D01F92CDB72B
:104FC000DEB720911205243029F533E0398380586B
:104FD00091099B838A832093E9008FEF9091E800E9
:104FE000815095FD06C095ED9A95F1F7000081116D
:104FF000F5CF8091E80085FF0DC040E050E063E010
:1050000070E0CE0101960E94612A8091E8008E77BF
:105010008093E8000F900F900F90DF91CF9108954B
:10502000CF93DF93EC010E94442A823011F0843048
:10503000D9F580913001811103C068E081E006C09C
:1050400080910C0587FFF9CF60E284E08093E9004E
:105050008FEF9091E800815095FD06C095ED9A95EF
:10506000F1F700008111F5CF8091E80085FF1CC0A9
:1050700080913001811105C040E050E068E070E0AF
:1050800003C070E040E050E0CE010E94612A8091B0
:10509000E8008E778093E80080E2FE01A9E6B3E0A5
:1050A00001900D928A95E1F7DF91CF910895CF930A
:1050B000603229F520911205243009F52091E9008C
:1050C0002F703091EC0030FF02C030E801C030E0BA
:1050D000C32FC22B22E02093E9002091E80020FF9B
:1050E0000BC040E050E060E270E00E94612A8091D5
:1050F000E8008E778093E800CF70C093E900CF91ED
:10510000089580911105811109C00E943C2C0E94D4
:10511000992C8091E20084608093E20008951092BF
:1051200011050895089508950C94E72642E061EC76
:1051300081E00E94B62B42E261EC84E00E94B62B33
:1051400042E261EC82E00E94B62B42E260EC83E036
:105150000C94B62B80911405833009F462C030F4AE
:10516000813071F0823009F49BC008958A3009F4CF
:1051700087C08B3009F46DC0893009F0A9C020C008
:1051800080911305813A09F0A3C08091E800877FE0
:105190008093E8008091170590911805892B21F0E4
:1051A00060E080E090E003C060E289E693E070E0B8
:1051B0000E94F32A8091E8008B778093E80008959D
:1051C00080911305813209F083C080911705909179
:1051D0001805009719F0029709F07AC08091E8004D
:1051E000877F8093E8008091E80082FD05C0809170
:1051F00012058111F8CF6CC02091F3008091F2006C
:1052000090E0922B029729F48091F1008B7F8130FE
:1052100021F48091F100809389038091E8008B77DD
:1052200053C080911305813A09F052C0809117054F
:1052300090911805892B09F04BC08091E800877F79
:105240008093E8008091E80080FFFCCF80913001DE
:1052500036C0809113058132D9F580911705909160
:105260001805892BA9F58091E800877F8093E800D5
:105270000E94EB2B80911505809330010C94391F0F
:1052800080911305813221F58091E800877F80931A
:10529000E8000E94EB2B8091160580938A03089505
:1052A00080911305813AA1F48091E800877F809373
:1052B000E8008091E80080FFFCCF80918A03809312
:1052C000F1008091E8008E778093E8000C94EB2B3E
:1052D00008951F93CF93DF93CDB7DEB7A0970FB696
:1052E000F894DEBF0FBECDBF84B7877F84BF88E14F
:1052F0000FB6F89480936000109260000FBE80E8B3
:1053000080936100109261000E942C1A0E943C2C34
:105310000E94992C8091E20084608093E20078944E
:105320000E941C2F0E94321A86E291E00E94CD1941
:1053300013E080911205853069F40E94CE26809199
:1053400010058823B1F30E94D226882391F30E948E
:105350004B2AEFCF0E94381A80911205843049F70A
:105360001093E9008091E80082FFE3CF8091E8008C
:1053700085FF0AC040E050E060E270E0CE01019697
:105380000E94AA2A91E001C090E08091E8008B770A
:105390008093E800992369F260E2CE0101960E94B1
:1053A000F504C7CF0C94D429292F33272330310596
:1053B000A9F06CF42130310509F448C022303105E0
:1053C00009F049C08BE590E02EEB37E048C0213270
:1053D0003105F9F02232310549F13DC0992781307C
:1053E000910571F02CF4892BB1F5EAEBF7E00DC0D3
:1053F0008230910541F0039771F5E4E8F7E005C0CC
:10540000E2EAF7E002C0EAE8F7E0849190E09F0169
:1054100026C063307105F8F4FB01EE0FFF1FE3595E
:10542000FD4F2081318189E090E019C06330710522
:1054300090F4FB01EE0FFF1FE959FD4F20813181F0
:10544000FB01EC59FD4F808190E009C082E190E0C2
:1054500029E138E004C080E090E020E030E0FA018B
:105460003183208308950895CF93C82F0E94332A53
:10547000C0938B03CF91089580911205843011F46D
:1054800082E0089581E0089580918B03811102C02C
:105490000C943C2A089580E189BD82E189BD09B45C
:1054A00000FEFDCF8091D8008F7D8093D800809141
:1054B000E00082608093E0008091E00081FDFCCFFD
:1054C0000895CF92DF92EF92FF920F931F93CF93A5
:1054D000DF937C018B01EA010E940C2C811131C009
:1054E000209731F088819981081B190BE80EF91E6D
:1054F000C12CD12C0115110519F18091E80085FD11
:1055000014C08091E8008E778093E800209741F0E6
:10551000888199818C0D9D1D9983888385E011C0B8
:105520000E940C2C882331F30CC0F70181917F017C
:105530008093F10001501109FFEFCF1ADF0ADACF93
:1055400080E0DF91CF911F910F91FF90EF90DF905E
:10555000CF900895CF92DF92EF92FF920F931F9317
:10556000CF93DF937C018B01EA010E940C2C811107
:1055700031C0209731F088819981081B190BE80E02
:10558000F91EC12CD12C0115110519F18091E800EB
:1055900085FD14C08091E8008B778093E800209708
:1055A00041F0888199818C0D9D1D9983888385E0C8
:1055B00011C00E940C2C882331F30CC08091F100A3
:1055C000F70181937F0101501109FFEFCF1ADF0A24
:1055D000DACF80E0DF91CF911F910F91FF90EF9094
:1055E000DF90CF9008952091190530911A05261764
:1055F000370748F06115710539F42091E8002E77DE
:105600002093E80001C0B901FC0120E0611571059B
:10561000B9F180911205882309F440C0853009F45E
:105620003FC08091E80083FD3DC08091E80082FF8B
:1056300006C08091E80082FF26C080E00895809136
:10564000E80080FFE3CF2091F3008091F20090E02A
:10565000922B6115710551F08830910538F4219134
:105660002093F100615071090196F3CF21E0089772
:1056700009F020E08091E8008E778093E800C6CFA3
:105680002111C7CFD6CF80911205882339F08530FC
:1056900039F08091E80083FFCCCF04C082E0089508
:1056A00083E0089581E008952091190530911A054D
:1056B0002617370748F06115710539F42091E80085
:1056C0002E772093E80001C0B901FC0120E06115AC
:1056D0007105C1F180911205882309F441C085301C
:1056E00009F440C08091E80083FD3EC08091E8004D
:1056F00082FF06C08091E80082FF27C080E0089505
:105700008091E80080FFE3CF2091F3008091F200C8
:1057100090E0922B6115710559F08830910540F4A5
:1057200024912093F1003196615071090196F2CFD6
:1057300021E0089709F020E08091E8008E778093BF
:10574000E800C5CF2111C6CFD5CF8091120588239F
:1057500039F0853039F08091E80083FFCBCF04C069
:1057600082E0089583E0089581E00895982F9730AE
:1057700058F59093E900981739F07091EC0020915A
:10578000ED005091F00003C0242F762F50E021FF50
:1057900019C03091EB003E7F3093EB003091ED006B
:1057A0003D7F3093ED003091EB0031603093EB00A2
:1057B0007093EC002093ED005093F0002091EE00E8
:1057C00027FF07C09F5FD3CF8F708093E90081E0F0
:1057D000089580E008958091130587FD05C08091AC
:1057E000E80080FF0EC012C08091E80082FD05C075
:1057F000809112058111F8CF08958091E8008B7790
:1058000008C0809112058111EACF08958091E800C7
:105810008E778093E80008958091E4009091E500F0
:1058200045E62091EC0020FF21C02091E80020FDFA
:1058300021C020911205222389F0253089F0209182
:10584000EB0025FD0FC02091E4003091E500281702
:10585000390739F3415041F0C901E3CF82E008959F
:1058600083E0089581E0089584E008952091E800A0
:1058700022FFDFCF80E008950E94AA2C0E94B22C64
:10588000E0EEF0E0808181608083E8EDF0E08081EF
:105890008F77808319BCA7EDB0E08C918E7F8C93BD
:1058A00080818F7E80831092110508950F931F933E
:1058B000CF93DF930E94AA2C0E94B22CC8EDD0E0B7
:1058C00088818F77888388818068888388818F7DAD
:1058D000888319BC1092120510920E0510921005C3
:1058E00010920F0500EE10E0F80180818B7F80831D
:1058F00088818160888342E060E080E00E94B62B6E
:10590000E1EEF0E080818E7F8083E2EEF0E0808146
:1059100081608083808188608083F80180818E7FB0
:105920008083888180618883DF91CF911F910F915F
:105930000895E8EDF0E080818F7E8083E7EDF0E070
:1059400080818160808384E082BF81E08093110543
:105950000C94562CE8EDF0E080818E7F80831092CD
:10596000E20008951092DA001092E10008951F926B
:105970000F920FB60F9211242F933F934F935F9383
:105980006F937F938F939F93AF93BF93EF93FF9307
:105990008091E10082FF0BC08091E20082FF07C08E
:1059A0008091E1008B7F8093E1000E941B2F80910A
:1059B000DA0080FF1FC08091D80080FF1BC080915B
:1059C000DA008E7F8093DA008091D90080FF0DC0CD
:1059D00080E189BD82E189BD09B400FEFDCF81E08F
:1059E000809312050E94812805C019BC10921205EF
:1059F0000E948F288091E10080FF19C08091E20011
:105A000080FF15C08091E2008E7F8093E20080913C
:105A1000E20080618093E2008091D80080628093F0
:105A2000D80019BC85E0809312050E9493288091CC
:105A3000E10084FF30C08091E20084FF2CC080E14F
:105A400089BD82E189BD09B400FEFDCF8091D800F7
:105A50008F7D8093D8008091E1008F7E8093E1005C
:105A60008091E2008F7E8093E2008091E20081606D
:105A70008093E20080910E05882311F084E007C036
:105A80008091E30087FF02C083E001C081E0809342
:105A900012050E9494288091E10083FF29C0809123
:105AA000E20083FF25C08091E100877F8093E100C1
:105AB00082E08093120510920E058091E1008E7FA6
:105AC0008093E1008091E2008E7F8093E2008091DC
:105AD000E20080618093E20042E060E080E00E94AA
