:100000000C943F020C9483020C9483020C948302A0
:100010000C9483020C9483020C9483020C9483024C
:100020000C9483020C9483020C94391E0C940B1FC5
:100030000C945B180C9483020C9483020C9483023E
:100040000C9483020C9483020C9483020C9483021C
:100050000C9483020C94CE180C9483020C948302AB
:100060000C9483020C9483020C9483020C948302FC
:100070000C9483020C9483020C9483020C948302EC
:100080000C9483020C9483020C9483020C948302DC
:100090000C9483020C9483020C9483020C948302CC
:1000A0000C9483020C9483020C948302C602C9024E
:1000B0004303D402DC02E802430343034303320355
:1000C0003503EB02EE02F30201030F0312031603E2
:1000D000240344054A054E055105550559055D059E
:1000E000610566056A056E057205750579057D056C
:1000F000810585058A052F0E2F0E690E690EAC0E3F
:10010000F70FF70FF70FCE0EF70F750F750FEB0FF9
:10011000F70FF70FF20F820F820F820F820F820FFD
:10012000820F820F820F820F820F820F820F820F47
:10013000820F820F820F940FA40FAB0FB20FBC0F70
:10014000871087109A109A1090109A109A109A108F
:100150008710871096109A109A109610701F971F8C
:100160008520971F8520DF1F0220852058206720CB
:1001700053005400550056005F00600061005700B6
:100180005C005D005E00570059005A005B0058009B
:1001900062006200630058000100010001000100DC
:1001A0000100010001000100010001000100010047
:1001B0000100010001000100010001000100010037
:1001C0000100010001000100010001000100010027
:1001D0000100010001000100010001000100010017
:1001E0000100010001000100010001000100010007
:1001F00001000100010001000100010001000100F7
:1002000001000100010001000100010001000100E6
:1002100000000000000000002A2B28000000000061
:1002200000000000000000000000002900000000A5
:100230002C1E3420212224342627252E362D373813
:10024000271E1F202122232425263333362E37381C
:100250001F0405060708090A0B0C0D0E0F101112DA
:10026000131415161718191A1B1C1D2F3130232DA6
:10027000350405060708090A0B0C0D0E0F101112A4
:10028000131415161718191A1B1C1D2F3130354C55
:10029000000000000000000000000000000000005E
:1002A000000000000000000000000000000000004E
:1002B0000001010101010100010101010000000034
:1002C000000000000000000000000100010001012A
:1002D000010101010101010101010101010101010E
:1002E0000101010101010101010101000000010101
:1002F00000000000000000000000000000000000FE
:1003000000000000000000000000000101010100E9
:10031000040330000000100353006E00610067000A
:100320007000610064000000100346006C0065006E
:1003300068007200610064000000040309040902FF
:100340005B00030100A0FA090400000103010100A1
:100350000921110100012240000705810308000A5C
:10036000090402000103000000092111010001221B
:1003700071000705840320000A090401000203003C
:10038000000009211101000122220007058203203B
:100390000001070503032000011201100100000005
:1003A00008434450530100010203010660FF096144
:1003B000A1010962150026FF009520750881020938
:1003C00063150026FF00952075089102C0050109FC
:1003D00080A10185031601002603001A81002A83EB
:1003E00000751095018100C0050C0901A10185046B
:1003F000160100269C021A01002A9C027510950124
:100400008100C005010906A1018505050719E0293C
:10041000E7150025019508750181020508190129D4
:10042000059505750191029501750391010507195F
:100430000029EF1500250195F075018102C0050125
:100440000906A101050719E029E71500250195080E
:1004500075018102950175088101050819012905B9
:100460009505750191029501750391010507190024
:1004700029FF150026FF00950675088100C011248C
:100480001FBECFEFDAE0DEBFCDBF04B603FE24C04F
:100490008091F3019091F401A091F501B091F601E2
:1004A0008730904BA740B04BB9F41092F3011092F3
:1004B000F4011092F5011092F60114BE84B7877F03
:1004C00084BF88E10FB6F8948093600010926000BA
:1004D0000FBEE0E0F8E3099511E0A0E0B1E0EAE04A
:1004E000F2E402C005900D92A632B107D9F711E0EF
:1004F000A6E2B1E001C01D92A33FB107E1F70E945F
:10050000EB1A0C9403210C94000080E290E00E940E
:10051000C9208F31954451F482E290E00E94C120BD
:1005200091E0883009F090E0892F01C080E081706F
:100530000895CF93C82F882319F06FE175E402C0A6
:100540006FEF7FEF80E290E00E94ED20CC2311F06E
:1005500068E001C06FEF82E290E0CF910C94CF2071
:1005600080E00E9499020C94FE161F93CF93DF93B4
:10057000EC01162F488150E0FA013197E331F10583
:1005800008F081C0EA5AFF4F0C94BB20198288E022
:1005900028C08981813009F076C00E9499189A8319
:1005A0008B837C836D8371C04B816A8189810E94BA
:1005B000BF099C838D8369C02C8130E0322F2227B4
:1005C0008D81282B4B816A8189810E94D8095DC069
:1005D0000E94F4095AC00E94870A26C00E94890A14
:1005E00099838A8352C06B8170E0898190E0982F53
:1005F00088272A81AE014C5F5F4F822B0E948C0AB4
:1006000044C06B8170E0898190E0982F88272A810F
:10061000AE014C5F5F4F822B0E94B10A36C00E9430
:10062000D70A33C00E94AD0989832FC06B8170E067
:10063000898190E0982F88272A81AE014C5F5F4F17
:10064000822B0E94330A21C06B8170E0898190E087
:10065000982F88272A81AE014C5F5F4F822B0E9422
:10066000560A13C00E94B00210C00E94D9192FEF81
:1006700081EE94E0215080409040E1F700C00000FE
:100680000E94F41802C08FEF8883612FCE01DF91A2
:10069000CF911F910C94D9190E948502811107C036
:1006A0000E94F4090E94D70A81E00C9499020895EF
:1006B0000E94EA088FE19EE40197F1F700C0000074
:1006C0008FE19EE40197F1F700C000000E94EA0864
:1006D00080E00E94720980FF04C00E94B0020C9466
:1006E000F41808950E9458030E944C030C94A4032C
:1006F0000C94A503FB0122818031FFE59F0731F0B7
:1007000081313FE5930781F482E001C081E022233B
:1007100019F00E94EC1402C00E94071543E062E049
:1007200081E00E9463040EC0222351F09C012251FB
:100730003F452031310520F482510E94E70A02C072
:100740000C94A60380E008950895089581E008952B
:10075000089581E00895CF93282F30E0F901E05FFC
:10076000FD4FC491F901E057FD4F2491222359F028
:1007700081EE0E94660C8C2F0E94660C8C2F0E94CA
:100780007E0D81EE04C08C2F0E94660C8C2FCF91C1
:100790000C947E0DFF920F931F93CF93DF93EC0188
:1007A000F62E8881882331F18E010F5F1F4F813033
:1007B00031F4C9818C2F0E94660C8C2F0AC08230C4
:1007C00029F489810E94660CE80108C0833021F475
:1007D00089810E947E0DF8CF0E94AB0321968F2D58
:1007E0008823F9F2EFE9FFE03197F1F700C000004C
:1007F0008150F6CFDF91CF911F910F91FF90089517
:1008000060E00C94CA034F925F926F927F928F9236
:100810009F92AF92BF92CF92DF92EF92FF920F938F
:100820001F932B013C01C12CD12C7601C394D7011D
:10083000C60104C0880F991FAA1FBB1F4A95D2F793
:10084000AC01BD014601570104C0880C991CAA1CCB
:10085000BB1C2A95D2F7482959296A297B29D70137
:10086000C60104C0880F991FAA1FBB1F0A95D2F7A3
:100870006A017B01C420D520E620F720C416D506E6
:10088000E606F70639F4BC01CD01642975298629ED
:1008900097290AC0BC01CD0160957095809590950F
:1008A00064217521862197211F910F91FF90EF9070
:1008B000DF90CF90BF90AF909F908F907F906F9080
:1008C0005F904F9008950F93382F262F60918E01DF
:1008D00070918F018091900190919101042F432F8D
:1008E0000E9403040F910C94CC140E9404178111F0
:1008F00002C00E9472170C9472030C9478030C943B
:10090000A8030C947F0408950E9477100E9483042A
:100910002FEF84E39CE0215080409040E1F700C03D
:10092000000087E797E790930108809300080C94F4
:10093000F418FF920F931F93CF93DF938C01FC0168
:10094000C081D18180914601811113C082818823A9
:1009500049F0CE010E94CF15F82E682FCE010E94DB
:10096000781504C0CE010E94A515F82EBE018F2D6A
:1009700004C0CE010E94CF15BE010E947A0AEC018C
:10098000B8010E947A03882309F46DC1C63DFCE5D5
:10099000DF0709F4D1C0B0F4C531ECE5DE0768F437
:1009A000C230FCE5DF0708F04FC0C1158CE5D80761
:1009B00001F1C130DC4529F149C1C631DC4509F4FA
:1009C00020C144C1CB3D8CE5D80771F150F4C73D3F
:1009D000FCE5DF0709F4D3C0C83DDC4509F4F6C0E7
:1009E00035C1CC3DECE5DE0731F1CD3DDC45A1F074
:1009F0002DC1F8018281882309F435C10E94840445
:100A000032C1F8018281882309F42DC18091BB0194
:100A100081608093BB0127C1F8018281882309F49A
:100A200022C10E9472171FC1F8018281882309F434
:100A30001AC180E006C0F8018281882309F413C13D
:100A400082E00E94B61B0FC1F8018281882309F45D
:100A500002C10E940417811102C00E9472170E94F5
:100A6000171790E09093E5018093E401FE01E350B5
:100A7000FC45E231F10520F4E759FF4F0C94BB200F
:100A80008091E401816003C08091E40182608093E1
:100A9000E4014BC08091E4018460F9CF8091E401CE
:100AA00013C08091E4018061F2CF8091E401806203
:100AB000EECF8091E4018064EACF8091E401806808
:100AC000E6CF8091E40184608860E1CF8091E40109
:100AD0008E7FDDCF8091E4018D7FD9CF8091E401BD
:100AE0008B7FD5CF8091E40113C08091E4018F7E8C
:100AF000CECF8091E4018F7DCACF8091E4018F7BBE
:100B0000C6CF8091E4018F77C2CF8091E4018B7FC3
:100B1000877FBDCF9091E40197FB882780F921E082
:100B2000822780FB97F99093E4018091E4010E9471
:100B30001B170E94771097C0F8018281882351F01B
:100B400010922B010E948D18909328018093270109
:100B500082E022C080912B0181110FC0809127017A
:100B6000909128010E94A518883C910530F486E2F6
:100B70000E94660C86E20E947E0D82E024C0F8018D
:100B80008281882361F010922C010E948D1890932D
:100B90002A018093290180E20E94DF0D64C08091C8
:100BA0002C0181110FC08091290190912A010E948E
:100BB000A518883C910530F487E20E94660C87E214
:100BC0000E947E0D80E20E94E60D4DC0F8018281F8
:100BD0008111D9CF80912C018111F4CF809129010D
:100BE00090912A010E94A518883C910558F780E24F
:100BF0000E94E60D88E20E94660C88E20E947E0D4B
:100C000032C00E944E16382FF801228180910001D7
:100C100090910101222371F03A7A21E009F420E059
:100C200020932601222311F065E301C069E20E94AE
:100C3000E11709C020912601222311F065E301C0CC
:100C400069E20E94EC170E949A160DC081E0809321
:100C50002B0180932C01C801DF91CF911F910F913F
:100C6000FF900C94A90380E0DF91CF911F910F9129
:100C7000FF90089580E090E008950895880F991FEF
:100C8000805F9C4FFC01859194910895CF93DF93F1
:100C90000E947A0A0E940308EC01811520E5920760
:100CA00008F041C0C11580E4D80708F028C1C83E4B
:100CB000D10510F5C03ED10508F0A1C1C83AD10553
:100CC00078F4C53AD10508F0A2C0C130D10509F4C5
:100CD00096C108F447C1C430D10508F090C142C1A3
:100CE000CF3BD10508F49EC0C03CD10508F43AC101
:100CF000CE01805C9109F5C0C11590E2D90758F486
:100D0000C11521E0D20708F07AC1C03FD10508F42F
:100D100029C1D06574C1C11580E3D80708F0E5C0CA
:100D2000CE019F70DEC0C11595E5D90708F043C01C
:100D3000C11524E5D20708F0F9C0C11582E5D8072E
:100D400008F5C11591E5D90708F0DCC02C2F2370F8
:100D500081E090E002C0880F991F2A95E2F79C6815
:100D60009E01F4E036952795FA95E1F72370922BD2
:100D7000CF70C695C69520E2C29FE0011124C82B12
:100D8000D92B3DC18C2F869586959E0123703327E4
:100D9000C115D34508F0BBC090E2899FE001112442
:100DA00081E090E002C0880F991F2A95E2F7C82BD6
:100DB000D92BDC6824C1C11529E5D207A0F4C115DF
:100DC00088E5D80708F0B7C0C11596E5D90708F03F
:100DD000C9C08C2F0E947F088F71C82FD0E0DC2FF4
:100DE000CC27D0620CC1C1152AE5D20708F4A8C0EF
:100DF000CE0190568115904208F0B4C08D2F8F71AE
:100E00000E947F08DD27D0628F71D82BF8C0C53AC9
:100E1000D10509F4AAC0C63AD10509F4A9C0C3E8AE
:100E2000D0E4EDC0C83AD10509F4A5C0C93AD1054E
:100E300009F4A4C0CA3AD10509F4A3C0CB3AD1053C
:100E400009F4A2C0CC3AD10509F4A1C0CB3BD1052D
:100E500009F4A0C0CC3BD10509F49FC0CD3AD1051F
:100E600009F49EC0C03BD10509F49DC0CE3AD1051E
:100E700009F49CC0CF3AD10509F49BC0C13BD10510
:100E800009F49AC0C23BD10509F499C0C33BD1050E
:100E900009F498C0C43BD10509F497C0C53BD105FE
:100EA00009F496C0C63BD10509F495C0C73BD105EE
:100EB00009F494C0C83BD10509F493C0C93BD105DE
:100EC00009F492C0CD3BD10509F491C0CE3BD105C8
:100ED00009F490C0CA3BD10509F08FC0CAE2D6E43C
:100EE0008EC00E943E06EC018AC0CE019927D3FF36
:100EF00003C0EC01D86C83C0EC01D06C80C0DF7003
:100F0000D06A7DC0DC2FCC27C16FD06A78C090E258
:100F1000899FE001112481E090E002C0880F991FB1
:100F20002A95E2F7C82BD92BDA6869C0DC2FCC27C9
:100F3000C46FD06A64C0DC2FCC27C06FD06A5FC09A
:100F40008C2F8F700E947F0834E0D695C7953A9514
:100F5000E1F7CF70D0E0DC2FCC27D06A8F70806EA5
:100F6000C82B4DC0C0E0D0E04AC0C1E8D0E447C0C3
:100F7000C2E8D0E444C0C2EED4E441C0C9EED4E437
:100F80003EC0CAEED4E43BC0C5EBD4E438C0C6EBE7
:100F9000D4E435C0C3EBD4E432C0C4EBD4E42FC0F6
:100FA000C7EBD4E42CC0CCECD4E429C0CDECD4E421
:100FB00026C0C3E8D5E423C0CAE8D5E420C0C2E90E
:100FC000D5E41DC0C4E9D5E41AC0C1E2D6E417C017
:100FD000C3E2D6E414C0C4E2D6E411C0C5E2D6E44C
:100FE0000EC0C6E2D6E40BC0C7E2D6E408C0CFE626
:100FF000D4E405C0C0E7D4E402C0C0E0D4E4CE012C
:10100000DF91CF9108958238910549F1B0F4813391
:10101000910509F459C048F48932910509F44FC08B
:101020008A32910509F455C008958533910509F474
:1010300041C08933910599F00895833E910531F1BE
:1010400038F4803E910591F0823E9105A9F0089513
:10105000863E910501F1873E910539F10895209171
:10106000E40120FD3BC021FD39C008958091E401D9
:1010700080FF34C089E341C08091E40182FF32C027
:101080008091E40184FF2CC080E037C08091E401AE
:1010900082FD28C0F5CF8091E40183FF25C08091B7
:1010A000E40184FDF1CF87EE28C08091E40183FD47
:1010B0001BC0F5CF8091E40185FF18C019C0809155
:1010C000E40185FF15C012C08091E40186FF12C0C3
:1010D00013C08091E40186FF0FC00CC080EE0DC0EC
:1010E00083EE0BC082EE09C086EE07C085E305C023
:1010F00089E203C081E301C08AE290E00895909103
:10110000E40192FF0DC0282F2871283019F4877F41
:10111000846006C0282F2471243011F48B7F8860EE
:1011200093FF0DC0282F2871283119F4877E846120
:1011300006C0282F2471243111F48B7E886194FD20
:10114000877E0895E1E1F1E021E030E08191A82F70
:10115000A295AF70B0E091964C9191978F70B901C4
:1011600002C0660F771F8A95E2F7CB01809548236E
:1011700091964C9371E0E631F70741F7ADE0B1E0AD
:1011800021E030E08D91E82FE295EF70F0E041A191
:101190008F70B90102C0660F771F8A95E2F7CB0105
:1011A000962F9095492341A392A1982B92A371E089
:1011B000A131B70739F7E2E3F1E0ADE2B1E0119216
:1011C0001D9281E0E733F807D1F785E00E947909A5
:1011D0000C9475046F927F929F92AF92BF92CF92C0
:1011E000DF92EF92FF920F931F93CF93DF9391E1E2
:1011F000692E91E0792EA2E3B1E020E001E010E059
:101200006D01AC901C92E30149913E01E42FE295FF
:10121000EF70F0E081A14F70B80102C0660F771F38
:101220004A95E2F7AB01862B81A382A1362F309538
:10123000832382A370EA7A95F1F78DE0E82E81E0AE
:10124000F82E80E090E0E701B9907E016B2D629569
:101250006F7070E0EB0168A19C9070E0DB2DDF7097
:101260000D2E02C0759567950A94E2F760FD07C0E0
:10127000602F082E01C0660F0A94EAF701C060E0F3
:1012800069296C93019684309105E9F681A1832345
:1012900081A382A1842B82A3119681E0F601908123
:1012A000A91201C080E0282BF6E16F16F1E07F065D
:1012B00009F0A6CF45E06DE271E082E391E00E9483
:1012C0007A090E947D0481E0DF91CF911F910F91F7
:1012D000FF90EF90DF90CF90BF90AF909F907F9066
:1012E0006F900895E82FF0E0E35DFE4F8081089550
:1012F00008950895FF920F931F93CF93DF93EC010E
:10130000F62E072F142F222349F081E08093390114
:101310000E948D1890933801809337018091390194
:101320008823A9F080913701909138010E94A51877
:10133000069768F09C2FAF2DB02FFE018E2F891BD2
:10134000811718F481918D93F9CF10923901DF91B3
:10135000CF911F910F91FF90089584E0089550E080
:10136000440F551F98E0699F400D511D112498E2CC
:10137000899F400D511D1124CA01839608950F9332
:101380001F93CF93DF930E94AF09EC010E94C1200D
:10139000082F10E0102F0027CE0101960E94C120D7
:1013A0009801282BC901DF91CF911F910F910895CA
:1013B0000F931F93CF93DF9300D0CDB7DEB72A836F
:1013C00039830E94AF098C013981632F0E94CF209D
:1013D0002A81622FC80101960F900F90DF91CF9163
:1013E0001F910F910C94CF20AF92BF92CF92DF92BA
:1013F000EF92FF920F931F93CF93DF93A12CE12CD9
:10140000F12CB12C00E010E0C0E0D0E06801CE0C7F
:10141000DF1CFE01EC0DFD1DEE0FFF1FE059FE4F1E
:10142000259134914C2F6B2D8A2D0E94D80921963D
:10143000C430D10571F70C5F1F4FB39485E0B8122B
:10144000E3CF84E1E80EF11CA39484E0A812D9CF85
:10145000DF91CF911F910F91FF90EF90DF90CF9090
:10146000BF90AF900895EF92FF920F931F93CF9389
:10147000DF937B01EA01E40EF51E8C01C80183961F
:10148000CE15DF0561F0003A110520F40E94C1205D
:10149000888301C0188221960F5F1F4FEFCFDF9125
:1014A000CF911F910F91FF90EF900895EF92FF92CF
:1014B0000F931F93CF93DF938B017A01080F191FAE
:1014C000EC01E81AF90ACE018396C017D10759F04A
:1014D000C03AD10530F4F701EC0FFD1F60810E9486
:1014E000CF202196F0CFDF91CF911F910F91FF90E8
:1014F000EF900895462F843038F4753028F4643026
:1015000018F4672F0C94BF0980E090E0089580E103
:1015100008958DE393E00895EF92FF920F931F9348
:10152000CF93DF937B01EA01E40EF51E8C01C80125
:101530008D539F4FCE15DF0569F00D3323E0120761
:1015400020F40E94C120888301C0188221960F5F79
:101550001F4FEDCFDF91CF911F910F91FF90EF9033
:101560000895EF92FF920F931F93CF93DF938B0118
:101570007A01080F191FEC01E81AF90ACE018D5300
:101580009F4FC017D10761F0CD3323E0D20730F46D
:10159000F701EC0FFD1F60810E94CF202196EECF56
:1015A000DF91CF911F910F91FF90EF900895CF930E
:1015B000DF93C3ECD0E060E0CE010E94CF20219603
:1015C000C11584E0D807B9F7DF91CF910895FF9254
:1015D0000F931F93CF93DF9300D0CDB7DEB7F82ED4
:1015E0008FE08F1530F18FEF93E00E94C1208111C1
:1015F00020C003EC10E0FF2069F0011584E018071B
:10160000C1F0C8010E94C120811101C0FA940F5F8E
:101610001F4FF1CF19821A82C8010E94C12089830D
:10162000882339F0CE0101960E9400040F5F1F4FFE
:10163000F3CF0F900F90DF91CF911F910F91FF90FB
:10164000089590933F0180933E010895E0913E01FB
:10165000F0913F01309721F00190F081E02D099445
:1016600080E00895E0913E01F0913F01309799F0BC
:1016700020910C01222359F02091E40127FF07C09B
:10168000DC012C9111962C93119725E02C9302806C
:10169000F381E02D0994089520913C0130913D01A2
:1016A0008217930771F090933D0180933C01E09184
:1016B0003E01F0913F01309721F00680F781E02D47
:1016C0000994089520913A0130913B0182179307C4
:1016D00071F090933B0180933A01E0913E01F091CB
:1016E0003F01309721F00084F185E02D09940895A1
:1016F00085B7806885BF85B7806885BF08950895E0
:101700000E94780B0C947F0B81E008950E9484184E
:101710000E94A2080C940619CF92DF92EF92FF92DA
:101720000F931F93CF93DF93CDB7DEB72B970FB6F1
:10173000F894DEBF0FBECDBF0E94EA080E94840B62
:10174000811111C08FEF89838A831B820E948D18BB
:101750008160782F9D838C8349815A816B818D8133
:101760000E94320C56C031E4E32E31E0F32E00E04B
:1017700010E0C02E802F0E947209F701D1907F01E6
:10178000D82631F40F5F1F4F0530110591F7DACFDE
:101790009091BB0191FF04C08B870E9478098B85D3
:1017A00020E030E04D2D50E0922FBA01022E02C011
:1017B000759567950A94E2F760FF25C02E83CF8266
:1017C000EE24E394F12C02C0EE0CFF1C9A95E2F794
:1017D00090E08E219F2121E0892B09F420E02887C9
:1017E0000E948D188160782F9A8789874E815F814A
:1017F00068858A850E94320CF801EF5BFE4F80817C
:101800008E25808306C02F5F3F4F2430310561F65F
:10181000B9CF109140010E94260B1817A1F00E9429
:10182000260B809340012B960FB6F894DEBF0FBEB7
:10183000CDBFDF91CF911F910F91FF90EF90DF907F
:10184000CF900C9481042B960FB6F894DEBF0FBE98
:10185000CDBFDF91CF911F910F91FF90EF90DF905F
:10186000CF900895CF93DF93CDB7DEB72B970FB608
:10187000F894DEBF0FBECDBF4F83588769877A8744
:101880008B87DE01119686E0FD0111928A95E9F7BA
:1018900085E0FE01379601900D928A95E1F7498126
:1018A0005A816B817C818D819E810E9454132B967D
:1018B0000FB6F894DEBF0FBECDBFDF91CF91089574
:1018C000FC01808191810E940F160895882309F4FC
:1018D00014C18238C1F40E94260B81FD0EC169E358
:1018E00080910001909101010E94E1170E949A16D7
:1018F0002FEF81EE94E0215080409040E1F700C04E
:10190000000069E319C08338F9F40E94260B80FDBA
:10191000F4C063E580910001909101010E94E117FC
:101920000E949A162FEF81EE94E021508040904063
:10193000E1F700C0000063E5809100019091010192
:101940000E94EC170C949A168438C1F40E94260B5E
:1019500082FDD3C067E480910001909101010E9453
:10196000E1170E949A162FEF81EE94E021508040FB
:101970009040E1F700C0000067E4DECF9CEF980FD5
:10198000913A40F4682F80910001909101010E94EA
:10199000E117D8CF90E2980F983050F4877091E01B
:1019A00001C0990F8A95EAF7892F0E945116CACF74
:1019B0009BE5980F933070F4853A29F0863A31F41C
:1019C00082E890E005C081E890E002C083E890E002
:1019D0000C944C0B98E5980F973108F08EC0883A1C
:1019E00009F445C0893A09F445C08A3A09F445C06A
:1019F0008B3A09F445C08C3A09F445C08B3B09F495
:101A000045C08C3B09F445C08D3A09F445C0803B84
:101A100009F445C08E3A09F445C08F3A09F445C02F
:101A2000813B09F445C0823B09F445C0833B09F47E
:101A300045C0843B09F445C0853B09F445C0863B5D
:101A400009F445C0873B09F445C0883B09F445C00B
:101A5000893B09F445C08D3B09F445C08E3B09F430
:101A600045C08A3B09F045C08AE292E044C082EE5C
:101A700090E041C089EE90E03EC08AEE90E03BC02D
:101A800085EB90E038C086EB90E035C083EB90E0CA
:101A900032C084EB90E02FC087EB90E02CC08CEC40
:101AA00090E029C08DEC90E026C083E891E023C04F
:101AB0008AE891E020C082E991E01DC084E991E0CC
:101AC0001AC081E292E017C083E292E014C084E27F
:101AD00092E011C085E292E00EC086E292E00BC077
:101AE00087E292E008C08FE690E005C080E790E0D2
:101AF00002C080E090E00C94620B0895882309F402
:101B00005DC0823879F40E94260B81FF57C069E3DB
:101B100080910001909101010E94E1170E949A16A4
:101B200069E310C08338B1F40E94260B80FF46C0E1
:101B300063E580910001909101010E94E1170E94EC
:101B40009A1663E580910001909101010E94EC17C3
:101B50000C949A16843879F40E94260B82FF2EC0CA
:101B600067E480910001909101010E94E1170E94B9
:101B70009A1667E4E7CF9CEF980F913A10F4682F1C
:101B8000E1CF90E2980F983050F4877091E001C057
:101B9000990F8A95EAF7892F0E945716D9CF9BE5AE
:101BA000980F933020F480E090E00C944C0B885A0E
:101BB000873120F480E090E00C94620B0895882334
:101BC00021F00E9451160C949A160895882321F052
:101BD0000E9457160C949A1608958F929F92BF9266
:101BE000CF92DF92EF92FF920F931F93CF93DF93E9
:101BF00000D0CDB7DEB74C01472FFC01C580C294A1
:101C00009FE0C922D280DD2031F079836A830E946F
:101C10006E166A81498149836A830E944716498109
:101C20006A81882389F0DD2079F080E2860F883090
:101C300058F082E00E94E5160E944716BB24B39438
:101C4000B82649816A8101C0B12CE42EE2948FE06C
:101C5000E822F12CF701E558FF4F0C94BB20842FAC
:101C6000807F142F1F70882311F01295107FDD20C4
:101C7000C1F0112309F49AC180E2860F883010F078
:101C8000611105C0812F6A830E94511604C0812F03
:101C90006A830E9461166A816A830E949A166A8129
:101CA00085C1862F6A830E947E0D6A81112309F403
:101CB0009EC180E2860F883010F0611104C0812F30
:101CC0000E94571603C0812F0E9467160E949A1621
:101CD0008EC1842F807F142F1F70803211F01295D7
:101CE000107F662319F06130D9F026C0DD2079F02D
:101CF000CC2049F0F1E0CF1206C00E948116812B62
:101D00000E94871674C10E948116812B04C1CC20C9
:101D100021F021E0C21609F46AC10E94901600C1A8
:101D2000DD2029F085E08C1508F461C1F3C094E052
:101D30009C1508F45CC1F4C0DD2051F0CC2009F4FE
:101D4000E9C0F401858180FF31C18F708583E2C0D5
:101D5000CC2009F4E5C03BC1242F2695269523709D
:101D600030E02115310521F02130310561F03FC10E
:101D7000DD2021F0862F942F937002C080E090E048
:101D80000E944C0B44C1DD2021F0862F942F9370CC
:101D900002C080E090E00E94620B39C1842F837002
:101DA00009F04EC0D1102FC1262F229526952770FD
:101DB000220F220F862F8F70C82ED12CE12CF12CF0
:101DC000022E04C0CC0CDD1CEE1CFF1C0A94D2F7C2
:101DD00064FF10C06FE070E080E090E004C0660F28
:101DE000771F881F991F2A95D2F760957095809567
:101DF000909503C060E070E0CB01242F26952695D6
:101E0000237030E02230310569F02330310589F04C
:101E10006C297D298E299F292130310571F00E947E
:101E2000A514F1C06C297D298E299F290E94B71421
:101E3000EAC00E94A514C701B6010E949314E3C032
:101E4000DD2019F0842F817001C08695882309F464
:101E5000DAC0262F229526952770220F220F862F73
:101E60008F70C82ED12CE12CF12C022E04C0CC0C8A
:101E7000DD1CEE1CFF1C0A94D2F764FF10C06FE05B
:101E800070E080E090E004C0660F771F881F991F04
:101E90002A95D2F7609570958095909503C060E083
:101EA00070E0CB01242F26952695237030E0223058
:101EB000310569F02330310589F06C297D298E299F
:101EC0009F292130310571F00E9453159CC06C2967
:101ED0007D298E299F290E94651595C00E94531562
:101EE000C701B6010E9441158EC0062F10E0F8010F
:101EF000E05EF109E531F10508F054C0E557FF4F08
:101F00000C94BB20162F1F70842F8F71DD2031F0B1
:101F10000E94EC14812F0E94DF0D69C00E940715FA
:101F2000812F0E94E60D63C0DD2049F0F4E0FC152E
:101F300008F45DC0842F8F710E94261558C025E0DB
:101F40002C1508F454C0F6CFDD2039F0842F8F71A2
:101F50000E94EC144CC0DD20C9F3842F8F710E94C5
:101F6000071545C0DD2029F0842F8F710E94DD14F4
:101F70003EC00E94D8143BC0DD2051F0142F1F71C9
:101F8000812F0E94EC1463E0812F0E94D0162FC095
:101F900081E00E94E51681E08C1548F582E00E9400
:101FA000E51625C0DD2031F0CC2081F2862F0E947D
:101FB000660C1DC0CC2089F2693349F49FEFE7EE2F
:101FC000F3E09150E040F040E1F700C00000862FC0
:101FD0000E947E0D0CC04F70C4010E943A060E9400
:101FE000011415C04F70C4010E943D0610C028E0C6
:101FF000E216F10441F05CF09AE0E91AF108E2E03F
:10200000EE16F10420F40E94260B0E948104BB20EE
:10201000F1F00E94431680FD1AC0F40112820E9462
:102020003D160E94EC14C4010E9435100E943D161A
:102030000F900F90DF91CF911F910F91FF90EF9034
:10204000DF90CF90BF909F908F900C9407150F90CA
:102050000F90DF91CF911F910F91FF90EF90DF9044
:10206000CF90BF909F908F9008950F931F93CF9321
:10207000DF93EC01288139818B819C81892B31F0A0
:102080003F3F11F080E003C02F3FE1F781E0811175
:1020900013C0CE010E949904882371F06881798170
:1020A0008A810E941A168C010E9477150E94901452
:1020B000B801CE010E94ED0DDF91CF911F910F91DC
:1020C00008950E946E160E947E160E949A1680E065
:1020D00090E00E944C0B80E090E00C94620B8091A9
:1020E0000001909101010E94F7170C9461100E9469
:1020F0005E160C946F10E92FE295EF70F0E03297C6
:10210000EE30F105B8F4E056FF4F0C94BB20803F51
:1021100059F018F4803E70F407C0843F59F404C0AD
:10212000803E10F0813F31F481E0089593FB8827D1
:1021300080F9089580E008950E940F160E947B1098
:102140000895CF93DF9300D000D01F92CDB7DEB7B4
:102150000F900F900F900F900F90DF91CF910895F7
:10216000CF93DF9300D000D000D0CDB7DEB7269656
:102170000FB6F894DEBF0FBECDBFDF91CF910895AB
:102180001F93CF93DF93C091470116E080914801E0
:10219000C81799F0D0E01C9FF0011D9FF00D11248D
:1021A000E75BFE4F4081518162817381848195811B
:1021B0000E94B0102196C770E9CFDF91CF911F9197
:1021C00008954091790150917A0160917B0170915D
:1021D0007C0180917D0190917E010C94B010CF9391
:1021E00080917E0182958F7009F05FC080917B01A4
:1021F000882309F45AC020914701A09148016091B9
:10220000790170917A0180917C0190917D0131E09A
:102210006F3F09F030E0B32FC6E02A1709F445C03C
:10222000009721F07F3F21F44B2F03C041E001C014
:1022300040E030E040FD35C0C29FF001C39FF00D8B
:102240001124E75BFE4F418174132BC0408164135E
:1022500028C04281411125C0438154814817590744
:1022600010F441505109481B590B483C5105C8F422
:1022700080917E018F70806180937E0186E0829FD5
:10228000F001839FF00D1124E25BFE4F80818F707F
:102290008061808389E791E00E943510CF910C9492
:1022A000C0102F5F3F4F2770B8CFCF910895CF92C6
:1022B000DF92EF92FF920F931F93CF93DF93CDB7EF
:1022C000DEB762970FB6F894DEBF0FBECDBF8C01AC
:1022D00085E0F801DE011D9601900D928A95E1F7E7
:1022E000D8014C9111965C91119712966C911297AE
:1022F0001396ED90FC90149770917901E0917A011A
:1023000020917C0130917D012115310531F0EF3FA5
:1023100031F481E07F3F19F403C081E001C080E027
:10232000B82FB170CB2E80FD6BC1D0907B01DD202A
:1023300009F4F5C0F0917E01E216F30638F0C7010A
:10234000821B930B883C910548F09DC020953095E9
:102350002E0D3F1D283C310508F095C08F2F807F42
:1023600009F052C0E51314C0741312C0D62E6111C7
:102370000FC0FF70F061F0937E010E94E11089E7C9
:1023800091E00E94351080917E01F80185837CC127
:10239000EF2831F05F3F31F481E04F3F19F403C083
:1023A00081E001C080E080FD03C081E0862701C09C
:1023B00080E0F82FF170FF2E80FF1CC08091470154
:1023C0002091480136E0821709F438C190E0389F27
:1023D000F001399FF00D1124E75BFE4F7181571317
:1023E00006C07081471303C07281671303C0019652
:1023F0008770E9CFD62E662309F446C180917E010D
:10240000816080937E0155C0E51308C0741306C037
:10241000611104C0D8011596FC93AEC04D875E874C
:102420008D859E856A8B0E949C106A89882329F17C
:10243000D62E662311F120917E01822F82958F7016
:1024400090E002970CF462C08091790190917A013A
:1024500098878F831986FB86EA862C87CE0107969C
:1024600053C0E51741F14D875E878D859E856A8B48
:102470000E949C106A89811130C0C8010E943510E9
:10248000DD24D39401C18F2F807F59F77E2DF98AE7
:10249000E88A89890E94A11089E791E00E9435109D
:1024A000E9E7F1E086E0DF011D928A95E9F70E94F5
:1024B000E110D12CE9C07413D6CF6111D4CFD8016B
:1024C0001596FC93C8010E943510E9E7F1E086E01B
:1024D000DF011D928A95E9F7D7C0D62E662369F2EF
:1024E00020917E01822F82958F7090E0029774F088
:1024F0008091790190917A019A8389831B82FD8270
:10250000EC822E83CE0101960E94351086E0F80100
:10251000A9E7B1E001900D928A95E1F78AC0E21631
:10252000F30628F0C701821B930B9C0104C0209581
:1025300030952E0D3F1D283C310508F053C0D62E96
:10254000662309F49ACFE5132CC074132AC0809136
:102550007E0180FD1DC0982F92959F70C9F0D80113
:1025600015968C9315979F3039F09F5F9295907FC9
:102570008F70892B15968C93C8010E94351086E0C8
:10258000F801A9E7B1E001900D928A95E1F753C0F7
:1025900086E0F801A9E7B1E001900D928A95E1F794
:1025A00073C04D875E878D859E850E949C10882311
:1025B00081F096E0F801A9E7B1E001900D929A95BB
:1025C000E1F78A8B0E94EF100E94E1108A89D82ED1
:1025D0005BC080917E01816080937E01C8010E9472
:1025E000351052C07E2DF98AE88A89890E94A1108F
:1025F000E9E7F1E086E0DF011D928A95E9F71BC06B
:10260000662309F43ACF4D875E878D859E850E94AB
:102610009C10D82E882309F430CF86E0F801A9E772
:10262000B1E001900D928A95E1F789E791E00E946F
:10263000600C0E94EF100E94E11026C04D875E875B
:102640008D859E850E940F16292F22952F7030E0D0
:10265000223031052CF49F7041F0811106C00CC06E
:10266000243031052CF49F7049F4805E883020F0CE
:10267000C8010E943510CF2CDC2C06C0D80115965D
:102680009C91907F91F7F8CF8D2D62960FB6F894BC
:10269000DEBF0FBECDBFDF91CF911F910F91FF9095
:1026A000EF90DF90CF9008951F93CF93DF93CDB736
:1026B000DEB72C970FB6F894DEBF0FBECDBF4F83A9
:1026C000588769877A878B879C87CE0107960E94F7
:1026D00057118823C1F02F8138858A859B85892BE6
:1026E00031F03F3F11F080E003C02F3FE1F781E080
:1026F000811147C04F81588569857A858B859C8576
:102700000E94B0103EC086E0FE013796DE011196B1
:1027100001900D928A95E1F7FF81E8854A855B85F6
:102720004115510531F0EF3F31F481E0FF3F19F4DD
:1027300003C081E001C080E080FD23C020914801FA
:1027400030E0C9010196877099276091470170E0D8
:1027500086179707F1F1F983EA835D834C8396E04E
:10276000929FD001939FB00D1124A75BBE4FFE0135
:10277000319601900D929A95E1F7809348010E945D
:10278000C01016E08091470190914801891779F1B6
:10279000189FC0011124875B9E4F0E945711882308
:1027A00031F1E09147011E9FF0011124E75BFE4FDC
:1027B0004081518162817381848195810E94B01032
:1027C0008091470190E00196877099278093470197
:1027D000D9CF0E9477101092480110924701E9E783
:1027E000F1E086E0DF011D928A95E9F7CACF2C96C9
:1027F0000FB6F894DEBF0FBECDBFDF91CF911F9112
:102800000895EF92FF920F931F93CF93DF93FC01F4
:10281000009709F46FC0F12CEE24E394EF012196A8
:102820008491843740F4843008F055C0813081F0C1
:10283000823021F15FC0853709F447C0C0F19CE7C1
:10284000980F903708F056C08F770E947E0D45C0D4
:102850008F010E5F1F4FFE01849190E2980F983018
:1028600050F48770FE2D01C0FF0F8A95EAF78F2F75
:102870000E94711615C00E94660C14C08F010E5F75
:102880001F4FFE01849190E2980F983068F4877092
:10289000FE2D01C0FF0F8A95EAF78F2F0E94771651
:1028A0000E949A16E80119C00E947E0DFBCFCF014D
:1028B0000296FE01C491CC2361F0EFE9FFE031976D
:1028C000F1F700C00000C150F6CFCF010296FE0123
:1028D000F490EC0102C00E94660C8F2D882341F019
:1028E000EFE9FFE03197F1F700C000008150F6CF2B
:1028F000FE0194CFDF91CF911F910F91FF90EF9048
:10290000089508950C9481140E948214609392019A
:102910007093930180939401909395010C946110AE
:1029200008950C9484140F931F93009192011091B9
:1029300093012091940130919501602B712B822B92
:10294000932B1F910F910C9484140F931F9300915C
:10295000920110919301209194013091950160238F
:102960007123822393231F910F910C9484140F934E
:102970001F93009192011091930120919401309145
:10298000950160277127822793271F910F910C943F
:10299000841408950C94C9140E94CA1460938E0183
:1029A00070938F0180939001909391010C9461102A
:1029B00060E070E0CB010C94CC1441E050E060E0AA
:1029C00070E004C0440F551F661F771F8A95D2F729
:1029D000CB01BA010C94CC1441E050E060E070E00F
:1029E00004C0440F551F661F771F8A95D2F7809148
:1029F0008E0190918F01A0919001B0919101482B8F
:102A0000592B6A2B7B2BCB01BA010C94CC1441E0DF
:102A100050E060E070E004C0440F551F661F771F50
:102A20008A95D2F7409550956095709580918E016A
:102A300090918F01A0919001B09191014823592369
:102A40006A237B23CB01BA010C94CC1441E050E003
:102A500060E070E004C0440F551F661F771F8A9521
:102A6000D2F780918E0190918F01A0919001B09149
:102A70009101482759276A277B27CB01BA010C947B
:102A8000CC140F931F9300918E0110918F01209110
:102A9000900130919101602B712B822B932B1F9110
:102AA0000F910C94CC140F931F9300918E011091F1
:102AB0008F01209190013091910160237123822335
:102AC00093231F910F910C94CC140F931F9300919B
:102AD0008E0110918F01209190013091910160271A
:102AE0007127822793271F910F910C94CC1408957E
:102AF000990F990F980F492F4695469546959770CF
:102B0000B1E001C0BB0F9A95EAF785E0489FA001AC
:102B1000112441585E4F80E090E070E0FA01E80F28
:102B2000F91FA0819B01082E02C0369527950A94B3
:102B3000E2F72170332721952A272B232A27208388
:102B400001968530910551F70895990F990F980FC7
:102B5000692F669566956695977085E0689FB001C8
:102B6000112461587E4F40E050E080E0FB01E40F0B
:102B7000F51F208130E0092E02C0369527950A9472
:102B8000E2F721703327042E01C0220F0A94EAF7DE
:102B9000822B4F5F5F4F4530510541F70895CF922B
:102BA000DF92EF92FF920F931F93CF93DF93EC018D
:102BB000C0909201D0909301E0909401F090950123
:102BC00080918E0190918F01A0919001B09191011F
:102BD000C82AD92AEA2AFB2A0FE110E0B701A60188
:102BE000002E04C076956795579547950A94D2F7BD
:102BF00040FD05C00150110988F780E007C0BE0103
:102C0000802F0E9446060197A9F3802FDF91CF9174
:102C10001F910F91FF90EF90DF90CF900895CF9389
:102C2000DF93EC010E94CF15BE010E944606DF91A2
:102C3000CF9108951F93CF93DF93EB0190914601BD
:102C4000992321F0CB010E940F1613C0882349F06D
:102C5000CB010E94CF15182F682FCE010E94781546
:102C600004C0CB010E94A515182FBE01812F0E9420
:102C70004606DF91CF911F91089580919601859529
:102C80008595859508958091960187700895909116
:102C90009601977081E009F480E008958091BA016F
:102CA00008959091BA01982B9093BA010895809558
:102CB0009091BA0198239093BA0108951092BA01A5
:102CC00008959091B901982B9093B901089580953A
:102CD0009091B90198239093B90108951092B90188
:102CE00008959091B801982B9093B801089580951C
:102CF0009091B80198239093B80108951092B8016B
:102D0000089580919701089508950C9484169091E8
:102D10009701981721F0809397010C9485160895D8
:102D200080919701882329F01092970180E00C94FC
:102D300085160895E0910001F09101018091BA019A
:102D40008083E0910001F091010180819091B901AF
:102D5000892B8083E0910001F091010180819091A5
:102D6000B801892B808390919701992381F0E0919C
:102D70000001F09101018081892B80838091000105
:102D8000909101010E94741781110E949016809108
:102D90000001909101010C94320B08950C94CD1612
:102DA00098E0899F90011124622B609396010E9404
:102DB000EC14809196018595859585950C94CE1699
:102DC0001092960180E00C94CE1640919601809569
:102DD000842380939601982F977079F450E0282FE0
:102DE000332727FD30954217530739F08595859590
:102DF00085950E9407150C94E01608956FEF7FEFFC
:102E000080E090E00C94ED2080E090E00E94C920EA
:102E100021E08D3E9E4F09F020E0822F089582E050
:102E200090E00C94C12083E090E00C94C12084E0F9
:102E300090E00C94C120682F84E090E00C94CF20A7
:102E4000AB01BC018FE090E00C94E120AB01BC0130
:102E500083E190E00C94E12060E070E0CB010C9401
:102E6000261760E070E0CB010E9420170C942C170D
:102E70006DEE7EEF80E090E00E94ED2060E082E069
:102E800090E00E94CF2060E083E090E00E94CF209D
:102E90001092920110929301109294011092950158
:102EA00060E084E090E00E94CF2060E085E090E068
:102EB0000E94CF2060E086E090E00E94CF206FEF7C
:102EC00087E090E00E94CF2040E050E0BA0188E027
:102ED00090E00E94E12060E08DE090E00E94CF2031
:102EE0000C9431170C943817029620910C01211183
:102EF00002C026E005C02091E40127FFFACF2EE1B1
:102F0000FC0180E0215028F091919923D9F38F5F43
:102F1000F9CF089520E030E04FEFFC01E20FF31FFE
:102F20005281561799F04F3F19F4511101C0422FA9
:102F30002F5F3F4F2630310581F74F3F39F0FC01BD
:102F4000E40FF11D47FDFA9562830895089520E08E
:102F500030E0FC01E20FF31F4281461301C01282F0
:102F60002F5F3F4F26303105A1F70895262F269574
:102F7000269526952E3170F4FC01E20FF11D677045
:102F800021E030E0062E01C0220F0A94EAF7828188
:102F9000822B82830895262F2695269526952E31FD
:102FA00078F4FC01E20FF11D677021E030E0062E9D
:102FB00001C0220F0A94EAF72095828128232283F8
:102FC000089520910C01222329F02091E40127FD8E
:102FD0000C94B6170C948A1720910C01222329F027
:102FE0002091E40127FD0C94CB170C94A717209196
:102FF0000C01FC013296222331F08091E40187FF1D
:1030000002C08EE101C086E0DF011D928A95E9F7DA
:10301000089508950C9409180E940A188091EA01F5
:10302000843031F11092BC0120E488E190E00FB6C9
:10303000F894A895809360000FBE2093600080E014
:103040000E9481040E940A1883B7817F846083BF35
:1030500083B7816083BF7894889583B78E7F83BF61
:1030600088E10FB6F89480936000109260000FBE64
:10307000089508950895CF930E9439180E94EA0890
:103080000E943A18C0E08C2F0E947209811105C07D
:10309000CF5FC530C1F780E001C081E0CF910895D6
:1030A00008950C9450180E9477100E94260B0E94DD
:1030B00081040C9451181F920F920FB60F92112495
:1030C0008F939F93AF93BF938091BC01811113C0E5
:1030D0008091E0019091E101A091E201B091E301C2
:1030E0004196A11DB11D8093E0019093E101A09351
:1030F000E201B093E301BF91AF919F918F910F9047
:103100000FBE0F901F90189582E084BD93E095BD8F
:103110009AEF97BD80936E0008952FB7F894809131
:10312000E0019091E101A091E201B091E3012FBF94
:1031300008952FB7F8946091E0017091E1018091BA
:10314000E2019091E3012FBF0895CF92DF92EF92B9
:10315000FF920F931F932FB7F8944091E001509185
:10316000E1016091E2017091E3012FBF6A017B01EF
:10317000EE24FF248C0120E030E0C016D106E206E8
:10318000F30610F441505109481B590BCA011F9115
:103190000F91FF90EF90DF90CF90089578941F9259
:1031A0000F920FB60F9211248F939F93AF93BF93FB
:1031B0008091E0019091E101A091E201B091E301E1
:1031C0000196A11DB11D8093E0019093E101A093B0
:1031D000E201B093E301BF91AF919F918F910F9066
:1031E0000FBE0F901F90189587E797E790930108FF
:1031F000809300082AE088E190E00FB6F894A89543
:10320000809360000FBE20936000FFCF0E940417E0
:10321000811102C00E9472170E940F178093BB0198
:103220000E94171790E09093E5018093E4010E94BB
:103230001317682F70E080E090E00C949114809157
:10324000DD01089508950F931F93CF93DF9300D06E
:103250001F92CDB7DEB78C010E94C61B823011F0E1
:10326000843019F584E089831B830A838093E90005
:103270008FEF9091E800815095FD06C095ED9A95ED
:10328000F1F700008111F5CF8091E80085FF0DC0B6
:1032900040E050E063E070E0CE0101960E94E31B45
:1032A0008091E8008E778093E8000F900F900F9048
:1032B000DF91CF911F910F910895CF93DF9300D0AD
:1032C0001F92CDB7DEB72091EA01243029F533E013
:1032D0003983805891099B838A832093E9008FEF7B
:1032E0009091E800815095FD06C095ED9A95F1F713
:1032F00000008111F5CF8091E80085FF0DC040E00E
:1033000050E063E070E0CE0101960E94E31B8091E3
:10331000E8008E778093E8000F900F900F90DF9178
:10332000CF910895CF93DF93EC010E94C61B8230AA
:1033300011F08430D9F580910C01811103C068E04F
:1033400081E006C08091E40187FFF9CF60E284E06C
:103350008093E9008FEF9091E800815095FD06C0C1
:1033600095ED9A95F1F700008111F5CF8091E80075
:1033700085FF1CC080910C01811105C040E050E028
:1033800068E070E003C070E040E050E0CE010E94D1
:10339000E31B8091E8008E778093E80080E2FE01D5
:1033A000ADEBB1E001900D928A95E1F7DF91CF91FD
:1033B0000895CF93603229F52091EA01243009F570
:1033C0002091E9002F703091EC0030FF02C030E80E
:1033D00001C030E0C32FC22B22E02093E9002091EE
:1033E000E80020FF0BC040E050E060E270E00E9487
:1033F000E31B8091E8008E778093E800CF70C09344
:10340000E900CF9108958091E901811109C00E94DE
:10341000BE1D0E941B1E8091E20084608093E2002A
:1034200008951092E9010895089508950C94531891
:1034300042E061EC81E00E94381D42E261EC84E0F0
:103440000E94381D42E261EC82E00E94381D42E297
:1034500060EC83E00C94381D8091EC01833009F41A
:1034600062C030F4813071F0823009F49BC008955D
:103470008A3009F487C08B3009F46DC0893009F0B7
:10348000A9C020C08091EB01813A09F0A3C08091CE
:10349000E800877F8093E8008091EF019091F00130
:1034A000892B21F060E080E090E003C060E28DEBCA
:1034B00091E070E00E94751C8091E8008B7780930A
:1034C000E80008958091EB01813209F083C080917A
:1034D000EF019091F001009719F0029709F07AC07E
:1034E0008091E800877F8093E8008091E80082FD6A
:1034F00005C08091EA018111F8CF6CC02091F300E2
:103500008091F20090E0922B029729F48091F100D3
:103510008B7F813021F48091F1008093DD018091D7
:10352000E8008B7753C08091EB01813A09F052C0DB
:103530008091EF019091F001892B09F04BC08091AF
:10354000E800877F8093E8008091E80080FFFCCF4F
:1035500080910C0136C08091EB018132D9F58091C8
:10356000EF019091F001892BA9F58091E800877F08
:103570008093E8000E946D1D8091ED0180930C0105
:103580000C9477108091EB01813221F58091E80055
:10359000877F8093E8000E946D1D8091EE018093EB
:1035A000DE0108958091EB01813AA1F48091E80059
:1035B000877F8093E8008091E80080FFFCCF8091B6
:1035C000DE018093F1008091E8008E778093E8001F
:1035D0000C946D1D08951F93CF93DF93CDB7DEB785
:1035E000A0970FB6F894DEBF0FBECDBF84B7877F1C
:1035F00084BF88E10FB6F894809360001092600059
:103600000FBE80E880936100109261000E94800BE1
:103610000E94BE1D0E941B1E8091E2008460809368
:10362000E20078940E949E200E94860B82E091E046
:103630000E94210B13E08091EA01853069F40E9419
:103640000C188091E8018823B1F30E943B1888236D
:1036500091F30E94CD1BEFCF0E948C0B8091EA0169
:10366000843049F71093E9008091E80082FFE3CFAE
:103670008091E80085FF0AC040E050E060E270E021
:10368000CE0101960E942C1C91E001C090E0809137
:10369000E8008B778093E800992369F260E2CE011D
:1036A00001960E94B502C7CF0C94561B292F3327D1
:1036B00023303105A9F06CF42130310509F448C0FC
:1036C0002230310509F049C08BE590E02EE333E06C
:1036D00048C021323105F9F02232310549F13DC0AF
:1036E00099278130910571F02CF4892BB1F5EAE32B
:1036F000F3E00DC08230910541F0039771F5E0E1F0
:10370000F3E005C0E8E2F3E002C0E6E1F3E0849113
:1037100090E09F0126C063307105F8F4FB01EE0FC5
:10372000FF1FE15EFE4F2081318189E090E019C0EA
:103730006330710590F4FB01EE0FFF1FE75EFE4F53
:1037400020813181FB01EA5EFE4F808190E009C05B
:1037500082E190E029E933E004C080E090E020E0DD
:1037600030E0FA013183208308950895CF93C82F64
:103770000E94B51BC093DF01CF9108958091EA01AB
:10378000843011F482E0089581E008958091DF0192
:10379000811102C00C94BE1B089580E189BD82E1B5
:1037A00089BD09B400FEFDCF8091D8008F7D809344
:1037B000D8008091E00082608093E0008091E0007A
:1037C00081FDFCCF0895CF92DF92EF92FF920F938D
:1037D0001F93CF93DF937C018B01EA010E948E1D22
:1037E000811131C0209731F088819981081B190B14
:1037F000E80EF91EC12CD12C0115110519F180918B
:10380000E80085FD14C08091E8008E778093E80081
:10381000209741F0888199818C0D9D1D9983888323
:1038200085E011C00E948E1D882331F30CC0F70182
:1038300081917F018093F10001501109FFEFCF1AB0
:10384000DF0ADACF80E0DF91CF911F910F91FF90D7
:10385000EF90DF90CF900895CF92DF92EF92FF929A
:103860000F931F93CF93DF937C018B01EA010E949A
:103870008E1D811131C0209731F088819981081BFC
:10388000190BE80EF91EC12CD12C0115110519F1E7
:103890008091E80085FD14C08091E8008B778093CB
:1038A000E800209741F0888199818C0D9D1D9983B6
:1038B000888385E011C00E948E1D882331F30CC0DF
:1038C0008091F100F70181937F0101501109FFEF11
:1038D000CF1ADF0ADACF80E0DF91CF911F910F91ED
:1038E000FF90EF90DF90CF9008952091F1013091FB
:1038F000F2012617370748F06115710539F4209158
:10390000E8002E772093E80001C0B901FC0120E017
:1039100061157105B9F18091EA01882309F440C06D
:10392000853009F43FC08091E80083FD3DC080915F
:10393000E80082FF06C08091E80082FF26C080E098
:1039400008958091E80080FFE3CF2091F3008091FB
:10395000F20090E0922B6115710551F088309105CD
:1039600038F421912093F100615071090196F3CF51
:1039700021E0089709F020E08091E8008E7780939D
:10398000E800C6CF2111C7CFD6CF8091EA018823A6
:1039900039F0853039F08091E80083FFCCCF04C046
:1039A00082E0089583E0089581E008952091F10177
:1039B0003091F2012617370748F06115710539F487
:1039C0002091E8002E772093E80001C0B901FC01A6
:1039D00020E061157105C1F18091EA01882309F4A5
:1039E00041C0853009F440C08091E80083FD3EC0AD
:1039F0008091E80082FF06C08091E80082FF27C026
:103A000080E008958091E80080FFE3CF2091F300EB
:103A10008091F20090E0922B6115710559F0883089
:103A2000910540F424912093F10031966150710981
:103A30000196F2CF21E0089709F020E08091E8009C
:103A40008E778093E800C5CF2111C6CFD5CF809166
:103A5000EA01882339F0853039F08091E80083FF4E
:103A6000CBCF04C082E0089583E0089581E00895FB
:103A7000982F973058F59093E900981739F0709186
:103A8000EC002091ED005091F00003C0242F762F20
:103A900050E021FF19C03091EB003E7F3093EB00E6
:103AA0003091ED003D7F3093ED003091EB003160BF
:103AB0003093EB007093EC002093ED005093F000F6
:103AC0002091EE0027FF07C09F5FD3CF8F708093B8
:103AD000E90081E0089580E008958091EB0187FD81
:103AE00005C08091E80080FF0EC012C08091E80000
:103AF00082FD05C08091EA018111F8CF089580917F
:103B0000E8008B7708C08091EA018111EACF08951F
:103B10008091E8008E778093E80008958091E4001A
:103B20009091E50045E62091EC0020FF21C0209116
:103B3000E80020FD21C02091EA01222389F02530F0
:103B400089F02091EB0025FD0FC02091E400309119
:103B5000E5002817390739F3415041F0C901E3CF97
:103B600082E0089583E0089581E0089584E0089557
:103B70002091E80022FFDFCF80E008950E942C1EF4
:103B80000E94341EE0EEF0E0808181608083E8EDE9
:103B9000F0E080818F77808319BCA7EDB0E08C9135
:103BA0008E7F8C9380818F7E80831092E9010895AF
:103BB0000F931F93CF93DF930E942C1E0E94341EFD
:103BC000C8EDD0E088818F7788838881806888837A
:103BD00088818F7D888319BC1092EA011092E601DA
:103BE0001092E8011092E70100EE10E0F8018081E8
:103BF0008B7F808388818160888342E060E080E001
:103C00000E94381DE1EEF0E080818E7F8083E2EE3D
:103C1000F0E0808181608083808188608083F8010A
:103C200080818E7F8083888180618883DF91CF91BE
:103C30001F910F910895E8EDF0E080818F7E8083E1
:103C4000E7EDF0E080818160808384E082BF81E0E5
:103C50008093E9010C94D81DE8EDF0E080818E7F1F
:103C600080831092E20008951092DA001092E10031
:103C700008951F920F920FB60F9211242F933F9326
:103C80004F935F936F937F938F939F93AF93BF9364
:103C9000EF93FF938091E10082FF0BC08091E200DF
:103CA00082FF07C08091E1008B7F8093E1000E943A
:103CB0009D208091DA0080FF1FC08091D80080FF96
:103CC0001BC08091DA008E7F8093DA008091D9004A
:103CD00080FF0DC080E189BD82E189BD09B400FE8D
:103CE000FDCF81E08093EA010E94031A05C019BC50
:103CF0001092EA010E94111A8091E10080FF19C020
:103D00008091E20080FF15C08091E2008E7F809359
:103D1000E2008091E20080618093E2008091D8000F
:103D200080628093D80019BC85E08093EA010E94EC
:103D3000151A8091E10084FF30C08091E20084FF79
:103D40002CC080E189BD82E189BD09B400FEFDCFB0
:103D50008091D8008F7D8093D8008091E1008F7E84
:103D60008093E1008091E2008F7E8093E200809159
:103D7000E20081608093E2008091E601882311F0E7
:103D800084E007C08091E30087FF02C083E001C0A8
:103D900081E08093EA010E94161A8091E10083FF7E
:103DA00029C08091E20083FF25C08091E100877FD8
:103DB0008093E10082E08093EA011092E601809115
:103DC000E1008E7F8093E1008091E2008E7F8093FE
:103DD000E2008091E20080618093E20042E060E0D6
:103DE00080E00E94381D8091F00088608093F00090
:103DF0000E94141AFF91EF91BF91AF919F918F9103
:103E00007F916F915F914F913F912F910F900FBED6
:103E10000F901F9018951F920F920FB60F921124BA
:103E20002F933F934F935F936F937F938F939F93C2
:103E3000AF93BF93CF93EF93FF93C091E900CF70FF
:103E40008091EC001092E9008091F000877F8093D0
:103E5000F00078940E94471F1092E9008091F000D2
:103E600088608093F000C093E900FF91EF91CF91BB
:103E7000BF91AF919F918F917F916F915F914F9182
:103E80003F912F910F900FBE0F901F9018951F9389
:103E9000CF93DF93CDB7DEB7AA970FB6F894DEBF06
:103EA0000FBECDBFEBEEF1E08091F100819321E0F8
:103EB000E33FF207C9F70E942C1A8091E80083FFC4
:103EC00024C12091EB013091EC01832F90E08A30E6
:103ED000910508F01AC1FC01E255FF4F0C94BB207C
:103EE000203821F0223809F010C108C08091E70184
:103EF0009091E801992389F082600FC08091EF01D1
:103F00008F70873008F001C18093E9008091EB0049
:103F100085FB882780F91092E9009091E800977F4F
:103F20009093E8008093F1001092F100CCC0822FB2
:103F30008D7F09F0EAC0222319F0223061F0E5C03C
:103F40008091ED01813009F0E0C0333009F080E06C
:103F50008093E8012AC08091ED01811126C0209153
:103F6000EF012F708FEF820F863008F0CEC02093C4
:103F7000E9008091EB0080FF18C08091EB003330A6
:103F800011F4806210C080618093EB0081E090E0CA
:103F900001C0880F2A95EAF78093EA001092EA00A0
:103FA0008091EB0088608093EB001092E900809193
:103FB000E800877F8093E8000E946D1DA6C0211154
:103FC000A4C01091ED011F778091E3008078812BD0
:103FD0008093E3008091E800877F8093E8000E944F
:103FE0006D1D8091E80080FFFCCF8091E300806828
:103FF0008093E300112311F083E001C082E08093FD
:10400000EA0183C02058223008F07FC08091ED0182
:104010009091EE018C3D23E0920779F583E08A834D
:104020008AE289834FB7F894DE01139620E03EE0E0
:1040300051E2E32FF0E050935700E49120FF03C0DA
:10404000E295EF703F5FEF708E2F90E0EA3010F056
:10405000C79601C0C0968D939D932F5F243149F779
:104060004FBF8091E800877F8093E8006AE270E0AC
:10407000CE0101960E94751C15C06091EF017091F0
:10408000F001AE014F5F5F4F0E94541B0097E9F1B2
:104090002091E800277F2093E800BC0189819A8164
:1040A0000E94D61C8091E8008B778093E8002DC099
:1040B000203859F58091E800877F8093E80080914F
:1040C000E6018093F1008091E8008E7773CF211193
:1040D0001CC09091ED019230C0F48091E800877F80
:1040E0008093E8009093E6010E946D1D8091E601A7
:1040F000811104C08091E30087FF02C084E001C009
:1041000081E08093EA010E94181A8091E80083FF01
:104110000AC08091E800877F8093E8008091EB00DF
:1041200080628093EB00AA960FB6F894DEBF0FBEB4
:10413000CDBFDF91CF911F9108950895CF938091C6
:10414000EA018823B1F08091E9008F709091EC0032
:1041500090FF02C090E801C090E0C92FC82B1092D8
:10416000E9008091E80083FD0E94471FCF70C09353
:10417000E900CF910895EE0FFF1F0590F491E02D17
:104180000994F999FECF92BD81BDF89A992780B51F
:104190000895A8E1B0E042E050E00C94F520262F0D
:1041A000F999FECF92BD81BDF89A019700B402162D
:1041B00039F01FBA20BD0FB6F894FA9AF99A0FBEDB
:1041C00008950396272F0E94D0200E94CF20252FEC
:1041D0000E94D020242F0C94D0200196272F0E94DB
:1041E000D0200C94CF20DC01CB01FC01F999FECF4B
:1041F00006C0F2BDE1BDF89A319600B40D9241506F
:0A4200005040B8F70895F894FFCF7E
:10420A0098011F19921922195D19231901F4F5F65B
:10421A00F791909466974022713E04AB03CD035008
:06422A000382036903009A
:00000001FF
