:100000000C9483030C94C7030C94C7030C94C7038C
:100010000C94C7030C94C7030C94C7030C94C70338
:100020000C94C7030C94C7030C94122A0C94E42A72
:100030000C945C230C94C7030C94C7030C94C70363
:100040000C94C7030C94C7030C94C7030C94C70308
:100050000C943D060C94CF230C94C7030C94C70357
:100060000C94C7030C94C7030C94C7030C94C703E8
:100070000C94C7030C94C7030C94C7030C94C703D8
:100080000C94C7030C94C7030C94C7030C94C703C8
:100090000C94C7030C94C7030C94C7030C94C703B8
:1000A0000C94C7030C94C7030C94C7030A040D04F3
:1000B0008704180420042C0487048704870476042A
:1000C00079042F04320437044504530456045A04B7
:1000D00068048D08930897089A089E08A208A60845
:1000E000AA08AF08B308B708BB08BE08C208C6080C
:1000F000CA08CE08D308DF18DF18191919195E19B4
:10010000CD1ACD1ACD1A8019CD1A271A271A9B1A83
:10011000A21ACD1AC81A341A341A341A341A341AD4
:10012000341A341A341A341A341A341A341A341A5F
:10013000341A341A341A431A531A5A1A611A6B1A97
:100140005D1B5D1B701B701B661B701B701B701B87
:100150005D1B5D1B6C1B701B701B6C1B492B702B7C
:100160005E2C702B5E2CB82BDB2B5E2C312C402CA4
:1001700007634236B79BD8A71A39685618AEBAAB90
:10018000558C1D3CB7CC5763BD6DEDFD753EF61724
:100190007231BF000000803F05A84CCDB2D44EB9EB
:1001A0003836A9020C50B9918688083CA6AAAA2A1A
:1001B000BE000000803F165C1E001F0020002100D2
:1001C0002200230024002500260027002D002E00F9
:1001D0004C004A002A002B0014001A0008001500E9
:1001E00017001C0018000C00120013002F00300034
:1001F00031004D000000390004001600070009001E
:100200000A000B000D000E000F0033000000340048
:1002100028004B000000E10000001D001B0006004C
:100220001900050011001000360037003800E50005
:1002300052004E000000E000E300E2000000000079
:1002400000002C0000000000E6000151E400500016
:1002500051004F000000005C3A003B003C003D00B4
:100260003E003F0040004100420043004400450082
:100270000100010001000100C25CC35CC55CC65CFA
:10028000C75CC85CC95CCA5C0100010001000100D8
:100290000100010000000100010001000100010057
:1002A0000100010001000100010001000000010047
:1002B0000100010000000100000001000100010038
:1002C0000100010001000100010001000100010026
:1002D0000100010000000100010001000000000019
:1002E0000000010000000000010001000100010009
:1002F00001000100000000000000000000000000FC
:100300000001010203040506080A0C0F1114181C51
:100310002024292E33393F464C535B626A71798120
:100320008A929AA2AAB2B9C1C8CFD5DCE1E7EBF0B4
:10033000F4F7FAFCFDFEFFFEFDFCFAF7F4F0EBE744
:10034000E1DCD5CFC8C1B9B2AAA29A928A817971EB
:100350006A625B534C463F39332E2924201C181403
:10036000110F0C0A08060504030201010000000039
:1003700000000000000000000000000000002A2B28
:100380002800000000000000000000000000000045
:100390000029000000002C1E3420212224342627AE
:1003A000252E362D3738271E1F20212223242526CF
:1003B0003333362E37381F0405060708090A0B0C9D
:1003C0000D0E0F101112131415161718191A1B1CE5
:1003D0001D2F3130232D350405060708090A0B0CA3
:1003E0000D0E0F101112131415161718191A1B1CC5
:1003F0001D2F3130354C00000000000000000000CF
:1004000000000000000000000000000000000000EC
:1004100000000000000000010101010101000101D4
:1004200001010000000000000000000000000000CA
:1004300001000100010101010101010101010101AE
:10044000010101010101010101010101010101019C
:100450000100000001010000000000000000000099
:10046000000000000000000000000000000000008C
:1004700000010101010000047F3F1F643214643257
:1004800014783C1E1E140A056801F000B4007800C0
:100490005A000000000000010101010101010101F9
:1004A0000202020202020202020303030303030325
:1004B00003040404040404050505050506060606F0
:1004C0000607070707080808080909090A0A0A0AA7
:1004D0000B0B0B0C0C0C0D0D0D0E0E0F0F0F101047
:1004E00011111112121313141415151616171718CB
:1004F0001819191A1A1B1C1C1D1D1E1F1F20202134
:1005000022222324252526272728292A2B2B2C2D78
:100510002E2F2F30313233343536363738393A3B97
:100520003C3D3E3F4041424344464748494A4B4C8C
:100530004D4F50515253555657585A5B5C5E5F6051
:100540006263646667696A6C6D6E707173747678E5
:10055000797B7C7E8081838486888A8B8D8F919243
:100560009496989A9B9D9FA1A3A5A7A9ABADAFB167
:10057000B3B5B7B9BBBDBFC1C4C6C8CACCCFD1D350
:10058000D6D8DADCDFE1E4E6E8EBEDF0F2F5F7FAF5
:10059000FCFF0403300000000E03610061006E00E8
:1005A0007A0065006500000018037700650073009D
:1005B000740066006F007800740072006F007400B1
:1005C00000000403090409025B00030100A0FA090A
:1005D0000400000103010100092111010001224072
:1005E000000705810308000A090402000103000056
:1005F0000009211101000122710007058403200078
:100600000A09040100020300000009211101000190
:1006100022220007058203200001070503032000B2
:10062000011201100100000008FF2101AA010001D0
:100630000203010660FF0961A1010962150026FF9E
:10064000009520750881020963150026FF0095209A
:1006500075089102C005010980A1018503160100FA
:100660002603001A81002A8300751095018100C0BD
:10067000050C0901A1018504160100269C021A013E
:10068000002A9C02751095018100C005010906A190
:10069000018505050719E029E7150025019508756D
:1006A0000181020508190129059505750191029539
:1006B00001750391010507190029EF150025019522
:1006C000F075018102C005010906A101050719E0C5
:1006D00029E7150025019508750181029501750826
:1006E00081010508190129059505750191029501FA
:1006F000750391010507190029FF150026FF0095D4
:100700000675088100C011241FBECFEFDAE0DEBFFE
:10071000CDBF04B603FE24C080918C0290918D025F
:10072000A0918E02B0918F028730904BA740B04BC2
:10073000B9F410928C0210928D0210928E021092D7
:100740008F0214BE84B7877F84BF88E10FB6F89408
:1007500080936000109260000FBEE0E0F8E309951E
:1007600011E0A0E0B1E0E6EEF0E602C005900D92E7
:10077000A034B107D9F712E0A0E4B1E001C01D92A6
:10078000AC38B107E1F70E94C2260C9471300C948A
:10079000000080E290E00E9437308F31954451F4A0
:1007A00082E290E00E94293091E0883009F090E0E8
:1007B000892F01C080E081700895CF93C82F8823CE
:1007C00019F06FE175E402C06FEF7FEF80E290E017
:1007D0000E945B30CC2311F068E001C06FEF82E231
:1007E00090E0CF910C943D3080E00E94DD030C94AA
:1007F000D7211F93CF93DF93EC01162F488150E050
:10080000FA013197E331F10508F081C0EA5AFF4F50
:100810000C940B30198288E028C08981813009F05E
:1008200076C00E949A239A838B837C836D8371C0E8
:100830004B816A8189810E9453149C838D8369C096
:100840002C8130E0322F22278D81282B4B816A8129
:1008500089810E946C145DC00E9488145AC00E9455
:100860001D1526C00E941F1599838A8352C06B8173
:1008700070E0898190E0982F88272A81AE014C5F33
:100880005F4F822B0E94221544C06B8170E08981EA
:1008900090E0982F88272A81AE014C5F5F4F822B12
:1008A0000E94471536C00E946D1533C00E94411446
:1008B00089832FC06B8170E0898190E0982F882711
:1008C0002A81AE014C5F5F4F822B0E94C71421C06A
:1008D0006B8170E0898190E0982F88272A81AE0192
:1008E0004C5F5F4F822B0E94EB1413C00E94F403F5
:1008F00010C00E94B0252FEF81EE94E0215080407F
:100900009040E1F700C000000E94F52302C08FEF85
:100910008883612FCE01DF91CF911F910C94B02578
:100920000E94C903811107C00E9488140E946D159E
:1009300081E00C94DD0308950E94770C8FE19EE422
:100940000197F1F700C000008FE19EE40197F1F7F5
:1009500000C000000E94770C80E00E94100D80FF14
:1009600004C00E94F4030C94F52308950E949C0493
:100970000E9490040C94EF040C94F004FB0122817B
:100980008031FFE59F0731F081313FE5930781F426
:1009900082E001C081E0222319F00E94C21F02C040
:1009A0000E94DD1F43E062E081E00E94E7050EC087
:1009B000222351F09C0122513F452031310520F482
:1009C00082510E947D1502C00C94F10480E00895CC
:1009D00081FF02C02A9801C02A9A0C94C606089585
:1009E000089581E00895CF92DF92EF92FF928C37C5
:1009F00024E1920730F469E070E00E94C12FCB013E
:100A000027C0A0E0B0E08A50974DAF4FBF4F662798
:100A1000782F892F9A2F25EF38E241E050E00E948D
:100A2000E92F69017A01CA01B9010E94B12F9B0126
:100A3000AC01C701B6010E94B12FBB27A92F982F87
:100A4000872F009721E0A207B10511F48FEF9FEFE8
:100A5000FF90EF90DF90CF90089581E00895CF93BD
:100A6000282F30E0F901EA58FC4FC491F901EA500F
:100A7000FC4F2491222359F081EE0E9416178C2FEF
:100A80000E9416178C2F0E942E1881EE04C08C2F06
:100A90000E9416178C2FCF910C942E18FF920F9353
:100AA0001F93CF93DF93EC01F62E8881882331F1D9
:100AB0008E010F5F1F4F813031F4C9818C2F0E944E
:100AC00016178C2F0AC0823029F489810E941617CC
:100AD000E80108C0833021F489810E942E18F8CFE4
:100AE0000E942F0521968F2D8823F9F2EFE9FFE070
:100AF0003197F1F700C000008150F6CFDF91CF9120
:100B00001F910F91FF90089560E00C944E054F9255
:100B10005F926F927F928F929F92AF92BF92CF928D
:100B2000DF92EF92FF920F931F932B013C01C12C98
:100B3000D12C7601C394D701C60104C0880F991F38
:100B4000AA1FBB1F4A95D2F7AC01BD014601570150
:100B500004C0880C991CAA1CBB1C2A95D2F74829F2
:100B600059296A297B29D701C60104C0880F991F1A
:100B7000AA1FBB1F0A95D2F76A017B01C420D520AA
:100B8000E620F720C416D506E606F70639F4BC01C0
:100B9000CD0164297529862997290AC0BC01CD0198
:100BA0006095709580959095642175218621972197
:100BB0001F910F91FF90EF90DF90CF90BF90AF907B
:100BC0009F908F907F906F905F904F9008950F93BC
:100BD000382F262F6091FB017091FC018091FD015F
:100BE0009091FE01042F432F0E9487050F910C94D2
:100BF000A21F0C94BC04863030F4811105C0909182
:100C00008000977F04C085E0909180009860909369
:100C10008000282F30E0AFEFBFEF0E94A22F25E029
:100C200030E040E050E00E94E92FC9010E94F30447
:100C300090938D0080938C00089580916F00817057
:100C40000895109241011092400110924201EFE686
:100C5000F0E08081816080830895EFE6F0E080819C
:100C60008E7F80830E94F2240C94FB050E941D0657
:100C700081110C942D060C9421061F920F920FB631
:100C80000F9211242F933F934F935F936F937F9312
:100C90008F939F93AF93BF93CF93EF93FF93209145
:100CA00000018091400190914101019644EF249F01
:100CB00090011124B9010E94C12F909341018093AA
:100CC0004001B901660F672F661F770B71950E946F
:100CD000C12F6F7780914201823019F4603451F452
:100CE00004C0813039F46F3729F480916F008E7F12
:100CF00080936F00E62FF0E0EA50FD4FC4910E9410
:100D0000F224F82F41E051E0C49FC001C59F900D2F
:100D1000112465E070E00E94C12FF69FC001F79F8B
:100D2000900D11240E94F30490938D0080938C0009
:100D3000FF91EF91CF91BF91AF919F918F917F9153
:100D40006F915F914F913F912F910F900FBE0F9038
:100D50001F901895279A2F988AE08093800089E148
:100D6000809381008FEF9FEF9093870080938600A0
:100D70000E9433240C9421060E94DD21811102C0BF
:100D80000E9454220E94AA060C94B60408950C9462
:100D9000E80408950E944D1B0E94C9062FEF84E3CA
:100DA0009CE0215080409040E1F700C000000C948E
:100DB000F523FF920F931F93CF93DF938C01FC01D8
:100DC000C081D18180919001811113C082818823DB
:100DD00049F0CE010E94A820F82E682FCE010E9473
:100DE0004E2004C0CE010E947C20F82EBE018F2D23
:100DF00004C0CE010E94A820BE010E941015EC0183
:100E0000B8010E94BE04882309F483C2CB3CFCE5F0
:100E1000DF0709F4DDC0E8F5C33C9CE5D90709F418
:100E20009DC0F8F4C531FCE5DF0778F4C2308CE5ED
:100E3000D80708F052C1C1159CE5D90709F46BC069
:100E4000C130DC4509F46FC057C2C13CFCE5DF0787
:100E500009F44BC208F07AC0C631DC4509F418C267
:100E60004BC2F8018281C73CFCE5DF0709F498C05A
:100E700040F4C53CECE5DE0709F486C008F47AC00E
:100E800089C0C93C9CE5D90709F496C008F48EC016
:100E900099C0C33DFCE5DF0709F4F5C0C0F4F801D3
:100EA0008281CF3CFCE5DF0709F4B3C040F4CD3CC0
:100EB000ECE5DE0709F49AC008F492C09CC0C13D7D
:100EC0009CE5D90709F4C3C008F4B1C0CEC0C73D42
:100ED000FCE5DF0709F49AC150F4F8018281C53DB1
:100EE000FCE5DF0709F4E4C008F4D4C06EC1CB3DD3
:100EF000ECE5DE0709F4E1C028F4C83DDC4509F45F
:100F0000ACC1FAC1CC3D9CE5D90709F4DDC0CD3DAB
:100F1000DC45A1F0F1C1F8018281882309F4F9C10F
:100F20000E94CA06F6C1F8018281882309F4F1C142
:100F300080912802816080932802EBC1F8018281B0
:100F4000882309F4E6C10E945422E3C1F80182819A
:100F5000882309F4DEC10E94BE10DBC1F801828142
:100F6000882309F4D6C10E942721827251F00E9481
:100F70005A10CFC1882309F4CCC10E942721827264
:100F8000B1F30E944D10C5C1882309F4C2C10E946B
:100F90004F0FBFC1882309F4BCC10E94730FB9C1B0
:100FA000882309F4B6C10E94930FB3C1882309F4C2
:100FB000B0C10E94B30FADC1882309F4AAC10E9439
:100FC000D30FA7C1882309F4A4C10E94F30FA1C1C4
:100FD000F8018281882309F49CC10E94050E99C101
:100FE000882309F496C10E941A0E93C1882309F43C
:100FF00090C181E029C0882309F48BC10E94FC0DB7
:10100000823028F00E94FC0D853008F4BACF82E0CF
:101010001BC0882309F47DC10E94FC0D863028F096
:101020000E94FC0D883008F4ACCF86E00DC0882308
:1010300009F46FC10E94FC0D893028F00E94FC0D5C
:101040008E3008F49ECF89E00E945D1062C1882333
:1010500009F45FC10E94FC0D8F3028F00E94FC0D46
:10106000843108F48ECF8FE0EFCF882309F451C18B
:101070000E94FC0D853128F00E94FC0D873108F498
:1010800080CF85E1E1CFF8018281882309F441C155
:1010900088E1DACF882309F43CC10E94FC0D893134
:1010A00028F00E94FC0D823208F46BCF89E1CCCF8E
:1010B000882309F42EC183E2C7CFF80182818823F7
:1010C00009F427C180E006C0F8018281882309F471
:1010D00020C182E00E948F271CC1F80182818823F1
:1010E00009F40FC10E94DD21811102C00E94542227
:1010F0000E94F02190E090937D0280937C02FE019B
:10110000E350FC45E231F10520F4E759FF4F0C9420
:101110000B3080917C02816003C080917C028260F0
:1011200080937C024BC080917C028460F9CF8091D7
:101130007C0213C080917C028061F2CF80917C029E
:101140008062EECF80917C028064EACF80917C0245
:101150008068E6CF80917C0284608860E1CF8091D6
:101160007C028E7FDDCF80917C028D7FD9CF8091F4
:101170007C028B7FD5CF80917C0213C080917C0252
:101180008F7ECECF80917C028F7DCACF80917C02F2
:101190008F7BC6CF80917C028F77C2CF80917C02FB
:1011A0008B7F877FBDCF90917C0297FB882780F94A
:1011B00021E0822780FB97F990937C0280917C024A
:1011C0000E94F4210E944D1BA4C0882351F010926C
:1011D00048010E948E23909345018093440182E050
:1011E00022C08091480181110FC0809144019091EB
:1011F00045010E94A623883C910530F486E20E94B6
:10120000161786E20E942E1882E024C0F80182811F
:10121000882361F0109249010E948E239093470128
:101220008093460180E20E948F1873C0809149012B
:1012300081110FC080914601909147010E94A62321
:10124000883C910530F487E20E94161787E20E94DD
:101250002E1880E20E9496185CC0F80182818111EC
:10126000D9CF809149018111F4CF809146019091AD
:1012700047010E94A623883C910558F780E20E940E
:10128000961888E20E94161788E20E942E1841C024
:101290000E942721C82F0E942721817119F43C2F19
:1012A0003A7A01C030E0F801228180910E019091DC
:1012B0000F01222371F021E0311101C020E02093C1
:1012C0004301222311F065E301C069E20E94C322B9
:1012D00009C020914301222311F065E301C069E2B6
:1012E0000E94CE220E94732114C0F80182818823BB
:1012F00081F00E9436060DC081E080934801809302
:101300004901C801DF91CF911F910F91FF900C947B
:101310002D0580E0DF91CF911F910F91FF900895EF
:1013200080E090E008950895880F991F8A589B4F98
:10133000FC01859194910895CF93DF930E9410153D
:101340000E948E0BEC01811521E5920708F044C044
:10135000C11580E5D80708F031C1C83ED10510F5A8
:10136000C03ED10508F0D6C1C83AD10578F4C53AD7
:10137000D10508F0A6C0C130D10509F4CBC108F4ED
:101380007CC1C430D10508F0C5C177C1CF3BD105C0
:1013900008F4A2C0C03CD10508F46FC1CE01805C46
:1013A0009109FBC0C11520E3D20780F4C11580E28A
:1013B000D80708F0F0C0C03FD10508F45EC1CF3FA8
:1013C000D10511F008F0A6C1D065A4C1C11520E473
:1013D000D20708F0F0C0E5C0C11589E5D80760F56F
:1013E000C11528E5D20708F034C1C11584E5D80736
:1013F00078F4C11523E5D20708F011C1C11582E5C3
:10140000D80708F0F7C0DC2FCC27C16FD06A82C1A3
:10141000C11525E5D20708F417C1C11586E5D8071F
:1014200008F02BC18C2F0E940A0C8F71C82FD0E0BE
:10143000DC2FCC27D0626EC1CD3B2CE5D20709F45E
:1014400013C1F0F4CB3B2CE5D20709F407C108F037
:1014500008C1C1152AE5D20708F00FC18C2F8F7083
:101460000E940A0C34E0D695C7953A95E1F7CF7003
:10147000D0E0DC2FCC27D06A8F70806EC82B4AC199
:10148000C03C8CE5D80709F4F5C060F4CE3B8CE590
:10149000D80709F4ECC0CF3BDC4509F0EEC0C0E052
:1014A000D2ED38C1CE0190568115904208F0E5C0CA
:1014B0008D2F8F710E940A0CDD27D0628F71D82B7F
:1014C00029C1C53AD10509F4DBC0C63AD10509F4F2
:1014D000DAC0C3E8D0E41EC1C83AD10509F4D6C0C9
:1014E000C93AD10509F4D5C0CA3AD10509F4D4C026
:1014F000CB3AD10509F4D3C0CC3AD10509F4D2C016
:10150000CB3BD10509F4D1C0CC3BD10509F4D0C007
:10151000CD3AD10509F4CFC0C03BD10509F4CEC006
:10152000CE3AD10509F4CDC0CF3AD10509F4CCC0EB
:10153000C13BD10509F4CBC0C23BD10509F4CAC0F7
:10154000C33BD10509F4C9C0C43BD10509F4C8C0E7
:10155000C53BD10509F4C7C0C63BD10509F4C6C0D7
:10156000C73BD10509F4C5C0C83BD10509F4C4C0C7
:10157000C93BD10509F4C3C0CD3BD10509F4C2C0B4
:10158000CE3BD10509F4C1C0CA3BD10509F0C0C0AA
:10159000CAE2D6E4BFC0CE019F700E949409EC015C
:1015A000B9C0CE019927D3FF03C0EC01D86CB2C0FB
:1015B000EC01D06CAFC0DF70D06AACC02C2F2370B0
:1015C00081E090E002C0880F991F2A95E2F79C689D
:1015D0009E01F4E036952795FA95E1F72370922B5A
:1015E000CF70C695C69520E2C29FE0011124C82B9A
:1015F000D92B90C08C2F8695869520E2829FC001C2
:1016000011249E0123703327C1E0D0E002C0CC0F2B
:10161000DD1F2A95E2F7C82BD92BDC687BC08C2F05
:101620008695869520E2829FC00111249E01237039
:101630003327C1E0D0E002C0CC0FDD1F2A95E2F7CE
:10164000C82BD92BDA6866C0DC2FCC27C46FD06AD0
:1016500061C0DC2FCC27C06FD06A5CC0C0E0D4ED85
:1016600059C0C0E0D5ED56C0C0E0D1ED53C0C0E0D8
:10167000D0ED50C0C0E0D3ED4DC0C0E0D0E04AC0D6
:10168000C1E8D0E447C0C2E8D0E444C0C2EED4E42C
:1016900041C0C9EED4E43EC0CAEED4E43BC0C5EBC1
:1016A000D4E438C0C6EBD4E435C0C3EBD4E432C0D4
:1016B000C4EBD4E42FC0C7EBD4E42CC0CCECD4E40E
:1016C00029C0CDECD4E426C0C3E8D5E423C0CAE8E1
:1016D000D5E420C0C2E9D5E41DC0C4E9D5E41AC0F0
:1016E000C1E2D6E417C0C3E2D6E414C0C4E2D6E433
:1016F00011C0C5E2D6E40EC0C6E2D6E40BC0C7E214
:10170000D6E408C0CFE6D4E405C0C0E7D4E402C004
:10171000C0E0D4E4CE01DF91CF91089582389105E5
:1017200049F1B0F48133910509F459C048F4893284
:10173000910509F44FC08A32910509F455C0089506
:101740008533910509F441C08933910599F00895D5
:10175000833E910531F138F4803E910591F0823E4F
:101760009105A9F00895863E910501F1873E910506
:1017700039F1089520917C0220FD3BC021FD39C044
:10178000089580917C0280FF34C089E341C080913C
:101790007C0282FF32C080917C0284FF2CC080E0FA
:1017A00037C080917C0282FD28C0F5CF80917C02F9
:1017B00083FF25C080917C0284FDF1CF87EE28C095
:1017C00080917C0283FD1BC0F5CF80917C0285FF58
:1017D00018C019C080917C0285FF15C012C080918D
:1017E0007C0286FF12C013C080917C0286FF0FC06E
:1017F0000CC080EE0DC083EE0BC082EE09C086EEF9
:1018000007C085E305C089E203C081E301C08AE225
:1018100090E0089590917C0292FF0DC0282F2871CE
:10182000283019F4877F846006C0282F2471243063
:1018300011F48B7F886093FF0DC0282F2871283109
:1018400019F4877E846106C0282F2471243111F495
:101850008B7E886194FD877E0895EBE2F1E021E0C4
:1018600030E08191A82FA295AF70B0E091964C9195
:1018700091978F70B90102C0660F771F8A95E2F7C2
:10188000CB018095482391964C9371E0E033F707A4
:1018900041F7ABE1B1E021E030E08D91E82FE29536
:1018A000EF70F0E041A18F70B90102C0660F771FA1
:1018B0008A95E2F7CB01962F9095492341A392A1F7
:1018C000982B92A371E0AB32B70739F7E4E5F1E06A
:1018D000AAE4B1E0119211921D921D9281E0EE35C1
:1018E000F807C1F785E00E941A0D0C94BC064F92D0
:1018F0005F927F928F929F92AF92BF92CF92DF9230
:10190000EF92FF920F931F93CF93DF939BE2492EA9
:1019100091E0592EA4E5B1E020E001E010E06D0176
:101920008D909C90119711961C921E92E201499104
:101930002E01E42FE295EF70F0E081A14F70B80125
:1019400002C0660F771F4A95E2F7AB01862B81A391
:1019500082A1362F3095832382A370EA7A95F1F71E
:101960008BE1E82E81E0F82E80E090E0E7017990AD
:101970007E01672D62956F7070E0EB0168A1AD90FC
:10198000BC90119770E0D72DDF700D2E02C07595B9
:1019900067950A94E2F760FD08C0B801082E02C0FE
:1019A000660F771F0A94E2F702C060E070E0A62A93
:1019B000B72A1196BC92AE92019680319105B1F68C
:1019C00081A1832381A382A1842B82A3129631E07B
:1019D000F601808191818816990609F430E0232B65
:1019E000F0E34F16F1E05F0609F099CF45E06AE4B5
:1019F00071E084E591E00E941B0D0E94F90581E0F1
:101A0000DF91CF911F910F91FF90EF90DF90CF90DA
:101A1000BF90AF909F908F907F905F904F90089570
:101A2000E82FF0E0EE0FFF1FE65BFE4F8081918113
:101A3000089508950895FF920F931F93CF93DF9316
:101A4000D82FC92FF62E072F142F222349F081E01B
:101A5000809360010E948E2390935F0180935E01CA
:101A6000809160018823B9F080915E0190915F01BF
:101A70000E94A623069778F0ED2FFC2FAF2DB02FF4
:101A800020E0211731F0819191918D939D932F5FEB
:101A9000F8CF10926001DF91CF911F910F91FF90CD
:101AA0000895DF92EF92FF920F931F93CF93DF93EE
:101AB000662309F44AC0E42FF0E0AFEFB0E0A61BC4
:101AC000B109BF01A69FE001A79FD00DB69FD00D21
:101AD0001124FD2FDD2E7B01ED1AF1080CE310E03F
:101AE000B8010E94C12FEB01BC01E69EC001E79E38
:101AF000900DF69E900D1124B8010E94C12FC230A6
:101B0000D105B1F040F4209779F0219709F58F2F96
:101B1000D42E461B20C0C430D10599F068F025971B
:101B2000B9F4842F861B17C08F2FD62EDF0E13C05B
:101B3000862F8F0FD42E03C0D42ED61A842F4F2F6A
:101B40000AC0842F462F4F0F06C0842FD42E03C007
:101B500080E0D12C40E0E42FF0E0EE56FB4F4491C2
:101B6000ED2DF0E0EE56FB4F9491E82FF0E0EE56AD
:101B7000FB4FE491D90111964C9311979C931296C7
:101B8000EC93DF91CF911F910F91FF90EF90DF9039
:101B9000089588E090E00C943130CF92DF92EF927C
:101BA000FF926B017C010E94C90D6C157D058E05AD
:101BB0009F0551F0B701A60188E090E0FF90EF90FB
:101BC000DF90CF900C944F30FF90EF90DF90CF904C
:101BD0000895EFE4F2E083E08083109250028FEFEB
:101BE000809351028093520210925302608171815E
:101BF000828193810C94CD0D80914F0280FF03C0B0
:101C000086958F73089580E008958091530290E047
:101C100001968430910514F083E090E080935302A4
:101C200060914F0270915002809151029091520246
:101C30000C94CD0D8091530290E0019797FF02C064
:101C400080E090E08430910514F083E090E0809390
:101C5000530260914F027091500280915102909115
:101C600052020C94CD0D80914F0280FF06C069E0B6
:101C700070E084E592E00C943214E6E5F2E0DF01D6
:101C800011971C92DF0112971C921082349682E009
:101C9000EA37F807A1F7EBCF90914F0290FF10C001
:101CA000E6E5F2E0DF0111978C93DF0112976C9368
:101CB0004083349692E0EA37F907A1F70C94330E8B
:101CC0000895CF93DF9300D000D0CDB7DEB7209139
:101CD0004F0220FF0AC09E012F5F3F4F0E94510D0F
:101CE0004B8169818A810E944C0E0F900F900F905A
:101CF0000F90DF91CF9108955F926F927F928F92B4
:101D00009F92AF92BF92CF92DF92EF92FF920F938A
:101D10001F93CF93DF9300D000D0CDB7DEB78C01F7
:101D2000662E742E522E80914F0280FF89C0982F0C
:101D30009E77923061F49E012F5F3F4FC8010E9451
:101D4000510D4B8169818A810E944C0E59C0E82F48
:101D5000E695EF739EE39E0F9F73943018F4709096
:101D600052024EC09AE39E0F9F73993068F4881F09
:101D70008827881F90915002292F220F022F082BAD
:101D800097FB112710F93CC087E28E0F8F738A30C2
:101D9000B8F5F0E07997E0FF02C02FEF01C021E035
:101DA000EE7FE857FB4F8591949169E070E00E94C7
:101DB000C12F26035001279FB00C1124680188E928
:101DC000C81A8EEFD80A84E5E82E82E0F82E98E64D
:101DD000892E99249394C601B4010E94C12F9701C2
:101DE000472D662D0E94510DCA0CDB1C84E0E80EC5
:101DF000F11C88E7E81682E0F80669F70E94330EC6
:101E000080914F0200FB87F980934F02902F9695A7
:101E1000809150028078892B10FB87F980935002C3
:101E20006092510270925202552051F060914F021F
:101E30007091500280915102909152020E94CD0DFA
:101E40000F900F900F900F90DF91CF911F910F91F6
:101E5000FF90EF90DF90CF90BF90AF909F908F90CA
:101E60007F906F905F900895282F90914F02991F57
:101E70009927991F30915002832F880F482F492BA3
:101E800037FB552750F9CA010C9668E671E00E94AD
:101E9000D52F40915202609151020C947C0E81E04A
:101EA0000C94340F282F90914F02991F9927991F56
:101EB00030915002832F880F482F492B37FB55272D
:101EC00050F9CA014C3051051CF4845A9E4F01C090
:101ED0000C9768E671E00E94D52F40915202609104
:101EE00051020C947C0E81E00C94520F60915102CF
:101EF000462F50E0473E510514F4675E01C06FEF76
:101F000030914F02331F3327331F90915002592FC6
:101F1000550F97FB992790F9282F40915202852F52
:101F2000832B0C947C0E81E00C94760F609151020F
:101F3000462F50E04931510514F0695101C060E06D
:101F400030914F02331F3327331F90915002592F86
:101F5000550F97FB992790F9282F40915202852F12
:101F6000832B0C947C0E81E00C94960F40915202CE
:101F7000642F70E0643F710514F4445F01C04FEFBB
:101F800030914F02331F3327331F90915002592F46
:101F9000550F97FB992790F9282F60915102852FB3
:101FA000832B0C947C0E81E00C94B60F409152026E
:101FB000642F70E06C30710514F04C5001C040E0AB
:101FC00030914F02331F3327331F90915002592F06
:101FD000550F97FB992790F9282F60915102852F73
:101FE000832B0C947C0E81E00C94D60F20E00C9493
:101FF0007C0ECF9390914F0290FF42C09178811157
:1020000002C0926003C0853220F0986490934F0222
:1020100005C08F73880F892B80934F02662351F080
:1020200060914F0270915002809151029091520242
:102030000E94CD0DC0914F026C2F66956F7370E0BA
:102040004BE050E083E091E00E941C30892B19F0B6
:1020500010927E0103C081E080937E01CC1FCC27CB
:10206000CC1F90915002892F880F97FB992790F9E8
:1020700040915202609151028C2BCF910C94F60F3B
:10208000CF910895682F80914F0286958F738F5F4F
:10209000853208F081E00C94F90F81E00C94421035
:1020A000682F80914F0286958F73815009F484E2E6
:1020B0000C94F90F81E00C94501061E00C94F90F2E
:1020C000EFE4F2E080818160808386958F730C94C9
:1020D0005D1060E00C94F90F80912802816080937C
:1020E00028020E94DD21811104C00E9454220E9416
:1020F000E90D0E94C90D60934F02709350028093C6
:102100005102909352026E7761F40E94E90D0E9491
:10211000C90D60934F0270935002809351029093C7
:10212000520281E080937E0180914F0280FF04C0C3
:1021300086958F730C9469100895EFE4F2E0808126
:102140008160808386958F730C946910EFE4F2E0D0
:1021500080818E7F808360817181828193810E94E2
:10216000CD0D10927E012FEF80E792E0215080404C
:102170009040E1F700C000000C94330E80914F02B4
:1021800080FD0C94A6100C946010EFE4F2E08081C6
:102190008E7F808310927E012FEF80E792E02150A6
:1021A00080409040E1F700C000000C94330E81E0C5
:1021B00080937E01089510927E010895CF93C82FD9
:1021C00080917C0190917D010E94A623EC2FF0E08C
:1021D000EC57FB4FE491F0E08E179F0708F442C0E4
:1021E0000E948E2390937D0180937C0160917B01FE
:1021F00070E080E090E00E94C02D20E030E04FE7EA
:1022000053E40E94F92C2BED3FE049E450E40E9496
:10221000E12E0E94442F0E94662D2BE43AE34EE209
:102220005FE30E94942C20EF3BEF48ED52E40E94C4
:10223000E12E0E94922D462F80914F02881F882701
:10224000881F90915002292F220F97FB992790F910
:1022500060915102822B0E94610E80917B018F5F01
:1022600080937B01CF910895CF93C82F80917901FE
:1022700090917A010E94A623EC2FF0E0EF57FB4FDC
:10228000E491F0E08E179F07E8F00E948E23909370
:102290007A018093790140915202609151028091BC
:1022A0007701909178010E94610E80917701909161
:1022B0007801019668E671E00E94C12F9093780141
:1022C00080937701CF910895DF92EF92FF920F9361
:1022D0001F93CF93DF93D82E809175019091760153
:1022E0000E94A623ED2DE695F0E0E258FB4FE49125
:1022F000F0E08E179F07E8F10E948E2390937601FD
:102300008093750104E512E0C0E0D0E028E6E22EFB
:10231000FF24F39480917301909174018C0F9D1FA1
:10232000B7010E94C12F9801409152026091510261
:102330000E94510DA8960C5F1F4FC83681E0D80748
:1023400049F70E94330E2091730130917401D0FE41
:102350000AC0C9010196BE010E94C12F9093740169
:102360008093730106C0215031093093740120938A
:102370007301DF91CF911F910F91FF90EF90DF904C
:102380000895AF92BF92CF92DF92EF92FF920F9398
:102390001F93CF93DF93C82F80FD03C0BB24B3945A
:1023A00002C0BB24BA9480917101909172010E9485
:1023B000A623C695EC2FF0E0E558FB4FE491F0E042
:1023C0008E179F0708F466C00E948E2390937201B7
:1023D0008093710154E5E52E52E0F52E06E512E0FA
:1023E000C0E0D0E0F80131971082F7011082F801C7
:1023F000108244E0C42ED12CA12C809170018A0D52
:1024000087FD875F992787FD9095C817D907E9F45D
:10241000809152028C9DA0018D9D500D11245595E7
:1024200047955595479580914F02881F8827881FAB
:1024300090915002592F550F97FB992790F99701CA
:1024400060915102852B0E94510DAB0CF1E0CF1A27
:10245000D108C114D10489F6219684E0E80EF11C5C
:102460000C5F1F4FC930D10509F0BCCF0E94330E5D
:102470008091700191E0B91206C0811102C088E01C
:1024800007C0815005C090E00196BE010E94D52F83
:1024900080937001DF91CF911F910F91FF90EF908A
:1024A000DF90CF90BF90AF9008950F931F93CF937D
:1024B000DF93C82F80916E0190916F010E94A62337
:1024C000EC2FF0E0E858FB4FE491F0E08E179F0707
:1024D00008F466C00E948E2390936F0180936E0172
:1024E000E6E5F2E0DF0111971C92DF0112971C92E2
:1024F0001082349682E0EA37F807A1F7C0E0D0E016
:1025000009E010E0CE01B8010E94D52F20916D01A5
:10251000332727FD3095880F991F880F991FC21701
:10252000D307FCF020910201332727FD30952C17AB
:102530003D07BCF09C012C5A3D4F80914F02881FF3
:102540008827881F90915002592F550F97FB992784
:1025500090F94091520260915102852B0E94510DD9
:1025600006C0FC01EC5AFD4F1182108212822196A6
:10257000C930D10539F60E94330E209101018091B6
:102580006D01820F80936D0190910201920F9093E3
:102590000201191614F488301CF0219520930101D2
:1025A000DF91CF911F910F910895EF92FF920F93BA
:1025B0001F93CF93DF9380916B0190916C010E94E8
:1025C000A623883E9340C8F10E948E2390936C010D
:1025D00080936B01C0916901D0916A012196C1700D
:1025E000DD27D0936A01C093690104E512E0F12C64
:1025F00078E7E72E8F2D8695FE01E80FF11DCF01BC
:102600008170992798014091520260915102FC011A
:10261000EE9EC001EF9E900D11240E94510DF39487
:102620000C5F1F4FF9E0FF12E5CFDF91CF911F91B3
:102630000F91FF90EF900C94330EDF91CF911F918B
:102640000F91FF90EF900895CF93DF9300D000D0CB
:10265000CDB7DEB780916701909168010E94A623F3
:10266000E6E7F4E02591349182179307C0F1809159
:10267000660181110CC09E012F5F3F4F4FEF6FEF3E
:1026800080E090E00E94510D8A81809366010E9453
:102690008E2390936801809367018091650181305A
:1026A00051F028F0823061F4409166010AC08091B7
:1026B000660140E007C06091660140E080E003C031
:1026C00040E080E060E00E944C0E8091650190E067
:1026D000019663E070E00E94D52F809365010F9012
:1026E0000F900F900F90DF91CF9108950F931F934C
:1026F000CF93DF9380916301909164010E94A623A0
:10270000843F914008F448C00E948E239093640156
:1027100080936301C4E5D2E000E010E02091610104
:102720003091620180914F02909150020430110566
:102730001CF4232B79F002C0232B61F4881F882717
:10274000881F592F550F97FB992790F99E014091AB
:1027500052020AC0881F8827881F592F550F97FBE0
:10276000992790F99E0140E060915102852B0E94CB
:10277000510D0F5F1F4F24960930110579F60E9405
:10278000330E8091610190916201019681709927C9
:102790009093620180936101DF91CF911F910F911E
:1027A000089580917E018823D9F120914F02822FD4
:1027B00086958F739EE3980F9F73943018F4825020
:1027C0000C94DE109AE3980F9F73933018F48650A0
:1027D0000C94341197E3980F9F73963018F4895036
:1027E0000C94641191E3980F9F73963018F48F50F6
:1027F0000C94C1119BE2980F9F73933018F485518C
:102800000C945512822F8E77803311F40C94D512CC
:10281000863411F40C942413883411F40C94761338
:1028200008953EB1242F209523233EB1342B4FB77A
:10283000F894FC01680F791FE617F70789F081917A
:1028400098E03EB9000000C087FF2EB9880F000055
:1028500000C000C000C02EB900C09A9591F7ECCF1F
:102860004FBF08956E9A660F771F660F771F40E47B
:102870000E9411148FE391E00197F1F700C000006E
:10288000089584E0089550E0440F551F90E2699F39
:10289000400D511D112490EA899F400D511D1124B6
:1028A000CA01839608950F931F93CF93DF930E94DD
:1028B0004314EC010E942930082F10E0102F00274C
:1028C000CE0101960E9429309801282BC901DF9181
:1028D000CF911F910F9108950F931F93CF93DF9383
:1028E00000D0CDB7DEB72A8339830E9443148C0110
:1028F0003981632F0E943D302A81622FC8010196E1
:102900000F900F90DF91CF911F910F910C943D305C
:10291000AF92BF92CF92DF92EF92FF920F931F93ED
:10292000CF93DF93A12CE12CF12CB12C00E010E02F
:10293000C0E0D0E06801CE0CDF1CFE01EC0DFD1DF7
:10294000EE0FFF1FEA54FE4F259134914C2F6B2D53
:102950008A2D0E946C142196C031D10571F7005F59
:102960001F4FB39485E0B812E3CF80E5E80EF11C69
:10297000A39484E0A812D9CFDF91CF911F910F913A
:10298000FF90EF90DF90CF90BF90AF900895EF92BF
:10299000FF920F931F93CF93DF937B01EA01E40E25
:1029A000F51E8C01C8018396CE15DF0569F000384D
:1029B00022E0120720F40E942930888301C0188287
:1029C00021960F5F1F4FEECFDF91CF911F910F9197
:1029D000FF90EF900895EF92FF920F931F93CF9384
:1029E000DF938B017A01080F191FEC01E81AF90A2D
:1029F000CE018396C017D10761F0C03822E0D2071C
:102A000030F4F701EC0FFD1F60810E943D302196EC
:102A1000EFCFDF91CF911F910F91FF90EF9008952D
:102A2000462F843038F4753028F4603118F4672F5D
:102A30000C94531480E090E0089580E108958DE5B2
:102A400091E00895EF92FF920F931F93CF93DF933E
:102A50007B01EA01E40EF51E8C01C8018D559D4FE6
:102A6000CE15DF0569F00D3521E0120720F40E9434
:102A70002930888301C0188221960F5F1F4FEDCF48
:102A8000DF91CF911F910F91FF90EF900895EF92FA
:102A9000FF920F931F93CF93DF938B017A01080F5F
:102AA000191FEC01E81AF90ACE018D559D4FC01788
:102AB000D10761F0CD3521E0D20730F4F701EC0FFA
:102AC000FD1F60810E943D302196EECFDF91CF91B6
:102AD0001F910F91FF90EF900895CF93DF93C3EA7A
:102AE000D2E060E0CE010E943D302196C11584E025
:102AF000D807B9F7DF91CF910895FF920F931F93F5
:102B0000CF93DF9300D0CDB7DEB7F82E8FE08F15CF
:102B100030F18FEF93E00E942930811120C003EA49
:102B200012E0FF2069F0011584E01807C1F0C80128
:102B30000E942930811101C0FA940F5F1F4FF1CF1D
:102B400019821A82C8010E9429308983882339F0AA
:102B5000CE0101960E9484050F5F1F4FF3CF0F90A7
:102B60000F90DF91CF911F910F91FF900895909357
:102B70008401809383010895E0918301F0918401A1
:102B8000309721F00190F081E02D099480E00895C4
:102B9000E0918301F0918401309799F020911A011E
:102BA000222359F020917C0227FF07C0DC012C91E1
:102BB00011962C93119725E02C930280F381E02D40
:102BC0000994089520918101309182018217930721
:102BD00071F09093820180938101E0918301F091E3
:102BE0008401309721F00680F781E02D0994089543
:102BF00020917F01309180018217930771F09093AB
:102C0000800180937F01E0918301F09184013097EE
:102C100021F00084F185E02D0994089585B780683E
:102C200085BF85B7806885BF089508950E940E16F8
:102C30000C94151681E008950E9485230E942D0CA6
:102C40000E941A240E9433240C946C105F926F929D
:102C50007F928F929F92AF92BF92CF92DF92EF922C
:102C6000FF920F931F93CF93DF93CDB7DEB72A97D1
:102C70000FB6F894DEBF0FBECDBF0E94770C0E9446
:102C80001A16811111C08FEF89838A831B820E94DB
:102C90008E238160782F9D838C8349815A816B813B
:102CA0008D810E94E21657C096E8C92E91E0D92E78
:102CB00000E010E0AA24A394B12C502E802F0E9493
:102CC000100D3C01F601E190F1906F01E826F92624
:102CD000E114F10431F40F5F1F4F0530110569F75E
:102CE000D2CF8091280281FD0E94190D20E030E0B2
:102CF0004501022E02C0880C991C0A94E2F7C40117
:102D00008E219F21892B09F12E835F8268207920F3
:102D100081E0672809F480E088870E948E23816023
:102D2000782F9A8789874E815F8168858A850E947E
:102D3000E216F801EE0FFF1FEA57FE4F80819181E6
:102D4000882599259183808306C02F5F3F4F2031CE
:102D5000310571F6C0CF109185010E94BC1518177E
:102D6000D9F00E94BC15809385012A960FB6F8947D
:102D7000DEBF0FBECDBFDF91CF911F910F91FF90AE
:102D8000EF90DF90CF90BF90AF909F908F907F900B
:102D90006F905F900C94C7062A960FB6F894DEBF2A
:102DA0000FBECDBFDF91CF911F910F91FF90EF909C
:102DB000DF90CF90BF90AF909F908F907F906F905B
:102DC0005F900895CF93DF93CDB7DEB72B970FB603
:102DD000F894DEBF0FBECDBF4F83588769877A87CF
:102DE0008B87DE01119686E0FD0111928A95E9F745
:102DF00085E0FE01379601900D928A95E1F74981B1
:102E00005A816B817C818D819E810E942A1E2B9626
:102E10000FB6F894DEBF0FBECDBFDF91CF910895FE
:102E2000FC01808191810E94E8200895882309F4A3
:102E300014C18238C1F40E94BC1581FD0EC169E342
:102E400080910E0190910F010E94C3220E94732174
:102E50002FEF81EE94E0215080409040E1F700C0D8
:102E6000000069E319C08338F9F40E94BC1580FDA5
:102E7000F4C063E580910E0190910F010E94C3227E
:102E80000E9473212FEF81EE94E02150804090400A
:102E9000E1F700C0000063E580910E0190910F0101
:102EA0000E94CE220C9473218438C1F40E94BC1578
:102EB00082FDD3C067E480910E0190910F010E94C2
:102EC000C3220E9473212FEF81EE94E021508040B5
:102ED0009040E1F700C0000067E4DECF9CEF980F60
:102EE000913A40F4682F80910E0190910F010E9459
:102EF000C322D8CF90E2980F983050F4877091E0B9
:102F000001C0990F8A95EAF7892F0E942A21CACF1A
:102F10009BE5980F933070F4853A29F0863A31F4A6
:102F200082E890E005C081E890E002C083E890E08C
:102F30000C94E21598E5980F973108F08EC0883A06
:102F400009F445C0893A09F445C08A3A09F445C0F4
:102F50008B3A09F445C08C3A09F445C08B3B09F41F
:102F600045C08C3B09F445C08D3A09F445C0803B0F
:102F700009F445C08E3A09F445C08F3A09F445C0BA
:102F8000813B09F445C0823B09F445C0833B09F409
:102F900045C0843B09F445C0853B09F445C0863BE8
:102FA00009F445C0873B09F445C0883B09F445C096
:102FB000893B09F445C08D3B09F445C08E3B09F4BB
:102FC00045C08A3B09F045C08AE292E044C082EEE7
:102FD00090E041C089EE90E03EC08AEE90E03BC0B8
:102FE00085EB90E038C086EB90E035C083EB90E055
:102FF00032C084EB90E02FC087EB90E02CC08CECCB
:1030000090E029C08DEC90E026C083E891E023C0D9
:103010008AE891E020C082E991E01DC084E991E056
:103020001AC081E292E017C083E292E014C084E209
:1030300092E011C085E292E00EC086E292E00BC001
:1030400087E292E008C08FE690E005C080E790E05C
:1030500002C080E090E00C94F8150895882309F4EC
:103060005DC0823879F40E94BC1581FF57C069E3C6
:1030700080910E0190910F010E94C3220E94732142
:1030800069E310C08338B1F40E94BC1580FF46C0CC
:1030900063E580910E0190910F010E94C3220E946E
:1030A000732163E580910E0190910F010E94CE2261
:1030B0000C947321843879F40E94BC1582FF2EC0D1
:1030C00067E480910E0190910F010E94C3220E943B
:1030D000732167E4E7CF9CEF980F913A10F4682FC3
:1030E000E1CF90E2980F983050F4877091E001C0E2
:1030F000990F8A95EAF7892F0E943021D9CF9BE555
:10310000980F933020F480E090E00C94E215885AF8
:10311000873120F480E090E00C94F815089588231E
:1031200021F00E942A210C9473210895882321F014
:103130000E9430210C94732108958F929F92BF9228
:10314000CF92DF92EF92FF920F931F93CF93DF9373
:1031500000D0CDB7DEB74C01472FFC01C580C2942B
:103160009FE0C922D280DD2031F079836A830E94FA
:1031700047216A81498149836A830E9420214981CC
:103180006A81882389F0DD2079F080E2860F88301B
:1031900058F082E00E94BE210E942021BB24B394FB
:1031A000B82649816A8101C0B12CE42EE2948FE0F7
:1031B000E822F12CF701E558FF4F0C940B30842FD7
:1031C000807F142F1F70882311F01295107FDD204F
:1031D000C1F0112309F49AC180E2860F883010F003
:1031E000611105C0812F6A830E942A2104C0812FAA
:1031F0006A830E943A216A816A830E9473216A81EC
:1032000085C1862F6A830E942E186A81112309F4D2
:10321000C4C180E2860F883010F0611104C0812F94
:103220000E94302103C0812F0E9440210E947321FF
:10323000B4C1842F807F142F1F70803211F012953B
:10324000107F662319F06130D9F026C0DD2079F0B7
:10325000CC2049F0F1E0CF1206C00E945A21812B08
:103260000E9460219AC10E945A21812B20C0CC204B
:1032700021F021E0C21609F490C10E946921FFC02B
:10328000DD2029F085E08C1508F487C10FC094E09B
:103290009C1508F482C1F3C0DD2061F0CC2031F030
:1032A000F401858180FF32C18F708583812F0E9458
:1032B0008F1873C1CC2009F4E2C039C1242F2695A0
:1032C0002695237030E02115310521F0213031059C
:1032D00061F063C1DD2021F0862F942F937002C02E
:1032E00080E090E00E94E21568C1DD2021F0862F89
:1032F000942F937002C080E090E00E94F8155DC1A9
:10330000842F837009F04EC0D11053C1262F22950F
:1033100026952770220F220F862F8F70C82ED12C52
:10332000E12CF12C022E04C0CC0CDD1CEE1CFF1C89
:103330000A94D2F764FF10C06FE070E080E090E084
:1033400004C0660F771F881F991F2A95D2F76095D2
:1033500070958095909503C060E070E0CB01242FBC
:1033600026952695237030E02230310569F0233010
:10337000310589F06C297D298E299F29213031055D
:1033800071F00E947B1F15C16C297D298E299F2910
:103390000E948D1F0EC10E947B1FC701B6010E94B3
:1033A000691F07C1DD2019F0842F817001C0869547
:1033B000882309F4FEC0262F229526952770220F18
:1033C000220F862F8F70C82ED12CE12CF12C022ECB
:1033D00004C0CC0CDD1CEE1CFF1C0A94D2F764FF69
:1033E00010C06FE070E080E090E004C0660F771FCF
:1033F000881F991F2A95D2F76095709580959095B2
:1034000003C060E070E0CB01242F26952695237041
:1034100030E02230310569F02330310589F06C2924
:103420007D298E299F292130310571F00E942920A4
:10343000C0C06C297D298E299F290E943B20B9C0DC
:103440000E942920C701B6010E941720B2C0062F92
:1034500010E0F801E05EF109E531F10508F052C035
:10346000E557FF4F0C940B30162F1F70842F8F7170
:10347000DD2019F00E94C21F19CF0E94DD1F812F8D
:103480000E9496188AC0DD2049F0F4E0FC1508F48B
:1034900084C0842F8F710E94FC1F7FC025E02C15F3
:1034A00008F47BC0F6CFDD2039F0842F8F710E94A5
:1034B000C21F73C0DD20C9F3842F8F710E94DD1FEE
:1034C0006CC0DD2029F0842F8F710E94B31F65C06E
:1034D0000E94AE1F62C0DD2051F0142F1F71812F9A
:1034E0000E94C21F63E0812F0E94A92156C081E083
:1034F0000E94BE2181E08C1508F04FC082E00E943E
:10350000BE214BC0DD2031F0CC2079F2862F0E9405
:10351000161743C0CC2081F2693349F49FEFE7EEE0
:10352000F3E09150E040F040E1F700C00000862F4A
:103530000E942E1832C04F70C4010E9490090E9450
:10354000D71E3BC0D11039C0942F9F70892F90E0B7
:103550008230910599F03CF4009769F00197E9F405
:103560000E946C242AC08430910571F054F00597B4
:10357000A1F480E00AC00E9450241FC00E94AB2426
:103580001CC00E94B22419C085E00E94D72415C037
:103590004F70C4010E94930910C028E0E216F104A4
:1035A00041F05CF09AE0E91AF108E2E0EE16F1046D
:1035B00020F40E94BC150E94C706BB20F1F00E94B7
:1035C0001C2180FD1AC0F40112820E9416210E9463
:1035D000C21FC4010E940B1B0E9416210F900F9066
:1035E000DF91CF911F910F91FF90EF90DF90CF90DF
:1035F000BF909F908F900C94DD1F0F900F90DF91E4
:10360000CF911F910F91FF90EF90DF90CF90BF90DF
:103610009F908F9008950F931F93CF93DF93EC01AA
:10362000288139818B819C81892B31F03F3F11F0BA
:1036300080E003C02F3FE1F781E0811113C0CE018C
:103640000E94D906882371F0688179818A810E945D
:10365000F3208C010E944D200E94661FB801CE010C
:103660000E949D18DF91CF911F910F9108950E94A4
:1036700047210E9457210E94732180E090E00E9420
:10368000E21580E090E00C94F81580910E01909185
:103690000F010E94D9220C94371B0E9437210C94F1
:1036A000451BE92FE295EF70F0E03297EE30F1051F
:1036B000B8F4E056FF4F0C940B30803F59F018F4EB
:1036C000803E70F407C0843F59F404C0803E10F07F
:1036D000813F31F481E0089593FB882780F90895B4
:1036E00080E008950E94E8200E94511B0895CF9326
:1036F000DF9300D000D01F92CDB7DEB70F900F90B0
:103700000F900F900F90DF91CF910895CF93DF939B
:1037100000D000D000D0CDB7DEB726960FB6F89413
:10372000DEBF0FBECDBFDF91CF9108951F93CF9322
:10373000DF93C091910116E080919201C81799F032
:10374000D0E01C9FF0011D9FF00D1124ED56FE4F9F
:103750004081518162817381848195810E94861BA1
:103760002196C770E9CFDF91CF911F9108954091C5
:10377000C3015091C4016091C5017091C60180914F
:10378000C7019091C8010C94861BCF938091C8010A
:1037900082958F7009F05FC08091C501882309F47C
:1037A0005AC020919101A09192016091C301709142
:1037B000C4018091C6019091C70131E06F3F09F0CB
:1037C00030E0B32FC6E02A1709F445C0009721F076
:1037D0007F3F21F44B2F03C041E001C040E030E0C7
:1037E00040FD35C0C29FF001C39FF00D1124ED567E
:1037F000FE4F418174132BC04081641328C0428165
:10380000411125C0438154814817590710F4415094
:103810005109481B590B483C5105C8F48091C80117
:103820008F7080618093C80186E0829FF001839F42
:10383000F00D1124E856FE4F80818F7080618083E7
:1038400083EC91E00E940B1BCF910C94961B2F5F91
:103850003F4F2770B8CFCF910895CF92DF92EF926C
:10386000FF920F931F93CF93DF93CDB7DEB762978D
:103870000FB6F894DEBF0FBECDBF8C0185E0F80116
:10388000DE011D9601900D928A95E1F7D8014C91C9
:1038900011965C91119712966C9112971396ED9078
:1038A000FC9014977091C301E091C4012091C6016E
:1038B0003091C7012115310531F0EF3F31F481E03E
:1038C0007F3F19F403C081E001C080E0B82FB170E0
:1038D000CB2E80FD6BC1D090C501DD2009F4F5C071
:1038E000F091C801E216F30638F0C701821B930B72
:1038F000883C910548F09DC0209530952E0D3F1DC8
:10390000283C310508F095C08F2F807F09F052C008
:10391000E51314C0741312C0D62E61110FC0FF70CE
:10392000F061F093C8010E94B71B83EC91E00E9404
:103930000B1B8091C801F80185837CC1EF2831F011
:103940005F3F31F481E04F3F19F403C081E001C0D3
:1039500080E080FD03C081E0862701C080E0F82F71
:10396000F170FF2E80FF1CC0809191012091920187
:1039700036E0821709F438C190E0389FF001399F92
:10398000F00D1124ED56FE4F7181571306C0708162
:10399000471303C07281671303C001968770E9CF94
:1039A000D62E662309F446C18091C80181608093B8
:1039B000C80155C0E51308C0741306C0611104C0E6
:1039C000D8011596FC93AEC04D875E878D859E8588
:1039D0006A8B0E94721B6A89882329F1D62E66237E
:1039E00011F12091C801822F82958F7090E002978B
:1039F0000CF462C08091C3019091C40198878F83B9
:103A00001986FB86EA862C87CE01079653C0E517F8
:103A100041F14D875E878D859E856A8B0E94721B62
:103A20006A89811130C0C8010E940B1BDD24D39428
:103A300001C18F2F807F59F77E2DF98AE88A898905
:103A40000E94771B83EC91E00E940B1BE3ECF1E0FA
:103A500086E0DF011D928A95E9F70E94B71BD12C01
:103A6000E9C07413D6CF6111D4CFD8011596FC9359
:103A7000C8010E940B1BE3ECF1E086E0DF011D9220
:103A80008A95E9F7D7C0D62E662369F22091C8013E
:103A9000822F82958F7090E0029774F08091C3011D
:103AA0009091C4019A8389831B82FD82EC822E83CC
:103AB000CE0101960E940B1B86E0F801A3ECB1E059
:103AC00001900D928A95E1F78AC0E216F30628F07C
:103AD000C701821B930B9C0104C0209530952E0DCD
:103AE0003F1D283C310508F053C0D62E662309F44B
:103AF0009ACFE5132CC074132AC08091C80180FDB1
:103B00001DC0982F92959F70C9F0D80115968C937F
:103B100015979F3039F09F5F9295907F8F70892B1A
:103B200015968C93C8010E940B1B86E0F801A3EC4C
:103B3000B1E001900D928A95E1F753C086E0F8015B
:103B4000A3ECB1E001900D928A95E1F773C04D8727
:103B50005E878D859E850E94721B882381F096E08A
:103B6000F801A3ECB1E001900D929A95E1F78A8BF0
:103B70000E94C51B0E94B71B8A89D82E5BC080910A
:103B8000C80181608093C801C8010E940B1B52C00C
:103B90007E2DF98AE88A89890E94771BE3ECF1E09F
:103BA00086E0DF011D928A95E9F71BC0662309F4C0
:103BB0003ACF4D875E878D859E850E94721BD82ED9
:103BC000882309F430CF86E0F801A3ECB1E001903E
:103BD0000D928A95E1F783EC91E00E9410170E9404
:103BE000C51B0E94B71B26C04D875E878D859E85AD
:103BF0000E94E820292F22952F7030E022303105D5
:103C00002CF49F7041F0811106C00CC024303105A6
:103C10002CF49F7049F4805E883020F0C8010E9427
:103C20000B1BCF2CDC2C06C0D80115969C91907FE5
:103C300091F7F8CF8D2D62960FB6F894DEBF0FBEC8
:103C4000CDBFDF91CF911F910F91FF90EF90DF904B
:103C5000CF9008951F93CF93DF93CDB7DEB72C9706
:103C60000FB6F894DEBF0FBECDBF4F83588769876C
:103C70007A878B879C87CE0107960E942D1C88230C
:103C8000C1F02F8138858A859B85892B31F03F3F94
:103C900011F080E003C02F3FE1F781E0811147C0C0
:103CA0004F81588569857A858B859C850E94861B06
:103CB0003EC086E0FE013796DE01119601900D921E
:103CC0008A95E1F7FF81E8854A855B8541155105B5
:103CD00031F0EF3F31F481E0FF3F19F403C081E0A0
:103CE00001C080E080FD23C02091920130E0C90135
:103CF0000196877099276091910170E08617970768
:103D0000F1F1F983EA835D834C8396E0929FD001C1
:103D1000939FB00D1124AD56BE4FFE013196019018
:103D20000D929A95E1F7809392010E94961B16E0FE
:103D30008091910190919201891779F1189FC001AA
:103D400011248D569E4F0E942D1C882331F1E09145
:103D500091011E9FF0011124ED56FE4F40815181CB
:103D600062817381848195810E94861B809191017B
:103D700090E001968770992780939101D9CF0E9496
:103D80004D1B1092920110929101E3ECF1E086E05C
:103D9000DF011D928A95E9F7CACF2C960FB6F894E9
:103DA000DEBF0FBECDBFDF91CF911F910895EF927F
:103DB000FF920F931F93CF93DF93FC01009709F4B9
:103DC0006FC0F12CEE24E394EF01219684918437A7
:103DD00040F4843008F055C0813081F0823021F108
:103DE0005FC0853709F447C0C0F19CE7980F903752
:103DF00008F056C08F770E942E1845C08F010E5FC5
:103E00001F4FFE01849190E2980F983050F4877014
:103E1000FE2D01C0FF0F8A95EAF78F2F0E944A21DD
:103E200015C00E94161714C08F010E5F1F4FFE01B0
:103E3000849190E2980F983068F48770FE2D01C04D
:103E4000FF0F8A95EAF78F2F0E9450210E9473215D
:103E5000E80119C00E942E18FBCFCF010296FE0187
:103E6000C491CC2361F0EFE9FFE03197F1F700C096
:103E70000000C150F6CFCF010296FE01F490EC0194
:103E800002C00E9416178F2D882341F0EFE9FFE052
:103E90003197F1F700C000008150F6CFFE0194CFBA
:103EA000DF91CF911F910F91FF90EF9008950895AA
:103EB0000C94571F0E94581F6093FF0170930002DB
:103EC00080930102909302020C94371B08950C9486
:103ED0005A1F0F931F930091FF0110910002209130
:103EE000010230910202602B712B822B932B1F91C8
:103EF0000F910C945A1F0F931F930091FF01109183
:103F0000000220910102309102026023712382237A
:103F100093231F910F910C945A1F0F931F9300919D
:103F2000FF011091000220910102309102026027EE
:103F30007127822793271F910F910C945A1F089580
:103F40000C949F1F0E94A01F6093FB017093FC01C3
:103F50008093FD019093FE010C94371B60E070E0AC
:103F6000CB010C94A21F41E050E060E070E004C07F
:103F7000440F551F661F771F8A95D2F7CB01BA01F0
:103F80000C94A21F41E050E060E070E004C0440FD8
:103F9000551F661F771F8A95D2F78091FB0190917C
:103FA000FC01A091FD01B091FE01482B592B6A2B19
:103FB0007B2BCB01BA010C94A21F41E050E060E0E2
:103FC00070E004C0440F551F661F771F8A95D2F713
:103FD00040955095609570958091FB019091FC0102
:103FE000A091FD01B091FE01482359236A237B2350
:103FF000CB01BA010C94A21F41E050E060E070E0F8
:1040000004C0440F551F661F771F8A95D2F7809111
:10401000FB019091FC01A091FD01B091FE014827A8
:1040200059276A277B27CB01BA010C94A21F0F9353
:104030001F930091FB011091FC012091FD01309133
:10404000FE01602B712B822B932B1F910F910C94EF
:10405000A21F0F931F930091FB011091FC0120916F
:10406000FD013091FE0160237123822393231F9170
:104070000F910C94A21F0F931F930091FB011091BD
:10408000FC012091FD013091FE01602771278227FC
:1040900093271F910F910C94A21F089520E1929FE6
:1040A000800D1124482F4695469546958770B1E0BE
:1040B00001C0BB0F8A95EAF785E0489FA001112453
:1040C00047535E4F80E090E070E0FA01E80FF91F7F
:1040D000A0819B01082E02C0369527950A94E2F72D
:1040E0002170332721952A272B232A272083019605
:1040F0008530910551F7089520E1929F800D11249C
:10410000682F669566956695982F977085E0689FED
:10411000B001112467537E4F40E050E080E0FB0186
:10412000E40FF51F208130E0092E02C03695279557
:104130000A94E2F721703327042E01C0220F0A945B
:10414000EAF7822B4F5F5F4F4530510541F70895E5
:10415000CF92DF92EF92FF920F931F93CF93DF9353
:10416000EC01C090FF01D0900002E0900102F090BD
:1041700002028091FB019091FC01A091FD01B091A0
:10418000FE01C82AD92AEA2AFB2A0FE110E0B7016A
:10419000A601002E04C076956795579547950A9419
:1041A000D2F740FD05C00150110988F780E007C033
:1041B000BE01802F0E949C090197A9F3802FDF91F7
:1041C000CF911F910F91FF90EF90DF90CF900895C6
:1041D000CF93DF93EC010E94A820BE010E949C09AE
:1041E000DF91CF9108951F93CF93DF93EB019091CF
:1041F0009001992321F0CB010E94E82013C088236D
:1042000049F0CB010E94A820182F682FCE010E94F0
:104210004E2004C0CB010E947C20182FBE01812FAC
:104220000E949C09DF91CF911F9108958091030214
:1042300085958595859508958091030287700895E9
:1042400090910302977081E009F480E008958091D5
:104250002702089590912702982B909327020895A2
:1042600080959091270298239093270208951092A9
:104270002702089590912602982B90932602089584
:10428000809590912602982390932602089510928B
:104290002602089590912502982B90932502089567
:1042A000809590912502982390932502089510926D
:1042B0002502089580910402089508950C945D21CB
:1042C00090910402981721F0809304020C945E21CF
:1042D000089580910402882329F01092040280E05E
:1042E0000C945E210895E0910E01F0910F018091F0
:1042F00027028083E0910E01F0910F01808190915F
:104300002602892B8083E0910E01F0910F018081BC
:1043100090912502892B808390910402992381F04A
:10432000E0910E01F0910F018081892B80838091B3
:104330000E0190910F010E94562281110E94692165
:1043400080910E0190910F010C94C81508950C9462
:10435000A62198E0899F90011124622B60930302AB
:104360000E94C21F809103028595859585950C94C6
:10437000A7211092030280E00C94A7214091030230
:104380008095842380930302982F977079F450E0EE
:10439000282F332727FD30954217530739F085958D
:1043A000859585950E94DD1F0C94B92108956FEFC6
:1043B0007FEF80E090E00C945B3080E090E00E9422
:1043C000373021E08D3E9E4F09F020E0822F089586
:1043D00082E090E00C94293083E090E00C94293046
:1043E00084E090E00C942930682F84E090E00C94F5
:1043F0003D3086E090E00C942930682F86E090E014
:104400000C943D30AB01BC018FE090E00C944F3038
:10441000AB01BC0183E190E00C944F3060E070E0B0
:10442000CB010C94082260E070E0CB010E940222D4
:104430000C940E226DEE7EEF80E090E00E945B30E7
:1044400060E082E090E00E943D3060E083E090E038
:104450000E943D301092FF01109200021092010262
:104460001092020260E084E090E00E943D3060E043
:1044700085E090E00E943D3060E086E090E00E94A0
:104480003D306FEF87E090E00E943D3040E050E02B
:10449000BA0188E090E00E944F3060E08DE090E04B
:1044A0000E943D300C9413220C941A220296209103
:1044B0001A01211102C026E005C020917C0227FFCD
:1044C000FACF2EE1FC0180E0215028F09191992350
:1044D000D9F38F5FF9CF089520E030E04FEFFC0172
:1044E000E20FF31F5281561799F04F3F19F4511103
:1044F00001C0422F2F5F3F4F2630310581F74F3FDC
:1045000039F0FC01E40FF11D47FDFA95628308952F
:10451000089520E030E0FC01E20FF31F42814613D2
:1045200001C012822F5F3F4F26303105A1F7089559
:10453000262F2695269526952E3170F4FC01E20F44
:10454000F11D677021E030E0062E01C0220F0A94B1
:10455000EAF78281822B82830895262F269526955D
:1045600026952E3178F4FC01E20FF11D677021E0F1
:1045700030E0062E01C0220F0A94EAF720958281CE
:1045800028232283089520911A01222329F02091C3
:104590007C0227FD0C9498220C946C2220911A0125
:1045A000222329F020917C0227FD0C94AD220C944B
:1045B000892220911A01FC013296222331F0809148
:1045C0007C0287FF02C08EE101C086E0DF011D9200
:1045D0008A95E9F7089508950C94EB220E94EC2245
:1045E00080918302843009F439C01092290220E4BA
:1045F00088E190E00FB6F894A895809360000FBE14
:104600002093600080E00E94FB0580E00E94C706C6
:104610000E94DB1080912A0281110AC081E0809300
:104620002A0280914F02817080932B020E94C51054
:104630000E94EC2283B7817F846083BF83B781604F
:1046400083BF7894889583B78E7F83BF88E10FB648
:10465000F89480936000109260000FBE0895089552
:104660000895CF930E942F230E94770C0E9430233D
:10467000C0E08C2F0E94100D892B29F4CF5FC5302C
:10468000C1F780E001C081E0CF91089508950C94B6
:1046900046230E944D1B0E9433240E94BC150E9499
:1046A000C70610922A0280912B0281110E949D1050
:1046B0000E94D7100C9447231F920F920FB60F92AF
:1046C00011248F939F93AF93BF93809129028111FF
:1046D00013C08091780290917902A0917A02B091F2
:1046E0007B024196A11DB11D8093780290937902BF
:1046F000A0937A02B0937B02BF91AF919F918F916B
:104700000F900FBE0F901F90189582E084BD93E02C
:1047100095BD9AEF97BD80936E0008952FB7F894DA
:104720008091780290917902A0917A02B0917B02F7
:104730002FBF08952FB7F894609178027091790295
:1047400080917A0290917B022FBF0895CF92DF92E1
:10475000EF92FF920F931F932FB7F8944091780236
:104760005091790260917A0270917B022FBF6A01A9
:104770007B01EE24FF248C0120E030E0C016D1063E
:10478000E206F30610F441505109481B590BCA01C7
:104790001F910F91FF90EF90DF90CF900895789444
:1047A0001F920F920FB60F9211248F939F93AF9386
:1047B000BF938091780290917902A0917A02B09192
:1047C0007B020196A11DB11D80937802909379021E
:1047D000A0937A02B0937B02BF91AF919F918F918A
:1047E0000F900FBE0F901F90189581E08093E0000E
:1047F00080E28093D8001092C9008FE19EE4019777
:10480000F1F700C0000087E090EBDC0180938C02A0
:1048100090938D02A0938E02B0938F022CE088E1DA
:1048200090E00FB6F894A895809360000FBE209397
:104830006000FFCF0E94DD21811102C00E9454223E
:104840000E94E821809328020E94F02190E090933A
:104850007D0280937C020E94EC21682F70E080E052
:1048600090E00C94671F0E94DD21811102C00E941C
:1048700054220E94F92180937E02282F269530E051
:104880002630310524F081708A6080937E02809109
:104890007E0280FF02C0869501C080E00C94FB057B
:1048A00020917E02322F3695832F90E0059744F4B5
:1048B00091E0930F990F822F8170892B80937E0254
:1048C00080917E02816080937E020E94FD21809112
:1048D0007E0286950C94FB0580917E02982F96951A
:1048E00091F09158990F8170892B80937E028E7F71
:1048F00091E009F490E080917E0290FB80F9809332
:104900007E020E94FD2180917E0286950C94FB051B
:1049100080917E0280FD11C0816080937E02813093
:1049200019F483E080937E0280917E020E94FD2133
:1049300080917E0286950C94FB05089580917E02FD
:1049400080FF08C08E7F80937E020E94FD2180E060
:104950000C94FB05089580917E0280FD0C949E24AA
:104960000C94882430917E02232F26952F5F2F7779
:10497000822F90E0317006972CF4220F232B209386
:104980007E0202C030937E0280917E028E7F91E093
:1049900009F490E080917E0290FB80F980937E0282
:1049A0000E94FD2180917E0286950C94FB05863045
:1049B00008F085E0880F90917E029170982B90937B
:1049C0007E029E7F21E009F420E080917E0220FBA0
:1049D00080F980937E020E94FD2180917E0286955F
:1049E0000C94FB0580917E028695089580914C027F
:1049F000089508950F931F93CF93DF9300D01F92D4
:104A0000CDB7DEB78C010E949F27823011F0843031
:104A100019F584E089831B830A838093E9008FEF73
:104A20009091E800815095FD06C095ED9A95F1F7BB
:104A300000008111F5CF8091E80085FF0DC040E0B6
:104A400050E063E070E0CE0101960E94BC278091A7
:104A5000E8008E778093E8000F900F900F90DF9121
:104A6000CF911F910F910895CF93DF9300D01F92A4
:104A7000CDB7DEB720918302243029F533E03983A6
:104A8000805891099B838A832093E9008FEF90914E
:104A9000E800815095FD06C095ED9A95F1F700006C
:104AA0008111F5CF8091E80085FF0DC040E050E016
:104AB00063E070E0CE0101960E94BC278091E8007F
:104AC0008E778093E8000F900F900F90DF91CF9139
:104AD0000895CF93DF93EC010E949F27823011F05D
:104AE0008430D9F580911A01811103C068E081E01A
:104AF00006C080917C0287FFF9CF60E284E080935A
:104B0000E9008FEF9091E800815095FD06C095ED8A
:104B10009A95F1F700008111F5CF8091E80085FFAB
:104B20001CC080911A01811105C040E050E068E08E
:104B300070E003C070E040E050E0CE010E94BC276E
:104B40008091E8008E778093E80080E2FE01ACE27D
:104B5000B2E001900D928A95E1F7DF91CF9108952F
:104B6000CF93603229F520918302243009F52091FA
:104B7000E9002F703091EC0030FF02C030E801C036
:104B800030E0C32FC22B22E02093E9002091E800FF
:104B900020FF0BC040E050E060E270E00E94BC27C4
:104BA0008091E8008E778093E800CF70C093E90091
:104BB000CF91089580918202811109C00E949729A6
:104BC0000E94F4298091E20084608093E2000895BD
:104BD000109282020895089508950C94492342E0AA
:104BE00061EC81E00E94112942E261EC84E00E94C4
:104BF000112942E261EC82E00E94112942E260EC5C
:104C000083E00C94112980918502833009F462C0FD
:104C100030F4813071F0823009F49BC008958A30FD
:104C200009F487C08B3009F46DC0893009F0A9C040
:104C300020C080918402813A09F0A3C08091E800ED
:104C4000877F8093E8008091880290918902892B68
:104C500021F060E080E090E003C060E28CE292E04E
:104C600070E00E944E288091E8008B778093E800E6
:104C7000089580918402813209F083C08091880276
:104C800090918902009719F0029709F07AC08091FB
:104C9000E800877F8093E8008091E80082FD05C0EE
:104CA000809183028111F8CF6CC02091F300809134
:104CB000F20090E0922B029729F48091F1008B7F13
:104CC000813021F48091F10080934C028091E800C2
:104CD0008B7753C080918402813A09F052C0809151
:104CE000880290918902892B09F04BC08091E800DD
:104CF000877F8093E8008091E80080FFFCCF80915F
:104D00001A0136C0809184028132D9F580918802DF
:104D100090918902892BA9F58091E800877F809383
:104D2000E8000E9446298091860280931A010C9423
:104D30004D1B80918402813221F58091E800877FAC
:104D40008093E8000E9446298091870280934D025B
:104D5000089580918402813AA1F48091E800877FD0
:104D60008093E8008091E80080FFFCCF80914D02A5
:104D70008093F1008091E8008E778093E8000C9496
:104D8000462908951F93CF93DF93CDB7DEB7A09741
:104D90000FB6F894DEBF0FBECDBF84B7877F84BF48
:104DA00088E10FB6F89480936000109260000FBE07
:104DB00080E880936100109261000E9416160E94A4
:104DC00097290E94F4298091E20084608093E20098
:104DD00078940E94772C0E941C1680E191E00E943A
:104DE000B71513E080918302853069F40E94EE22AA
:104DF000809181028823B1F30E943123882391F3AB
:104E00000E94A627EFCF0E9426160E94D113809100
:104E10008302843039F71093E9008091E80082FF23
:104E2000E1CF8091E80085FF0AC040E050E060E2F9
:104E300070E0CE0101960E94052891E001C090E04B
:104E40008091E8008B778093E800992359F260E223
:104E5000CE0101960E94F903C5CF0C942F27292F6C
:104E6000332723303105A9F06CF42130310509F4E2
:104E700048C02230310509F049C08BE590E026ECAE
:104E800035E048C021323105F9F02232310549F1CF
:104E90003DC099278130910571F02CF4892BB1F533
:104EA000E2ECF5E00DC08230910541F0039771F519
:104EB000E2E9F5E005C0E8EAF5E002C0E8E9F5E07E
:104EC000849190E09F0126C063307105F8F4FB01E6
:104ED000EE0FFF1FE75CFE4F2081318189E090E0FB
:104EE00019C06330710590F4FB01EE0FFF1FED5CFC
:104EF000FE4F20813181FB01E05DFE4F808190E01B
:104F000009C082E190E021E236E004C080E090E058
:104F100020E030E0FA013183208308950895CF9393
:104F2000C82F0E948E27C0934E02CF910895809182
:104F30008302843011F482E0089581E00895809125
:104F40004E02811102C00C949727089580E189BD1B
:104F500082E189BD09B400FEFDCF8091D8008F7D2C
:104F60008093D8008091E00082608093E00080917F
:104F7000E00081FDFCCF0895CF92DF92EF92FF9287
:104F80000F931F93CF93DF937C018B01EA010E9463
:104F90006729811131C0209731F088819981081BE0
:104FA000190BE80EF91EC12CD12C0115110519F1B0
:104FB0008091E80085FD14C08091E8008E77809391
:104FC000E800209741F0888199818C0D9D1D99837F
:104FD000888385E011C00E946729882331F30CC0C3
:104FE000F70181917F018093F10001501109FFEFDA
:104FF000CF1ADF0ADACF80E0DF91CF911F910F91B6
:10500000FF90EF90DF90CF900895CF92DF92EF92D4
:10501000FF920F931F93CF93DF937C018B01EA01E3
:105020000E946729811131C0209731F088819981D0
:10503000081B190BE80EF91EC12CD12C0115110506
:1050400019F18091E80085FD14C08091E8008B770C
:105050008093E800209741F0888199818C0D9D1DF7
:105060009983888385E011C00E946729882331F3E2
:105070000CC08091F100F70181937F01015011096B
:10508000FFEFCF1ADF0ADACF80E0DF91CF911F91D7
:105090000F91FF90EF90DF90CF90089520918A02BA
:1050A00030918B022617370748F06115710539F4E6
:1050B0002091E8002E772093E80001C0B901FC019F
:1050C00020E061157105B9F180918302882309F40C
:1050D00040C0853009F43FC08091E80083FD3DC0A9
:1050E0008091E80082FF06C08091E80082FF26C020
:1050F00080E008958091E80080FFE3CF2091F300E5
:105100008091F20090E0922B6115710551F088308A
:10511000910538F421912093F100615071090196B5
:10512000F3CF21E0089709F020E08091E8008E7726
:105130008093E800C6CF2111C7CFD6CF80918302DC
:10514000882339F0853039F08091E80083FFCCCF97
:1051500004C082E0089583E0089581E008952091DD
:105160008A0230918B022617370748F061157105C6
:1051700039F42091E8002E772093E80001C0B901AE
:10518000FC0120E061157105C1F180918302882343
:1051900009F441C0853009F440C08091E80083FDE6
:1051A0003EC08091E80082FF06C08091E80082FF47
:1051B00027C080E008958091E80080FFE3CF209130
:1051C000F3008091F20090E0922B6115710559F087
:1051D0008830910540F424912093F100319661507C
:1051E00071090196F2CF21E0089709F020E0809143
:1051F000E8008E778093E800C5CF2111C6CFD5CFC8
:1052000080918302882339F0853039F08091E8005D
:1052100083FFCBCF04C082E0089583E0089581E04E
:105220000895982F973058F59093E900981739F022
:105230007091EC002091ED005091F00003C0242FFC
:10524000762F50E021FF19C03091EB003E7F309364
:10525000EB003091ED003D7F3093ED003091EB009D
:1052600031603093EB007093EC002093ED0050938D
:10527000F0002091EE0027FF07C09F5FD3CF8F7013
:105280008093E90081E0089580E008958091840290
:1052900087FD05C08091E80080FF0EC012C080919C
:1052A000E80082FD05C0809183028111F8CF089546
:1052B0008091E8008B7708C0809183028111EACF4A
:1052C00008958091E8008E778093E800089580919A
:1052D000E4009091E50045E62091EC0020FF21C01C
:1052E0002091E80020FD21C020918302222389F033
:1052F000253089F02091EB0025FD0FC02091E400BE
:105300003091E5002817390739F3415041F0C901C0
:10531000E3CF82E0089583E0089581E0089584E07A
:1053200008952091E80022FFDFCF80E008950E94D9
:10533000052A0E940D2AE0EEF0E0808181608083E2
:10534000E8EDF0E080818F77808319BCA7EDB0E0B5
:105350008C918E7F8C9380818F7E808310928202CD
:1053600008950F931F93CF93DF930E94052A0E9405
:105370000D2AC8EDD0E088818F7788838881806886
:10538000888388818F7D888319BC10928302109254
:105390007F02109281021092800200EE10E0F8016C
:1053A00080818B7F808388818160888342E060E098
:1053B00080E00E941129E1EEF0E080818E7F808301
:1053C000E2EEF0E08081816080838081886080836C
:1053D000F80180818E7F8083888180618883DF915E
:1053E000CF911F910F910895E8EDF0E080818F7EBD
:1053F0008083E7EDF0E080818160808384E082BF7C
:1054000081E0809382020C94B129E8EDF0E0808184
:105410008E7F80831092E20008951092DA0010923D
:10542000E10008951F920F920FB60F9211242F934F
:105430003F934F935F936F937F938F939F93AF931C
:10544000BF93EF93FF938091E10082FF0BC08091A7
:10545000E20082FF07C08091E1008B7F8093E10032
:105460000E94762C8091DA0080FF1FC08091D800C6
:1054700080FF1BC08091DA008E7F8093DA008091DC
:10548000D90080FF0DC080E189BD82E189BD09B4EA
:1054900000FEFDCF81E0809383020E94DA2505C0E3
:1054A00019BC109283020E94E8258091E10080FFE0
:1054B00019C08091E20080FF15C08091E2008E7FCC
:1054C0008093E2008091E20080618093E20080910D
:1054D000D80080628093D80019BC85E08093830255
:1054E0000E94EC258091E10084FF30C08091E200B1
:1054F00084FF2CC080E189BD82E189BD09B400FE32
:10550000FDCF8091D8008F7D8093D8008091E100FD
:105510008F7E8093E1008091E2008F7E8093E20095
:105520008091E20081608093E20080917F02882375
:1055300011F084E007C08091E30087FF02C083E0A0
:1055400001C081E0809383020E94ED258091E100FB
:1055500083FF29C08091E20083FF25C08091E10094
:10556000877F8093E10082E08093830210927F0224
:105570008091E1008E7F8093E1008091E2008E7F38
:105580008093E2008091E20080618093E20042E03B
:1055900060E080E00E9411298091F0008860809393
:1055A000F0000E94EB25FF91EF91BF91AF919F9189
:1055B0008F917F916F915F914F913F912F910F90BC
:1055C0000FBE0F901F9018951F920F920FB60F925B
:1055D00011242F933F934F935F936F937F938F93F8
:1055E0009F93AF93BF93CF93EF93FF93C091E90045
:1055F000CF708091EC001092E9008091F000877FDD
:105600008093F00078940E94202B1092E900809102
:10561000F00088608093F000C093E900FF91EF9163
:10562000CF91BF91AF919F918F917F916F915F913A
:105630004F913F912F910F900FBE0F901F90189593
:105640001F93CF93DF93CDB7DEB7AA970FB6F89429
:10565000DEBF0FBECDBFE4E8F2E08091F1008193A0
:1056600022E0EC38F207C9F70E9403268091E80097
:1056700083FF24C12091840230918502832F90E022
:105680008A30910508F01AC1FC01E255FF4F0C94D5
:105690000B30203821F0223809F010C108C0809169
:1056A000800290918102992389F082600FC08091DD
:1056B00088028F70873008F001C18093E9008091E3
:1056C000EB0085FB882780F91092E9009091E800B3
:1056D000977F9093E8008093F1001092F100CCC086
:1056E000822F8D7F09F0EAC0222319F0223061F069
:1056F000E5C080918602813009F0E0C0333009F0C6
:1057000080E0809381022AC080918602811126C0A8
:10571000209188022F708FEF820F863008F0CEC064
:105720002093E9008091EB0080FF18C08091EB008E
:10573000333011F4806210C080618093EB0081E00F
:1057400090E001C0880F2A95EAF78093EA00109252
:10575000EA008091EB0088608093EB001092E900F2
:105760008091E800877F8093E8000E944629A6C0C8
:105770002111A4C0109186021F778091E3008078E8
:10578000812B8093E3008091E800877F8093E8007D
:105790000E9446298091E80080FFFCCF8091E300C1
:1057A00080688093E300112311F083E001C082E060
:1057B0008093830283C02058223008F07FC08091FC
:1057C0008602909187028C3D23E0920779F583E071
:1057D0008A838AE289834FB7F894DE01139620E02A
:1057E0003EE051E2E32FF0E050935700E49120FFB8
:1057F00003C0E295EF703F5FEF708E2F90E0EA30CC
:1058000010F0C79601C0C0968D939D932F5F2431F1
:1058100049F74FBF8091E800877F8093E8006AE2F4
:1058200070E0CE0101960E944E2815C0609188025A
:1058300070918902AE014F5F5F4F0E942D27009744
:10584000E9F12091E800277F2093E800BC018981DD
:105850009A810E94AF288091E8008B778093E800BE
:105860002DC0203859F58091E800877F8093E800AB
:1058700080917F028093F1008091E8008E7773CF52
:1058800021111CC0909186029230C0F48091E800F2
:10589000877F8093E80090937F020E944629809141
:1058A0007F02811104C08091E30087FF02C084E081
:1058B00001C081E0809383020E94EF258091E8007F
:1058C00083FF0AC08091E800877F8093E800809181
:1058D000EB0080628093EB00AA960FB6F894DEBFCF
:1058E0000FBECDBFDF91CF911F9108950895CF9343
:1058F000809183028823B1F08091E9008F709091AC
:10590000EC0090FF02C090E801C090E0C92FC82BC6
:105910001092E9008091E80083FD0E94202BCF7057
:10592000C093E900CF9108955058BB27AA270ED005
:105930009EC18FD130F094D120F031F49F3F11F40B
:105940001EF45FC10EF4E095E7FB55C1E92FA0D12D
:1059500080F3BA17620773078407950718F071F48C
:105960009EF5B8C10EF4E0950B2EBA2FA02D0B01B9
:10597000B90190010C01CA01A0011124FF27591B94
:1059800099F0593F50F4503E68F11A16F040A22F9A
:10599000232F342F4427585FF3CF4695379527950B
:1059A000A795F0405395C9F77EF41F16BA0B620B0A
:1059B000730B840BBAF09150A1F0FF0FBB1F661F51
:1059C000771F881FC2F70EC0BA0F621F731F841F94
:1059D00048F4879577956795B795F7959E3F08F0BA
:1059E000B3CF9395880F08F09927EE0F9795879579
:1059F00008950CD03CC134D140F02BD130F021F4CB
:105A00005F3F19F0F8C0511166C1FBC041D198F356
:105A10009923C9F35523B1F3951B550BBB27AA272F
:105A200062177307840738F09F5F5F4F220F331FA1
:105A3000441FAA1FA9F333D00E2E3AF0E0E830D06D
:105A400091505040E695001CCAF729D0FE2F27D070
:105A5000660F771F881FBB1F261737074807AB073E
:105A6000B0E809F0BB0B802DBF01FF2793585F4FB3
:105A70002AF09E3F510568F0BEC02DC15F3FECF398
:105A8000983EDCF3869577956795B795F7959F5F78
:105A9000C9F7880F911D9695879597F90895E1E0CC
:105AA000660F771F881FBB1F621773078407BA072B
:105AB00020F0621B730B840BBA0BEE1F88F7E09586
:105AC000089519F40EF097C005C19BC0E9D0C8F342
:105AD0009638C0F707F80F92E8942BE33AEA48EBC0
