:100000000C9464030C94A8030C94A8030C94A80308
:100010000C94A8030C94A8030C94A8030C94A803B4
:100020000C94A8030C94A8030C94F6210C94C822F9
:100030000C94051C0C94A8030C94A8030C94A8031E
:100040000C94A8030C94A8030C94A8030C94A80384
:100050000C94A8030C94781C0C94A8030C94A8038B
:100060000C94A8030C94A8030C94A8030C94A80364
:100070000C94A8030C94A8030C94A8030C94A80354
:100080000C94AC050C94A8030C94A8030C94A8033E
:100090000C94A8030C94A8030C94A8030C94A80334
:1000A0000C94A8030C94A8030C94A80331063406FE
:1000B000AE063F0647065306AE06AE06AE069D06E2
:1000C000A006560659065E066C067A067D0681066F
:1000D0008F06AE08B408B808BB08BF08C308C70835
:1000E000CB08D008D408D808DC08DF08E308E70804
:1000F000EB08EF08F408D611D611101210125312A3
:100100009E139E139E1375129E131C131C139213A1
:100110009E139E13991329132913291329132913A5
:1001200029132913291329132913291329132913EF
:100130002913291329133B134B1352135913631318
:100140002E142E1441144114371441144114411437
:100150002E142E143D14411441143D142D23542308
:100160004224542342249C23BF23422415242424C4
:1001700029003A003B003C003D003E003F004000AB
:100180004100420043004400450000004C0035009F
:100190001E001F0020002100220023002400250053
:1001A000260027002D002E002A004A002B001400F4
:1001B0001A000800150017001C0018000C0012009F
:1001C00013002F00300031004B00390004001600EE
:1001D000070009000A000B000D000E000F0033009D
:1001E000340028002A004E00E10000001D001B0022
:1001F0000600190005001100100036003700380015
:10020000E50052004D00E000E300E20000000000C5
:1002100000002C00000000000000E600015150002A
:1002200051004F0001000100010001000100010028
:1002300001000100010001000100010001000000B7
:1002400001000100010001000100010001000100A6
:100250000100010001000100010001000100010096
:100260000100010001000100010001000100010086
:100270000100010001000100010001000100010076
:100280000100010001000100010001000100010066
:100290000100010001000100010001000100000057
:1002A0000100010001000100010001000100010046
:1002B0000100010001000100010001000100010036
:1002C000000000000000010000000000000001002C
:1002D0000100010001000100010001000100010016
:1002E0000100010001000100010001000100010006
:1002F00001000000010001000100010001000100F7
:1003000001000100010001000100010001000100E5
:1003100001000100010001000100010001000100D5
:1003200001000100010001000100010001000100C5
:1003300001000100010001000100010001000100B5
:1003400001000100010001000100010001000100A5
:100350000100000001000100010001000100010096
:100360000100010001000100010001000100010085
:10037000010001000000000000000100000000007A
:100380000000010001000100010001000100010066
:100390000100010001000100010001000100010055
:1003A0000100010001000000010001000100010046
:1003B0000100010001000100010001000100010035
:1003C0000100010001000100010001000100010025
:1003D0000100010001000100010001000100010015
:1003E0000100010001000100010001000100010005
:1003F00001000100010001000100010001000100F5
:1004000001000100010000000100010001000100E5
:1004100001000100010001000100010001000100D4
:1004200001000100010001000000000000000100C7
:1004300000000000000001000100010001000100B7
:1004400000000000000000002A2B2800000000002F
:100450000000000000000000000000290000000073
:100460002C1E3420212224342627252E362D3738E1
:10047000271E1F202122232425263333362E3738EA
:100480001F0405060708090A0B0C0D0E0F101112A8
:10049000131415161718191A1B1C1D2F3130232D74
:1004A000350405060708090A0B0C0D0E0F10111272
:1004B000131415161718191A1B1C1D2F3130354C23
:1004C000000000000000000000000000000000002C
:1004D000000000000000000000000000000000001C
:1004E0000001010101010100010101010000000002
:1004F00000000000000000000000010001000101F8
:1005000001010101010101010101010101010101DB
:1005100001010101010101010101010000000101CE
:1005200000000000000000000000000000000000CB
:1005300000000000000000000000000101010100B7
:100540000403300000002403770069006C0062009F
:1005500061002E00740065006300680020005700F1
:100560005400370035002D004100000016037700CD
:1005700069006C00620061002E0074006500630079
:10058000680000000403090409025B00030100A0E5
:10059000FA09040000010301010009211101000111
:1005A0002240000705810308000A09040200010334
:1005B00000000009211101000122710007058403D8
:1005C00020000A09040100020300000009211101B2
:1005D0000001222200070582032000010705030312
:1005E000200001120110010000000882655A070175
:1005F00000010203010660FF0961A1010962150003
:1006000026FF009520750881020963150026FF006A
:10061000952075089102C005010980A10185031686
:1006200001002603001A81002A83007510950181BC
:1006300000C0050C0901A1018504160100269C02D9
:100640001A01002A9C02751095018100C00501095C
:1006500006A1018505050719E029E7150025019583
:100660000875018102050819012905950575019193
:10067000029501750391010507190029EF15002561
:100680000195F075018102C005010906A101050768
:1006900019E029E7150025019508750181029501EA
:1006A0007508810105081901290595057501910253
:1006B0009501750391010507190029FF150026FF13
:1006C00000950675088100C011241FBECFEFDAE047
:1006D000DEBFCDBF04B603FE24C080910D0490910F
:1006E0000E04A0910F04B09110048730904BA740E6
:1006F000B04BB9F410920D0410920E0410920F0436
:100700001092100414BE84B7877F84BF88E10FB6AF
:10071000F89480936000109260000FBEE0E0F8E370
:10072000099511E0A0E0B1E0E4E8F9E402C0059029
:100730000D92A233B107D9F714E0A2E3B1E001C0F2
:100740001D92AD30B107E1F70E94A81E0C94C024A1
:100750000C9400006093E6034093E70324E630E046
:1007600042E050E066EE73E0880F0C944E05FF9275
:100770000F931F93CF93DF938B01F82EFF0CC0E0F4
:10078000D0E0C093E603E7EEF3E0D801AC0FBD1F65
:100790008D91819383E0E73FF807D1F724E630E0BD
:1007A00041E150E066EE73E08F2D0E944E056096A9
:1007B000C03CD10531F7DF91CF911F910F91FF9090
:1007C0000895CF93DF93C82F45EC6EEF0E94AA03E4
:1007D00040E06DEF8C2F0E94AA03D0E040E06D2F27
:1007E0008C2F0E94AA03DF5FD831C1F745EC6EEF72
:1007F0008C2F0E94AA0341E06DEF8C2F0E94AA0368
:10080000D0E040E06D2F8C2F0E94AA03DF5FD03C28
:10081000C1F745EC6EEF8C2F0E94AA0343E06DEF09
:100820008C2F0E94AA034FEF61E08C2F0E94AA0335
:1008300041E060E08C2F0E94AA038FE39CE90197BE
:10084000F1F700C00000DF91CF9108958036910547
:1008500048F4880FE82FF0E0EA59FD4F608381E00B
:100860008093630108951F93CF93DF93182FC0E007
:10087000D0E0612FCE010E9426042196C036D1051A
:10088000C1F7DF91CF911F910895880FE82FE6956A
:10089000E695E6958770F0E0ED5CFE4F21E030E0F4
:1008A000082E01C0220F0A94EAF7662321F0808106
:1008B000822B808304C0209580812823208381E0BF
:1008C000809332010895CF93C82F809163018823CC
:1008D00079F045EC6EEF8C2F0E94AA0341E06DEF9A
:1008E0008C2F0E94AA0366E672E08C2F0E94B70349
:1008F00010926301CF9108950F931F93CF93DF93CD
:10090000082F809132018823A9F045EC6EEF802FEB
:100910000E94AA0340E06DEF802F0E94AA03C3E368
:10092000D1E010E04991612F802F0E94AA031F5F40
:100930001831C1F7DF91CF911F910F910895109257
:10094000B9008CE08093B8000895FF920F931F9335
:10095000CF93DF93F82EEB011092BC0084EA8093D2
:10096000BC000E94371C8C018091BC0087FD0EC02A
:10097000CF3F8FEFD807C1F30E94371C801B910B2C
:100980008C179D0788F38EEF9FEF2EC09091B900D2
:10099000987F983041F09091B900987F903119F08C
:1009A0008FEF9FEF21C0F092BB0084E88093BC00E2
:1009B0000E94371C8C018091BC0087FD0CC0CF3F8A
:1009C0008FEFD807C1F30E94371C801B910B8C1747
:1009D0009D0788F3D8CF8091B900887F883111F0C6
:1009E0008034F1F680E090E0DF91CF911F910F917C
:1009F000FF9008950F931F93CF93DF93EB018093A4
:100A0000BB0084E88093BC000E94371C8C0180915D
:100A1000BC0087FD0EC0CF3F8FEFD807C1F30E9407
:100A2000371C801B910B8C179D0788F38EEF9FEF6F
:100A30000CC02091B900287F81E090E0283211F4A9
:100A400080E090E0919581959109DF91CF911F9180
:100A50000F9108950F931F93CF93DF93EC0184E9D7
:100A60008093BC000E94371C8C018091BC0084FFE5
:100A70000EC0CF3F8FEFD807C1F30E94371C801BF9
:100A8000910B8C179D0788F38EEF9FEF02C080E0DB
:100A900090E0DF91CF911F910F910895CF92DF9257
:100AA000EF92FF920F931F93CF93DF936B017A0125
:100AB0008901B9010E94A5040097C1F4E601EC0C7C
:100AC000FD1CCE15DF0539F0B80189910E94FA04AA
:100AD0000097B9F30BC0C801DF91CF911F910F911F
:100AE000FF90EF90DF90CF900C942A05DF91CF918B
:100AF0001F910F91FF90EF90DF90CF900895CF93CB
:100B00000E949F0480E50E94E103C0E061E08C2F19
:100B10000E944504CF5FC036C9F760E080E5CF9101
:100B20000C947C048091650181110FC081E0809359
:100B300065018DE0809391008FB7F89493E09093D6
:100B400099009DE0909398008FBF0895E1E7F0E051
:100B500080818260808308951F920F920FB60F925A
:100B600011242F933F934F935F936F937F938F93B2
:100B70009F93AF93BF93EF93FF9380916401843170
:100B800020F48F5F8093640116C08091660190917C
:100B90006701A0916801B09169010196A11DB11D85
:100BA0008093660190936701A0936801B0936901F7
:100BB0008FEF0E943304FF91EF91BF91AF919F910E
:100BC0008F917F916F915F914F913F912F910F90F6
:100BD0000FBE0F901F90189560E080E50C946304A1
:100BE00080E290E00E9486248F31954451F482E2A5
:100BF00090E00E947E2491E0883009F090E0892FF7
:100C000001C080E081700895CF93C82F882319F028
:100C10006FE175E402C06FEF7FEF80E290E00E9429
:100C2000AA24CC2311F068E001C06FEF82E290E0CB
:100C3000CF910C948C2480E00E9404060C94A81A96
:100C40001F93CF93DF93EC01162F488150E0FA01F8
:100C50003197E331F10508F081C0EA5AFF4F0C9457
:100C60007824198288E028C08981813009F076C013
:100C70000E94431C9A838B837C836D8371C04B815C
:100C80006A8189810E944C0D9C838D8369C02C816F
:100C900030E0322F22278D81282B4B816A81898178
:100CA0000E94650D5DC00E94810D5AC00E94180E01
:100CB00026C00E941A0E99838A8352C06B8170E00D
:100CC000898190E0982F88272A81AE014C5F5F4F81
:100CD000822B0E941D0E44C06B8170E0898190E0E0
:100CE000982F88272A81AE014C5F5F4F822B0E948C
:100CF000420E36C00E94680E33C00E943A0D8983AE
:100D00002FC06B8170E0898190E0982F88272A811D
:100D1000AE014C5F5F4F822B0E94C20D21C06B81E0
:100D200070E0898190E0982F88272A81AE014C5F7E
:100D30005F4F822B0E94E60D13C00E941B0610C05D
:100D40000E94961D2FEF81EE94E02150804090404C
:100D5000E1F700C000000E949E1C02C08FEF888354
:100D6000612FCE01DF91CF911F910C94961D0E94AF
:100D7000F005811107C00E94810D0E94680E81E07C
:100D80000E9404060E947F050E9492050C94A6050D
:100D90000E94590C8FE19EE40197F1F700C000001A
:100DA0008FE19EE40197F1F700C000000E94590C0A
:100DB00080E00E94F90C80FF04C00E941B060C9486
:100DC0009E1C08950E94C8060E94B7060C940C0C45
:100DD0000E94EC050C940D0CFB0122818031FFE593
:100DE0009F0731F081313FE5930781F482E001C034
:100DF00081E0222319F00E94931802C00E94AE18CD
:100E000043E062E081E00E94D2070EC0222351F04D
:100E10009C0122513F452031310520F482510E942E
:100E2000780E02C00C94180780E0089581E00895C0
:100E300081E00895CF93282F30E0F901E05CFB4F6B
:100E4000C491F901E054FB4F2491222359F081EE23
:100E50000E940D108C2F0E940D108C2F0E942511C6
:100E600081EE04C08C2F0E940D108C2FCF910C941A
:100E70002511FF920F931F93CF93DF93EC01F62E72
:100E80008881882331F18E010F5F1F4F813031F44B
:100E9000C9818C2F0E940D108C2F0AC0823029F43A
:100EA00089810E940D10E80108C0833021F48981F6
:100EB0000E942511F8CF0E941A0721968F2D8823B2
:100EC000F9F2EFE9FFE03197F1F700C0000081503F
:100ED000F6CFDF91CF911F910F91FF90089560E0C1
:100EE0000C9439074F925F926F927F928F929F92EC
:100EF000AF92BF92CF92DF92EF92FF920F931F9328
:100F00002B013C01C12CD12C7601C394D701C60121
:100F100004C0880F991FAA1FBB1F4A95D2F7AC01C6
:100F2000BD014601570104C0880C991CAA1CBB1CBA
:100F30002A95D2F7482959296A297B29D701C60160
:100F400004C0880F991FAA1FBB1F0A95D2F76A0118
:100F50007B01C420D520E620F720C416D506E6067E
:100F6000F70639F4BC01CD01642975298629972932
:100F70000AC0BC01CD016095709580959095642163
:100F80007521862197211F910F91FF90EF90DF909F
:100F9000CF90BF90AF909F908F907F906F905F9019
:100FA0004F9008950F93382F262F6091140270915F
:100FB00015028091160290911702042F432F0E9470
:100FC00072070F910C9473180E94AE1A811102C01F
:100FD0000E941C1B0C94E2060C94E80608950C94E5
:100FE000EE070C94EF0708950E941E140E94F30769
:100FF0002FEF84E39CE0215080409040E1F700C057
:1010000000000C949E1CFF920F931F93CF93DF93CD
:101010008C01FC01C081D18180919F01811113C09D
:101020008281882349F0CE010E947919F82E682F19
:10103000CE010E941F1904C0CE010E944D19F82E46
:10104000BE018F2D04C0CE010E947919BE010E94FD
:101050000B0EEC01B8010E94EC06882309F46DC167
:10106000C63DFCE5DF0709F4D1C0B0F4C531ECE5BD
:10107000DE0768F4C230FCE5DF0708F04FC0C11599
:101080008CE5D80701F1C130DC4529F149C1C631F1
:10109000DC4509F420C144C1CB3D8CE5D80771F192
:1010A00050F4C73DFCE5DF0709F4D3C0C83DDC457B
:1010B00009F4F6C035C1CC3DECE5DE0731F1CD3D9C
:1010C000DC45A1F02DC1F8018281882309F435C1E6
:1010D0000E94F40732C1F8018281882309F42DC1EE
:1010E0008091410281608093410227C1F801828191
:1010F000882309F422C10E941C1B1FC1F8018281B0
:10110000882309F41AC180E006C0F801828188238F
:1011100009F413C182E00E94731F0FC1F80182819C
:10112000882309F402C10E94AE1A811102C00E94F4
:101130001C1B0E94C11A90E09093FF038093FE0352
:10114000FE01E350FC45E231F10520F4E759FF4F81
:101150000C9478248091FE03816003C08091FE038B
:1011600082608093FE034BC08091FE038460F9CFC0
:101170008091FE0313C08091FE038061F2CF8091C5
:10118000FE038062EECF8091FE038064EACF8091FF
:10119000FE038068E6CF8091FE0384608860E1CF23
:1011A0008091FE038E7FDDCF8091FE038D7FD9CFAE
:1011B0008091FE038B7FD5CF8091FE0313C0809179
:1011C000FE038F7ECECF8091FE038F7DCACF8091AC
:1011D000FE038F7BC6CF8091FE038F77C2CF8091B5
:1011E000FE038B7F877FBDCF9091FE0397FB8827FF
:1011F00080F921E0822780FB97F99093FE0380918C
:10120000FE030E94C51A0E941E1497C0F801828135
:10121000882351F010926F010E94371C90936C014B
:1012200080936B0182E022C080916F0181110FC019
:1012300080916B0190916C010E944F1C883C91053C
:1012400030F486E20E940D1086E20E94251182E0B1
:1012500024C0F8018281882361F0109270010E94FD
:10126000371C90936E0180936D0180E20E9486117D
:1012700064C08091700181110FC080916D019091C7
:101280006E010E944F1C883C910530F487E20E9459
:101290000D1087E20E94251180E20E948D114DC041
:1012A000F80182818111D9CF809170018111F4CF31
:1012B00080916D0190916E010E944F1C883C9105B8
:1012C00058F780E20E948D1188E20E940D1088E29A
:1012D0000E94251132C00E94F819382FF80122818E
:1012E0008091000190910101222371F03A7A21E06E
:1012F00009F420E020936A01222311F065E301C084
:1013000069E20E948B1B09C020916A01222311F01F
:1013100065E301C069E20E94961B0E94441A0DC059
:1013200081E080936F0180937001C801DF91CF91BC
:101330001F910F91FF900C94160780E0DF91CF91E1
:101340001F910F91FF90089580E090E00895089517
:10135000880F991F805C9A4FFC01859194910895A4
:10136000CF93DF930E940B0E0E946D0BEC01811551
:1013700020E5920708F041C0C11580E4D80708F0C5
:1013800028C1C83ED10510F5C03ED10508F0A1C165
:10139000C83AD10578F4C53AD10508F0A2C0C130E9
:1013A000D10509F496C108F447C1C430D10508F04D
:1013B00090C142C1CF3BD10508F49EC0C03CD105CD
:1013C00008F43AC1CE01805C9109F5C0C11590E2E4
:1013D000D90758F4C11521E0D20708F07AC1C03FFF
:1013E000D10508F429C1D06574C1C11580E3D807BF
:1013F00008F0E5C0CE019F70DEC0C11595E5D907A4
:1014000008F043C0C11524E5D20708F0F9C0C115A2
:1014100082E5D80708F5C11591E5D90708F0DCC0C9
:101420002C2F237081E090E002C0880F991F2A952D
:10143000E2F79C689E01F4E036952795FA95E1F76E
:101440002370922BCF70C695C69520E2C29FE00113
:101450001124C82BD92B3DC18C2F869586959E01D2
:1014600023703327C115D34508F0BBC090E2899F94
:10147000E001112481E090E002C0880F991F2A95B5
:10148000E2F7C82BD92BDC6824C1C11529E5D207A6
:10149000A0F4C11588E5D80708F0B7C0C11596E5D6
:1014A000D90708F0C9C08C2F0E94E90B8F71C82F93
:1014B000D0E0DC2FCC27D0620CC1C1152AE5D207C1
:1014C00008F4A8C0CE0190568115904208F0B4C02F
:1014D0008D2F8F710E94E90BDD27D0628F71D82B81
:1014E000F8C0C53AD10509F4AAC0C63AD10509F435
:1014F000A9C0C3E8D0E4EDC0C83AD10509F4A5C03D
:10150000C93AD10509F4A4C0CA3AD10509F4A3C067
:10151000CB3AD10509F4A2C0CC3AD10509F4A1C057
:10152000CB3BD10509F4A0C0CC3BD10509F49FC049
:10153000CD3AD10509F49EC0C03BD10509F49DC048
:10154000CE3AD10509F49CC0CF3AD10509F49BC02D
:10155000C13BD10509F49AC0C23BD10509F499C039
:10156000C33BD10509F498C0C43BD10509F497C029
:10157000C53BD10509F496C0C63BD10509F495C019
:10158000C73BD10509F494C0C83BD10509F493C009
:10159000C93BD10509F492C0CD3BD10509F491C0F6
:1015A000CE3BD10509F490C0CA3BD10509F08FC0EC
:1015B000CAE2D6E48EC00E94A809EC018AC0CE011E
:1015C0009927D3FF03C0EC01D86C83C0EC01D06C29
:1015D00080C0DF70D06A7DC0DC2FCC27C16FD06A9D
:1015E00078C090E2899FE001112481E090E002C080
:1015F000880F991F2A95E2F7C82BD92BDA6869C0A2
:10160000DC2FCC27C46FD06A64C0DC2FCC27C06F1E
:10161000D06A5FC08C2F8F700E94E90B34E0D695A2
:10162000C7953A95E1F7CF70D0E0DC2FCC27D06A90
:101630008F70806EC82B4DC0C0E0D0E04AC0C1E8BA
:10164000D0E447C0C2E8D0E444C0C2EED4E441C014
:10165000C9EED4E43EC0CAEED4E43BC0C5EBD4E44A
:1016600038C0C6EBD4E435C0C3EBD4E432C0C4EB1D
:10167000D4E42FC0C7EBD4E42CC0CCECD4E429C014
:10168000CDECD4E426C0C3E8D5E423C0CAE8D5E451
:1016900020C0C2E9D5E41DC0C4E9D5E41AC0C1E246
:1016A000D6E417C0C3E2D6E414C0C4E2D6E411C045
:1016B000C5E2D6E40EC0C6E2D6E40BC0C7E2D6E46B
:1016C00008C0CFE6D4E405C0C0E7D4E402C0C0E05F
:1016D000D4E4CE01DF91CF9108958238910549F18C
:1016E000B0F48133910509F459C048F48932910569
:1016F00009F44FC08A32910509F455C00895853325
:10170000910509F441C08933910599F00895833E0C
:10171000910531F138F4803E910591F0823E9105BA
:10172000A9F00895863E910501F1873E910539F1B2
:1017300008952091FE0320FD3BC021FD39C008958E
:101740008091FE0380FF34C089E341C08091FE0395
:1017500082FF32C08091FE0384FF2CC080E037C03E
:101760008091FE0382FD28C0F5CF8091FE0383FFA8
:1017700025C08091FE0384FDF1CF87EE28C08091C3
:10178000FE0383FD1BC0F5CF8091FE0385FF18C0CB
:1017900019C08091FE0385FF15C012C08091FE0321
:1017A00086FF12C013C08091FE0386FF0FC00CC0DD
:1017B00080EE0DC083EE0BC082EE09C086EE07C03E
:1017C00085E305C089E203C081E301C08AE290E0BD
:1017D00008959091FE0392FF0DC0282F28712830A4
:1017E00019F4877F846006C0282F2471243011F4F7
:1017F0008B7F886093FF0DC0282F2871283119F442
:10180000877E846106C0282F2471243111F48B7ED9
:10181000886194FD877E089508950895ADE0B1E054
:1018200021E030E08D91E82FE295EF70F0E041A1EA
:101830008F70B90102C0660F771F8A95E2F7CB015E
:10184000962F9095492341A392A1982B92A371E0E2
:10185000AC31B70739F7ACE1B1E021E030E08D9170
:10186000E82FE295EF70F0E041A18F70B90102C05E
:10187000660F771F8A95E2F7CB01962F9095492343
:1018800041A392A1982B92A371E0A232B70739F736
:10189000EDE7F1E0A1E7B1E0119211921D921D92E6
:1018A00081E0E938F807C1F786E00E94030D0C9447
:1018B000E4072F923F924F925F926F927F928F92A6
:1018C0009F92AF92BF92CF92DF92EF92FF920F93CF
:1018D0001F93CF93DF936DE0E62E61E0F62E80E05C
:1018E00090E020E0CC24C394D12CE70149917E0103
:1018F000E42FE295EF70F0E031A14F70B60102C025
:10190000660F771F4A95E2F7AB01362B31A362A130
:10191000342F3095632362A370EA7A95F1F756016C
:10192000082E02C0AA0CBB1C0A94E2F73501609491
:1019300070945CE1252E51E0352EADE7B1E0512CDD
:101940004D016D917C911197E10149901E01042D8B
:1019500002950F7010E0E80108A110E0D42DDF70AF
:101960000D2E02C0159507950A94E2F700FD04C0FC
:101970008B010A291B2903C08B010621172111960F
:101980001C930E931296E401088119816017710768
:1019900011F055245394D2E22D16D1E03D0681F684
:1019A00051A1532351A332A1342B32A325290196EF
:1019B0008F30910509F099CF46E061E771E08DE73E
:1019C00091E00E94040D0E94EC0781E0DF91CF912D
:1019D0001F910F91FF90EF90DF90CF90BF90AF904D
:1019E0009F908F907F906F905F904F903F902F903F
:1019F0000895E82FF0E0EE0FFF1FEF58FE4F8081B3
:101A00009181089508950895FF920F931F93CF93A6
:101A1000DF93D82FC92FF62E072F142F222349F03A
:101A200081E080938B010E94371C90938A01809300
:101A3000890180918B018823B9F08091890190916F
:101A40008A010E944F1C069778F0ED2FFC2FAF2DD6
:101A5000B02F20E0211731F0819191918D939D93CA
:101A60002F5FF8CF10928B01DF91CF911F910F91D3
:101A7000FF90089584E0089550E0440F551F9EE1C3
:101A8000699F400D511D112494EB899F400D511DFC
:101A90001124CA01839608950F931F93CF93DF9368
:101AA0000E943C0DEC010E947E24082F10E0102FB4
:101AB0000027CE0101960E947E249801282BC9019F
:101AC000DF91CF911F910F9108950F931F93CF93A3
:101AD000DF9300D0CDB7DEB72A8339830E943C0D57
:101AE0008C013981632F0E948C242A81622FC801C6
:101AF00001960F900F90DF91CF911F910F910C9451
:101B00008C24AF92BF92CF92DF92EF92FF920F930D
:101B10001F93CF93DF93A12CE12CF12CB12C00E08B
:101B200010E0C0E0D0E06801CE0CDF1CC601805997
:101B30009E4F6C01FE01EE0FFF1FEC0DFD1D259168
:101B400034914C2F6B2D8A2D0E94650D2196CF303C
:101B5000D10581F7025E1F4FB39486E0B812E1CF42
:101B600094EBE90EF11CA39484E0A812D7CFDF9187
:101B7000CF911F910F91FF90EF90DF90CF90BF908A
:101B8000AF900895EF92FF920F931F93CF93DF933F
:101B90007B01EA01E40EF51E8C01C8018396CE1587
:101BA000DF0569F0003D22E0120720F40E947E2448
:101BB000888301C0188221960F5F1F4FEECFDF91FF
:101BC000CF911F910F91FF90EF900895EF92FF92A8
:101BD0000F931F93CF93DF938B017A01080F191F87
:101BE000EC01E81AF90ACE018396C017D10761F01B
:101BF000C03D22E0D20730F4F701EC0FFD1F6081F9
:101C00000E948C242196EFCFDF91CF911F910F91ED
:101C1000FF90EF900895462F843038F4763028F402
:101C20006F3018F4672F0C944C0D80E090E008950D
:101C300080E1089585E891E00895EF92FF920F9377
:101C40001F93CF93DF937B01EA01E40EF51E8C0115
:101C5000C80185589D4FCE15DF0569F0053821E094
:101C6000120720F40E947E24888301C018822196E6
:101C70000F5F1F4FEDCFDF91CF911F910F91FF901D
:101C8000EF900895EF92FF920F931F93CF93DF93FE
:101C90008B017A01080F191FEC01E81AF90ACE012D
:101CA00085589D4FC017D10761F0C53821E0D20794
:101CB00030F4F701EC0FFD1F60810E948C24219607
:101CC000EECFDF91CF911F910F91FF90EF9008958C
:101CD000CF93DF93CBE7D2E060E0CE010E948C246B
:101CE0002196C11584E0D807B9F7DF91CF91089507
:101CF000FF920F931F93CF93DF9300D0CDB7DEB742
:101D0000F82E8FE08F1530F18FEF93E00E947E2444
:101D1000811120C00BE712E0FF2069F0011584E07B
:101D20001807C1F0C8010E947E24811101C0FA94F5
:101D30000F5F1F4FF1CF19821A82C8010E947E24C3
:101D40008983882339F0CE0101960E946F070F5FC7
:101D50001F4FF3CF0F900F90DF91CF911F910F91F5
:101D6000FF90089590939101809390010895E091E0
:101D70009001F0919101309721F00190F081E02DD8
:101D8000099480E00895E0919001F09191013097DD
:101D900099F020910C01222359F02091FE0327FF96
:101DA00007C0DC012C9111962C93119725E02C9300
:101DB0000280F381E02D0994089520918E013091E5
:101DC0008F018217930771F090938F0180938E019A
:101DD000E0919001F0919101309721F00680F78118
:101DE000E02D0994089520918C0130918D01821786
:101DF000930771F090938D0180938C01E091900195
:101E0000F0919101309721F00084F185E02D099443
:101E1000089585B7806885BF85B7806885BF0895B8
:101E200008950E94090F0C94100F81E008950E94FC
:101E30002E1C0E940E0C0C94C31C5F926F927F921A
:101E40008F929F92AF92BF92CF92DF92EF92FF92CA
:101E50000F931F93CF93DF93CDB7DEB72A970FB6BB
:101E6000F894DEBF0FBECDBF0E94590C0E94150F23
:101E7000811111C08FEF89838A831B820E94371CD6
:101E80008160782F9D838C8349815A816B818D81FC
:101E90000E94D90F57C093E9C92E91E0D92E00E0D6
:101EA00010E0AA24A394B12C502E802F0E94F90C8C
:101EB0003C01F601E190F1906F01E826F926E1146A
:101EC000F10431F40F5F1F4F0630110569F7D2CFCF
:101ED0008091410281FD0E94020D20E030E0450129
:101EE000022E02C0880C991C0A94E2F7C4018E21CC
:101EF0009F21892B09F12E835F826820792081E060
:101F0000672809F480E088870E94371C8160782F59
:101F10009A8789874E815F8168858A850E94D90F5B
:101F2000F801EE0FFF1FED56FE4F8081918188254D
:101F300099259183808306C02F5F3F4F2F30310555
:101F400071F6C0CF109192010E94B70E1817D9F008
:101F50000E94B70E809392012A960FB6F894DEBFC6
:101F60000FBECDBFDF91CF911F910F91FF90EF90EA
:101F7000DF90CF90BF90AF909F908F907F906F90A9
:101F80005F900C94F1072A960FB6F894DEBF0FBE4F
:101F9000CDBFDF91CF911F910F91FF90EF90DF9018
:101FA000CF90BF90AF909F908F907F906F905F90F9
:101FB0000895CF93DF93CDB7DEB72B970FB6F89484
:101FC000DEBF0FBECDBF4F83588769877A878B8767
:101FD000DE01119686E0FD0111928A95E9F785E010
:101FE000FE01379601900D928A95E1F749815A8159
:101FF0006B817C818D819E810E94FB162B960FB692
:10200000F894DEBF0FBECDBFDF91CF910895FC01E4
:10201000808191810E94B9190895882309F414C11F
:102020008238C1F40E94B70E81FD0EC169E3809130
:102030000001909101010E948B1B0E94441A2FEF16
:1020400081EE94E0215080409040E1F700C0000014
:1020500069E319C08338F9F40E94B70E80FDF4C01B
:1020600063E580910001909101010E948B1B0E9409
:10207000441A2FEF81EE94E0215080409040E1F728
:1020800000C0000063E580910001909101010E9471
:10209000961B0C94441A8438C1F40E94B70E82FD3A
:1020A000D3C067E480910001909101010E948B1BD5
:1020B0000E94441A2FEF81EE94E02150804090401E
:1020C000E1F700C0000067E4DECF9CEF980F913A83
:1020D00040F4682F80910001909101010E948B1BB8
:1020E000D8CF90E2980F983050F4877091E001C0FB
:1020F000990F8A95EAF7892F0E94FB19CACF9BE5B1
:10210000980F933070F4853A29F0863A31F482E8DA
:1021100090E005C081E890E002C083E890E00C9474
:10212000DD0E98E5980F973108F08EC0883A09F4D3
:1021300045C0893A09F445C08A3A09F445C08B3A4A
:1021400009F445C08C3A09F445C08B3B09F445C0FD
:102150008C3B09F445C08D3A09F445C0803B09F435
:1021600045C08E3A09F445C08F3A09F445C0813B19
:1021700009F445C0823B09F445C0833B09F445C0DE
:10218000843B09F445C0853B09F445C0863B09F40E
:1021900045C0873B09F445C0883B09F445C0893BED
:1021A00009F445C08D3B09F445C08E3B09F445C098
:1021B0008A3B09F045C08AE292E044C082EE90E09A
:1021C00041C089EE90E03EC08AEE90E03BC085EBD6
:1021D00090E038C086EB90E035C083EB90E032C0F1
:1021E00084EB90E02FC087EB90E02CC08CEC90E06B
:1021F00029C08DEC90E026C083E891E023C08AE8F6
:1022000091E020C082E991E01DC084E991E01AC00C
:1022100081E292E017C083E292E014C084E292E08F
:1022200011C085E292E00EC086E292E00BC087E228
:1022300092E008C08FE690E005C080E790E002C021
:1022400080E090E00C94F30E0895882309F45DC0BB
:10225000823879F40E94B70E81FF57C069E38091FC
:102260000001909101010E948B1B0E94441A69E3B6
:1022700010C08338B1F40E94B70E80FF46C063E5FA
:1022800080910001909101010E948B1B0E94441AD1
:1022900063E580910001909101010E94961B0C94CE
:1022A000441A843879F40E94B70E82FF2EC067E486
:1022B00080910001909101010E948B1B0E94441AA1
:1022C00067E4E7CF9CEF980F913A10F4682FE1CFC5
:1022D00090E2980F983050F4877091E001C0990F08
:1022E0008A95EAF7892F0E94011AD9CF9BE5980FAA
:1022F000933020F480E090E00C94DD0E885A873112
:1023000020F480E090E00C94F30E0895882321F0EF
:102310000E94FB190C94441A0895882321F00E940E
:10232000011A0C94441A08958F929F92BF92CF92F3
:10233000DF92EF92FF920F931F93CF93DF9300D022
:10234000CDB7DEB74C01472FFC01C580C2949FE09A
:10235000C922D280DD2031F079836A830E94181A65
:102360006A81498149836A830E94F11949816A819E
:10237000882389F0DD2079F080E2860F883058F0DC
:1023800082E00E948F1A0E94F119BB24B394B826F0
:1023900049816A8101C0B12CE42EE2948FE0E822E9
:1023A000F12CF701E558FF4F0C947824842F807F9F
:1023B000142F1F70882311F01295107FDD20C1F0BB
:1023C000112309F49AC180E2860F883010F0611160
:1023D00005C0812F6A830E94FB1904C0812F6A8384
:1023E0000E940B1A6A816A830E94441A6A8185C11D
:1023F000862F6A830E9425116A81112309F49EC1E8
:1024000080E2860F883010F0611104C0812F0E9495
:10241000011A03C0812F0E94111A0E94441A8EC112
:10242000842F807F142F1F70803211F01295107F3F
:10243000662319F06130D9F026C0DD2079F0CC2078
:1024400049F0F1E0CF1206C00E942B1A812B0E94A6
:10245000311A74C10E942B1A812B04C1CC2021F0A7
:1024600021E0C21609F46AC10E943A1A00C1DD20B7
:1024700029F085E08C1508F461C1F3C094E09C1547
:1024800008F45CC1F4C0DD2051F0CC2009F4E9C0AF
:10249000F401858180FF31C18F708583E2C0CC203B
:1024A00009F4E5C03BC1242F26952695237030E022
:1024B0002115310521F02130310561F03FC1DD20CA
:1024C00021F0862F942F937002C080E090E00E944C
:1024D000DD0E44C1DD2021F0862F942F937002C0C1
:1024E00080E090E00E94F30E39C1842F837009F0E0
:1024F0004EC0D1102FC1262F229526952770220F6E
:10250000220F862F8F70C82ED12CE12CF12C022E99
:1025100004C0CC0CDD1CEE1CFF1C0A94D2F764FF37
:1025200010C06FE070E080E090E004C0660F771F9D
:10253000881F991F2A95D2F7609570958095909580
:1025400003C060E070E0CB01242F26952695237010
:1025500030E02230310569F02330310589F06C29F3
:102560007D298E299F292130310571F00E944C1858
:10257000F1C06C297D298E299F290E945E18EAC02E
:102580000E944C18C701B6010E943A18E3C0DD2032
:1025900019F0842F817001C08695882309F4DAC070
:1025A000262F229526952770220F220F862F8F70B7
:1025B000C82ED12CE12CF12C022E04C0CC0CDD1C39
:1025C000EE1CFF1C0A94D2F764FF10C06FE070E0AD
:1025D00080E090E004C0660F771F881F991F2A953E
:1025E000D2F7609570958095909503C060E070E09B
:1025F000CB01242F26952695237030E0223031051B
:1026000069F02330310589F06C297D298E299F29B5
:102610002130310571F00E94FA189CC06C297D2987
:102620008E299F290E940C1995C00E94FA18C70193
:10263000B6010E94E8188EC0062F10E0F801E05E97
:10264000F109E531F10508F054C0E557FF4F0C944E
:102650007824162F1F70842F8F71DD2031F00E9497
:102660009318812F0E94861169C00E94AE18812F95
:102670000E948D1163C0DD2049F0F4E0FC1508F4E0
:102680005DC0842F8F710E94CD1858C025E02C1595
:1026900008F454C0F6CFDD2039F0842F8F710E94EA
:1026A00093184CC0DD20C9F3842F8F710E94AE189F
:1026B00045C0DD2029F0842F8F710E9484183EC010
:1026C0000E947F183BC0DD2051F0142F1F71812F15
:1026D0000E94931863E0812F0E947A1A2FC081E034
:1026E0000E948F1A81E08C1548F582E00E948F1AB3
:1026F00025C0DD2031F0CC2081F2862F0E940D1004
:102700001DC0CC2089F2693349F49FEFE7EEF3E076
:102710009150E040F040E1F700C00000862F0E9499
:1027200025110CC04F70C4010E94A4090E94A81773
:1027300015C04F70C4010E94A70910C028E0E2161E
:10274000F10441F05CF09AE0E91AF108E2E0EE16DB
:10275000F10420F40E94B70E0E94F107BB20F1F0B3
:102760000E94ED1980FD1AC0F40112820E94E7193F
:102770000E949318C4010E94DC130E94E7190F9075
:102780000F90DF91CF911F910F91FF90EF90DF900D
:10279000CF90BF909F908F900C94AE180F900F9099
:1027A000DF91CF911F910F91FF90EF90DF90CF902D
:1027B000BF909F908F9008950F931F93CF93DF93B7
:1027C000EC01288139818B819C81892B31F03F3F3D
:1027D00011F080E003C02F3FE1F781E0811113C0C9
:1027E000CE010E940308882371F0688179818A8173
:1027F0000E94C4198C010E941E190E943718B8014A
:10280000CE010E949411DF91CF911F910F910895F5
:102810000E94181A0E94281A0E94441A80E090E030
:102820000E94DD0E80E090E00C94F30E8091000198
:10283000909101010E94A11B0C9408140E94081A97
:102840000C941614E92FE295EF70F0E03297EE3019
:10285000F105B8F4E056FF4F0C947824803F59F00E
:1028600018F4803E70F407C0843F59F404C0803EE1
:1028700010F0813F31F481E0089593FB882780F9BF
:10288000089580E008950E94B9190E9422140895C5
:10289000CF93DF9300D000D01F92CDB7DEB70F905B
:1028A0000F900F900F900F90DF91CF910895CF93DD
:1028B000DF9300D000D000D0CDB7DEB726960FB69C
:1028C000F894DEBF0FBECDBFDF91CF9108951F9367
:1028D000CF93DF93C091A00116E08091A101C817AA
:1028E00099F0D0E01C9FF0011D9FF00D1124EE55D2
:1028F000FE4F4081518162817381848195810E9464
:1029000057142196C770E9CFDF91CF911F91089599
:102910004091D2015091D3016091D4017091D501C1
:102920008091D6019091D7010C945714CF93809148
:10293000D70182958F7009F05FC08091D401882300
:1029400009F45AC02091A001A091A1016091D20187
:102950007091D3018091D5019091D60131E06F3F04
:1029600009F030E0B32FC6E02A1709F445C00097FC
:1029700021F07F3F21F44B2F03C041E001C040E034
:1029800030E040FD35C0C29FF001C39FF00D11241F
:10299000EE55FE4F418174132BC04081641328C053
:1029A0004281411125C0438154814817590710F4D1
:1029B00041505109481B590B483C5105C8F48091BE
:1029C000D7018F7080618093D70186E0829FF001EC
:1029D000839FF00D1124E955FE4F80818F70806137
:1029E000808382ED91E00E94DC13CF910C946714F8
:1029F0002F5F3F4F2770B8CFCF910895CF92DF92CE
:102A0000EF92FF920F931F93CF93DF93CDB7DEB773
:102A100062970FB6F894DEBF0FBECDBF8C0185E084
:102A2000F801DE011D9601900D928A95E1F7D8011B
:102A30004C9111965C91119712966C911297139686
:102A4000ED90FC9014977091D201E091D301209108
:102A5000D5013091D6012115310531F0EF3F31F428
:102A600081E07F3F19F403C081E001C080E0B82F0E
:102A7000B170CB2E80FD6BC1D090D401DD2009F464
:102A8000F5C0F091D701E216F30638F0C701821BBA
:102A9000930B883C910548F09DC0209530952E0DF4
:102AA0003F1D283C310508F095C08F2F807F09F02D
:102AB00052C0E51314C0741312C0D62E61110FC09A
:102AC000FF70F061F093D7010E94881482ED91E0CD
:102AD0000E94DC138091D701F80185837CC1EF2827
:102AE00031F05F3F31F481E04F3F19F403C081E0E2
:102AF00001C080E080FD03C081E0862701C080E046
:102B0000F82FF170FF2E80FF1CC08091A001209152
:102B1000A10136E0821709F438C190E0389FF00136
:102B2000399FF00D1124EE55FE4F7181571306C0E9
:102B30007081471303C07281671303C001968770C9
:102B4000E9CFD62E662309F446C18091D701816072
:102B50008093D70155C0E51308C0741306C06111F6
:102B600004C0D8011596FC93AEC04D875E878D8555
:102B70009E856A8B0E9443146A89882329F1D62E88
:102B8000662311F12091D701822F82958F7090E0FA
:102B900002970CF462C08091D2019091D301988782
:102BA0008F831986FB86EA862C87CE01079653C051
:102BB000E51741F14D875E878D859E856A8B0E9462
:102BC00043146A89811130C0C8010E94DC13DD24DE
:102BD000D39401C18F2F807F59F77E2DF98AE88A1F
:102BE00089890E94481482ED91E00E94DC13E2ED95
:102BF000F1E086E0DF011D928A95E9F70E948814D2
:102C0000D12CE9C07413D6CF6111D4CFD801159659
:102C1000FC93C8010E94DC13E2EDF1E086E0DF01E5
:102C20001D928A95E9F7D7C0D62E662369F22091C6
:102C3000D701822F82958F7090E0029774F0809177
:102C4000D2019091D3019A8389831B82FD82EC8209
:102C50002E83CE0101960E94DC1386E0F801A2EDDE
:102C6000B1E001900D928A95E1F78AC0E216F30671
:102C700028F0C701821B930B9C0104C0209530955E
:102C80002E0D3F1D283C310508F053C0D62E66237B
:102C900009F49ACFE5132CC074132AC08091D70190
:102CA00080FD1DC0982F92959F70C9F0D801159690
:102CB0008C9315979F3039F09F5F9295907F8F701E
:102CC000892B15968C93C8010E94DC1386E0F801CD
:102CD000A2EDB1E001900D928A95E1F753C086E034
:102CE000F801A2EDB1E001900D928A95E1F773C071
:102CF0004D875E878D859E850E944314882381F0D1
:102D000096E0F801A2EDB1E001900D929A95E1F7FD
:102D10008A8B0E9496140E9488148A89D82E5BC0E0
:102D20008091D70181608093D701C8010E94DC1394
:102D300052C07E2DF98AE88A89890E944814E2ED02
:102D4000F1E086E0DF011D928A95E9F71BC066235A
:102D500009F43ACF4D875E878D859E850E94431486
:102D6000D82E882309F430CF86E0F801A2EDB1E037
:102D700001900D928A95E1F782ED91E00E94071093
:102D80000E9496140E94881426C04D875E878D8508
:102D90009E850E94B919292F22952F7030E022308C
:102DA00031052CF49F7041F0811106C00CC0243015
:102DB00031052CF49F7049F4805E883020F0C80102
:102DC0000E94DC13CF2CDC2C06C0D80115969C91F8
:102DD000907F91F7F8CF8D2D62960FB6F894DEBFF5
:102DE0000FBECDBFDF91CF911F910F91FF90EF905C
:102DF000DF90CF9008951F93CF93DF93CDB7DEB7C9
:102E00002C970FB6F894DEBF0FBECDBF4F83588707
:102E100069877A878B879C87CE0107960E94FE146C
:102E20008823C1F02F8138858A859B85892B31F0D5
:102E30003F3F11F080E003C02F3FE1F781E08111B7
:102E400047C04F81588569857A858B859C850E940E
:102E500057143EC086E0FE013796DE0111960190C0
:102E60000D928A95E1F7FF81E8854A855B854115DA
:102E7000510531F0EF3F31F481E0FF3F19F403C019
:102E800081E001C080E080FD23C02091A10130E0FD
:102E9000C9010196877099276091A00170E086179B
:102EA0009707F1F1F983EA835D834C8396E0929F63
:102EB000D001939FB00D1124AE55BE4FFE01319647
:102EC00001900D929A95E1F78093A1010E946714F9
:102ED00016E08091A0019091A101891779F1189FC6
:102EE000C00111248E559E4F0E94FE14882331F19B
:102EF000E091A0011E9FF0011124EE55FE4F40818C
:102F0000518162817381848195810E9457148091DF
:102F1000A00190E00196877099278093A001D9CFF6
:102F20000E941E141092A1011092A001E2EDF1E0A6
:102F300086E0DF011D928A95E9F7CACF2C960FB67D
:102F4000F894DEBF0FBECDBFDF91CF911F910895E2
:102F5000EF92FF920F931F93CF93DF93FC010097A3
:102F600009F46FC0F12CEE24E394EF0121968491D3
:102F7000843740F4843008F055C0813081F08230CD
:102F800021F15FC0853709F447C0C0F19CE7980F75
:102F9000903708F056C08F770E94251145C08F01E9
:102FA0000E5F1F4FFE01849190E2980F983050F40D
:102FB0008770FE2D01C0FF0F8A95EAF78F2F0E94C0
:102FC0001B1A15C00E940D1014C08F010E5F1F4FF9
:102FD000FE01849190E2980F983068F48770FE2D7E
:102FE00001C0FF0F8A95EAF78F2F0E94211A0E94D5
:102FF000441AE80119C00E942511FBCFCF010296A7
:10300000FE01C491CC2361F0EFE9FFE03197F1F7C5
:1030100000C00000C150F6CFCF010296FE01F4902F
:10302000EC0102C00E940D108F2D882341F0EFE9C2
:10303000FFE03197F1F700C000008150F6CFFE01AC
:1030400094CFDF91CF911F910F91FF90EF90089552
:1030500008950C9428180E94291860931802709300
:10306000190280931A0290931B020C94081408957D
:103070000C942B180F931F930091180210911902B2
:1030800020911A0230911B02602B712B822B932B03
:103090001F910F910C942B180F931F9300911802FE
:1030A0001091190220911A0230911B0260237123A2
:1030B000822393231F910F910C942B180F931F932E
:1030C000009118021091190220911A0230911B02EE
:1030D00060277127822793271F910F910C942B183B
:1030E00008950C9470180E947118609314027093E4
:1030F000150280931602909317020C94081460E056
:1031000070E0CB010C94731841E050E060E070E097
:1031100004C0440F551F661F771F8A95D2F7CB0155
:10312000BA010C94731841E050E060E070E004C014
:10313000440F551F661F771F8A95D2F7809114029E
:1031400090911502A0911602B0911702482B592BAD
:103150006A2B7B2BCB01BA010C94731841E050E031
:1031600060E070E004C0440F551F661F771F8A950A
:10317000D2F740955095609570958091140290918A
:103180001502A0911602B0911702482359236A2311
:103190007B23CB01BA010C94731841E050E060E04E
:1031A00070E004C0440F551F661F771F8A95D2F741
:1031B0008091140290911502A0911602B09117020D
:1031C000482759276A277B27CB01BA010C9473182B
:1031D0000F931F9300911402109115022091160273
:1031E00030911702602B712B822B932B1F910F9123
:1031F0000C9473180F931F930091140210911502F1
:1032000020911602309117026023712382239323A9
:103210001F910F910C9473180F931F930091140238
:103220001091150220911602309117026027712724
:10323000822793271F910F910C94731808952FE004
:10324000929F800D1124482F46954695469587708C
:10325000B1E001C0BB0F8A95EAF785E0489FA00165
:10326000112448525E4F80E090E070E0FA01E80FD0
:10327000F91FA0819B01082E02C0369527950A945C
:10328000E2F72170332721952A272B232A27208331
:1032900001968530910551F708952FE0929F800D9A
:1032A0001124682F669566956695982F977085E02E
:1032B000689FB001112468527E4F40E050E080E0EA
:1032C000FB01E40FF51F208130E0092E02C0369586
:1032D00027950A94E2F721703327042E01C0220FAC
:1032E0000A94EAF7822B4F5F5F4F4530510541F753
:1032F0000895CF92DF92EF92FF920F931F93CF9397
:10330000DF93EC01C0901802D0901902E0901A02ED
:10331000F0901B028091140290911502A091160268
:10332000B0911702C82AD92AEA2AFB2A0FE110E035
:10333000B701A601002E04C076956795579547956D
:103340000A94D2F740FD05C00150110988F780E0CA
:1033500007C0BE01802F0E94B0090197A9F3802FFA
:10336000DF91CF911F910F91FF90EF90DF90CF9061
:103370000895CF93DF93EC010E947919BE010E945A
:10338000B009DF91CF9108951F93CF93DF93EB01A5
:1033900090919F01992321F0CB010E94B91913C08C
:1033A000882349F0CB010E947919182F682FCE018C
:1033B0000E941F1904C0CB010E944D19182FBE0195
:1033C000812F0E94B009DF91CF911F9108958091C4
:1033D0001C02859585958595089580911C028770BE
:1033E000089590911C02977081E009F480E008959F
:1033F00080914002089590914002982B9093400252
:1034000008958095909140029823909340020895EA
:1034100010924002089590913F02982B90933F02A2
:103420000895809590913F02982390933F020895CC
:1034300010923F02089590913E02982B90933E0285
:103440000895809590913E02982390933E020895AE
:1034500010923E02089580911D02089508950C94E3
:103460002E1A90911D02981721F080931D020C9442
:103470002F1A089580911D02882329F010921D02B1
:1034800080E00C942F1A0895E0910001F091010161
:10349000809140028083E0910001F09101018081E0
:1034A00090913F02892B8083E0910001F09101010E
:1034B000808190913E02892B808390911D029923F7
:1034C00081F0E0910001F09101018081892B8083DE
:1034D00080910001909101010E941E1B81110E94A8
:1034E0003A1A80910001909101010C94C30E089545
:1034F0000C94771A98E0899F90011124622B6093B5
:103500001C020E94931880911C02859585958595D3
:103510000C94781A10921C0280E00C94781A409156
:103520001C028095842380931C02982F977079F455
:1035300050E0282F332727FD30954217530739F0E5
:103540008595859585950E94AE180C948A1A0895E4
:103550006FEF7FEF80E090E00C94AA2480E090E091
:103560000E94862421E08D3E9E4F09F020E0822FAC
:10357000089582E090E00C947E2483E090E00C9427
:103580007E2484E090E00C947E24682F84E090E018
:103590000C948C24AB01BC018FE090E00C949E2431
:1035A000AB01BC0183E190E00C949E2460E070E0EC
:1035B000CB010C94D01A60E070E0CB010E94CA1AD3
:1035C0000C94D61A6DEE7EEF80E090E00E94AA2463
:1035D00060E082E090E00E948C2460E083E090E074
:1035E0000E948C24109218021092190210921A0252
:1035F00010921B0260E084E090E00E948C2460E066
:1036000085E090E00E948C2460E086E090E00E94DB
:103610008C246FEF87E090E00E948C2440E050E023
:10362000BA0188E090E00E949E2460E08DE090E086
:103630000E948C240C94DB1A0C94E21A02962091BE
:103640000C01211102C026E005C02091FE0327FFD6
:10365000FACF2EE1FC0180E0215028F091919923CE
:10366000D9F38F5FF9CF089520E030E04FEFFC01F0
:10367000E20FF31F5281561799F04F3F19F4511181
:1036800001C0422F2F5F3F4F2630310581F74F3F5A
:1036900039F0FC01E40FF11D47FDFA9562830895AE
:1036A000089520E030E0FC01E20FF31F4281461351
:1036B00001C012822F5F3F4F26303105A1F70895D8
:1036C000262F2695269526952E3170F4FC01E20FC3
:1036D000F11D677021E030E0062E01C0220F0A9430
:1036E000EAF78281822B82830895262F26952695DC
:1036F00026952E3178F4FC01E20FF11D677021E070
:1037000030E0062E01C0220F0A94EAF7209582814C
:1037100028232283089520910C01222329F020914F
:10372000FE0327FD0C94601B0C94341B20910C01AC
:10373000222329F02091FE0327FD0C94751B0C9485
:10374000511B20910C01FC013296222331F0809113
:10375000FE0387FF02C08EE101C086E0DF011D92FB
:103760008A95E9F7089508950C94B31B0E94B41B41
:1037700080910404843031F11092420220E488E107
:1037800090E00FB6F894A895809360000FBE209348
:10379000600080E00E94F1070E94B41B83B7817F24
:1037A000846083BF83B7816083BF7894889583B733
:1037B0008E7F83BF88E10FB6F894809360001092EB
:1037C00060000FBE089508950895CF930E94E31BF3
:1037D0000E94590C0E94E41BC0E08C2F0E94F90C3F
:1037E000892B29F4CF5FC630C1F780E001C081E0AA
:1037F000CF91089508950C94FA1B0E941E140E9404
:10380000B70E0E94F1070C94FB1B1F920F920FB68C
:103810000F9211248F939F93AF93BF938091420295
:10382000811113C08091FA039091FB03A091FC03D6
:10383000B091FD034196A11DB11D8093FA039093B1
:10384000FB03A093FC03B093FD03BF91AF919F9145
:103850008F910F900FBE0F901F90189582E084BD3E
:1038600093E095BD9AEF97BD80936E0008952FB7B2
:10387000F8948091FA039091FB03A091FC03B0911E
:10388000FD032FBF08952FB7F8946091FA0370914C
:10389000FB038091FC039091FD032FBF0895CF920D
:1038A000DF92EF92FF920F931F932FB7F8944091FE
:1038B000FA035091FB036091FC037091FD032FBF4D
:1038C0006A017B01EE24FF248C0120E030E0C01669
:1038D000D106E206F30610F441505109481B590B7A
:1038E000CA011F910F91FF90EF90DF90CF90089544
:1038F00078941F920F920FB60F9211248F939F937B
:10390000AF93BF938091FA039091FB03A091FC03C6
:10391000B091FD030196A11DB11D8093FA03909310
:10392000FB03A093FC03B093FD03BF91AF919F9164
:103930008F910F900FBE0F901F90189581E080938C
:10394000E00080E28093D8001092C9008FE19EE4ED
:103950000197F1F700C0000087E090EBDC01809355
:103960000D0490930E04A0930F04B09310042CE068
:1039700088E190E00FB6F894A895809360000FBEA0
:1039800020936000FFCF0E94AE1A811102C00E94F6
:103990001C1B0E94B91A809341020E94C11A90E038
:1039A0009093FF038093FE030E94BD1A682F70E07E
:1039B00080E090E00C943818809163020895089597
:1039C0000F931F93CF93DF9300D01F92CDB7DEB735
:1039D0008C010E94831F823011F0843019F584E03D
:1039E00089831B830A838093E9008FEF9091E8001D
:1039F000815095FD06C095ED9A95F1F70000811173
:103A0000F5CF8091E80085FF0DC040E050E063E015
:103A100070E0CE0101960E94A01F8091E8008E7791
:103A20008093E8000F900F900F90DF91CF911F913E
:103A30000F910895CF93DF9300D01F92CDB7DEB7DB
:103A400020910404243029F533E03983805891090A
:103A50009B838A832093E9008FEF9091E800815047
:103A600095FD06C095ED9A95F1F700008111F5CF0F
:103A70008091E80085FF0DC040E050E063E070E019
:103A8000CE0101960E94A01F8091E8008E7780935E
:103A9000E8000F900F900F90DF91CF910895CF9392
:103AA000DF93EC010E94831F823011F08430D9F53E
:103AB00080910C01811103C068E081E006C0809113
:103AC000FE0387FFF9CF60E284E08093E9008FEF87
:103AD0009091E800815095FD06C095ED9A95F1F71B
:103AE00000008111F5CF8091E80085FF1CC0809116
:103AF0000C01811105C040E050E068E070E003C0B7
:103B000070E040E050E0CE010E94A01F8091E800EC
:103B10008E778093E80080E2FE01A3E4B2E001909A
:103B20000D928A95E1F7DF91CF910895CF9360329E
:103B300029F520910404243009F52091E9002F7023
:103B40003091EC0030FF02C030E801C030E0C32FFC
:103B5000C22B22E02093E9002091E80020FF0BC057
:103B600040E050E060E270E00E94A01F8091E80019
:103B70008E778093E800CF70C093E900CF910895CD
:103B800080910304811109C00E947B210E94D821E9
:103B90008091E20084608093E20008951092030413
:103BA0000895089508950C94FD1B42E061EC81E0B6
:103BB0000E94F52042E261EC84E00E94F52042E29E
:103BC00061EC82E00E94F52042E260EC83E00C941C
:103BD000F52080910604833009F462C030F481300E
:103BE00071F0823009F49BC008958A3009F487C0CF
:103BF0008B3009F46DC0893009F0A9C020C08091D4
:103C00000504813A09F0A3C08091E800877F809382
:103C1000E8008091090490910A04892B21F060E06A
:103C200080E090E003C060E283E492E070E00E94F4
:103C300032208091E8008B778093E800089580918E
:103C40000504813209F083C08091090490910A042F
:103C5000009719F0029709F07AC08091E800877FF9
:103C60008093E8008091E80082FD05C08091040403
:103C70008111F8CF6CC02091F3008091F20090E0A8
:103C8000922B029729F48091F1008B7F813021F4EF
:103C90008091F100809363028091E8008B7753C09C
:103CA00080910504813A09F052C0809109049091F5
:103CB0000A04892B09F04BC08091E800877F80932C
:103CC000E8008091E80080FFFCCF80910C0136C0B5
:103CD000809105048132D9F58091090490910A04FC
:103CE000892BA9F58091E800877F8093E8000E94E6
:103CF0002A218091070480930C010C941E1480915A
:103D00000504813221F58091E800877F8093E800E7
:103D10000E942A2180910804809364020895809172
:103D20000504813AA1F48091E800877F8093E80040
:103D30008091E80080FFFCCF809164028093F100C5
:103D40008091E8008E778093E8000C942A210895F2
:103D50001F93CF93DF93CDB7DEB7A0970FB6F8943C
:103D6000DEBF0FBECDBF84B7877F84BF88E10FB6AB
:103D7000F89480936000109260000FBE80E88093FA
:103D80006100109261000E94110F0E947B210E942D
:103D9000D8218091E20084608093E20078940E94B0
:103DA0005B240E94170F82E091E00E94B20E13E0A4
:103DB00080910404853069F40E94B61B809102044E
:103DC0008823B1F30E94E51B882391F30E948A1F88
:103DD000EFCF0E941D0F80910404843049F71093A7
:103DE000E9008091E80082FFE3CF8091E80085FF41
:103DF0000AC040E050E060E270E0CE0101960E940F
:103E0000E91F91E001C090E08091E8008B778093FA
:103E1000E800992369F260E2CE0101960E94200633
:103E2000C7CF0C94131F292F332723303105A9F056
:103E30006CF42130310509F448C02230310509F015
:103E400049C08BE590E028E835E048C021323105D3
:103E5000F9F02232310549F13DC0992781309105B1
:103E600071F02CF4892BB1F5E4E8F5E00DC0823057
:103E7000910541F0039771F5E0E4F5E005C0ECE64B
:103E8000F5E002C0E6E4F5E0849190E09F0126C0F1
:103E900063307105F8F4FB01EE0FFF1FE55DFE4F87
:103EA0002081318189E090E019C06330710590F480
:103EB000FB01EE0FFF1FEB5DFE4F20813181FB0107
:103EC000EE5DFE4F808190E009C082E190E023EE3C
:103ED00035E004C080E090E020E030E0FA0131837A
:103EE000208308950895CF93C82F0E94721FC09316
:103EF0006502CF91089580910404843011F482E02A
:103F0000089581E0089580916502811102C00C94AA
:103F10007B1F089580E189BD82E189BD09B400FE5F
:103F2000FDCF8091D8008F7D8093D8008091E000F4
:103F300082608093E0008091E00081FDFCCF0895D5
:103F4000CF92DF92EF92FF920F931F93CF93DF9365
:103F50007C018B01EA010E944B21811131C0209725
:103F600031F088819981081B190BE80EF91EC12CCC
:103F7000D12C0115110519F18091E80085FD14C0BF
:103F80008091E8008E778093E800209741F0888147
:103F900099818C0D9D1D9983888385E011C00E94B5
:103FA0004B21882331F30CC0F70181917F0180936D
:103FB000F10001501109FFEFCF1ADF0ADACF80E0DC
:103FC000DF91CF911F910F91FF90EF90DF90CF90F5
:103FD0000895CF92DF92EF92FF920F931F93CF93AA
:103FE000DF937C018B01EA010E944B21811131C0DA
:103FF000209731F088819981081B190BE80EF91E72
:10400000C12CD12C0115110519F18091E80085FD15
:1040100014C08091E8008B778093E800209741F0EE
:10402000888199818C0D9D1D9983888385E011C0BD
:104030000E944B21882331F30CC08091F100F701DD
:1040400081937F0101501109FFEFCF1ADF0ADACF08
:1040500080E0DF91CF911F910F91FF90EF90DF9063
:10406000CF90089520910B0430910C042617370748
:1040700048F06115710539F42091E8002E772093FE
:10408000E80001C0B901FC0120E061157105B9F13A
:1040900080910404882309F440C0853009F43FC0AE
:1040A0008091E80083FD3DC08091E80082FF06C05A
:1040B0008091E80082FF26C080E008958091E800AA
:1040C00080FFE3CF2091F3008091F20090E0922BEB
:1040D0006115710551F08830910538F421912093D4
:1040E000F100615071090196F3CF21E0089709F0C2
:1040F00020E08091E8008E778093E800C6CF211100
:10410000C7CFD6CF80910404882339F0853039F0A9
:104110008091E80083FFCCCF04C082E0089583E063
:10412000089581E0089520910B0430910C04261726
:10413000370748F06115710539F42091E8002E77B2
:104140002093E80001C0B901FC0120E06115710570
:10415000C1F180910404882309F441C0853009F439
:1041600040C08091E80083FD3EC08091E80082FF5E
:1041700006C08091E80082FF27C080E0089580910A
:10418000E80080FFE3CF2091F3008091F20090E0FF
:10419000922B6115710559F08830910540F42491F6
:1041A0002093F1003196615071090196F2CF21E020
:1041B000089709F020E08091E8008E778093E8006E
:1041C000C5CF2111C6CFD5CF80910404882339F003
:1041D000853039F08091E80083FFCBCF04C082E0C6
:1041E000089583E0089581E00895982F973058F559
:1041F0009093E900981739F07091EC002091ED0050
:104200005091F00003C0242F762F50E021FF19C0F9
:104210003091EB003E7F3093EB003091ED003D7F1D
:104220003093ED003091EB0031603093EB007093F0
:10423000EC002093ED005093F0002091EE0027FF5A
:1042400007C09F5FD3CF8F708093E90081E008950E
:1042500080E008958091050487FD05C08091E80005
:1042600080FF0EC012C08091E80082FD05C08091E1
:1042700004048111F8CF08958091E8008B7708C07D
:10428000809104048111EACF08958091E8008E772F
:104290008093E80008958091E4009091E50045E660
:1042A0002091EC0020FF21C02091E80020FD21C0DA
:1042B00020910404222389F0253089F02091EB001D
:1042C00025FD0FC02091E4003091E5002817390743
:1042D00039F3415041F0C901E3CF82E0089583E012
:1042E000089581E0089584E008952091E80022FF78
:1042F000DFCF80E008950E94E9210E94F121E0EEE5
:10430000F0E0808181608083E8EDF0E080818F774C
:10431000808319BCA7EDB0E08C918E7F8C93808157
:104320008F7E80831092030408950F931F93CF9381
:10433000DF930E94E9210E94F121C8EDD0E088813D
:104340008F77888388818068888388818F7D888340
:1043500019BC1092040410920004109202041092EE
:10436000010400EE10E0F80180818B7F808388815A
:104370008160888342E060E080E00E94F520E1EE09
:10438000F0E080818E7F8083E2EEF0E080818160CA
:104390008083808188608083F80180818E7F808324
:1043A000888180618883DF91CF911F910F9108955B
:1043B000E8EDF0E080818F7E8083E7EDF0E08081A2
:1043C0008160808384E082BF81E0809303040C9449
:1043D0009521E8EDF0E080818E7F80831092E200ED
:1043E00008951092DA001092E10008951F920F9242
:1043F0000FB60F9211242F933F934F935F936F93B8
:104400007F938F939F93AF93BF93EF93FF9380918D
:10441000E10082FF0BC08091E20082FF07C0809123
:10442000E1008B7F8093E1000E945A248091DA00A2
:1044300080FF1FC08091D80080FF1BC08091DA00F0
:104440008E7F8093DA008091D90080FF0DC080E1DB
:1044500089BD82E189BD09B400FEFDCF81E0809372
:1044600004040E94C01D05C019BC109204040E94DF
:10447000CE1D8091E10080FF19C08091E20080FF95
:1044800015C08091E2008E7F8093E2008091E2006F
:1044900080618093E2008091D80080628093D80090
:1044A00019BC85E0809304040E94D21D8091E10034
:1044B00084FF30C08091E20084FF2CC080E189BD80
:1044C00082E189BD09B400FEFDCF8091D8008F7DC7
:1044D0008093D8008091E1008F7E8093E1008091ED
:1044E000E2008F7E8093E2008091E2008160809301
:1044F000E20080910004882311F084E007C08091DD
:10450000E30087FF02C083E001C081E080930404E0
:104510000E94D31D8091E10083FF29C08091E200B9
:1045200083FF25C08091E100877F8093E10082E0D6
:1045300080930404109200048091E1008E7F8093A8
:10454000E1008091E2008E7F8093E2008091E200A2
:1045500080618093E20042E060E080E00E94F5200C
:104560008091F00088608093F0000E94D11DFF913F
:10457000EF91BF91AF919F918F917F916F915F91DB
:104580004F913F912F910F900FBE0F901F90189554
:104590001F920F920FB60F9211242F933F934F93B8
:1045A0005F936F937F938F939F93AF93BF93CF93BB
:1045B000EF93FF93C091E900CF708091EC001092CF
:1045C000E9008091F000877F8093F00078940E944A
:1045D00004231092E9008091F00088608093F0003D
:1045E000C093E900FF91EF91CF91BF91AF919F915F
:1045F0008F917F916F915F914F913F912F910F908C
:104600000FBE0F901F9018951F93CF93DF93CDB7D8
:10461000DEB7AA970FB6F894DEBF0FBECDBFE5E0B8
:10462000F4E08091F100819324E0ED30F207C9F7C6
:104630000E94E91D8091E80083FF24C120910504B8
:1046400030910604832F90E08A30910508F01AC15A
:10465000FC01E255FF4F0C947824203821F02238D9
:1046600009F010C108C080910104909102049923BF
:1046700089F082600FC0809109048F70873008F044
:1046800001C18093E9008091EB0085FB882780F9C8
:104690001092E9009091E800977F9093E800809352
:1046A000F1001092F100CCC0822F8D7F09F0EAC09A
:1046B000222319F0223061F0E5C080910704813097
:1046C00009F0E0C0333009F080E0809302042AC092
:1046D00080910704811126C0209109042F708FEF6B
:1046E000820F863008F0CEC02093E9008091EB0065
:1046F00080FF18C08091EB00333011F4806210C04D
:1047000080618093EB0081E090E001C0880F2A95E2
:10471000EAF78093EA001092EA008091EB0088604B
:104720008093EB001092E9008091E800877F8093EE
:10473000E8000E942A21A6C02111A4C010910704FC
:104740001F778091E3008078812B8093E300809134
:10475000E800877F8093E8000E942A218091E8008A
:1047600080FFFCCF8091E30080688093E3001123F9
:1047700011F083E001C082E08093040483C02058DC
:10478000223008F07FC080910704909108048C3D8E
:1047900023E0920779F583E08A838AE289834FB721
:1047A000F894DE01139620E03EE051E2E32FF0E0C2
:1047B00050935700E49120FF03C0E295EF703F5FF4
:1047C000EF708E2F90E0EA3010F0C79601C0C096CF
:1047D0008D939D932F5F243149F74FBF8091E8005F
:1047E000877F8093E8006AE270E0CE0101960E9424
:1047F000322015C06091090470910A04AE014F5F28
:104800005F4F0E94111F0097E9F12091E800277F78
:104810002093E800BC0189819A810E9493208091B5
:10482000E8008B778093E8002DC0203859F58091FF
:10483000E800877F8093E800809100048093F10076
:104840008091E8008E7773CF21111CC090910704EE
:104850009230C0F48091E800877F8093E8009093C5
:1048600000040E942A2180910004811104C08091DB
:10487000E30087FF02C084E001C081E0809304046C
:104880000E94D51D8091E80083FF0AC08091E80056
:10489000877F8093E8008091EB0080628093EB003B
:1048A000AA960FB6F894DEBF0FBECDBFDF91CF91B1
:1048B0001F9108950895CF93809104048823B1F047
:1048C0008091E9008F709091EC0090FF02C090E819
:1048D00001C090E0C92FC82B1092E9008091E80038
:1048E00083FD0E940423CF70C093E900CF91089507
:1048F000EE0FFF1F0590F491E02D0994F999FECF7A
:1049000092BD81BDF89A992780B50895A8E1B0E0DD
:1049100042E050E00C94B224262FF999FECF92BDCC
:1049200081BDF89A019700B4021639F01FBA20BD74
:104930000FB6F894FA9AF99A0FBE08950396272FA6
:104940000E948D240E948C24252F0E948D24242FC8
:104950000C948D240196272F0E948D240C948C2476
:10496000DC01CB01FC01F999FECF06C0F2BDE1BD2F
:10497000F89A319600B40D9241505040B8F708951E
:04498000F894FFCFD9
:104984001E02DC1C4F1DDF1C1A1DE01C01F59531B5
:10499400323393926766363534979694F1F0C6F4C1
:1049A400F6F74022718806F50517069A05CC05B37B
:0249B4000500FC
:00000001FF
