:100000000C941B020C945F020C945F020C945F0230
:100010000C945F020C945F020C945F020C945F02DC
:100020000C945F020C945F020C94831D0C94551E7B
:100030000C9492170C945F020C945F020C945F0274
:100040000C945F020C945F020C945F020C945F02AC
:100050000C945F020C9405180C945F020C945F02E0
:100060000C945F020C945F020C945F020C945F028C
:100070000C945F020C945F020C945F020C945F027C
:100080000C945F020C945F020C945F020C945F026C
:100090000C945F020C945F020C945F020C945F025C
:1000A0000C945F020C945F020C945F02A202A50202
:1000B0001F03B002B802C4021F031F031F030E0375
:1000C0001103C702CA02CF02DD02EB02EE02F20206
:1000D000000318051E052205250529052D053105F6
:1000E00035053A053E054205460549054D055105CC
:1000F000550559055E05690D690DA30DA30DE60DA6
:10010000310F310F310F080E310FAF0EAF0E250F2B
:10011000310F310F2C0FBC0EBC0EBC0EBC0EBC0E32
:10012000BC0EBC0EBC0EBC0EBC0EBC0EBC0EBC0E7F
:10013000BC0EBC0EBC0ECE0EDE0EE50EEC0EF60EA8
:10014000C10FC10FD40FD40FCA0FD40FD40FD40FC7
:10015000C10FC10FD00FD40FD40FD00FBA1EE11EA4
:10016000CF1FE11ECF1F291F4C1FCF1FA21FB11F82
:100170001E001F0020002100220023002400250073
:10018000000000000000000000000000000000006F
:10019000000000000000000000000000000000005F
:1001A000000000000000000000000000000000004F
:1001B00000000000000000002A2B280000000000C2
:1001C0000000000000000000000000290000000006
:1001D0002C1E3420212224342627252E362D373874
:1001E000271E1F202122232425263333362E37387D
:1001F0001F0405060708090A0B0C0D0E0F1011123B
:10020000131415161718191A1B1C1D2F3130232D06
:10021000350405060708090A0B0C0D0E0F10111204
:10022000131415161718191A1B1C1D2F3130354CB5
:1002300000000000000000000000000000000000BE
:1002400000000000000000000000000000000000AE
:100250000001010101010100010101010000000094
:10026000000000000000000000000100010001018A
:10027000010101010101010101010101010101016E
:100280000101010101010101010101000000010161
:10029000000000000000000000000000000000005E
:1002A000000000000000000000000001010101004A
:1002B0000403300000002203770069006C00620034
:1002C00061002E0074006500630068002000570084
:1002D000540038002D00410000001603770069002B
:1002E0006C00620061002E0074006500630068000D
:1002F00000000403090409025B00030100A0FA09DD
:100300000400000103010100092111010001224044
:10031000000705810308000A090402000103000028
:10032000000921110100012271000705840320004A
:100330000A09040100020300000009211101000163
:100340002222000705820320000107050303200085
:1003500001120110010000000882658A00010001FD
:100360000203010660FF0961A1010962150026FF71
:10037000009520750881020963150026FF0095206D
:1003800075089102C005010980A1018503160100CD
:100390002603001A81002A8300751095018100C090
:1003A000050C0901A1018504160100269C021A0111
:1003B000002A9C02751095018100C005010906A163
:1003C000018505050719E029E71500250195087540
:1003D000018102050819012905950575019102950C
:1003E00001750391010507190029EF1500250195F5
:1003F000F075018102C005010906A101050719E098
:1004000029E71500250195087501810295017508F8
:1004100081010508190129059505750191029501CC
:10042000750391010507190029FF150026FF0095A6
:100430000675088100C011241FBECFEFDAE0DEBFD1
:10044000CDBF04B603FE24C08091DB019091DC0196
:10045000A091DD01B091DE018730904BA740B04BF9
:10046000B9F41092DB011092DC011092DD011092C0
:10047000DE0114BE84B7877F84BF88E10FB6F8948D
:1004800080936000109260000FBEE0E0F8E30995F1
:1004900011E0A0E0B1E0EEE9F0E402C005900D92B9
:1004A000A432B107D9F711E0A4E2B1E001C01D9276
:1004B000AB3DB107E1F70E94351A0C944D200C9426
:1004C000000080E290E00E9413208F31954451F4A7
:1004D00082E290E00E940B2091E0883009F090E0E9
:1004E000892F01C080E081700895CF93C82F8823A1
:1004F00019F06FE175E402C06FEF7FEF80E290E0EA
:100500000E943720CC2311F068E001C06FEF82E237
:1005100090E0CF910C94192080E00E9475020C9419
:100520003B161F93CF93DF93EC01162F488150E0C9
:10053000FA013197E331F10508F081C0EA5AFF4F23
:100540000C940520198288E028C08981813009F047
:1005500076C00E94D0179A838B837C836D8371C091
:100560004B816A8189810E942E099C838D8369C099
:100570002C8130E0322F22278D81282B4B816A81FC
:1005800089810E9447095DC00E9463095AC00E9488
:10059000DF0926C00E94E10999838A8352C06B81DA
:1005A00070E0898190E0982F88272A81AE014C5F06
:1005B0005F4F822B0E94E40944C06B8170E0898107
:1005C00090E0982F88272A81AE014C5F5F4F822BE5
:1005D0000E94090A36C00E942F0A33C00E941C09DB
:1005E00089832FC06B8170E0898190E0982F8827E4
:1005F0002A81AE014C5F5F4F822B0E948B0921C084
:100600006B8170E0898190E0982F88272A81AE0164
:100610004C5F5F4F822B0E94AE0913C00E948C0278
:1006200010C00E9423192FEF81EE94E021508040EA
:100630009040E1F700C000000E942B1802C08FEF2D
:100640008883612FCE01DF91CF911F910C942319E4
:100650000E946102811107C00E9463090E942F0A53
:1006600081E00C94750208950E949F088FE19EE43A
:100670000197F1F700C000008FE19EE40197F1F7C8
:1006800000C000000E949F0880E00E94E10880FFF7
:1006900004C00E948C020C942B1808950E9434030D
:1006A0000E9428030C9476080C947708FB012281A1
:1006B0008031FFE59F0731F081313FE5930781F4F9
:1006C00082E001C081E0222319F00E94261402C0BA
:1006D0000E94411443E062E081E00E943C040EC0AD
:1006E000222351F09C0122513F452031310520F455
:1006F00082510E943F0A02C00C94820380E0089558
:1007000081E0089581E00895CF93282F30E0F9012A
:10071000E055FE4FC491F901E05DFD4F2491222385
:1007200059F081EE0E94A00B8C2F0E94A00B8C2F01
:100730000E94B80C81EE04C08C2F0E94A00B8C2F5D
:10074000CF910C94B80CFF920F931F93CF93DF932C
:10075000EC01F62E8881882331F18E010F5F1F4F47
:10076000813031F4C9818C2F0E94A00B8C2F0AC0DC
:10077000823029F489810E94A00BE80108C08330EF
:1007800021F489810E94B80CF8CF0E94840321963D
:100790008F2D8823F9F2EFE9FFE03197F1F700C0E0
:1007A00000008150F6CFDF91CF911F910F91FF9004
:1007B000089560E00C94A3034F925F926F927F9232
:1007C0008F929F92AF92BF92CF92DF92EF92FF9261
:1007D0000F931F932B013C01C12CD12C7601C394A4
:1007E000D701C60104C0880F991FAA1FBB1F4A95D5
:1007F000D2F7AC01BD014601570104C0880C991C19
:10080000AA1CBB1C2A95D2F7482959296A297B2999
:10081000D701C60104C0880F991FAA1FBB1F0A95E4
:10082000D2F76A017B01C420D520E620F720C41648
:10083000D506E606F70639F4BC01CD016429752911
:10084000862997290AC0BC01CD01609570958095D5
:10085000909564217521862197211F910F91FF901A
:10086000EF90DF90CF90BF90AF909F908F907F9050
:100870006F905F904F9008950F93382F262F6091BF
:100880007601709177018091780190917901042F20
:10089000432F0E94DC030F910C9406140E94411612
:1008A000811102C00E94AF160C944E030C945403A5
:1008B00008950C9458040C94590408950E94B10FA3
:1008C0000E945D042FEF84E39CE021508040904023
:1008D000E1F700C000000C942B18FF920F931F93B8
:1008E000CF93DF938C01FC01C081D18180913801CD
:1008F000811113C08281882349F0CE010E940C151A
:10090000F82E682FCE010E94B21404C0CE010E94BE
:10091000E014F82EBE018F2D04C0CE010E940C15EC
:10092000BE010E94D209EC01B8010E94560388233F
:1009300009F46DC1C63DFCE5DF0709F4D1C0B0F490
:10094000C531ECE5DE0768F4C230FCE5DF0708F0EE
:100950004FC0C1158CE5D80701F1C130DC4529F144
:1009600049C1C631DC4509F420C144C1CB3D8CE509
:10097000D80771F150F4C73DFCE5DF0709F4D3C097
:10098000C83DDC4509F4F6C035C1CC3DECE5DE07D9
:1009900031F1CD3DDC45A1F02DC1F80182818823E4
:1009A00009F435C10E945E0432C1F80182818823B6
:1009B00009F42DC18091A30181608093A30127C117
:1009C000F8018281882309F422C10E94AF161FC159
:1009D000F8018281882309F41AC180E006C0F80179
:1009E0008281882309F413C182E00E94001B0FC199
:1009F000F8018281882309F402C10E944116811105
:100A000002C00E94AF160E94541690E09093CD0150
:100A10008093CC01FE01E350FC45E231F10520F466
:100A2000E759FF4F0C9405208091CC01816003C0F1
:100A30008091CC0182608093CC014BC08091CC012D
:100A40008460F9CF8091CC0113C08091CC0180618A
:100A5000F2CF8091CC018062EECF8091CC01806496
:100A6000EACF8091CC018068E6CF8091CC01846090
:100A70008860E1CF8091CC018E7FDDCF8091CC0169
:100A80008D7FD9CF8091CC018B7FD5CF8091CC0148
:100A900013C08091CC018F7ECECF8091CC018F7D11
:100AA000CACF8091CC018F7BC6CF8091CC018F774C
:100AB000C2CF8091CC018B7F877FBDCF9091CC013D
:100AC00097FB882780F921E0822780FB97F9909394
:100AD000CC018091CC010E9458160E94B10F97C0A2
:100AE000F8018281882351F0109229010E94C417D5
:100AF000909326018093250182E022C080912901F4
:100B000081110FC080912501909126010E94DC1770
:100B1000883C910530F486E20E94A00B86E20E9498
:100B2000B80C82E024C0F8018281882361F0109221
:100B30002A010E94C417909328018093270180E224
:100B40000E94190D64C080912A0181110FC080910B
:100B50002701909128010E94DC17883C910530F410
:100B600087E20E94A00B87E20E94B80C80E20E94FC
:100B7000200D4DC0F80182818111D9CF80912A01C9
:100B80008111F4CF80912701909128010E94DC17F8
:100B9000883C910558F780E20E94200D88E20E946F
:100BA000A00B88E20E94B80C32C00E948B15382F2F
:100BB000F80122818091000190910101222371F0BE
:100BC0003A7A21E009F420E020932401222311F055
:100BD00065E301C069E20E941E1709C0209124014B
:100BE000222311F065E301C069E20E9429170E94E7
:100BF000D7150DC081E08093290180932A01C80197
:100C0000DF91CF911F910F91FF900C94800380E0B2
:100C1000DF91CF911F910F91FF90089580E090E0B8
:100C200008950895880F991F80559D4FFC01859167
:100C300094910895CF93DF930E94D2090E94D70721
:100C4000EC01811520E5920708F041C0C11580E450
:100C5000D80708F028C1C83ED10510F5C03ED1051F
:100C600008F0A1C1C83AD10578F4C53AD10508F019
:100C7000A2C0C130D10509F496C108F447C1C430FF
:100C8000D10508F090C142C1CF3BD10508F49EC008
:100C9000C03CD10508F43AC1CE01805C9109F5C091
:100CA000C11590E2D90758F4C11521E0D20708F028
:100CB0007AC1C03FD10508F429C1D06574C1C115FE
:100CC00080E3D80708F0E5C0CE019F70DEC0C115F3
:100CD00095E5D90708F043C0C11524E5D20708F00F
:100CE000F9C0C11582E5D80708F5C11591E5D90706
:100CF00008F0DCC02C2F237081E090E002C0880F48
:100D0000991F2A95E2F79C689E01F4E03695279595
:100D1000FA95E1F72370922BCF70C695C69520E225
:100D2000C29FE0011124C82BD92B3DC18C2F869581
:100D300086959E0123703327C115D34508F0BBC0AB
:100D400090E2899FE001112481E090E002C0880FC9
:100D5000991F2A95E2F7C82BD92BDC6824C1C1154D
:100D600029E5D207A0F4C11588E5D80708F0B7C077
:100D7000C11596E5D90708F0C9C08C2F0E94530809
:100D80008F71C82FD0E0DC2FCC27D0620CC1C115E9
:100D90002AE5D20708F4A8C0CE01905681159042EA
:100DA00008F0B4C08D2F8F710E945308DD27D062E8
:100DB0008F71D82BF8C0C53AD10509F4AAC0C63A3C
:100DC000D10509F4A9C0C3E8D0E4EDC0C83AD10503
:100DD00009F4A5C0C93AD10509F4A4C0CA3AD1059D
:100DE00009F4A3C0CB3AD10509F4A2C0CC3AD1058D
:100DF00009F4A1C0CB3BD10509F4A0C0CC3BD1057F
:100E000009F49FC0CD3AD10509F49EC0C03BD1057D
:100E100009F49DC0CE3AD10509F49CC0CF3AD10562
:100E200009F49BC0C13BD10509F49AC0C23BD1056E
:100E300009F499C0C33BD10509F498C0C43BD1055E
:100E400009F497C0C53BD10509F496C0C63BD1054E
:100E500009F495C0C73BD10509F494C0C83BD1053E
:100E600009F493C0C93BD10509F492C0CD3BD1052B
:100E700009F491C0CE3BD10509F490C0CA3BD1051D
:100E800009F08FC0CAE2D6E48EC00E941206EC01BF
:100E90008AC0CE019927D3FF03C0EC01D86C83C070
:100EA000EC01D06C80C0DF70D06A7DC0DC2FCC2715
:100EB000C16FD06A78C090E2899FE001112481E07F
:100EC00090E002C0880F991F2A95E2F7C82BD92B12
:100ED000DA6869C0DC2FCC27C46FD06A64C0DC2F0D
:100EE000CC27C06FD06A5FC08C2F8F700E945308D0
:100EF00034E0D695C7953A95E1F7CF70D0E0DC2F76
:100F0000CC27D06A8F70806EC82B4DC0C0E0D0E077
:100F10004AC0C1E8D0E447C0C2E8D0E444C0C2EE51
:100F2000D4E441C0C9EED4E43EC0CAEED4E43BC030
:100F3000C5EBD4E438C0C6EBD4E435C0C3EBD4E48D
:100F400032C0C4EBD4E42FC0C7EBD4E42CC0CCEC4B
:100F5000D4E429C0CDECD4E426C0C3E8D5E423C052
:100F6000CAE8D5E420C0C2E9D5E41DC0C4E9D5E48F
:100F70001AC0C1E2D6E417C0C3E2D6E414C0C4E28A
:100F8000D6E411C0C5E2D6E40EC0C6E2D6E40BC07A
:100F9000C7E2D6E408C0CFE6D4E405C0C0E7D4E495
:100FA00002C0C0E0D4E4CE01DF91CF910895823831
:100FB000910549F1B0F48133910509F459C048F421
:100FC0008932910509F44FC08A32910509F455C060
:100FD00008958533910509F441C08933910599F04D
:100FE0000895833E910531F138F4803E910591F0EA
:100FF000823E9105A9F00895863E910501F1873E54
:10100000910539F108952091CC0120FD3BC021FDCF
:1010100039C008958091CC0180FF34C089E341C07C
:101020008091CC0182FF32C08091CC0184FF2CC022
:1010300080E037C08091CC0182FD28C0F5CF80913F
:10104000CC0183FF25C08091CC0184FDF1CF87EED8
:1010500028C08091CC0183FD1BC0F5CF8091CC01CD
:1010600085FF18C019C08091CC0185FF15C012C042
:101070008091CC0186FF12C013C08091CC0186FF05
:101080000FC00CC080EE0DC083EE0BC082EE09C015
:1010900086EE07C085E305C089E203C081E301C095
:1010A0008AE290E008959091CC0192FF0DC0282F24
:1010B0002871283019F4877F846006C0282F247196
:1010C000243011F48B7F886093FF0DC0282F287186
:1010D000283119F4877E846106C0282F24712431B9
:1010E00011F48B7E886194FD877E0895089508959C
:1010F0006E98ADE0B1E021E030E08D91E82FE2950F
:10110000EF70F0E041A18F70B90102C0660F771F48
:101110008A95E2F7CB01962F9095492341A392A19E
:10112000982B92A371E0A531B70739F710922C01E3
:1011300010922B0181E00E94E8080C944E0450911B
:101140002C0110922C016E9A769880EA8A95F1F71C
:10115000EDE0F1E080E090E071E04191A42FA295F4
:10116000AF70B0E090962C9160912C0130E04F7000
:1011700002C0359527954A95E2F720FD07C0272F35
:10118000082E01C0220F0A94EAF701C020E0262BA6
:1011900020932C01019688309105F9F66E98769A85
:1011A00021E080912C01581301C020E041E06BE266
:1011B00071E08CE291E00E94E9080E94560481E00F
:1011C0000895E82FF0E0E55DFE4F808108950895D1
:1011D0000895FF920F931F93CF93DF93EC01F62EA8
:1011E000072F142F222349F081E080932F010E94C2
:1011F000C41790932E0180932D0180912F01882395
:10120000A9F080912D0190912E010E94DC17069784
:1012100068F09C2FAF2DB02FFE018E2F891B8117F8
:1012200018F481918D93F9CF10922F01DF91CF9116
:101230001F910F91FF90089584E0089550E0440FAE
:10124000551F90E1699F400D511D112490E1899F28
:10125000400D511D1124CA01839608950F931F93C9
:10126000CF93DF930E941E09EC010E940B20082FF0
:1012700010E0102F0027CE0101960E940B2098014C
:10128000282BC901DF91CF911F910F9108950F93E2
:101290001F93CF93DF9300D0CDB7DEB72A83398376
:1012A0000E941E098C013981632F0E9419202A8116
:1012B000622FC80101960F900F90DF91CF911F917F
:1012C0000F910C941920FF920F931F93CF93DF93EC
:1012D000F12C00E010E0C0E0D0E0FE01E00FF11FD3
:1012E000EE0FFF1FE059FE4F259134914C2F60E027
:1012F0008F2D0E9447092196C830D10571F7085FEC
:101300001F4FF39484E0F812E6CFDF91CF911F9145
:101310000F91FF900895EF92FF920F931F93CF9339
:10132000DF937B01EA01E40EF51E8C01C801839670
:10133000CE15DF0561F00034110520F40E940B206A
:10134000888301C0188221960F5F1F4FEFCFDF9176
:10135000CF911F910F91FF90EF900895EF92FF9220
:101360000F931F93CF93DF938B017A01080F191FFF
:10137000EC01E81AF90ACE018396C017D10759F09B
:10138000C034D10530F4F701EC0FFD1F60810E94DD
:1013900019202196F0CFDF91CF911F910F91FF90EF
:1013A000EF900895462F843038F4711105C06830ED
:1013B00018F460E00C942E0980E090E0089580E13C
:1013C00008958DE993E00895EF92FF920F931F9394
:1013D000CF93DF937B01EA01E40EF51E8C01C80177
:1013E0008D599F4FCE15DF0569F00D3923E01207A7
:1013F00020F40E940B20888301C0188221960F5F81
:101400001F4FEDCFDF91CF911F910F91FF90EF9084
:101410000895EF92FF920F931F93CF93DF938B0169
:101420007A01080F191FEC01E81AF90ACE018D594B
:101430009F4FC017D10761F0CD3923E0D20730F4B8
:10144000F701EC0FFD1F60810E9419202196EECF5D
:10145000DF91CF911F910F91FF90EF900895CF935F
:10146000DF93C3E6D0E060E0CE010E941920219610
:10147000C11584E0D807B9F7DF91CF910895FF92A5
:101480000F931F93CF93DF9300D0CDB7DEB7F82E25
:101490008FE08F1530F18FEF93E00E940B208111C8
:1014A00020C003E610E0FF2069F0011584E0180772
:1014B000C1F0C8010E940B20811101C0FA940F5F96
:1014C0001F4FF1CF19821A82C8010E940B20898315
:1014D000882339F0CE0101960E94D9030F5F1F4F78
:1014E000F3CF0F900F90DF91CF911F910F91FF904D
:1014F000089590933501809334010895E09134016B
:10150000F0913501309721F00190F081E02D0994A0
:1015100080E00895E0913401F0913501309799F021
:1015200020910C01222359F02091CC0127FF07C004
:10153000DC012C9111962C93119725E02C930280BD
:10154000F381E02D09940895209132013091330107
:101550008217930771F09093330180933201E091E9
:101560003401F0913501309721F00680F781E02DAC
:101570000994089520913001309131018217930729
:1015800071F09093310180933001E0913401F0913A
:101590003501309721F00084F185E02D09940895FC
:1015A00085B7806885BF85B7806885BF0895089531
:1015B0000E94D00A0C94D70A81E008950E94BB17BC
:1015C0000E9478080C9450180F931F93CF93DF93C9
:1015D000CDB7DEB72B970FB6F894DEBF0FBECDBFE9
:1015E0000E949F080E94DC0A882309F444C080E01E
:1015F0000E94E108109137011827E9F19091A301A9
:1016000091FF04C08B870E94E7088B8520E030E0C3
:10161000412F50E0BA01022E02C0759567950A94D9
:10162000E2F760FF23C02E831F8201E010E002C0BA
:10163000000F111F2A95E2F790E08023912321E00B
:10164000892B09F420E028870E94C4178160782F35
:101650009A8789874E815F8168858A850E946C0B95
:101660008091370180278093370115C02F5F3F4F4E
:101670002830310579F68FEF89838A831B820E9497
:10168000C4178160782F9D838C8349815A816B8137
:101690008D810E946C0B109136010E947E0A1817F2
:1016A00081F00E947E0A809336012B960FB6F89443
:1016B000DEBF0FBECDBFDF91CF911F910F910C9474
:1016C0005B042B960FB6F894DEBF0FBECDBFDF9143
:1016D000CF911F910F910895CF93DF93CDB7DEB7D0
:1016E0002B970FB6F894DEBF0FBECDBF4F83588740
:1016F00069877A878B87DE01119686E0FD0111925A
:101700008A95E9F785E0FE01379601900D928A955A
:10171000E1F749815A816B817C818D819E810E9494
:101720008E122B960FB6F894DEBF0FBECDBFDF91A1
:10173000CF910895FC01808191810E944C150895FC
:10174000882309F414C18238C1F40E947E0A81FD05
:101750000EC169E380910001909101010E941E1762
:101760000E94D7152FEF81EE94E0215080409040E9
:10177000E1F700C0000069E319C08338F9F40E9462
:101780007E0A80FDF4C063E5809100019091010123
:101790000E941E170E94D7152FEF81EE94E0215072
:1017A00080409040E1F700C0000063E580910001B7
:1017B000909101010E9429170C94D7158438C1F427
:1017C0000E947E0A82FDD3C067E48091000190915F
:1017D00001010E941E170E94D7152FEF81EE94E0A1
:1017E000215080409040E1F700C0000067E4DECF68
:1017F0009CEF980F913A40F4682F809100019091EE
:1018000001010E941E17D8CF90E2980F983050F433
:10181000877091E001C0990F8A95EAF7892F0E949D
:101820008E15CACF9BE5980F933070F4853A29F056
:10183000863A31F482E890E005C081E890E002C089
:1018400083E890E00C94A40A98E5980F973108F08B
:101850008EC0883A09F445C0893A09F445C08A3AED
:1018600009F445C08B3A09F445C08C3A09F445C0E7
:101870008B3B09F445C08C3B09F445C08D3A09F413
:1018800045C0803B09F445C08E3A09F445C08F3A03
:1018900009F445C0813B09F445C0823B09F445C0C9
:1018A000833B09F445C0843B09F445C0853B09F4FA
:1018B00045C0863B09F445C0873B09F445C0883BD9
:1018C00009F445C0893B09F445C08D3B09F445C086
:1018D0008E3B09F445C08A3B09F045C08AE292E09C
:1018E00044C082EE90E041C089EE90E03EC08AEEB6
:1018F00090E03BC085EB90E038C086EB90E035C0CF
:1019000083EB90E032C084EB90E02FC087EB90E057
:101910002CC08CEC90E029C08DEC90E026C083E8D0
:1019200091E023C08AE891E020C082E991E01DC0E7
:1019300084E991E01AC081E292E017C083E292E06C
:1019400014C084E292E011C085E292E00EC086E20B
:1019500092E00BC087E292E008C08FE690E005C0FD
:1019600080E790E002C080E090E00C94BA0A08950D
:10197000882309F45DC0823879F40E947E0A81FFD1
:1019800057C069E380910001909101010E941E17E8
:101990000E94D71569E310C08338B1F40E947E0A13
:1019A00080FF46C063E580910001909101010E9493
:1019B0001E170E94D71563E58091000190910101E7
:1019C0000E9429170C94D715843879F40E947E0A56
:1019D00082FF2EC067E480910001909101010E9476
:1019E0001E170E94D71567E4E7CF9CEF980F913A36
:1019F00010F4682FE1CF90E2980F983050F4877080
:101A000091E001C0990F8A95EAF7892F0E949415F9
:101A1000D9CF9BE5980F933020F480E090E00C94B0
:101A2000A40A885A873120F480E090E00C94BA0A26
:101A30000895882321F00E948E150C94D7150895DF
:101A4000882321F00E9494150C94D71508958F9245
:101A50009F92BF92CF92DF92EF92FF920F931F93CC
:101A6000CF93DF9300D0CDB7DEB74C01472FFC01F9
:101A7000C580C2949FE0C922D280DD2031F07983F5
:101A80006A830E94AB156A81498149836A830E94F7
:101A9000841549816A81882389F0DD2079F080E20C
:101AA000860F883058F082E00E9422160E9484152A
:101AB000BB24B394B82649816A8101C0B12CE42EBD
:101AC000E2948FE0E822F12CF701E558FF4F0C94E7
:101AD0000520842F807F142F1F70882311F012950A
:101AE000107FDD20C1F0112309F49AC180E2860F36
:101AF000883010F0611105C0812F6A830E948E1515
:101B000004C0812F6A830E949E156A816A830E94A5
:101B1000D7156A8185C1862F6A830E94B80C6A81B5
:101B2000112309F49EC180E2860F883010F0611104
:101B300004C0812F0E94941503C0812F0E94A41518
:101B40000E94D7158EC1842F807F142F1F70803282
:101B500011F01295107F662319F06130D9F026C07C
:101B6000DD2079F0CC2049F0F1E0CF1206C00E94D0
:101B7000BE15812B0E94C41574C10E94BE15812B15
:101B800004C1CC2021F021E0C21609F46AC10E94F0
:101B9000CD1500C1DD2029F085E08C1508F461C168
:101BA000F3C094E09C1508F45CC1F4C0DD2051F052
:101BB000CC2009F4E9C0F401858180FF31C18F7028
:101BC0008583E2C0CC2009F4E5C03BC1242F2695D3
:101BD0002695237030E02115310521F021303105A3
:101BE00061F03FC1DD2021F0862F942F937002C059
:101BF00080E090E00E94A40A44C1DD2021F0862FFD
:101C0000942F937002C080E090E00E94BA0A39C11C
:101C1000842F837009F04EC0D1102FC1262F22953A
:101C200026952770220F220F862F8F70C82ED12C59
:101C3000E12CF12C022E04C0CC0CDD1CEE1CFF1C90
:101C40000A94D2F764FF10C06FE070E080E090E08B
:101C500004C0660F771F881F991F2A95D2F76095D9
:101C600070958095909503C060E070E0CB01242FC3
:101C700026952695237030E02230310569F0233017
:101C8000310589F06C297D298E299F292130310564
:101C900071F00E94DF13F1C06C297D298E299F29E4
:101CA0000E94F113EAC00E94DF13C701B6010E942F
:101CB000CD13E3C0DD2019F0842F817001C086951B
:101CC000882309F4DAC0262F229526952770220F43
:101CD000220F862F8F70C82ED12CE12CF12C022ED2
:101CE00004C0CC0CDD1CEE1CFF1C0A94D2F764FF70
:101CF00010C06FE070E080E090E004C0660F771FD6
:101D0000881F991F2A95D2F76095709580959095B8
:101D100003C060E070E0CB01242F26952695237048
:101D200030E02230310569F02330310589F06C292B
:101D30007D298E299F292130310571F00E948D1453
:101D40009CC06C297D298E299F290E949F1495C0D3
:101D50000E948D14C701B6010E947B148EC0062F0D
:101D600010E0F801E05EF109E531F10508F054C03A
:101D7000E557FF4F0C940520162F1F70842F8F718D
:101D8000DD2031F00E942614812F0E94190D69C0B8
:101D90000E944114812F0E94200D63C0DD2049F074
:101DA000F4E0FC1508F45DC0842F8F710E9460146C
:101DB00058C025E02C1508F454C0F6CFDD2039F0CA
:101DC000842F8F710E9426144CC0DD20C9F3842F0C
:101DD0008F710E94411445C0DD2029F0842F8F713E
:101DE0000E9417143EC00E9412143BC0DD2051F027
:101DF000142F1F71812F0E94261463E0812F0E94EF
:101E00000D162FC081E00E94221681E08C1548F546
:101E100082E00E94221625C0DD2031F0CC2081F224
:101E2000862F0E94A00B1DC0CC2089F2693349F493
:101E30009FEFE7EEF3E09150E040F040E1F700C0A3
:101E40000000862F0E94B80C0CC04F70C4010E9485
:101E50000E060E943B1315C04F70C4010E9411066C
:101E600010C028E0E216F10441F05CF09AE0E91AB3
:101E7000F108E2E0EE16F10420F40E947E0A0E94CE
:101E80005B04BB20F1F00E94801580FD1AC0F401B4
:101E900012820E947A150E942614C4010E946F0FBC
:101EA0000E947A150F900F90DF91CF911F910F91A3
:101EB000FF90EF90DF90CF90BF909F908F900C9409
:101EC00041140F900F90DF91CF911F910F91FF90D0
:101ED000EF90DF90CF90BF909F908F9008950F93D9
:101EE0001F93CF93DF93EC01288139818B819C81F3
:101EF000892B31F03F3F11F080E003C02F3FE1F725
:101F000081E0811113C0CE010E946D04882371F01D
:101F1000688179818A810E9457158C010E94B114D1
:101F20000E94CA13B801CE010E94270DDF91CF9104
:101F30001F910F9108950E94AB150E94BB150E943E
:101F4000D71580E090E00E94A40A80E090E00C9415
:101F5000BA0A80910001909101010E9434170C94FB
:101F60009B0F0E949B150C94A90FE92FE295EF702F
:101F7000F0E03297EE30F105B8F4E056FF4F0C94E4
:101F80000520803F59F018F4803E70F407C0843F6C
:101F900059F404C0803E10F0813F31F481E008958F
:101FA00093FB882780F9089580E008950E944C15DE
:101FB0000E94B50F0895CF93DF9300D000D01F92F9
:101FC000CDB7DEB70F900F900F900F900F90DF916D
:101FD000CF910895CF93DF9300D000D000D0CDB73C
:101FE000DEB726960FB6F894DEBF0FBECDBFDF91E9
:101FF000CF9108951F93CF93DF93C091390116E0DD
:1020000080913A01C81799F0D0E01C9FF0011D9F04
:10201000F00D1124E55CFE4F408151816281738196
:10202000848195810E94EA0F2196C770E9CFDF91E4
:10203000CF911F91089540916B0150916C01609177
:102040006D0170916E0180916F01909170010C94FF
:10205000EA0FCF938091700182958F7009F05FC075
:1020600080916D01882309F45AC020913901A09113
:102070003A0160916B0170916C0180916E019091B9
:102080006F0131E06F3F09F030E0B32FC6E02A174F
:1020900009F445C0009721F07F3F21F44B2F03C086
:1020A00041E001C040E030E040FD35C0C29FF0019A
:1020B000C39FF00D1124E55CFE4F418174132BC0CA
:1020C0004081641328C04281411125C0438154815D
:1020D0004817590710F441505109481B590B483C07
:1020E0005105C8F4809170018F70806180937001F8
:1020F00086E0829FF001839FF00D1124E05CFE4F8B
:1021000080818F70806180838BE691E00E946F0FE9
:10211000CF910C94FA0F2F5F3F4F2770B8CFCF911C
:102120000895CF92DF92EF92FF920F931F93CF9378
:10213000DF93CDB7DEB762970FB6F894DEBF0FBE60
:10214000CDBF8C0185E0F801DE011D9601900D9256
:102150008A95E1F7D8014C9111965C9111971296EE
:102160006C9112971396ED90FC90149770916B01FF
:10217000E0916C0120916E0130916F0121153105C4
:1021800031F0EF3F31F481E07F3F19F403C081E08B
:1021900001C080E0B82FB170CB2E80FD6BC1D09014
:1021A0006D01DD2009F4F5C0F0917001E216F3062F
:1021B00038F0C701821B930B883C910548F09DC005
:1021C000209530952E0D3F1D283C310508F095C017
:1021D0008F2F807F09F052C0E51314C0741312C012
:1021E000D62E61110FC0FF70F061F09370010E9454
:1021F0001B108BE691E00E946F0F80917001F80137
:1022000085837CC1EF2831F05F3F31F481E04F3F9F
:1022100019F403C081E001C080E080FD03C081E0CB
:10222000862701C080E0F82FF170FF2E80FF1CC0D0
:102230008091390120913A0136E0821709F438C1C2
:1022400090E0389FF001399FF00D1124E55CFE4FBE
:102250007181571306C07081471303C072816713E1
:1022600003C001968770E9CFD62E662309F446C1D4
:102270008091700181608093700155C0E51308C0A2
:10228000741306C0611104C0D8011596FC93AEC04A
:102290004D875E878D859E856A8B0E94D60F6A89E1
:1022A000882329F1D62E662311F120917001822F07
:1022B00082958F7090E002970CF462C080916B0160
:1022C00090916C0198878F831986FB86EA862C870C
:1022D000CE01079653C0E51741F14D875E878D8586
:1022E0009E856A8B0E94D60F6A89811130C0C80111
:1022F0000E946F0FDD24D39401C18F2F807F59F787
:102300007E2DF98AE88A89890E94DB0F8BE691E0AD
:102310000E946F0FEBE6F1E086E0DF011D928A95E7
:10232000E9F70E941B10D12CE9C07413D6CF6111BC
:10233000D4CFD8011596FC93C8010E946F0FEBE62D
:10234000F1E086E0DF011D928A95E9F7D7C0D62E2D
:10235000662369F220917001822F82958F7090E040
:10236000029774F080916B0190916C019A8389833C
:102370001B82FD82EC822E83CE0101960E946F0F9C
:1023800086E0F801ABE6B1E001900D928A95E1F7A5
:102390008AC0E216F30628F0C701821B930B9C014A
:1023A00004C0209530952E0D3F1D283C310508F0C6
:1023B00053C0D62E662309F49ACFE5132CC07413AC
:1023C0002AC08091700180FD1DC0982F92959F704A
:1023D000C9F0D80115968C9315979F3039F09F5FFF
:1023E0009295907F8F70892B15968C93C8010E94CF
:1023F0006F0F86E0F801ABE6B1E001900D928A958F
:10240000E1F753C086E0F801ABE6B1E001900D9230
:102410008A95E1F773C04D875E878D859E850E9402
:10242000D60F882381F096E0F801ABE6B1E0019089
:102430000D929A95E1F78A8B0E9429100E941B1039
:102440008A89D82E5BC08091700181608093700171
:10245000C8010E946F0F52C07E2DF98AE88A8989CF
:102460000E94DB0FEBE6F1E086E0DF011D928A952A
:10247000E9F71BC0662309F43ACF4D875E878D8547
:102480009E850E94D60FD82E882309F430CF86E08F
:10249000F801ABE6B1E001900D928A95E1F78BE689
:1024A00091E00E949A0B0E9429100E941B1026C0E6
:1024B0004D875E878D859E850E944C15292F22951C
:1024C0002F7030E0223031052CF49F7041F08111E3
:1024D00006C00CC0243031052CF49F7049F4805E96
:1024E000883020F0C8010E946F0FCF2CDC2C06C072
:1024F000D80115969C91907F91F7F8CF8D2D62961B
:102500000FB6F894DEBF0FBECDBFDF91CF911F9104
:102510000F91FF90EF90DF90CF9008951F93CF938E
:10252000DF93CDB7DEB72C970FB6F894DEBF0FBEA2
:10253000CDBF4F83588769877A878B879C87CE0169
:1025400007960E9491108823C1F02F8138858A85D3
:102550009B85892B31F03F3F11F080E003C02F3F76
:10256000E1F781E0811147C04F81588569857A85FF
:102570008B859C850E94EA0F3EC086E0FE0137965F
:10258000DE01119601900D928A95E1F7FF81E885B1
:102590004A855B854115510531F0EF3F31F481E00B
:1025A000FF3F19F403C081E001C080E080FD23C03B
:1025B00020913A0130E0C901019687709927609116
:1025C000390170E086179707F1F1F983EA835D839B
:1025D0004C8396E0929FD001939FB00D1124A55C8F
:1025E000BE4FFE01319601900D929A95E1F78093CE
:1025F0003A010E94FA0F16E08091390190913A0158
:10260000891779F1189FC0011124855C9E4F0E94A3
:102610009110882331F1E09139011E9FF0011124BE
:10262000E55CFE4F40815181628173818481958197
:102630000E94EA0F8091390190E0019687709927F6
:1026400080933901D9CF0E94B10F10923A011092B4
:102650003901EBE6F1E086E0DF011D928A95E9F7AA
:10266000CACF2C960FB6F894DEBF0FBECDBFDF9158
:10267000CF911F910895EF92FF920F931F93CF93E5
:10268000DF93FC01009709F46FC0F12CEE24E39472
:10269000EF0121968491843740F4843008F055C0CE
:1026A000813081F0823021F15FC0853709F447C065
:1026B000C0F19CE7980F903708F056C08F770E94C2
:1026C000B80C45C08F010E5F1F4FFE01849190E250
:1026D000980F983050F48770FE2D01C0FF0F8A9537
:1026E000EAF78F2F0E94AE1515C00E94A00B14C0F0
:1026F0008F010E5F1F4FFE01849190E2980F98307A
:1027000068F48770FE2D01C0FF0F8A95EAF78F2FBE
:102710000E94B4150E94D715E80119C00E94B80C98
:10272000FBCFCF010296FE01C491CC2361F0EFE90B
:10273000FFE03197F1F700C00000C150F6CFCF01A4
:102740000296FE01F490EC0102C00E94A00B8F2DB6
:10275000882341F0EFE9FFE03197F1F700C0000076
:102760008150F6CFFE0194CFDF91CF911F910F9151
:10277000FF90EF90089508950C94BB130E94BC1332
:1027800060937A0170937B0180937C0190937D012B
:102790000C949B0F08950C94BE130F931F930091FC
:1027A0007A0110917B0120917C0130917D01602B99
:1027B000712B822B932B1F910F910C94BE130F93AF
:1027C0001F9300917A0110917B0120917C0130913F
:1027D0007D0160237123822393231F910F910C9419
:1027E000BE130F931F9300917A0110917B012091EA
:1027F0007C0130917D0160277127822793271F91EB
:102800000F910C94BE1308950C9403140E940414A9
:1028100060937601709377018093780190937901AA
:102820000C949B0F60E070E0CB010C94061441E027
:1028300050E060E070E004C0440F551F661F771F32
:102840008A95D2F7CB01BA010C94061441E050E00E
:1028500060E070E004C0440F551F661F771F8A9523
:10286000D2F78091760190917701A0917801B09193
:102870007901482B592B6A2B7B2BCB01BA010C9485
:10288000061441E050E060E070E004C0440F551FC2
:10289000661F771F8A95D2F7409550956095709581
:1028A0008091760190917701A0917801B0917901A2
:1028B000482359236A237B23CB01BA010C940614C5
:1028C00041E050E060E070E004C0440F551F661F17
:1028D000771F8A95D2F78091760190917701A09128
:1028E0007801B0917901482759276A277B27CB01C6
:1028F000BA010C9406140F931F9300917601109166
:1029000077012091780130917901602B712B822B16
:10291000932B1F910F910C9406140F931F9300910A
:10292000760110917701209178013091790160232F
:102930007123822393231F910F910C9406140F93FC
:102940001F930091760110917701209178013091C9
:10295000790160277127822793271F910F910C948B
:102960000614089528E0929F800D1124482F469563
:10297000469546958770B1E001C0BB0F8A95EAF78E
:1029800085E0489FA00111244F585E4F80E090E001
:1029900070E0FA01E80FF91FA0819B01082E02C028
:1029A000369527950A94E2F72170332721952A2737
:1029B0002B232A27208301968530910551F708950E
:1029C00028E0929F800D1124682F66956695669584
:1029D000982F977085E0689FB00111246F587E4F43
:1029E00040E050E080E0FB01E40FF51F208130E083
:1029F000092E02C0369527950A94E2F721703327F5
:102A0000042E01C0220F0A94EAF7822B4F5F5F4F1A
:102A10004530510541F70895CF92DF92EF92FF9232
:102A20000F931F93CF93DF93EC01C0907A01D09066
:102A30007B01E0907C01F0907D0180917601909186
:102A40007701A0917801B0917901C82AD92AEA2AA0
:102A5000FB2A0FE110E0B701A601002E04C0769515
:102A60006795579547950A94D2F740FD05C00150E8
:102A7000110988F780E007C0BE01802F0E941A0666
:102A80000197A9F3802FDF91CF911F910F91FF90B4
:102A9000EF90DF90CF900895CF93DF93EC010E94E9
:102AA0000C15BE010E941A06DF91CF9108951F9365
:102AB000CF93DF93EB0190913801992321F0CB0163
:102AC0000E944C1513C0882349F0CB010E940C15BD
:102AD000182F682FCE010E94B21404C0CB010E94AF
:102AE000E014182FBE01812F0E941A06DF91CF91AA
:102AF0001F91089580917E0185958595859508950E
:102B000080917E018770089590917E01977081E099
:102B100009F480E008958091A20108959091A201A6
:102B2000982B9093A201089580959091A2019823EB
:102B30009093A20108951092A20108959091A1018D
:102B4000982B9093A101089580959091A1019823CD
:102B50009093A10108951092A10108959091A00170
:102B6000982B9093A001089580959091A0019823AF
:102B70009093A00108951092A001089580917F0183
:102B8000089508950C94C11590917F01981721F034
:102B900080937F010C94C215089580917F01882352
:102BA00029F010927F0180E00C94C2150895E09105
:102BB0000001F09101018091A2018083E091000168
:102BC000F091010180819091A101892B8083E09196
:102BD0000001F091010180819091A001892B8083F7
:102BE00090917F01992381F0E0910001F091010122
:102BF0008081892B808380910001909101010E9446
:102C0000B11681110E94CD158091000190910101B2
:102C10000C948A0A08950C940A1698E0899F9001F2
:102C20001124622B60937E010E94261480917E0104
:102C30008595859585950C940B1610927E0180E004
:102C40000C940B1640917E018095842380937E0125
:102C5000982F977079F450E0282F332727FD30956F
:102C60004217530739F08595859585950E94411443
:102C70000C941D1608956FEF7FEF80E090E00C94A8
:102C8000372080E090E00E94132021E08D3E9E4F8F
:102C900009F020E0822F089582E090E00C940B2050
:102CA00083E090E00C940B2084E090E00C940B20E7
:102CB000682F84E090E00C941920AB01BC018FE0F8
:102CC00090E00C942B20AB01BC0183E190E00C94CC
:102CD0002B2060E070E0CB010C94631660E070E0A4
:102CE000CB010E945D160C9469166DEE7EEF80E0BC
:102CF00090E00E94372060E082E090E00E9419207E
:102D000060E083E090E00E94192010927A01109216
:102D10007B0110927C0110927D0160E084E090E0E4
:102D20000E94192060E085E090E00E94192060E098
:102D300086E090E00E9419206FEF87E090E00E940B
:102D4000192040E050E0BA0188E090E00E942B207A
:102D500060E08DE090E00E9419200C946E160C94B7
:102D60007516029620910C01211102C026E005C0C3
:102D70002091CC0127FFFACF2EE1FC0180E0215009
:102D800028F091919923D9F38F5FF9CF089520E02E
:102D900030E04FEFFC01E20FF31F5281561799F01C
:102DA0004F3F19F4511101C0422F2F5F3F4F263082
:102DB000310581F74F3F39F0FC01E40FF11D47FD6C
:102DC000FA9562830895089520E030E0FC01E20F57
:102DD000F31F4281461301C012822F5F3F4F2630FE
:102DE0003105A1F70895262F2695269526952E3193
:102DF00070F4FC01E20FF11D677021E030E0062E57
:102E000001C0220F0A94EAF78281822B82830895FF
:102E1000262F2695269526952E3178F4FC01E20F73
:102E2000F11D677021E030E0062E01C0220F0A94E8
:102E3000EAF72095828128232283089520910C01AE
:102E4000222329F02091CC0127FD0C94F3160C9439
:102E5000C71620910C01222329F02091CC0127FDD7
:102E60000C9408170C94E41620910C01FC01329686
:102E7000222331F08091CC0187FF02C08EE101C096
:102E800086E0DF011D928A95E9F7089508950C9474
:102E900046170E9447178091D201843031F1109279
:102EA000A40120E488E190E00FB6F894A8958093FF
:102EB00060000FBE2093600080E00E945B040E94CF
:102EC000471783B7817F846083BF83B7816083BFE7
:102ED0007894889583B78E7F83BF88E10FB6F89486
:102EE00080936000109260000FBE089508950895C9
:102EF0000E9476170E949F080E94771780E00E9428
:102F0000E10891E0811101C090E0892F08950895B2
:102F10000C9487170E94B10F0E947E0A0E945B04E6
:102F20000C9488171F920F920FB60F9211248F9353
:102F30009F93AF93BF938091A401811113C080919F
:102F4000C8019091C901A091CA01B091CB014196ED
:102F5000A11DB11D8093C8019093C901A093CA011E
:102F6000B093CB01BF91AF919F918F910F900FBE06
:102F70000F901F90189582E084BD93E095BD9AEF65
:102F800097BD80936E0008952FB7F8948091C80183
:102F90009091C901A091CA01B091CB012FBF0895B2
:102FA0002FB7F8946091C8017091C9018091CA014E
:102FB0009091CB012FBF0895CF92DF92EF92FF92B5
:102FC0000F931F932FB7F8944091C8015091C901F6
:102FD0006091CA017091CB012FBF6A017B01EE2481
:102FE000FF248C0120E030E0C016D106E206F30693
:102FF00010F441505109481B590BCA011F910F9100
:10300000FF90EF90DF90CF90089578941F920F92E9
:103010000FB60F9211248F939F93AF93BF9380911C
:10302000C8019091C901A091CA01B091CB0101964C
:10303000A11DB11D8093C8019093C901A093CA013D
:10304000B093CB01BF91AF919F918F910F900FBE25
:103050000F901F90189581E08093E00080E28093AC
:10306000D8001092C9008FE19EE40197F1F700C0EB
:10307000000087E090EBDC018093DB019093DC01A2
:10308000A093DD01B093DE012CE088E190E00FB663
:10309000F894A895809360000FBE20936000FFCF46
:1030A0000E944116811102C00E94AF160E944C1668
:1030B0008093A3010E94541690E09093CD018093D9
:1030C000CC010E945016682F70E080E090E00C94D4
:1030D000CB138091C501089508950F931F93CF934B
:1030E000DF9300D01F92CDB7DEB78C010E94101B7A
:1030F000823011F0843019F584E089831B830A83C0
:103100008093E9008FEF9091E800815095FD06C013
:1031100095ED9A95F1F700008111F5CF8091E800C7
:1031200085FF0DC040E050E063E070E0CE01019605
:103130000E942D1B8091E8008E778093E8000F900D
:103140000F900F90DF91CF911F910F910895CF9322
:10315000DF9300D01F92CDB7DEB72091D20124308B
:1031600029F533E03983805891099B838A83209322
:10317000E9008FEF9091E800815095FD06C095ED34
:103180009A95F1F700008111F5CF8091E80085FF55
:103190000DC040E050E063E070E0CE0101960E9477
:1031A0002D1B8091E8008E778093E8000F900F90A0
:1031B0000F90DF91CF910895CF93DF93EC010E94A0
:1031C000101B823011F08430D9F580910C018111EF
:1031D00003C068E081E006C08091CC0187FFF9CF91
:1031E00060E284E08093E9008FEF9091E8008150E5
:1031F00095FD06C095ED9A95F1F700008111F5CF88
:103200008091E80085FF1CC080910C01811105C0F0
:1032100040E050E068E070E003C070E040E050E063
:10322000CE010E942D1B8091E8008E778093E800EC
:1032300080E2FE01A5EAB1E001900D928A95E1F7E6
:10324000DF91CF910895CF93603229F52091D2017B
:10325000243009F52091E9002F703091EC0030FF07
:1032600002C030E801C030E0C32FC22B22E020931F
:10327000E9002091E80020FF0BC040E050E060E250
:1032800070E00E942D1B8091E8008E778093E8000B
:10329000CF70C093E900CF9108958091D101811141
:1032A00009C00E94081D0E94651D8091E200846093
:1032B0008093E20008951092D10108950895089531
:1032C0000C948A1742E061EC81E00E94821C42E289
:1032D00061EC84E00E94821C42E261EC82E00E9488
:1032E000821C42E260EC83E00C94821C8091D40149
:1032F000833009F462C030F4813071F0823009F417
:103300009BC008958A3009F487C08B3009F46DC0E2
:10331000893009F0A9C020C08091D301813A09F019
:10332000A3C08091E800877F8093E8008091D70157
:103330009091D801892B21F060E080E090E003C0FB
:1033400060E285EA91E070E00E94BF1B8091E80096
:103350008B778093E80008958091D301813209F042
:1033600083C08091D7019091D801009719F00297FE
:1033700009F07AC08091E800877F8093E80080910F
:10338000E80082FD05C08091D2018111F8CF6CC0A8
:103390002091F3008091F20090E0922B029729F4A3
:1033A0008091F1008B7F813021F48091F100809336
:1033B000C5018091E8008B7753C08091D301813A99
:1033C00009F052C08091D7019091D801892B09F062
:1033D0004BC08091E800877F8093E8008091E800EF
:1033E00080FFFCCF80910C0136C08091D3018132E7
:1033F000D9F58091D7019091D801892BA9F58091B9
:10340000E800877F8093E8000E94B71C8091D50177
:1034100080930C010C94B10F8091D301813221F57E
:103420008091E800877F8093E8000E94B71C80911C
:10343000D6018093C60108958091D301813AA1F409
:103440008091E800877F8093E8008091E80080FF0A
:10345000FCCF8091C6018093F1008091E8008E77C7
:103460008093E8000C94B71C08951F93CF93DF93CB
:10347000CDB7DEB7A0970FB6F894DEBF0FBECDBFB5
:1034800084B7877F84BF88E10FB6F894809360008B
:10349000109260000FBE80E880936100109261007E
:1034A0000E94D80A0E94081D0E94651D8091E200BA
:1034B00084608093E20078940E94E81F0E94DE0AF4
:1034C00082E091E00E94790A13E08091D201853078
:1034D00069F40E9449178091D0018823B1F30E94BA
:1034E0007817882391F30E94171BEFCF0E94E40AFC
:1034F0008091D201843049F71093E9008091E8006F
:1035000082FFE3CF8091E80085FF0AC040E050E0F1
:1035100060E270E0CE0101960E94761B91E001C04E
:1035200090E08091E8008B778093E800992369F21E
:1035300060E2CE0101960E949102C7CF0C94A01ABE
:10354000292F332723303105A9F06CF421303105C0
:1035500009F448C02230310509F049C08BE590E0FC
:1035600026EF32E048C021323105F9F02232310530
:1035700049F13DC099278130910571F02CF4892BD8
:10358000B1F5E2EFF2E00DC08230910541F0039712
:1035900071F5E0EBF2E005C0EAEDF2E002C0E6EB27
:1035A000F2E0849190E09F0126C063307105F8F449
:1035B000FB01EE0FFF1FE25EFE4F2081318189E0AB
:1035C00090E019C06330710590F4FB01EE0FFF1F0E
:1035D000E85EFE4F20813181FB01EB5EFE4F808172
:1035E00090E009C082E190E021E533E004C080E092
:1035F00090E020E030E0FA013183208308950895BF
:10360000CF93C82F0E94FF1AC093C701CF9108958E
:103610008091D201843011F482E0089581E0089510
:103620008091C701811102C00C94081B089580E1AC
:1036300089BD82E189BD09B400FEFDCF8091D8002B
:103640008F7D8093D8008091E00082608093E000BD
:103650008091E00081FDFCCF0895CF92DF92EF9240
:10366000FF920F931F93CF93DF937C018B01EA01AD
:103670000E94D81C811131C0209731F08881998136
:10368000081B190BE80EF91EC12CD12C01151105D0
:1036900019F18091E80085FD14C08091E8008E77D3
:1036A0008093E800209741F0888199818C0D9D1DC1
:1036B0009983888385E011C00E94D81C882331F348
:1036C0000CC0F70181917F018093F1000150110935
:1036D000FFEFCF1ADF0ADACF80E0DF91CF911F91A1
:1036E0000F91FF90EF90DF90CF900895CF92DF92EF
:1036F000EF92FF920F931F93CF93DF937C018B0187
:10370000EA010E94D81C811131C0209731F08881D4
:103710009981081B190BE80EF91EC12CD12C01153B
:10372000110519F18091E80085FD14C08091E80031
:103730008B778093E800209741F0888199818C0DE8
:103740009D1D9983888385E011C00E94D81C882321
:1037500031F30CC08091F100F70181937F0101509A
:103760001109FFEFCF1ADF0ADACF80E0DF91CF91A6
:103770001F910F91FF90EF90DF90CF9008952091CF
:10378000D9013091DA012617370748F06115710524
:1037900039F42091E8002E772093E80001C0B901A8
:1037A000FC0120E061157105B9F18091D2018823F7
:1037B00009F440C0853009F43FC08091E80083FDE2
:1037C0003DC08091E80082FF06C08091E80082FF42
:1037D00026C080E008958091E80080FFE3CF20912B
:1037E000F3008091F20090E0922B6115710551F089
:1037F0008830910538F421912093F10061507109CE
:103800000196F3CF21E0089709F020E08091E800CD
:103810008E778093E800C6CF2111C7CFD6CF809195
:10382000D201882339F0853039F08091E80083FF98
:10383000CCCF04C082E0089583E0089581E008952C
:103840002091D9013091DA012617370748F0611528
:10385000710539F42091E8002E772093E80001C02B
:10386000B901FC0120E061157105C1F18091D2011F
:10387000882309F441C0853009F440C08091E800F4
:1038800083FD3EC08091E80082FF06C08091E80081
:1038900082FF27C080E008958091E80080FFE3CF99
:1038A0002091F3008091F20090E0922B6115710558
:1038B00059F08830910540F424912093F10031961D
:1038C000615071090196F2CF21E0089709F020E0DC
:1038D0008091E8008E778093E800C5CF2111C6CF94
:1038E000D5CF8091D201882339F0853039F080918D
:1038F000E80083FFCBCF04C082E0089583E0089501
:1039000081E00895982F973058F59093E900981723
:1039100039F07091EC002091ED005091F00003C05F
:10392000242F762F50E021FF19C03091EB003E7F0D
:103930003093EB003091ED003D7F3093ED003091FE
:10394000EB0031603093EB007093EC002093ED00BE
:103950005093F0002091EE0027FF07C09F5FD3CF68
:103960008F708093E90081E0089580E00895809150
:10397000D30187FD05C08091E80080FF0EC012C012
:103980008091E80082FD05C08091D2018111F8CFBD
:1039900008958091E8008B7708C08091D201811151
:1039A000EACF08958091E8008E778093E80008952B
:1039B0008091E4009091E50045E62091EC0020FF25
:1039C00021C02091E80020FD21C02091D2012223B6
:1039D00089F0253089F02091EB0025FD0FC0209162
:1039E000E4003091E5002817390739F3415041F0E0
:1039F000C901E3CF82E0089583E0089581E008954E
:103A000084E008952091E80022FFDFCF80E0089550
:103A10000E94761D0E947E1DE0EEF0E080818160B4
:103A20008083E8EDF0E080818F77808319BCA7ED7B
:103A3000B0E08C918E7F8C9380818F7E80831092FA
:103A4000D10108950F931F93CF93DF930E94761DAA
:103A50000E947E1DC8EDD0E088818F7788838881A1
:103A60008068888388818F7D888319BC1092D201F9
:103A70001092CE011092D0011092CF0100EE10E012
:103A8000F80180818B7F808388818160888342E018
:103A900060E080E00E94821CE1EEF0E080818E7F99
:103AA0008083E2EEF0E080818160808380818860A5
:103AB0008083F80180818E7F808388818061888304
:103AC000DF91CF911F910F910895E8EDF0E0808193
:103AD0008F7E8083E7EDF0E080818160808384E0E9
:103AE00082BF81E08093D1010C94221DE8EDF0E0CB
:103AF00080818E7F80831092E20008951092DA0018
:103B00001092E10008951F920F920FB60F921124A8
:103B10002F933F934F935F936F937F938F939F93D5
:103B2000AF93BF93EF93FF938091E10082FF0BC0AF
:103B30008091E20082FF07C08091E1008B7F80933B
:103B4000E1000E94E71F8091DA0080FF1FC0809192
:103B5000D80080FF1BC08091DA008E7F8093DA004E
:103B60008091D90080FF0DC080E189BD82E189BDCF
:103B700009B400FEFDCF81E08093D2010E944D196F
:103B800005C019BC1092D2010E945B198091E1001E
:103B900080FF19C08091E20080FF15C08091E20093
:103BA0008E7F8093E2008091E20080618093E2004A
:103BB0008091D80080628093D80019BC85E0809302
:103BC000D2010E945F198091E10084FF30C0809192
:103BD000E20084FF2CC080E189BD82E189BD09B487
:103BE00000FEFDCF8091D8008F7D8093D80080911A
:103BF000E1008F7E8093E1008091E2008F7E8093D0
:103C0000E2008091E20081608093E2008091CE0129
:103C1000882311F084E007C08091E30087FF02C091
:103C200083E001C081E08093D2010E9460198091FD
:103C3000E10083FF29C08091E20083FF25C08091CD
:103C4000E100877F8093E10082E08093D2011092AF
:103C5000CE018091E1008E7F8093E1008091E200AF
:103C60008E7F8093E2008091E20080618093E20089
:103C700042E060E080E00E94821C8091F000886059
:103C80008093F0000E945E19FF91EF91BF91AF9178
:103C90009F918F917F916F915F914F913F912F9164
:103CA0000F900FBE0F901F9018951F920F920FB696
:103CB0000F9211242F933F934F935F936F937F93B2
:103CC0008F939F93AF93BF93CF93EF93FF93C09145
:103CD000E900CF708091EC001092E9008091F00033
:103CE000877F8093F00078940E94911E1092E900E3
:103CF0008091F00088608093F000C093E900FF910C
:103D0000EF91CF91BF91AF919F918F917F916F91E3
:103D10005F914F913F912F910F900FBE0F901F9089
:103D200018951F93CF93DF93CDB7DEB7AA970FB641
:103D3000F894DEBF0FBECDBFE3EDF1E08091F1005E
:103D4000819321E0EB3DF207C9F70E94761980913B
:103D5000E80083FF24C12091D3013091D401832F47
:103D600090E08A30910508F01AC1FC01E255FF4F3E
:103D70000C940520203821F0223809F010C108C029
:103D80008091CF019091D001992389F082600FC07A
:103D90008091D7018F70873008F001C18093E900CE
:103DA0008091EB0085FB882780F91092E9009091C3
:103DB000E800977F9093E8008093F1001092F10063
:103DC000CCC0822F8D7F09F0EAC0222319F0223067
:103DD00061F0E5C08091D501813009F0E0C0333059
:103DE00009F080E08093D0012AC08091D501811133
:103DF00026C02091D7012F708FEF820F863008F0F8
:103E0000CEC02093E9008091EB0080FF18C0809124
:103E1000EB00333011F4806210C080618093EB00BE
:103E200081E090E001C0880F2A95EAF78093EA00CC
:103E30001092EA008091EB0088608093EB00109272
:103E4000E9008091E800877F8093E8000E94B71C1A
:103E5000A6C02111A4C01091D5011F778091E30065
:103E60008078812B8093E3008091E800877F8093A6
:103E7000E8000E94B71C8091E80080FFFCCF809191
:103E8000E30080688093E300112311F083E001C018
:103E900082E08093D20183C02058223008F07FC096
:103EA0008091D5019091D6018C3D23E0920779F560
:103EB00083E08A838AE289834FB7F894DE01139600
:103EC00020E03EE051E2E32FF0E050935700E49110
:103ED00020FF03C0E295EF703F5FEF708E2F90E000
:103EE000EA3010F0C79601C0C0968D939D932F5F66
:103EF000243149F74FBF8091E800877F8093E80025
:103F00006AE270E0CE0101960E94BF1B15C060916D
:103F1000D7017091D801AE014F5F5F4F0E949E1A8A
:103F20000097E9F12091E800277F2093E800BC0189
:103F300089819A810E94201C8091E8008B77809370
:103F4000E8002DC0203859F58091E800877F8093E4
:103F5000E8008091CE018093F1008091E8008E7797
:103F600073CF21111CC09091D5019230C0F4809183
:103F7000E800877F8093E8009093CE010E94B71CF1
:103F80008091CE01811104C08091E30087FF02C0BF
:103F900084E001C081E08093D2010E946219809187
:103FA000E80083FF0AC08091E800877F8093E800E3
:103FB0008091EB0080628093EB00AA960FB6F89494
:103FC000DEBF0FBECDBFDF91CF911F910895089541
:103FD000CF938091D2018823B1F08091E9008F7056
:103FE0009091EC0090FF02C090E801C090E0C92FD2
:103FF000C82B1092E9008091E80083FD0E94911E79
:10400000CF70C093E900CF910895EE0FFF1F059088
:10401000F491E02D0994F999FECF92BD81BDF89AF3
:10402000992780B50895A8E1B0E042E050E00C94F3
:104030003F20262FF999FECF92BD81BDF89A0197B6
:1040400000B4021639F01FBA20BD0FB6F894FA9AE0
:10405000F99A0FBE08950396272F0E941A200E94F6
:104060001920252F0E941A20242F0C941A20019623
:10407000272F0E941A200C941920DC01CB01FC018F
:10408000F999FECF06C0F2BDE1BDF89A319600B4B1
:0E4090000D9241505040B8F70895F894FFCFBC
:10409E0080016918DC186C18A7186D1801F4F1323C
:1040AE0036F6F79534402271F60363038503080351
:0440BE003A0321039D
:00000001FF
