:100000000C9428030C946C030C946C030C946C03F8
:100010000C946C030C946C030C946C030C946C03A4
:100020000C946C030C946C030C94BA210C948C22E9
:100030000C94C91B0C946C030C946C030C946C030F
:100040000C946C030C946C030C946C030C946C0374
:100050000C946C030C943C1C0C946C030C946C037B
:100060000C946C030C946C030C946C030C946C0354
:100070000C946C030C946C030C946C030C946C0344
:100080000C9470050C946C030C946C030C946C032E
:100090000C946C030C946C030C946C030C946C0324
:1000A0000C946C030C946C030C946C03F505F8052C
:1000B000720603060B0617067206720672066106C2
:1000C00064061A061D06220630063E06410645064F
:1000D0005306720878087C087F08830887088B0815
:1000E0008F08940898089C08A008A308A708AB08E4
:1000F000AF08B308B8089A119A11D411D411171285
:1001000062136213621339126213E012E012561383
:10011000621362135D13ED12ED12ED12ED12ED128A
:10012000ED12ED12ED12ED12ED12ED12ED12ED12D7
:10013000ED12ED12ED12FF120F1316131D132713FC
:10014000F213F21305140514FB130514051405141A
:10015000F213F2130114051405140114F1221823EB
:10016000062418230624602383230624D923E823A6
:1001700029001E001F00200021002200230024006F
:100180002500260027002D002E002A004A002B0003
:1001900014001A000800150017001C0018000C00BD
:1001A000120013002F00300031004B003900040012
:1001B0001600070009000A000B000D000E000F00DA
:1001C0003300340028002A004E00E10000001D002A
:1001D0001B00060019000500110010003600370052
:1001E0003800E50052004D00E000E300E2000000AE
:1001F000000000002C00000000000000E60001519B
:10020000500051004F0035003A003B003C003D00DB
:100210003E003F00400041004200430044004500D2
:100220004C000100390001005200010001000100F2
:10023000010001004900010046004700480001009C
:1002400001000100500051004F00010001000100B9
:100250000100010001004A004B0001004C000100B8
:100260000100000001000100010001000100AA00DE
:10027000A900A8004D004E0001000100010001008E
:10028000010001000000000000000100000000006B
:100290000000010001000100010001000100010057
:1002A0000100010001000100010001000100010046
:1002B0000100010001000100010001000100010036
:1002C0000100010001000100010001000100010026
:1002D0000100010001000100010001000100010016
:1002E0000100010001000100010001000100010006
:1002F00001000100010001000000010001000100F7
:1003000001000100010001000100010001000100E5
:1003100001000100010001000100000000000000D8
:1003200001000000000000000100010001000100C8
:1003300001000100010001000100010001000100B5
:1003400001000100010001000100010001000100A5
:100350000100010001000100010001000100010095
:100360000100010001000100010001000100010085
:100370000100010001000100010001000100010075
:100380000100010001000100010001000100000066
:100390000100010001000100010001000100010055
:1003A0000100010001000100010001000100010045
:1003B000000000000000010000000000000001003B
:1003C0000100010001000100000000000000000029
:1003D0002A2B2800000000000000000000000000A0
:1003E00000000029000000002C1E342021222434AB
:1003F0002627252E362D3738271E1F20212223247D
:1004000025263333362E37381F0405060708090A18
:100410000B0C0D0E0F101112131415161718191AB4
:100420001B1C1D2F3130232D350405060708090A32
:100430000B0C0D0E0F101112131415161718191A94
:100440001B1C1D2F3130354C000000000000000047
:10045000000000000000000000000000000000009C
:100460000000000000000000000101010101010086
:100470000101010100000000000000000000000078
:100480000000010001000101010101010101010160
:10049000010101010101010101010101010101014C
:1004A0000101010000000101000000000000000047
:1004B000000000000000000000000000000000003C
:1004C00000000001010101000403300000002403CA
:1004D000770069006C00620061002E007400650006
:1004E00063006800200057005400360035002D00DE
:1004F000410000001603770069006C006200610093
:100500002E00740065006300680000000403090405
:1005100009025B00030100A0FA09040000010301C5
:100520000100092111010001224000070581030893
:10053000000A090402000103000000092111010062
:10054000012271000705840320000A09040100024A
:100550000300000009211101000122220007058289
:100560000320000107050303200001120110010010
:1005700000000882655A060100010203010660FFBF
:100580000961A1010962150026FF00952075088107
:10059000020963150026FF00952075089102C00529
:1005A000010980A10185031601002603001A8100BC
:1005B0002A8300751095018100C0050C0901A10175
:1005C0008504160100269C021A01002A9C0275105F
:1005D00095018100C005010906A1018505050719DE
:1005E000E029E71500250195087501810205081924
:1005F0000129059505750191029501750391010584
:1006000007190029EF1500250195F075018102C039
:1006100005010906A101050719E029E715002501D3
:100620009508750181029501750881010508190178
:10063000290595057501910295017503910105073D
:10064000190029FF150026FF00950675088100C0D6
:1006500011241FBECFEFDAE0DEBFCDBF04B603FE2C
:1006600024C08091FB039091FC03A091FD03B09105
:10067000FE038730904BA740B04BB9F41092FB03B8
:100680001092FC031092FD031092FE0314BE84B777
:10069000877F84BF88E10FB6F89480936000109242
:1006A00060000FBEE0E0F8E3099511E0A0E0B1E0E2
:1006B000ECE0F9E402C005900D92A033B107D9F740
:1006C00013E0A0E3B1E001C01D92AB3FB107E1F739
:1006D0000E946C1E0C9484240C9400006093D4033C
:1006E0004093D50324E630E042E050E064ED73E04F
:1006F000880F0C941205FF920F931F93CF93DF93F3
:100700008B01F82EFF0CC0E0D0E0C093D403E5EDE0
:10071000F3E0D801AC0FBD1F8D91819383E0E53EDE
:10072000F807D1F724E630E041E150E064ED73E0F2
:100730008F2D0E9412056096C03CD10531F7DF91E4
:10074000CF911F910F91FF900895CF93DF93C82F02
:1007500045EC6EEF0E946E0340E06DEF8C2F0E941F
:100760006E03D0E040E06D2F8C2F0E946E03DF5FA0
:10077000D831C1F745EC6EEF8C2F0E946E0341E03B
:100780006DEF8C2F0E946E03D0E040E06D2F8C2F18
:100790000E946E03DF5FD03CC1F745EC6EEF8C2FFB
:1007A0000E946E0343E06DEF8C2F0E946E034FEFAB
:1007B00061E08C2F0E946E0341E060E08C2F0E946C
:1007C0006E038FE39CE90197F1F700C00000DF9111
:1007D000CF9108958036910548F4880FE82FF0E016
:1007E000EC5AFD4F608381E08093610108951F936F
:1007F000CF93DF93182FC0E0D0E0612FCE010E948D
:10080000EA032196C036D105C1F7DF91CF911F9140
:100810000895880FE82FE695E695E6958770F0E055
:10082000EF5CFE4F21E030E0082E01C0220F0A9459
:10083000EAF7662321F08081822B808304C0209513
:1008400080812823208381E0809330010895CF9315
:10085000C82F80916101882379F045EC6EEF8C2FD1
:100860000E946E0341E06DEF8C2F0E946E0364E5E1
:1008700072E08C2F0E947B0310926101CF9108954A
:100880000F931F93CF93DF93082F8091300188231C
:10089000A9F045EC6EEF802F0E946E0340E06DEFF3
:1008A000802F0E946E03C1E3D1E010E04991612FD7
:1008B000802F0E946E031F5F1831C1F7DF91CF9127
:1008C0001F910F9108951092B9008CE08093B800A9
:1008D0000895FF920F931F93CF93DF93F82EEB01B0
:1008E0001092BC0084EA8093BC000E94FB1B8C0128
:1008F0008091BC0087FD0EC0CF3F8FEFD807C1F3BA
:100900000E94FB1B801B910B8C179D0788F38EEFB9
:100910009FEF2EC09091B900987F983041F0909150
:10092000B900987F903119F08FEF9FEF21C0F092BE
:10093000BB0084E88093BC000E94FB1B8C0180916B
:10094000BC0087FD0CC0CF3F8FEFD807C1F30E94DA
:10095000FB1B801B910B8C179D0788F3D8CF8091D0
:10096000B900887F883111F08034F1F680E090E0A2
:10097000DF91CF911F910F91FF9008950F931F93D7
:10098000CF93DF93EB018093BB0084E88093BC009E
:100990000E94FB1B8C018091BC0087FD0EC0CF3FE5
:1009A0008FEFD807C1F30E94FB1B801B910B8C17A4
:1009B0009D0788F38EEF9FEF0CC02091B900287F30
:1009C00081E090E0283211F480E090E091958195EB
:1009D0009109DF91CF911F910F9108950F931F936C
:1009E000CF93DF93EC0184E98093BC000E94FB1B52
:1009F0008C018091BC0084FF0EC0CF3F8FEFD807E1
:100A0000C1F30E94FB1B801B910B8C179D0788F381
:100A10008EEF9FEF02C080E090E0DF91CF911F91B9
:100A20000F910895CF92DF92EF92FF920F931F9351
:100A3000CF93DF936B017A018901B9010E946904A8
:100A40000097C1F4E601EC0CFD1CCE15DF0539F072
:100A5000B80189910E94BE040097B9F30BC0C80188
:100A6000DF91CF911F910F91FF90EF90DF90CF908A
:100A70000C94EE04DF91CF911F910F91FF90EF90B6
:100A8000DF90CF900895CF930E94630480E50E9489
:100A9000A503C0E061E08C2F0E940904CF5FC0363F
:100AA000C9F760E080E5CF910C9440048091630128
:100AB00081110FC081E0809363018DE080939100EC
:100AC0008FB7F89493E0909399009DE090939800ED
:100AD0008FBF0895E1E7F0E0808182608083089510
:100AE0001F920F920FB60F9211242F933F934F93A3
:100AF0005F936F937F938F939F93AF93BF93EF9386
:100B0000FF9380916201843120F48F5F80936201B2
:100B100016C08091640190916501A0916601B09129
:100B200067010196A11DB11D809364019093650139
:100B3000A0936601B09367018FEF0E94F703FF91C6
:100B4000EF91BF91AF919F918F917F916F915F9145
:100B50004F913F912F910F900FBE0F901F901895BE
:100B600060E080E50C94270480E290E00E944A2433
:100B70008F31954451F482E290E00E94422491E04A
:100B8000883009F090E0892F01C080E081700895DD
:100B9000CF93C82F882319F06FE175E402C06FEF7F
:100BA0007FEF80E290E00E946E24CC2311F068E099
:100BB00001C06FEF82E290E0CF910C94502480E06E
:100BC0000E94C8050C946C1A1F93CF93DF93EC011D
:100BD000162F488150E0FA013197E331F10508F012
:100BE00081C0EA5AFF4F0C943C24198288E028C047
:100BF0008981813009F076C00E94071C9A838B831B
:100C00007C836D8371C04B816A8189810E94100D44
:100C10009C838D8369C02C8130E0322F22278D8107
:100C2000282B4B816A8189810E94290D5DC00E9419
:100C3000450D5AC00E94DC0D26C00E94DE0D99832E
:100C40008A8352C06B8170E0898190E0982F882759
:100C50002A81AE014C5F5F4F822B0E94E10D44C0A0
:100C60006B8170E0898190E0982F88272A81AE01FE
:100C70004C5F5F4F822B0E94060E36C00E942C0EE6
:100C800033C00E94FE0C89832FC06B8170E0898184
:100C900090E0982F88272A81AE014C5F5F4F822B0E
:100CA0000E94860D21C06B8170E0898190E0982FB1
:100CB00088272A81AE014C5F5F4F822B0E94AA0DCC
:100CC00013C00E94DF0510C00E945A1D2FEF81EE55
:100CD00094E0215080409040E1F700C000000E9465
:100CE000621C02C08FEF8883612FCE01DF91CF910C
:100CF0001F910C945A1D0E94B405811107C00E94D7
:100D0000450D0E942C0E81E00E94C8050E944305FB
:100D10000E9456050C946A050E941D0C8FE19EE40A
:100D20000197F1F700C000008FE19EE40197F1F711
:100D300000C000000E941D0C80E00E94BD0C80FFDE
:100D400004C00E94DF050C94621C08950E948C066A
:100D50000E947B060C94D00B0E94B0050C94D10B22
:100D6000FB0122818031FFE59F0731F081313FE5B2
:100D7000930781F482E001C081E0222319F00E94F0
:100D8000571802C00E94721843E062E081E00E949E
:100D900096070EC0222351F09C0122513F4520317D
:100DA000310520F482510E943C0E02C00C94DC06F6
:100DB00080E0089581E0089581E00895CF93282F81
:100DC00030E0F901E853FC4FC491F901E85BFB4FB7
:100DD0002491222359F081EE0E94D10F8C2F0E9482
:100DE000D10F8C2F0E94E91081EE04C08C2F0E943D
:100DF000D10F8C2FCF910C94E910FF920F931F937A
:100E0000CF93DF93EC01F62E8881882331F18E0198
:100E10000F5F1F4F813031F4C9818C2F0E94D10F99
:100E20008C2F0AC0823029F489810E94D10FE801F9
:100E300008C0833021F489810E94E910F8CF0E9414
:100E4000DE0621968F2D8823F9F2EFE9FFE0319736
:100E5000F1F700C000008150F6CFDF91CF911F91D4
:100E60000F91FF90089560E00C94FD064F925F9201
:100E70006F927F928F929F92AF92BF92CF92DF92AA
:100E8000EF92FF920F931F932B013C01C12CD12CA9
:100E90007601C394D701C60104C0880F991FAA1F09
:100EA000BB1F4A95D2F7AC01BD014601570104C0F2
:100EB000880C991CAA1CBB1C2A95D2F748295929D1
:100EC0006A297B29D701C60104C0880F991FAA1F70
:100ED000BB1F0A95D2F76A017B01C420D520E6200A
:100EE000F720C416D506E606F70639F4BC01CD0195
:100EF00064297529862997290AC0BC01CD0160950E
:100F000070958095909564217521862197211F9178
:100F10000F91FF90EF90DF90CF90BF90AF909F9098
:100F20008F907F906F905F904F9008950F93382F20
:100F3000262F609102027091030280910402909129
:100F40000502042F432F0E9436070F910C94371887
:100F50000E94721A811102C00E94E01A0C94A60627
:100F60000C94AC0608950C94B2070C94B307089542
:100F70000E94E2130E94B7072FEF84E39CE0215008
:100F800080409040E1F700C000000C94621CFF928A
:100F90000F931F93CF93DF938C01FC01C081D1810C
:100FA00080919701811113C08281882349F0CE017D
:100FB0000E943D19F82E682FCE010E94E31804C04C
:100FC000CE010E941119F82EBE018F2D04C0CE0152
:100FD0000E943D19BE010E94CF0DEC01B8010E9494
:100FE000B006882309F46DC1C63DFCE5DF0709F4AE
:100FF000D1C0B0F4C531ECE5DE0768F4C230FCE5E1
:10100000DF0708F04FC0C1158CE5D80701F1C130EA
:10101000DC4529F149C1C631DC4509F420C144C190
:10102000CB3D8CE5D80771F150F4C73DFCE5DF07F7
:1010300009F4D3C0C83DDC4509F4F6C035C1CC3D48
:10104000ECE5DE0731F1CD3DDC45A1F02DC1F80125
:101050008281882309F435C10E94B80732C1F801A2
:101060008281882309F42DC180912F0281608093B1
:101070002F0227C1F8018281882309F422C10E942E
:10108000E01A1FC1F8018281882309F41AC180E0A7
:1010900006C0F8018281882309F413C182E00E940E
:1010A000371F0FC1F8018281882309F402C10E9411
:1010B000721A811102C00E94E01A0E94851A90E003
:1010C0009093ED038093EC03FE01E350FC45E23185
:1010D000F10520F4E759FF4F0C943C248091EC0378
:1010E000816003C08091EC0382608093EC034BC06D
:1010F0008091EC038460F9CF8091EC0313C0809160
:10110000EC038061F2CF8091EC038062EECF80919E
:10111000EC038064EACF8091EC038068E6CF809195
:10112000EC0384608860E1CF8091EC038E7FDDCF9B
:101130008091EC038D7FD9CF8091EC038B7FD5CF4D
:101140008091EC0313C08091EC038F7ECECF809111
:10115000EC038F7DCACF8091EC038F7BC6CF80914B
:10116000EC038F77C2CF8091EC038B7F877FBDCF5D
:101170009091EC0397FB882780F921E0822780FB80
:1011800097F99093EC038091EC030E94891A0E94D6
:10119000E21397C0F8018281882351F010926D010B
:1011A0000E94FB1B90936A018093690182E022C038
:1011B00080916D0181110FC08091690190916A0148
:1011C0000E94131C883C910530F486E20E94D10FE6
:1011D00086E20E94E91082E024C0F801828188231F
:1011E00061F010926E010E94FB1B90936C01809342
:1011F0006B0180E20E944A1164C080916E018111EE
:101200000FC080916B0190916C010E94131C883C6F
:10121000910530F487E20E94D10F87E20E94E91025
:1012200080E20E9451114DC0F80182818111D9CF15
:1012300080916E018111F4CF80916B0190916C01CE
:101240000E94131C883C910558F780E20E945111BE
:1012500088E20E94D10F88E20E94E91032C00E9409
:10126000BC19382FF8012281809100019091010171
:10127000222371F03A7A21E009F420E020936801FA
:10128000222311F065E301C069E20E944F1B09C0EF
:1012900020916801222311F065E301C069E20E94F8
:1012A0005A1B0E94081A0DC081E080936D01809343
:1012B0006E01C801DF91CF911F910F91FF900C94A7
:1012C000DA0680E0DF91CF911F910F91FF90089592
:1012D00080E090E008950895880F991F88539B4FF0
:1012E000FC01859194910895CF93DF930E94CF0DD7
:1012F0000E94310BEC01811520E5920708F041C0F6
:10130000C11580E4D80708F028C1C83ED10510F502
:10131000C03ED10508F0A1C1C83AD10578F4C53A5C
:10132000D10508F0A2C0C130D10509F496C108F476
:1013300047C1C430D10508F090C142C1CF3BD105AF
:1013400008F49EC0C03CD10508F43AC1CE01805CCF
:101350009109F5C0C11590E2D90758F4C11521E0F3
:10136000D20708F07AC1C03FD10508F429C1D06581
:1013700074C1C11580E3D80708F0E5C0CE019F70A5
:10138000DEC0C11595E5D90708F043C0C11524E5B5
:10139000D20708F0F9C0C11582E5D80708F5C115D4
:1013A00091E5D90708F0DCC02C2F237081E090E094
:1013B00002C0880F991F2A95E2F79C689E01F4E00D
:1013C00036952795FA95E1F72370922BCF70C69545
:1013D000C69520E2C29FE0011124C82BD92B3DC144
:1013E0008C2F869586959E0123703327C115D34592
:1013F00008F0BBC090E2899FE001112481E090E0F9
:1014000002C0880F991F2A95E2F7C82BD92BDC68F8
:1014100024C1C11529E5D207A0F4C11588E5D80774
:1014200008F0B7C0C11596E5D90708F0C9C08C2FE0
:101430000E94AD0B8F71C82FD0E0DC2FCC27D0627B
:101440000CC1C1152AE5D20708F4A8C0CE019056F8
:101450008115904208F0B4C08D2F8F710E94AD0BA2
:10146000DD27D0628F71D82BF8C0C53AD10509F4B9
:10147000AAC0C63AD10509F4A9C0C3E8D0E4EDC0BA
:10148000C83AD10509F4A5C0C93AD10509F4A4C0E8
:10149000CA3AD10509F4A3C0CB3AD10509F4A2C0D8
:1014A000CC3AD10509F4A1C0CB3BD10509F4A0C0C9
:1014B000CC3BD10509F49FC0CD3AD10509F49EC0BB
:1014C000C03BD10509F49DC0CE3AD10509F49CC0BA
:1014D000CF3AD10509F49BC0C13BD10509F49AC0AC
:1014E000C23BD10509F499C0C33BD10509F498C0AA
:1014F000C43BD10509F497C0C53BD10509F496C09A
:10150000C63BD10509F495C0C73BD10509F494C089
:10151000C83BD10509F493C0C93BD10509F492C079
:10152000CD3BD10509F491C0CE3BD10509F490C063
:10153000CA3BD10509F08FC0CAE2D6E48EC00E9432
:101540006C09EC018AC0CE019927D3FF03C0EC01DE
:10155000D86C83C0EC01D06C80C0DF70D06A7DC0D5
:10156000DC2FCC27C16FD06A78C090E2899FE00160
:10157000112481E090E002C0880F991F2A95E2F7BC
:10158000C82BD92BDA6869C0DC2FCC27C46FD06A8E
:1015900064C0DC2FCC27C06FD06A5FC08C2F8F70E7
:1015A0000E94AD0B34E0D695C7953A95E1F7CF7020
:1015B000D0E0DC2FCC27D06A8F70806EC82B4DC056
:1015C000C0E0D0E04AC0C1E8D0E447C0C2E8D0E4FF
:1015D00044C0C2EED4E441C0C9EED4E43EC0CAEE79
:1015E000D4E43BC0C5EBD4E438C0C6EBD4E435C08A
:1015F000C3EBD4E432C0C4EBD4E42FC0C7EBD4E4D3
:101600002CC0CCECD4E429C0CDECD4E426C0C3E893
:10161000D5E423C0CAE8D5E420C0C2E9D5E41DC0A2
:10162000C4E9D5E41AC0C1E2D6E417C0C3E2D6E4E7
:1016300014C0C4E2D6E411C0C5E2D6E40EC0C6E2CE
:10164000D6E40BC0C7E2D6E408C0CFE6D4E405C0B8
:10165000C0E7D4E402C0C0E0D4E4CE01DF91CF9172
:1016600008958238910549F1B0F48133910509F468
:1016700059C048F48932910509F44FC08A32910566
:1016800009F455C008958533910509F441C08933A3
:10169000910599F00895833E910531F138F4803E2B
:1016A000910591F0823E9105A9F00895863E91053D
:1016B00001F1873E910539F108952091EC0320FD59
:1016C0003BC021FD39C008958091EC0380FF34C0F8
:1016D00089E341C08091EC0382FF32C08091EC032A
:1016E00084FF2CC080E037C08091EC0382FD28C0CD
:1016F000F5CF8091EC0383FF25C08091EC0384FD3E
:10170000F1CF87EE28C08091EC0383FD1BC0F5CF9D
:101710008091EC0385FF18C019C08091EC0385FF10
:1017200015C012C08091EC0386FF12C013C08091D7
:10173000EC0386FF0FC00CC080EE0DC083EE0BC023
:1017400082EE09C086EE07C085E305C089E203C0CA
:1017500081E301C08AE290E008959091EC0392FF4A
:101760000DC0282F2871283019F4877F846006C0A7
:10177000282F2471243011F48B7F886093FF0DC0D3
:10178000282F2871283119F4877E846106C0282FFC
:101790002471243111F48B7E886194FD877E089535
:1017A00008950895ADE0B1E021E030E08D91E82F9B
:1017B000E295EF70F0E041A18F70B90102C0660FB1
:1017C000771F8A95E2F7CB01962F9095492341A385
:1017D00092A1982B92A371E0AC31B70739F7ACE135
:1017E000B1E021E030E08D91E82FE295EF70F0E07C
:1017F00041A18F70B90102C0660F771F8A95E2F789
:10180000CB01962F9095492341A392A1982B92A3A7
:1018100071E0A132B70739F7E9E7F1E0AFE6B1E0EF
:10182000119211921D921D9281E0E338F807C1F7E1
:1018300085E00E94C70C0C94A8072F923F924F920C
:101840005F926F927F928F929F92AF92BF92CF9250
:10185000DF92EF92FF920F931F93CF93DF936DE090
:10186000E62E61E0F62E80E090E020E0CC24C394E8
:10187000D12CE70149917E01E42FE295EF70F0E071
:1018800031A14F70B60102C0660F771F4A95E2F78B
:10189000AB01362B31A362A1342F3095632362A3B1
:1018A00070EA7A95F1F75601082E02C0AA0CBB1C0B
:1018B0000A94E2F73501609470945CE1252E51E0C2
:1018C000352EA9E7B1E0512C4D016D917C91119716
:1018D000E10149901E01042D02950F7010E0E8010E
:1018E00008A110E0D42DDF700D2E02C015950795CC
:1018F0000A94E2F700FD04C08B010A291B2903C0EA
:101900008B010621172111961C930E931296E40168
:10191000088119816017710711F055245394D1E2A1
:101920002D16D1E03D0681F651A1532351A332A1DA
:10193000342B32A3252901968F30910509F099CFD8
:1019400045E06FE671E089E791E00E94C80C0E94D3
:10195000B00781E0DF91CF911F910F91FF90EF9041
:10196000DF90CF90BF90AF909F908F907F906F90BF
:101970005F904F903F902F900895E82FF0E0EE0F8A
:10198000FF1FE159FE4F80819181089508950895C8
:10199000FF920F931F93CF93DF93D82FC92FF62E6B
:1019A000072F142F222349F081E0809385010E94A4
:1019B000FB1B909384018093830180918501882390
:1019C000B9F080918301909184010E94131C0697C5
:1019D00078F0ED2FFC2FAF2DB02F20E0211731F044
:1019E000819191918D939D932F5FF8CF10928501F6
:1019F000DF91CF911F910F91FF90089584E008959A
:101A000050E0440F551F9EE1699F400D511D112468
:101A100096E9899F400D511D1124CA0183960895AE
:101A20000F931F93CF93DF930E94000DEC010E9450
:101A30004224082F10E0102F0027CE0101960E94AB
:101A400042249801282BC901DF91CF911F910F915A
:101A500008950F931F93CF93DF9300D0CDB7DEB7D8
:101A60002A8339830E94000D8C013981632F0E94E3
:101A700050242A81622FC80101960F900F90DF91A8
:101A8000CF911F910F910C945024AF92BF92CF929F
:101A9000DF92EF92FF920F931F93CF93DF93A12CCE
:101AA000E12CF12CB12C00E010E0C0E0D0E06801A6
:101AB000CE0CDF1CC60180599E4F6C01FE01EE0F5B
:101AC000FF1FEC0DFD1D259134914C2F6B2D8A2DA0
:101AD0000E94290D2196CF30D10581F7025E1F4F5C
:101AE000B39485E0B812E1CF96E9E90EF11CA39416
:101AF00084E0A812D7CFDF91CF911F910F91FF9073
:101B0000EF90DF90CF90BF90AF900895EF92FF924B
:101B10000F931F93CF93DF937B01EA01E40EF51E31
:101B20008C01C8018396CE15DF0569F0083522E0E7
:101B3000120720F40E944224888301C01882219653
:101B40000F5F1F4FEECFDF91CF911F910F91FF904D
:101B5000EF900895EF92FF920F931F93CF93DF932F
:101B60008B017A01080F191FEC01E81AF90ACE015E
:101B70008396C017D10761F0C83522E0D20730F450
:101B8000F701EC0FFD1F60810E9450242196EFCFDA
:101B9000DF91CF911F910F91FF90EF900895462F05
:101BA000843038F4753028F46F3018F4672F0C94B3
:101BB000100D80E090E0089580E1089585E891E0BF
:101BC0000895EF92FF920F931F93CF93DF937B01C2
:101BD000EA01E40EF51E8C01C80185589D4FCE1513
:101BE000DF0569F0053821E0120720F40E94422445
:101BF000888301C0188221960F5F1F4FEDCFDF91C0
:101C0000CF911F910F91FF90EF900895EF92FF9267
:101C10000F931F93CF93DF938B017A01080F191F46
:101C2000EC01E81AF90ACE0185589D4FC017D1077B
:101C300061F0C53821E0D20730F4F701EC0FFD1F49
:101C400060810E9450242196EECFDF91CF911F91A9
:101C50000F91FF90EF900895CF93DF93CBE7D2E001
:101C600060E0CE010E9450242196C11584E0D8077F
:101C7000B9F7DF91CF910895FF920F931F93CF9300
:101C8000DF9300D0CDB7DEB7F82E8FE08F1530F19F
:101C90008FEF93E00E944224811120C00BE712E0F5
:101CA000FF2069F0011584E01807C1F0C8010E9407
:101CB0004224811101C0FA940F5F1F4FF1CF1982A6
:101CC0001A82C8010E9442248983882339F0CE01F8
:101CD00001960E9433070F5F1F4FF3CF0F900F90B5
:101CE000DF91CF911F910F91FF90089590938B01F9
:101CF00080938A010895E0918A01F0918B013097D9
:101D000021F00190F081E02D099480E00895E091A8
:101D10008A01F0918B01309799F020910C012223D8
:101D200059F02091EC0327FF07C0DC012C9111969C
:101D30002C93119725E02C930280F381E02D0994D8
:101D4000089520918801309189018217930771F0DD
:101D50009093890180938801E0918A01F0918B0131
:101D6000309721F00680F781E02D099408952091A5
:101D70008601309187018217930771F09093870154
:101D800080938601E0918A01F0918B01309721F0D8
:101D90000084F185E02D0994089585B7806885BF9A
:101DA00085B7806885BF089508950E94CD0E0C9474
:101DB000D40E81E008950E94F21B0E94D20B0C9475
:101DC000871C5F926F927F928F929F92AF92BF9289
:101DD000CF92DF92EF92FF920F931F93CF93DF93F7
:101DE000CDB7DEB72A970FB6F894DEBF0FBECDBFD2
:101DF0000E941D0C0E94D90E811111C08FEF8983A2
:101E00008A831B820E94FB1B8160782F9D838C83B9
:101E100049815A816B818D810E949D0F57C09DE839
:101E2000C92E91E0D92E00E010E0AA24A394B12C91
:101E3000502E802F0E94BD0C3C01F601E190F190E4
:101E40006F01E826F926E114F10431F40F5F1F4F0A
:101E50000530110569F7D2CF80912F0281FD0E94D4
:101E6000C60C20E030E04501022E02C0880C991C0F
:101E70000A94E2F7C4018E219F21892B09F12E8358
:101E80005F826820792081E0672809F480E08887F4
:101E90000E94FB1B8160782F9A8789874E815F8122
:101EA00068858A850E949D0FF801EE0FFF1FE3579A
:101EB000FE4F80819181882599259183808306C07A
:101EC0002F5F3F4F2F30310571F6C0CF10918C013D
:101ED0000E947B0E1817D9F00E947B0E80938C0114
:101EE0002A960FB6F894DEBF0FBECDBFDF91CF911B
:101EF0001F910F91FF90EF90DF90CF90BF90AF9028
:101F00009F908F907F906F905F900C94B5072A966A
:101F10000FB6F894DEBF0FBECDBFDF91CF911F91FA
:101F20000F91FF90EF90DF90CF90BF90AF909F9078
:101F30008F907F906F905F900895CF93DF93CDB790
:101F4000DEB72B970FB6F894DEBF0FBECDBF4F8321
:101F5000588769877A878B87DE01119686E0FD01B5
:101F600011928A95E9F785E0FE01379601900D926E
:101F70008A95E1F749815A816B817C818D819E81AF
:101F80000E94BF162B960FB6F894DEBF0FBECDBFD2
:101F9000DF91CF910895FC01808191810E947D198C
:101FA0000895882309F414C18238C1F40E947B0E7D
:101FB00081FD0EC169E380910001909101010E94B1
:101FC0004F1B0E94081A2FEF81EE94E021508040B1
:101FD0009040E1F700C0000069E319C08338F9F4CC
:101FE0000E947B0E80FDF4C063E58091000190911A
:101FF00001010E944F1B0E94081A2FEF81EE94E00E
:10200000215080409040E1F700C0000063E58091DE
:102010000001909101010E945A1B0C94081A843807
:10202000C1F40E947B0E82FDD3C067E48091000161
:10203000909101010E944F1B0E94081A2FEF81EE20
:1020400094E0215080409040E1F700C0000067E438
:10205000DECF9CEF980F913A40F4682F80910001F9
:10206000909101010E944F1BD8CF90E2980F9830B9
:1020700050F4877091E001C0990F8A95EAF7892F93
:102080000E94BF19CACF9BE5980F933070F4853A30
:1020900029F0863A31F482E890E005C081E890E0CA
:1020A00002C083E890E00C94A10E98E5980F973158
:1020B00008F08EC0883A09F445C0893A09F445C051
:1020C0008A3A09F445C08B3A09F445C08C3A09F4C0
:1020D00045C08B3B09F445C08C3B09F445C08D3AA3
:1020E00009F445C0803B09F445C08E3A09F445C067
:1020F0008F3A09F445C0813B09F445C0823B09F49D
:1021000045C0833B09F445C0843B09F445C0853B89
:1021100009F445C0863B09F445C0873B09F445C036
:10212000883B09F445C0893B09F445C08D3B09F45F
:1021300045C08E3B09F445C08A3B09F045C08AE2A0
:1021400092E044C082EE90E041C089EE90E03EC053
:102150008AEE90E03BC085EB90E038C086EB90E0E3
:1021600035C083EB90E032C084EB90E02FC087EB6A
:1021700090E02CC08CEC90E029C08DEC90E026C063
:1021800083E891E023C08AE891E020C082E991E0F1
:102190001DC084E991E01AC081E292E017C083E299
:1021A00092E014C084E292E011C085E292E00EC099
:1021B00086E292E00BC087E292E008C08FE690E0F2
:1021C00005C080E790E002C080E090E00C94B70E7C
:1021D0000895882309F45DC0823879F40E947B0E4B
:1021E00081FF57C069E380910001909101010E9435
:1021F0004F1B0E94081A69E310C08338B1F40E9493
:102200007B0E80FF46C063E5809100019091010143
:102210000E944F1B0E94081A63E580910001909173
:1022200001010E945A1B0C94081A843879F40E9408
:102230007B0E82FF2EC067E4809100019091010126
:102240000E944F1B0E94081A67E4E7CF9CEF980F8B
:10225000913A10F4682FE1CF90E2980F983050F443
:10226000877091E001C0990F8A95EAF7892F0E9443
:10227000C519D9CF9BE5980F933020F480E090E00A
:102280000C94A10E885A873120F480E090E00C94E1
:10229000B70E0895882321F00E94BF190C94081AE4
:1022A0000895882321F00E94C5190C94081A0895F6
:1022B0008F929F92BF92CF92DF92EF92FF920F93F5
:1022C0001F93CF93DF9300D0CDB7DEB74C01472FDC
:1022D000FC01C580C2949FE0C922D280DD2031F08C
:1022E00079836A830E94DC196A81498149836A8300
:1022F0000E94B51949816A81882389F0DD2079F02F
:1023000080E2860F883058F082E00E94531A0E94C3
:10231000B519BB24B394B82649816A8101C0B12C98
:10232000E42EE2948FE0E822F12CF701E558FF4F0C
:102330000C943C24842F807F142F1F70882311F06D
:102340001295107FDD20C1F0112309F49AC180E2BB
:10235000860F883010F0611105C0812F6A830E94BA
:10236000BF1904C0812F6A830E94CF196A816A83D2
:102370000E94081A6A8185C1862F6A830E94E9102B
:102380006A81112309F49EC180E2860F883010F023
:10239000611104C0812F0E94C51903C0812F0E94C2
:1023A000D5190E94081A8EC1842F807F142F1F70A8
:1023B000803211F01295107F662319F06130D9F048
:1023C00026C0DD2079F0CC2049F0F1E0CF1206C024
:1023D0000E94EF19812B0E94F51974C10E94EF1918
:1023E000812B04C1CC2021F021E0C21609F46AC17E
:1023F0000E94FE1900C1DD2029F085E08C1508F44B
:1024000061C1F3C094E09C1508F45CC1F4C0DD2008
:1024100051F0CC2009F4E9C0F401858180FF31C17D
:102420008F708583E2C0CC2009F4E5C03BC1242F26
:1024300026952695237030E02115310521F02130B5
:10244000310561F03FC1DD2021F0862F942F93707C
:1024500002C080E090E00E94A10E44C1DD2021F086
:10246000862F942F937002C080E090E00E94B70EF8
:1024700039C1842F837009F04EC0D1102FC1262F8F
:10248000229526952770220F220F862F8F70C82E37
:10249000D12CE12CF12C022E04C0CC0CDD1CEE1C46
:1024A000FF1C0A94D2F764FF10C06FE070E080E078
:1024B00090E004C0660F771F881F991F2A95D2F7F6
:1024C000609570958095909503C060E070E0CB01B9
:1024D000242F26952695237030E02230310569F0AF
:1024E0002330310589F06C297D298E299F292130DF
:1024F000310571F00E941018F1C06C297D298E29D8
:102500009F290E942218EAC00E941018C701B60134
:102510000E94FE17E3C0DD2019F0842F817001C0F6
:102520008695882309F4DAC0262F229526952770F0
:10253000220F220F862F8F70C82ED12CE12CF12C68
:10254000022E04C0CC0CDD1CEE1CFF1C0A94D2F73A
:1025500064FF10C06FE070E080E090E004C0660FA0
:10256000771F881F991F2A95D2F7609570958095DF
:10257000909503C060E070E0CB01242F269526954E
:10258000237030E02230310569F02330310589F0C5
:102590006C297D298E299F292130310571F00E94F7
:1025A000BE189CC06C297D298E299F290E94D018B5
:1025B00095C00E94BE18C701B6010E94AC188EC01B
:1025C000062F10E0F801E05EF109E531F10508F0B1
:1025D00054C0E557FF4F0C943C24162F1F70842FD6
:1025E0008F71DD2031F00E945718812F0E944A110F
:1025F00069C00E947218812F0E94511163C0DD20B2
:1026000049F0F4E0FC1508F45DC0842F8F710E943E
:10261000911858C025E02C1508F454C0F6CFDD20E1
:1026200039F0842F8F710E9457184CC0DD20C9F3F8
:10263000842F8F710E94721845C0DD2029F0842FED
:102640008F710E9448183EC00E9443183BC0DD2095
:1026500051F0142F1F71812F0E94571863E0812FB2
:102660000E943E1A2FC081E00E94531A81E08C150F
:1026700048F582E00E94531A25C0DD2031F0CC20BD
:1026800081F2862F0E94D10F1DC0CC2089F26933C0
:1026900049F49FEFE7EEF3E09150E040F040E1F7BE
:1026A00000C00000862F0E94E9100CC04F70C401CA
:1026B0000E9468090E946C1715C04F70C4010E94E7
:1026C0006B0910C028E0E216F10441F05CF09AE0DA
:1026D000E91AF108E2E0EE16F10420F40E947B0E04
:1026E0000E94B507BB20F1F00E94B11980FD1AC00D
:1026F000F40112820E94AB190E945718C4010E9473
:10270000A0130E94AB190F900F90DF91CF911F91F2
:102710000F91FF90EF90DF90CF90BF909F908F90A0
:102720000C9472180F900F90DF91CF911F910F9121
:10273000FF90EF90DF90CF90BF909F908F90089583
:102740000F931F93CF93DF93EC01288139818B8105
:102750009C81892B31F03F3F11F080E003C02F3F77
:10276000E1F781E0811113C0CE010E94C7078823E1
:1027700071F0688179818A810E9488198C010E9498
:10278000E2180E94FB17B801CE010E945811DF9198
:10279000CF911F910F9108950E94DC190E94EC19AE
:1027A0000E94081A80E090E00E94A10E80E090E074
:1027B0000C94B70E80910001909101010E94651B5D
:1027C0000C94CC130E94CC190C94DA13E92FE295E7
:1027D000EF70F0E03297EE30F105B8F4E056FF4FBD
:1027E0000C943C24803F59F018F4803E70F407C0EC
:1027F000843F59F404C0803E10F0813F31F481E001
:10280000089593FB882780F9089580E008950E9439
:102810007D190E94E6130895CF93DF9300D000D076
:102820001F92CDB7DEB70F900F900F900F900F90C3
:10283000DF91CF910895CF93DF9300D000D000D0E7
:10284000CDB7DEB726960FB6F894DEBF0FBECDBF6C
:10285000DF91CF9108951F93CF93DF93C09198019B
:1028600016E080919901C81799F0D0E01C9FF00103
:102870001D9FF00D1124E656FE4F4081518162816B
:102880007381848195810E941B142196C770E9CFC2
:10289000DF91CF911F9108954091CA015091CB01D2
:1028A0006091CC017091CD018091CE019091CF01CA
:1028B0000C941B14CF938091CF0182958F7009F0F7
:1028C0005FC08091CC01882309F45AC020919801FF
:1028D000A09199016091CA017091CB018091CD01C5
:1028E0009091CE0131E06F3F09F030E0B32FC6E0A8
:1028F0002A1709F445C0009721F07F3F21F44B2FA0
:1029000003C041E001C040E030E040FD35C0C29F5F
:10291000F001C39FF00D1124E656FE4F4181741360
:102920002BC04081641328C04281411125C04381DE
:1029300054814817590710F441505109481B590B4D
:10294000483C5105C8F48091CF018F70806180931D
:10295000CF0186E0829FF001839FF00D1124E156A4
:10296000FE4F80818F70806180838AEC91E00E94AD
:10297000A013CF910C942B142F5F3F4F2770B8CF2B
:10298000CF910895CF92DF92EF92FF920F931F9312
:10299000CF93DF93CDB7DEB762970FB6F894DEBF63
:1029A0000FBECDBF8C0185E0F801DE011D960190C0
:1029B0000D928A95E1F7D8014C9111965C9111978F
:1029C00012966C9112971396ED90FC90149770915B
:1029D000CA01E091CB012091CD013091CE012115AA
:1029E000310531F0EF3F31F481E07F3F19F403C04E
:1029F00081E001C080E0B82FB170CB2E80FD6BC1AB
:102A0000D090CC01DD2009F4F5C0F091CF01E216A1
:102A1000F30638F0C701821B930B883C910548F000
:102A20009DC0209530952E0D3F1D283C310508F0A6
:102A300095C08F2F807F09F052C0E51314C0741326
:102A400012C0D62E61110FC0FF70F061F093CF015C
:102A50000E944C148AEC91E00E94A0138091CF0157
:102A6000F80185837CC1EF2831F05F3F31F481E0CC
:102A70004F3F19F403C081E001C080E080FD03C036
:102A800081E0862701C080E0F82FF170FF2E80FFE3
:102A90001CC0809198012091990136E0821709F4B9
:102AA00038C190E0389FF001399FF00D1124E656AF
:102AB000FE4F7181571306C07081471303C07281A6
:102AC000671303C001968770E9CFD62E662309F4F9
:102AD00046C18091CF0181608093CF0155C0E5133D
:102AE00008C0741306C0611104C0D8011596FC9388
:102AF000AEC04D875E878D859E856A8B0E940714C8
:102B00006A89882329F1D62E662311F12091CF01FD
:102B1000822F82958F7090E002970CF462C08091B2
:102B2000CA019091CB0198878F831986FB86EA862C
:102B30002C87CE01079653C0E51741F14D875E877C
:102B40008D859E856A8B0E9407146A89811130C029
:102B5000C8010E94A013DD24D39401C18F2F807F70
:102B600059F77E2DF98AE88A89890E940C148AEC2B
:102B700091E00E94A013EAECF1E086E0DF011D92F3
:102B80008A95E9F70E944C14D12CE9C07413D6CF72
:102B90006111D4CFD8011596FC93C8010E94A013EF
:102BA000EAECF1E086E0DF011D928A95E9F7D7C0F3
:102BB000D62E662369F22091CF01822F82958F70E5
:102BC00090E0029774F08091CA019091CB019A83B2
:102BD00089831B82FD82EC822E83CE0101960E94A6
:102BE000A01386E0F801AAECB1E001900D928A955D
:102BF000E1F78AC0E216F30628F0C701821B930BA7
:102C00009C0104C0209530952E0D3F1D283C3105B8
:102C100008F053C0D62E662309F49ACFE5132CC0D2
:102C200074132AC08091CF0180FD1DC0982F92950A
:102C30009F70C9F0D80115968C9315979F3039F085
:102C40009F5F9295907F8F70892B15968C93C8010A
:102C50000E94A01386E0F801AAECB1E001900D9269
:102C60008A95E1F753C086E0F801AAECB1E0019043
:102C70000D928A95E1F773C04D875E878D859E859D
:102C80000E940714882381F096E0F801AAECB1E0D5
:102C900001900D929A95E1F78A8B0E945A140E9436
:102CA0004C148A89D82E5BC08091CF0181608093BB
:102CB000CF01C8010E94A01352C07E2DF98AE88A74
:102CC00089890E940C14EAECF1E086E0DF011D9294
:102CD0008A95E9F71BC0662309F43ACF4D875E87D2
:102CE0008D859E850E940714D82E882309F430CF45
:102CF00086E0F801AAECB1E001900D928A95E1F727
:102D00008AEC91E00E94CB0F0E945A140E944C144E
:102D100026C04D875E878D859E850E947D19292F4F
:102D200022952F7030E0223031052CF49F7041F055
:102D3000811106C00CC0243031052CF49F7049F479
:102D4000805E883020F0C8010E94A013CF2CDC2CBC
:102D500006C0D80115969C91907F91F7F8CF8D2DE4
:102D600062960FB6F894DEBF0FBECDBFDF91CF9154
:102D70001F910F91FF90EF90DF90CF9008951F93D8
:102D8000CF93DF93CDB7DEB72C970FB6F894DEBFA5
:102D90000FBECDBF4F83588769877A878B879C8703
:102DA000CE0107960E94C2148823C1F02F81388576
:102DB0008A859B85892B31F03F3F11F080E003C06D
:102DC0002F3FE1F781E0811147C04F815885698528
:102DD0007A858B859C850E941B143EC086E0FE018F
:102DE0003796DE01119601900D928A95E1F7FF81E9
:102DF000E8854A855B854115510531F0EF3F31F497
:102E000081E0FF3F19F403C081E001C080E080FD54
:102E100023C02091990130E0C9010196877099275C
:102E20006091980170E086179707F1F1F983EA83C2
:102E30005D834C8396E0929FD001939FB00D112447
:102E4000A656BE4FFE01319601900D929A95E1F77C
:102E5000809399010E942B1416E080919801909123
:102E60009901891779F1189FC001112486569E4F48
:102E70000E94C214882331F1E09198011E9FF00155
:102E80001124E656FE4F4081518162817381848115
:102E900095810E941B148091980190E001968770A3
:102EA000992780939801D9CF0E94E213109299013B
:102EB00010929801EAECF1E086E0DF011D928A951C
:102EC000E9F7CACF2C960FB6F894DEBF0FBECDBF80
:102ED000DF91CF911F910895EF92FF920F931F936F
:102EE000CF93DF93FC01009709F46FC0F12CEE241F
:102EF000E394EF0121968491843740F4843008F004
:102F000055C0813081F0823021F15FC0853709F4EE
:102F100047C0C0F19CE7980F903708F056C08F77F4
:102F20000E94E91045C08F010E5F1F4FFE01849182
:102F300090E2980F983050F48770FE2D01C0FF0F7B
:102F40008A95EAF78F2F0E94DF1915C00E94D10FD2
:102F500014C08F010E5F1F4FFE01849190E2980F05
:102F6000983068F48770FE2D01C0FF0F8A95EAF74C
:102F70008F2F0E94E5190E94081AE80119C00E94CB
:102F8000E910FBCFCF010296FE01C491CC2361F082
:102F9000EFE9FFE03197F1F700C00000C150F6CF34
:102FA000CF010296FE01F490EC0102C00E94D10F05
:102FB0008F2D882341F0EFE9FFE03197F1F700C052
:102FC00000008150F6CFFE0194CFDF91CF911F9189
:102FD0000F91FF90EF90089508950C94EC170E94C4
:102FE000ED17609306027093070280930802909396
:102FF00009020C94CC1308950C94EF170F931F93B0
:1030000000910602109107022091080230910902F6
:10301000602B712B822B932B1F910F910C94EF1728
:103020000F931F930091060210910702209108024E
:103030003091090260237123822393231F910F9102
:103040000C94EF170F931F93009106021091070243
:103050002091080230910902602771278227932767
:103060001F910F910C94EF1708950C9434180E943F
:1030700035186093020270930302809304029093C8
:1030800005020C94CC1360E070E0CB010C9437186F
:1030900041E050E060E070E004C0440F551F661F3F
:1030A000771F8A95D2F7CB01BA010C94371841E00B
:1030B00050E060E070E004C0440F551F661F771FAA
:1030C0008A95D2F78091020290910302A0910402A6
:1030D000B0910502482B592B6A2B7B2BCB01BA01EF
:1030E0000C94371841E050E060E070E004C0440FF9
:1030F000551F661F771F8A95D2F7409550956095AA
:1031000070958091020290910302A0910402B09107
:103110000502482359236A237B23CB01BA010C946F
:10312000371841E050E060E070E004C0440F551FE4
:10313000661F771F8A95D2F7809102029091030251
:10314000A0910402B0910502482759276A277B27DE
:10315000CB01BA010C9437180F931F930091020210
:10316000109103022091040230910502602B712B13
:10317000822B932B1F910F910C9437180F931F9351
:103180000091020210910302209104023091050285
:1031900060237123822393231F910F910C9437187E
:1031A0000F931F93009102021091030220910402D9
:1031B0003091050260277127822793271F910F9175
:1031C0000C94371808952FE0929F800D1124482FFA
:1031D0004695469546958770B1E001C0BB0F8A952C
:1031E000EAF785E0489FA001112440535E4F80E03C
:1031F00090E070E0FA01E80FF91FA0819B01082E12
:1032000002C0369527950A94E2F72170332721955D
:103210002A272B232A27208301968530910551F7F1
:1032200008952FE0929F800D1124682F6695669572
:103230006695982F977085E0689FB00111246053C0
:103240007E4F40E050E080E0FB01E40FF51F20815D
:1032500030E0092E02C0369527950A94E2F72170D6
:103260003327042E01C0220F0A94EAF7822B4F5F06
:103270005F4F4530510541F70895CF92DF92EF92AD
:10328000FF920F931F93CF93DF93EC01C090060240
:10329000D0900702E0900802F090090280910202AB
:1032A00090910302A0910402B0910502C82AD92A84
:1032B000EA2AFB2A0FE110E0B701A601002E04C0A4
:1032C00076956795579547950A94D2F740FD05C0C6
:1032D0000150110988F780E007C0BE01802F0E94CD
:1032E00074090197A9F3802FDF91CF911F910F915E
:1032F000FF90EF90DF90CF900895CF93DF93EC0194
:103300000E943D19BE010E947409DF91CF9108957A
:103310001F93CF93DF93EB0190919701992321F0B5
:10332000CB010E947D1913C0882349F0CB010E9474
:103330003D19182F682FCE010E94E31804C0CB015D
:103340000E941119182FBE01812F0E947409DF916C
:10335000CF911F91089580910A0285958595859555
:10336000089580910A028770089590910A029770DB
:1033700081E009F480E0089580912E0208959091F3
:103380002E02982B90932E020895809590912E02F4
:10339000982390932E02089510922E0208959091F2
:1033A0002D02982B90932D020895809590912D02D7
:1033B000982390932D02089510922D0208959091D4
:1033C0002C02982B90932C020895809590912C02BA
:1033D000982390932C02089510922C0208958091C6
:1033E0000B02089508950C94F21990910B0298170E
:1033F00021F080930B020C94F319089580910B0235
:10340000882329F010920B0280E00C94F3190895A0
:10341000E0910001F091010180912E028083E09102
:103420000001F0910101808190912D02892B808310
:10343000E0910001F0910101808190912C02892B93
:10344000808390910B02992381F0E0910001F0912B
:1034500001018081892B808380910001909101017D
:103460000E94E21A81110E94FE1980910001909140
:1034700001010C94870E08950C943B1A98E0899FE3
:1034800090011124622B60930A020E9457188091C8
:103490000A028595859585950C943C1A10920A022E
:1034A00080E00C943C1A40910A028095842380931A
:1034B0000A02982F977079F450E0282F332727FDC0
:1034C00030954217530739F08595859585950E946B
:1034D00072180C944E1A08956FEF7FEF80E090E021
:1034E0000C946E2480E090E00E944A2421E08D3EFE
:1034F0009E4F09F020E0822F089582E090E00C9426
:10350000422483E090E00C94422484E090E00C9408
:103510004224682F84E090E00C945024AB01BC015D
:103520008FE090E00C946224AB01BC0183E190E059
:103530000C94622460E070E0CB010C94941A60E07B
:1035400070E0CB010E948E1A0C949A1A6DEE7EEFF9
:1035500080E090E00E946E2460E082E090E00E94B3
:10356000502460E083E090E00E9450241092060214
:1035700010920702109208021092090260E084E0A3
:1035800090E00E94502460E085E090E00E9450248A
:1035900060E086E090E00E9450246FEF87E090E0CA
:1035A0000E94502440E050E0BA0188E090E00E9480
:1035B000622460E08DE090E00E9450240C949F1AF9
:1035C0000C94A61A029620910C01211102C026E04B
:1035D00005C02091EC0327FFFACF2EE1FC0180E02B
:1035E000215028F091919923D9F38F5FF9CF089555
:1035F00020E030E04FEFFC01E20FF31F528156173D
:1036000099F04F3F19F4511101C0422F2F5F3F4FE6
:103610002630310581F74F3F39F0FC01E40FF11DF1
:1036200047FDFA9562830895089520E030E0FC019B
:10363000E20FF31F4281461301C012822F5F3F4FFA
:1036400026303105A1F70895262F26952695269533
:103650002E3170F4FC01E20FF11D677021E030E0C3
:10366000062E01C0220F0A94EAF78281822B828300
:103670000895262F2695269526952E3178F4FC015F
:10368000E20FF11D677021E030E0062E01C0220F2D
:103690000A94EAF7209582812823228308952091B5
:1036A0000C01222329F02091EC0327FD0C94241B0C
:1036B0000C94F81A20910C01222329F02091EC039C
:1036C00027FD0C94391B0C94151B20910C01FC0157
:1036D0003296222331F08091EC0387FF02C08EE105
:1036E00001C086E0DF011D928A95E9F708950895EB
:1036F0000C94771B0E94781B8091F203843031F187
:103700001092300220E488E190E00FB6F894A8957A
:10371000809360000FBE2093600080E00E94B50798
:103720000E94781B83B7817F846083BF83B78160E9
:1037300083BF7894889583B78E7F83BF88E10FB667
:10374000F89480936000109260000FBE0895089571
:103750000895CF930E94A71B0E941D0C0E94A81BD6
:10376000C0E08C2F0E94BD0C892B29F4CF5FC5309F
:10377000C1F780E001C081E0CF91089508950C94D5
:10378000BE1B0E94E2130E947B0E0E94B5070C94A0
:10379000BF1B1F920F920FB60F9211248F939F930E
:1037A000AF93BF9380913002811113C08091E803E1
:1037B0009091E903A091EA03B091EB034196A11D1A
:1037C000B11D8093E8039093E903A093EA03B093BB
:1037D000EB03BF91AF919F918F910F900FBE0F9010
:1037E0001F90189582E084BD93E095BD9AEF97BD38
:1037F00080936E0008952FB7F8948091E80390911C
:10380000E903A091EA03B091EB032FBF08952FB70E
:10381000F8946091E8037091E9038091EA03909134
:10382000EB032FBF0895CF92DF92EF92FF920F9399
:103830001F932FB7F8944091E8035091E9036091EA
:10384000EA037091EB032FBF6A017B01EE24FF2492
:103850008C0120E030E0C016D106E206F30610F439
:1038600041505109481B590BCA011F910F91FF90FC
:10387000EF90DF90CF90089578941F920F920FB63B
:103880000F9211248F939F93AF93BF938091E8037E
:103890009091E903A091EA03B091EB030196A11D79
:1038A000B11D8093E8039093E903A093EA03B093DA
:1038B000EB03BF91AF919F918F910F900FBE0F902F
:1038C0001F90189581E08093E00080E28093D800FB
:1038D0001092C9008FE19EE40197F1F700C000004B
:1038E00087E090EBDC018093FB039093FC03A093B3
:1038F000FD03B093FE032CE088E190E00FB6F8944E
:10390000A895809360000FBE20936000FFCF0E94B7
:10391000721A811102C00E94E01A0E947D1A8093DF
:103920002F020E94851A90E09093ED038093EC03A0
:103930000E94811A682F70E080E090E00C94FC17E0
:1039400080915102089508950F931F93CF93DF93B1
:1039500000D01F92CDB7DEB78C010E94471F823086
:1039600011F0843019F584E089831B830A838093E6
:10397000E9008FEF9091E800815095FD06C095ED2C
:103980009A95F1F700008111F5CF8091E80085FF4D
:103990000DC040E050E063E070E0CE0101960E946F
:1039A000641F8091E8008E778093E8000F900F905D
:1039B0000F90DF91CF911F910F910895CF93DF93D7
:1039C00000D01F92CDB7DEB72091F203243029F545
:1039D00033E03983805891099B838A832093E900DF
:1039E0008FEF9091E800815095FD06C095ED9A9576
:1039F000F1F700008111F5CF8091E80085FF0DC03F
:103A000040E050E063E070E0CE0101960E94641F48
:103A10008091E8008E778093E8000F900F900F90D0
:103A2000DF91CF910895CF93DF93EC010E94471F60
:103A3000823011F08430D9F580910C01811103C0DE
:103A400068E081E006C08091EC0387FFF9CF60E277
:103A500084E08093E9008FEF9091E800815095FD1C
:103A600006C095ED9A95F1F700008111F5CF809190
:103A7000E80085FF1CC080910C01811105C040E069
:103A800050E068E070E003C070E040E050E0CE013C
:103A90000E94641F8091E8008E778093E80080E2A6
:103AA000FE01A1E3B2E001900D928A95E1F7DF916A
:103AB000CF910895CF93603229F52091F2032430FD
:103AC00009F52091E9002F703091EC0030FF02C021
:103AD00030E801C030E0C32FC22B22E02093E90080
:103AE0002091E80020FF0BC040E050E060E270E071
:103AF0000E94641F8091E8008E778093E800CF7069
:103B0000C093E900CF9108958091F103811109C01C
:103B10000E943F210E949C218091E200846080935A
:103B2000E20008951092F1030895089508950C9409
:103B3000C11B42E061EC81E00E94B92042E261ECED
:103B400084E00E94B92042E261EC82E00E94B92048
:103B500042E260EC83E00C94B9208091F40383305E
:103B600009F462C030F4813071F0823009F49BC0F6
:103B700008958A3009F487C08B3009F46DC089300C
:103B800009F0A9C020C08091F303813A09F0A3C0D5
:103B90008091E800877F8093E8008091F7039091FF
:103BA000F803892B21F060E080E090E003C060E240
:103BB00081E392E070E00E94F61F8091E8008B772D
:103BC0008093E80008958091F303813209F083C067
:103BD0008091F7039091F803009719F0029709F08C
:103BE0007AC08091E800877F8093E8008091E800A8
:103BF00082FD05C08091F2038111F8CF6CC0209145
:103C0000F3008091F20090E0922B029729F48091CA
:103C1000F1008B7F813021F48091F100809351027B
:103C20008091E8008B7753C08091F303813A09F0CB
:103C300052C08091F7039091F803892B09F04BC093
:103C40008091E800877F8093E8008091E80080FF02
:103C5000FCCF80910C0136C08091F3038132D9F5FD
:103C60008091F7039091F803892BA9F58091E800E2
:103C7000877F8093E8000E94EE208091F503809377
:103C80000C010C94E2138091F303813221F58091B1
:103C9000E800877F8093E8000E94EE208091F60381
:103CA0008093520208958091F303813AA1F48091A8
:103CB000E800877F8093E8008091E80080FFFCCFD8
:103CC000809152028093F1008091E8008E7780937A
:103CD000E8000C94EE2008951F93CF93DF93CDB7A7
:103CE000DEB7A0970FB6F894DEBF0FBECDBF84B786
:103CF000877F84BF88E10FB6F894809360001092AC
:103D000060000FBE80E880936100109261000E9405
:103D1000D50E0E943F210E949C218091E200846088
:103D20008093E20078940E941F240E94DB0E82E0C0
:103D300091E00E94760E13E08091F203853069F4E1
:103D40000E947A1B8091F0038823B1F30E94A91B83
:103D5000882391F30E944E1FEFCF0E94E10E8091C5
:103D6000F203843049F71093E9008091E80082FF64
:103D7000E3CF8091E80085FF0AC040E050E060E2B8
:103D800070E0CE0101960E94AD1F91E001C090E06D
:103D90008091E8008B778093E800992369F260E2D4
:103DA000CE0101960E94E405C7CF0C94D71E292F9F
:103DB000332723303105A9F06CF42130310509F4A3
:103DC00048C02230310509F049C08BE590E020E180
:103DD00035E048C021323105F9F02232310549F190
:103DE0003DC099278130910571F02CF4892BB1F5F4
:103DF000ECE0F5E00DC08230910541F0039771F5DC
:103E0000E8ECF4E005C0E4EFF4E002C0EEECF4E02E
:103E1000849190E09F0126C063307105F8F4FB01A6
:103E2000EE0FFF1FE65DFE4F2081318189E090E0BB
:103E300019C06330710590F4FB01EE0FFF1FEC5DBC
:103E4000FE4F20813181FB01EF5DFE4F808190E0CC
:103E500009C082E190E02BE635E004C080E090E00C
:103E600020E030E0FA013183208308950895CF9354
:103E7000C82F0E94361FC0935302CF91089580919E
:103E8000F203843011F482E0089581E00895809176
:103E90005302811102C00C943F1F089580E189BD37
:103EA00082E189BD09B400FEFDCF8091D8008F7DED
:103EB0008093D8008091E00082608093E000809140
:103EC000E00081FDFCCF0895CF92DF92EF92FF9248
:103ED0000F931F93CF93DF937C018B01EA010E9424
:103EE0000F21811131C0209731F088819981081B01
:103EF000190BE80EF91EC12CD12C0115110519F171
:103F00008091E80085FD14C08091E8008E77809351
:103F1000E800209741F0888199818C0D9D1D99833F
:103F2000888385E011C00E940F21882331F30CC0E3
:103F3000F70181917F018093F10001501109FFEF9A
:103F4000CF1ADF0ADACF80E0DF91CF911F910F9176
:103F5000FF90EF90DF90CF900895CF92DF92EF9295
:103F6000FF920F931F93CF93DF937C018B01EA01A4
:103F70000E940F21811131C0209731F088819981F1
:103F8000081B190BE80EF91EC12CD12C01151105C7
:103F900019F18091E80085FD14C08091E8008B77CD
:103FA0008093E800209741F0888199818C0D9D1DB8
:103FB0009983888385E011C00E940F21882331F303
:103FC0000CC08091F100F70181937F01015011092C
:103FD000FFEFCF1ADF0ADACF80E0DF91CF911F9198
:103FE0000F91FF90EF90DF90CF9008952091F9030B
:103FF0003091FA032617370748F06115710539F437
:104000002091E8002E772093E80001C0B901FC015F
:1040100020E061157105B9F18091F203882309F45C
:1040200040C0853009F43FC08091E80083FD3DC069
:104030008091E80082FF06C08091E80082FF26C0E0
:1040400080E008958091E80080FFE3CF2091F300A5
:104050008091F20090E0922B6115710551F088304B
:10406000910538F421912093F10061507109019676
:10407000F3CF21E0089709F020E08091E8008E77E7
:104080008093E800C6CF2111C7CFD6CF8091F2032D
:10409000882339F0853039F08091E80083FFCCCF58
:1040A00004C082E0089583E0089581E0089520919E
:1040B000F9033091FA032617370748F061157105A7
:1040C00039F42091E8002E772093E80001C0B9016F
:1040D000FC0120E061157105C1F18091F203882394
:1040E00009F441C0853009F440C08091E80083FDA7
:1040F0003EC08091E80082FF06C08091E80082FF08
:1041000027C080E008958091E80080FFE3CF2091F0
:10411000F3008091F20090E0922B6115710559F047
:104120008830910540F424912093F100319661503C
:1041300071090196F2CF21E0089709F020E0809103
:10414000E8008E778093E800C5CF2111C6CFD5CF88
:104150008091F203882339F0853039F08091E800AE
:1041600083FFCBCF04C082E0089583E0089581E00F
:104170000895982F973058F59093E900981739F0E3
:104180007091EC002091ED005091F00003C0242FBD
:10419000762F50E021FF19C03091EB003E7F309325
:1041A000EB003091ED003D7F3093ED003091EB005E
:1041B00031603093EB007093EC002093ED0050934E
:1041C000F0002091EE0027FF07C09F5FD3CF8F70D4
:1041D0008093E90081E0089580E008958091F303E1
:1041E00087FD05C08091E80080FF0EC012C080915D
:1041F000E80082FD05C08091F2038111F8CF089597
:104200008091E8008B7708C08091F2038111EACF9A
:1042100008958091E8008E778093E800089580915A
:10422000E4009091E50045E62091EC0020FF21C0DC
:104230002091E80020FD21C02091F203222389F083
:10424000253089F02091EB0025FD0FC02091E4007E
:104250003091E5002817390739F3415041F0C90181
:10426000E3CF82E0089583E0089581E0089584E03B
:1042700008952091E80022FFDFCF80E008950E949A
:10428000AD210E94B521E0EEF0E080818160808365
:10429000E8EDF0E080818F77808319BCA7EDB0E076
:1042A0008C918E7F8C9380818F7E80831092F1031E
:1042B00008950F931F93CF93DF930E94AD210E9427
:1042C000B521C8EDD0E088818F77888388818068A8
:1042D000888388818F7D888319BC1092F2031092A5
:1042E000EE031092F0031092EF0300EE10E0F801DD
:1042F00080818B7F808388818160888342E060E059
:1043000080E00E94B920E1EEF0E080818E7F808322
:10431000E2EEF0E08081816080838081886080832C
:10432000F80180818E7F8083888180618883DF911E
:10433000CF911F910F910895E8EDF0E080818F7E7D
:104340008083E7EDF0E080818160808384E082BF3C
:1043500081E08093F1030C945921E8EDF0E0808135
:104360008E7F80831092E20008951092DA001092FE
:10437000E10008951F920F920FB60F9211242F9310
:104380003F934F935F936F937F938F939F93AF93DD
:10439000BF93EF93FF938091E10082FF0BC0809168
:1043A000E20082FF07C08091E1008B7F8093E100F3
:1043B0000E941E248091DA0080FF1FC08091D800E7
:1043C00080FF1BC08091DA008E7F8093DA0080919D
:1043D000D90080FF0DC080E189BD82E189BD09B4AB
:1043E00000FEFDCF81E08093F2030E94841D05C092
:1043F00019BC1092F2030E94921D8091E10080FF8F
:1044000019C08091E20080FF15C08091E2008E7F8C
:104410008093E2008091E20080618093E2008091CD
:10442000D80080628093D80019BC85E08093F203A5
:104430000E94961D8091E10084FF30C08091E200CF
:1044400084FF2CC080E189BD82E189BD09B400FEF2
:10445000FDCF8091D8008F7D8093D8008091E100BE
:104460008F7E8093E1008091E2008F7E8093E20056
:104470008091E20081608093E2008091EE038823C6
:1044800011F084E007C08091E30087FF02C083E061
:1044900001C081E08093F2030E94971D8091E100AA
:1044A00083FF29C08091E20083FF25C08091E10055
:1044B000877F8093E10082E08093F2031092EE0305
:1044C0008091E1008E7F8093E1008091E2008E7FF9
:1044D0008093E2008091E20080618093E20042E0FC
:1044E00060E080E00E94B9208091F00088608093B5
:1044F000F0000E94951DFF91EF91BF91AF919F91A8
:104500008F917F916F915F914F913F912F910F907C
:104510000FBE0F901F9018951F920F920FB60F921B
:1045200011242F933F934F935F936F937F938F93B8
:104530009F93AF93BF93CF93EF93FF93C091E90005
:10454000CF708091EC001092E9008091F000877F9D
:104550008093F00078940E94C8221092E900809124
:10456000F00088608093F000C093E900FF91EF9124
:10457000CF91BF91AF919F918F917F916F915F91FB
:104580004F913F912F910F900FBE0F901F90189554
:104590001F93CF93DF93CDB7DEB7AA970FB6F894EA
:1045A000DEBF0FBECDBFE3EFF3E08091F10081935A
:1045B00023E0EB3FF207C9F70E94AD1D8091E800B0
:1045C00083FF24C12091F3033091F403832F90E003
:1045D0008A30910508F01AC1FC01E255FF4F0C9496
:1045E0003C24203821F0223809F010C108C0809105
:1045F000EF039091F003992389F082600FC08091BE
:10460000F7038F70873008F001C18093E900809133
:10461000EB0085FB882780F91092E9009091E80073
:10462000977F9093E8008093F1001092F100CCC046
:10463000822F8D7F09F0EAC0222319F0223061F029
:10464000E5C08091F503813009F0E0C0333009F016
:1046500080E08093F0032AC08091F503811126C089
:104660002091F7032F708FEF820F863008F0CEC0B5
:104670002093E9008091EB0080FF18C08091EB004F
:10468000333011F4806210C080618093EB0081E0D0
:1046900090E001C0880F2A95EAF78093EA00109213
:1046A000EA008091EB0088608093EB001092E900B3
:1046B0008091E800877F8093E8000E94EE20A6C0EA
:1046C0002111A4C01091F5031F778091E300807839
:1046D000812B8093E3008091E800877F8093E8003E
:1046E0000E94EE208091E80080FFFCCF8091E300E3
:1046F00080688093E300112311F083E001C082E021
:104700008093F20383C02058223008F07FC080914C
:10471000F5039091F6038C3D23E0920779F583E051
:104720008A838AE289834FB7F894DE01139620E0EA
:104730003EE051E2E32FF0E050935700E49120FF78
:1047400003C0E295EF703F5FEF708E2F90E0EA308C
:1047500010F0C79601C0C0968D939D932F5F2431B2
:1047600049F74FBF8091E800877F8093E8006AE2B5
:1047700070E0CE0101960E94F61F15C06091F7030C
:104780007091F803AE014F5F5F4F0E94D51E0097F6
:10479000E9F12091E800277F2093E800BC0189819E
:1047A0009A810E9457208091E8008B778093E800DF
:1047B0002DC0203859F58091E800877F8093E8006C
:1047C0008091EE038093F1008091E8008E7773CFA3
:1047D00021111CC09091F5039230C0F48091E80043
:1047E000877F8093E8009093EE030E94EE208091F3
:1047F000EE03811104C08091E30087FF02C084E0D2
:1048000001C081E08093F2030E94991D8091E8002D
:1048100083FF0AC08091E800877F8093E800809141
:10482000EB0080628093EB00AA960FB6F894DEBF8F
:104830000FBECDBFDF91CF911F9108950895CF9303
:104840008091F2038823B1F08091E9008F709091FC
:10485000EC0090FF02C090E801C090E0C92FC82B87
:104860001092E9008091E80083FD0E94C822CF7079
:10487000C093E900CF910895EE0FFF1F0590F491CA
:10488000E02D0994F999FECF92BD81BDF89A992740
:1048900080B50895A8E1B0E042E050E00C947624A1
:1048A000262FF999FECF92BD81BDF89A019700B4E9
:1048B000021639F01FBA20BD0FB6F894FA9AF99A89
:1048C0000FBE08950396272F0E9451240E94502462
:1048D000252F0E945124242F0C9451240196272F18
:1048E0000E9451240C945024DC01CB01FC01F99965
:1048F000FECF06C0F2BDE1BDF89A319600B40D922C
:0C49000041505040B8F70895F894FFCFE4
:10490C000C02A01C131DA31CDE1CA41C01F595316C
:10491C00323393926766363534979694F0C6F4F634
:10492C00F740227110067D059F05220554053B05B5
:00000001FF
