:100000000C9414030C9458030C9458030C94580348
:100010000C9458030C9458030C9458030C945803F4
:100020000C9458030C9458030C94A6210C94782239
:100030000C94B51B0C9458030C9458030C9458035F
:100040000C9458030C9458030C9458030C945803C4
:100050000C9458030C94281C0C9458030C945803CB
:100060000C9458030C9458030C9458030C945803A4
:100070000C9458030C9458030C9458030C94580394
:100080000C945C050C9458030C9458030C9458037E
:100090000C9458030C9458030C9458030C94580374
:1000A0000C9458030C9458030C945803E105E40590
:1000B0005E06EF05F70503065E065E065E064D0664
:1000C0005006060609060E061C062A062D063106EF
:1000D0003F065E08640868086B086F0873087708B5
:1000E0007B088008840888088C088F089308970884
:1000F0009B089F08A40886118611C011C011031225
:100100004E134E134E1325124E13CC12CC12421323
:100110004E134E134913D912D912D912D912D9122A
:10012000D912D912D912D912D912D912D912D91277
:10013000D912D912D912EB12FB120213091313139D
:10014000DE13DE13F113F113E713F113F113F113BF
:10015000DE13DE13ED13F113F113ED13DD2204238F
:10016000F2230423F2234C236F23F223C523D42349
:1001700029001E001F00200021002200230024006F
:100180002500260027002D002E002A002B00140039
:100190001A000800150017001C0018000C001200BF
:1001A00013002F0030003100390004001600070052
:1001B00009000A000B000D000E000F003300340090
:1001C00028000000E10000001D001B0006001900CF
:1001D000050011001000360037003800E50000006F
:1001E000E000E300E2000000000000002C0000003E
:1001F00000000000E600E7000151E40035003A008D
:100200003B003C003D003E003F00400041004200FA
:100210004300440045004C00390001005200010039
:1002200001000100010001004900010046004700F3
:10023000480001000100500051004F000100010082
:1002400001000100010001004A004B000100000014
:100250000100000001000100010001000100AA00EE
:10026000A900A8004D004E0001000000010001009F
:10027000010000000000000001000000000000007C
:100280000100010001000100010001000100010066
:100290000100010001000100010001000100010056
:1002A0000100010001000100010001000100010046
:1002B0000100010001000100010001000100010036
:1002C0000100010001000100010001000100010026
:1002D0000100010001000100010000000100000018
:1002E0000100010001000100010001000100010006
:1002F00001000100010000000100010001000000F8
:1003000000000000010000000000000001000100EA
:1003100001000100010001000100010001000100D5
:1003200001000100010001000100010001000100C5
:1003300001000100010001000100010001000100B5
:1003400001000100010001000100010001000100A5
:100350000100010001000100010001000100010095
:100360000100010001000000010000000100010087
:100370000100010001000100010001000100010075
:100380000100000001000100010000000000000069
:100390000100000000000000010001000100010058
:1003A00000000000000000002A2B280000000000D0
:1003B0000000000000000000000000290000000014
:1003C0002C1E3420212224342627252E362D373882
:1003D000271E1F202122232425263333362E37388B
:1003E0001F0405060708090A0B0C0D0E0F10111249
:1003F000131415161718191A1B1C1D2F3130232D15
:10040000350405060708090A0B0C0D0E0F10111212
:10041000131415161718191A1B1C1D2F3130354CC3
:1004200000000000000000000000000000000000CC
:1004300000000000000000000000000000000000BC
:1004400000010101010101000101010100000000A2
:100450000000000000000000000001000100010198
:10046000010101010101010101010101010101017C
:10047000010101010101010101010100000001016F
:10048000000000000000000000000000000000006C
:100490000000000000000000000000010101010058
:1004A0000403300000002403770069006C00620040
:1004B00061002E0074006500630068002000570092
:1004C0005400360030002D00410000001603770074
:1004D00069006C00620061002E007400650063001A
:1004E000680000000403090409025B00030100A086
:1004F000FA090400000103010100092111010001B2
:100500002240000705810308000A090402000103D4
:100510000000000921110100012271000705840378
:1005200020000A0904010002030000000921110152
:1005300000012222000705820320000107050303B2
:10054000200001120110010000000882650A060166
:1005500000010203010660FF0961A10109621500A3
:1005600026FF009520750881020963150026FF000B
:10057000952075089102C005010980A10185031627
:1005800001002603001A81002A830075109501815D
:1005900000C0050C0901A1018504160100269C027A
:1005A0001A01002A9C02751095018100C0050109FD
:1005B00006A1018505050719E029E7150025019524
:1005C0000875018102050819012905950575019134
:1005D000029501750391010507190029EF15002502
:1005E0000195F075018102C005010906A101050709
:1005F00019E029E71500250195087501810295018B
:1006000075088101050819012905950575019102F3
:100610009501750391010507190029FF150026FFB3
:1006200000950675088100C011241FBECFEFDAE0E7
:10063000DEBFCDBF04B603FE24C08091F6039091C7
:10064000F703A091F803B091F9038730904BA740CE
:10065000B04BB9F41092F6031092F7031092F8031E
:100660001092F90314BE84B7877F84BF88E10FB668
:10067000F89480936000109260000FBEE0E0F8E311
:10068000099511E0A0E0B1E0E4EEF8E402C00590C5
:100690000D92A033B107D9F713E0A0E3B1E001C098
:1006A0001D92A63FB107E1F70E94581E0C947024DA
:1006B0000C9400006093CF034093D00324E630E015
:1006C00042E050E06FEC73E0880F0C94FE04FF9260
:1006D0000F931F93CF93DF938B01F82EFF0CC0E095
:1006E000D0E0C093CF03E0EDF3E0D801AC0FBD1F25
:1006F0008D91819383E0E03EF807D1F724E630E066
:1007000041E150E06FEC73E08F2D0E94FE04609693
:10071000C03CD10531F7DF91CF911F910F91FF9030
:100720000895CF93DF93C82F45EC6EEF0E945A03D4
:1007300040E06DEF8C2F0E945A03D0E040E06D2F17
:100740008C2F0E945A03DF5FD831C1F745EC6EEF62
:100750008C2F0E945A0341E06DEF8C2F0E945A03A8
:10076000D0E040E06D2F8C2F0E945A03DF5FD03C19
:10077000C1F745EC6EEF8C2F0E945A0343E06DEFFA
:100780008C2F0E945A034FEF61E08C2F0E945A0376
:1007900041E060E08C2F0E945A038FE39CE90197AF
:1007A000F1F700C00000DF91CF91089580369105E8
:1007B00048F4880FE82FF0E0E15BFD4F608381E0B3
:1007C0008093610108951F93CF93DF93182FC0E0AA
:1007D000D0E0612FCE010E94D6032196C036D1050C
:1007E000C1F7DF91CF911F910895880FE82FE6950B
:1007F000E695E6958770F0E0EF5CFE4F21E030E093
:10080000082E01C0220F0A94EAF7662321F08081A6
:10081000822B808304C0209580812823208381E05F
:10082000809330010895CF93C82F80916101882370
:1008300079F045EC6EEF8C2F0E945A0341E06DEF8A
:100840008C2F0E945A036FE472E08C2F0E94670382
:1008500010926101CF9108950F931F93CF93DF936F
:10086000082F809130018823A9F045EC6EEF802F8E
:100870000E945A0340E06DEF802F0E945A03C1E3AB
:10088000D1E010E04991612F802F0E945A031F5F31
:100890001831C1F7DF91CF911F910F9108951092F8
:1008A000B9008CE08093B8000895FF920F931F93D6
:1008B000CF93DF93F82EEB011092BC0084EA809373
:1008C000BC000E94E71B8C018091BC0087FD0EC01C
:1008D000CF3F8FEFD807C1F30E94E71B801B910B1E
:1008E0008C179D0788F38EEF9FEF2EC09091B90073
:1008F000987F983041F09091B900987F903119F02D
:100900008FEF9FEF21C0F092BB0084E88093BC0082
:100910000E94E71B8C018091BC0087FD0CC0CF3F7B
:100920008FEFD807C1F30E94E71B801B910B8C1738
:100930009D0788F3D8CF8091B900887F883111F066
:100940008034F1F680E090E0DF91CF911F910F911C
:10095000FF9008950F931F93CF93DF93EB01809344
:10096000BB0084E88093BC000E94E71B8C0180914F
:10097000BC0087FD0EC0CF3F8FEFD807C1F30E94A8
:10098000E71B801B910B8C179D0788F38EEF9FEF61
:100990000CC02091B900287F81E090E0283211F44A
:1009A00080E090E0919581959109DF91CF911F9121
:1009B0000F9108950F931F93CF93DF93EC0184E978
:1009C0008093BC000E94E71B8C018091BC0084FFD7
:1009D0000EC0CF3F8FEFD807C1F30E94E71B801BEB
:1009E000910B8C179D0788F38EEF9FEF02C080E07C
:1009F00090E0DF91CF911F910F910895CF92DF92F8
:100A0000EF92FF920F931F93CF93DF936B017A01C5
:100A10008901B9010E9455040097C1F4E601EC0C6C
:100A2000FD1CCE15DF0539F0B80189910E94AA049A
:100A30000097B9F30BC0C801DF91CF911F910F91BF
:100A4000FF90EF90DF90CF900C94DA04DF91CF917C
:100A50001F910F91FF90EF90DF90CF900895CF936B
:100A60000E944F0480E50E949103C0E061E08C2F5A
:100A70000E94F503CF5FC036C9F760E080E5CF91F3
:100A80000C942C048091630181110FC081E080934C
:100A900063018DE0809391008FB7F89493E0909379
:100AA00099009DE0909398008FBF0895E1E7F0E0F2
:100AB00080818260808308951F920F920FB60F92FB
:100AC00011242F933F934F935F936F937F938F9353
:100AD0009F93AF93BF93EF93FF9380916201843113
:100AE00020F48F5F8093620116C080916401909121
:100AF0006501A0916601B09167010196A11DB11D2C
:100B00008093640190936501A0936601B09367019F
:100B10008FEF0E94E303FF91EF91BF91AF919F91FF
:100B20008F917F916F915F914F913F912F910F9096
:100B30000FBE0F901F90189560E080E50C94130491
:100B400080E290E00E9436248F31954451F482E295
:100B500090E00E942E2491E0883009F090E0892FE7
:100B600001C080E081700895CF93C82F882319F0C9
:100B70006FE175E402C06FEF7FEF80E290E00E94CA
:100B80005A24CC2311F068E001C06FEF82E290E0BC
:100B9000CF910C943C2480E00E94B4050C94581A28
:100BA0001F93CF93DF93EC01162F488150E0FA0199
:100BB0003197E331F10508F081C0EA5AFF4F0C94F8
:100BC0002824198288E028C08981813009F076C004
:100BD0000E94F31B9A838B837C836D8371C04B814E
:100BE0006A8189810E94FC0C9C838D8369C02C8161
:100BF00030E0322F22278D81282B4B816A81898119
:100C00000E94150D5DC00E94310D5AC00E94C80D92
:100C100026C00E94CA0D99838A8352C06B8170E0FE
:100C2000898190E0982F88272A81AE014C5F5F4F21
:100C3000822B0E94CD0D44C06B8170E0898190E0D1
:100C4000982F88272A81AE014C5F5F4F822B0E942C
:100C5000F20D36C00E94180E33C00E94EA0C898340
:100C60002FC06B8170E0898190E0982F88272A81BE
:100C7000AE014C5F5F4F822B0E94720D21C06B81D1
:100C800070E0898190E0982F88272A81AE014C5F1F
:100C90005F4F822B0E94960D13C00E94CB0510C09F
:100CA0000E94461D2FEF81EE94E02150804090403D
:100CB000E1F700C000000E944E1C02C08FEF888345
:100CC000612FCE01DF91CF911F910C94461D0E94A0
:100CD000A005811107C00E94310D0E94180E81E00D
:100CE0000E94B4050E942F050E9442050C945605EF
:100CF0000E94090C8FE19EE40197F1F700C000000B
:100D00008FE19EE40197F1F700C000000E94090CFA
:100D100080E00E94A90C80FF04C00E94CB050C94C7
:100D20004E1C08950E9478060E9467060C94BC0B26
:100D30000E949C050C94BD0BFB0122818031FFE5D4
:100D40009F0731F081313FE5930781F482E001C0D4
:100D500081E0222319F00E94431802C00E945E180D
:100D600043E062E081E00E9482070EC0222351F03E
:100D70009C0122513F452031310520F482510E94CF
:100D8000280E02C00C94C80680E0089581E0089502
:100D900081E00895CF93282F30E0F901E056FC4F11
:100DA000C491F901E05EFB4F2491222359F081EEBA
:100DB0000E94BD0F8C2F0E94BD0F8C2F0E94D5105A
:100DC00081EE04C08C2F0E94BD0F8C2FCF910C940C
:100DD000D510FF920F931F93CF93DF93EC01F62E64
:100DE0008881882331F18E010F5F1F4F813031F4EC
:100DF000C9818C2F0E94BD0F8C2F0AC0823029F42C
:100E000089810E94BD0FE80108C0833021F48981E7
:100E10000E94D510F8CF0E94CA0621968F2D8823F4
:100E2000F9F2EFE9FFE03197F1F700C000008150DF
:100E3000F6CFDF91CF911F910F91FF90089560E061
:100E40000C94E9064F925F926F927F928F929F92DD
:100E5000AF92BF92CF92DF92EF92FF920F931F93C8
:100E60002B013C01C12CD12C7601C394D701C601C2
:100E700004C0880F991FAA1FBB1F4A95D2F7AC0167
:100E8000BD014601570104C0880C991CAA1CBB1C5B
:100E90002A95D2F7482959296A297B29D701C60101
:100EA00004C0880F991FAA1FBB1F0A95D2F76A01B9
:100EB0007B01C420D520E620F720C416D506E6061F
:100EC000F70639F4BC01CD016429752986299729D3
:100ED0000AC0BC01CD016095709580959095642104
:100EE0007521862197211F910F91FF90EF90DF9040
:100EF000CF90BF90AF909F908F907F906F905F90BA
:100F00004F9008950F93382F262F6091FD01709117
:100F1000FE018091FF0190910002042F432F0E9457
:100F200022070F910C9423180E945E1A811102C0AF
:100F30000E94CC1A0C9492060C94980608950C9476
:100F40009E070C949F0708950E94CE130E94A3074A
:100F50002FEF84E39CE0215080409040E1F700C0F7
:100F600000000C944E1CFF920F931F93CF93DF93BE
:100F70008C01FC01C081D18180919701811113C046
:100F80008281882349F0CE010E942919F82E682F0A
:100F9000CE010E94CF1804C0CE010E94FD18F82E89
:100FA000BE018F2D04C0CE010E942919BE010E94EE
:100FB000BB0DEC01B8010E949C06882309F46DC1A9
:100FC000C63DFCE5DF0709F4D1C0B0F4C531ECE55E
:100FD000DE0768F4C230FCE5DF0708F04FC0C1153A
:100FE0008CE5D80701F1C130DC4529F149C1C63192
:100FF000DC4509F420C144C1CB3D8CE5D80771F133
:1010000050F4C73DFCE5DF0709F4D3C0C83DDC451B
:1010100009F4F6C035C1CC3DECE5DE0731F1CD3D3C
:10102000DC45A1F02DC1F8018281882309F435C186
:101030000E94A40732C1F8018281882309F42DC1DE
:1010400080912A02816080932A0227C1F80182815F
:10105000882309F422C10E94CC1A1FC1F8018281A1
:10106000882309F41AC180E006C0F8018281882330
:1010700009F413C182E00E94231F0FC1F80182818D
:10108000882309F402C10E945E1A811102C00E94E5
:10109000CC1A0E94711A90E09093E8038093E703C2
:1010A000FE01E350FC45E231F10520F4E759FF4F22
:1010B0000C9428248091E703816003C08091E703AA
:1010C00082608093E7034BC08091E7038460F9CF8F
:1010D0008091E70313C08091E7038061F2CF809194
:1010E000E7038062EECF8091E7038064EACF8091CE
:1010F000E7038068E6CF8091E70384608860E1CFF2
:101100008091E7038E7FDDCF8091E7038D7FD9CF7C
:101110008091E7038B7FD5CF8091E70313C0809147
:10112000E7038F7ECECF8091E7038F7DCACF80917A
:10113000E7038F7BC6CF8091E7038F77C2CF809183
:10114000E7038B7F877FBDCF9091E70397FB8827CD
:1011500080F921E0822780FB97F99093E703809143
:10116000E7030E94751A0E94CE1397C0F80182818E
:10117000882351F010926D010E94E71B90936A0141
:101180008093690182E022C080916D0181110FC0BE
:101190008091690190916A010E94FF1B883C910532
:1011A00030F486E20E94BD0F86E20E94D51082E0F4
:1011B00024C0F8018281882361F010926E010E94A0
:1011C000E71B90936C0180936B0180E20E943611C3
:1011D00064C080916E0181110FC080916B0190916C
:1011E0006C010E94FF1B883C910530F487E20E944D
:1011F000BD0F87E20E94D51080E20E943D114DC0D4
:10120000F80182818111D9CF80916E018111F4CFD3
:1012100080916B0190916C010E94FF1B883C9105AD
:1012200058F780E20E943D1188E20E94BD0F88E2DB
:101230000E94D51032C00E94A819382FF8012281CF
:101240008091000190910101222371F03A7A21E00E
:1012500009F420E020936801222311F065E301C026
:1012600069E20E943B1B09C020916801222311F012
:1012700065E301C069E20E94461B0E94F4190DC09B
:1012800081E080936D0180936E01C801DF91CF9161
:101290001F910F91FF900C94C60680E0DF91CF91D3
:1012A0001F910F91FF90089580E090E008950895B8
:1012B000880F991F80569B4FFC018591949108954A
:1012C000CF93DF930E94BB0D0E941D0BEC01811593
:1012D00020E5920708F041C0C11580E4D80708F066
:1012E00028C1C83ED10510F5C03ED10508F0A1C106
:1012F000C83AD10578F4C53AD10508F0A2C0C1308A
:10130000D10509F496C108F447C1C430D10508F0ED
:1013100090C142C1CF3BD10508F49EC0C03CD1056D
:1013200008F43AC1CE01805C9109F5C0C11590E284
:10133000D90758F4C11521E0D20708F07AC1C03F9F
:10134000D10508F429C1D06574C1C11580E3D8075F
:1013500008F0E5C0CE019F70DEC0C11595E5D90744
:1013600008F043C0C11524E5D20708F0F9C0C11543
:1013700082E5D80708F5C11591E5D90708F0DCC06A
:101380002C2F237081E090E002C0880F991F2A95CE
:10139000E2F79C689E01F4E036952795FA95E1F70F
:1013A0002370922BCF70C695C69520E2C29FE001B4
:1013B0001124C82BD92B3DC18C2F869586959E0173
:1013C00023703327C115D34508F0BBC090E2899F35
:1013D000E001112481E090E002C0880F991F2A9556
:1013E000E2F7C82BD92BDC6824C1C11529E5D20747
:1013F000A0F4C11588E5D80708F0B7C0C11596E577
:10140000D90708F0C9C08C2F0E94990B8F71C82F83
:10141000D0E0DC2FCC27D0620CC1C1152AE5D20761
:1014200008F4A8C0CE0190568115904208F0B4C0CF
:101430008D2F8F710E94990BDD27D0628F71D82B71
:10144000F8C0C53AD10509F4AAC0C63AD10509F4D5
:10145000A9C0C3E8D0E4EDC0C83AD10509F4A5C0DD
:10146000C93AD10509F4A4C0CA3AD10509F4A3C008
:10147000CB3AD10509F4A2C0CC3AD10509F4A1C0F8
:10148000CB3BD10509F4A0C0CC3BD10509F49FC0EA
:10149000CD3AD10509F49EC0C03BD10509F49DC0E9
:1014A000CE3AD10509F49CC0CF3AD10509F49BC0CE
:1014B000C13BD10509F49AC0C23BD10509F499C0DA
:1014C000C33BD10509F498C0C43BD10509F497C0CA
:1014D000C53BD10509F496C0C63BD10509F495C0BA
:1014E000C73BD10509F494C0C83BD10509F493C0AA
:1014F000C93BD10509F492C0CD3BD10509F491C097
:10150000CE3BD10509F490C0CA3BD10509F08FC08C
:10151000CAE2D6E48EC00E945809EC018AC0CE010E
:101520009927D3FF03C0EC01D86C83C0EC01D06CC9
:1015300080C0DF70D06A7DC0DC2FCC27C16FD06A3D
:1015400078C090E2899FE001112481E090E002C020
:10155000880F991F2A95E2F7C82BD92BDA6869C042
:10156000DC2FCC27C46FD06A64C0DC2FCC27C06FBF
:10157000D06A5FC08C2F8F700E94990B34E0D69593
:10158000C7953A95E1F7CF70D0E0DC2FCC27D06A31
:101590008F70806EC82B4DC0C0E0D0E04AC0C1E85B
:1015A000D0E447C0C2E8D0E444C0C2EED4E441C0B5
:1015B000C9EED4E43EC0CAEED4E43BC0C5EBD4E4EB
:1015C00038C0C6EBD4E435C0C3EBD4E432C0C4EBBE
:1015D000D4E42FC0C7EBD4E42CC0CCECD4E429C0B5
:1015E000CDECD4E426C0C3E8D5E423C0CAE8D5E4F2
:1015F00020C0C2E9D5E41DC0C4E9D5E41AC0C1E2E7
:10160000D6E417C0C3E2D6E414C0C4E2D6E411C0E5
:10161000C5E2D6E40EC0C6E2D6E40BC0C7E2D6E40B
:1016200008C0CFE6D4E405C0C0E7D4E402C0C0E0FF
:10163000D4E4CE01DF91CF9108958238910549F12C
:10164000B0F48133910509F459C048F48932910509
:1016500009F44FC08A32910509F455C008958533C5
:10166000910509F441C08933910599F00895833EAD
:10167000910531F138F4803E910591F0823E91055B
:10168000A9F00895863E910501F1873E910539F153
:1016900008952091E70320FD3BC021FD39C0089546
:1016A0008091E70380FF34C089E341C08091E70364
:1016B00082FF32C08091E70384FF2CC080E037C0F6
:1016C0008091E70382FD28C0F5CF8091E70383FF77
:1016D00025C08091E70384FDF1CF87EE28C080917B
:1016E000E70383FD1BC0F5CF8091E70385FF18C09A
:1016F00019C08091E70385FF15C012C08091E703F0
:1017000086FF12C013C08091E70386FF0FC00CC094
:1017100080EE0DC083EE0BC082EE09C086EE07C0DE
:1017200085E305C089E203C081E301C08AE290E05D
:1017300008959091E70392FF0DC0282F287128305B
:1017400019F4877F846006C0282F2471243011F497
:101750008B7F886093FF0DC0282F2871283119F4E2
:10176000877E846106C0282F2471243111F48B7E7A
:10177000886194FD877E089508950895ADE0B1E0F5
:1017800021E030E08D91E82FE295EF70F0E041A18B
:101790008F70B90102C0660F771F8A95E2F7CB01FF
:1017A000962F9095492341A392A1982B92A371E083
:1017B000AB31B70739F7ABE1B1E021E030E08D9113
:1017C000E82FE295EF70F0E041A18F70B90102C0FF
:1017D000660F771F8A95E2F7CB01962F90954923E4
:1017E00041A392A1982B92A371E0A032B70739F7D9
:1017F000E9E7F1E0AFE6B1E0119211921D921D927E
:1018000081E0E338F807C1F785E00E94B30C0C943F
:1018100094072F923F924F925F926F927F928F9296
:101820009F92AF92BF92CF92DF92EF92FF920F936F
:101830001F93CF93DF936DE0E62E61E0F62E80E0FC
:1018400090E020E0CC24C394D12CE70149917E01A3
:10185000E42FE295EF70F0E031A14F70B60102C0C5
:10186000660F771F4A95E2F7AB01362B31A362A1D1
:10187000342F3095632362A370EA7A95F1F756010D
:10188000082E02C0AA0CBB1C0A94E2F73501609432
:1018900070945BE1252E51E0352EA9E7B1E0512C83
:1018A0004D016D917C911197E10149901E01042D2C
:1018B00002950F7010E0E80108A110E0D42DDF7050
:1018C0000D2E02C0159507950A94E2F700FD04C09D
:1018D0008B010A291B2903C08B01062117211196B0
:1018E0001C930E931296E401088119816017710709
:1018F00011F055245394D0E22D16D1E03D0681F627
:1019000051A1532351A332A1342B32A3252901968F
:101910008E30910509F099CF45E06FE671E089E7D7
:1019200091E00E94B40C0E949C0781E0DF91CF916E
:101930001F910F91FF90EF90DF90CF90BF90AF90ED
:101940009F908F907F906F905F904F903F902F90DF
:101950000895E82FF0E0EE0FFF1FE159FE4F808160
:101960009181089508950895FF920F931F93CF9347
:10197000DF93D82FC92FF62E072F142F222349F0DB
:1019800081E0809385010E94E71B909384018093FE
:101990008301809185018823B9F080918301909122
:1019A00084010E94FF1B069778F0ED2FFC2FAF2DCE
:1019B000B02F20E0211731F0819191918D939D936B
:1019C0002F5FF8CF10928501DF91CF911F910F917A
:1019D000FF90089584E0089550E0440F551F9CE166
:1019E000699F400D511D11249CE8899F400D511D98
:1019F0001124CA01839608950F931F93CF93DF9309
:101A00000E94EC0CEC010E942E24082F10E0102FF5
:101A10000027CE0101960E942E249801282BC9018F
:101A2000DF91CF911F910F9108950F931F93CF9343
:101A3000DF9300D0CDB7DEB72A8339830E94EC0C48
:101A40008C013981632F0E943C242A81622FC801B6
:101A500001960F900F90DF91CF911F910F910C94F1
:101A60003C24AF92BF92CF92DF92EF92FF920F93FE
:101A70001F93CF93DF93A12CE12CF12CB12C00E02C
:101A800010E0C0E0D0E06801CE0CDF1CC601805938
:101A90009E4F6C01FE01EE0FFF1FEC0DFD1D259109
:101AA00034914C2F6B2D8A2D0E94150D2196CE302E
:101AB000D10581F7045E1F4FB39485E0B812E1CFE2
:101AC0009CE8E90EF11CA39484E0A812D7CFDF9123
:101AD000CF911F910F91FF90EF90DF90CF90BF902B
:101AE000AF900895EF92FF920F931F93CF93DF93E0
:101AF0007B01EA01E40EF51E8C01C8018396CE1528
:101B0000DF0569F0003322E0120720F40E942E2442
:101B1000888301C0188221960F5F1F4FEECFDF919F
:101B2000CF911F910F91FF90EF900895EF92FF9248
:101B30000F931F93CF93DF938B017A01080F191F27
:101B4000EC01E81AF90ACE018396C017D10761F0BB
:101B5000C03322E0D20730F4F701EC0FFD1F6081A3
:101B60000E943C242196EFCFDF91CF911F910F91DE
:101B7000FF90EF900895462F843038F4753028F4A4
:101B80006E3018F4672F0C94FC0C80E090E0089500
:101B900080E108958DEA91E00895EF92FF920F930E
:101BA0001F93CF93DF937B01EA01E40EF51E8C01B6
:101BB000C8018D5A9D4FCE15DF0569F00D3A21E021
:101BC000120720F40E942E24888301C018822196D7
:101BD0000F5F1F4FEDCFDF91CF911F910F91FF90BE
:101BE000EF900895EF92FF920F931F93CF93DF939F
:101BF0008B017A01080F191FEC01E81AF90ACE01CE
:101C00008D5A9D4FC017D10761F0CD3A21E0D20720
:101C100030F4F701EC0FFD1F60810E943C242196F7
:101C2000EECFDF91CF911F910F91FF90EF9008952C
:101C3000CF93DF93C3E5D2E060E0CE010E943C2465
:101C40002196C11584E0D807B9F7DF91CF910895A7
:101C5000FF920F931F93CF93DF9300D0CDB7DEB7E2
:101C6000F82E8FE08F1530F18FEF93E00E942E2435
:101C7000811120C003E512E0FF2069F0011584E026
:101C80001807C1F0C8010E942E24811101C0FA94E6
:101C90000F5F1F4FF1CF19821A82C8010E942E24B4
:101CA0008983882339F0CE0101960E941F070F5FB8
:101CB0001F4FF3CF0F900F90DF91CF911F910F9196
:101CC000FF90089590938B0180938A010895E0918D
:101CD0008A01F0918B01309721F00190F081E02D85
:101CE000099480E00895E0918A01F0918B0130978A
:101CF00099F020910C01222359F02091E70327FF4E
:101D000007C0DC012C9111962C93119725E02C93A0
:101D10000280F381E02D099408952091880130918B
:101D200089018217930771F090938901809388014C
:101D3000E0918A01F0918B01309721F00680F781C4
:101D4000E02D099408952091860130918701821732
:101D5000930771F09093870180938601E0918A0147
:101D6000F0918B01309721F00084F185E02D0994EA
:101D7000089585B7806885BF85B7806885BF089559
:101D800008950E94B90E0C94C00E81E008950E943F
:101D9000DE1B0E94BE0B0C94731C5F926F927F92AD
:101DA0008F929F92AF92BF92CF92DF92EF92FF926B
:101DB0000F931F93CF93DF93CDB7DEB72A970FB65C
:101DC000F894DEBF0FBECDBF0E94090C0E94C50E65
:101DD000811111C08FEF89838A831B820E94E71BC8
:101DE0008160782F9D838C8349815A816B818D819D
:101DF0000E94890F57C09DE8C92E91E0D92E00E0BE
:101E000010E0AA24A394B12C502E802F0E94A90C7C
:101E10003C01F601E190F1906F01E826F926E1140A
:101E2000F10431F40F5F1F4F0530110569F7D2CF70
:101E300080912A0281FD0E94B20C20E030E0450131
:101E4000022E02C0880C991C0A94E2F7C4018E216C
:101E50009F21892B09F12E835F826820792081E000
:101E6000672809F480E088870E94E71B8160782F4B
:101E70009A8789874E815F8168858A850E94890F4C
:101E8000F801EE0FFF1FE357FE4F808191818825F7
:101E900099259183808306C02F5F3F4F2E303105F7
:101EA00071F6C0CF10918C010E94670E1817D9F0FF
:101EB0000E94670E80938C012A960FB6F894DEBFBD
:101EC0000FBECDBFDF91CF911F910F91FF90EF908B
:101ED000DF90CF90BF90AF909F908F907F906F904A
:101EE0005F900C94A1072A960FB6F894DEBF0FBE40
:101EF000CDBFDF91CF911F910F91FF90EF90DF90B9
:101F0000CF90BF90AF909F908F907F906F905F9099
:101F10000895CF93DF93CDB7DEB72B970FB6F89424
:101F2000DEBF0FBECDBF4F83588769877A878B8707
:101F3000DE01119686E0FD0111928A95E9F785E0B0
:101F4000FE01379601900D928A95E1F749815A81F9
:101F50006B817C818D819E810E94AB162B960FB682
:101F6000F894DEBF0FBECDBFDF91CF910895FC0185
:101F7000808191810E9469190895882309F414C110
:101F80008238C1F40E94670E81FD0EC169E3809121
:101F90000001909101010E943B1B0E94F4192FEF58
:101FA00081EE94E0215080409040E1F700C00000B5
:101FB00069E319C08338F9F40E94670E80FDF4C00C
:101FC00063E580910001909101010E943B1B0E94FA
:101FD000F4192FEF81EE94E0215080409040E1F71A
:101FE00000C0000063E580910001909101010E9412
:101FF000461B0C94F4198438C1F40E94670E82FDCC
:10200000D3C067E480910001909101010E943B1BC5
:102010000E94F4192FEF81EE94E02150804090400F
:10202000E1F700C0000067E4DECF9CEF980F913A23
:1020300040F4682F80910001909101010E943B1BA8
:10204000D8CF90E2980F983050F4877091E001C09B
:10205000990F8A95EAF7892F0E94AB19CACF9BE5A1
:10206000980F933070F4853A29F0863A31F482E87B
:1020700090E005C081E890E002C083E890E00C9415
:102080008D0E98E5980F973108F08EC0883A09F4C4
:1020900045C0893A09F445C08A3A09F445C08B3AEB
:1020A00009F445C08C3A09F445C08B3B09F445C09E
:1020B0008C3B09F445C08D3A09F445C0803B09F4D6
:1020C00045C08E3A09F445C08F3A09F445C0813BBA
:1020D00009F445C0823B09F445C0833B09F445C07F
:1020E000843B09F445C0853B09F445C0863B09F4AF
:1020F00045C0873B09F445C0883B09F445C0893B8E
:1021000009F445C08D3B09F445C08E3B09F445C038
:102110008A3B09F045C08AE292E044C082EE90E03A
:1021200041C089EE90E03EC08AEE90E03BC085EB76
:1021300090E038C086EB90E035C083EB90E032C091
:1021400084EB90E02FC087EB90E02CC08CEC90E00B
:1021500029C08DEC90E026C083E891E023C08AE896
:1021600091E020C082E991E01DC084E991E01AC0AD
:1021700081E292E017C083E292E014C084E292E030
:1021800011C085E292E00EC086E292E00BC087E2C9
:1021900092E008C08FE690E005C080E790E002C0C2
:1021A00080E090E00C94A30E0895882309F45DC0AC
:1021B000823879F40E94670E81FF57C069E38091ED
:1021C0000001909101010E943B1B0E94F41969E3F8
:1021D00010C08338B1F40E94670E80FF46C063E5EB
:1021E00080910001909101010E943B1B0E94F41913
:1021F00063E580910001909101010E94461B0C94BF
:10220000F419843879F40E94670E82FF2EC067E4C7
:1022100080910001909101010E943B1B0E94F419E2
:1022200067E4E7CF9CEF980F913A10F4682FE1CF65
:1022300090E2980F983050F4877091E001C0990FA8
:102240008A95EAF7892F0E94B119D9CF9BE5980F9B
:10225000933020F480E090E00C948D0E885A873102
:1022600020F480E090E00C94A30E0895882321F0E0
:102270000E94AB190C94F4190895882321F00E9450
:10228000B1190C94F41908958F929F92BF92CF9236
:10229000DF92EF92FF920F931F93CF93DF9300D0C3
:1022A000CDB7DEB74C01472FFC01C580C2949FE03B
:1022B000C922D280DD2031F079836A830E94C81957
:1022C0006A81498149836A830E94A11949816A818F
:1022D000882389F0DD2079F080E2860F883058F07D
:1022E00082E00E943F1A0E94A119BB24B394B82631
:1022F00049816A8101C0B12CE42EE2948FE0E8228A
:10230000F12CF701E558FF4F0C942824842F807F8F
:10231000142F1F70882311F01295107FDD20C1F05B
:10232000112309F49AC180E2860F883010F0611100
:1023300005C0812F6A830E94AB1904C0812F6A8374
:102340000E94BB196A816A830E94F4196A8185C15F
:10235000862F6A830E94D5106A81112309F49EC1D9
:1023600080E2860F883010F0611104C0812F0E9436
:10237000B11903C0812F0E94C1190E94F4198EC1A6
:10238000842F807F142F1F70803211F01295107FE0
:10239000662319F06130D9F026C0DD2079F0CC2019
:1023A00049F0F1E0CF1206C00E94DB19812B0E9498
:1023B000E11974C10E94DB19812B04C1CC2021F0EA
:1023C00021E0C21609F46AC10E94EA1900C1DD20A9
:1023D00029F085E08C1508F461C1F3C094E09C15E8
:1023E00008F45CC1F4C0DD2051F0CC2009F4E9C050
:1023F000F401858180FF31C18F708583E2C0CC20DC
:1024000009F4E5C03BC1242F26952695237030E0C2
:102410002115310521F02130310561F03FC1DD206A
:1024200021F0862F942F937002C080E090E00E94EC
:102430008D0E44C1DD2021F0862F942F937002C0B1
:1024400080E090E00E94A30E39C1842F837009F0D0
:102450004EC0D1102FC1262F229526952770220F0E
:10246000220F862F8F70C82ED12CE12CF12C022E3A
:1024700004C0CC0CDD1CEE1CFF1C0A94D2F764FFD8
:1024800010C06FE070E080E090E004C0660F771F3E
:10249000881F991F2A95D2F7609570958095909521
:1024A00003C060E070E0CB01242F269526952370B1
:1024B00030E02230310569F02330310589F06C2994
:1024C0007D298E299F292130310571F00E94FC174A
:1024D000F1C06C297D298E299F290E940E18EAC01F
:1024E0000E94FC17C701B6010E94EA17E3C0DD2075
:1024F00019F0842F817001C08695882309F4DAC011
:10250000262F229526952770220F220F862F8F7057
:10251000C82ED12CE12CF12C022E04C0CC0CDD1CD9
:10252000EE1CFF1C0A94D2F764FF10C06FE070E04D
:1025300080E090E004C0660F771F881F991F2A95DE
:10254000D2F7609570958095909503C060E070E03B
:10255000CB01242F26952695237030E022303105BB
:1025600069F02330310589F06C297D298E299F2956
:102570002130310571F00E94AA189CC06C297D2978
:102580008E299F290E94BC1895C00E94AA18C701D5
:10259000B6010E9498188EC0062F10E0F801E05E88
:1025A000F109E531F10508F054C0E557FF4F0C94EF
:1025B0002824162F1F70842F8F71DD2031F00E9488
:1025C0004318812F0E94361169C00E945E18812F26
:1025D0000E943D1163C0DD2049F0F4E0FC1508F4D1
:1025E0005DC0842F8F710E947D1858C025E02C1586
:1025F00008F454C0F6CFDD2039F0842F8F710E948B
:1026000043184CC0DD20C9F3842F8F710E945E18DF
:1026100045C0DD2029F0842F8F710E9434183EC000
:102620000E942F183BC0DD2051F0142F1F71812F05
:102630000E94431863E0812F0E942A1A2FC081E074
:102640000E943F1A81E08C1548F582E00E943F1AF3
:1026500025C0DD2031F0CC2081F2862F0E94BD0FF5
:102660001DC0CC2089F2693349F49FEFE7EEF3E017
:102670009150E040F040E1F700C00000862F0E943A
:10268000D5100CC04F70C4010E9454090E94581705
:1026900015C04F70C4010E94570910C028E0E2160F
:1026A000F10441F05CF09AE0E91AF108E2E0EE167C
:1026B000F10420F40E94670E0E94A107BB20F1F0F4
:1026C0000E949D1980FD1AC0F40112820E94971980
:1026D0000E944318C4010E948C130E9497190F9006
:1026E0000F90DF91CF911F910F91FF90EF90DF90AE
:1026F000CF90BF909F908F900C945E180F900F908A
:10270000DF91CF911F910F91FF90EF90DF90CF90CD
:10271000BF909F908F9008950F931F93CF93DF9357
:10272000EC01288139818B819C81892B31F03F3FDD
:1027300011F080E003C02F3FE1F781E0811113C069
:10274000CE010E94B307882371F0688179818A8164
:102750000E9474198C010E94CE180E94E717B801DC
:10276000CE010E944411DF91CF911F910F910895E6
:102770000E94C8190E94D8190E94F41980E090E0C4
:102780000E948D0E80E090E00C94A30E80910001D9
:10279000909101010E94511B0C94B8130E94B8192A
:1027A0000C94C613E92FE295EF70F0E03297EE300B
:1027B000F105B8F4E056FF4F0C942824803F59F0FF
:1027C00018F4803E70F407C0843F59F404C0803E82
:1027D00010F0813F31F481E0089593FB882780F960
:1027E000089580E008950E9469190E94D213089507
:1027F000CF93DF9300D000D01F92CDB7DEB70F90FC
:102800000F900F900F900F90DF91CF910895CF937D
:10281000DF9300D000D000D0CDB7DEB726960FB63C
:10282000F894DEBF0FBECDBFDF91CF9108951F9307
:10283000CF93DF93C091980116E080919901C8175A
:1028400099F0D0E01C9FF0011D9FF00D1124E65679
:10285000FE4F4081518162817381848195810E9404
:1028600007142196C770E9CFDF91CF911F9108958A
:102870004091CA015091CB016091CC017091CD0182
:102880008091CE019091CF010C940714CF93809149
:10289000CF0182958F7009F05FC08091CC018823B1
:1028A00009F45AC020919801A09199016091CA0140
:1028B0007091CB018091CD019091CE0131E06F3FBD
:1028C00009F030E0B32FC6E02A1709F445C000979D
:1028D00021F07F3F21F44B2F03C041E001C040E0D5
:1028E00030E040FD35C0C29FF001C39FF00D1124C0
:1028F000E656FE4F418174132BC04081641328C0FB
:102900004281411125C0438154814817590710F471
:1029100041505109481B590B483C5105C8F480915E
:10292000CF018F7080618093CF0186E0829FF0019C
:10293000839FF00D1124E156FE4F80818F708061DE
:1029400080838AEC91E00E948C13CF910C94171431
:102950002F5F3F4F2770B8CFCF910895CF92DF926E
:10296000EF92FF920F931F93CF93DF93CDB7DEB714
:1029700062970FB6F894DEBF0FBECDBF8C0185E025
:10298000F801DE011D9601900D928A95E1F7D801BC
:102990004C9111965C91119712966C911297139627
:1029A000ED90FC9014977091CA01E091CB012091B9
:1029B000CD013091CE012115310531F0EF3F31F4D9
:1029C00081E07F3F19F403C081E001C080E0B82FAF
:1029D000B170CB2E80FD6BC1D090CC01DD2009F40D
:1029E000F5C0F091CF01E216F30638F0C701821B63
:1029F000930B883C910548F09DC0209530952E0D95
:102A00003F1D283C310508F095C08F2F807F09F0CD
:102A100052C0E51314C0741312C0D62E61110FC03A
:102A2000FF70F061F093CF010E9438148AEC91E0BE
:102A30000E948C138091CF01F80185837CC1EF281F
:102A400031F05F3F31F481E04F3F19F403C081E082
:102A500001C080E080FD03C081E0862701C080E0E6
:102A6000F82FF170FF2E80FF1CC0809198012091FB
:102A7000990136E0821709F438C190E0389FF001DF
:102A8000399FF00D1124E656FE4F7181571306C091
:102A90007081471303C07281671303C0019687706A
:102AA000E9CFD62E662309F446C18091CF0181601B
:102AB0008093CF0155C0E51308C0741306C061119F
:102AC00004C0D8011596FC93AEC04D875E878D85F6
:102AD0009E856A8B0E94F3136A89882329F1D62E7A
:102AE000662311F12091CF01822F82958F7090E0A3
:102AF00002970CF462C08091CA019091CB01988733
:102B00008F831986FB86EA862C87CE01079653C0F1
:102B1000E51741F14D875E878D859E856A8B0E9402
:102B2000F3136A89811130C0C8010E948C13DD241F
:102B3000D39401C18F2F807F59F77E2DF98AE88ABF
:102B400089890E94F8138AEC91E00E948C13EAECC8
:102B5000F1E086E0DF011D928A95E9F70E943814C2
:102B6000D12CE9C07413D6CF6111D4CFD8011596FA
:102B7000FC93C8010E948C13EAECF1E086E0DF01CF
:102B80001D928A95E9F7D7C0D62E662369F2209167
:102B9000CF01822F82958F7090E0029774F0809120
:102BA000CA019091CB019A8389831B82FD82EC82BA
:102BB0002E83CE0101960E948C1386E0F801AAECC8
:102BC000B1E001900D928A95E1F78AC0E216F30612
:102BD00028F0C701821B930B9C0104C020953095FF
:102BE0002E0D3F1D283C310508F053C0D62E66231C
:102BF00009F49ACFE5132CC074132AC08091CF0139
:102C000080FD1DC0982F92959F70C9F0D801159630
:102C10008C9315979F3039F09F5F9295907F8F70BE
:102C2000892B15968C93C8010E948C1386E0F801BD
:102C3000AAECB1E001900D928A95E1F753C086E0CD
:102C4000F801AAECB1E001900D928A95E1F773C00A
:102C50004D875E878D859E850E94F313882381F0C2
:102C600096E0F801AAECB1E001900D929A95E1F797
:102C70008A8B0E9446140E9438148A89D82E5BC021
:102C80008091CF0181608093CF01C8010E948C1395
:102C900052C07E2DF98AE88A89890E94F813EAECED
:102CA000F1E086E0DF011D928A95E9F71BC06623FB
:102CB00009F43ACF4D875E878D859E850E94F31378
:102CC000D82E882309F430CF86E0F801AAECB1E0D1
:102CD00001900D928A95E1F78AEC91E00E94B70F7E
:102CE0000E9446140E94381426C04D875E878D8549
:102CF0009E850E946919292F22952F7030E022307D
:102D000031052CF49F7041F0811106C00CC02430B5
:102D100031052CF49F7049F4805E883020F0C801A2
:102D20000E948C13CF2CDC2C06C0D80115969C91E8
:102D3000907F91F7F8CF8D2D62960FB6F894DEBF95
:102D40000FBECDBFDF91CF911F910F91FF90EF90FC
:102D5000DF90CF9008951F93CF93DF93CDB7DEB769
:102D60002C970FB6F894DEBF0FBECDBF4F835887A8
:102D700069877A878B879C87CE0107960E94AE145D
:102D80008823C1F02F8138858A859B85892B31F076
:102D90003F3F11F080E003C02F3FE1F781E0811158
:102DA00047C04F81588569857A858B859C850E94AF
:102DB00007143EC086E0FE013796DE0111960190B1
:102DC0000D928A95E1F7FF81E8854A855B8541157B
:102DD000510531F0EF3F31F481E0FF3F19F403C0BA
:102DE00081E001C080E080FD23C02091990130E0A6
:102DF000C9010196877099276091980170E0861744
:102E00009707F1F1F983EA835D834C8396E0929F03
:102E1000D001939FB00D1124A656BE4FFE013196EE
:102E200001900D929A95E1F7809399010E941714F1
:102E300016E08091980190919901891779F1189F76
:102E4000C001112486569E4F0E94AE14882331F192
:102E5000E09198011E9FF0011124E656FE4F40813B
:102E6000518162817381848195810E9407148091D0
:102E7000980190E001968770992780939801D9CFA7
:102E80000E94CE131092990110929801EAECF1E0A1
:102E900086E0DF011D928A95E9F7CACF2C960FB61E
:102EA000F894DEBF0FBECDBFDF91CF911F91089583
:102EB000EF92FF920F931F93CF93DF93FC01009744
:102EC00009F46FC0F12CEE24E394EF012196849174
:102ED000843740F4843008F055C0813081F082306E
:102EE00021F15FC0853709F447C0C0F19CE7980F16
:102EF000903708F056C08F770E94D51045C08F01DB
:102F00000E5F1F4FFE01849190E2980F983050F4AD
:102F10008770FE2D01C0FF0F8A95EAF78F2F0E9460
:102F2000CB1915C00E94BD0F14C08F010E5F1F4F3B
:102F3000FE01849190E2980F983068F48770FE2D1E
:102F400001C0FF0F8A95EAF78F2F0E94D1190E94C6
:102F5000F419E80119C00E94D510FBCFCF010296E9
:102F6000FE01C491CC2361F0EFE9FFE03197F1F766
:102F700000C00000C150F6CFCF010296FE01F490D0
:102F8000EC0102C00E94BD0F8F2D882341F0EFE9B4
:102F9000FFE03197F1F700C000008150F6CFFE014D
:102FA00094CFDF91CF911F910F91FF90EF900895F3
:102FB00008950C94D8170E94D9176093010270935A
:102FC000020280930302909304020C94B8130895B4
:102FD0000C94DB170F931F930091010210910202D2
:102FE0002091030230910402602B712B822B932BD2
:102FF0001F910F910C94DB170F931F930091010207
:103000001091020220910302309104026023712387
:10301000822393231F910F910C94DB170F931F931F
:1030200000910102109102022091030230910402EA
:1030300060277127822793271F910F910C94DB172C
:1030400008950C9420180E9421186093FD0170933C
:10305000FE018093FF01909300020C94B81360E08E
:1030600070E0CB010C94231841E050E060E070E088
:1030700004C0440F551F661F771F8A95D2F7CB01F6
:10308000BA010C94231841E050E060E070E004C005
:10309000440F551F661F771F8A95D2F78091FD0157
:1030A0009091FE01A091FF01B0910002482B592B95
:1030B0006A2B7B2BCB01BA010C94231841E050E022
:1030C00060E070E004C0440F551F661F771F8A95AB
:1030D000D2F740955095609570958091FD01909143
:1030E000FE01A091FF01B0910002482359236A23F9
:1030F0007B23CB01BA010C94231841E050E060E03F
:1031000070E004C0440F551F661F771F8A95D2F7E1
:103110008091FD019091FE01A091FF01B09100020C
:10312000482759276A277B27CB01BA010C9423181B
:103130000F931F930091FD011091FE012091FF015B
:1031400030910002602B712B822B932B1F910F91DA
:103150000C9423180F931F930091FD011091FE0111
:103160002091FF0130910002602371238223932379
:103170001F910F910C9423180F931F930091FD0141
:103180001091FE012091FF0130910002602771270C
:10319000822793271F910F910C94231808952EE0F6
:1031A000929F800D1124482F46954695469587702D
:1031B000B1E001C0BB0F8A95EAF785E0489FA00106
:1031C000112440535E4F80E090E070E0FA01E80F78
:1031D000F91FA0819B01082E02C0369527950A94FD
:1031E000E2F72170332721952A272B232A272083D2
:1031F00001968530910551F708952EE0929F800D3C
:103200001124682F669566956695982F977085E0CE
:10321000689FB001112460537E4F40E050E080E091
:10322000FB01E40FF51F208130E0092E02C0369526
:1032300027950A94E2F721703327042E01C0220F4C
:103240000A94EAF7822B4F5F5F4F4530510541F7F3
:103250000895CF92DF92EF92FF920F931F93CF9337
:10326000DF93EC01C0900102D0900202E0900302D3
:10327000F09004028091FD019091FE01A091FF0168
:10328000B0910002C82AD92AEA2AFB2A0FE110E0ED
:10329000B701A601002E04C076956795579547950E
:1032A0000A94D2F740FD05C00150110988F780E06B
:1032B00007C0BE01802F0E9460090197A9F3802FEB
:1032C000DF91CF911F910F91FF90EF90DF90CF9002
:1032D0000895CF93DF93EC010E942919BE010E944B
:1032E0006009DF91CF9108951F93CF93DF93EB0196
:1032F00090919701992321F0CB010E94691913C085
:10330000882349F0CB010E942919182F682FCE017C
:103310000E94CF1804C0CB010E94FD18182FBE01D7
:10332000812F0E946009DF91CF911F9108958091B4
:10333000050285958595859508958091050287708C
:10334000089590910502977081E009F480E0089556
:1033500080912902089590912902982B9093290237
:1033600008958095909129029823909329020895B9
:1033700010922902089590912802982B9093280288
:10338000089580959091280298239093280208959B
:1033900010922802089590912702982B909327026B
:1033A000089580959091270298239093270208957D
:1033B00010922702089580910602089508950C94B2
:1033C000DE1990910602981721F0809306020C9462
:1033D000DF19089580910602882329F010920602D1
:1033E00080E00C94DF190895E0910001F091010153
:1033F000809129028083E0910001F0910101808198
:1034000090912802892B8083E0910001F0910101C5
:10341000808190912702892B8083909106029923C5
:1034200081F0E0910001F09101018081892B80837E
:1034300080910001909101010E94CE1A81110E9499
:10344000EA1980910001909101010C94730E089586
:103450000C94271A98E0899F90011124622B6093A5
:1034600005020E94431880910502859585958595F2
:103470000C94281A1092050280E00C94281A4091AE
:1034800005028095842380930502982F977079F424
:1034900050E0282F332727FD30954217530739F086
:1034A0008595859585950E945E180C943A1A089525
:1034B0006FEF7FEF80E090E00C945A2480E090E082
:1034C0000E94362421E08D3E9E4F09F020E0822F9D
:1034D000089582E090E00C942E2483E090E00C9418
:1034E0002E2484E090E00C942E24682F84E090E059
:1034F0000C943C24AB01BC018FE090E00C944E2472
:10350000AB01BC0183E190E00C944E2460E070E0DC
:10351000CB010C94801A60E070E0CB010E947A1A13
:103520000C94861A6DEE7EEF80E090E00E945A24A3
:1035300060E082E090E00E943C2460E083E090E064
:103540000E943C2410920102109202021092030287
:103550001092040260E084E090E00E943C2460E06D
:1035600085E090E00E943C2460E086E090E00E94CC
:103570003C246FEF87E090E00E943C2440E050E064
:10358000BA0188E090E00E944E2460E08DE090E077
:103590000E943C240C948B1A0C94921A029620914F
:1035A0000C01211102C026E005C02091E70327FF8E
:1035B000FACF2EE1FC0180E0215028F0919199236F
:1035C000D9F38F5FF9CF089520E030E04FEFFC0191
:1035D000E20FF31F5281561799F04F3F19F4511122
:1035E00001C0422F2F5F3F4F2630310581F74F3FFB
:1035F00039F0FC01E40FF11D47FDFA95628308954F
:10360000089520E030E0FC01E20FF31F42814613F1
:1036100001C012822F5F3F4F26303105A1F7089578
:10362000262F2695269526952E3170F4FC01E20F63
:10363000F11D677021E030E0062E01C0220F0A94D0
:10364000EAF78281822B82830895262F269526957C
:1036500026952E3178F4FC01E20FF11D677021E010
:1036600030E0062E01C0220F0A94EAF720958281ED
:1036700028232283089520910C01222329F02091F0
:10368000E70327FD0C94101B0C94E41A20910C0105
:10369000222329F02091E70327FD0C94251B0C948D
:1036A000011B20910C01FC013296222331F0809104
:1036B000E70387FF02C08EE101C086E0DF011D92B3
:1036C0008A95E9F7089508950C94631B0E94641B82
:1036D0008091ED03843031F110922B0220E488E1D7
:1036E00090E00FB6F894A895809360000FBE2093E9
:1036F000600080E00E94A1070E94641B83B7817F65
:10370000846083BF83B7816083BF7894889583B7D3
:103710008E7F83BF88E10FB6F8948093600010928B
:1037200060000FBE089508950895CF930E94931BE3
:103730000E94090C0E94941BC0E08C2F0E94A90CCF
:10374000892B29F4CF5FC530C1F780E001C081E04B
:10375000CF91089508950C94AA1B0E94CE130E9445
:10376000670E0E94A1070C94AB1B1F920F920FB61D
:103770000F9211248F939F93AF93BF9380912B024D
:10378000811113C08091E3039091E403A091E503BC
:10379000B091E6034196A11DB11D8093E303909380
:1037A000E403A093E503B093E603BF91AF919F912B
:1037B0008F910F900FBE0F901F90189582E084BDDF
:1037C00093E095BD9AEF97BD80936E0008952FB753
:1037D000F8948091E3039091E403A091E503B09104
:1037E000E6032FBF08952FB7F8946091E30370911B
:1037F000E4038091E5039091E6032FBF0895CF92F3
:10380000DF92EF92FF920F931F932FB7F89440919E
:10381000E3035091E4036091E5037091E6032FBF49
:103820006A017B01EE24FF248C0120E030E0C01609
:10383000D106E206F30610F441505109481B590B1A
:10384000CA011F910F91FF90EF90DF90CF900895E4
:1038500078941F920F920FB60F9211248F939F931B
:10386000AF93BF938091E3039091E403A091E503AC
:10387000B091E6030196A11DB11D8093E3039093DF
:10388000E403A093E503B093E603BF91AF919F914A
:103890008F910F900FBE0F901F90189581E080932D
:1038A000E00080E28093D8001092C9008FE19EE48E
:1038B0000197F1F700C0000087E090EBDC018093F6
:1038C000F6039093F703A093F803B093F9032CE069
:1038D00088E190E00FB6F894A895809360000FBE41
:1038E00020936000FFCF0E945E1A811102C00E94E7
:1038F000CC1A0E94691A80932A020E94711A90E0E1
:103900009093E8038093E7030E946D1A682F70E09C
:1039100080E090E00C94E81780914C02089508959F
:103920000F931F93CF93DF9300D01F92CDB7DEB7D5
:103930008C010E94331F823011F0843019F584E02D
:1039400089831B830A838093E9008FEF9091E800BD
:10395000815095FD06C095ED9A95F1F70000811113
:10396000F5CF8091E80085FF0DC040E050E063E0B6
:1039700070E0CE0101960E94501F8091E8008E7782
:103980008093E8000F900F900F90DF91CF911F91DF
:103990000F910895CF93DF9300D01F92CDB7DEB77C
:1039A0002091ED03243029F533E0398380589109C3
:1039B0009B838A832093E9008FEF9091E8008150E8
:1039C00095FD06C095ED9A95F1F700008111F5CFB0
:1039D0008091E80085FF0DC040E050E063E070E0BA
:1039E000CE0101960E94501F8091E8008E7780934F
:1039F000E8000F900F900F90DF91CF910895CF9333
:103A0000DF93EC010E94331F823011F08430D9F52E
:103A100080910C01811103C068E081E006C08091B3
:103A2000E70387FFF9CF60E284E08093E9008FEF3E
:103A30009091E800815095FD06C095ED9A95F1F7BB
:103A400000008111F5CF8091E80085FF1CC08091B6
:103A50000C01811105C040E050E068E070E003C057
:103A600070E040E050E0CE010E94501F8091E800DD
:103A70008E778093E80080E2FE01ACE2B2E0019034
:103A80000D928A95E1F7DF91CF910895CF9360323F
:103A900029F52091ED03243009F52091E9002F70DC
:103AA0003091EC0030FF02C030E801C030E0C32F9D
:103AB000C22B22E02093E9002091E80020FF0BC0F8
:103AC00040E050E060E270E00E94501F8091E8000A
:103AD0008E778093E800CF70C093E900CF9108956E
:103AE0008091EC03811109C00E942B210E94882142
:103AF0008091E20084608093E20008951092EC03CC
:103B00000895089508950C94AD1B42E061EC81E0A6
:103B10000E94A52042E261EC84E00E94A52042E2DE
:103B200061EC82E00E94A52042E260EC83E00C940C
:103B3000A5208091EF03833009F462C030F4813016
:103B400071F0823009F49BC008958A3009F487C06F
:103B50008B3009F46DC0893009F0A9C020C0809174
:103B6000EE03813A09F0A3C08091E800877F80933B
:103B7000E8008091F2039091F303892B21F060E03B
:103B800080E090E003C060E28CE292E070E00E948E
:103B9000E21F8091E8008B778093E8000895809180
:103BA000EE03813209F083C08091F2039091F30318
:103BB000009719F0029709F07AC08091E800877F9A
:103BC0008093E8008091E80082FD05C08091ED03BC
:103BD0008111F8CF6CC02091F3008091F20090E049
:103BE000922B029729F48091F1008B7F813021F490
:103BF0008091F10080934C028091E8008B7753C054
:103C00008091EE03813A09F052C08091F2039091C5
:103C1000F303892B09F04BC08091E800877F8093E4
:103C2000E8008091E80080FFFCCF80910C0136C055
:103C30008091EE038132D9F58091F2039091F303E4
:103C4000892BA9F58091E800877F8093E8000E9486
:103C5000DA208091F00380930C010C94CE138091B4
:103C6000EE03813221F58091E800877F8093E800A0
:103C70000E94DA208091F10380934D020895809193
:103C8000EE03813AA1F48091E800877F8093E800F9
:103C90008091E80080FFFCCF80914D028093F1007D
:103CA0008091E8008E778093E8000C94DA200895E4
:103CB0001F93CF93DF93CDB7DEB7A0970FB6F894DD
:103CC000DEBF0FBECDBF84B7877F84BF88E10FB64C
:103CD000F89480936000109260000FBE80E880939B
:103CE0006100109261000E94C10E0E942B210E946F
:103CF00088218091E20084608093E20078940E94A1
:103D00000B240E94C70E82E091E00E94620E13E035
:103D10008091ED03853069F40E94661B8091EB036E
:103D20008823B1F30E94951B882391F30E943A1FC8
:103D3000EFCF0E94CD0E8091ED03843049F71093B0
:103D4000E9008091E80082FFE3CF8091E80085FFE1
:103D50000AC040E050E060E270E0CE0101960E94AF
:103D6000991F91E001C090E08091E8008B778093EB
:103D7000E800992369F260E2CE0101960E94D00525
:103D8000C7CF0C94C31E292F332723303105A9F048
:103D90006CF42130310509F448C02230310509F0B6
:103DA00049C08BE590E028EE34E048C0213231056F
:103DB000F9F02232310549F13DC099278130910552
:103DC00071F02CF4892BB1F5E4EEF4E00DC08230F3
:103DD000910541F0039771F5E0EAF4E005C0ECECE1
:103DE000F4E002C0E6EAF4E0849190E09F0126C08E
:103DF00063307105F8F4FB01EE0FFF1FE75DFE4F26
:103E00002081318189E090E019C06330710590F420
:103E1000FB01EE0FFF1FED5DFE4F20813181FB01A5
:103E2000E05EFE4F808190E009C082E190E023E4F3
:103E300035E004C080E090E020E030E0FA0131831A
:103E4000208308950895CF93C82F0E94221FC09306
:103E50004E02CF9108958091ED03843011F482E0F9
:103E6000089581E0089580914E02811102C00C9462
:103E70002B1F089580E189BD82E189BD09B400FE50
:103E8000FDCF8091D8008F7D8093D8008091E00095
:103E900082608093E0008091E00081FDFCCF089576
:103EA000CF92DF92EF92FF920F931F93CF93DF9306
:103EB0007C018B01EA010E94FB20811131C0209717
:103EC00031F088819981081B190BE80EF91EC12C6D
:103ED000D12C0115110519F18091E80085FD14C060
:103EE0008091E8008E778093E800209741F08881E8
:103EF00099818C0D9D1D9983888385E011C00E9456
:103F0000FB20882331F30CC0F70181917F0180935E
:103F1000F10001501109FFEFCF1ADF0ADACF80E07C
:103F2000DF91CF911F910F91FF90EF90DF90CF9095
:103F30000895CF92DF92EF92FF920F931F93CF934A
:103F4000DF937C018B01EA010E94FB20811131C0CB
:103F5000209731F088819981081B190BE80EF91E12
:103F6000C12CD12C0115110519F18091E80085FDB6
:103F700014C08091E8008B778093E800209741F08F
:103F8000888199818C0D9D1D9983888385E011C05E
:103F90000E94FB20882331F30CC08091F100F701CF
:103FA00081937F0101501109FFEFCF1ADF0ADACFA9
:103FB00080E0DF91CF911F910F91FF90EF90DF9004
:103FC000CF9008952091F4033091F5032617370719
:103FD00048F06115710539F42091E8002E7720939F
:103FE000E80001C0B901FC0120E061157105B9F1DB
:103FF0008091ED03882309F440C0853009F43FC067
:104000008091E80083FD3DC08091E80082FF06C0FA
:104010008091E80082FF26C080E008958091E8004A
:1040200080FFE3CF2091F3008091F20090E0922B8B
:104030006115710551F08830910538F42191209374
:10404000F100615071090196F3CF21E0089709F062
:1040500020E08091E8008E778093E800C6CF2111A0
:10406000C7CFD6CF8091ED03882339F0853039F062
:104070008091E80083FFCCCF04C082E0089583E004
:10408000089581E008952091F4033091F5032617F7
:10409000370748F06115710539F42091E8002E7753
:1040A0002093E80001C0B901FC0120E06115710511
:1040B000C1F18091ED03882309F441C0853009F4F2
:1040C00040C08091E80083FD3EC08091E80082FFFF
:1040D00006C08091E80082FF27C080E008958091AB
:1040E000E80080FFE3CF2091F3008091F20090E0A0
:1040F000922B6115710559F08830910540F4249197
:104100002093F1003196615071090196F2CF21E0C0
:10411000089709F020E08091E8008E778093E8000E
:10412000C5CF2111C6CFD5CF8091ED03882339F0BB
:10413000853039F08091E80083FFCBCF04C082E066
:10414000089583E0089581E00895982F973058F5F9
:104150009093E900981739F07091EC002091ED00F0
:104160005091F00003C0242F762F50E021FF19C09A
:104170003091EB003E7F3093EB003091ED003D7FBE
:104180003093ED003091EB0031603093EB00709391
:10419000EC002093ED005093F0002091EE0027FFFB
:1041A00007C09F5FD3CF8F708093E90081E00895AF
:1041B00080E008958091EE0387FD05C08091E800BE
:1041C00080FF0EC012C08091E80082FD05C0809182
:1041D000ED038111F8CF08958091E8008B7708C036
:1041E0008091ED038111EACF08958091E8008E77E8
:1041F0008093E80008958091E4009091E50045E601
:104200002091EC0020FF21C02091E80020FD21C07A
:104210002091ED03222389F0253089F02091EB00D5
:1042200025FD0FC02091E4003091E50028173907E3
:1042300039F3415041F0C901E3CF82E0089583E0B2
:10424000089581E0089584E008952091E80022FF18
:10425000DFCF80E008950E9499210E94A121E0EE25
:10426000F0E0808181608083E8EDF0E080818F77ED
:10427000808319BCA7EDB0E08C918E7F8C938081F8
:104280008F7E80831092EC0308950F931F93CF933A
:10429000DF930E9499210E94A121C8EDD0E088817E
:1042A0008F77888388818068888388818F7D8883E1
:1042B00019BC1092ED031092E9031092EB031092D7
:1042C000EA0300EE10E0F80180818B7F8083888113
:1042D0008160888342E060E080E00E94A520E1EEFA
:1042E000F0E080818E7F8083E2EEF0E0808181606B
:1042F0008083808188608083F80180818E7F8083C5
:10430000888180618883DF91CF911F910F910895FB
:10431000E8EDF0E080818F7E8083E7EDF0E0808142
:104320008160808384E082BF81E08093EC030C9401
:104330004521E8EDF0E080818E7F80831092E200DD
:1043400008951092DA001092E10008951F920F92E2
:104350000FB60F9211242F933F934F935F936F9358
:104360007F938F939F93AF93BF93EF93FF9380912E
:10437000E10082FF0BC08091E20082FF07C08091C4
:10438000E1008B7F8093E1000E940A248091DA0093
:1043900080FF1FC08091D80080FF1BC08091DA0091
:1043A0008E7F8093DA008091D90080FF0DC080E17C
:1043B00089BD82E189BD09B400FEFDCF81E0809313
:1043C000ED030E94701D05C019BC1092ED030E9400
:1043D0007E1D8091E10080FF19C08091E20080FF86
:1043E00015C08091E2008E7F8093E2008091E20010
:1043F00080618093E2008091D80080628093D80031
:1044000019BC85E08093ED030E94821D8091E1003C
:1044100084FF30C08091E20084FF2CC080E189BD20
:1044200082E189BD09B400FEFDCF8091D8008F7D67
:104430008093D8008091E1008F7E8093E10080918D
:10444000E2008F7E8093E2008091E20081608093A1
:10445000E2008091E903882311F084E007C0809195
:10446000E30087FF02C083E001C081E08093ED0399
:104470000E94831D8091E10083FF29C08091E200AA
:1044800083FF25C08091E100877F8093E10082E077
:104490008093ED031092E9038091E1008E7F809379
:1044A000E1008091E2008E7F8093E2008091E20043
:1044B00080618093E20042E060E080E00E94A520FD
:1044C0008091F00088608093F0000E94811DFF9130
:1044D000EF91BF91AF919F918F917F916F915F917C
:1044E0004F913F912F910F900FBE0F901F901895F5
:1044F0001F920F920FB60F9211242F933F934F9359
:104500005F936F937F938F939F93AF93BF93CF935B
:10451000EF93FF93C091E900CF708091EC0010926F
:10452000E9008091F000877F8093F00078940E94EA
:10453000B4221092E9008091F00088608093F0002E
:10454000C093E900FF91EF91CF91BF91AF919F91FF
:104550008F917F916F915F914F913F912F910F902C
:104560000FBE0F901F9018951F93CF93DF93CDB779
:10457000DEB7AA970FB6F894DEBF0FBECDBFEEEE42
:10458000F3E08091F100819323E0E63FF207C9F761
:104590000E94991D8091E80083FF24C12091EE03C1
:1045A0003091EF03832F90E08A30910508F01AC113
:1045B000FC01E255FF4F0C942824203821F02238CA
:1045C00009F010C108C08091EA039091EB03992390
:1045D00089F082600FC08091F2038F70873008F0FD
:1045E00001C18093E9008091EB0085FB882780F969
:1045F0001092E9009091E800977F9093E8008093F3
:10460000F1001092F100CCC0822F8D7F09F0EAC03A
:10461000222319F0223061F0E5C08091F00381304F
:1046200009F0E0C0333009F080E08093EB032AC04A
:104630008091F003811126C02091F2032F708FEF3B
:10464000820F863008F0CEC02093E9008091EB0005
:1046500080FF18C08091EB00333011F4806210C0ED
:1046600080618093EB0081E090E001C0880F2A9583
:10467000EAF78093EA001092EA008091EB008860EC
:104680008093EB001092E9008091E800877F80938F
:10469000E8000E94DA20A6C02111A4C01091F00306
:1046A0001F778091E3008078812B8093E3008091D5
:1046B000E800877F8093E8000E94DA208091E8007C
:1046C00080FFFCCF8091E30080688093E30011239A
:1046D00011F083E001C082E08093ED0383C0205895
:1046E000223008F07FC08091F0039091F1038C3D5F
:1046F00023E0920779F583E08A838AE289834FB7C2
:10470000F894DE01139620E03EE051E2E32FF0E062
:1047100050935700E49120FF03C0E295EF703F5F94
:10472000EF708E2F90E0EA3010F0C79601C0C0966F
:104730008D939D932F5F243149F74FBF8091E800FF
:10474000877F8093E8006AE270E0CE0101960E94C4
:10475000E21F15C06091F2037091F303AE014F5F49
:104760005F4F0E94C11E0097E9F12091E800277F6A
:104770002093E800BC0189819A810E9443208091A6
:10478000E8008B778093E8002DC0203859F58091A0
:10479000E800877F8093E8008091E9038093F1002F
:1047A0008091E8008E7773CF21111CC09091F003A7
:1047B0009230C0F48091E800877F8093E800909366
:1047C000E9030E94DA208091E903811104C08091FD
:1047D000E30087FF02C084E001C081E08093ED0325
:1047E0000E94851D8091E80083FF0AC08091E80047
:1047F000877F8093E8008091EB0080628093EB00DC
:10480000AA960FB6F894DEBF0FBECDBFDF91CF9151
:104810001F9108950895CF938091ED038823B1F0FF
:104820008091E9008F709091EC0090FF02C090E8B9
:1048300001C090E0C92FC82B1092E9008091E800D8
:1048400083FD0E94B422CF70C093E900CF910895F8
:10485000EE0FFF1F0590F491E02D0994F999FECF1A
:1048600092BD81BDF89A992780B50895A8E1B0E07E
:1048700042E050E00C946224262FF999FECF92BDBD
:1048800081BDF89A019700B4021639F01FBA20BD15
:104890000FB6F894FA9AF99A0FBE08950396272F47
:1048A0000E943D240E943C24252F0E943D24242F59
:1048B0000C943D240196272F0E943D240C943C2407
:1048C000DC01CB01FC01F999FECF06C0F2BDE1BDD0
:1048D000F89A319600B40D9241505040B8F70895BF
:0448E000F894FFCF7A
:1048E40007028C1CFF1C8F1CCA1C901C01F59531FF
:1048F4003233939267663635349796F0C6F4F6F7FA
:10490400402271E80555057705FA042C05130500C6
:00000001FF
