:100000000C9494040C94D8040C94D8040C94D80444
:100010000C94D8040C94D8040C94D8040C94D804F0
:100020000C94D8040C94D8040C94B22C0C94842D09
:100030000C94D8040C94D8040C94D8040C94D804D0
:100040000C94D8040C94D8040C94D8040C94D804C0
:100050000C94D8040C9434270C94D8040C94D80431
:100060000C94D8040C94D8040C94D8040C94D804A0
:100070000C94D8040C94D8040C94D8040C94D80490
:100080000C94E10A0C94D8040C94D8040C94D80471
:100090000C94D8040C94D8040C94D8040C94D80470
:1000A0000C94D8040C94D8040C94D8041C051F0597
:1000B000A3052A0532053E0588058B058E059105A9
:1000C00094054105440549055705650568056C0516
:1000D0007A05950B770B7A0B7D0B800B830B860BC8
:1000E000890B8C0B8F0B920B0E0C120C180C1E0C28
:1000F000240C2F0C290C350C380C3B0C3E0C410CFD
:10010000470C4D0C530C590C5F0C650C6B0C710CAF
:10011000780C830CF20C950D950D950D950D950DA4
:10012000020D0F0D140D190D1E0D230D2D0D370D84
:10013000410D490D530D5B0D650D6D0D770D820D54
:100140008C0E920E980E9D0EA20EA70EAC0EB10E46
:10015000B60EBB0EC00EC50ECA0ED00ED213D813EB
:10016000DC13DF13E313E713EB13EF13F413F813AC
:10017000FC130014031407140B140F141314181495
:10018000EC1CEC1C261D261D691DB41EB41EB41EDD
:100190008B1DB41E321E321EA81EB41EB41EAF1E0E
:1001A0003F1E3F1E3F1E3F1E3F1E3F1E3F1E3F1E67
:1001B0003F1E3F1E3F1E3F1E3F1E3F1E3F1E3F1E57
:1001C000511E611E681E6F1E791E441F441F571F5B
:1001D000571F4D1F571F571F571F441F441F531FA3
:1001E000571F571F531FE92D102EFE2E102EFE2EC7
:1001F000582E7B2EFE2ED12EE02E11100F0E0D0C40
:100200000B0A091213141516180706050403020138
:10021000001B1C1D1E1F2019083231302F2E2D36B9
:100220003738393A3B171A343329282726253F40D7
:1002300041423C3D3E21352C2BFFFFFFFF24FF4474
:10024000454647232240804B8454915BA461BB66A2
:10025000D569F26DFF80F33DFF43FF48FF4DFF522C
:10026000FF56FF5AFF5DFF60FF38FF33FF2EFF2A66
:10027000FF25FF23FF20FF13FF00FF35842C91256E
:10028000A41FBB1AD516F9EDFFE0FFDDFFB8FFB3E1
:1002900087AA95A3A99DC199DCFFFFA7FFA5FF80B1
:1002A0001A803C805E808080A280C491E994FFA186
:1002B000FF0009002B004D006F009100C9E0B5E67A
:1002C000D9EBFFBD80C883D28DDA9FFFFFC9E4CE92
:1002D000FFD5FFDAFF781068105810481038102842
:1002E00010181004100420800070006000500040BE
:1002F0000030002000100000009000A000B000C0FE
:1003000000D800E000F000F010F02088109810A84D
:1003100010B810C810DC10F030F040E040604064CD
:10032000305430443034302430FFFF303C1C406CBB
:10033000205C204C203C202C201C20142C0A300453
:10034000407C208C209C20AC20BC20D620B430CA1D
:1003500030E030743084309430A430FFFF903CA4FF
:1003600040BC40D04029001E001F00200021002278
:1003700000230024002500260027002D002E002A3F
:10038000004A002B0014001A000800150017001C7A
:100390000018000C00120013002F00300031004B39
:1003A00000390004001600070009000A000B000DC8
:1003B000000E000F0033003400280000004E00E162
:1003C0000000001D001B00060019000500110010B0
:1003D00000360037003800E50052004D00E000E232
:1003E00000000000000000000000002C00000000E1
:1003F00000115F105F500051004F0035003A003B84
:10040000003C003D003E003F0040004100420043F0
:1004100000440045004C0001000100010001000102
:1004200000010001000100010046004700480001F2
:1004300000010001000100010001000100010001B4
:1004400000010001000100010001000100010001A4
:100450000000000100010000000100010001000196
:100460000001000100010001000100010001000184
:100470000001000100010000000000000000000079
:100480000001000000000001000100010001000166
:100490000001000100010001000100010001000154
:1004A0000001000100010001000100010001000144
:1004B0000001000100010001000100010001000134
:1004C0000001000100010001000100010001000124
:1004D0000001000100010001000100010001000114
:1004E0000001000100010000000100010000000106
:1004F00000010001000100010001000100010001F4
:1005000000010001000100010001000100000000E5
:1005100000000000000000010000000000010001D8
:10052000000100010001000100035F025F075F0698
:100530005F0B5F0A5F0100010001000100015F0025
:100540005F01000100010001000100095F085F0D6B
:100550005F0C5F01000100010001000100010001CA
:100560000001000100010001000100010001000183
:100570000001000100010001000100010000000174
:100580000001000000010001000100010001000164
:100590000001000100010001000100010001000153
:1005A0000001000000000000000000000001000049
:1005B0000000000100010001000100010000000036
:1005C00000000000002A2B280000000000000000AE
:1005D000000000000000000029000000002C1E3474
:1005E00020212224342627252E362D3738271E1F7A
:1005F000202122232425263333362E37381F0405A5
:10060000060708090A0B0C0D0E0F10111213141512
:10061000161718191A1B1C1D2F3130232D350405F0
:10062000060708090A0B0C0D0E0F101112131415F2
:10063000161718191A1B1C1D2F3130354C000000DD
:1006400000000000000000000000000000000000AA
:100650000000000000000000000000000000010198
:100660000101010100010101010000000000000082
:100670000000000000000001000100010101010173
:10068000010101010101010101010101010101015A
:100690000101010101010101000000010100000050
:1006A000000000000000000000000000000000004A
:1006B0000000000000000000010101010000000036
:1006C0000000010101010101010101020202020217
:1006D00002020202030303030303030304040404EA
:1006E00004040505050505060606060607070707AF
:1006F000080808080909090A0A0A0A0B0B0B0C0C5E
:100700000C0D0D0D0E0E0F0F0F10101111111212F6
:1007100013131414151516161717181819191A1A71
:100720001B1C1C1D1D1E1F1F2020212222232425CF
:100730002526272728292A2B2B2C2D2E2F2F303109
:100740003233343536363738393A3B3C3D3E3F401C
:1007500041424344464748494A4B4C4D4F50515201
:1007600053555657585A5B5C5E5F606263646667B8
:10077000696A6C6D6E707173747678797B7C7E803B
:1007800081838486888A8B8D8F91929496989A9B88
:100790009D9FA1A3A5A7A9ABADAFB1B3B5B7B9BB99
:1007A000BDBFC1C4C6C8CACCCFD1D3D6D8DADCDF6E
:1007B000E1E4E6E8EBEDF0F2F5F7FAFCFF040330D4
:1007C0000000000E035A00650061006C0036003521
:1007D0000000000E035A00650061006C00500043E9
:1007E0000000000403090409025B00030100A0FAF1
:1007F0000904000001030101000921110100012287
:1008000040000705810308000A09040200010300F3
:100810000000092111010001227100070584032055
:10082000000A09040100020300000009211101006F
:10083000012222000705820320000107050303208F
:1008400000011201100100000008455A6500010076
:10085000010203010660FF0961A10109621500267A
:10086000FF009520750881020963150026FF009599
:100870002075089102C005010980A10185031601B8
:10088000002603001A81002A83007510950181005B
:10089000C0050C0901A1018504160100269C021A5D
:1008A00001002A9C02751095018100C0050109060E
:1008B000A1018505050719E029E71500250195081F
:1008C0007501810205081901290595057501910237
:1008D0009501750391010507190029EF1500250100
:1008E00095F075018102C005010906A101050719EE
:1008F000E029E7150025019508750181029501752C
:1009000008810105081901290595057501910295D0
:1009100001750391010507190029FF150026FF0045
:10092000950675088100C00011241FBECFEFDAE0E4
:10093000DEBFCDBF04B603FE24C080912005909198
:100940002105A0912205B09123058730904BA74047
:10095000B04BB9F410922005109221051092220597
:100960001092230514BE84B7877F84BF88E10FB639
:10097000F89480936000109260000FBEE0E0F8E30E
:10098000099512E0A0E0B1E0EEEEF0E602C00590BD
:100990000D92A437B107D9F715E0A4E7B2E001C082
:1009A0001D92A032B107E1F70E9464290C947530C2
:1009B0000C94000080E290E00E94D82F8F31954483
:1009C00051F482E290E00E94D02F91E0883009F04B
:1009D00090E0892F01C080E081700895CF93C82FE7
:1009E000882319F06FE175E402C06FEF7FEF80E2BA
:1009F00090E00E940C30CC2311F068E001C06FEF52
:100A000082E290E0CF910C94EE2F80E00E94EE0401
:100A10000C94BE251F93CF93DF93EC01162F019604
:100A2000488150E0FA013197E331F10508F08BC0BD
:100A3000EA5AFF4F0C945C2F198288E028C0898104
:100A4000813009F080C00E94FF269A838B837C83CB
:100A50006D837BC04B816A8189810E9460189C8371
:100A60008D8373C02C8130E0322F22278D81282B7B
:100A70004B816A8189810E94791867C00E9495180C
:100A800064C00E942E1926C00E94301999838A835F
:100A90005CC06B8170E0898190E0982F88272A8163
:100AA000AE014C5F5F4F822B0E9433194EC06B81A9
:100AB00070E0898190E0982F88272A81AE014C5FF1
:100AC0005F4F822B0E94581940C00E947E193DC082
:100AD0000E944D18898339C06B8170E0898190E054
:100AE000982F88272A81AE014C5F5F4F822B0E948E
:100AF000D6182BC06B8170E0898190E0982F8827F1
:100B00002A81AE014C5F5F4F822B0E94FB181DC0F3
:100B10000E94E20C1AC00E94F90B17C00E94A50C9B
:100B200014C00E94050511C0CE010E9452282FEF6B
:100B300081EE94E0215080409040E1F700C0000039
:100B40000E945A2702C08FEF8883612FCE01DF9168
:100B5000CF911F910C9452280E94DA04882319F037
:100B60000E949D0C09C00E94A50C0E9495180E942D
:100B70007E1981E00E94EE040E94AD0C0E94D7060F
:100B80000C94EB060E9473178FE19EE40197F1F736
:100B900000C000008FE19EE40197F1F700C0000063
:100BA0000E94731780E00E940C1880FF04C00E940E
:100BB00005050C945A2708950E94C2050E94AC05B1
:100BC0000C9427170E94B4060C9428170F931F93B8
:100BD000CF93DF93EC018B010E94740EF8018281A8
:100BE000C031FFE5DF0729F0C1319FE5D90739F0B2
:100BF00015C0882311F081E005C081E00CC0882376
:100C000049F082E00E94A92343E062E081E00E9473
:100C1000F91218C082E00E94C423F6CF882351F055
:100C2000CE0182519F45409728F48C2F82510E941B
:100C30008E1908C0B801CE01DF91CF911F910F919D
:100C40000C943F1280E0DF91CF911F910F91089596
:100C50009C013F502F3F310509F058F49C01332788
:100C6000A901415351094230510518F4C901986F47
:100C70000895FC01EE0FFF1FE354F94F8591949105
:100C80000895CF93DF93EC018FEC860F823038F517
:100C90008A818823D9F0613311F481E001C082E0B8
:100CA0000E94A9238D81982F907F61F080FD0AC05A
:100CB00082958F7090E0039794F083E0DF91CF915D
:100CC0000C94E3238D818F708D8309C0613311F4FF
:100CD00081E001C082E0DF91CF910C94C423DF91C9
:100CE000CF9108950C94F40681E00C94F10680E015
:100CF0000C94F106DB01E82FF0E0EE0FFF1FEB5242
:100D0000FD4F94919C933196E4911196EC93119739
:100D1000863131F48091050180FF02C098509C9388
:100D20000895E82FF0E0EE0FFF1FEB5BFD4F84917D
:100D3000DB018C933196E491DB011196EC930895DD
:100D4000853020F08FEFDA018C9308956F30D0F763
:100D5000BFE08B9FF0011124E60FF11DE650FE4F1E
:100D6000E491DA01EC93089566E784E70E9420118C
:100D700066E784E70C943311CF93DF931F92CDB7CE
:100D8000DEB7AE014F5F5F4F0E94A006E981F0E041
:100D9000EF56FC4F1082109276021092770210925A
:100DA0007802109279020F90DF91CF91089580918F
:100DB000750281110FC081E0809375028DE08093F0
:100DC00091008FB7F89493E0909399009DE09093F1
:100DD00098008FBF0895E1E7F0E080818260808312
:100DE000089580937F02089580937E0208958091F4
:100DF0007A0290917B02A0917C02B0917D02807377
:100E00009927AA27BB2734E0B695A795979587958C
:100E10003A95D1F782309105A105B10571F0833083
:100E20009105A105B10569F040E00197A105B10563
:100E300011F060E008C06FEF02C04FEF60E080E0AB
:100E400003C04FEF6FEF8FEF0C94261040E060E08F
:100E500080E00C94261060910A0170910B01809142
:100E600007010E94DC0E962F672F482F892F0C94C4
:100E700026105F926F927F928F929F92AF92BF9255
:100E8000CF92DF92EF92FF920F931F93CF93DF9356
:100E90001F92CDB7DEB760910A0170910B0180916E
:100EA00007010E94DC0EA62E972E882E60910C0161
:100EB00070910D01809107010E94DC0E762E672E45
:100EC000582E4AE1E42E41E0F42EB12CCC24C394F8
:100ED000D12C00E010E0AE014F5F5F4F602F8B2DF3
:100EE0000E94A00689818834C0F4F601002E02C059
:100EF000EE0FFF1F0A94E2F7D7012D913C91E223F8
:100F0000F32390E0EF2B21F4282D492D6A2D03C007
:100F1000252D462D672D0E94FE0F0F5F1F4F0F30AE
:100F20001105C9F6B394B2E0EB0EF11C85E0B812DE
:100F3000D0CF0F90DF91CF911F910F91FF90EF9045
:100F4000DF90CF90BF90AF909F908F907F906F90E9
:100F50005F900895DF92EF92FF920F931F93CF93CC
:100F6000DF9300D0CDB7DEB780910C0190E02091E7
:100F70000A01821B91098038910514F09A9505C0E9
:100F800081382FEF92070CF4939597FD0396959572
:100F9000879595958795D82E20910D0130E0809109
:100FA0000B01281B310937FF02C02D5F3F4F3595DC
:100FB000279535952795E22EF090070100E010E087
:100FC000BE016F5F7F4F802F0E947A069A819295B3
:100FD0009F7060910A019D9D600D112470910B011D
:100FE0009E9D700D11248F2D0E94DC0E472F282FFF
:100FF000C8010E94FE0F0F5F1F4F0834110501F753
:101000000F900F90DF91CF911F910F91FF90EF9074
:10101000DF9008958F929F92BF92CF92DF92EF92CE
:10102000FF920F931F93CF93DF931F92CDB7DEB73D
:10103000D82EF0900A0120910C0130E02F193109CF
:1010400037FF02C02D5F3F4F359527953595279582
:10105000C22EE0900B0120910D0130E02E193109D4
:1010600037FF02C02D5F3F4FA90155954795559514
:101070004795B42E0E94B02F68E470E00E94482F7C
:101080008C01812C912C1127D11003C08016910660
:10109000C9F40E94B02F83706F2D8C9D600D1124B8
:1010A00069830E94B02F83707E2D8B9D700D11245B
:1010B0006981809107010E94DC0E472F282FC4010F
:1010C0000E94FE0F8FEF881A980AE8E48E169104AA
:1010D000D9F60F90DF91CF911F910F91FF90EF9074
:1010E000DF90CF90BF909F908F900895DF92EF9206
:1010F000FF920F931F93CF93DF9380917A02909189
:101100007B02A0917C02B0917D020090090104C095
:10111000880F991FAA1FBB1F0A94D2F7D82E01E986
:1011200013E0C0E0D0E0AFE3EA2EF12CF80121910A
:101130008F01F4E02F9F90011124CA32D10551F0A4
:10114000C334D10539F08091050183FF09C0C4344F
:10115000D10531F42091B50384E0289F900111243A
:101160002034310520F4B701621B730B02C060E02C
:1011700070E06D0D7FEF809107010E94DC0E472F1C
:10118000282FCE010E94FE0F2196C834D10571F69A
:10119000DF91CF911F910F91FF90EF90DF90089515
:1011A0008F929F92AF92BF92CF92DF92EF92FF9277
:1011B0000F931F93CF93DF9300D0CDB7DEB780910D
:1011C0007A0290917B02A0917C02B0917D02009006
:1011D000090104C0880F991FAA1FBB1F0A94D2F7E8
:1011E000882E90900701B1E9CB2EB3E0DB2E00E012
:1011F00010E08FE3A82EB12CF60121916F01F4E0ED
:101200002F9F900111240A32110551F0033411056A
:1012100039F08091050183FF09C00434110531F4D0
:101220002091B50384E0289F9001112420343105DA
:1012300020F47501E21AF30A02C0E12CF12CBE0180
:101240006F5F7F4F802F0E947A066981680D6E0D57
:101250007FEF892D0E94DC0E472F282FC8010E94A6
:10126000FE0F0F5F1F4F0834110531F60F900F90DE
:10127000DF91CF911F910F91FF90EF90DF90CF9072
:10128000BF90AF909F908F9008958F929F92AF9252
:10129000BF92CF92DF92EF92FF920F931F93CF9363
:1012A000DF9300D0CDB7DEB780917A0290917B02B8
:1012B000A0917C02B0917D020090090104C0880FCA
:1012C000991FAA1FBB1F0A94D2F7882E909007017E
:1012D00091E9C92E93E0D92E00E010E02FE3A22E71
:1012E000B12CF60121916F01F4E02F9F90011124A0
:1012F0000A32110551F00334110539F080910501CE
:1013000083FF09C00434110531F42091B50384E052
:10131000289F900111242034310520F47501E21A30
:10132000F30A02C0E12CF12CBE016F5F7F4F802FCA
:101330000E947A066A81680D6E0D7FEF892D0E94EA
:10134000DC0E472F282FC8010E94FE0F0F5F1F4F92
:101350000834110531F60F900F90DF91CF911F9156
:101360000F91FF90EF90DF90CF90BF90AF909F9044
:101370008F900895CF92DF92FF920F931F93CF9398
:10138000DF931F92CDB7DEB7F82E0E94B02F68E42E
:1013900070E00E94482F8C01C12CD12C1127F11034
:1013A00003C0C016D10681F40E94B02F89830E9429
:1013B000B02F6981782F809107010E94DC0E472FA2
:1013C000282FC6010E94FE0F8FEFC81AD80AE8E442
:1013D000CE16D10421F70F90DF91CF911F910F917D
:1013E000FF90DF90CF900895EF92FF920F931F939D
:1013F000CF93DF9300D0CDB7DEB780917A02909182
:101400007B02A0917C02B0917D020090090104C092
:10141000880F991FAA1FBB1F0A94D2F7E82EF090DD
:10142000070100E010E0BE016F5F7F4F802F0E9438
:10143000910669816E0D7A818F2D0E94DC0E472FF7
:10144000282FC8010E94FE0F0F5F1F4F083411059F
:1014500051F70F900F90DF91CF911F910F91FF9057
:10146000EF900895EF92FF920F931F93CF93DF9326
:1014700000D0CDB7DEB780917A0290917B02A09127
:101480007C02B0917D020090090104C0880F991F71
:10149000AA1FBB1F0A94D2F7E82EF090070100E0C4
:1014A00010E0BE016F5F7F4F802F0E94910669811F
:1014B0006E0D67FD60956695669580910A01680FCF
:1014C0007A81769571588F2D0E94DC0E472F282F38
:1014D000C8010E94FE0F0F5F1F4F0834110509F766
:1014E0000F900F90DF91CF911F910F91FF90EF9090
:1014F00008950F931F93CF93DF93082F80910701D7
:101500000E94DC0EEB01182F0E3F49F4482F6D2F7F
:101510008C2FDF91CF911F910F910C942610282FC3
:101520004D2F802F90E00E94FE0F043291F4212F66
:101530004D2F6C2F8BE290E00E94FE0F212F4D2F3C
:101540006C2F84E490E0DF91CF911F910F910C9468
:10155000FE0FDF91CF911F910F910895809110019F
:101560008F3F51F090917E0291FF06C060910E0175
:1015700070910F010E94790A8091400383FF09C096
:10158000809119018F3FE1F060911701709118016E
:1015900015C082FF09C0809116018F3F89F06091CC
:1015A0001401709115010AC081FF0AC080911301D6
:1015B0008F3F31F060911101709112010C94790A02
:1015C00008951F920F920FB60F9211240F931F933D
:1015D0002F933F934F935F936F937F938F939F933B
:1015E000AF93BF93EF93FF9380917402843120F403
:1015F0008F5F809374029FC080917A0290917B02EA
:10160000A0917C02B0917D020196A11DB11D809335
:101610007A0290937B02A0937C02B0937D0280912A
:10162000760290917702A0917802B09179028F3F73
:101630002FEF9207A207B20759F00196A11DB11D25
:101640008093760290937702A0937802B093790208
:10165000E1E9F3E080818F3F11F08F5F8083319665
:1016600083E0E93DF807B1F7409108014F3F19F4D5
:101670000E94F70660C080917F02882321F080914C
:10168000050185FD1EC050910601511102C080E088
:1016900019C020EB34E0529FC001539F900D1124DC
:1016A000AA2797FDA095BA2F009176021091770294
:1016B000209178023091790280179107A207B30731
:1016C00030F781E0182F117009F040E081E090912F
:1016D0000401491301C080E04093040150E04B3005
:1016E000510518F5FA01E759FF4F0C945C2F0E9441
:1016F0002B071DC00E9439071AC00E94AA0717C0F5
:101700000E940A0814C00E94760811C00E94D008E6
:101710000EC00E9445090BC00E94BA0908C00E9471
:10172000F40905C00E94320A02C00E942607111166
:1017300002C00E94AE0AFF91EF91BF91AF919F91BD
:101740008F917F916F915F914F913F912F911F9159
:101750000F910F900FBE0F901F901895FC01862FD0
:10176000642F853010F080830895AF010C94A0069B
:10177000AF92BF92CF92DF92EF92FF920F931F939F
:10178000CF93DF931F92CDB7DEB7B82E8B017A01CE
:1017900082E08B0D823020F0C12CAA24AA940DC0C7
:1017A000FB01B082FA01108218C0D394FFE0DF126F
:1017B00005C0C39485E0C81681F0D12CA982AE0182
:1017C0004F5F5F4F6D2D8C2D0E94A00689818B117C
:1017D000ECCFF801C082F701D0820F90DF91CF915A
:1017E0001F910F91FF90EF90DF90CF90BF90AF903F
:1017F00008950F931F93CF93DF93EC01BC016F5FAC
:101800007F4F088110E0015011090631110508F0E1
:101810008FC00C581F4FF8010C945C2F809105016C
:10182000817004C08091050186958170898380C094
:101830008091050182FB882780F9F8CF809105010E
:1018400083FB882780F9F2CF809105018295817012
:10185000EDCF8091050185FB882780F9E7CF809146
:10186000050186FB882780F9E1CF80910601DECF54
:1018700080910701DBCF80910801D8CF80910901C9
:10188000D5CF80910A01898380910B012FC080916F
:101890000C01898380910D0129C080910E018983FB
:1018A00080910F0123C0AC014E5F5F4F809110010A
:1018B00024C08091110189838091120117C0AC016D
:1018C0004E5F5F4F8091130118C08091140189838E
:1018D000809115010BC0AC014E5F5F4F80911601E6
:1018E0000CC0809117018983809118018A8320C0E0
:1018F000AC014E5F5F4F80911901DF91CF911F9135
:101900000F910C94B80BAAE1B1E0FC013296AD0145
:10191000CF01019711962C911197EC012883129613
:10192000EA01888180833296D1E0A432BD0779F73D
:10193000DF91CF911F910F9108954FE150E063E245
:1019400070E085E091E00C94C02F4FE150E063E23D
:1019500070E085E091E00C94DE2FCF93DF930E943E
:101960005D1184E70E94AE0F86E70E94AE0FC0E0D3
:10197000D0E0C731D10529F48091050180FD04C074
:1019800007C0CA32D10521F061E0C334D10509F4A2
:1019900060E06170262F462F8C2F0E944010219608
:1019A000C834D10531F766E784E70E943311E1E9D5
:1019B000F3E08FEF819393E0E93DF907D9F7DF91E9
:1019C000CF910895CF93DF93DC014C9150E04150CB
:1019D00051094631510508F0A8C046575F4FFA013A
:1019E0000C945C2F91E011968C91811101C090E0D4
:1019F0008091050190FB80F980930501DF91CF91E3
:101A00000C94AD0C91E011968C91811101C090E085
:101A10008091050190FB85F98093050186C01196A0
:101A20008C918093060181C011968C91809307015F
:101A30007CC011968C918093080177C011968C918F
:101A40008093090172C011968C91119780930A01BD
:101A500012968C9180930B0168C011968C9111970E
:101A600080930C0112968C9180930D015EC01196AB
:101A70008C91119780930E0112968C9180930F0197
:101A800054C012964C91129711966C9180E191E09E
:101A900035C011968C9111978093110112968C91FB
:101AA0008093120142C012964C91129711966C913C
:101AB00083E191E023C011968C91119780931401DA
:101AC00012968C918093150130C012964C9112970A
:101AD00011966C9186E191E011C011968C9111974D
:101AE0008093170112968C91809318011EC0129654
:101AF0004C91129711966C9189E191E0DF91CF9111
:101B00000C94AE0BFC013296AAE1B1E0EF012197F3
:101B1000888190E0982F88272081822B8D939D9338
:101B2000329681E0A432B80789F7DF91CF9108950A
:101B30008091080190E001968B30910514F08AE0C5
:101B400090E0809308010C94A50C8091080190E02E
:101B5000019797FF02C080E090E08B30910514F070
:101B60008AE090E0809308010C94A50C8091090113
:101B700090E001968430910514F083E090E080932A
:101B800009010C94A50C8091090190E0019797FF41
:101B900002C080E090E08430910514F083E090E092
:101BA000809309010C94A50C8091070190E00896A0
:101BB0008F3F910519F014F08FEF90E080930701AB
:101BC0000C94A50C8091070190E0089797FF02C044
:101BD00080E090E08F3F910519F014F08FEF90E0D6
:101BE000809307010C94A50C80910A0190E008965F
:101BF0008F3F910519F014F08FEF90E080930A0168
:101C00000C94A50C80910A0190E0089797FF02C000
:101C100080E090E08F3F910519F014F08FEF90E095
:101C200080930A010C94A50C80910B0190E008961A
:101C30008F3F910519F014F08FEF90E080930B0126
:101C40000C94A50C80910B0190E0089797FF02C0BF
:101C500080E090E08F3F910519F014F08FEF90E055
:101C600080930B010C94A50C80910C0190E00896D8
:101C70008F3F910519F014F08FEF90E080930C01E5
:101C80000C94A50C80910C0190E0089797FF02C07E
:101C900080E090E08F3F910519F014F08FEF90E015
:101CA00080930C010C94A50C80910D0190E0089696
:101CB0008F3F910519F014F08FEF90E080930D01A4
:101CC0000C94A50C80910D0190E0089797FF02C03D
:101CD00080E090E08F3F910519F014F08FEF90E0D5
:101CE00080930D010C94A50C0F931F93CF93DF935A
:101CF0008C01EB018A81882321F0688189810E940F
:101D0000BC06F801FF55EE30F10508F04EC0E05674
:101D1000FF4FCA810C945C2FCC2309F447C00E946A
:101D2000D40D3CC0CC2309F441C00E94E20D36C062
:101D3000CC23E1F10E94980D31C0CC23B9F10E946F
:101D4000A50D2CC0CC2391F10E94B60D27C0CC2349
:101D500069F10E94C30D22C0CC2341F10E94F40D11
:101D60001DC0CC2319F10E94020E18C0CC23F1F043
:101D70000E94140E13C0CC23C9F00E94220E16C07C
:101D8000CC23A1F00E94340E09C0CC2379F00E942C
:101D9000420E04C0CC2351F00E94540EC0E006C095
:101DA000CC2321F00E94620E01C0C1E08C2FDF9194
:101DB000CF911F910F910895AF92BF92DF92EF9252
:101DC000FF920F931F93CF93DF93D82EF82F7111AB
:101DD00003C0682F782F7FC0E62EF12CC72FD0E0EC
:101DE000082F10E0C7016BE270E00E94342F45ED30
:101DF00046039001479F300D11242E0D3F1D46E0F4
:101E0000429FC001439F900D11244FEF50E0DA0133
:101E1000AC1BBD0BA09F9001A19F300DB09F300D5A
:101E20001124F32E8C9FD0018D9FB00D9C9FB00D7F
:101E30001124AB2FBB275A01AA1ABB0AA09ED001BE
:101E4000A19EB00DB09EB00D1124EB2F5A01A81A1F
:101E5000B90AAC9EC001AD9E900DBC9E900D1124A0
:101E6000892F9927481B590B409FE001419FD00DB6
:101E7000509FD00D112462307105A9F03CF461151A
:101E8000710571F061307105C1F014C063307105E6
:101E900069F06430710571F4D32EFF2EED2F0DC063
:101EA000ED2DDD2E0AC0E32FFD2E07C0E32FFD2C04
:101EB000DB2E03C0EF2FD32EFB2EF0E0E354F94FBF
:101EC0006491ED2DF0E0E354F94F7491EF2DF0E0C3
:101ED000E354F94F8491DF91CF911F910F91FF90BF
:101EE000EF90DF90BF90AF9008956093F904409316
:101EF000FA0424E630E042E050E069EF74E0880F35
:101F00000C940C12FF920F931F93CF93DF938B01CE
:101F1000F82EFF0CC0E0D0E08C2F8C5D8093F9048C
:101F2000EAEFF4E0D801AC0FBD1F8D91819385E0FD
:101F3000EA30F807D1F724E630E041E150E069EFFC
:101F400074E08F2D0E940C126096C039D10521F7E4
:101F5000DF91CF911F910F91FF900895CF93DF9361
:101F6000C82F4BE06DEF0E94750F40E06AE08C2FA8
:101F70000E94750F8FE39CE90197F1F700C0000004
:101F800040E060E08C2F0E94750F40E061E08C2FF4
:101F90000E94750F40E066E08C2F0E94750F40E0B4
:101FA0006DEF8C2F0E94750FD0E040E06D2F8C2FCD
:101FB0000E94750FDF5FD231C1F740E06D2F8C2F8B
:101FC0000E94750FDF5FD432C1F740E06D2F8C2F78
:101FD0000E94750FDF5FD43BC1F74BE06DEF8C2F94
:101FE0000E94750F41E06AE08C2F0E94750F40E05F
:101FF0006DEF8C2FDF91CF910C94750F8834910584
:1020000020F5FC01EE0FFF1FEE0FFF1FEF5CFE4FF0
:1020100052813381808183707181E0E98E9FC0019C
:10202000112487529C4FFC01E70FF11DB497608388
:10203000FC01E50FF11DB4974083FC01E30FF11D96
:10204000B497208381E08093A5020895FF920F93B7
:102050001F93CF93DF93182F062FF42EC0E0D0E00C
:102060002F2D402F612FCE010E94FE0F2196C834E4
:10207000D105B1F7DF91CF911F910F91FF90089596
:102080007F928F929F92AF92BF92CF92DF92EF9208
:10209000FF920F931F93CF93DF93362F54E0859FCA
:1020A000F0011124EF5CFE4F7080872D8370782E35
:1020B000618170E0CB0184974C0197FF04C04B0114
:1020C0005DE1851A910873E0959487947A95E1F71C
:1020D000628170E07B0154E2E51AF1085701F7FED6
:1020E00004C05B015DE1A51AB10863E0B594A79453
:1020F0006A95E1F7638170E08B0104521109680170
:1021000017FF04C06B015DE1C51AD10853E0D594F7
:10211000C7945A95E1F7C8E0D0E0BE010E94482F6D
:10212000FC01C701BE010E94482F7C01C801BE010D
:102130000E94482FA72DB0E09924FF273323A9F050
:1021400032E13A9FE0013B9FD00D1124C80DD91D0B
:10215000CF57DD4F61E070E00E2E01C0660F0A948C
:10216000EAF73881362B388314C032E13A9FE00118
:102170003B9FD00D1124C80DD91DCF57DD4F61E015
:1021800070E001C0660FEA95EAF760953881632335
:102190006883BB24FF2432E13A9FF0013B9FF00D9E
:1021A0001124EA0DFB1DEF57FD4F442359F041E088
:1021B00050E00E2C01C0440F0A94EAF73081342B12
:1021C00030830BC041E050E00E2C01C0440F0A9454
:1021D000EAF74095308143234083DD24992792E13B
:1021E0009A9FF0019B9FF00D1124EC0DFD1DEF5700
:1021F000FD4F222351F021E030E001C0220F8A95EB
:10220000EAF78081822B80830AC021E030E001C0A0
:10221000220F8A95EAF7209580812823208381E088
:1022200080938002DF91CF911F910F91FF90EF90EB
:10223000DF90CF90BF90AF909F908F907F90089548
:10224000CF93C62F9091A502992349F069ED73E0D1
:102250000E94820F69E674E08C2F0E94820F109218
:10226000A502CF910895DF92EF92FF920F931F93F3
:10227000CF93DF93D82EE62E809180028823A9F099
:1022800001E812E0C3E9D2E0F12CF80141918F019D
:102290006F2D8D2D0E94750F49916F2D8E2D0E94EF
:1022A000750FF394F2E1FF12F0CFDF91CF911F9100
:1022B0000F91FF90EF90DF9008951092B9008CE09D
:1022C0008093B8000895FF920F931F93CF93DF93ED
:1022D000F82EEB011092BC0084EA8093BC000E94AF
:1022E000F3268C018091BC0087FD0EC0CF3F8FEF9D
:1022F000D807C1F30E94F326801B910B8C179D0712
:1023000088F38EEF9FEF2EC09091B900987F9830A0
:1023100041F09091B900987F903119F08FEF9FEFC5
:1023200021C0F092BB0084E88093BC000E94F32699
:102330008C018091BC0087FD0CC0CF3F8FEFD80788
:10234000C1F30E94F326801B910B8C179D0788F325
:10235000D8CF8091B900887F883111F08034F1F6B0
:1023600080E090E0DF91CF911F910F91FF90089551
:102370000F931F93CF93DF93EB018093BB0084E80F
:102380008093BC000E94F3268C018091BC0087FDE5
:102390000EC0CF3F8FEFD807C1F30E94F326801BFA
:1023A000910B8C179D0788F38EEF9FEF0CC0209147
:1023B000B900287F81E090E0283211F480E090E0BD
:1023C000919581959109DF91CF911F910F9108957A
:1023D0000F931F93CF93DF93EC0184E98093BC00AC
:1023E0000E94F3268C018091BC0084FF0EC0CF3F79
:1023F0008FEFD807C1F30E94F326801B910B8C1737
:102400009D0788F38EEF9FEF02C080E090E0DF91A0
:10241000CF911F910F910895CF92DF92EF92FF928B
:102420000F931F93CF93DF936B017A018901B90159
:102430000E9463110097C1F4E601EC0CFD1CCE155F
:10244000DF0539F0B80189910E94B8110097B9F3FE
:102450000BC0C801DF91CF911F910F91FF90EF90BA
:10246000DF90CF900C94E811DF91CF911F910F91E5
:10247000FF90EF90DF90CF90089581E0089581E084
:102480000895CF93282F30E0F901E354FA4FC49117
:10249000F901E35CF94F2491222359F081EE0E9467
:1024A000231B8C2F0E94231B8C2F0E943B1C81EE30
:1024B00004C08C2F0E94231B8C2FCF910C943B1CAB
:1024C000FF920F931F93CF93DF93EC01F62E888139
:1024D000882331F18E010F5F1F4F813031F4C981A4
:1024E0008C2F0E94231B8C2F0AC0823029F48981F3
:1024F0000E94231BE80108C0833021F489810E94D7
:102500003B1CF8CF0E94411221968F2D8823F9F2AF
:10251000EFE9FFE03197F1F700C000008150F6CFFE
:10252000DF91CF911F910F91FF90089560E00C947F
:1025300060124F925F926F927F928F929F92AF92B2
:10254000BF92CF92DF92EF92FF920F931F932B01D6
:102550003C01C12CD12C7601C394D701C60104C023
:10256000880F991FAA1FBB1F4A95D2F7AC01BD0166
:102570004601570104C0880C991CAA1CBB1C2A9553
:10258000D2F7482959296A297B29D701C60104C0F5
:10259000880F991FAA1FBB1F0A95D2F76A017B01FA
:1025A000C420D520E620F720C416D506E606F70697
:1025B00039F4BC01CD0164297529862997290AC0FF
:1025C000BC01CD0160957095809590956421752131
:1025D000862197211F910F91FF90EF90DF90CF9070
:1025E000BF90AF909F908F907F906F905F904F9033
:1025F00008950F93382F262F609140037091410367
:102600008091420390914303042F432F0E9499121B
:102610000F910C9489230E94C425811102C00E944D
:1026200032260C94DC050C94E2050C947206089595
:102630000E94341F0E9417132FEF84E39CE0215067
:1026400080409040E1F700C000000C945A27FF92B0
:102650000F931F93CF93DF938C01FC01C081D18135
:102660008091D502811113C08281882349F0CE0167
:102670000E948F24F82E682FCE010E94352404C0BA
:10268000CE010E946324F82EBE018F2D04C0CE011E
:102690000E948F24BE010E942119EC01B8010E9402
:1026A000E605882309F46DC1C63DFCE5DF0709F4A2
:1026B000D1C0B0F4C531ECE5DE0768F4C230FCE50A
:1026C000DF0708F04FC0C1158CE5D80701F1C13014
:1026D000DC4529F149C1C631DC4509F420C144C1BA
:1026E000CB3D8CE5D80771F150F4C73DFCE5DF0721
:1026F00009F4D3C0C83DDC4509F4F6C035C1CC3D72
:10270000ECE5DE0731F1CD3DDC45A1F02DC1F8014E
:102710008281882309F435C10E94181332C1F8015F
:102720008281882309F42DC180916D03816080939B
:102730006D0327C1F8018281882309F422C10E9418
:1027400032261FC1F8018281882309F41AC180E072
:1027500006C0F8018281882309F413C182E00E9437
:102760002F2A0FC1F8018281882309F402C10E9437
:10277000C425811102C00E9432260E94D72590E014
:102780009093120580931105FE01E350FC45E23160
:10279000F10520F4E255FF4F0C945C2F8091110558
:1027A000816003C0809111058260809311054BC048
:1027B000809111058460F9CF8091110513C080913B
:1027C00011058061F2CF809111058062EECF80917A
:1027D00011058064EACF809111058068E6CF809171
:1027E000110584608860E1CF809111058E7FDDCF77
:1027F000809111058D7FD9CF809111058B7FD5CF29
:102800008091110513C0809111058F7ECECF8091EC
:1028100011058F7DCACF809111058F7BC6CF809126
:1028200011058F77C2CF809111058B7F877FBDCF38
:102830009091110597FB882780F921E0822780FB82
:1028400097F990931105809111050E94DB250E9454
:10285000341F97C0F8018281882351F01092AB0297
:102860000E94F3269093A8028093A70282E022C0E0
:102870008091AB0281110FC08091A7029091A802B4
:102880000E940B27883C910530F486E20E94231BAE
:1028900086E20E943B1C82E024C0F80182818823EA
:1028A00061F01092AC020E94F3269093AA028093EA
:1028B000A90280E20E949C1C64C08091AC0281113C
:1028C0000FC08091A9029091AA020E940B27883C18
:1028D000910530F487E20E94231B87E20E943B1C93
:1028E00080E20E94A31C4DC0F80182818111D9CFE2
:1028F0008091AC028111F4CF8091A9029091AA023B
:102900000E940B27883C910558F780E20E94A31C87
:1029100088E20E94231B88E20E943B1C32C00E9476
:102920000E25382FF80122818091240190912501F4
:10293000222371F03A7A21E009F420E02093A602E4
:10294000222311F065E301C069E20E94A12609C0BB
:102950002091A602222311F065E301C069E20E94E2
:10296000AC260E945A250DC081E08093AB02809373
:10297000AC02C801DF91CF911F910F91FF900C9491
:102980003D1280E0DF91CF911F910F91FF9008954C
:1029900080E090E00895CF93DF930E9421190E9478
:1029A0008816EC01811520E5920708F041C0C11599
:1029B00080E4D80708F028C1C83ED10510F5C03E14
:1029C000D10508F0A1C1C83AD10578F4C53AD105BE
:1029D00008F0A2C0C130D10509F496C108F447C17E
:1029E000C430D10508F090C142C1CF3BD10508F4F5
:1029F0009EC0C03CD10508F43AC1CE01805C91096B
:102A0000F5C0C11590E2D90758F4C11521E0D207ED
:102A100008F07AC1C03FD10508F429C1D06574C15E
:102A2000C11580E3D80708F0E5C0CE019F70DEC075
:102A3000C11595E5D90708F043C0C11524E5D207B3
:102A400008F0F9C0C11582E5D80708F5C11591E570
:102A5000D90708F0DCC02C2F237081E090E002C081
:102A6000880F991F2A95E2F79C689E01F4E036953D
:102A70002795FA95E1F72370922BCF70C695C695EE
:102A800020E2C29FE0011124C82BD92B3DC18C2F1D
:102A9000869586959E0123703327C115D34508F08E
:102AA000BBC090E2899FE001112481E090E002C068
:102AB000880F991F2A95E2F7C82BD92BDC6824C10F
:102AC000C11529E5D207A0F4C11588E5D80708F09B
:102AD000B7C0C11596E5D90708F0C9C08C2F0E9470
:102AE00004178F71C82FD0E0DC2FCC27D0620CC127
:102AF000C1152AE5D20708F4A8C0CE019056811569
:102B0000904208F0B4C08D2F8F710E940417DD270A
:102B1000D0628F71D82BF8C0C53AD10509F4AAC08C
:102B2000C63AD10509F4A9C0C3E8D0E4EDC0C83A5B
:102B3000D10509F4A5C0C93AD10509F4A4C0CA3A1F
:102B4000D10509F4A3C0CB3AD10509F4A2C0CC3A0F
:102B5000D10509F4A1C0CB3BD10509F4A0C0CC3B01
:102B6000D10509F49FC0CD3AD10509F49EC0C03B00
:102B7000D10509F49DC0CE3AD10509F49CC0CF3AE5
:102B8000D10509F49BC0C13BD10509F49AC0C23BF1
:102B9000D10509F499C0C33BD10509F498C0C43BE1
:102BA000D10509F497C0C53BD10509F496C0C63BD1
:102BB000D10509F495C0C73BD10509F494C0C83BC1
:102BC000D10509F493C0C93BD10509F492C0CD3BAE
:102BD000D10509F491C0CE3BD10509F490C0CA3BA0
:102BE000D10509F08FC0CAE2D6E48EC00E94280643
:102BF000EC018AC0CE019927D3FF03C0EC01D86C49
:102C000083C0EC01D06C80C0DF70D06A7DC0DC2F47
:102C1000CC27C16FD06A78C090E2899FE00111246F
:102C200081E090E002C0880F991F2A95E2F7C82B37
:102C3000D92BDA6869C0DC2FCC27C46FD06A64C096
:102C4000DC2FCC27C06FD06A5FC08C2F8F700E94A2
:102C5000041734E0D695C7953A95E1F7CF70D0E0E8
:102C6000DC2FCC27D06A8F70806EC82B4DC0C0E09F
:102C7000D0E04AC0C1E8D0E447C0C2E8D0E444C0D4
:102C8000C2EED4E441C0C9EED4E43EC0CAEED4E4FE
:102C90003BC0C5EBD4E438C0C6EBD4E435C0C3EBCD
:102CA000D4E432C0C4EBD4E42FC0C7EBD4E42CC0CE
:102CB000CCECD4E429C0CDECD4E426C0C3E8D5E400
:102CC00023C0CAE8D5E420C0C2E9D5E41DC0C4E9E8
:102CD000D5E41AC0C1E2D6E417C0C3E2D6E414C0FA
:102CE000C4E2D6E411C0C5E2D6E40EC0C6E2D6E422
:102CF0000BC0C7E2D6E408C0CFE6D4E405C0C0E705
:102D0000D4E402C0C0E0D4E4CE01DF91CF910895B5
:102D10008238910549F1B0F48133910509F459C025
:102D200048F48932910509F44FC08A32910509F4BB
:102D300055C008958533910509F441C08933910543
:102D400099F00895833E910531F138F4803E910564
:102D500091F0823E9105A9F00895863E910501F11A
:102D6000873E910539F108952091110520FD3BC062
:102D700021FD39C008958091110580FF34C089E399
:102D800041C08091110582FF32C08091110584FFFE
:102D90002CC080E037C08091110582FD28C0F5CF9E
:102DA0008091110583FF25C08091110584FDF1CF2D
:102DB00087EE28C08091110583FD1BC0F5CF80915F
:102DC000110585FF18C019C08091110585FF15C038
:102DD00012C08091110586FF12C013C080911105A9
:102DE00086FF0FC00CC080EE0DC083EE0BC082EEDC
:102DF00009C086EE07C085E305C089E203C081E310
:102E000001C08AE290E008959091110592FF0DC0F3
:102E1000282F2871283019F4877F846006C0282F56
:102E20002471243011F48B7F886093FF0DC0282F0C
:102E30002871283119F4877E846106C0282F2471F7
:102E4000243111F48B7E886194FD877E0895089566
:102E50000895E0E6F2E021E030E08191A82FA2950C
:102E6000AF70B0E091964C9191978F70B90102C00C
:102E7000660F771F8A95E2F7CB01809548239196DC
:102E80004C9372E0E536F70741F7A1E5B2E021E0A7
:102E900030E08D91E82FE295EF70F0E041A18F7066
:102EA000B90102C0660F771F8A95E2F7CB01962F12
:102EB0009095492341A392A1982B92A372E0A0364A
:102EC000B70739F7E7EBF2E0ADEAB2E01192119201
:102ED0001D921D9282E0E13CF807C1F785E00E9457
:102EE00016180C940B134F925F927F928F929F92C1
:102EF000AF92BF92CF92DF92EF92FF920F931F9308
:102F0000CF93DF9390E6492E92E0592EA7EBB2E0E3
:102F100020E001E010E06D018D909C9011971196DA
:102F20001C921E92E20149912E01E42FE295EF706E
:102F3000F0E081A14F70B80102C0660F771F4A957B
:102F4000E2F7AB01862B81A382A1362F3095832334
:102F500082A370EA7A95F1F781E5E82E82E0F82EF7
:102F600080E090E0E70179907E01672D62956F70B7
:102F700070E0EB0168A1AD90BC90119770E0D72D87
:102F8000DF700D2E02C0759567950A94E2F760FD1B
:102F900008C0B801082E02C0660F771F0A94E2F736
:102FA00002C060E070E0A62AB72A1196BC92AE92E9
:102FB00001968F309105B1F681A1832381A382A16F
:102FC000842B82A3129631E0F601808191818816CC
:102FD000990609F430E0232BF5E64F16F2E05F0680
:102FE00009F099CF45E06DEA72E087EB92E00E942C
:102FF00017180E94131381E0DF91CF911F910F9159
:10300000FF90EF90DF90CF90BF90AF909F908F9008
:103010007F905F904F900895E82FF0E0EE0FFF1F34
:10302000E355FD4F80819181089508950895FF92A1
:103030000F931F93CF93DF93D82FC92FF62E072F0F
:10304000142F222349F081E08093C3020E94F326CB
:103050009093C2028093C1028091C3028823B9F089
:103060008091C1029091C2020E940B27069778F0CE
:10307000ED2FFC2FAF2DB02F20E0211731F08191E3
:1030800091918D939D932F5FF8CF1092C302DF91A2
:10309000CF911F910F91FF90089584E0089550E023
:1030A000440F551F9EE1699F400D511D112496E963
:1030B000899F400D511D1124CA018E5B9F4F0895B9
:1030C0000F931F93CF93DF930E944F18EC010E9440
:1030D000D02F082F10E0102F0027CE0101960E945C
:1030E000D02F9801282BC901DF91CF911F910F910B
:1030F00008950F931F93CF93DF9300D0CDB7DEB722
:103100002A8339830E944F188C013981632F0E94D2
:10311000EE2F2A81622FC80101960F900F90DF9148
:10312000CF911F910F910C94EE2FAF92BF92CF923F
:10313000DF92EF92FF920F931F93CF93DF93A12C17
:10314000E12CF12CB12C00E010E0C0E0D0E06801EF
:10315000CE0CDF1CC6018B599C4F6C01FE01EE0F9B
:10316000FF1FEC0DFD1D259134914C2F6B2D8A2DE9
:103170000E9479182196CF30D10581F7025E1F4F4A
:10318000B39485E0B812E1CF96E9E90EF11CA3945F
:1031900084E0A812D7CFDF91CF911F910F91FF90BC
:1031A000EF90DF90CF90BF90AF900895EF92FF9295
:1031B0000F931F93CF93DF937B01EA01E40EF51E7B
:1031C0008C01C8018E5B9F4FCE15DF0569F0083575
:1031D00022E0120720F40E94D02F888301C01882B9
:1031E00021960F5F1F4FEDCFDF91CF911F910F9170
:1031F000FF90EF900895EF92FF920F931F93CF935C
:10320000DF938B017A01080F191FEC01E81AF90A04
:10321000CE018E5B9F4FC017D10761F0C83522E009
:10322000D20730F4F701EC0FFD1F60810E94EE2FF2
:103230002196EECFDF91CF911F910F91FF90EF90EC
:103240000895462F843038F4753028F46F3018F420
:10325000672F0C94601880E090E0089580E1089555
:1032600086E691E00895EF92FF920F931F93CF931C
:10327000DF937B01EA01E40EF51E8C01C80186563E
:103280009D4FCE15DF0569F0063621E0120720F4C8
:103290000E94D02F888301C0188221960F5F1F4F94
:1032A000EDCFDF91CF911F910F91FF90EF90089597
:1032B000EF92FF920F931F93CF93DF938B017A01CD
:1032C000080F191FEC01E81AF90ACE0186569D4F26
:1032D000C017D10761F0C63621E0D20730F4F701FC
:1032E000EC0FFD1F60810E94EE2F2196EECFDF9143
:1032F000CF911F910F91FF90EF900895CF93DF939F
:10330000CAE9D2E060E0CE010E94EE2F2196C115FD
:1033100084E0D807B9F7DF91CF910895FF920F931A
:103320001F93CF93DF9300D0CDB7DEB7F82E8FE099
:103330008F1530F18FEF93E00E94D02F811120C0C4
:103340000AE912E0FF2069F0011584E01807C1F0D6
:10335000C8010E94D02F811101C0FA940F5F1F4F46
:10336000F1CF19821A82C8010E94D02F8983882345
:1033700039F0CE0101960E9496120F5F1F4FF3CFD6
:103380000F900F90DF91CF911F910F91FF900895B3
:103390009093C9028093C8020895E091C802F09109
:1033A000C902309721F00190F081E02D099480E06E
:1033B0000895E091C802F091C902309799F02091E8
:1033C0003001222359F02091110527FF07C0DC01AD
:1033D0002C9111962C93119725E02C930280F38168
:1033E000E02D099408952091C6023091C7028217FA
:1033F000930771F09093C7028093C602E091C802D0
:10340000F091C902309721F00680F781E02D0994F0
:1034100008952091C4023091C5028217930771F07C
:103420009093C5028093C402E091C802F091C90252
:10343000309721F00084F185E02D0994089585B737
:10344000806885BF85B7806885BF089508950E940C
:103450001F1A0C94261A81E008950E94EA260E9401
:1034600029170C947F275F926F927F928F929F9281
:10347000AF92BF92CF92DF92EF92FF920F931F9382
:10348000CF93DF93CDB7DEB72A970FB6F894DEBFA0
:103490000FBECDBF0E9473170E942B1A811111C05D
:1034A0008FEF89838A831B820E94F3268160782FA5
:1034B0009D838C8349815A816B818D810E94EF1A93
:1034C00057C09BECC92E92E0D92E00E010E0AA2450
:1034D000A394B12C502E802F0E940C183C01F601B1
:1034E000E190F1906F01E826F926E114F10431F43E
:1034F0000F5F1F4F0530110569F7D2CF80916D0323
:1035000081FD0E94151820E030E04501022E02C026
:10351000880C991C0A94E2F7C4018E219F21892B03
:1035200009F12E835F826820792081E0672809F401
:1035300080E088870E94F3268160782F9A878987A8
:103540004E815F8168858A850E94EF1AF801EE0F2F
:10355000FF1FE553FD4F8081918188259925918337
:10356000808306C02F5F3F4F2F30310571F6C0CFEB
:103570001091CA020E94CD191817D9F00E94CD19D6
:103580008093CA022A960FB6F894DEBF0FBECDBF55
:10359000DF91CF911F910F91FF90EF90DF90CF902F
:1035A000BF90AF909F908F907F906F905F900C94A2
:1035B00015132A960FB6F894DEBF0FBECDBFDF916C
:1035C000CF911F910F91FF90EF90DF90CF90BF9020
:1035D000AF909F908F907F906F905F900895CF9362
:1035E000DF93CDB7DEB72B970FB6F894DEBF0FBED3
:1035F000CDBF4F83588769877A878B87DE01119605
:1036000086E0FD0111928A95E9F785E0FE01379683
:1036100001900D928A95E1F749815A816B817C81F5
:103620008D819E810E9411222B960FB6F894DEBFE9
:103630000FBECDBFDF91CF910895FC0180819181B4
:103640000E94CF240895882309F414C18238C1F45C
:103650000E94CD1981FD0EC169E3809124019091F2
:1036600025010E94A1260E945A252FEF81EE94E0A9
:10367000215080409040E1F700C0000069E319C08C
:103680008338F9F40E94CD1980FDF4C063E5809180
:103690002401909125010E94A1260E945A252FEF16
:1036A00081EE94E0215080409040E1F700C000009E
:1036B00063E580912401909125010E94AC260C9431
:1036C0005A258438C1F40E94CD1982FDD3C067E425
:1036D00080912401909125010E94A1260E945A25E3
:1036E0002FEF81EE94E0215080409040E1F700C040
:1036F000000067E4DECF9CEF980F913A40F4682F0A
:1037000080912401909125010E94A126D8CF90E2BA
:10371000980F983050F4877091E001C0990F8A9506
:10372000EAF7892F0E941125CACF9BE5980F9330A5
:1037300070F4853A29F0863A31F482E890E005C0C9
:1037400081E890E002C083E890E00C94F31998E5DA
:10375000980F973108F08EC0883A09F445C0893A2D
:1037600009F445C08A3A09F445C08B3A09F445C0CA
:103770008C3A09F445C08B3B09F445C08C3B09F4F5
:1037800045C08D3A09F445C0803B09F445C08E3AE6
:1037900009F445C08F3A09F445C0813B09F445C09E
:1037A000823B09F445C0833B09F445C0843B09F4DE
:1037B00045C0853B09F445C0863B09F445C0873BBD
:1037C00009F445C0883B09F445C0893B09F445C06C
:1037D0008D3B09F445C08E3B09F445C08A3B09F096
:1037E00045C08AE292E044C082EE90E041C089EE9A
:1037F00090E03EC08AEE90E03BC085EB90E038C0A0
:1038000086EB90E035C083EB90E032C084EB90E033
:103810002FC087EB90E02CC08CEC90E029C08DECA1
:1038200090E026C083E891E023C08AE891E020C0C0
:1038300082E991E01DC084E991E01AC081E292E042
:1038400017C083E292E014C084E292E011C085E2E6
:1038500092E00EC086E292E00BC087E292E008C0E0
:103860008FE690E005C080E790E002C080E090E045
:103870000C94091A0895882309F45DC0823879F4FC
:103880000E94CD1981FF57C069E380912401909176
:1038900025010E94A1260E945A2569E310C08338A1
:1038A000B1F40E94CD1980FF46C063E580912401E8
:1038B000909125010E94A1260E945A2563E58091DE
:1038C0002401909125010E94AC260C945A2584383D
:1038D00079F40E94CD1982FF2EC067E48091240103
:1038E000909125010E94A1260E945A2567E4E7CF06
:1038F0009CEF980F913A10F4682FE1CF90E2980F67
:10390000983050F4877091E001C0990F8A95EAF7DA
:10391000892F0E941725D9CF9BE5980F933020F46B
:1039200080E090E00C94F319885A873120F480E00D
:1039300090E00C94091A0895882321F00E94112523
:103940000C945A250895882321F00E9417250C9481
:103950005A2508958F929F92BF92CF92DF92EF9255
:10396000FF920F931F93CF93DF9300D0CDB7DEB7B5
:103970004C01472FFC01C580C2949FE0C922D28030
:10398000DD2031F079836A830E942E256A81498186
:1039900049836A830E94072549816A81882389F0C7
:1039A000DD2079F080E2860F883058F082E00E94B6
:1039B000A5250E940725BB24B394B82649816A81B6
:1039C00001C0B12CE42EE2948FE0E822F12CF70143
:1039D000E054FF4F0C945C2F842F807F142F1F70B6
:1039E000882311F01295107FDD20C1F0112309F416
:1039F0009AC180E2860F883010F0611105C0812FD6
:103A00006A830E94112504C0812F6A830E942125A8
:103A10006A816A830E945A256A8185C1862F6A83DA
:103A20000E943B1C6A81112309F49EC180E2860F2B
:103A3000883010F0611104C0812F0E94172503C047
:103A4000812F0E9427250E945A258EC1842F807FB6
:103A5000142F1F70803211F01295107F662319F019
:103A60006130D9F026C0DD2079F0CC2049F0F1E0BA
:103A7000CF1206C00E944125812B0E94472574C1A8
:103A80000E944125812B04C1CC2021F021E0C216E7
:103A900009F46AC10E94502500C1DD2029F085E0AB
:103AA0008C1508F461C1F3C094E09C1508F45CC166
:103AB000F4C0DD2051F0CC2009F4E9C0F401858187
:103AC00080FF31C18F708583E2C0CC2009F4E5C04E
:103AD0003BC1242F26952695237030E02115310512
:103AE00021F02130310561F03FC1DD2021F0862F2A
:103AF000942F937002C080E090E00E94F31944C1BB
:103B0000DD2021F0862F942F937002C080E090E09A
:103B10000E94091A39C1842F837009F04EC0D11058
:103B20002FC1262F229526952770220F220F862F30
:103B30008F70C82ED12CE12CF12C022E04C0CC0C9D
:103B4000DD1CEE1CFF1C0A94D2F764FF10C06FE06E
:103B500070E080E090E004C0660F771F881F991F17
:103B60002A95D2F7609570958095909503C060E096
:103B700070E0CB01242F26952695237030E022306B
:103B8000310569F02330310589F06C297D298E29B2
:103B90009F292130310571F00E946223F1C06C2908
:103BA0007D298E299F290E947423EAC00E946223E6
:103BB000C701B6010E945023E3C0DD2019F0842F15
:103BC000817001C08695882309F4DAC0262F2295DA
:103BD00026952770220F220F862F8F70C82ED12C8A
:103BE000E12CF12C022E04C0CC0CDD1CEE1CFF1CC1
:103BF0000A94D2F764FF10C06FE070E080E090E0BC
:103C000004C0660F771F881F991F2A95D2F7609509
:103C100070958095909503C060E070E0CB01242FF3
:103C200026952695237030E02230310569F0233047
:103C3000310589F06C297D298E299F292130310594
:103C400071F00E9410249CC06C297D298E299F2927
:103C50000E94222495C00E941024C701B6010E9430
:103C6000FE238EC0062F10E0F801E05EF109E53179
:103C7000F10508F054C0E053FF4F0C945C2F162F51
:103C80001F70842F8F71DD2031F00E94A923812FB6
:103C90000E949C1C69C00E94C423812F0E94A31C07
:103CA00063C0DD2049F0F4E0FC1508F45DC0842F0A
:103CB0008F710E94E32358C025E02C1508F454C0EE
:103CC000F6CFDD2039F0842F8F710E94A9234CC0DC
:103CD000DD20C9F3842F8F710E94C42345C0DD20ED
:103CE00029F0842F8F710E949A233EC00E94952351
:103CF0003BC0DD2051F0142F1F71812F0E94A9239A
:103D000063E0812F0E9490252FC081E00E94A525AD
:103D100081E08C1548F582E00E94A52525C0DD20B4
:103D200031F0CC2081F2862F0E94231B1DC0CC20B5
:103D300089F2693349F49FEFE7EEF3E09150E040F8
:103D4000F040E1F700C00000862F0E943B1C0CC031
:103D50004F70C4010E94C8140E94BE2215C04F704B
:103D6000C4010E94410610C028E0E216F10441F0AF
:103D70005CF09AE0E91AF108E2E0EE16F10420F4B2
:103D80000E94CD190E941513BB20F1F00E9403255B
:103D900080FD1AC0F40112820E94FD240E94A92312
:103DA000C4010E94F21E0E94FD240F900F90DF912B
:103DB000CF911F910F91FF90EF90DF90CF90BF9028
:103DC0009F908F900C94C4230F900F90DF91CF9110
:103DD0001F910F91FF90EF90DF90CF90BF909F9039
:103DE0008F9008950F931F93CF93DF93EC01288159
:103DF00039818B819C81892B31F03F3F11F080E02C
:103E000003C02F3FE1F781E0811113C0CE010E9472
:103E10002713882371F0688179818A810E94DA24CE
:103E20008C010E9434240E944D23B801CE010E94CF
:103E3000AA1CDF91CF911F910F9108950E942E250A
:103E40000E943E250E945A2580E090E00E94F319CE
:103E500080E090E00C94091A809124019091250152
:103E60000E94B7260C941E1F0E941E250C942C1F26
:103E7000E92FE295EF70F0E03297EE30F105B8F4FB
:103E8000EB51FF4F0C945C2F803F59F018F4803EAB
:103E900070F407C0843F59F404C0803E10F0813FA5
:103EA00031F481E0089593FB882780F9089580E03C
:103EB00008950E94CF240E94381F0895CF93DF9366
:103EC00000D000D01F92CDB7DEB70F900F900F90AB
:103ED0000F900F90DF91CF910895CF93DF9300D093
:103EE00000D000D0CDB7DEB726960FB6F894DEBF6F
:103EF0000FBECDBFDF91CF9108951F93CF93DF9376
:103F0000C091D60216E08091D702C81799F0D0E090
:103F10001C9FF0011D9FF00D1124E852FD4F4081C0
:103F2000518162817381848195810E946D1F2196E8
:103F3000C770E9CFDF91CF911F9108954091080399
:103F40005091090360910A0370910B0380910C0357
:103F500090910D030C946D1FCF9380910D0382956A
:103F60008F7009F05FC080910A03882309F45AC05A
:103F70002091D602A091D7026091080370910903A5
:103F800080910B0390910C0331E06F3F09F030E01A
:103F9000B32FC6E02A1709F445C0009721F07F3FF0
:103FA00021F44B2F03C041E001C040E030E040FD70
:103FB00035C0C29FF001C39FF00D1124E852FD4FA0
:103FC000418174132BC04081641328C04281411188
:103FD00025C0438154814817590710F441505109B5
:103FE000481B590B483C5105C8F480910D038F7054
:103FF000806180930D0386E0829FF001839FF00D26
:104000001124E352FD4F80818F708061808388E0AE
:1040100093E00E94F21ECF910C947D1F2F5F3F4FC3
:104020002770B8CFCF910895CF92DF92EF92FF9291
:104030000F931F93CF93DF93CDB7DEB762970FB681
:10404000F894DEBF0FBECDBF8C0185E0F801DE0124
:104050001D9601900D928A95E1F7D8014C91119629
:104060005C91119712966C9112971396ED90FC90BB
:10407000149770910803E091090320910B0330918C
:104080000C032115310531F0EF3F31F481E07F3F22
:1040900019F403C081E001C080E0B82FB170CB2ECD
:1040A00080FD6BC1D0900A03DD2009F4F5C0F091CA
:1040B0000D03E216F30638F0C701821B930B883C10
:1040C000910548F09DC0209530952E0D3F1D283C50
:1040D000310508F095C08F2F807F09F052C0E5139D
:1040E00014C0741312C0D62E61110FC0FF70F0619E
:1040F000F0930D030E949E1F88E093E00E94F21E41
:1041000080910D03F80185837CC1EF2831F05F3F7A
:1041100031F481E04F3F19F403C081E001C080E039
:1041200080FD03C081E0862701C080E0F82FF17098
:10413000FF2E80FF1CC08091D6022091D70236E06E
:10414000821709F438C190E0389FF001399FF00DD3
:104150001124E852FD4F7181571306C07081471337
:1041600003C07281671303C001968770E9CFD62E12
:10417000662309F446C180910D03816080930D038D
:1041800055C0E51308C0741306C0611104C0D801FE
:104190001596FC93AEC04D875E878D859E856A8B94
:1041A0000E94591F6A89882329F1D62E662311F1AE
:1041B00020910D03822F82958F7090E002970CF46E
:1041C00062C0809108039091090398878F831986B4
:1041D000FB86EA862C87CE01079653C0E51741F18E
:1041E0004D875E878D859E856A8B0E94591F6A89DF
:1041F000811130C0C8010E94F21EDD24D39401C198
:104200008F2F807F59F77E2DF98AE88A89890E944D
:104210005E1F88E093E00E94F21EE8E0F3E086E093
:10422000DF011D928A95E9F70E949E1FD12CE9C0FB
:104230007413D6CF6111D4CFD8011596FC93C80161
:104240000E94F21EE8E0F3E086E0DF011D928A950D
:10425000E9F7D7C0D62E662369F220910D03822F8D
:1042600082958F7090E0029774F08091080390918E
:1042700009039A8389831B82FD82EC822E83CE01FF
:1042800001960E94F21E86E0F801A8E0B3E00190DA
:104290000D928A95E1F78AC0E216F30628F0C7016D
:1042A000821B930B9C0104C0209530952E0D3F1D61
:1042B000283C310508F053C0D62E662309F49ACF66
:1042C000E5132CC074132AC080910D0380FD1DC01E
:1042D000982F92959F70C9F0D80115968C931597D9
:1042E0009F3039F09F5F9295907F8F70892B159644
:1042F0008C93C8010E94F21E86E0F801A8E0B3E0AA
:1043000001900D928A95E1F753C086E0F801A8E08C
:10431000B3E001900D928A95E1F773C04D875E87F7
:104320008D859E850E94591F882381F096E0F801B3
:10433000A8E0B3E001900D929A95E1F78A8B0E9474
:10434000AC1F0E949E1F8A89D82E5BC080910D03EE
:10435000816080930D03C8010E94F21E52C07E2D21
:10436000F98AE88A89890E945E1FE8E0F3E086E026
:10437000DF011D928A95E9F71BC0662309F43ACF45
:104380004D875E878D859E850E94591FD82E882374
:1043900009F430CF86E0F801A8E0B3E001900D9277
:1043A0008A95E1F788E093E00E941D1B0E94AC1FF4
:1043B0000E949E1F26C04D875E878D859E850E9428
:1043C000CF24292F22952F7030E0223031052CF494
:1043D0009F7041F0811106C00CC0243031052CF4CF
:1043E0009F7049F4805E883020F0C8010E94F21E60
:1043F000CF2CDC2C06C0D80115969C91907F91F7AC
:10440000F8CF8D2D62960FB6F894DEBF0FBECDBFEC
:10441000DF91CF911F910F91FF90EF90DF90CF90A0
:1044200008951F93CF93DF93CDB7DEB72C970FB6C8
:10443000F894DEBF0FBECDBF4F83588769877A8758
:104440008B879C87CE0107960E9414208823C1F099
:104450002F8138858A859B85892B31F03F3F11F06C
:1044600080E003C02F3FE1F781E0811147C04F8119
:10447000588569857A858B859C850E946D1F3EC015
:1044800086E0FE013796DE01119601900D928A9525
:10449000E1F7FF81E8854A855B854115510531F0DB
:1044A000EF3F31F481E0FF3F19F403C081E001C028
:1044B00080E080FD23C02091D70230E0C901019641
:1044C000877099276091D60270E086179707F1F1FF
:1044D000F983EA835D834C8396E0929FD001939F9A
:1044E000B00D1124A852BD4FFE01319601900D92DE
:1044F0009A95E1F78093D7020E947D1F16E0809184
:10450000D6029091D702891779F1189FC001112422
:1045100088529D4F0E941420882331F1E091D602E9
:104520001E9FF0011124E852FD4F408151816281AC
:104530007381848195810E946D1F8091D60290E0E5
:104540000196877099278093D602D9CF0E94341F95
:104550001092D7021092D602E8E0F3E086E0DF0185
:104560001D928A95E9F7CACF2C960FB6F894DEBF54
:104570000FBECDBFDF91CF911F910895EF92FF92B3
:104580000F931F93CF93DF93FC01009709F46FC043
:10459000F12CEE24E394EF0121968491843740F4CA
:1045A000843008F055C0813081F0823021F15FC045
:1045B000853709F447C0C0F19CE7980F903708F0A1
:1045C00056C08F770E943B1C45C08F010E5F1F4F66
:1045D000FE01849190E2980F983050F48770FE2D80
:1045E00001C0FF0F8A95EAF78F2F0E94312515C071
:1045F0000E94231B14C08F010E5F1F4FFE01849188
:1046000090E2980F983068F48770FE2D01C0FF0F7C
:104610008A95EAF78F2F0E9437250E945A25E801D4
:1046200019C00E943B1CFBCFCF010296FE01C49132
:10463000CC2361F0EFE9FFE03197F1F700C0000013
:10464000C150F6CFCF010296FE01F490EC0102C0FA
:104650000E94231B8F2D882341F0EFE9FFE0319763
:10466000F1F700C000008150F6CFFE0194CFDF913A
:10467000CF911F910F91FF90EF90089508950C94A2
:104680003E230E943F23609344037093450380932D
:104690004603909347030C941E1F08950C944123E6
:1046A0000F931F93009144031091450320914603FB
:1046B00030914703602B712B822B932B1F910F910D
:1046C0000C9441230F931F930091440310914503D1
:1046D0002091460330914703602371238223932363
:1046E0001F910F910C9441230F931F93009144034A
:1046F00010914503209146033091470360277127AD
:10470000822793271F910F910C94412308950C94B5
:1047100086230E9487236093400370934103809314
:104720004203909343030C941E1F60E070E0CB01A2
:104730000C94892341E050E060E070E004C0440F35
:10474000551F661F771F8A95D2F7CB01BA010C94CB
:10475000892341E050E060E070E004C0440F551F41
:10476000661F771F8A95D2F780914003909141038D
:10477000A0914203B0914303482B592B6A2B7B2B0A
:10478000CB01BA010C94892341E050E060E070E075
:1047900004C0440F551F661F771F8A95D2F74095B6
:1047A0005095609570958091400390914103A09140
:1047B0004203B0914303482359236A237B23CB014F
:1047C000BA010C94892341E050E060E070E004C03D
:1047D000440F551F661F771F8A95D2F780914003BB
:1047E00090914103A0914203B09143034827592778
:1047F0006A277B27CB01BA010C9489230F931F935F
:1048000000914003109141032091420330914303F2
:10481000602B712B822B932B1F910F910C9489236A
:104820000F931F9300914003109141032091420385
:104830003091430360237123822393231F910F91AF
:104840000C9489230F931F9300914003109141030F
:1048500020914203309143036027712782279327D9
:104860001F910F910C94892308952FE0929F800D42
:104870001124482F4695469546958770B1E001C0B2
:10488000BB0F8A95EAF785E0489FA0011124425F9B
:104890005C4F80E090E070E0FA01E80FF91FA08122
:1048A0009B01082E02C0369527950A94E2F72170E5
:1048B000332721952A272B232A2720830196853009
:1048C000910551F708952FE0929F800D1124682FD4
:1048D000669566956695982F977085E0689FB001FC
:1048E0001124625F7C4F40E050E080E0FB01E40F68
:1048F000F51F208130E0092E02C0369527950A94D5
:10490000E2F721703327042E01C0220F0A94EAF740
:10491000822B4F5F5F4F4530510541F70895CF928D
:10492000DF92EF92FF920F931F93CF93DF93EC01EF
:10493000C0904403D0904503E0904603F0904703B5
:104940008091400390914103A0914203B0914303B1
:10495000C82AD92AEA2AFB2A0FE110E0B701A601EA
:10496000002E04C076956795579547950A94D2F71F
:1049700040FD05C00150110988F780E007C0BE0165
:10498000802F0E94CB140197A9F3802FDF91CF9144
:104990001F910F91FF90EF90DF90CF900895CF93EC
:1049A000DF93EC010E948F24BE010E94CB14DF91A3
:1049B000CF9108951F93CF93DF93EB019091D50290
:1049C000992321F0CB010E94CF2413C0882349F002
:1049D000CB010E948F24182F682FCE010E9435240E
:1049E00004C0CB010E946324182FBE01812F0E94B6
:1049F000CB14DF91CF911F91089580914803859545
:104A000085958595089580914803877008959091C4
:104A10004803977081E009F480E0089580916C0369
:104A2000089590916C03982B90936C030895809552
:104A300090916C03982390936C03089510926C03EB
:104A4000089590916B03982B90936B030895809534
:104A500090916B03982390936B03089510926B03CE
:104A6000089590916A03982B90936A030895809516
:104A700090916A03982390936A03089510926A03B1
:104A8000089580914903089508950C9444259091C8
:104A90004903981721F0809349030C944525089504
:104AA00080914903882329F01092490380E00C94F7
:104AB00045250895E0912401F091250180916C0332
:104AC0008083E0912401F0912501808190916B0316
:104AD000892B8083E0912401F091250180819091C0
:104AE0006A03892B808390914903992381F0E09197
:104AF0002401F09125018081892B808380912401FC
:104B0000909125010E94342681110E9450258091A8
:104B10002401909125010C94D91908950C948D25A8
:104B200098E0899F90011124622B609348030E94B2
:104B3000A923809148038595859585950C948E25AC
:104B40001092480380E00C948E2540914803809594
:104B5000842380934803982F977079F450E0282F8E
:104B6000332727FD30954217530739F085958595F2
:104B700085950E94C4230C94A02508956FEF7FEFC4
:104B800080E090E00C940C3080E090E00E94D82F00
:104B900021E08D3E9E4F09F020E0822F089582E0B3
:104BA00090E00C94D02F83E090E00C94D02F84E020
:104BB00090E00C94D02F682F84E090E00C94EE2FBE
:104BC000AB01BC018FE090E00C940030AB01BC0164
:104BD00083E190E00C94003060E070E0CB010C9435
:104BE000E62560E070E0CB010E94E0250C94EC2506
:104BF0006DEE7EEF80E090E00E940C3060E082E09D
:104C000090E00E94EE2F60E083E090E00E94EE2FA3
:104C100010924403109245031092460310924703EA
:104C200060E084E090E00E94EE2F60E085E090E09C
:104C30000E94EE2F60E086E090E00E94EE2F6FEF82
:104C400087E090E00E94EE2F40E050E0BA0188E05B
:104C500090E00E94003060E08DE090E00E94EE2F36
:104C60000C94F1250C94F825029620913001211125
:104C700002C026E005C02091110527FFFACF2EE1E2
:104C8000FC0180E0215028F091919923D9F38F5FA6
:104C9000F9CF089520E030E04FEFFC01E20FF31F61
:104CA0005281561799F04F3F19F4511101C0422F0C
:104CB0002F5F3F4F2630310581F74F3F39F0FC0120
:104CC000E40FF11D47FDFA9562830895089520E0F1
:104CD00030E0FC01E20FF31F4281461301C0128253
:104CE0002F5F3F4F26303105A1F70895262F2695D7
:104CF000269526952E3170F4FC01E20FF11D6770A8
:104D000021E030E0062E01C0220F0A94EAF78281EA
:104D1000822B82830895262F2695269526952E315F
:104D200078F4FC01E20FF11D677021E030E0062EFF
:104D300001C0220F0A94EAF720958281282322835A
:104D4000089520913001222329F02091110527FD9B
:104D50000C9476260C944A2620913001222329F0C7
:104D60002091110527FD0C948B260C946726209129
:104D70003001FC013296222331F08091110587FF2A
:104D800002C08EE101C086E0DF011D928A95E9F73D
:104D900008950C94740608950895CF930E94CB262D
:104DA0000E9473170E94CC26C0E08C2F0E940C1822
:104DB000892B29F4CF5FC530C1F780E001C081E0C5
:104DC000CF9108950E94341F0E94CD190E9415139F
:104DD0000C94770682E084BD93E095BD9AEF97BD71
:104DE00080936E0008952FB7F89480910D059091EF
:104DF0000E05A0910F05B09110052FBF08952FB794
:104E0000F89460910D0570910E0580910F059091B9
:104E100010052FBF0895CF92DF92EF92FF920F936C
:104E20001F932FB7F89440910D0550910E05609196
:104E30000F05709110052FBF6A017B01EE24FF243E
:104E40008C0120E030E0C016D106E206F30610F433
:104E500041505109481B590BCA011F910F91FF90F6
:104E6000EF90DF90CF90089578941F920F920FB635
:104E70000F9211248F939F93AF93BF9380910D0551
:104E800090910E05A0910F05B09110050196A11DFE
:104E9000B11D80930D0590930E05A0930F05B0935F
:104EA0001005BF91AF919F918F910F900FBE0F9002
:104EB0001F90189581E08093E00080E28093D800F5
:104EC0001092C9008FE19EE40197F1F700C0000045
:104ED00087E090EBDC018093200590932105A0935F
:104EE0002205B09323052CE088E190E00FB6F894FA
:104EF000A895809360000FBE20936000FFCF0E94B2
:104F0000C425811102C00E9432260E94CF258093C1
:104F10006D030E94D72590E09093120580931105B0
:104F20000E94D325682F70E080E090E00C944E231F
:104F300080918E03089508950F931F93CF93DF936D
:104F400000D01F92CDB7DEB78C010E943F2A82307D
:104F500011F0843019F584E089831B830A838093E0
:104F6000E9008FEF9091E800815095FD06C095ED26
:104F70009A95F1F700008111F5CF8091E80085FF47
:104F80000DC040E050E063E070E0CE0101960E9469
:104F90005C2A8091E8008E778093E8000F900F9054
:104FA0000F90DF91CF911F910F910895CF93DF93D1
:104FB00000D01F92CDB7DEB720911705243029F518
:104FC00033E03983805891099B838A832093E900D9
:104FD0008FEF9091E800815095FD06C095ED9A9570
:104FE000F1F700008111F5CF8091E80085FF0DC039
:104FF00040E050E063E070E0CE0101960E945C2A40
:105000008091E8008E778093E8000F900F900F90CA
:10501000DF91CF910895CF93DF93EC010E943F2A57
:10502000823011F08430D9F580913001811103C0B4
:1050300068E081E006C08091110587FFF9CF60E24A
:1050400084E08093E9008FEF9091E800815095FD16
:1050500006C095ED9A95F1F700008111F5CF80918A
:10506000E80085FF1CC080913001811105C040E03F
:1050700050E068E070E003C070E040E050E0CE0136
:105080000E945C2A8091E8008E778093E80080E29D
:10509000FE01AEE6B3E001900D928A95E1F7DF9153
:1050A000CF910895CF93603229F5209117052430D0
:1050B00009F52091E9002F703091EC0030FF02C01B
:1050C00030E801C030E0C32FC22B22E02093E9007A
:1050D0002091E80020FF0BC040E050E060E270E06B
:1050E0000E945C2A8091E8008E778093E800CF7060
:1050F000C093E900CF91089580911605811109C0F0
:105100000E94372C0E94942C8091E200846080934E
:10511000E2000895109216050895089508950C94DC
:10512000E22642E061EC81E00E94B12B42E261ECB8
:1051300084E00E94B12B42E261EC82E00E94B12B3C
:1051400042E260EC83E00C94B12B8091190583302E
:1051500009F462C030F4813071F0823009F49BC0F0
:1051600008958A3009F487C08B3009F46DC0893006
:1051700009F0A9C020C080911805813A09F0A3C0A8
:105180008091E800877F8093E80080911C059091D2
:105190001D05892B21F060E080E090E003C060E213
:1051A0008EE693E070E00E94EE2A8091E8008B7713
:1051B0008093E800089580911805813209F083C03A
:1051C00080911C0590911D05009719F0029709F038
:1051D0007AC08091E800877F8093E8008091E800A2
:1051E00082FD05C0809117058111F8CF6CC0209118
:1051F000F3008091F20090E0922B029729F48091C5
:10520000F1008B7F813021F48091F10080938E0337
:105210008091E8008B7753C080911805813A09F09E
:1052200052C080911C0590911D05892B09F04BC03F
:105230008091E800877F8093E8008091E80080FFFC
:10524000FCCF8091300136C0809118058132D9F5AC
:1052500080911C0590911D05892BA9F58091E8008E
:10526000877F8093E8000E94E62B80911A05809347
:1052700030010C94341F80911805813221F5809102
:10528000E800877F8093E8000E94E62B80911B0551
:1052900080938F03089580911805813AA1F480913D
:1052A000E800877F8093E8008091E80080FFFCCFD2
:1052B00080918F038093F1008091E8008E77809336
:1052C000E8000C94E62B08951F93CF93DF93CDB79E
:1052D000DEB7A0970FB6F894DEBF0FBECDBF84B780
:1052E000877F84BF88E10FB6F894809360001092A6
:1052F00060000FBE80E880936100109261000E9400
:10530000271A0E94372C0E94942C8091E20084601E
:105310008093E20078940E94172F0E942D1A86E253
:1053200091E00E94C81913E080911705853069F457
:105330000E94C926809115058823B1F30E94CD26CD
:10534000882391F30E94462AEFCF0E94331A80915E
:105350001705843049F71093E9008091E80082FF37
:10536000E3CF8091E80085FF0AC040E050E060E2B2
:1053700070E0CE0101960E94A52A91E001C090E064
:105380008091E8008B778093E800992369F260E2CE
:10539000CE0101960E940A05C7CF0C94CF29292F70
:1053A000332723303105A9F06CF42130310509F49D
:1053B00048C02230310509F049C08BE590E027EE66
:1053C00037E048C021323105F9F02232310549F188
:1053D0003DC099278130910571F02CF4892BB1F5EE
:1053E000E3EEF7E00DC08230910541F0039771F5CF
:1053F000EDEBF7E005C0E3EDF7E002C0E3ECF7E02A
:10540000849190E09F0126C063307105F8F4FB01A0
:10541000EE0FFF1FE259FD4F2081318189E090E0BE
:1054200019C06330710590F4FB01EE0FFF1FE859BE
:10543000FD4F20813181FB01EB59FD4F808190E0D0
:1054400009C082E190E022E438E004C080E090E00E
:1054500020E030E0FA013183208308950895CF934E
:10546000C82F0E942E2AC0939003CF910895809157
:105470001705843011F482E0089581E00895809149
:105480009003811102C00C94372A089580E189BDF0
:1054900082E189BD09B400FEFDCF8091D8008F7DE7
:1054A0008093D8008091E00082608093E00080913A
:1054B000E00081FDFCCF0895CF92DF92EF92FF9242
:1054C0000F931F93CF93DF937C018B01EA010E941E
:1054D000072C811131C0209731F088819981081BF8
:1054E000190BE80EF91EC12CD12C0115110519F16B
:1054F0008091E80085FD14C08091E8008E7780934C
:10550000E800209741F0888199818C0D9D1D998339
:10551000888385E011C00E94072C882331F30CC0DA
:10552000F70181917F018093F10001501109FFEF94
:10553000CF1ADF0ADACF80E0DF91CF911F910F9170
:10554000FF90EF90DF90CF900895CF92DF92EF928F
:10555000FF920F931F93CF93DF937C018B01EA019E
:105560000E94072C811131C0209731F088819981E8
:10557000081B190BE80EF91EC12CD12C01151105C1
:1055800019F18091E80085FD14C08091E8008B77C7
:105590008093E800209741F0888199818C0D9D1DB2
:1055A0009983888385E011C00E94072C882331F3FA
:1055B0000CC08091F100F70181937F010150110926
:1055C000FFEFCF1ADF0ADACF80E0DF91CF911F9192
:1055D0000F91FF90EF90DF90CF90089520911E05DE
:1055E00030911F052617370748F06115710539F40A
:1055F0002091E8002E772093E80001C0B901FC015A
:1056000020E061157105B9F180911705882309F42F
:1056100040C0853009F43FC08091E80083FD3DC063
:105620008091E80082FF06C08091E80082FF26C0DA
:1056300080E008958091E80080FFE3CF2091F3009F
:105640008091F20090E0922B6115710551F0883045
:10565000910538F421912093F10061507109019670
:10566000F3CF21E0089709F020E08091E8008E77E1
:105670008093E800C6CF2111C7CFD6CF8091170500
:10568000882339F0853039F08091E80083FFCCCF52
:1056900004C082E0089583E0089581E00895209198
:1056A0001E0530911F052617370748F06115710553
:1056B00039F42091E8002E772093E80001C0B90169
:1056C000FC0120E061157105C1F180911705882367
:1056D00009F441C0853009F440C08091E80083FDA1
:1056E0003EC08091E80082FF06C08091E80082FF02
:1056F00027C080E008958091E80080FFE3CF2091EB
:10570000F3008091F20090E0922B6115710559F041
:105710008830910540F424912093F1003196615036
:1057200071090196F2CF21E0089709F020E08091FD
:10573000E8008E778093E800C5CF2111C6CFD5CF82
:1057400080911705882339F0853039F08091E80081
:1057500083FFCBCF04C082E0089583E0089581E009
:105760000895982F973058F59093E900981739F0DD
:105770007091EC002091ED005091F00003C0242FB7
:10578000762F50E021FF19C03091EB003E7F30931F
:10579000EB003091ED003D7F3093ED003091EB0058
:1057A00031603093EB007093EC002093ED00509348
:1057B000F0002091EE0027FF07C09F5FD3CF8F70CE
:1057C0008093E90081E0089580E0089580911805B4
:1057D00087FD05C08091E80080FF0EC012C0809157
:1057E000E80082FD05C0809117058111F8CF08956A
:1057F0008091E8008B7708C0809117058111EACF6E
:1058000008958091E8008E778093E8000895809154
:10581000E4009091E50045E62091EC0020FF21C0D6
:105820002091E80020FD21C020911705222389F056
:10583000253089F02091EB0025FD0FC02091E40078
:105840003091E5002817390739F3415041F0C9017B
:10585000E3CF82E0089583E0089581E0089584E035
:1058600008952091E80022FFDFCF80E008950E9494
:10587000A52C0E94AD2CE0EEF0E080818160808359
:10588000E8EDF0E080818F77808319BCA7EDB0E070
:105890008C918E7F8C9380818F7E808310921605F1
:1058A00008950F931F93CF93DF930E94A52C0E941E
:1058B000AD2CC8EDD0E088818F778883888180689F
:1058C000888388818F7D888319BC10921705109278
:1058D0001305109215051092140500EE10E0F80162
:1058E00080818B7F808388818160888342E060E053
:1058F00080E00E94B12BE1EEF0E080818E7F80831A
:10590000E2EEF0E080818160808380818860808326
:10591000F80180818E7F8083888180618883DF9118
:10592000CF911F910F910895E8EDF0E080818F7E77
:105930008083E7EDF0E080818160808384E082BF36
:1059400081E0809316050C94512CE8EDF0E0808105
:105950008E7F80831092E20008951092DA001092F8
:10596000E10008951F920F920FB60F9211242F930A
:105970003F934F935F936F937F938F939F93AF93D7
:10598000BF93EF93FF938091E10082FF0BC0809162
:10599000E20082FF07C08091E1008B7F8093E100ED
:1059A0000E94162F8091DA0080FF1FC08091D800DE
:1059B00080FF1BC08091DA008E7F8093DA00809197
:1059C000D90080FF0DC080E189BD82E189BD09B4A5
:1059D00000FEFDCF81E0809317050E947C2805C062
:1059E00019BC109217050E948A288091E10080FF5F
:1059F00019C08091E20080FF15C08091E2008E7F87
:105A00008093E2008091E20080618093E2008091C7
:105A1000D80080628093D80019BC85E08093170578
:105A20000E948E288091E10084FF30C08091E200C6
:105A300084FF2CC080E189BD82E189BD09B400FEEC
:105A4000FDCF8091D8008F7D8093D8008091E100B8
:105A50008F7E8093E1008091E2008F7E8093E20050
:105A60008091E20081608093E20080911305882399
:105A700011F084E007C08091E30087FF02C083E05B
:105A800001C081E0809317050E948F288091E1007A
:105A900083FF29C08091E20083FF25C08091E1004F
:105AA000877F8093E10082E08093170510921305B1
:105AB0008091E1008E7F8093E1008091E2008E7FF3
:105AC0008093E2008091E20080618093E20042E0F6
:105AD00060E080E00E94B12B8091F00088608093AC
