:100000000C94BB020C94F3020C94F3020C94F302D4
:100010000C94F3020C94F3020C94F3020C94F3028C
:100020000C94F3020C94F3020C940A210C94DE213C
:100030000C944A1B0C94F3020C94F3020C94F302FC
:100040000C94F3020C94F3020C94F3020C94F3025C
:100050000C9404140C94D11B0C94F3020C94F30232
:100060000C94F3020C94F3020C94F3020C94F3023C
:100070000C94F3020C94F3020C94F3020C94F3022C
:100080000C94F3020C94F3020C94F3020C94F3021C
:100090000C94F3020C94F3020C94F3020C94F3020C
:1000A0000C94F3020C94F3020C94F30246001E002D
:1000B000200022000000250027002E0029001F003C
:1000C00021002300240026002D002A004B001400EC
:1000D0001A0015001C000C00130030002B0000005B
:1000E00008001700180012002F0031004E00040015
:1000F000160009000B000E00330028003900000034
:1001000007000A000D000F0034004C0000001D0025
:100110001B001900050010003700E500E100000099
:10012000060005001100360038000151E000E20031
:100130002C00E3002C00E6000000E40001003A007F
:100140003C003E00000041004300450035003B00FC
:100150003D003F004000420044004C0001004A00C6
:100160005200010001000100010001000100000037
:100170004D000100010001000100010001005000DC
:1001800051000100010001000100010039000000E0
:100190004F0001000100010001004C0000000100BF
:1001A00001000100AA00A800AB000100010000004E
:1001B00001000100A900AC00AE0001000100010037
:1001C00001000100010001000000010001003A00EF
:1001D0003C003E00000041004300450035003B006C
:1001E0003D003F004000420044004C0001004A0036
:1001F00052000100010001000100010001000000A7
:100200004D0001000100010001000100010050004B
:10021000510001000100010001000100390000004F
:100220004F0001000100010001004C00000001002E
:1002300001000100AA00A800AB00010001000000BD
:1002400001000100A900AC00AE00010001000100A6
:1002500001000100010001000000010001003A005E
:100260003C003E00000041004300450035003B00DB
:100270003D003F004000420044004C0001004A00A5
:100280005200010001000100010001000100000016
:100290004D000100010001000100010001005000BB
:1002A00051000100010001000100010039000000BF
:1002B0004F0001000100010001004C00000001009E
:1002C00001000100AA00A800AB000100010000002D
:1002D00001000100A900AC00AE0001000100010016
:1002E0000100010001000100000001000000000009
:1002F000000000002A2B2800000000000000000081
:100300000000000000000029000000002C1E342026
:10031000212224342627252E362D3738271E1F204C
:100320002122232425263333362E37381F04050691
:100330000708090A0B0C0D0E0F10111213141516D5
:100340001718191A1B1C1D2F3130232D35040506D3
:100350000708090A0B0C0D0E0F10111213141516B5
:100360001718191A1B1C1D2F3130354C00000000C6
:10037000000000000000000000000000000000007D
:10038000000000000000000000000000000000006D
:100390007E0F00D4FFFFFFC70000007800000000C0
:1003A0000000000000000001010203040506080A25
:1003B0000C0F1114181C2024292E33393F464C539E
:1003C0005B626A7179818A929AA2AAB2B9C1C8CFD6
:1003D000D5DCE1E7EBF0F4F7FAFCFDFEFFFEFDFCF7
:1003E000FAF7F4F0EBE7E1DCD5CFC8C1B9B2AAA2C5
:1003F0009A928A8179716A625B534C463F39332EF7
:100400002924201C1814110F0C0A080605040302E5
:100410000101000000000000000000000E03440085
:100420006F006C00690063006500000008034B006A
:100430004C00430000000403090409025B000301AF
:1004400000A0FA09040000010301010009211101C3
:100450000001224000070581030800010904010092
:1004600002030000000921110100012222000705FA
:100470008203200001070503032000010904020094
:100480000103000000092111010001226D00070590
:1004900084032000011201000200000008584C05EE
:1004A000000100010200010660FF0961A10109626B
:1004B000150026FF009520750881020963150026A6
:1004C000FF00952075089102C005010980A10185F2
:1004D0000319012AB700150126B70095017510818F
:1004E00000C0050C0901A101850419012AA002150B
:1004F0000126A002950175108100C005010906A121
:10050000018506050719E029E715002501950875FD
:100510000181020507190029EF1500250195F075E5
:1005200001810205081901290595057501910295BA
:100530000175039101C005010906A101050719E034
:1005400029E71500250195087501810295017508B7
:1005500081010507190029FF150026FF0095067582
:100560000881000508190129059505750191029575
:100570000175039101C011241FBECFEFDAE0DEBF89
:10058000CDBF04B603FE18C08091A0029091A102D5
:10059000A091A202B091A3028730904BA740B04B2C
:1005A00059F41092A0021092A1021092A20210928D
:1005B000A302E0E0F8E3099511E0A0E0B1E0E4E592
:1005C000F9E402C005900D92A439B107D9F722E0F1
:1005D000A4E9B1E001C01D92A03AB207E1F70E9480
:1005E000F2110C9478240C94000081E0089581E0CD
:1005F00008950E94F702089508950E94FC0208954C
:10060000A5E0B0E0E6E0F3E00C94012449835A83CE
:100610003091970189819A81311119C0662399F02F
:10062000222389F00E943809182F682F89819A8126
:100630000E94150969817A81812F0E944F182596A1
:10064000E3E00C941D240E942609182FF3CF0E948A
:10065000380969817A81F1CFFC01262F40815181CF
:100660006281738184810E940003089581E008956E
:10067000CF93DF93EC0160E00E942C03BE010E9447
:10068000FD02DF91CF910895E1E0F0E0DF0102C0CB
:10069000AA0FBB1F6A95E2F7BD01DF0102C0AA0FD6
:1006A000BB1F4A95E2F76A2B01C0EE0F2A95EAF7C5
:1006B000962F9823961302C08E2B0895E0958E23D3
:1006C0000895242F462F682F8091B3010E94440380
:1006D0000E94750808950E94B01008950E94B410F9
:1006E000089508950E9412080E9471032FEF84E379
:1006F0009CE0215080409040E1F700C00000089548
:100700000E9472030E94F51B08950E9472030E94CA
:10071000191C08950F931F93CF93DF938C0161E011
:100720000E942C03EC01B8010E940F15811106C034
:1007300080E0DF91CF911F910F910895B801CE0114
:100740000E94F9028823A1F3B801CE010E941C1374
:10075000882371F3B801CE010E949419882341F3D4
:10076000B801CE010E944116882311F3B801CE01D1
:100770000E9406198823E1F2F8018281882361F042
:10078000CA35FDE5DF0701F158F4C115ECE5DE07D8
:1007900091F0CE3DDC4591F0C8010E94F502C9CF31
:1007A000CC358DE5D80769F090F0C73ADD45A1F763
:1007B0000E948503BDCF0E948003BACF0E94F10D35
:1007C000F7CF0E942B0DE8CF0E94350DE5CF0E9498
:1007D000390DE2CF0E94271B80E00E94C2130E94C5
:1007E000EF0408950E9448120E94F3040E942C1BFB
:1007F0000895B0E0A0E0EFEFF3E00C94FD23E82FC4
:10080000F0E0E451FD4FD490282F269526952695AB
:1008100030E0F901E457FC4F0491877010E0082E96
:1008200002C0159507950A94E2F701701127F901A6
:10083000E458FC4FE490F12C082E02C0F594E794A4
:100840000A94E2F791E0E922FF24F901E459FC4F10
:10085000C491D0E002C0D595C7958A95E2F7C170E2
:10086000DD270115110519F081EE0E943E05E11406
:10087000F10419F086EE0E943E058D2D0E94C405FC
:10088000E114F10419F086EE0E94820501151105AC
:1008900019F081EE0E948205CD2B19F08CE20E94A6
:1008A000C405CDB7DEB7E7E00C941924EF92FF92B0
:1008B0000F931F93CF93DF93EC01162F0AE08881EB
:1008C000882309F454C0813009F04EC089818130F9
:1008D00099F47E0122E0E20EF11C8A810E94C40597
:1008E000E7012196812F815050F3EFE9FFE0319726
:1008F000F1F700C00000F7CF823041F47E0182E0C2
:10090000E80EF11C8A810E943E05EACF833041F453
:100910007E01E2E0EE0EF11C8A810E948205E0CFAA
:10092000843011F02196DDCF2A81229690E080E07C
:10093000AE014F5F5F4F2053330B2A30310548F033
:10094000019778F2EFE9FFE03197F1F700C000007E
:10095000F7CF089FB001099F700D1124C901860FC0
:10096000971F2981EA01E4CF0E94F903BACFCDB7DE
:10097000DEB7E6E00C941A2460E00E945604089565
:1009800008950E94C004089581E00895CF93C82F70
:100990000E94C404882359F09C2F909590FF09C0B1
:1009A0002E9A91FF08C0479A92FF07C0469ACF91AE
:1009B00008952E98F6CF4798F7CF4698F8CF269A05
:1009C0002E9A3F9A479A3E9A469A0895CF93C82FF7
:1009D0000E94C1048C2F0E94C604CF91089580E02C
:1009E0000E94E60408950E94F0190E94E60408950A
:1009F0000E94F01990919601981721F0809396012A
:100A00000E94E6040895ABE0B0E0E9E0F5E00C9464
:100A100002244F83588769877A878B8761110E94E8
:100A2000760C1E821D8285E0FE013796DE0111964E
:100A300001900D928A95E1F78C819D81892B61F45B
:100A400049815A816B817C818D819E810E949F0B9F
:100A50002B96E2E00C941E2489819A8189238F3F92
:100A600079F3CE0101960E9436038111E9CFF0CFD0
:100A7000FC01808191810E9465090895CF93C82F60
:100A80008823B9F08CEF8C0F813AA8F46C2F8091F9
:100A90000001909101010E94571A882329F08C2FA0
:100AA0000E94360C0E94970C8C2F0E942E0C0E94E4
:100AB000970CCF91089580E28C0F883048F4C7706E
:100AC00081E001C0880FCA95EAF70E94590CEFCF68
:100AD000EBE5EC0FE33040F4F0E0E15CFE4F8081A9
:100AE00090E00E94171AE5CFC85AC73110F7EC2FD3
:100AF000F0E0EE0FFF1FEF5EFE4F808191810E94BC
:100B00002D1AD7CF882339F19CEF980F913A28F40A
:100B10000E94360C0E94970C089590E2980F98302E
:100B200050F4877091E001C0990F8A95EAF7892FF8
:100B30000E945F0CEFCF9BE5980F933028F490E074
:100B400080E00E94171A0895885A873120F490E0B7
:100B500080E00E942D1A08951F93CF93DF93182FE2
:100B6000EB010E943E05209739F4812F0E948205F7
:100B7000DF91CF911F9108958FE99FE00197F1F7E1
:100B800000C000002197EFCF70E060E0893311F4DE
:100B900060E570E00E94AC050895882321F00E9472
:100BA000590C0E94970C0895882321F00E945F0C35
:100BB0000E94970C0895B0E0A0E0E1EEF5E00C94FF
:100BC000FB236C01D62FC72FFC011281F580F29414
:100BD0009FE0F9220E944F0CE82E8823B9F0E12E05
:100BE0001123A1F08C2F807F803421F080E28D0FC3
:100BF0008830D0F080917B0282FF16C082E00E9494
:100C0000FA0C0E944F0C91E0E82EE926BC2EB2941B
:100C10008FE0B822FBE0FB1508F468C0EB2DF0E094
:100C2000E658FB4D0C94CB23E12CF0CF0C2F0F702A
:100C3000C07F11F00295007F112399F0002359F035
:100C400080E28D0F883010F0D11107C0802F0E94F4
:100C5000590C0E94970C8D2F41C0802F0E94690C67
:100C6000F8CF8D2F0E948205002309F43FC080E257
:100C70008D0F883010F0D11104C0802F0E945F0CBE
:100C800003C0802F0E946F0C0E94970C2FC00C2F66
:100C90000F70C07FC03211F00295007FDD2381F01C
:100CA000D13009F463C0112309F46DC0FF2009F4A9
:100CB00063C0F601858180FFCECF8F7085835CC0D5
:100CC00080917B0282FD33C0112359F0002329F06B
:100CD000802F0E94590C0E94970C80E00E943E05D4
:100CE00005C080E00E9482050111C7CFEB2DE850BE
:100CF000FF0B349720F40E94F0190E94E604EE20C6
:100D000089F00E944B0C80FD0DC0F60112820E94FA
:100D1000450C0E948908C6010E94D6070E94450C16
:100D20000E949508CDB7DEB7E9E00C941724112393
:100D300089F0F11006C00E94790C802B0E94CD052D
:100D4000D5CF21E0F212F7CF0E94790C802B0E94C0
:100D5000800CCCCFF11006C00E948D0C802F0E9419
:100D6000D405C4CF31E0F31609F2F6CF112331F0E8
:100D700085E08F1508F4BACF802FE0CF94E09F155F
:100D800008F4B4CFEBCFFF2049F3D93349F4FFEF98
:100D900027EE33E0F15020403040E1F700C0000082
:100DA0008D2F0E948205A2CF8C2F86958695837009
:100DB00069F0813009F09ACF8D2F9C2F937011111B
:100DC00002C090E080E00E942D1A90CF8D2F9C2FC2
:100DD0009370111102C090E080E00E94171A86CF34
:100DE0008C2F837079F5111181CF4D2F4295469547
:100DF0004770440F440F8D2F8F70042E01C0880F51
:100E00000A94EAF72D2F2071D4FF07C02FE030E0BD
:100E100001C0220F4A95EAF72095C695C695C37082
:100E2000822BC23049F058F4C13019F00E94630897
:100E30005DCF0E945D085ACF0E94690857CF0E947B
:100E40005A0854CF8695112311F08C2F8170882376
:100E500009F44CCF4D2F429546954770440F440FEF
:100E60008D2F8F70042E01C0880F0A94EAF72D2F62
:100E70002071D4FF07C02FE030E001C0220F4A9557
:100E8000EAF72095C695C695C370822BC23049F00B
:100E900058F4C13019F00E94B40828CF0E94AE085F
:100EA00025CF0E94BA0822CF0E9475081FCFCF70AD
:100EB000112329F08C2F0E9489088D2F3FCF8D2F71
:100EC0000E94D4058C2F0E94950810CFD23F51F17B
:100ED00060F4D03FB9F0D13F81F0112309F449C04B
:100EE000F110B9CE8C2F8F7121C0D33F11F1D43FB7
:100EF000A1F780917B0282FD26C08C2F8F71112378
:100F000011F314C0112349F084E08F1508F4EECEDC
:100F10008C2F8F710E94A208E9CE95E09F1508F4EE
:100F2000E5CEF6CF8C2F8F711111CDCF0E9489089D
:100F3000DDCE112329F08C2F8F710E948008D6CE30
:100F40000E947C08D3CE112349F0CF718C2F0E94D0
:100F5000890863E08C2F0E94DC0CC8CE81E00E94DF
:100F6000FA0CE1E0EF1508F0C1CE82E00E94FA0C25
:100F7000BDCEF1100ACF8C2F8F71A5CF0F931F9389
:100F8000CF93DF93EC01688179818A810E94700997
:100F90008C010E94C0080E945908B801CE010E942D
:100FA000DB05DF91CF911F910F910895CF93DF93D0
:100FB000EC018B819C81892B29F08881998189237F
:100FC0008F3F51F4DF91CF910895CE010E94BE076B
:100FD000CE010E943803F6CFCE010E948A03811110
:100FE000F4CF0E944F0C882369F38A81882351F340
:100FF00080917B0282FFE6CF82E00E94FA0CE2CF72
:1010000090E080E00E94171A90E080E00E942D1A84
:101010000E94760C0E94970C08950E943E0C0E943C
:10102000000808950E94660C0E940D08089592958C
:101030009F70963091F058F4925F9F70923058F400
:10104000803F19F030F4883E30F481E008959A5FD3
:10105000F4CF843FD1F380E00895883EB0F3813F20
:10106000D1F7F3CFFC01808191810E9465090E9434
:1010700017080895A5E0B0E0E0E4F8E00C9402243D
:101080002596E2E00C941E24A6E0B0E0EAE4F8E045
:101090000C9402242696E2E00C941E2408950E94EB
:1010A0004E0808950E944F088093B4010E940008E2
:1010B000089508950E94520808959091B401892BD3
:1010C0000E94520808959091B40189230E94520809
:1010D00008959091B40189270E94520808950E94B2
:1010E0004E0808950E946F0808950E947208809328
:1010F000B3010E940008089580E00E9475080895D9
:1011000091E001C0990F8A95EAF7892F0E9475082E
:10111000089521E030E001C0220F8A95EAF780911E
:10112000B301822B0E947508089521E030E001C0D0
:10113000220F8A95EAF720958091B30182230E94BD
:101140007508089521E030E001C0220F8A95EAF782
:101150008091B30182270E94750808959091B30190
:10116000892B0E94750808959091B30189230E94EC
:10117000750808959091B30189270E947508089514
:101180000895262F277091E001C0990F2A95EAF75C
:1011900023E0769567952A95E1F7FB01EE0FFF1F97
:1011A000E60FF71FE40FF51F50E040E0682F70E0F6
:1011B0008191DF0111979B01042E02C0369527957E
:1011C0000A94E2F7217021952827292328272C93B8
:1011D0004F5F5F4F4330510559F70895A82FA7700F
:1011E00023E0969587952A95E1F7FC01EE0FFF1F06
:1011F000E80FF91FE60FF71F50E040E080E0219173
:1012000030E00A2E02C0369527950A94E2F7217045
:101210003327042E01C0220F0A94EAF7822B4F5F76
:101220005F4F4330510559F70895262F993068F4E0
:10123000883058F438E0939FB0011124680F711D75
:1012400048E951E0822F0E94C1080895993070F456
:10125000883060F448E0949F9001112468E971E0BF
:10126000820F932F911D0E94EE08089580E008954B
:10127000CF92DF92FF920F931F93CF93DF936C0176
:101280000091B3018091B401082BC7E0D0E010E0D9
:10129000FC2EC8010C2E02C0959587950A94E2F7A2
:1012A00080FD0CC02197A0F7F12C8F2DDF91CF91FD
:1012B0001F910F91FF90DF90CF900895B6018C2F72
:1012C0000E94990F019771F3F0CFCF93DF93EC0158
:1012D0000E943809BE010E94990FDF91CF910895B5
:1012E0001F93CF93DF93EB0190919701992339F0EE
:1012F000CB010E946509DF91CF911F91089588234A
:1013000069F0CB010E943809182F682FCE010E9486
:101310001509BE01812F0E94990FEDCFCB010E94CC
:101320002609182FF6CF1F93CF93DF93C091B501F5
:1013300016E08091B6018C1304C0DF91CF911F910C
:101340000895D0E01C9FF0011D9FF00D1124E95479
:10135000FE4F4081518162817381848195810E9419
:1013600044082196C770E5CF4091E7015091E8010C
:101370006091E9017091EA018091EB019091EC019B
:101380000E94440808951F93CF93DF938091EC014E
:10139000807F09F049C08091E901882309F444C0A5
:1013A0008091B501C091B6016091E7017091E801AB
:1013B000A091EA01B091EB01D62FD72316E0C81710
:1013C00099F190E0109711F0DF3F19F401968770C2
:1013D000F6CF189F9001199F300D1124F901E9549F
:1013E000FE4F41814713F2CF40814613EFCF428138
:1013F0004111ECCF438154814A1B5B0B483C5105A2
:1014000028F78091EC018F7080618093EC01F901E5
:10141000E454FE4F80818F708061808387EE91E07D
:101420000E94D6070E949309DF91CF911F910895E2
:10143000A1E1B0E0EEE1FAE00C94FA238C0185E042
:10144000F801DE011D9601900D928A95E1F7F801F1
:10145000E28087EEC82E81E0D82E6091EA0170917B
:10146000EB016115710509F44EC19091E7012091DE
:10147000E801892F82238F3F09F445C140815181C2
:10148000A380B480F090E901F501E61BF70BFF2083
:1014900009F4EAC08091EC01382F307FE83CF10577
:1014A00008F0A3C031116DC0FE2C251316C0941393
:1014B00014C0E11012C08F7080618093EC010E9413
:1014C000B409C6010E94D6078091EC01F80185831A
:1014D0008F2D6196EAE00C941624A114B10429F032
:1014E000842F85238F3F09F027C180E0F82FF1700A
:1014F000DF2E80FF3CC08091B5012091B60136E01F
:10150000821315C04D875E878D859E850E94650973
:10151000292F22952F702230F0F0243018F59F707B
:10152000F1F0F8019581907FD1F4D12C1EC090E0AC
:10153000389FF001399FF00D1124E954FE4F61816D
:10154000651306C06081641303C06281E6120FC098
:1015500001968770D5CF9F7011F0882331F3805E9C
:10156000883018F3C8010E94D607FD2CB1CFEE20B9
:1015700009F4AECF8091EC0181608093EC01F12CF5
:10158000A7CF251306C0941304C0F801EE2009F478
:1015900087C0C8010E943208882319F1EE2009F1A2
:1015A0008091EC01803270F02091E7013091E801E8
:1015B00038872F831986BB86AA868C87CE0107962B
:1015C0000E94D60786E0F801A7EEB1E001900D92E7
:1015D0008A95E1F70E94C3090E94B409FF24F3949D
:1015E00077CFC8010E94D607F9CF311113C07A2DE9
:1015F000B98AA88A6E2D89890E943A0887EE91E0FF
:101600000E94D60786E0F60111928A95E9F70E94BA
:10161000B409B5CF25130FC094130DC0E1100BC052
:10162000F8018583C8010E94D60786E0F601119271
:101630008A95E9F74DCFC8010E943208882389F2C4
:10164000EE2079F28091EC01803208F4BBCF20913A
:10165000E7013091E8013A8329831B82BD82AC8285
:101660008E83CE010196ACCFE83CF10508F03EC078
:10167000FE2CEE2009F4B5CF25132AC0941328C000
:101680008091EC0180FD1BC0982F907FC1F0F80184
:101690008583903F31F0982F907F905F8F70892BDA
:1016A0008583C8010E94D60786E0F801A7EEB1E065
:1016B00001900D928A95E1F70E94B40909CF86E066
:1016C000F801A7EEB1E001900D928A95E1F700CF05
:1016D000C8010E943208811175CF8091EC018160B0
:1016E0008093EC01C8010E94D607F2CE7A2DB98A08
:1016F000A88A6E2D89890E943A0886E0F601119227
:101700008A95E9F7D9CFEE2009F46BCFC8010E9482
:101710003208F82E882309F464CF86E0F801A7EE9A
:10172000B1E001900D928A95E1F787EE91E00E9479
:1017300038050E94C309C0CF81E08E25D7CEACE02A
:10174000B0E0E5EAFBE00C9401244F8358876987F9
:101750007A878B879C87CE0107960E94180A882378
:1017600069F08A859B85892B39F04F815885842FB4
:1017700085238F3F09F06BC016E05FC086E0FE0155
:101780003796DE01119601900D928A95E1F78A85D0
:101790009B85892B89F388859F8189238F3F61F3FE
:1017A0002091B60130E0C9010196877099274091D8
:1017B000B5014817190671F40E9412081092B6017B
:1017C0001092B50186E0E7EEF1E0DF011D928A9507
:1017D000E9F7D2CF96E0929FD001939FB00D1124EC
:1017E000A954BE4FFE01319601900D929A95E1F7F2
:1017F0008093B6010E949309BFCF819FC00111243D
:1018000089549E4F0E94180A8823E9F0E091B5019F
:101810001E9FF0011124E954FE4F408151816281E5
:101820007381848195810E9444088091B50190E084
:101830000196877099278093B5018091B5019091A9
:10184000B6018913DACF2C96E3E00C941D24698548
:101850007A858B859C850E9444088ECF682F809165
:101860000001909101010E94D71A0895682F80917C
:101870000001909101010E94E51A089580910001F4
:10188000909101010E94F31A089580910D028595AF
:1018900085958595089580910D02877008959091A2
:1018A0000D02977081E009F480E008958091300284
:1018B000089590913002892B80933002089580958D
:1018C0009091300298239093300208951092300244
:1018D000089590912F02892B80932F02089580956F
:1018E00090912F02982390932F02089510922F0227
:1018F000089580910E02089508950E947C0C089529
:1019000090917B0292FF08C090910E02981721F0EF
:1019100080930E020E947D0C089580910E02882310
:1019200029F010920E0280E00E947D0C0895CF9362
:10193000DF93E0910001F0910101809130028083FA
:10194000E0910001F0910101808190912F02892B9B
:10195000808390910E02992381F0E0910001F09133
:1019600001018081892B8083809100019091010188
:101970000E94431A81110E948D0CC0910001D091E8
:10198000010140E250E06DEE71E0CE010E94292499
:10199000892B59F080E2FE01ADEEB1E001900D928D
:1019A0008A95E1F7CE010E94FD19DF91CF9108954C
:1019B00008950E94D80C089590917B0292FF11C067
:1019C00098E0899F90011124622B60930D020E9480
:1019D000890880910D028595859585950E94D90C81
:1019E00008950E948908089510920D0280E00E94D7
:1019F000D90C089590910D028095892380930D0252
:101A0000282F277091F4282F082E000C330B9217E3
:101A1000130659F090917B0292FF07C0859585953A
:101A200085950E9495080E94F40C089590917B0280
:101A300092FB222720F9281769F080FB92F99093F6
:101A40007B0280917A0290917B020E94680D82E075
:101A50000E94FA0C089580917B0282FB882780F90E
:101A600091E089270E94160D089581E00E94160DCD
:101A7000089580E00E94160D08956FEF7FEF90E0CB
:101A800080E00E946224089590E080E00E943E245D
:101A9000883E9E4F19F40E94AA14089580E008958C
:101AA00082E090E00E943624089583E090E00E9456
:101AB00036240895CF9384E090E00E943624C82F06
:101AC00082E290E00E943624982F8C2FCF910895C7
:101AD000CF93C92F682F84E090E00E9444246C2F9C
:101AE00082E290E00E944424CF910895AB01BC01B2
:101AF0008FE090E00E9456240895AB01BC0183E181
:101B000090E00E945624089560E070E0CB010E94AE
:101B10007D0D089560E070E0CB010E94760D0E947B
:101B2000840D089568EE7EEF90E080E00E946224CC
:101B300060E082E090E00E94442460E083E090E076
:101B40000E9444241092B40160E084E090E00E947E
:101B5000442464E082E290E00E94442460E085E056
:101B600090E00E94442460E086E090E00E944424DB
:101B70006FEF87E090E00E94442440E050E0BA011B
:101B800088E090E00E94562460E08DE090E00E94A2
:101B9000442440E050E0BA0188E190E00E945624DD
:101BA00060E087E190E00E94442440E050E0BA0108
:101BB0008CE190E00E94562470E060E080E290E0CA
:101BC0000E94622440E050E0BA0188E190E00E9467
:101BD000562480E00E94C3140E94F2140E948A0DD1
:101BE00008950E94920D0895682F8EE090E00E9463
:101BF000442408950E94B61B60933E0270933F02F6
:101C0000809340029093410260933A0270933B02AA
:101C100080933C0290933D020895089508950E9498
:101C20000E0E089508950E94120E089588E790E11F
:101C30000E94E6190E940D0E0E940F0E089581E089
:101C400008950E941F0E0895089508950E94240E7D
:101C50000E94250E08950E9494100E94DF040E94A5
:101C6000941408950E94A11B0E9402150E945C1109
:101C70000E942B0E0E9448120E94130E0895AAE0A3
:101C8000B0E0E5E4FEE00C94F8230E947211982E77
:101C900081110E94FA0D81E3A82E82E0B82E10E097
:101CA00000E0802E802F0E94B710E82EF501C19031
:101CB0005F01C816B1F18091420281FD0E94BD1002
:101CC000D12CFF24F394CE248C2D8F2129F10E9456
:101CD000210E882399F0DE828F82EF2081E009F4C3
:101CE00080E088870E94AA1B8160782F9A87898765
:101CF0004E815F8168858A850E940305F801EF5C4B
:101D0000FD4F8081F826F08281E0911001C080E0D3
:101D10002A96ECE00C941424D394FF0CF8E0DF1224
:101D2000D3CF0F5F1F4F0930110509F0BACF8FEFE6
:101D300089838A831B820E94AA1B8160782F9D83DE
:101D40008C8349815A816B818D810E940305DCCF90
:101D50000E943F0E0E94ED130E94F8040895CF9355
:101D6000DF930E949E0FEC01811522E59207E8F5B2
:101D7000811531E5930708F0ACC0883E910510F558
:101D8000803E910570F5883A910570F4853A910589
:101D900008F078C08130910521F1009711F1049786
:101DA00000F5D0E0C0E01DC08F3B9105D0F7C85AC8
:101DB000D0E0CC0FDD1FCE5BDE4F0990D881C02D67
:101DC000D4640FC0811540E5940708F066C0C115C2
:101DD00080E4D80708F05EC0CE019A9581159F4136
:101DE00000F7CE01DF91CF910895811536E5930775
:101DF00018F5811545E5940708F083C0C11584E501
:101E0000D80708F079C09C2F969596959E0123706F
:101E10003327C115D34508F461C0C1E0D0E002C04A
:101E2000CC0FDD1F2A95E2F730E2939FC001112409
:101E3000C82BD92BDA68D5CFC1158AE5D80778F435
:101E4000C11599E5D90708F066C0C11528E5D20784
:101E500008F4A7CFDC2FCC27C06FD06AC2CFCE0149
:101E600090568115904208F09CCF8D2F8F710E9463
:101E7000351090E0982F882788279F719C012C2B84
:101E8000E90147C0C55AD0E0C059DE4FC881D0E053
:101E9000D064A7CFDF70D06AA4CFE4E09695879591
:101EA000EA95E1F783702C2F26952695237040E262
:101EB000249F90011124382B8C2F8370C1E0D0E037
:101EC00002C0CC0FDD1F8A95E2F7C22BD32BDC6852
:101ED00088CFD82FCC27C16FD06A83CFC1E0D0E0A4
:101EE00002C0CC0FDD1F2A95E2F720E2929FC001CD
:101EF0001124C82BD92BEBCFDC2FCC27C46FD06A91
:101F000070CF0E943510C82FD0E0DC2FCC27CC2713
:101F1000DF71D06266CF8C2F8F700E94351034E055
:101F2000D695C7953A95E1F7CF709C2FEC01D06913
:101F300058CF0E944F180E94AF0E08958238910525
:101F4000B1F1B0F48133910509F475C048F48932D8
:101F5000910509F469C08A32910509F473C00895A6
:101F60008533910509F459C08933910501F108952C
:101F7000833E9105A9F138F4803E9105F9F0823E47
:101F8000910549F10895863E9105A9F1873E910595
:101F9000C9F1843E910519F520917B0221FF1FC0F4
:101FA00080917A0284FD14C087EE90E0089520911C
:101FB0007A022370A1F080EE90E0089520917A02D9
:101FC00020FD47C030917B0230FF09C024FF44C090
:101FD00090E080E004C020917A0222FDF7CF0895BE
:101FE00020917A0222FD3BC030917B0230FDE3CF8D
:101FF00024FFF5CFEDCF20917A0223FFF0CF24FD0F
:10200000E7CFD2CF20917A0223FD2CC030917B0202
:1020100031FFEECF84EE90E0089520917A0225FF03
:10202000DECF89E290E0089520917A0225FFD7CF94
:1020300085E390E0089520917A0226FFD0CF8AE2CE
:1020400090E0089520917A0226FFC9CF81E390E0C5
:10205000089589E390E0089583EE90E0089582EE7C
:1020600090E0089586EE90E0089590917A0292FFB4
:1020700006C0282F28712830F9F4877F846093FFE9
:1020800006C0282F28712831F1F4877E84612091C1
:102090007B0220FF06C0382F38713830D9F4877F93
:1020A000816021FF06C0282F28712831D1F4877E56
:1020B000816194FD877E0895282F24712430F9F6DC
:1020C0008B7F8860DCCF282F2471243101F78B7E31
:1020D0008861DDCF382F3171313019F78E7F8860FC
:1020E000E0CF282F2171213121F78E7E8861E1CF49
:1020F00080E008950E943D0D08950E9472118FE3C3
:102100009CE90197F1F700C000000E94721180E085
:102110000E94B71080FF04C00E947A100E94F51B35
:1021200008950E947D1008950E94440D811102C0FF
:102130000E94F10D0E94500D809342020E945A0DA0
:1021400090937B0280937A020E9491100E94550D19
:102150000E945A088091B3010E9472080895089560
:102160000E94AF10089508950E94B3100895E82FBB
:10217000F0E0EB57FD4F80810895089580EA8A953D
:10218000F1F7089500C008950E94BE100895F894D4
:10219000E82FE295EF70F0E031A1282F2F7081E059
:1021A00090E001C0880F2A95EAF7982F9095932325
:1021B00091A392A1892B82A3789408950F931F93E2
:1021C000CF93DF93CBE7D1E089918F3F11F00E944D
:1021D000C71081E0C438D807B9F7C3E7D1E00BE7EF
:1021E00011E089918F3F11F00E94C7100C171D0755
:1021F000C1F7DF91CF911F910F910895B0E0A0E05A
:10220000E4E0F1E10C94FC23EC01D62E062F10E063
:10221000C80185589E4F7C01FC0180818F3F09F4E5
:1022200044C0F894E82FE295EF70F0E091A18F7030
:1022300021E030E001C0220F8A95EAF7892F822B36
:1022400081A382A12095282322A378940E94C21002
:10225000E3E7F1E031E0C12C21912F3F59F1A22FAA
:10226000A295AF70B0E090968C9190E02F7002C074
:10227000959587952A95E2F780FD1CC0832FC82A83
:10228000330F81E0EB37F80739F7F70180818F3F93
:1022900011F00E94C71061E0C11001C060E08D2DF7
:1022A0000E94C410C00FD11FC882CDB7DEB7E8E0CE
:1022B0000C94182480E0E3CF0E94DE1089E0E5E86A
:1022C000F2E0DF01982F1D929A95E9F7ECE7F2E032
:1022D000DF011D928A95E9F789E00E94AE110E9404
:1022E0006B030895A9E0B0E0E8E7F1E10C94FF2367
:1022F0008E010F5F1F4F89E0F80111928A95E9F76F
:10230000F12C6F2DC8010E94FE10F394F9E0FF122A
:10231000F8CF49E050E0B8018CE792E00E94292410
:10232000FF24F394009709F4F12C892B41F089E004
:10233000F801ACE7B2E001900D928A95E1F72F2DFC
:1023400049E065E872E08CE792E00E94AF110E94DC
:102350006E038F2D2996E5E00C941B240895FF92BF
:102360000F931F93CF93DF93F82E092F162FD72F9C
:10237000C42F222349F081E0809345020E94AA1BCA
:102380009093440280934302809145028823A1F0F8
:1023900080914302909144020E94C21B059760F015
:1023A000EF2DF02FA12FBD2FCE0FDF2FD11DEC175A
:1023B000FD0739F410924502CDB7DEB7E5E00C9485
:1023C0001B2481918D93F3CF0E94E41D0E94320E55
:1023D0000E94F11D08950E94F61D0E94A80E0E9401
:1023E000101E08950E94431B0E94CA1D0E94160ED3
:1023F0000E94E4110E94EB110E94260EFBCF86E0A2
:1024000090E00E9436240895682F86E090E00E94B4
:102410004424089580918E020E9404120895EEE8EB
:10242000F2E080818470896180830E9404120895A3
:1024300080918E02869586958695089580918E026C
:1024400081FD07C0826080938E020E9404120E9468
:10245000EE13089580918E0281FF07C08D7F8093D7
:102460008E020E9404120E94FA13089580918E0237
:1024700081FF03C00E942A1208950E941E1208952F
:1024800080918E0286958170089580910201089551
:102490000E94440D811104C00E94F10D0E940F1290
:1024A0000E94FF1180938E02803220F08770886135
:1024B00080938E0290918E02892F817090FF04C0CC
:1024C000892F8695869586950E94C21308958091DE
:1024D0008E02982F969596959695933040F49F5F2F
:1024E000990F990F990F8770892B80938E02809195
:1024F0008E02816080938E020E94041280918E026F
:102500008695869586950E94C213089580918E02C5
:10251000982F987F79F0885080938E02887F91E081
:1025200009F490E080918E0290FB80F980938E02F6
:102530000E94041280918E028695869586950E944F
:10254000C213089580918E0280FD13C08160809334
:102550008E02813019F489E080938E0280918E0280
:102560000E94041280918E028695869586950E941F
:10257000C213089580918E0280FF08C08E7F8093E1
:102580008E020E94041280E00E94C213089580917E
:102590008E0280FF03C00E94BA1208950E94A21208
:1025A000089590918E02892F8695869586958F5FE6
:1025B0008F7197708430E0F4880F880F880F892B13
:1025C00080938E0280918E02887F91E009F490E0E2
:1025D00080918E0290FB80F980938E020E940412FB
:1025E00080918E028695869586950E94C2130895E5
:1025F00090938E02E7CF843008F083E090918E02B2
:102600009770282F220F220F220F922B90938E0269
:10261000987F21E009F420E090918E0220FB90F950
:1026200090938E020E94C21308950E94FB12809123
:102630008E020E9404120895FC01DB0112968C9117
:102640008823F9F0EB5BFC45E730F105D8F4EA5755
:10265000FB4D0C94CB2383E00E94151380E008957A
:1026600080E0FACF0E948612F9CF0E946712F6CF5F
:102670000E94C712F3CF0E94D112F0CF0E943612EF
:10268000EDCF81E00895259A2D9808952D9808950D
:10269000B0E0A0E0EEE4F3E10C94F8238C0180912B
:1026A0008600909187006CE070E00E94952360178F
:1026B000710758F0C80169E070E00E949523CB01D2
:1026C000CDB7DEB7ECE00C94142480918600909195
:1026D0008700E0908600F0908700C0908600D09040
:1026E0008700C6E0D0E0BE010E94952330E020E0E4
:1026F000060F171F211D311D4801590185E0880C67
:10270000991CAA1CBB1C8A95D1F7C701BE010E9467
:102710009523F12CE12CA7019601260F371F411DAF
:10272000511DC501B4010E94A92369017A01E091FC
:102730008600F0918700CA01B9010E9485239B01A0
:10274000AC01DF010E94E7239B01AC01C701B60188
:102750000E9485232FE096958795779567952A9512
:10276000D1F7009186001091870030E020E0061735
:1027700017072807390708F0A2CF609186007091EB
:1027800087009DCFCF93C82F843000F581111FC0E3
:10279000809180008F77809380000E944613A091E3
:1027A0008600B09187002C2F30E00E94D82323E0D0
:1027B00030E040E050E00E94A923C9010E94481384
:1027C0009093890080938800CF910895C3E0809111
:1027D0008000806880938000E2CF089510924702C5
:1027E0001092460210924802EFE6F0E0808181608C
:1027F00080830895EFE6F0E080818E7F80830E94E1
:1028000018120E94C21308951F920F920FB60F92D2
:102810001124EF92FF920F931F932F933F934F93A7
:102820005F936F937F938F939F93AF93BF93CF9358
:10283000EF93FF93809103018230C9F08F5F809303
:102840000301FF91EF91CF91BF91AF919F918F9134
:102850007F916F915F914F913F912F911F910F91B8
:10286000FF90EF900F900FBE0F901F90189581E092
:10287000809303010E944512C82F009146021091D7
:1028800047020F5F1F4F0E94451228E7829FB00149
:102890001124C8010E949523909347028093460219
:1028A000C29FB0011124660F672F661F770B7195C9
:1028B0000E94952367FD6FE780914802823041F4C2
:1028C000603451F480916F008E7F80936F0004C05C
:1028D000813011F46F37B1F3E62FF0E0E456FC4F8E
:1028E000C491E0908600F09087000E941812182F83
:1028F0002C2F30E0D7010E94D8232FEF30E040E0AA
:1029000050E00E94A923C90163E070E00E94952372
:10291000169FC001179F900D11240E944813909399
:102920008900809388008DCF0E94431382E88093B2
:10293000800089E1809381008FEF9FEF9093870063
:10294000809386000E9448120E94401281110E94CA
:10295000EE13089583E290E00E943624823289F4D7
:1029600084E290E00E943624863059F485E290E0BB
:102970000E94362491E0813109F090E0892F817026
:10298000089580E0FCCFCF93C82F6FEF811162E2F2
:1029900083E290E00E9444246FEFC11166E084E27C
:1029A00090E00E9444246FEFC11161E185E290E064
:1029B0000E944424CF910895089586E290E00E94F9
:1029C0003624682F70E090E080E008950895CF935A
:1029D000C62F0E94E6146C2F86E290E00E944424E9
:1029E000CF91089580E00E94C31460E070E0CB01B5
:1029F0000E94E7140E94CF170E94AC1881E00E9449
:102A0000C31408950E94DC140E94DD140E94E61491
:102A10000E94AA14811102C00E94F2140895CF935B
:102A2000FB01C281CC2309F19C0122513F45203199
:102A3000310520F582510E94BC18C0E08C2FCF9147
:102A4000089581E00E94890843E062E081E00E94ED
:102A50006103F3CF81E00E94950843E062E081E0EA
:102A60000E946103EBCF82E0F6CF8031FFE59F0744
:102A700089F381319F45B9F3C1E0E0CF8031EFE5C3
:102A80009E07F9F281319F45C9F682E0DBCF2FEF37
:102A9000FC0120830895CF93DF93EC018881893076
:102AA00029F08A3079F0DF91CF9108950E941812B1
:102AB0002FEF829FC001112463E070E00E949523F4
:102AC0006983F1CF0E9440128983EDCFFC018081A0
:102AD000893019F08A3071F00895818123E0829F56
:102AE000C00111246FEF70E00E949523862F0E9491
:102AF000FB1208958181811103C00E942A1208955A
:102B00000E941E120895EF92FF920F931F93CF938E
:102B1000DF93EC01062FDC01ED91CD01E150E331B3
:102B200008F0ACC0F0E0E357FB4D0C94CB231982C6
:102B300089E08A83602FCE010E949D1CCDB7DEB74D
:102B4000E6E00C941A248981823069F0833071F0B8
:102B50008130D9F40E94B61B0E94D1236A837B8303
:102B60008C839D83E7CF0E94DD14F6CF7E01B2E017
:102B7000EB0EF11C10E0812F0E94B710F70181933A
:102B80007F011F5F1930B9F7D5CF602FCE010E94AA
:102B90004715D0CF89818230C1F76A817B818C81D2
:102BA0009D810E94D1230E94E714C4CF4B816A818A
:102BB00089810E9491179827892798279D838C8364
:102BC000B9CF2C813D813227232732274B816A815F
:102BD00089810E94B317AECF0E94CF17ABCF0E945E
:102BE0006615A8CF0E944B15A5CF0E940A12A2CF4E
:102BF0000E945D1889839ECF0E945F1898278927BD
:102C000098279A83898396CF6B8170E089819A8116
:102C1000AE014C5F5F4F9827892798270E94621862
:102C200089CF6B8170E089819A81AE014C5F5F4FE3
:102C30009827892798270E9487187CCF0E94AC1874
:102C400079CF0E947E17D6CF6B8170E089819A81FF
:102C5000AE014C5F5F4F9827892798270E9407187D
:102C600069CF6B8170E089819A81AE014C5F5F4FC3
:102C70009827892798270E942B185CCF8FEF88838D
:102C800059CFCF93DF93EC01FB018281882309F4B4
:102C900033C1C330FDE5DF07C0F5CA3F9CE5D90766
:102CA00030F49E0122503C4524313105B0F50E949C
:102CB0005A0D90937B0280937A02C1318CE5D8073C
:102CC00009F4EEC008F069C0C930ECE5DE0709F48C
:102CD000D5C0C8F5C5308CE5D80709F4C7C000F5E4
:102CE000C330ECE5DE0709F4B9C008F0BBC0C23060
:102CF000DC4509F4ADC080917A0290917B020E947C
:102D0000680D0E94120880E008C0C136EDE5DE07BC
:102D100071F2C53AFDE5DF0751F2DF91CF910895D9
:102D200080917A028062C7309CE5D90709F493C08C
:102D300080917A028061C830DC4508F48CC08091B3
:102D40007A02806488C080917A028B7FCD30FCE566
:102D5000DF0709F480C098F480917A028E7FCB302F
:102D60009CE5D90709F477C080917A028C60CC3059
:102D7000DC4508F470C080917A028D7F6CC0809130
:102D80007A028F7ECF30FCE5DF0709F464C008F4D7
:102D90007BC080917A028F7D5EC0CD3F9CE5D907D4
:102DA00009F47AC050F5C531FCE5DF0709F486C0A7
:102DB00098F480917A02837FC3319CE5D90709F4A6
:102DC0004AC008F471C00E94120890917A02892FBB
:102DD00097FB87F980583FC0CB3FFCE5DF0709F43C
:102DE00049C008F055C080917B028160CA3FDC4534
:102DF00009F081CF80937B027ECFC130EDE5DE0705
:102E000009F468C0A8F4CF3F8CE5D80709F452C094
:102E100080917B028360C115DD4560F380917B0268
:102E2000982F909591708E7F892B90FB81F9E2CF3E
:102E3000C136EDE5DE0709F451C0C53AFDE5DF070F
:102E400009F453C0C230DD4509F055CF80E043C0DE
:102E500080917A02816080937A024DCF80917A02CC
:102E60008260F9CF80917A028460F5CF80917A02F6
:102E70008860F1CF80917B028260BCCF0E941208F3
:102E800080917A028068E7CF80917A02877FE3CFD2
:102E900080917B028E7FAECF80917B028D7FAACF07
:102EA00080917A028F7BD7CF0E94120880917A029C
:102EB0008F77D1CF80917B028C7F9CCF80917A02DB
:102EC00082FB992790F921E0922790FB82F990FBF1
:102ED00083F9C1CF81E00E94F40D0DCF90917A0269
:102EE000892F8F7E94FF8061B6CF90917A02892FCF
:102EF0008E7F90FF8160AFCF81E00FCF84E0089597
:102F000090E1699FB001112450E0440F551F640FF8
:102F1000751F90E9899F600D711D1124CB01879663
:102F200008950F931F93CF93DF938430C8F46930D3
:102F3000B8F44830A8F40E9480178C010E9436240F
:102F4000C82FD0E0DC2FCC27C80101960E94362480
:102F50009E01282BC901DF91CF911F910F910895F8
:102F600090E080E0F8CF0F931F93CF93DF93122F61
:102F7000032F843078F4693068F4483058F40E94A4
:102F80008017EC01602F0E944424612FCE0101962E
:102F90000E944424DF91CF911F910F910895AF9229
:102FA000BF92CF92DF92EF92FF921F93CF93DF9366
:102FB0008CEAC82E80E0D82ED0E07601C0E014C0A4
:102FC000F50125913491412F6C2F8D2F0E94B3175D
:102FD00082E0A80EB11C1F5F183091F780E1E80E67
:102FE000F11CCF5FC93019F0570110E0E9CFDF5F66
:102FF00080E9C80ED11CD43001F7DF91CF911F9129
:10300000FF90EF90DF90CF90BF90AF900895EF9238
:10301000FF920F931F93CF93DF93EC018A017C0102
:10302000E60EF71ECE018796CE15DF0529F4CDB743
:10303000DEB7E6E00C941A24C03422E0D20740F454
:103040000E943624F80180830F5F1F4F2196EACF3C
:10305000F8011082F9CFB0E0A0E0E1E3F8E10C94D0
:10306000FC237C016A018C01060F171FEC01CE01C5
:103070008796C017D10729F4CDB7DEB7E8E00C94E6
:103080001824C03422E0D20740F4FE01EE19FF09F3
:10309000EC0DFD1D60810E9444242196E8CF462F4F
:1030A000843040F4793030F4683020F4672F0E9487
:1030B0009117089590E080E0089580E1089589E9EE
:1030C00091E00895EF92FF920F931F93CF93DF93B8
:1030D000EC018A017C01E60EF71ECE0189599D4F55
:1030E000CE15DF0529F4CDB7DEB7E6E00C941A243F
:1030F000C93921E0D20740F40E943624F8018083C8
:103100000F5F1F4F2196E9CFF8011082F9CFB0E091
:10311000A0E0EDE8F8E10C94FC237C016A018C014D
:10312000060F171FEC01CE0189599D4FC017D1071B
:1031300029F4CDB7DEB7E8E00C941824C93921E0B2
:10314000D20740F4FE01EE19FF09EC0DFD1D608170
:103150000E9444242196E7CFCF93DF93C7E6D2E0C5
:1031600060E0CE010E9444242196C11584E0D80776
:10317000B9F7DF91CF910895A4E0B0E0E2ECF8E177
:103180000C94FD23F82E8FE08F1548F18FEF93E01C
:103190000E943624811123C007E612E0F11023C0FB
:1031A00019821A821B821C82DD24D39478018FEF4E
:1031B000E81AF80AC8010E94362489831A828823F3
:1031C00071F09FEF980F9330D8F48A83D9820E5F05
:1031D0001F4FC7010E9436248B83811112C0249691
:1031E000E7E00C941924011584E01807C1F3C80125
:1031F0000E943624811101C0FA940F5F1F4FCECF79
:103200008701CE0101960E94BC04D0CFCF93DF93FB
:10321000EB0186319C4511F50E94560C9A81992349
:1032200099F08A7A91E009F490E090934902811133
:1032300009C089E20E942E0C0E94970C80E0DF9169
:10324000CF91089585E3F6CF80914902811104C0A2
:1032500089E20E94360CF0CF85E3FBCF81E0EFCF0F
:103260000F931F93CF93DF93C42FD22FFC01828142
:103270008823C9F040934C020E94AA1B90934B02F2
:1032800080934A0280E28C0F883040F4C77081E05E
:1032900001C0880FCA95EAF70E94CD05DF91CF9152
:1032A0001F910F91089510914C02141332C0809118
:1032B0004A0290914B020E94C21B883C910548F53E
:1032C000C0E2CD0F1D17B9F080E2810F883040F4C5
:1032D000177081E001C0880F1A95EAF70E94D405A3
:1032E000C83048F481E09D2F977001C0880F9A95EF
:1032F000EAF70E94CD05802F0E94C405C83070F601
:10330000D77081E001C0880FDA95EAF70E94D405F2
:10331000C5CF80E28C0F883008F6C77081E001C00D
:10332000880FCA95EAF7F2CF0F939C01CB01233F98
:103330004CE5340759F1A8F4283DFCE53F0701F1BD
:10334000293D4CE53407D1F1273D3C4591F406E297
:1033500021EE41EE67ED7CE50E94301980E00F918F
:103360000895253FFCE53F07E9F0B0F0263F3C45D6
:10337000F9F0FC018281882339F110924C02EFCFE1
:1033800007E225EE45EE68ED7CE5E6CF06E221EEAC
:1033900040EE63EF7CE5E0CF07E225EE44EE64EF1C
:1033A0007CE5DACF06E221EE42EE65EF7CE5D4CF94
:1033B00007E225EE46EE66EF7CE5CECF08E221E09F
:1033C00045EE69ED7CE5C8CF81E0C9CF90939501CA
:1033D000809394010895909352028093510208952E
:1033E000E0915102F0915202309729F00190F08162
:1033F000E02D0995089580E00895E0915102F09143
:103400005202309799F020911001222359F0209117
:103410007A0227FF07C0DC012C9111962C9311979B
:1034200026E02C930280F381E02D099508952091E8
:103430004F02309150022817390771F090935002D3
:1034400080934F02E0915102F0915202309721F0A7
:103450000680F781E02D0995089520914D02309165
:103460004E022817390771F090934E0280934D0257
:10347000E0915102F0915202309721F00084F185E1
:10348000E02D09950895FC01329680911001882362
:1034900021F080917A029EE187FF96E080E09150D2
:1034A00008F4089521912223D1F38F5FF8CF66238A
:1034B00001F1209110012223F1F020917A0227FFDF
:1034C0001AC0462F4695469546954E3190F4677042
:1034D00021E030E002C0220F331F6A95E2F7840F2B
:1034E000911DFC01828190E02823392381E0232B68
:1034F00069F480E00895FC01329608962191261720
:1035000021F0E817F907D1F7F4CF81E008959C0185
:10351000FC0132969FEF80E04191461751F09F3FAA
:1035200019F4411101C0982F8F5F8630A9F79F3F92
:1035300009F40895290F311D97FD3A95F901628329
:103540000895FC01329608962191261303C0DF01ED
:1035500011971C92E817F907B9F70895E62FE69539
:10356000E695E695EE3168F4E80FF92FF11D6770E6
:1035700021E030E001C0220F6A95EAF78281822BB8
:1035800082830895E62FE695E695E695EE3170F490
:10359000E80FF92FF11D677021E030E001C0220F24
:1035A0006A95EAF720958281282322830895209145
:1035B0001001222339F020917A0227FF03C00E94D4
:1035C000AE1A08950E94871A0895209110012223AF
:1035D00039F020917A0227FF03C00E94C21A089591
:1035E0000E94A11A0895FC0132968091100188234F
:1035F00051F080917A0287FF06C08EE1DF011D92B3
:103600008A95E9F7089586E0F9CF08950E94051B91
:103610000895811106C081E0809353020E94061B29
:10362000089582E0F9CF83E0809353020E94061B45
:1036300008950E94091B089581E0809353020E941F
:10364000061B08950E941C1B0895089508950E946A
:10365000261B0895089508950E94251B0895CF9371
:103660000E942A1B0E9472110E942B1BC0E08C2F0B
:103670000E94B710811105C0CF5FC930C1F7CF914B
:10368000089581E0FCCF85B7806885BF85B78068E5
:1036900085BF08951F921FB61F9211248F939F9389
:1036A000AF93BF9380915402811113C080918F0218
:1036B00090919002A0919102B09192024196A11D29
:1036C000B11D80938F0290939002A0939102B093CA
:1036D0009202BF91AF919F918F911F901FBE1F903B
:1036E000189580919702843031F10E94EA0310927C
:1036F000540288E190E020E40FB6F894A8958093F6
:1037000060000FBE2093600083B7817F846083BF19
:1037100083B7816083BF7894889583B78E7F83BF9A
:103720000FB6F894A895809160008861809360003E
:10373000109260000FBE08950E9412080E94F203CA
:10374000089582E084BD93E095BD9AEF97BD809384
:103750006E0008952FB7F89480918F029091900297
:10376000A0919102B09192022FBF08952FB7F894C3
:1037700060918F02709190028091910290919202DB
:103780002FBF08959C014FB7F89480918F029091BC
:103790009002A0919102B09192024FBF821B930BB5
:1037A000089578941F921FB61F9211248F939F93B0
:1037B000AF93BF9380918F0290919002A09191025C
:1037C000B09192020196A11DB11D80938F0290933A
:1037D0009002A0939102B0939202BF91AF919F91FA
:1037E0008F911F901FBE1F90189581E08093E0007D
:1037F00080E28093D8001092C9008FE19EE4019787
:10380000F1F700C0000087E090EBDC018093A0029C
:103810009093A102A093A202B093A30288E19CE03E
:103820000FB6F894A895809360000FBE9093600047
:10383000FFCF88E19CE00FB6F894A89580936000D4
:103840000FBE90936000FFCF809178020895089595
:10385000CF93DF93EC01809110018823B1F1809127
:103860007A0287FF32C060E284E08093E9008FEF44
:103870009091E800815095FD06C095ED9A95F1F77D
:1038800000008111F5CF8091E80085FF1BC0809179
:10389000100170E050E040E0811104C050E040E0D1
:1038A00068E070E0CE010E94AF1E8091E8008E7744
:1038B0008093E80080E2FE01A8E5B2E001900D925D
:1038C0008A95E1F7DF91CF91089568E081E0CDCF4F
:1038D000809355027093570260935602809197022D
:1038E0008430F9F48093E9008FEF9091E8008150E3
:1038F00095FD06C095ED9A95F1F700008111F5CF81
:103900008091E80085FF0DC050E040E063E070E08A
:1039100085E592E00E94AF1E8091E8008E7780934B
:10392000E8000895BC0184E00E94681C0895BC0171
:1039300083E00E94681C08950895CF93FC016032D3
:1039400021F580919702843001F5C091E900CF7094
:103950002091EC00922F917020FD90E8C92B82E01D
:103960008093E9008091E80080FF0CC050E040E0C7
:1039700060E270E0CF010E94AF1E8091E8008E7778
:103980008093E800CF70C093E900CF9108958091B3
:103990009602811109C00E948E200E94EB20809126
:1039A000E20084608093E2000895109296020895E8
:1039B0000E941C1B08956091930281E0611101C077
:1039C00080E00E94131B08959091970281E094304B
:1039D00009F080E0609193020E94191B089542E073
:1039E00061EC81E00E940A2042E261EC84E00E94E6
:1039F0000A2042E261EC82E00E940A2042E260EC8E
:103A000083E00E940A209091970281E0943009F0AF
:103A100080E0609193020E94091B089580919902B1
:103A2000833009F463C030F48130E1F1823009F46D
:103A3000A0C008958A3009F48CC08B3009F471C09D
:103A4000893009F052C080919802813209F04DC04E
:103A500080919C0290919D02009719F0029709F0C5
:103A600044C08091E800877F8093E8008091E8005F
:103A700082FF37C09091F3008091F200029731F4F9
:103A80008091F100813011F0863021F48091F100B5
:103A9000809378028091E8008B778093E8000E9401
:103AA0003E2023C080919802813AF9F48091E80089
:103AB000877F8093E80080919C0290919D02892BE2
:103AC00061F460E288E592E070E00E944D1F809111
:103AD000E8008B778093E800089560E090E080E054
:103AE000F3CF809197028111C1CF08958091980200
:103AF000813AD9F780919C0290919D02892BA9F778
:103B00008091E800877F8093E8008091E80080FF43
:103B1000FCCF809110018093F1008091E8008E77B6
:103B2000BCCF80919802813201F780919C029091E4
:103B30009D02892BD1F68091E800877F8093E80071
:103B40000E943E2080919A02809310010E941208E8
:103B5000089580919802813241F68091E800877F34
:103B60008093E8000E943E2080919B02809379021E
:103B7000089580919802813A09F0B7CF8091E800CA
:103B8000877F8093E8008091E80080FFFCCF8091E0
:103B90007902C1CF84B7877F84BF0FB6F894A89508
:103BA00080916000886180936000109260000FBE79
:103BB00080E890E00FB6F8948093610090936100E4
:103BC0000FBE0E94221B08950E948E200E94EB20AF
:103BD000E2EEF0E080818460808378940E946A2322
:103BE000089584E091E00E94EB1908958091970276
:103BF000853031F480919702853019F00E949C1B2A
:103C000008950E94711B80919502882399F30E9468
:103C10002F1B882379F30E94991E0E941208EACF75
:103C2000A0E2B0E0E6E1FEE10C940224809197026C
:103C3000843009F583E08093E9008091E80082FFF9
:103C40001AC08091E80090E085FF09C050E040E094
:103C500060E270E0CE0101960E94FE1E91E080912C
:103C6000E8008B778093E800992329F060E2CE0189
:103C700001960E948315A096E2E00C941E240E94F7
:103C8000421E0895292F33272330310521F168F48E
:103C90002130310509F443C02230310509F444C014
:103CA00090E080E030E020E026C02132310551F183
:103CB00022323105A9F76330710590F7FB01EE0F51
:103CC000FF1FE957FE4F208131816C577E4FFB016A
:103CD000808190E010C099278130910581F0009794
:103CE00029F00297E9F6ECE1F4E002C0E6E3F4E043
:103CF000849190E09F01FA01318320830895ECE2E2
:103D0000F4E0F6CF6330710558F6660F771FFB01BC
:103D1000E357FE4F2081318189E090E0ECCF82E1D2
:103D200090E025E934E0E7CF8BE590E02AE334E04A
:103D3000E2CF80E189BD82E189BD09B400FEFDCFFB
:103D40008091D8008F7D8093D8008091E0008260C0
:103D50008093E0008091E00081FDFCCF0895AF9258
:103D6000BF92CF92DF92FF920F931F93CF93DF9377
:103D70006C01EB018A010E945D20F82E811123C0A5
:103D80000115110539F0F80180819181C81BD90B0B
:103D9000C80ED91EB12CA12C2097A9F08091E80063
:103DA00085FD22C08091E8008E778093E8000115A0
:103DB0001105A1F0F80180819181A80EB91EB18290
:103DC000A08285E0F82E8F2DDF91CF911F910F916A
:103DD000FF90DF90CF90BF90AF9008950E945D203C
:103DE0008823D1F2F82EEFCFF60181916F018093F5
:103DF000F1002197FFEFAF1ABF0ACECFAF92BF926B
:103E0000CF92DF92FF920F931F93CF93DF936C01BA
:103E1000EB018A010E945D20F82E811123C001155B
:103E2000110539F0F80180819181C81BD90BC80EAA
:103E3000D91EB12CA12C2097A9F08091E80085FD16
:103E400022C08091E8008B778093E800011511056E
:103E5000A1F0F80180819181A80EB91EB182A082E3
:103E600085E0F82E8F2DDF91CF911F910F91FF905C
:103E7000DF90CF90BF90AF9008950E945D2088237F
:103E8000D1F2F82EEFCF8091F100F60181936F010E
:103E90002197FFEFAF1ABF0ACECFFC0180919E029F
:103EA00090919F0286179707A0F06115710529F47C
:103EB0009091E8009E779093E80090E0611571057D
:103EC00051F4911108C08091E80082FF34C080E075
:103ED0000895BC01F2CF809197028823C1F185300B
:103EE000C1F18091E80083FD30C08091E80082FD3F
:103EF000EACF8091E80080FFE1CF8091F30020912C
:103F0000F200382F6115710519F02830310558F08D
:103F100091E02830310509F090E02091E8002E77FB
:103F20002093E800CBCF81918093F100615071091B
:103F30002F5F3F4FE7CF80919702882341F0853074
:103F400041F08091E80083FFBECF81E0089582E0D8
:103F5000089583E00895FC0180919E0290919F0254
:103F600086179707A0F06115710529F48091E80084
:103F70008E778093E80090E06115710551F49111FE
:103F800008C08091E80082FF35C080E00895BC0140
:103F9000F2CF809197028823C9F18530C9F18091D1
:103FA000E80083FD31C08091E80082FDEACF809176
:103FB000E80080FFE1CF8091F3002091F200382FDC
:103FC0006115710519F02830310558F091E028305D
:103FD000310509F090E08091E8008E778093E80049
:103FE000CBCF84918093F1003196615071092F5F9E
:103FF0003F4FE6CF80919702882341F0853041F012
:104000008091E80083FFBDCF81E0089582E00895AC
:1040100083E00895982F973028F08F708093E900FF
:1040200081E008959093E900242F762F50E09817AF
:1040300031F07091EC002091ED005091F00021FDE5
:1040400002C09F5FE8CF3091EB003E7F3093EB00E2
:104050003091ED003D7F3093ED003091EB00316009
:104060003093EB007093EC002093ED005093F00040
:104070002091EE0027FDE5CF80E008958091980221
:1040800087FF13C08091E80082FF06C08091E8009E
:104090008B778093E80004C0809197028111F2CF62
:1040A0000895809197028823D9F38091E80080FFDA
:1040B000F8CF8091E8008E77ECCF2091E40030912A
:1040C000E50095E6A9012091EC00822F817020FF88
:1040D00006C08091E80080FF06C080E0089520912E
:1040E000E80022FD1AC080919702882389F085306C
:1040F00089F08091EB0085FD0FC02091E4003091A4
:10410000E50042175307F9F29150E1F684E0089573
:1041100082E0089583E0089581E008950E94FD20E3
:104120000E940521E0EEF0E0808181608083E8ED6F
:10413000F0E080818F77808319BCA7EDB0E08C918F
:104140008E7F8C9380818F7E80831092960208955B
:104150000F931F93CF93DF930E94FD200E940521B0
:10416000C8EDD0E088818F778883888180688883D4
:1041700088818F7D888319BC1092970210929302D8
:10418000109295021092940200EE10E0F8018081E6
:104190008B7F808388818160888342E060E080E05B
:1041A0000E940A20E1EEF0E080818E7F8083E2EEC3
:1041B000F0E0808181608083808188608083F80165
:1041C00080818E7F8083888180618883DF91CF9119
:1041D0001F910F910895E8EDF0E080818F7E80833C
:1041E000E7EDF0E080818160808384E082BF81E040
:1041F000809396020E94A8200895E8EDF0E0808167
:104200008E7F80831092E20008951092DA0010925F
:10421000E10008951F920F920FB60F9211242F9371
:104220003F934F935F936F937F938F939F93AF933E
:10423000BF93EF93FF938091E10082FF0BC08091C9
:10424000E20082FF07C08091E1008B7F8093E10054
:104250000E9469238091DA0080FF19C08091D80004
:1042600080FF15C08091DA008E7F8093DA00809104
:10427000D90080FF96C080E189BD82E189BD09B483
:1042800000FEFDCF81E0809397020E94C71C8091C1
:10429000E10080FF19C08091E20080FF15C080918D
:1042A000E2008E7F8093E2008091E2008061809343
:1042B000E2008091D80080628093D80019BC85E02C
:1042C000809397020E94DB1C8091E10084FF2BC049
:1042D0008091E20084FF27C080E189BD82E189BD31
:1042E00089B5982F917080FFFBCF8091D8008F7D8A
:1042F0008093D8008091E1008F7E8093E1008091CF
:10430000E2008F7E8093E2008091E20081608093E2
:10431000E20080919302882309F449C084E08093ED
:1043200097020E94E41C8091E10083FF29C08091E4
:10433000E20083FF25C08091E100877F8093E10048
:1043400082E080939702109293028091E1008E7F29
:104350008093E1008091E2008E7F8093E200809163
:10436000E20080618093E20042E060E080E00E9431
:104370000A208091F00088608093F0000E94D81C91
:10438000FF91EF91BF91AF919F918F917F916F912D
:104390005F914F913F912F910F900FBE0F901F9003
:1043A000189519BC109297020E94D51C70CF80916D
:1043B000E30087FD93E090939702B3CF1F920F9293
:1043C0000FB60F9211242F933F934F935F936F93E8
:1043D0007F938F939F93AF93BF93CF93DF93EF938D
:1043E000FF93D091E900DF708091EC00C82FC1707D
:1043F00080FDC0E81092E9008091F000877F8093F3
:10440000F00078940E9422221092E9008091F0003E
:1044100088608093F000CD2BCF70C093E900FF91AE
:10442000EF91DF91CF91BF91AF919F918F917F914C
:104430006F915F914F913F912F910F900FBE0F9011
:104440001F901895AAE2B0E0E8E2F2E20C94012491
:1044500088E992E02091F100FC012193CF01F2E084
:10446000803A9F07B9F70E940E1D8091E80083FFF4
:104470001EC180919802909199029A3008F017C15C
:10448000E92FF0E0E056FB4D0C94CB23803899F0F7
:10449000823809F00CC180919C028F70873008F03F
:1044A00006C18093E9008091EB0085FB882780F9A5
:1044B0001092E90006C080919402909195029111AA
:1044C00082609091E800977F9093E8008093F100DC
:1044D0001092F1008091E8008E77E5C0882309F4FE
:1044E000D3C0823009F0E3C080919A028111D6C016
:1044F00080919C028F702FEF280F263008F0D7C0D4
:104500008093E9002091EB0020FFC8C0933031F484
:104510008091EB0080628093EB00C0C09091EB0033
:1045200090619093EB0021E030E001C0220F8A956A
:10453000EAF72093EA001092EA008091EB0088608D
:10454000EACF8111B4C010919A021F778091E300E5
:104550008078812B8093E3008091E800877F8093AF
:10456000E8000E943E208091E80080FFFCCF80910F
:10457000E30080688093E30082E0111183E0809380
:10458000970295C08058823008F091C080919A02BD
:1045900090919B028C3D23E09207A1F583E08A83F2
:1045A0008AE289834FB7F894DE01139620E03EE05B
:1045B00051E2E32FF0E050935700E49120FF03C055
:1045C000E295EF703F5FEF708E2F90E0EA30C0F021
:1045D000C7968D939D932F5F243159F74FBF8091DC
:1045E000E800877F8093E8006AE270E0CE010196E0
:1045F0000E944D1F8091E8008B778093E80057C0A0
:10460000C096E7CF60919C0270919D02AE014F5F12
:104610005F4F0E943F1EBC01892B09F448C0909156
:10462000E800977F9093E80089819A810E94AB1FF0
:10463000E1CF8038E1F58091E800877F8093E80042
:10464000809193028093F10045CF811130C0909109
:104650009A02923060F58091E800877F8093E800AD
:10466000909393020E943E2080919302882311F040
:1046700084E005C08091E30087FDFACF81E080935C
:1046800097020E94EF1C13C080919A02813079F446
:1046900081E0933009F080E0809395021092E90068
:1046A0008091E800877F8093E8000E943E208091FF
:1046B000E80083FF0AC08091E800877F8093E800CC
:1046C0008091EB0080628093EB00AA96E3E00C946B
:1046D0001D240895CF93809197028823A1F0C09163
:1046E000E900CF709091EC00892F817090FD80E8F7
:1046F000C82B1092E9008091E80083FD0E942222DD
:10470000CF70C093E900CF910895DB018F939F9301
:104710000E94E723BF91AF91A29F800D911DA39F9F
:10472000900DB29F900D11240895AA1BBB1B51E15F
:1047300007C0AA1FBB1FA617B70710F0A61BB70B11
:10474000881F991F5A95A9F780959095BC01CD01B6
:104750000895A1E21A2EAA1BBB1BFD010DC0AA1FC2
:10476000BB1FEE1FFF1FA217B307E407F50720F0DA
:10477000A21BB30BE40BF50B661F771F881F991F55
:104780001A9469F760957095809590959B01AC019E
:10479000BD01CF010895EE0FFF1F0590F491E02DAC
:1047A0000994692796276927782787277827089506
:1047B000A29FB001B39FC001A39F700D811D112462
:1047C000911DB29F700D811D1124911D08950E94AD
:1047D000D823A59F900DB49F900DA49F800D911D8F
:1047E000112408952F923F924F925F926F927F9281
:1047F0008F929F92AF92BF92CF92DF92EF92FF92F1
:104800000F931F93CF93DF93CDB7DEB7CA1BDB0B9C
:104810000FB6F894DEBF0FBECDBF09942A88398841
:1048200048885F846E847D848C849B84AA84B98448
:10483000C884DF80EE80FD800C811B81AA81B98154
:10484000CE0FD11D0FB6F894DEBF0FBECDBFED0168
:104850000895FB01DC0104C08D910190801921F4C1
:1048600041505040C8F7881B990B0895F999FECF25
:1048700092BD81BDF89A992780B50895A8E1B0E06E
:1048800042E050E00C946A24262FF999FECF92BDA5
:1048900081BDF89A019700B4021639F01FBA20BD05
:1048A0000FB6F894FA9AF99A0FBE08950396272F37
:1048B0000E9445240E944424252F0E944524242F31
:1048C0000C9445240196272F0E9445240C944424DF
:1048D000DC01CB01FC01F999FECF06C0F2BDE1BDC0
:1048E000F89A319600B40D9241505040B8F70895AF
:1048F000F894FFCF1606160647064706D406760636
:1049000076067606F0065707660766072B13301300
:104910003213351338133B133E139715A315CA15DD
:10492000D615E115EC15EF15F215F5153E163E16E8
:10493000F815FC15041611161E162116241631162C
:1049400046226E2257236E225723A122C2225723CA
:0449500019232523DF
:104954000F020601241C281C9C1C971C921C271C5B
:1049640001E200E900EA00B500B600B700CD00831B
:1049740001CC008A01920194012102230224022520
:1049840002260227022A02B300B4006F00700081DD
:104994008283E200E900EA00B500B600B700CD006A
:1049A4008301CC008A019201940121022302240292
:1049B4002502260227022A02B300B4006F00700009
:1049C400818283C6F0F13495939232F5F4F6F73090
:1049D4003797969440226D3605A704C9044C0465A4
:0449E4000485040042
:00000001FF
