:10000000F2C000000DC100000BC1000009C10000DA
:1000100007C1000005C1000003C1000001C10000CC
:10002000FFC00000FDC000000C94942CF9C000003B
:10003000F7C00000F5C00000F3C00000F1C00000F0
:10004000EFC00000EDC00000EBC00000E9C0000000
:1000500064C60000E5C00000E3C00000E1C000008D
:10006000DFC00000DDC00000DBC00000D9C0000020
:10007000D7C00000D5C00000D3C00000D1C0000030
:10008000CFC00000CDC00000CBC00000CFC5000035
:10009000C7C00000C5C00000C3C00000C1C0000050
:1000A000BFC00000BDC00000BBC000002E03300078
:1000B00032004400200043007500730074006F009C
:1000C0006D0020004600690072006D00770061003D
:1000D0007200650020007600320000000803300046
:1000E0003200440000000403090409025400030123
:1000F00000A0FA0904000001030101000921000227
:100100000001223F000705810308000109040100E6
:100110000103010200092100020001223C00070541
:100120008203080001090402000103000000092104
:1001300000020001221B00070583030800011201D1
:10014000000200000008EB036A2001000102000128
:10015000050C0901A101050C1600002692011A00E8
:10016000002A9201751095018100C005010902A1C4
:10017000010901A1000509190129051500250195AD
:100180000575018102950175038101050109300999
:100190003109381680FF267F003680FF467F0095A4
:1001A0000375088106C0C005010906A101050719EC
:1001B000E029E71500250175019508810295017573
:1001C0000881010508190129059505750191029518
:1001D0000175039101150025FF0507190029FF95F9
:1001E0000675088100C011241FBECFEFDAE0DEBF24
:1001F000CDBF12E0A0E0B1E0E2E7FEE502C005906D
:100200000D92A033B107D9F726E0A0E3B2E001C018
:100210001D92AC34B207E1F70E94790D0C94372F90
:10022000EFCE63E08BE09FD1882381F06CD48823EC
:1002300069F06A9872989CB180910A018923813093
:1002400029F0F89475D4E0E0F8E3099580E008958A
:1002500080913002089594E2980F943020F4662340
:10026000B9F0892F10C0863E31F4662389F00E94D0
:10027000820BA4D20DC0873E49F4662349F00E9448
:100280007C0B8F5F83700E947F0BF3CF80E008951B
:1002900081E008951F93CF93DF931F92CDB7DEB710
:1002A0008F3E49F4662321F081E0809330024CC1F7
:1002B000109230023AC1182F8D3E69F4662309F47A
:1002C00048C00E945611882311F080E001C081E0EF
:1002D0000E9493112AC1853E31F4662309F439C086
:1002E0000E94540B22C1833F49F4662309F41DC1C7
:1002F00062E085E069D162E085E027C0813F79F462
:10030000662309F412C160E085E05ED160E085E01B
:100310002AD160E0C0D240E061E085E0A5C0803F26
:1003200051F46983A3D56981811113C06111FDC0A6
:100330000E941213FAC0823F61F4662309F4F5C0EB
:1003400060E088E041D160E088E00DD160E0A3D2B8
:10035000ECC08EEE69830E94260B6981882351F0E0
:10036000662309F4E2C01E3E09F4DFC0812F0E941B
:10037000E20CDBC01A3E09F049C0662309F4D5C07F
:100380008091410481111BC081E08093410420E0F1
:1003900041E064E185E058D241E062E180E0F3D0E1
:1003A00041E062E083E0EFD041E064E089E0EBD03F
:1003B00040E066E089E0E7D040E065E092C010925E
:1003C000410410923D0410923E0410923F0410929A
:1003D000400440E062E180E0D6D021E040E064E10A
:1003E00081E032D240E062E083E0CDD00E9478101C
:1003F0000E94561181110E947B1140E064E089E067
:10040000C2D040E066E089E0BED08DC0EEE2E10FF0
:10041000E73008F043C06623D1F18091410488237E
:1004200029F1163D91F466E089E09DD0811119C053
:1004300041E066E089E0A7D010923D0410923E04AE
:1004400010923F041092400422C0E53000F5F0E025
:10045000E35CFB4F8081882311F0108218C081E09B
:10046000808340E066E089E08ED011C0163D19F42B
:100470000E942E1A0CC089E2810F823018F40E946B
:10048000561A05C0E53018F48E2F0E94231440E060
:1004900065E085E078D00E94781047C095E1910F23
:1004A000923010F580914104882341F01B3E11F4F5
:1004B00081E001C080E00E94421337C06623A9F1A9
:1004C00067E08BE01B3E99F54ED0882371F140E048
:1004D00067E08BE058D040E060E083E054D040E03B
:1004E00060E089E050D021C098E1910F923048F44B
:1004F0006623D9F0812F0E944717812F0E94221373
:1005000014C0143F09F56623F9F064E085E05CD07F
:1005100064E085E028D060E0BED140E065E085E0A1
:1005200032D00E9478100E94D51981E00DC01BD0F6
:100530008111FBCF41E067E08BE025D00E941C14C5
:1005400080E00E946C1AF1CF0F90DF91CF911F9144
:100550000895603110F08E5F03C0683008F08F5F3F
:10056000962F97700895F5DFA92FB0E0A85FBE4FD2
:10057000E82FF0E0EF5CFD4F9C918081982381E0B3
:1005800009F480E00895CF93DF931F92CDB7DEB7D3
:100590004983DFDFE82FF0E0892F90E04981EF5CAD
:1005A000FD4FDC01442331F0A85FBE4F9C91808158
:1005B000892B05C0A050BF4F9C91808189238083E7
:1005C0000F90DF91CF910895C4DFE82FF0E0EF5C4A
:1005D000FD4F8081292F30E0D901A85FBE4F9C914B
:1005E000492F482331F0D901A050BF4F9C91892356
:1005F00001C0892B80830895ACDFE82FF0E0EF5C29
:10060000FD4F80810895CF93DF931F92CDB7DEB762
:1006100049839FDFE82FF0E0EF5CFD4F4981408385
:100620000F90DF91CF910895292F33272330310583
:10063000C9F064F42130310581F02230310509F030
:1006400043C084E590E02AEE30E042C0213231051B
:10065000F1F02232310541F137C082E190E02EE322
:1006600031E036C099278130910541F08230910503
:1006700041F0892B49F5E6EEF0E005C0ECEDF0E045
:1006800002C0ECEAF0E0849190E09F0121C0633069
:10069000D8F4E62FF0E0EE0FFF1FE65EFD4F20815D
:1006A000318189E090E014C0633070F470E0FB01A8
:1006B000EE0FFF1FEC5EFD4F20813181FB01EF5EED
:1006C000FD4F808190E004C080E090E020E030E0C9
:1006D000FA01318320830895E0EFFFE69491E1EF82
:1006E000FFE6849121E031E041E020933F02309326
:1006F0004002409341022CE020933E02809342024C
:100700006A9872982AB12F722AB92BB12F722BB91D
:10071000269A27B1206C27B920B3236020BB2E98DE
:1007200028B12F7328B921B32C7F21BB24B12A60B3
:1007300024B92AB120652AB925B1257F25B92BB165
:100740002F7A2BB9923029F48C3019F491E19093DF
:100750003E02EBC1809142020895E82FF0E0E15C97
:10076000FD4F8081089580913E0208950F931F935D
:10077000CF9307E511E0882391F0C1E0D5D78C171E
:1007800011F068E401C060E0F80181918F01C0D1EF
:10079000CF5FC53099F7CF911F910F91BFC1C0E0D6
:1007A000ABD78C1711F060E001C068E4F8018191CB
:1007B0008F01AED1CF5FC43099F7EDCF80E0D6CFB7
:1007C00041E062E180E0DFDE66E083E0CCDE909134
:1007D0004702992321F091509093470208959091F8
:1007E0004502992319F0915090934502909144024B
:1007F000992379F01092440240E065E083E0C3DE83
:1008000067E083E0B0DE8823F1F040E062E180E061
:10081000BACE90914502911104C081E080934402C8
:100820000EC0917021E02827921303C09CDF60E086
:1008300004C0981304C097DF61E00E945C118091AE
:1008400046028093470208950F931F93CF93DF933F
:10085000C82FD62F042F122F41E065E083E093DEEE
:1008600041E0011101C040E066E083E08CDE41E040
:10087000111101C040E067E083E085DECC0FCF5F5F
:10088000C0934502D093460210924702DF91CF9168
:100890001F910F910895462F882319F060E183E09E
:1008A00002C068E181E021E0CFCFDF92EF92FF92BA
:1008B0000F931F93CF93DF9360E080E09DDEC82FFE
:1008C00068E080E099DEC81709F444C088E0E82EAB
:1008D00081E0F82EE7011AE0DC2EDE1860E080E00F
:1008E0008BDE082F68E080E087DE80272881982F44
:1008F0009223F1F060E080E07FDE9881892301E0BF
:1009000009F400E08D2D29DF813029F4602F812F3B
:100910000E945C110DC08D2D20DF823049F421E052
:1009200040E0002311F069E102C063E281E08CDF66
:1009300021961F5F1D3081F660E080E05DDE482F6C
:1009400068E080E0DF91CF911F910F91FF90EF90D1
:10095000DF9059CEDF91CF911F910F91FF90EF90D3
:10096000DF900895CF93C82F482F60E080E04BDEE2
:10097000F1DE843021F4C1FB442740F907C0EADEF0
:100980008530C9F3E7DE8630B1F340E061E180E015
:10099000FADD62E180E0E7DD811102C0CF9185CF11
:1009A000CF91089560E083E0DEDD811102C00C94F8
:1009B000AA1266E08BE0D7DD8111F9CF6AE070E022
:1009C00084E00CD1892BA9F10E94541F8823D1F017
:1009D000809143028F5F80934302883C98F00E948D
:1009E000541F813021F421E040E060E508C00E94FE
:1009F000541F823029F421E040E064E184E024DFE8
:100A00001092430265E083E0AEDD8111D9CE8CD631
:100A1000882321F081E0AADE41E008C063E180E0A4
:100A2000A2DD882331F080E0A1DE40E063E180E0D8
:100A3000AACD08950C94252F0C941D2F882369F0BE
:100A400041E060E08BE09FDD41E062E180E09BDD22
:100A50008ADE61E00E945C110DC040E060E08BE046
:100A600092DD40E062E180E08EDD21E040E060E286
:100A700083E0EADE1092490210924802089560E095
:100A80008BE071DD882321F16FEF80914802909116
:100A900049020E94252F80914802909149028F3F80
:100AA000934058F080E0CADF8091E000816080933D
:100AB000E0006A98729A0C9400008091480290912C
:100AC00049020196909349028093480281E008957B
:100AD00080E00895FB0123E0829FC0011124208162
:100AE000DC01A65BBD4F2C932181DC01A55BBD4FD2
:100AF0002C932281FC01E45BFD4F2083089581E06B
:100B00008093110108959091110181E08927089542
:100B1000E82FF0E0E658FD4F6083089581E0809370
:100B2000120108958093100108958093950208950D
:100B3000AEE6B0E09C91E0E0F1E0808189238C9307
:100B4000AFE6B0E09C91808189238C93A1E7B0E06F
:100B50009C91808189238C93A2E7B0E09C91828153
:100B600089238C930895E1E8F0E08081887F82609A
:100B7000808310928500E4E8F0E01082AFE6B0E0F8
:100B80009C9180910801892B8C9388EB9FEF918336
:100B90008083089582E08093910080E79EEF909398
:100BA000950080939400E1E7F0E090818091080146
:100BB000892B80830895E82FF0E0EF56FD4F608386
:100BC0000895E82FF0E0EB57FD4F808110820895E3
:100BD000E82FF0E0EB57FD4F808108958B3081F4D2
:100BE000809183029091840286179707B0F08091DC
:100BF00083029091840210928402109283020895DD
:100C0000E82FF0E0EB57FD4F808190E086179707C3
:100C100020F0808190E01082089580E090E00895B7
:100C2000E82FF0E0EB57FD4F108208951F920F92CE
:100C30000FB60F9211242F938F939F9380E79EEF0F
:100C40009093950080939400809183029091840208
:100C50008C3D9F4F48F480918302909184020196CD
:100C60009093840280938302809187028F3F29F0C2
:100C7000809187028F5F80938702809188028F3FE7
:100C800029F0809188028F5F809388028091890289
:100C90008F3F29F0809189028F5F80938902809134
:100CA00085028F5F80938502853058F0109285020F
:100CB00080918E028F3F29F080918E028F5F80930A
:100CC0008E02809186028F5F809386028233E8F0E5
:100CD0001092860280918F028F3F29F080918F02BF
:100CE0008F5F80938F0280918A028F3F29F08091DD
:100CF0008A028F5F80938A0280918B028F3F29F056
:100D000080918B028F5F80938B029F918F912F91A7
:100D10000F900FBE0F901F9018951F920F920FB655
:100D20000F9211242F933F938F939F93AF93BF9371
:100D3000EF93FF9388EB9FEF90938500809384005F
:100D400080919502882309F47BC0809190028F5F87
:100D5000809390028E3F18F081E080939002809102
:100D60001001882391F0909190028091920298173F
:100D700010F42B9A01C02B989091900280919302CD
:100D8000981710F4299A01C029988091110188239D
:100D900051F180919002813031F580E090E0E0E106
:100DA000F1E0DC01A65BBD4F3C91229123235E9ACA
:100DB00041F00000000000000000000000005E980C
:100DC00006C000005E980000000000000000000067
:100DD00021E0E830F20741F7019680339105F9F6FA
:100DE000109211012DC080911201882349F1809148
:100DF00090028F3729F580E090E0E0E1F1E0DC013E
:100E0000A658BD4F3C91229123235C9A41F00000EB
:100E1000000000000000000000005C9806C0000018
:100E20005C980000000000000000000021E0E830B5
:100E3000F20741F7019689309105F9F610921201F7
:100E4000FF91EF91BF91AF919F918F913F912F9122
:100E50000F900FBE0F901F90189510929A0210924B
:100E60009B0210929C0210929D02089581E0909145
:100E70009F02911101C080E0089580939F0281112B
:100E800010929A02089580939E0208958A3010F07D
:100E900061110FC090919C0290939D0290919B02D2
:100EA00090939C0280939B0284E00E94121381E045
:100EB000089580E008950F931F93CF93DF93C82F79
:100EC000162F042FD22F65E083E04DDB811136C24F
:100ED0008C2F0E94B60F982FC03FC1F0882311F0CD
:100EE0008330A1F480919E02833081F0843171F0CF
:100EF000843049F49D7F953049F0C83C39F0CF3EAD
:100F000009F01CC203C08F3009F018C2402F612FB6
:100F100080E0F8D7809399020E94A10F809313017B
:100F200090919E029431B1F4DD2309F407C2C03FD1
:100F300009F4B8C1C93209F4B5C1602F812FE3D2D9
:100F40001092980285E10E941213DF91CF911F91B8
:100F50000F9183CF9531D9F5DD2309F4EFC11092BC
:100F60009702C63911F0CA3929F4909198028091FC
:100F7000080108C08C2F8B7F883941F4909198022A
:100F800080910A01892B8093980212C0C73911F011
:100F9000CB3929F49091980280910901F3CF8939D6
:100FA00029F49091980280910B01ECCFC0939702A5
:100FB00080919702882349F080919802811194D200
:100FC000809197028ED284E17EC184E07CC19F3003
:100FD000A1F4DD2309F4B2C1C03F19F40E94C71C7B
:100FE0008CC0602F812F0E94A91C602F812F0E942E
:100FF0009A1C882351F389E066C1983069F4DD2397
:1010000009F49CC19EEF980F933058F56FEF680F6D
:1010100084E190E00FDD46C19A30C1F4DD2309F48C
:101020008DC1C03FD1F420919D0280919C02880F18
:10103000982F990F990F890F94E6299F800D1124FD
:1010400090919B02890F0E94C82357C09B30A9F53D
:10105000DD2309F473C1C03F31F061E017DF811176
:101060006DC181E070CF80919D02C0919C029AE099
:10107000C99FE001112494E6899FC00DD11D112460
:1010800080919B02C80FD11DC53883E0D8073CF47E
:10109000C43F91E0D9072CF4C4EFD1E002C0C4E80A
:1010A000D3E0CE016AE070E00E94D92E86E290E0A3
:1010B000C1DCCE010E94271A20C0993009F5DD233A
:1010C00009F43CC1C03F49F680919D0260919C02A9
:1010D0009AE0699FB001112494E6899F600D711D0B
:1010E000112480919B02680F711D6F3F710511F0F3
:1010F0000CF06AEF85E190E09DDCAFDE80E0E3C0BC
:10110000933009F0D1C0C93221F4DD2309F416C1AE
:1011100085C0C83209F009C1D11110C190919B025C
:1011200080E6890F8F3030F4809396020E942E2241
:1011300082E009CF923F19F562E088E014DA882353
:1011400059F040E062E088E01EDA86E190E074DC6D
:101150006091000168230AC041E062E088E013DA90
:1011600086E190E069DC60910801682B86E190E0FF
:1011700061DC62E088E0F7D961E08DDBE6CE2091AA
:101180009D0280919C02263131F4863021F4903109
:1011900021F48AE0D8CE863029F49031B1F40E944F
:1011A000672280C02531A1F48631D1F5973109F04D
:1011B00058CF8091D8008F778093D8000E941F2C41
:1011C0006A98729A0C940000C0CE253109F45FC071
:1011D000283041F4843021F5963009F042CF81E087
:1011E0002DDC60C0293131F48830D1F4953109F01B
:1011F00038CF07C0263041F4803191F49F30B1F5EB
:1012000089E00E947E200AC0253051F4873141F4E4
:10121000953129F541E063E08BE0B5D985E093CEC7
:10122000873911F08B3921F4953311F4ECD08DCE40
:10123000253061F4843051F49E3009F012CF85E0FE
:101240000E94121386E00E947E207FCE873029F410
:10125000953009F006CF88E076CE873129F49F30AB
:1012600009F0FFCE86E06FCE803129F4973009F087
:10127000F8CE87E068CE8E3039F49F3009F0F1CE99
:101280000E940C1D8FE05FCE863009F046C09E3074
:1012900029F40E94DE1C0E94C71C04C09B3009F088
:1012A000E0CE3FD180E04FCE943009F047C0C03F40
:1012B00081F40E94A6228823F9F0D1113FC00E9438
:1012C0009C23CBDD85E0DF91CF911F910F910C9492
:1012D0001213DD2389F0C83C31F480E00E948122A2
:1012E0009091080107C0CF3E39F481E00E9481222D
:1012F0009091090189237DCE6D2F8C2F0E94B722FA
:101300006D2F8C2F0E945E270E949E228233B0F0A8
:101310000E94A622882391F0D2CF8B3009F0A1CE73
:101320009E3009F09ECE84E10ECEDD2339F060E0E0
:101330008C2FDF91CF911F910F91A8CDDF91CF918D
:101340001F910F91089585E290E076DB909108015E
:10135000892341E009F440E062E087E014D910926B
:10136000A1021092A00208950F931F93CF93DF93D1
:1013700000D0CDB7DEB7182F062F2A834983F6D5C4
:101380002A8149811932F9F081508230A0F517394C
:1013900011F01B3961F48091A002002311F08F5FDE
:1013A00003C0882341F181508093A00224C0809122
:1013B000A102002311F08F5F03C08823E1F0815068
:1013C0008093A10218C08091A102882311F089E2C4
:1013D00013C08091A0028823D1F3622F842F48D1BB
:1013E0008823A9F3002399F38091A1028F5F809352
:1013F000A10285E301C0812F0F900F90DF91CF9163
:101400001F910F910895CF9385E290E015DBC82FCF
:1014100062E087E0A8D8882341F040E062E087E0FE
:10142000B2D880910001C82307C041E062E087E0A4
:10143000AAD880910801C82B62E087E094D861E0C7
:101440002ADA6C2F85E290E0CF91F4CAEF92FF92F6
:101450000F931F93CF93DF93CBE3D6E000E010E030
:10146000E0903906F12C86ECE80EF11CE00EF11E3E
:10147000C701E2DA9991E0913A06F0E0992329F068
:10148000E85FFE4F6081682B04C0E050FF4F608131
:101490006823C701CFDA0E5E1F4F0834110501F72C
:1014A00080913906C0913A06D0E096E0899FC00D40
:1014B000D11D1124C65ADF4FCE01BEDA6091380625
:1014C000861741F0CE01DF91CF911F910F91FF90D0
:1014D000EF90B0CADF91CF911F910F91FF90EF90E5
:1014E000089580933806B2CFABE3B6E0E8E0F1E0D0
:1014F00034E03E0F9191982321E009F420E02D93F0
:101500003E13F8CF089510923B0610923C061092BD
:101510003D0610923E06E8E3F6E010828183628386
:101520000895CF93DF93CAE5D0E060E0CE0182DA80
:101530002196CE3081E0D807C1F7DF91CF91089591
:1015400070E09B0146E0849F200D311D1124C901EC
:10155000865A9F4F71CADF92EF92FF920F931F93AB
:10156000CF93DF93082FE62ED42EEADFC82F8823EF
:1015700029F110E0D6E92E2D30E0C901885F9E4F99
:101580007C01C8018A539F4F57DAF7019081892364
:1015900039F06D2D8D2F60D06D2D8D2F0E945E271F
:1015A0000E5E1F4FDF5FDA3961F76D2D8C2F54D03F
:1015B0006D2D8C2F0E945E278C2F01C080E0DF9163
:1015C000CF911F910F91FF90EF90DF90089561E010
:1015D00088E00E94B302811111C041E061E088E01F
:1015E0000E94C30286E190E027DA909108018923E6
:1015F00029F041E062E088E00C94C302089526E0FF
:10160000829FC0011124FC01EC55FC4FE60FF11D37
:101610004083E42FF0E0EB55FD4F80818F5F8083A6
:101620000895E62FF0E096E0899FE00DF11D11246A
:10163000EC55FC4F80818093A2021082E82FF0E0ED
:10164000EB55FD4F9081915090830895E82FF0E085
:10165000EB55FD4F80810895E82FF0E0EB55FD4FED
:101660008081662311F08F5F01C0815080830895CF
:10167000E62FF0E096E0899FE00DF11D1124EC5576
:10168000FC4F8081893271F48091CE028150809329
:10169000CE0285E380838091DA028F5F8093DA0245
:1016A00081E0089580E0089561E087E00E94E4020F
:1016B00061E087E00E94B30260E0EDC81F93CF9322
:1016C000DF931F92CDB7DEB7182F462F61E087E07A
:1016D00049830E94B3024981811102C080E007C0A2
:1016E000612F88E00FD49FEF980F9E3FB8F70F90BF
:1016F000DF91CF911F9108958091100408958093F8
:10170000100408958091100481110BC084E190E0D1
:1017100093D99FEF980F933008F081E080931004E5
:1017200008951092100408958091A3020895CF9314
:1017300064E086E00E94B302811106C085E048DAC9
:10174000843610F01092A402C4EE60E26C0F86E0C2
:101750000E94B302882349F0C43E21F48091A40280
:101760008C5F08C084E28C0F05C0C150CF3D69F783
:1017700080911004CF910895DF92EF92FF920F9322
:101780001F93CF93DF931F92CDB7DEB7D82E162FBE
:101790004983CDDF4981442309F479C0412F6D2D60
:1017A000B1D3E82E8091A402882381F084EEE8165C
:1017B00069F064E086E00E94B302811107C01092D4
:1017C000A40204EE90E2F92EFE0C12C064E086E062
:1017D0000E94B3028823A9F3E4EEEE1691F341E0F0
:1017E00060E087E00E94C302ECCF01500F3D41F062
:1017F000E012FBCF41E06F2D86E00E94C302F5CFDF
:1018000061E087E00E94B302882379F0612F8D2D7B
:1018100055DF082F811102C047DF07C060E086E076
:101820000E94FC028111F8CFE02E60E086E00E9469
:10183000FC02811119C061E087E00E94B3028111AE
:1018400013C060E088E00E94B302882369F0612F32
:101850008D2D76DE811106C062E088E00E94B30221
:10186000882311F0EE24E39486E0D89EF001112441
:10187000EC55FC4FE10FF11D8081811105C04E2D0B
:10188000612F8D2DBCDE01C0E12C6FD63FC0612FD2
:101890008D2DC7DEE82EE4EE8E1320C080918903E3
:1018A00081111CC040E064E086E00E94C30260E059
:1018B00087E00E94B302882341F01092A40240E026
:1018C00060E087E00E94C30209C08091A4028330D7
:1018D00028F48F5F8093A40285E0A2D990EE0E2DAC
:1018E00010E00B551D4F80E2F82EFE0CE9120BC0E4
:1018F000F8018081811107C040E06F2D86E0998357
:101900000E94C30299819F5F943E81F780E28E0D11
:10191000853008F4E12C60E086E00E94FC02882318
:1019200049F164E086E00E94B302882321F08091AF
:10193000A4028F5F1CC063E086E00E94B3028111A5
:1019400011C062E086E00E94B30281110DC061E027
:1019500086E00E94B302811109C060E086E00E9427
:10196000B30205C084E003C083E001C082E080933D
:10197000A30202C01092A3028E2D0F90DF91CF918F
:101980001F910F91FF90EF90DF90089580911904BF
:1019900090911A04089587E290E04ED8853018F4AB
:1019A0008093180408951092180408958A3018F04E
:1019B0001092180402C0809318046091180487E202
:1019C00090E038C8BED287FF03C060E081E003C06A
:1019D000EDDF60E080E00C944B0484B7877F84BF28
:1019E0000FB6F894A895809160008861809360009C
:1019F000109260000FBE90E080E80FB6F8948093DC
:101A00006100909361000FBE0E946C03A3D50E94F9
:101A1000D2230E94ED238CD8BDD848D4A4D80C94EE
:101A2000772C089508958AE391E00E9417298AE2AD
:101A300091E00E9417298AE191E00E941729E2EEC5
:101A4000F0E080818460808308958AE391E00E94C1
:101A5000DD278AE291E00E94DD278AE191E00C9483
:101A6000DD278091480190914901009729F0019765
:101A700090934901809348018091380190913901F8
:101A8000009729F001979093390180933801809154
:101A9000280190912901009729F00197909329013D
:101AA000809328010895CF930E943F0581111FC0A4
:101AB0000E94D11D811119C00E94C8268823B9F047
:101AC0000E94721DC92F813029F461E0892FC4DD85
:101AD00061E004C060E0892FBFDD60E08C2F0E94D0
:101AE0005E2780E0CF910C94BB26CF919AC1CF9115
:101AF000089573DF78940E9469160E94B30361E031
:101B0000DBD380914306843019F00E94B32EF9CFC5
:101B10000E94B30360E0D0D316DC3DDF0E940C1DB1
:101B200056DD0E94BA2663E08BE00E94B302882350
:101B300081F010921A04109219040E9469160E94F2
:101B400011018091D8008F778093D8000E941F2CBC
:101B500031C080914306843039F010921A041092FB
:101B600019040E94691626C080914306843011F53D
:101B70008091190490911A04883E2DEF920728F461
:101B8000019690931A048093190464E08BE00E94FC
:101B9000B302882379F040E064E08BE00E94C30246
:101BA00041E065E08BE00E94C30241E066E08BE02B
:101BB0000E94C30278DF80914306843011F580E0F3
:101BC0000E943A27882321F08AE391E00E942A2983
:101BD00081E00E943A27882329F08AE291E00E945E
:101BE0002A2902C08AE01CD882E00E943A27882372
:101BF00021F08AE191E00E942A290E94D2040E94E9
:101C000098160E94B32E8FCF362F272F65E00E94A3
:101C1000CD2E9F5FA1E0A80FA13009F480E0E32F53
:101C2000F22F40E050E0292F30E04217530714F024
:101C3000982F01C09A2F91934F5F5F4F4530510508
:101C4000A1F70895DF92EF92FF920F931F93CF9326
:101C5000DF93FC0146855785452B09F0C2C0E90199
:101C6000F1E08A339F0799F40E945527FC0198E020
:101C7000DE0101900D929A95E1F788E090E0F8017D
:101C8000918380830E94FC260E94CE26A3C0F1E0AF
:101C90008A329F0709F08DC00E9458277C01FC0101
:101CA00080818883818181110BC08281811108C06C
:101CB00010921704109216048AE00E94100657C072
:101CC000D09017048091180461E174E08D0D9CDFC1
:101CD000ED2DDD0CFF0BEB5EFE4F608170E08AE0C6
:101CE0000E94EE05892BA1F0809117048F5F8093ED
:101CF000170420911804082E000C990B422F50E075
:101D00004C5F5F4F481759071CF42C5F2093170452
:101D1000F701818120911604882361F0E22F022EC1
:101D2000000CFF0BEF5EFB4F181614F4808102C00D
:101D3000808181958983F7018281882361F0E22F78
:101D4000022E000CFF0BEF5EFB4F181614F480817F
:101D500002C0808181958A83022E000C330BC90159
:101D6000019665E070E00E94ED2E80931604F70165
:101D70008381811138C081E080931401F701838150
:101D8000882369F080911401882349F089E00E943A
:101D9000100610921401F70183818B8301C01B820E
:101DA00084E090E0F801918380830E940D26C1E0D9
:101DB00012C08A51914071F40E945B27FC0180811E
:101DC00091819983888382E090E0F80191838083F8
:101DD0000E945F25C0E0809108010E94BB268C2FE5
:101DE0000AC080E008C068EC70E089E00E94EE055F
:101DF000892B61F6C3CFDF91CF911F910F91FF9097
:101E0000EF90DF9008958A53914051F4F901908149
:101E1000892F817091FD826092FD84600C94B204E0
:101E200008957F928F929F92AF92BF92CF92DF924E
:101E3000EF92FF920F931F93CF93DF93809143060E
:101E4000843029F40E9468214AD40E94511E0E94C5
:101E50004D1F811149C00E945424882309F444C0B5
:101E60000E94E9247C01C0E0D0E07C2E88E0C82EEE
:101E700081E0D82E10E047018C0E9D1ECE01875DBB
:101E80009B4F5C01F60181916F01F40190819823D1
:101E9000F501208128232917C1F001E0911101C02B
:101EA00000E0402F612F872D90D0882371F0909112
:101EB0004306953019F40E94ED2907C0909143061E
:101EC000943019F4602F0E945E271F5F1630D1F600
:101ED0002196C231D10549F682E1F701A9E2B4E0C9
:101EE00001900D928A95E1F7DF91CF911F910F91AB
:101EF000FF90EF90DF90CF90BF90AF909F908F902A
:101F00007F90089550E09CE6899F400D511D11245B
:101F100086E0689F400D511D1124E0914A01F09127
:101F20004B01E40FF51F849108959AE6980F9830BD
:101F300030F4E82FF0E0EE58FF4F8081089580E004
:101F4000089592EE980F9A3018F490E04D9707C0DC
:101F500097EA980F9A3040F490E0885591096AE02A
:101F600070E00C94ED2E08958FEF08959CEF980F7C
:101F70009037E8F094E8980F9230C8F09AE6980FFE
:101F80009830B8F090E6980F9832A8F091E7980F43
:101F9000973098F09CE8980F983088F09EE7980F5B
:101FA0009B3078F0885C873370F080E0089581E0A2
:101FB000089582E0089584E0089585E0089586E01C
:101FC000089587E0089583E008950F931F93CF93BA
:101FD000DF93182F062FD42FCFDBC82F0E944D1F61
:101FE00081117EC06D2F8C2F0E942B01811178C032
:101FF00062E087E00E94B302882331F0202F412F56
:102000006D2F8C2FB1D9C82FCC2339F10E94360700
:10201000882339F02D2F402F612F8C2F0E945B07D2
:102020005FC0C13071F40E943607811116C04D2F78
:10203000602F812F90DAC82F0E94E21D882309F4B7
:102040004FC0CF3951F40E944E1E811106C0DD23CE
:1020500009F446C00E94341E43C00E944E1E8823CD
:1020600051F00E944E1E8130D9F5DD23C9F18C2F2D
:102070000E94FB1E35C06D2F8C2F0E944A018111DA
:102080002FC08CEF8C0F8A3928F00E942801811113
:1020900014C015C060E086E00E94FC028111F5CFFB
:1020A00062E085E00E94B302882379F3602F812FDC
:1020B0000E940D1D882349F313C0DD2389F08C2F66
:1020C0000E94E21D882371F00E944D1F81110AC0F9
:1020D0000E943607811106C06D2F8C2F0E94C21FEF
:1020E00080E001C08C2FDF91CF911F910F91089557
:1020F000109273041092720410925E0108953F9240
:102100004F925F926F927F928F929F92AF92BF9207
:10211000CF92DF92EF92FF920F931F93CF93DF93B3
:10212000CDB7DEB728970FB6F894DEBF0FBECDBF90
:102130003C0188E0EBEEF1E0DE01119601900D929A
:102140008A95E1F79091750497FF14C0DE0111960E
:10215000E8E0F1E0E12CF12C24E02E0F81918923BD
:1021600029F04D915C911197E40EF51E12962E13F5
:10217000F5CF7DC04091080126E734E000E511E08D
:10218000FE0131965F0148016901E12CF12C4424E4
:102190004A94512C84E0382E320ED6018D916D0177
:1021A000982F9F77941302C087FD0FC0D4015C91D4
:1021B000D5016D917C91569FC001579F900D1124C0
:1021C000B2010E94D92EE60EF71EBFEF8B1A9B0AB2
:1021D00082E0A80EB11C3C10E0CFC30156E0880F8E
:1021E000991F5A95E1F7B7010E94D92E8FEF869F6C
:1021F0005001879FB00C112466E0B694A7946A95AD
:10220000E1F77CE4C72E71E0D72EE12CF12C882475
:102210008A94912CD9018D919D01982F9F779413C9
:1022200002C087FD1CC0D8019C91D6018C919817E3
:1022300038F09A2DBFEFAB16B10411F008F09FEF04
:10224000D6019C93A081B1819A9FB0019B9F700D94
:102250001124CB01B4010E94D92EE60EF71EBFEF68
:10226000CB1ADB0A32960F5F1F4F3212D3CFC70152
:1022700028960FB6F894DEBF0FBECDBFDF91CF9189
:102280001F910F91FF90EF90DF90CF90BF90AF9094
:102290009F908F907F906F905F904F903F900895A8
:1022A0006091750482E190E00C941A0580917504A8
:1022B000881F8827881F089596EF980F983058F444
:1022C000611168E4E82FF0E0E65BFE4F80810E9438
:1022D00088050C948E05813031F4662311F02B9A19
:1022E00008952B980895823029F4662311F0299AD5
:1022F0000895299808950F931F93CF9308E011E054
:10230000C0E0F80191918F0180917504892361E00B
:1023100009F460E08C2FD0DFCF5FC43091F7CF910C
:102320001F910F910895CF93C82F90917504882322
:1023300029F090689093750480E004C09F77909393
:10234000750481E00E94920560E08C2F0E944B048E
:102350000E94D519D0DFCF91A3CFFF920F931F9387
:10236000CF93DF9306E714E0CCE0D0E0FF24F394B2
:10237000CE010E941C05F8018F3F11F0808301C03F
:10238000F08221960F5F1F4FC031D10589F700E51C
:1023900011E0C9E1D0E0CE010E941C05F801819353
:1023A0008F012196CD31D105B1F786E190E00E94F1
:1023B0001C0590910A01892341E009F440E060E0A6
:1023C00085E00E94C30241E061E085E00E94C30213
:1023D00040E068E083E00E94030382E190E00E9415
:1023E0001C058F3F19F08093750402C0109275048C
:1023F00082DF8091750487FF02C080E001C081E028
:102400000E94920586E190E00E941C0590910901CE
:10241000892341E009F440E064E085E00E94C302C2
:1024200041E065E085E00E94C30281E080935E01A7
:10243000DF91CF911F910F91FF9008950F931F93FC
:10244000CF93DF9306E714E0CCE0D0E0F801619190
:102450008F01CE010E941A052196C031D105B1F736
:1024600000E511E0C9E1D0E0F80161918F01CE01F2
:102470000E941A052196CD31D105B1F711DF61E037
:1024800085E00E94B30281111BC086E190E00E94AA
:102490001C05C82F60E085E00E94B302882321F06C
:1024A00060910A016C2B03C0609102016C2386E1EC
:1024B00090E00E941A0541E061E085E00E94C302BD
:1024C00068E083E00E94FC02682F87E190E00E94B0
:1024D0001A0565E085E00E94B30281111BC086E108
:1024E00090E00E941C05C82F64E085E00E94B302C2
:1024F000882321F0609109016C2B03C060910101D8
:102500006C2386E190E00E941A0541E065E085E0D9
:102510000E94C302B6D4682F82E290E00E941A059E
:10252000B3D4682F84E290E00E941A05C9D4682FC2
:1025300083E290E00E941A05CED4682F81E190E0FA
:102540000E941A0581E080935E01DF91CF911F9177
:102550000F91089541E060E083E00E94C30240E0F3
:1025600066E08BE00E94C302F8CE33D680917504FA
:1025700087FD57C00E943607811153C060E085E097
:102580000E94B302811113C010924D0410924C04AA
:1025900020915C0130915D014FEF429FC001439F4C
:1025A000900D11240197909361048093600484E15D
:1025B00090E090936D0480936C048FEF90E0909383
:1025C00059048093580480914804909149048A3FAB
:1025D00091052CF4019690934904809348048091CE
:1025E00046049091470402968837910510F088E7D9
:1025F00090E09093470480934604809145048111B4
:1026000002C08FE008C0282F30E0203F310514F4CD
:10261000815F01C08FEF8093450410927104109286
:1026200070040895CF93C82F809374040E943607D6
:10263000811106C0C11104C081E0CF910C943D0707
:10264000CF91089520915C0130915D01883E49F45D
:10265000223031051CF02150310908C081E090E0A2
:102660000CC02A3031053CF42F5F3F4F30935D01A1
:1026700020935C0106C08AE090E090935D01809316
:102680005C0136CDCF93DF9300D0CDB7DEB790910C
:102690004104911105C06A8389832ADD89816A8199
:1026A000662379F01092440497E0909343049CE0F1
:1026B00090934204811102C064E001C063E041E0F4
:1026C00007C040E063E083E00E94C30240E064E0B2
:1026D00083E00F900F90DF91CF910C94C3020F9382
:1026E0001F93CF93DF9362E083E00E94B3028823BD
:1026F00009F49DC080914404181624F481508093FD
:10270000440495C063E083E00E94B302882319F17A
:1027100080914104882309F452C0ADE3B4E0E0E5C0
:10272000F1E094E09E0F8D91882329F080818F3F06
:1027300011F08F5F808331969E13F5CF66E089E0BC
:102740000E94B302882309F43AC09BD38F3FB9F1AA
:1027500098D38F5F33C064E083E00E94B302882384
:1027600071F180914104882351F1ADE3B4E0E0E5DB
:10277000F1E020E194E09E0F8D91882349F0808163
:10278000813118F08150808303C0803109F02083AB
:1027900031969E13F1CF66E089E00E94B302882350
:1027A00031F06FD3813118F06CD3815007C066E0EF
:1027B00089E00E94B302882311F080E15FD3809109
:1027C0004204209143042F5F982F9695692F70E063
:1027D000422F50E0461757071CF42093430403C0D0
:1027E00091509093430490914304891B87FD03C04B
:1027F0008093440402C0109244040DE314E0C0E04E
:10280000D0E08C2FF80191918F01992329F0FE01DE
:10281000E05BFE4F608101C060E00E94DB05219615
:10282000C430D10571F71092730410927204DF91D5
:10283000CF911F910F91089580E88093750480E0F7
:102840000E94920558CDCF93DF9390917504E82FA5
:10285000F0E097FF1BC0EF01C85FDE4F8881282F93
:10286000292311F4982B04C0E050FF4F8081982356
:102870009093750440DD988180917504982381E0E0
:1028800009F480E060E00E944B0423C0EA58FB4F4B
:10289000808190910F01282F292330910701211168
:1028A00002C0892B07C0832390E0019665E070E0A9
:1028B0000E94ED2E8083808138233F5F632F70E07C
:1028C0008EE190E00E94ED2E21E040E0832F0E94F7
:1028D0002404DF91CF9169C5282FE82FF0E0E45B55
:1028E000FE4F8081689FC00111246FEF70E00E944D
:1028F000ED2E822F0C94DB05DF92EF92FF920F9367
:102900001F93CF93DF9362E083E00E94B302909124
:102910007504811104C080914104882389F097FFD8
:10292000D0C166E089E00E94B302882309F4C9C1DE
:10293000C0E060E08C2FC0DCCF5FC430D1F7C1C1F4
:1029400097FDB7C15091080190910901D0900A01FB
:1029500040910B0130910C01C6E7D4E0FE0120E06C
:102960006C2F6C5F81918F7711F4252B0FC0813014
:1029700011F4292B0BC0823011F42D2907C08330AC
:1029800011F4242B03C0843009F4232B6E13EACFF7
:10299000522331F06FEF70E070935504609354044C
:1029A000922309F459C0E0914C04F0914D04E230B7
:1029B000F10549F48091600490916104019690932F
:1029C00061048093600460915C0170915D018FEF00
:1029D000869F8001879F100D112480916004909143
:1029E00061040817190720F4109361040093600430
:1029F000E0906004F0906104E230F10579F0C701E5
:102A00000E94D92E7727E130F10519F46095709571
:102A10007727709357046093560404C010925704AC
:102A200010925604E016F10670F0109261041092B4
:102A30006004CF01019663E070E00E94ED2E909358
:102A40004D0480934C048091600490916104019640
:102A50009093610480936004D222D1F180916C0440
:102A600090916D04009731F0019790936D048093DD
:102A70006C042EC0809158049091590418161906C0
:102A80001CF5E0916204F09163043196F0936304C5
:102A9000E093620460915C0170915D01E617F707B5
:102AA000B8F01092630410926204660F861B9109BD
:102AB00097FD05C0909359048093580409C0109263
:102AC00059041092580404C01092630410926204D6
:102AD000422309F470C080913C04882321F0815086
:102AE00080933C040EC086E180933C0480914604B0
:102AF00090914704009729F00197909347048093A1
:102B0000460480914604909147046AE070E00E9478
:102B1000D92EFB010091640410916504C80163E0A3
:102B200070E00E94D92E70935B0460935A048091E8
:102B30005004909151048130910539F4609570955D
:102B4000772770935B0460935A040D3F124068F03E
:102B50001092650410926404019662E070E00E9495
:102B6000ED2E9093510480935004809164049091D1
:102B7000650401968E0F9F1F9093650480936404F3
:102B800040915004509151044230510539F431962E
:102B90008E0F9F1F9093650480936404809164045A
:102BA000909165048E3F924030F08DEF92E09093CB
:102BB000650480936404232309F441C080913B049D
:102BC000882321F0815080933B040AC086E08093E3
:102BD0003B0480914504882319F08150809345047B
:102BE0008091700490917104009731F00197909357
:102BF00071048093700423C086E090E09093710488
:102C0000809370048091660490916704209145043C
:102C100030E02817390710F4019704C08217930792
:102C200028F401969093670480936604809166046B
:102C300090916704992790935D0480935C0410E061
:102C40009991892F8F7729F46091540470915504DC
:102C50001BC0813029F4609156047091570414C050
:102C6000823029F460915804709159040DC083306A
:102C700029F460915A0470915B0406C0843059F4C1
:102C800060915C0470915D046F3F710531F028F034
:102C90006FEF70E002C060E070E097FD6095812FFB
:102CA0001BDE1F5F143061F6109249041092480435
:102CB00008C0DF91CF911F910F91FF90EF90DF90AF
:102CC0001ACBDF91CF911F910F91FF90EF90DF9082
:102CD000089564E08BE00E94B302811128C041E0B6
:102CE00064E08BE00E94C302A7DD40E068E080E082
:102CF0000E94030341E063E180E00E94C30280E0A0
:102D0000EBD36ED160E08AE0D7DA60E08BE0D4DA12
:102D100060E08CE0D1DA60E08DE0CEDA60E08EE059
:102D2000CBDA60E08FE0C8DA60E080E1C5CA0895E0
:102D300067E070E083E00E94EE05892B09F49DC0F6
:102D40000E943607882309F456C0809174048530A8
:102D500051F421E040E06EE182E00E94240480E032
:102D60000E943D0745C0811102C083E032C082301D
:102D700011F484E019C0863011F488E015C0873062
:102D800011F489E011C0883011F48AE00DC081305F
:102D900009F46EC0843031F1893009F464C08F3099
:102DA00019F08A3041F48BE00E94430720E041E0B3
:102DB00069E183E01BC0843151F420E040E069E127
:102DC00082E00E94240484E10E94430711C08531FF
:102DD00019F40E94430747C0863151F483E00E94F2
:102DE000430746C020E041E06AE081E00E942404FD
:102DF0008FEF809374040E94C60C883B9B4008F4BC
:102E00003CC060E089E00E94B302811102C06AD335
:102E100006C065E08BE00E94B3028111F8CF6CDD43
:102E20000E948305882311F0B4D3B0D4809172043A
:102E3000909173048C3D2FEF920728F401969093A4
:102E400073048093720480917204909173048137AB
:102E5000924098F080915E0181110FC0109273042E
:102E600010927204EBCA20E041E069E182E0BECF3B
:102E700020E041E06AE087E0B9CF089580936501E2
:102E8000089580916501089580916601089590915B
:102E90006601883E31F4923010F0915005C081E017
:102EA00007C09A3020F49F5F9093660103C08AE0C8
:102EB0008093660141E063E089E00E94C30218C983
:102EC00080918404089590915F01891708F080E053
:102ED000809384040895809167010895CF93DF93D0
:102EE00000D01F92CDB7DEB723E0829FC00111242E
:102EF000FC01E057F049DE01119683E08A0F9491BE
:102F00009D9331968A13FBCF69817A818B810F90D3
:102F10000F900F90DF91CF910895E0DF972F70E031
:102F2000690F711D9B01280F311DC90108950F9371
:102F30001F93CF93C0E000E010E08C2FEEDFCC2396
:102F400021F08017910708F4C801CF5FC03111F05C
:102F50008C01F3CFCF911F910F9108951F93CF93C1
:102F6000DF9380916701811103C080E090E034C05D
:102F70009FEF980F933058F410E0C0E0D0E0812F1D
:102F8000CCDFC80FD91F1F5F1031C9F718C084509C
:102F9000843058F764E085E00E94B302882321F072
:102FA00080916701873011F4C2DF03C080918404EF
:102FB000B4DFEC0134E0CC0FDD1F3A95E1F7209748
:102FC000A1F2CE016FEF70E00E94D92ECB0124E078
:102FD000880F991F2A95E1F7DF91CF911F910895EE
:102FE0001F93CF93DF9300D01F92CDB7DEB7198226
:102FF0001A821B8210E0BE016F5F7F4F812F0E94FB
:103000006A051F5F1031B9F70E947F0541E062E059
:1030100089E00E94C3020F900F900F90DF91CF9133
:103020001F91089590E026E030915F01931798F486
:10303000492F50E0249FF001259FF00D1124882393
:1030400019F0E857FB4F02C0EB57FB4F108211827B
:1030500012829F5FE9CF0895CF92DF92EF92FF92A5
:103060000F931F93CF93DF9300D01F92CDB7DEB79E
:1030700019821A821B82E82FF0E0E05EFD4F40814A
:10308000E0906001FB019E012F5F3F4F8901CC243E
:10309000CA94D12C93E0F92EF20E91919E9DC0011D
:1030A0001124B6010E94ED2ED8016D938D01FA1204
:1030B000F4CFB901842F0E946A050F900F900F90F2
:1030C000DF91CF911F910F91FF90EF90DF90CF9004
:1030D0000895CF92DF92EF92CF93DF93EC0190E0CF
:1030E00046E020915F01921728F5A92FB0E0C88033
:1030F000D980EA80662359F04A9FF0014B9FF00D7A
:103100001124EB57FB4FC382D482E5820EC04A9F45
:1031100090014B9F300D1124F901EB57FB4FC082FA
:10312000D182E282F901E857FB4F108211821282AC
:103130009F5FD7CFDF91CF91EF90DF90CF90089531
:103140002091820430E0A901480F511DCA0160910D
:103150005F0170E00C94ED2E089564E085E00E941C
:10316000B302882319F0109282040895809182049A
:1031700090E0019660915F0170E00E94ED2E8093D7
:10318000820408950F931F93CF93DF93C0E0D6E09E
:1031900060915F01C617C0F40C2F10E0809182048B
:1031A0009801280F311DC90170E00E94ED2E96DEB6
:1031B000D09FF001D19FF00D1124EB57FB4F63839B
:1031C00074838583CF5FE4CFDF91CF911F910F91FF
:1031D00008951F93CF93DF9300D01F92CDB7DEB732
:1031E00062E089E00E94B302811127C080916701EB
:1031F0008550823010F5B1DF11E080916701863093
:1032000009F410E0809184049BDF68DE69837A838F
:103210008B83612FCE0101965CDF10927E041092A9
:103220007D041092810441E061E089E00E94C302C4
:10323000809183048F5F809383040F900F900F9091
:10324000DF91CF911F9108950F931F93CF93DF9339
:1032500000D000D000D0CDB7DEB740E063E089E019
:103260000E94C302109281041092820441E061E046
:1032700089E00E94C30210927E0410927D0440E017
:1032800062E089E00E94C30240E064E089E00E94BD
:10329000C30240E065E089E00E94C3028CE090E058
:1032A00090936401809363011091670111110DC027
:1032B00097DE8DE090E090937E0480937D0440E063
:1032C00061E089E00E94C30265C08FEF810F833007
:1032D00058F580E0A7DE56DF10E006E080915F0140
:1032E0001817B8F4812FFADD69837A838B83019FE5
:1032F000F0011124EB57FB4F6383748385831082A5
:1033000011821282BE016F5F7F4F812FA5DE1F5F8A
:10331000E5CF809167018330B9F0823009F03AC07F
:103320008091660129E02FC0143011F01730B1F4FC
:1033300080918404D3DD6C837D838E8361E0CE0134
:103340000496C7DE143021F48091660129E11BC088
:10335000173001F5809166012CE015C08BEF810FCD
:103360008230C0F480918404EBDEB8DD69837A8317
:103370008B8361E0163009F460E0CE010196A9DE8E
:10338000809166012FE0829FC00111249093640117
:103390008093630126960FB6F894DEBF0FBECDBFB3
:1033A000DF91CF911F910F9108950F931F93CF93AA
:1033B000DF938091610190916201CD9796958795F9
:1033C0000E947F108C01CADDEC0166E089E00E945A
:1033D000B302882311F00DE310E0209719F4109246
:1033E000600125C020916101309162012D533109A6
:1033F000201B310BC90126E0880F991F2A95E1F7A0
:10340000BE010E94D92E2FEF269FC001279F900D4D
:1034100011242091650130E046E0969587954A9504
:10342000E1F72817390708F4C9018093600164E0C7
:1034300089E00E94B302811105C0DF91CF911F91F5
:103440000F9102CFDF91CF911F910F91089590932B
:103450006201809361010E947810A7CF809167017B
:1034600090E00196877099278093670180917D0491
:1034700090917E040C9721F410927E0410927D04AA
:1034800041E063E089E00E94C30230916701632F4D
:1034900070E06F5F7F4F80E390E00E94ED2E21E0AF
:1034A00040E081E0830F0E9424047FCF9091840448
:1034B00060915F01882329F0892F90E0019670E0E8
:1034C00006C070E09B01290F311DC90101970E94C0
:1034D000ED2E80938404B8CE893008F082E080938A
:1034E0006701B2CE41E060E089E00E94C30240E0A3
:1034F00065E08BE00E94C30285EA9FE621E0FC01C3
:1035000033973491311120E03196E817F907C9F764
:10351000CF010396833C3FE6930789F7222321F0EE
:1035200081E080937C0402C010927C0480E180934F
:103530005F0182E290E00E941C058093650183E2B6
:1035400090E00E941C05BFDC81E190E00E941C0518
:10355000C3DF86E290E00E941C05282F30E0225352
:1035600031092932310518F084EF91E004C02AE0D6
:10357000829FC0011124909362018093610184E2D3
:1035800090E00E941C058B3008F08AE08093660171
:103590000CCFAF92BF92CF92DF92EF92FF920F9338
:1035A0001F93CF93DF9300D000D000D0CDB7DEB70C
:1035B00064E089E00E94B302882371F165E089E04C
:1035C0000E94B302811106C0DDDD41E065E089E0C3
:1035D0000E94C30266E089E00E94B3028823C9F01A
:1035E00065E089E00E94B302882399F0DEDE10E0F6
:1035F00006E080915F01181748F4019FB001112483
:1036000068577B4F812F28DD1F5FF3CF0E947F0516
:1036100001C0E6DC40E0A5C060E089E00E94B302A2
:10362000882309F4A2C063E089E00E94B3028823E2
:1036300011F00ADE9AC061E089E00E94B3028111B4
:1036400094C01092800410927F04109283048091A1
:103650006701823098F420917D0430917E0480913E
:103660006301909164018217930708F075C061E0CF
:1036700089E00E94B30281116FC077C09BEF980F61
:10368000923008F472C09DEF980F923028F5809127
:10369000660120E1829FC0011124909380048093F1
:1036A0007F0480918104811114C057DD80916701EE
:1036B0008330F9F0843009F04FC08091840440DDFC
:1036C0000DDC6C837D838E8361E0CE01049601DD89
:1036D00043C081E0A7DC40C0823069F4809182045D
:1036E00090E0019660915F0170E00E94ED2E809362
:1036F000820448DD31C0873079F5E0905F01809128
:10370000820490E001966E2D70E00E94ED2E809371
:103710008204F12CFE1401F1CE0101966C0196E0B9
:10372000F99E5001112400E010E08091840408DD2E
:10373000D5DB69837A838B83F60181916F01F80170
:10374000EA0DFB1DEB57FB4F83830F5F1F4F0330C9
:10375000110559F7F394DECF10927E0410927D0488
:1037600041E061E089E00E94C30226960FB6F8941A
:10377000DEBF0FBECDBFDF91CF911F910F91FF90A4
:10378000EF90DF90CF90BF90AF9008958F929F926F
:10379000AF92BF92CF92DF92EF92FF920F931F935F
:1037A000CF93DF9300D01F92CDB7DEB761E089E001
:1037B0000E94B302882309F4ADC080917F049091E8
:1037C0008004009741F001979093800480937F04D8
:1037D0000E947F059FC080916701873031F482E0AD
:1037E00090E09093800480937F0410927B04912C4E
:1037F00080915F01981608F054C0C0907D04D0906D
:103800007E04A0906301B09064018E010F5F1F4F92
:1038100086E0989E70011124E0E0F0E040E0DF01D6
:10382000AE0DBF1DAB57BB4F3C9113962C91231788
:1038300038F44F5F832F322F282F8824839404C0BD
:103840003217A0F44F5F812C622F70E0631B710967
:103850006C9DC0016D9D900D7C9D900D1124B50156
:103860000E94D92E882009F452C0261BD8012D931E
:103870008D013196E330F10591F640937A044111C0
:1038800004C080918304882351F0BE016F5F7F4F95
:10389000892DE2DB80917B048F5F80937B0493947E
:1038A000A7CF80917B0481110E947F0580917D04C8
:1038B00090917E04019690937E0480937D042091E4
:1038C0006301309164012817390720F580E026E074
:1038D00090915F01891768F4289FF0011124EB573C
:1038E000FB4FC380D480E580C082D182E2828F5FAB
:1038F000EFCF40E061E089E00E94C3028091810443
:1039000090E00196817099278093810403C0232F52
:10391000260FACCF0F900F900F90DF91CF911F919A
:103920000F91FF90EF90DF90CF90BF90AF909F905E
:103930008F900895A82FB0E0AB51BB4FE62FF0E079
:10394000E85FFE4F9C918081982381E009F480E03C
:103950000895CF93DF93C82FD62FECDF2C2F30E0C4
:103960006D2F70E0F901EB51FB4FDB01882331F043
:10397000A050BF4F90818C91892305C0A85FBE4F96
:1039800090818C91892B8083DF91CF9108950F9343
:103990001F93CF93DF9305EE14E0C8E4D0E0F80165
:1039A00061918F01CE010E941A052196CA35D10579
:1039B000B1F7DF91CF911F910F91089582E1E5EE6C
:1039C000F4E0DF011D928A95E9F70895EF92FF92E6
:1039D0001F93CF93DF9385EEE82E84E0F82EC8E4A2
:1039E000D0E010E0CE010E941C05F70181937F0119
:1039F0008F3F09F41F5F2196CA35D10599F7113120
:103A000008F0DCDF41E063E085E0DF91CF911F91BA
:103A1000FF90EF900C94C302D9CFCF93DF93D82FB0
:103A2000C62F63E085E00E94B302811101C0CEDFA2
:103A3000AD2FB0E0AB51BB4FEC2FF0E0E85FFE4F95
:103A40009C918081982381E009F480E0DF91CF91FF
:103A50000895482F20917C0530917D05C90101967C
:103A600060E870E00E94ED2E90937D0580937C05C8
:103A700020917A0530917B052817390769F42115C3
:103A8000310519F02150310902C02FE730E03093A1
:103A90007D0520937C050895FC01E158FA4F408391
:103AA00008959CEF980F9A3908F4D3CF0895809128
:103AB0007A0590917B0520917C0530917D058217D8
:103AC000930771F0019660E870E00E94ED2E9093EC
:103AD0007B0580937A05FC01E158FA4F80810895B7
:103AE00080E008951F93CF93DF931F92CDB7DEB789
:103AF00010917105112319F0DADF982F04C090910D
:103B000019059923C9F3EEE7E90FEB3068F4109239
:103B10001905F0E0E35FFA4F8081882311F01082ED
:103B200039C081E080832FC08AE6890F8830A8F4ED
:103B300010921905E92FF0E0EE58FF4F2081809197
:103B40001805322F382329F02095822380931805F9
:103B500021C0822B8093180516C0112359F0892F9C
:103B600099830E94260B21E09981811120E0109217
:103B70007E0511C080911905811107C09093190528
:103B800081E080937E0521E006C010921905109215
:103B90007E05982F20E0822F0F90DF91CF911F910B
:103BA000089520917A0530917B0580917C05909154
:103BB0007D052817390721F481E090917E05911148
:103BC00080E0089590E6980F81E0983208F080E058
:103BD0000895E2E7F5E013821282158214821782BB
:103BE0001682118210820895E4E6F5E081E0808774
:103BF0001782168215821482118210821382128219
:103C00000895E1E6F5E01182108212820895EDE652
:103C1000F5E010821482138212821182089580E1ED
:103C2000ECEFF4E0DF011D928A95E9F71092FB04B6
:103C30000895CF9397EA980F9A3018F4C5ECC80FFF
:103C400001C0C82F8C2F0E94B60F813059F4E0912B
:103C5000FB04E03138F48E0F8093FB04F0E0E45075
:103C6000FB4FC083CF91089581E080930C05809332
:103C7000FA0460E080E00E944B04D1CFD0DF809155
:103C8000FA04843021F481E080930C05089560E00B
:103C900080E00E944B0410920C05C1CF80910C056E
:103CA0000895CF92DF92EF92FF920F931F93CF93DD
:103CB000DF9380910C05823009F094C0C4E08C2F12
:103CC0000E94260B81118EC0CF5FCE39C1F7ECE880
:103CD000F2E6C491EDE8F2E6E491D0E0DC2FCC27E7
:103CE000CE0FD11D6EE8E62E62E6F62E01E010E062
:103CF0000C5F1440DD24D39473E0C72ECE15DF058E
:103D000008F45EC0F7013196E491E150EE3F08F00F
:103D100053C0ACEFB4E080E098012E0D3F1DF901D7
:103D2000EA0FFB1FE4919D91E91346C0882311F02F
:103D3000EE2319F08F5F803191F74BDF55DF61DFA4
:103D400066DFF701719624913196E49130E0322FCD
:103D500022272E0F311D3093730520937205F70132
:103D6000739684913196E49190E0982F88278E0F76
:103D7000911D90937505809374058217930790F1B8
:103D8000821B930B9093790580937805F7017596C4
:103D9000E491E1111EC01092650510926405F701CF
:103DA0007696E49181E0E13009F080E0809371053E
:103DB000C0926E05D0926D0587E1E80EF11C9ECF92
:103DC000DF91CF911F910F91FF90EF90DF90CF90F7
:103DD00055CF82E3E89FF0011124F0936505E0934D
:103DE0006405DDCFDF91CF911F910F91FF90EF9090
:103DF000DF90CF90089590916D05913009F44CC0FB
:103E0000843E09F449C090E2980F933008F444C00E
:103E10002091F9049091FA042F39E9F48F39D9F4FB
:103E20002091FB04211117C0943060F49F5F9093A0
:103E3000FA04943089F521E040E064E18AE00E94D0
:103E4000240406C0943041F581E08093FA0416DF23
:103E50001092F9040895943019F091E09093FA04C7
:103E60008093F904893209F409CF883221F088352A
:103E700011F08F3941F48091FB04882369F082E0CE
:103E800080930C05E5CF9CEF980F9A3928F4D1DE8A
:103E90008091FB04803140F7089581E090916D0599
:103EA000913009F080E0089580916D05823029F00D
:103EB00080916105811103C0089581E0089582E039
:103EC000089587DE91DE9DDEA2CE1F93CF93DF9310
:103ED00027E0829FC0011124EC01DE59FE013496D7
:103EE000E491F0E0F0936505E0936405FE013696F9
:103EF000E49181E0E13009F080E080937105FE01FA
:103F0000359614911F3F09F410E080910801812338
:103F100059F082E080936D05E0910901E12349F0B9
:103F200081E08093620505C088EC0E94260B811118
:103F3000F0CFFE0184913196E49190E0982F88278C
:103F40008E0F911D9093730580937205FE0132963A
:103F500024913196C491E22FF0E0FE2FEE27EC0F72
:103F6000F11DF0937505E0937405E817F90730F03B
:103F7000E81BF90BF0937905E0937805DF91CF9179
:103F80001F9108951F93CF93DF93C0E6C80FCF30E2
:103F900038F0CCE4C80FC43108F0ACC013E001C065
:103FA00011E0662309F490C0D82F7EDF882361F0EA
:103FB00080916205882309F49DC0809170058D135E
:103FC00099C01092620596C004DE0EDE1ADE1FDE76
:103FD000D0937005113009F045C010936E058C2FF9
:103FE00090E0C4960E941C05D82F82E3C89F9001E0
:103FF0001124225F3E4FC0936F05309373052093C9
:1040000072052F5C3F4F309375052093740581E353
:1040100090E090937905809378058FEF8D0F8E3F18
:10402000A0F4809108018D2359F082E080936D0502
:1040300080910901D82361F081E08093620508C076
:1040400088EC0E94260B8111F0CF81E080936D05F2
:1040500085E190E00E941C0590E0909365058093B7
:10406000640517C0133009F043C010936E0581E05A
:1040700080936D058C2F29DF209174053091750593
:1040800080917205909173058217930710F010923A
:104090006D0580916D05823019F481E08093610592
:1040A00010926305809164059091650518161906B4
:1040B0000CF542E3489F9001499F300D1124309345
:1040C00065052093640516C090916105992391F0D0
:1040D0009091700598130EC08091620581110AC0FD
:1040E0001092700510926D0581E08093630502C007
:1040F00010927005DF91CF911F910895CF93DF93B8
:104100001F92CDB7DEB7898364DD6EDD7ADD7FDD9A
:1041100091E090936D058981863021F0883011F00F
:10412000893019F480936E0502C010926D050F90CE
:10413000DF91CF910895CF93DF93CDB7DEB72E9760
:104140000FB6F894DEBF0FBECDBF91E7980F973042
:10415000B0F49EE0E3EFF1E0DE01119601900D92E4
:104160009A95E1F79E012F5F3F4F280F311D280FD1
:10417000311DF901EE51F1408081918102C080E052
:1041800090E02E960FB6F894DEBF0FBECDBFDF9144
:10419000CF91089520916E05213041F42091720550
:1041A00030917305820F931F0C941C05233049F442
:1041B0002091720530917305FC01E20FF31F849189
:1041C00008958FEF0895CF92DF92EF92FF920F93B1
:1041D0001F93CF93DF9380916E05883099F4C0913F
:1041E0007605D0917705FE01EE50F04984919FEF5E
:1041F000980F9E3F08F05AC0EE3FFF4608F056C0A9
:1042000050DC58C08630C9F4E0917605F09177050E
:10421000FE598491E115F04728F010926D05109237
:10422000610501C0EBD380917605909177050196E9
:10423000909377058093760542C0893009F03FC09E
:10424000C0917605D091770587E18C9F80018D9F85
:10425000100D11247801E1E7EE1AEDE9FE0A68017C
:10426000F1E6CF1AFDE9DF0AF70184919FEF980F7D
:104270009E3FA0F088E5EDDBECE8F2E68491EDE806
:10428000F2E694910B551D49E82FF0E0FE2FEE2742
:10429000E90FF11D0E171F0748F40CC002DCFFEFF9
:1042A000EF1AFF0AEC14FD04F9F6E4CF10926D0545
:1042B000109261052196D0937705C0937605DF9122
:1042C000CF911F910F91FF90EF90DF90CF900895C5
:1042D000CF9367DC882309F4BFC080916D058111FD
:1042E00005C080916105882309F4B6C06091660518
:1042F000709167058BE00E94EE05909369058093AD
:104300006805009739F42091660530916705232BE5
:1043100009F0A2C020916C05222359F01092F804F4
:104320001092F704109269051092680510926C05BE
:1043300012C02091660530916705281739073CF4B3
:10434000821B930B9093F8048093F70404C010929F
:10435000F8041092F70480916E0598EF980F923050
:1043600010F0863011F4CF912ECF20917605309148
:10437000770580917805909179058217930770F4FD
:1043800080916D05823011F0CF919BCD80916305B6
:104390008111FACF109277051092760580917605FB
:1043A00090917705F7DEC82FC6DE9C018091F70457
:1043B0009091F80412161306C4F4409176055091BA
:1043C00077054F5F5F4F5093770540937605281B25
:1043D000390B37FD05C030936705209366053CC057
:1043E000109267051092660510C020916405309107
:1043F0006505821793071CF4281B390B02C020E0C7
:1044000030E03093670520936605CF3FC9F4809173
:104410006D05823009F0B8CF809163058111B4CF6A
:104420008091760590917705909379058093780532
:10443000109277051092760580E090E0ABDEC82FF1
:1044400080917605909177050196909377058093FA
:1044500076058C2FCF9125CBCF910895CF93C82F80
:1044600042E350E06FEF70E08AE195E00E94162F82
:1044700010925F0510925E0510925C0510924C053B
:104480001092600510924D058BE0EEE4F5E0DF013F
:104490001D928A95E9F710925905C0935D058C2FFE
:1044A00090E0C4960E941C058F3F19F08093600530
:1044B00002C0109260059091090180910801892B3A
:1044C00090916005892380936005CF910895CF93E3
:1044D000DF93C4E3D0E06FEFCE010E941A0521966E
:1044E000C834D105C1F7CEE0D1E06FEFCE010E9414
:1044F0001A052196CC3F83E0D807B9F7DF91CF9119
:10450000089590916005811108C080910801282FBD
:10451000292371F08091000109C0813061F48091FC
:104520000901282F292321F080910101982301C03E
:10453000982B90936005809160050895ECE4F5E078
:1045400091818089890F9585890F089580915905FA
:1045500081110BC080914D05811107C081E0209130
:104560005A0530915B05232B09F080E008951F93D5
:10457000CF93DF93C82F162F0E94B60FD82F8FEF3F
:104580008D0F823020F08D2F8D7F853069F48091E2
:104590005A0590915B05112311F0019601C0019716
:1045A00090935B0580935A05C9DF823308F04BC0B6
:1045B0008D2F8B7F813009F490C0D23019F0D73025
:1045C00009F09DC080915E0590915F059C012F5F71
:1045D0003F4F30935F0520935E05FC01E65EFA4F86
:1045E000C083D230D1F4EC2FF0E0EE58FF4F2081A1
:1045F00080914C05322F382390914D05332331F0B3
:104600002095822380934C05915004C0822B809387
:104610004C059F5F90934D0578C0D73009F06FC06F
:10462000EEE7EC0FF0E0E45BFA4F928180915905E0
:10463000992319F01282815003C091E092838F5F19
:104640008093590562C011116BC080914D05811195
:104650000DC020915905222309F465C080915E05A3
:1046600090915F05EEE4F5E032E822C090914C05B0
:1046700020915E0530915F05E8E0F1E046E9519157
:10468000652F692349F0509595238150D901A65E85
:10469000BA4F4C932F5F3F4F4F5F4E3981F73093A6
:1046A0005F0520935E0590934C0580934D05D1CF17
:1046B0004081442339F010822150DC01A65EBA4FBC
:1046C0003C9301963F5F31963D3891F72093590511
:1046D00090935F0580935E0526C0112309F46DCF8A
:1046E00080915E0590915F059C012F5F3F4F309355
:1046F0005F0520935E05FC01E65EFA4FC083D13072
:10470000A9F0D53099F0D23041F480915C05833323
:104710007CF48F5F80935C050BC0D73049F4F5CFF4
:10472000D13079F7F2CFD13061F702C01111EDCF5E
:10473000DF91CF911F9108950F931F93CF93DF9334
:1047400080915C0581110CC080915D0590E06091C5
:104750006005C496DF91CF911F910F910C941A05BB
:104760000AE115E0CEE0D1E0F80161918F0180917E
:104770005D059E0142E3849F200D311D1124C90176
:104780000E941A052196C03481E0D80769F7DCCF72
:10479000853008F485E080936801682F88E190E017
:1047A0000C941A058CE6E9E6F1E0DF011D928A958A
:1047B000E9F788E190E00E941C059BEF980F9E327C
:1047C00008F08AE0809368010895EFEFF5E082E158
:1047D0008E0F11928E13FDCF0895F7DF269A87B1C1
:1047E000806C87B980B3836080BB2E9888B18F734B
:1047F00088B981B38C7F81BB08959091080198237B
:1048000011F0889A01C0889890910901982311F0BD
:10481000899A01C0899890910A01892311F0479AD9
:104820000895479808952E9898B19F7398B991B3B9
:104830009C7F91BB883018F4E0DF469A089598EF8A
:10484000980F983010F4D9DF2E9A0895729881113C
:1048500009C0623039F49CB180910A01982381E04B
:1048600011F120C0611104C099B18091080117C0F5
:10487000613021F499B18091090111C0623021F4B5
:1048800099B180910A010BC0633021F499B18091F4
:104890000B0105C0643031F499B180910D0198236A
:1048A00081E009F480E008952F923F924F925F9249
:1048B0006F927F928F929F92AF92BF92CF92DF9230
:1048C000EF92FF920F931F93CF93DF931F92CDB779
:1048D000DEB780916801082F000F000F080F82E0FB
:1048E0000E94E1052FEFE22E25E0F22E512C10E080
:1048F00038E0832E31E0932EA82EB12C812F93DF48
:1049000080E0682E81E0782E98E0C92E91E0D92EC3
:1049100090E0292F210F30E0A90147595E4F1A017D
:10492000FA0180819501280F311D2B3F310510F0D0
:104930002AEF30E0F1012083F6014080F701808109
:1049400048226C2D6819812F998380DF282F998147
:10495000442019F0882319F016C08823A1F0F10132
:104960008081801780F01082F7018081222321F05E
:10497000F6012081822B03C0F30120818223F701FD
:10498000808355245394915FFFEFCF1ADF0A4FEFD6
:10499000641A740A9B3409F0BCCF1F5F5FEFE51AFD
:1049A000F50A1F3009F0AACF852D0F90DF91CF9126
:1049B0001F910F91FF90EF90DF90CF90BF90AF903D
:1049C0009F908F907F906F905F904F903F902F902F
:1049D00008958FEF95E00895882361F09FEF980F79
:1049E000993010F4835E089596EF980F963020F476
:1049F0008650089587E2089580E00895CF93DF936D
:104A0000C82F82958F70E8DFD82F8C2F8F70E4DF4E
:104A1000C82F8D2F46D88C2FDF91CF9142C8CF93CE
:104A2000DF93CDB7DEB760970FB6F894DEBF0FBE49
:104A3000CDBF90E1E1E0F2E0DE01119601900D9230
:104A40009A95E1F79E012F5F3F4F280F311D280FE8
:104A5000311DF901E85EF1098081918160960FB600
:104A6000F894DEBF0FBECDBFDF91CF910895CF93F5
:104A7000DF93C0911706D0911806D1DF21E0C81747
:104A8000D90709F020E0822FDF91CF9108956623A6
:104A900031F0C5DF909318068093170608951092A1
:104AA000180610921706089590914306943031F439
:104AB00091E0611101C090E0692FE9CF0895EF9274
:104AC000FF920F931F93CF93DF9310921606C1EEC0
:104AD000D1E08EE2E82E86E0F82E10E001E0888139
:104AE000882371F0F7018081882351F010821092A1
:104AF000180610921706809116068F5F809316068F
:104B0000812FB5DF882311F0088301C018821F5F51
:104B10002196FFEFEF1AFF0A183009F7DF91CF91C6
:104B20001F910F91FF90EF900895E8E7E80FE530AF
:104B300050F4F0E0E85FFE4F9081809112069823D8
:104B400081E041F526C0823819F4809114061DC019
:104B5000833821F481E09091140610C0843819F450
:104B60008091130612C0853821F481E090911306DC
:104B700005C0873831F481E090911506191654F07C
:104B800008C0863831F480911506881F8827881F51
:104B9000089580E0089598E7980F953098F4892F4C
:104BA00090E020911206FC01662329F0E85FFE4F99
:104BB0008081282B04C0E050FF4F80812823209360
:104BC00012060895843811F4619502C0853819F4ED
:104BD000609313060FC0833819F0823821F4619571
:104BE0006093140607C0863819F0873819F4619568
:104BF0006093150680911306811108C080911406F8
:104C0000811104C080911506882321F081E08093F2
:104C100022060895109222060895EF92FF920F93B4
:104C20001F93CF93DF931092110606ED11E083E2FC
:104C3000E82E86E0F82EC0E0D1E0F80180818823DC
:104C400069F0F7018081882349F0108260E08C2FA1
:104C5000A2DF809111068F5F809311068C2F65DF94
:104C6000F801882311F0D08301C01082CF5F0F5F5D
:104C70001F4FFFEFEF1AFF0ACB30F9F6DF91CF910C
:104C80001F910F91FF90EF900895CF93909143065D
:104C90009430D9F4C62F0E94950F90911906209157
:104CA000EA01C13031F4982B809582238093EA0188
:104CB0000AC0282319F08095982305C02091370653
:104CC000822B8093370690931906CF910895909187
:104CD0004306943009F043C0613081F4EBE1F6E023
:104CE0002FEF90E031913817D1F12F3F19F43111A6
:104CF00001C0292F9F5F9630A9F71EC05091E9018E
:104D00009091360620E030E0F901E75EF94F4281EC
:104D100048130AC0D901A85FBE4F4C91642F652388
:104D200011F0128201C0942B2F5F3F4F26303105C6
:104D300059F79093360608952F3F89F0022E000C04
:104D4000330BF901E75EF94F8283F901E050FF4F21
:104D50009091E901808189238093E9010895089564
:104D60001092190686E0EBE1F6E0DF011D928A95CC
:104D7000E9F70895F5CF2091D501882311F0822B12
:104D800004C090910001822F89238093D50108955A
:104D9000909108018091D50189230895CF93DF93E5
:104DA0008091E90190913606ABE1B6E0C8E0D1E030
:104DB000E0E0F1E030E046E04E0F2C91222319F0C4
:104DC0002881822B02C0208182232991582F5223CF
:104DD00031F0292321F0208192231C923F5F11960C
:104DE00031964E13EACF8093E901909336063093C3
:104DF0002106DF91CF910895EF92FF921F93CF93F9
:104E0000DF93909119068091EA0120913706E8E03E
:104E1000F1E0A0E0B1E0BD017F0140E058E05E0FAD
:104E2000E70139917E01132F182339F0322329F03D
:104E3000EB013881232393234F5F6F5F7F4F5E1118
:104E4000EFCF9093190620933706409321062191C6
:104E5000322F392311F0822B02C02C91822311961C
:104E60005E13F5CF8093EA01DF91CF911F91FF9000
:104E7000EF900895811104C081E0909121060EC049
:104E8000813039F48091110681110BC08091220686
:104E90000895823041F481E090911606911104C08A
:104EA00002C081E0089580E0089589E196E00895C8
:104EB00082E196E0089587E196E008951F93CF93ED
:104EC000DF931F92CDB7DEB7182F69830E94B60F0C
:104ED0009FEF910F69819E3F08F06AC0823089F48C
:104EE000812F662331F00E94260B813061F561E04D
:104EF00005C00E94260B811126C060E0812FC5DE0F
:104F000022C0813031F584E8810F823060F466235D
:104F100009F44EC01C3711F411E901C010E961E039
:104F2000812FD5DE0DC0812F662331F00E94260B24
:104F3000813049F461E005C00E94260B811103C055
:104F400060E0812FC4DE809121068F5F809321066F
:104F50002FC08630B1F4812F662331F00E94260BDA
:104F6000813049F461E005C00E94260B811103C025
:104F700060E0812F99DD809116068F5F8093160681
:104F800017C08730A9F4812F662331F00E94260BC9
:104F9000813049F461E005C00E94260B811103C0F5
:104FA00060E0812FF8DD809111068F5F80931106FC
:104FB0000F90DF91CF911F9108956F927F928F9202
:104FC0009F92AF92BF92CF92DF92EF92FF920F9398
:104FD0001F93CF93DF9300D01F92CDB7DEB77C0134
:104FE000CDB6DEB68091E80083FF0AC1F70180816B
:104FF00090E020914806309149062817390709F0BA
:10500000FFC080914506833009F4A1C030F481309F
:1050100071F0823009F4D8C0F3C08A3009F4BCC002
:105020008B3009F4A5C0893009F0EAC052C08091E4
:105030004406813A09F0E4C08DB69EB61A82198200
:1050400080914606109147068B83F7018085482F93
:1050500050E08DB79EB7841B950B0FB6F8949EBF9A
:105060000FBE8DBFEDB7FEB731965F0160E070E017
:10507000CF01DCD64FEF410F8E010F5F1F4F95011F
:10508000BE016D5F7F4FC7010E94220EF70186812E
:105090009781009721F0408550E0B501BED610926F
:1050A000E9008091E800877F8093E8008B8181117F
:1050B0008093F10069817A81C501EFD18091E80088
:1050C0008B778093E8000FB6F8949EBE0FBE8DBE1E
:1050D00097C080914406813209F092C0ADB6BEB649
:1050E00000914A0610914B06709046066090470664
:1050F0008DB79EB7801B910B0FB6F8949EBF0FBE65
:105100008DBFEDB7FEB731964F018091E800877FE4
:105110008093E800B801CF0123D28091E8008E7718
:105120008093E80021E0711001C020E030E0021B14
:10513000130B280D391D4FEF460D672DC7010E9437
:10514000030F0FB6F894BEBE0FBEADBE59C080911E
:105150004406813A09F054C08091E800877F80932B
:10516000E8008091E80080FFFCCFF701818540C016
:1051700080914406813209F043C08091E800877F26
:105180008093E8000BD39091460681E0911101C015
:1051900080E0F701818734C080914406813281F537
:1051A0008091E800877F8093E800F8D280914606DE
:1051B00090914706882736E0969587953A95E1F7CE
:1051C000F701958784871CC080914406813AC1F419
:1051D0008091E800877F8093E8008091E80080FF5D
:1051E000FCCFF7018485958596958795969587954B
:1051F0008093F1008091E8008E778093E800CED212
:105200000FB6F894DEBE0FBECDBE0F900F900F907C
:10521000DF91CF911F910F91FF90EF90DF90CF9092
:10522000BF90AF909F908F907F906F900895FC01FA
:10523000399627E0DF011D922A95E9F721E0FC016C
:10524000218724EF31E03587248723E0248361E040
:1052500001965CC24F925F926F927F928F929F9263
:10526000AF92BF92CF92DF92EF92FF920F931F9374
:10527000CF93DF9300D01F92CDB7DEB77C01ADB6E0
:10528000BEB680914306843009F08EC08091E40060
:105290009091E500F701228533852817390709F435
:1052A00083C081818F708093E9008091E80085FF41
:1052B0007BC08DB69EB6408550E08DB79EB7841BEF
:1052C000950B0FB6F8949EBF0FBE8DBFEDB7FEB71E
:1052D00031966F011B821A82198260E070E0CF0163
:1052E000A5D58E010F5F1F4F960140E0BE016D5F97
:1052F0007F4FC7010E94220E482EF70184859585B5
:10530000892B51F091E080E026853785232B09F029
:1053100090E0092F182F02C000E010E0F70166802E
:1053200077806114710489F049815A81B301C60103
:1053300067D555245394892B09F4512CF7014085E6
:1053400050E0B601C30169D501C0512C89819A8111
:10535000892BF1F0411004C0511002C0012BC1F0A3
:10536000F701848595859787868781818F708093E3
:10537000E9008B8181118093F10069817A8140E09D
:1053800050E0C60140D08091E8008E778093E8001D
:105390008091E4009091E500F701938782870FB632
:1053A000F8949EBE0FBE8DBE0FB6F894BEBE0FBE63
:1053B000ADBE0F900F900F90DF91CF911F910F9185
:1053C000FF90EF90DF90CF90BF90AF909F908F9025
:1053D0007F906F905F904F90089580E189BD82E14A
:1053E00089BD09B400FEFDCF8091D8008F7D8093E8
:1053F000D8008091E00082608093E0008091E0001E
:1054000081FDFCCF0895CF92DF92EF92FF920F9330
:105410001F93CF93DF93EC018B017A01DED18111D1
:1054200033C0E114F10439F0F70180819181081B48
:10543000190BC80FD91FC12CD12C0115110519F159
:105440008091E80085FD16C08091E8008E778093FA
:10545000E80089D4E114F10449F0F70180819181D9
:10546000C80ED91ED182C08285E00EC0B6D1882375
:1054700021F30AC089918093F10001501109FFEFD7
:10548000CF1ADF0ADACF80E0DF91CF911F910F9121
:10549000FF90EF90DF90CF90089520914A063091D1
:1054A0004B062617370748F06115710539F420912E
:1054B000E8002E772093E80001C0B90140E06115B3
:1054C0007105A9F120914306222309F443C0253038
:1054D00009F442C02091E80023FD40C02091E8007B
:1054E00022FD32C02091E80020FFE9CF4091F30077
:1054F0002091F20030E0342BFC01CF0161157105E1
:1055000059F02830310540F481918093F1006150C9
:1055100071092F5F3F4FF1CF41E02830310509F08D
:1055200040E02091E8002E772093E800C8CF411199
:10553000C9CF0AC080914306882361F0853061F0AD
:105540008091E80083FD0AC08091E80082FFF2CFDD
:1055500080E0089582E0089583E0089581E0089551
:105560006115710529F42091E8002B772093E8005C
:10557000FC016115710541F180914306882361F1B9
:10558000853061F18091E80083FD24C08091E800BE
:1055900082FFEFCF2091F3008091F20090E0922BF8
:1055A000892B31F08091F10081936150710991F75D
:1055B0008091E8008B778093E800DBCF80914306F1
:1055C000882351F0853051F08091E80080FFF6CFBC
:1055D00080E0089581E0089582E0089583E00895D1
:1055E00020914A0630914B062617370748F061157F
:1055F000710539F42091E8002E772093E80001C06E
:10560000B901FC0120E06115710591F1809143061B
:10561000882309F440C0853009F43FC08091E80038
:1056200083FD3DC08091E80082FD2FC08091E8009D
:1056300080FFE9CF2091F3008091F20090E0922B5F
:105640006115710559F08830910540F4249120933B
:10565000F1003196615071090196F2CF21E008976F
:1056600009F020E08091E8008E778093E800CBCFAE
:105670002111CCCF0AC080914306882361F0853088
:1056800061F08091E80083FD0AC08091E80082FF0C
:10569000F2CF80E0089582E0089583E0089581E0EC
:1056A0000895982F973058F59093E900981739F09E
:1056B0007091EC002091ED005091F00003C0242F78
:1056C000762F50E021FF19C03091EB003E7F3093E0
:1056D000EB003091ED003D7F3093ED003091EB0019
:1056E00031603093EB007093EC002093ED00509309
:1056F000F0002091EE0027FF07C09F5FD3CF8F708F
:105700008093E90081E0089580E00895EF92FF9290
:105710000F931F93CF93DF93E62EEC018C010C5F68
:105720001F4FF12CFE1491F15881552351F1F801CE
:10573000208169817A8131979081852F8F708730A0
:1057400010F080E024C0223010F442E001C046E0B6
:10575000E8E0F0E020E0E617F70720F42F5FEE0F17
:10576000FF1FF9CF2295207F422BF0E49F9F9001ED
:105770001124551F5527551F652F622B92DF882353
:1057800001F3F39425960B5F1F4FCCCF81E0DF919F
:10579000CF911F910F91FF90EF9008958091440653
:1057A00087FF11C08091E80082FD05C0809143060B
:1057B0008111F8CF11C08091E8008B770BC08091E8
:1057C0004306882349F08091E80080FFF8CF80915C
:1057D000E8008E778093E80008952091E4003091EE
:1057E000E50095E64091EC00842F817040FF22C0D7
:1057F0008091E80080FD1CC080914306882391F0D1
:10580000853091F08091EB0085FD10C04091E4005F
:105810005091E5004217530729F39A01915011F76F
:1058200084E0089582E0089583E0089581E008957A
:1058300080E008954091E80042FFDECF089567D0F0
:105840006ED0E0EEF0E0808181608083E8EDF0E0F2
:1058500080818F77808319BCA7EDB0E08C918E7F1B
:105860008C9380818F7E80831092420608950F93DF
:105870001F93CF93DF934BD052D0C8EDD0E08881F7
:105880008F77888388818068888388818F7D8883EB
:1058900019BC1092430610923F06109241061092D6
:1058A000400600EE10E0F80180818B7F80838881C4
:1058B0008160888342E060E080E0F3DEE1EEF0E0CA
:1058C00080818E7F8083E2EEF0E080818160808342
:1058D000808188608083F80180818E7F80838881C9
:1058E00080618883DF91CF911F910F910895E8ED3A
:1058F000F0E080818F7E8083E7EDF0E08081816041
:10590000808384E082BF81E080934206B0CFE8EDDF
:10591000F0E080818E7F80831092E20008951092E3
:10592000DA001092E10008951F920F920FB60F92C5
:1059300011242F933F934F935F936F937F938F9394
:105940009F93AF93BF93EF93FF938091E10082FF0A
:105950000BC08091E20082FF07C08091E1008B7F45
:105960008093E1000E94310D8091DA0080FF1FC01A
:105970008091D80080FF1BC08091DA008E7F8093D9
:10598000DA008091D90080FF0DC080E189BD82E1FD
:1059900089BD09B400FEFDCF81E0809343060E94DB
:1059A000110D05C019BC109243060E94120D809182
:1059B000E10080FF18C08091E20080FF14C0809158
:1059C000E2008E7F8093E2008091E200806180930C
:1059D000E2008091D80080628093D80019BC85E0F5
:1059E00080934306BFD18091E10084FF2FC0809156
:1059F000E20084FF2BC080E189BD82E189BD09B44A
:105A000000FEFDCF8091D8008F7D8093D8008091DB
:105A1000E1008F7E8093E1008091E2008F7E809391
:105A2000E2008091E20081608093E20080913F0675
:105A3000882311F084E007C08091E30087FD02C055
:105A400081E001C083E0809343068CD18091E10026
:105A500083FF22C08091E20083FF1EC08091E1009D
:105A6000877F8093E10082E08093430610923F0697
:105A70008091E1008E7F8093E1008091E2008E7F33
:105A80008093E2008091E20080618093E20042E036
:105A900060E080E006DE66D1FF91EF91BF91AF91AB
:105AA0009F918F917F916F915F914F913F912F9136
:105AB0000F900FBE0F901F9018951F93CF93DF93F9
:105AC000CDB7DEB7AA970FB6F894DEBF0FBECDBF35
:105AD000E4E4F6E088E08E0F9091F10091938E134C
