:10000000EFC000000AC1000008C1000006C10000E6
:1000100004C1000002C1000000C10000FEC00000D9
:10002000FCC00000FAC000000C943323F6C00000AE
:10003000F4C00000F2C00000F0C00000EEC00000FC
:10004000ECC00000EAC00000E8C00000E6C000000C
:1000500017C40000E2C00000E0C00000DEC00000E5
:10006000DCC00000DAC00000D8C00000D6C000002C
:10007000D4C00000D2C00000D0C00000CEC000003C
:10008000CCC00000CAC00000C8C0000064C30000AB
:10009000C4C00000C2C00000C0C00000BEC000005C
:1000A000BCC00000BAC00000B8C000002803300087
:1000B00032004400200043007500730074006F009C
:1000C0006D0020004600690072006D00770061003D
:1000D0007200650000000803300032004400000098
:1000E0000403090409025400030100A0FA090400F2
:1000F000000103010100092110010001223F000756
:10010000058103080001090401000103010200093F
:100110002110010001223C000705820308000109AB
:100120000402000103000000092110010001221B4C
:1001300000070583030800011201100100000008F8
:10014000EB036A20010001020001050C0901A10175
:10015000050C1600002692011A00002A9201751063
:1001600095018100C005010902A1010901A1000555
:1001700009190129051500250195057501810295CB
:10018000017503810105010930093109381683FF22
:10019000267D003683FF467D00950375088106C0E5
:1001A000C005010906A101050719E029E715002589
:1001B00001750195088102950175088101050819ED
:1001C00001290595057501910295017503910115A8
:1001D0000025FF0507190029FF950675088100C055
:1001E00011241FBECFEFDAE0DEBFCDBF11E0A0E0EB
:1001F000B1E0E2EAFBE402C005900D92AC38B10731
:10020000D9F726E0ACE8B1E001C01D92A53AB207EB
:10021000E1F70E946A090C94CF25F2CE63E086E0F4
:100220000AD1882341F06A9872988CB1F8940DD263
:10023000E0E0F8E3099580E0089580918C0108954D
:1002400094E2980F943020F46623A9F0892F0FC010
:10025000863E31F4662379F0A5D60E94FC0F0BC0D0
:10026000873E39F4662339F097D68F5F837097D62F
:10027000F4CF80E0089581E008951F93CF93DF933A
:100280001F92CDB7DEB78F3E49F4662321F081E09F
:1002900080938C01C9C010928C01C6C0182F8D3E6E
:1002A00069F4662309F43DC00E942A0C882311F0EA
:1002B00080E001C081E00E94930FB6C0853E21F42A
:1002C000662379F144D6B0C0833F69F4662309F40C
:1002D000ABC062E081E0D2D062E081E0ACD060E00F
:1002E0000E94870FA1C0813F81F4662309F49CC05E
:1002F00060E081E0C3D060E081E09DD060E00E94DA
:10030000870F40E061E081E064C0803F51F4698381
:1003100080D36981811105C0611186C00E94090ED8
:1003200083C08EEE6983E5D5982F6981882349F0D3
:10033000662309F479C01E3E09F476C0812F33D7B5
:1003400073C01A3E71F5662309F46EC080915E0396
:10035000811110C081E080935E0320E041E064E100
:1003600070E085E00E94190E81E00E94B10D41E02D
:1003700062E052C010925E0385E0E9E5F3E0DF0140
:100380001D928A95E9F780E00E94B10D21E040E0DE
:1003900064E170E081E00E94190E40E062E080E0DC
:1003A0001FC08EE2810F8530F8F46623B1F0909182
:1003B0005E03992381F0E82FF0E0E75AFC4F80813B
:1003C000882311F0108209C081E0808340E066E05C
:1003D00085E040D002C00E94B00F40E065E081E0BF
:1003E00039D00E941D0C20C085E1810F8230E8F4D5
:1003F00080915E03882341F01B3E11F481E001C02F
:1004000080E00E94B20E10C0662371F01B3E39F4EA
:100410001092580340E060E080E01CD005C00E94CC
:100420006C0F81E08093580391E0892F0F90DF914A
:10043000CF911F910895A82FB0E0A357BE4FE62F8C
:10044000F0E0E050FF4F9C918081982381E009F417
:1004500080E00895E82FF0E070E0E357FE4FDB0105
:10046000A050BF4F442321F090818C91892B04C070
:100470008C9180959081892380830895E82FF0E006
:10048000E357FE4F8081A62FB0E0A050BF4F9C9154
:10049000282F292329F0292F2095982F922301C056
:1004A000982B90830895E82FF0E0E357FE4F80816A
:1004B0000895292F332723303105C9F064F4213002
:1004C000310581F02230310509F043C084E590E028
:1004D00024EE30E042C021323105F1F02232310504
:1004E00041F137C082E190E028E331E036C099273E
:1004F0008130910541F08230910541F0892B49F519
:10050000E0EEF0E005C0E6EDF0E002C0ECEAF0E07D
:10051000849190E09F0121C06330D8F4E62FF0E091
:10052000EE0FFF1FEA57FE4F2081318189E090E0F6
:1005300014C0633070F470E0FB01EE0FFF1FE05851
:10054000FE4F20813181FB01E358FE4F808190E016
:1005500004C080E090E020E030E0FA0131832083A5
:1005600008950F931F93CF93DF931F92CDB7DEB7FC
:100570008C0169830E94B9256981861741F0C80101
:100580000F90DF91CF911F910F910C94C1250F9087
:10059000DF91CF911F910F9108950C94B925882375
:1005A000A1F041E060E086E055DF81E00E94B10DFE
:1005B00061E08BE00E94300C61E08AE00E94300C28
:1005C00061E08CE00E94300C0EC040E060E086E00C
:1005D00041DF80E00E94B10D21E040E060E270E088
:1005E00083E00E94190E10929501109294010895D3
:1005F00060E086E020DF882319F16FEF809194019D
:1006000090919501AEDF80919401909195018F3F7B
:10061000934058F080E0C3DF8091E00081608093D8
:10062000E0006A98729A0C94000080919401909175
:1006300095010196909395018093940181E008952E
:1006400080E008958093B1010895AEE6B0E09C91FA
:10065000E0E0F1E08081809589238C93AFE6B0E003
:100660009C918081809589238C93A1E7B0E09C9137
:100670008081809589238C93A2E7B0E09C91828150
:10068000809589238C930895E1E8F0E08081887F4C
:100690008260808310928500E4E8F0E01082AFE68B
:1006A000B0E09C9180910001892B8C938EEC9FEFA0
:1006B000918380830895EFE6F0E0908180910001BE
:1006C000809589238083089582E08093910088E358
:1006D0009FEF9093950080939400E1E7F0E0908184
:1006E00080910001892B80830895E82FF0E0E45584
:1006F000FE4F60830895E82FF0E0EE0FFF1FEA56EB
:10070000FE4F80819181118210820895E82FF0E0E0
:10071000EE0FFF1FEA56FE4F808191810895E82F6A
:10072000F0E0EE0FFF1FEA56FE4F808191818617A1
:10073000970728F08081918111821082089580E0CE
:1007400090E00895E82FF0E0EE0FFF1FEA56FE4F0D
:100750001182108208951F920F920FB60F921124EA
:100760002F938F939F9388E39FEF909395008093AF
:1007700094008091980190919901803D974048F4B0
:10078000809198019091990101969093990180939D
:10079000980180919A0190919B018C3D9F4F48F464
:1007A00080919A0190919B01019690939B01809377
:1007B0009A0180919C0190919D018C3D9F4F48F43E
:1007C00080919C0190919D01019690939D01809351
:1007D0009C018091A6019091A7018C3D9F4F48F408
:1007E0008091A6019091A70101969093A701809313
:1007F000A6018091A8019091A9018C3D9F4F48F4DA
:100800008091A8019091A90101969093A9018093EC
:10081000A80180919601909197010196909397017C
:1008200080939601059720F11092970110929601FE
:1008300080919E0190919F018C3D9F4F48F4809143
:100840009E0190919F01019690939F0180939E013C
:100850008091A0019091A1018C3D9F4F48F480911F
:10086000A0019091A10101969093A1018093A00114
:100870009F918F912F910F900FBE0F901F90189501
:100880001F920F920FB60F9211242F933F938F93C5
:100890009F938EEC9FEF90938500809384008091CE
:1008A000B101882309F4A3C08091AA019091AB0102
:1008B00001969093AB018093AA018E3F910530F091
:1008C00081E090E09093AB018093AA018091B10107
:1008D000853071F42091AA013091AB018091AE0175
:1008E00090E02817390710F42B9A81C02B987FC00D
:1008F0008091B1018430A9F52091AA013091AB011A
:100900008091AE0190E02817390710F42B9A01C0AE
:100910002B982091AA013091AB018091AD0190E01C
:100920002817390710F42A9A01C02A982091AA01A1
:100930003091AB018091B00190E02817390710F495
:100940002E9A01C02E982091AA013091AB0180917E
:10095000AC0190E02817390710F42D9A48C02D9863
:1009600046C08091B101873009F441C02091AA01AD
:100970003091AB018091AE0190E02817390710F457
:10098000299A01C029982091AA013091AB01809148
:10099000AF0190E02817390710F42A9A01C02A986D
:1009A0002091AA013091AB018091AD0190E0281710
:1009B000390710F42B9A01C02B982091AA0130918D
:1009C000AB018091B00190E02817390710F45E9ACE
:1009D00001C05E982091AA013091AB018091AC01D9
:1009E00090E02817390710F4769A01C076989F9105
:1009F0008F913F912F910F900FBE0F901F901895E0
:100A00001092B4011092B5011092B6011092B70184
:100A1000089581E09091B901911101C080E008959D
:100A20008093B90181111092B40108958093B801A7
:100A300008958A3010F061110FC09091B601909323
:100A4000B7019091B5019093B6018093B50184E010
:100A50000E94090E81E0089580E008950F931F938E
:100A6000CF93DF93C82F162F042FD22F65E080E09D
:100A7000E2DC81118DC18C2F4DD6982FC03FB1F093
:100A8000882311F0833091F48091B801833071F0A4
:100A9000843049F49D7F953049F0C83C39F0CF3E11
:100AA00009F076C103C08F3009F072C1402F612F69
:100AB00080E0FCD58093B30118D680930801909113
:100AC000B8019F30B1F4DD2309F462C1C03F19F4CD
:100AD0000E94841364C0602F812F0E946713602FCF
:100AE000812F0E945813882311F089E01FC184E0F0
:100AF0001DC1983069F4DD2309F44AC19EEF980FB7
:100B00009330A0F46FEF680F84E190E02ADDFDC020
:100B10009A30A1F0993009F045C0DD2309F438C1BD
:100B2000C03F21F161E085DF811132C181E00E9487
:100B3000090EDF91CF911F910F9162CFDD2309F450
:100B400027C1C03F79F72091B7018091B601880F86
:100B5000982F990F990F890F94E6299F800D1124E2
:100B60009091B501890F0E94F11819C08091B701C9
:100B70006091B6019AE0699FB001112494E6899FC3
:100B8000600D711D11248091B501680F711D6F3FBB
:100B9000710511F00CF06AEF85E190E0E2DC30DFE6
:100BA00080E0C4C0933009F0B2C0C93221F4DD2323
:100BB00009F4EEC060C0C83209F0E1C0D111E8C04C
:100BC0009091B50180E6890F8F3030F48093B201A7
:100BD0000E945D1782E0ABCF8091B6018A3141F46B
:100BE000983169F485E00E94090E0E948D20A1CF02
:100BF000863029F4903119F40E94961786C020910E
:100C0000B701253191F4863109F042C0973109F0DE
:100C10008DCF8091D8008F778093D8000E94BE221C
:100C20006A98729A0C94000084CF2F3089F48F3028
:100C300079F5913111F480E003C0973121F481E01E
:100C40000E941F1062C0953009F070CF82E0F8CF8B
:100C5000283041F48430E1F4963009F067CF81E028
:100C60009EDC53C0293149F4883091F4953109F064
:100C70005DCF0E94F61585E05ACF253049F48731C3
:100C800039F4953119F541E063E086E0E3DBF3CF19
:100C9000873911F08B3921F4953311F4DED049CF27
:100CA000253059F4843049F49E3009F03FCF85E077
:100CB000B0D786E00E94F6153CCF873029F49530F6
:100CC00009F034CF88E033CF873129F49F3009F021
:100CD0002DCF86E02CCF803129F4973009F026CF34
:100CE00087E025CF8E3039F49F3009F01FCF0E9466
:100CF000C9138FE01CCF863009F018CF9E3009F061
:100D000015CF0E949B130E94841380E010CF943073
:100D100009F03EC0C03F79F40E94CF178823F1F05C
:100D2000D11136C00E94C5186BDE85E0DF91CF91EE
:100D30001F910F916EC7DD2389F0C83C31F480E02C
:100D40000E94B0179091000107C0CF3E39F481E0B6
:100D50000E94B017909101018923C5CE6D2F8C2F71
:100D60000E94E0176D2F8C2F0E94FE1D0E94C71756
:100D7000823370F00E94CF17882351F0D3CFDD2348
:100D800039F060E08C2FDF91CF911F910F9151CE00
:100D9000DF91CF911F910F91089585E290E0FDDBE7
:100DA00090910001892341E009F440E062E083E092
:100DB00051DB1092BB011092BA0108950F931F935B
:100DC000CF93DF9300D0CDB7DEB7182F062F2A833D
:100DD0004983A0D42A8149811932F9F081508230A7
:100DE000A0F5173911F01B3961F48091BA01002385
:100DF00011F08F5F03C0882341F181508093BA01C5
:100E000024C08091BB01002311F08F5F03C08823B1
:100E1000E1F081508093BB0118C08091BB01882311
:100E200011F089E213C08091BA018823D1F3622FB7
:100E3000842F71D08823A9F3002399F38091BB01FB
:100E40008F5F8093BB0185E301C0812F0F900F90CE
:100E5000DF91CF911F910F910895CF9385E290E09C
:100E60009CDBC82F62E083E0E6DA882349F040E0AB
:100E700062E083E0EFDA809100018095C82307C02B
:100E800041E062E083E0E6DA80910001C82B62E095
:100E900083E0D1DA61E00E94870F6C2F85E290E059
:100EA000CF915FCB26E0829FC0011124FC01E35467
:100EB000FD4FE60FF11D4083E42FF0E0E254FE4FBA
:100EC00080818F5F80830895E62FF0E096E0899F10
:100ED000E00DF11D1124E354FD4F80818093BC018E
:100EE0001082E82FF0E0E254FE4F90819150908301
:100EF0000895E82FF0E0E254FE4F80810895E82F36
:100F0000F0E0E254FE4F8081662311F08F5F01C054
:100F1000815080830895E62FF0E096E0899FE00DF0
:100F2000F11D1124E354FD4F8081893271F48091C9
:100F3000E70181508093E70185E380838091F3018D
:100F40008F5F8093F30181E0089580E0089561E070
:100F500083E094DA61E083E06EDA60E0D8C71F9343
:100F6000CF93DF931F92CDB7DEB7182F462F61E0E6
:100F700083E0498360DA4981811102C080E007C0C3
:100F8000612F87E093D39FEF980F9E3FB8F70F90A4
:100F9000DF91CF911F910895809129030895809347
:100FA000290308958091290381110BC084E190E009
:100FB000F4DA9FEF980F933008F081E080932903D3
:100FC0000895109229030895CF9363E082E033DA05
:100FD000811107C084E09ADB883E934010F01092A4
:100FE000BD01C3EE60E26C0F82E025DA882349F090
:100FF000C33E21F48091BD018C5F08C084E28C0F58
:1010000005C0C150CF3D71F780912903CF9108955C
:10101000DF92EF92FF920F931F93CF93DF931F9274
:10102000CDB7DEB7D82E162F4983CEDF49814423B2
:1010300009F453C0412F6D2D39D3E82E8091BD01A5
:10104000882379F083EEE81661F063E082E0F3D95B
:10105000811107C01092BD0103EE90E2F92EFE0C43
:1010600010C063E082E0E7D98823B1F3E3EEEE1627
:1010700099F341E060E083E0EDD9EECF01500F3D00
:1010800039F0E012FBCF41E06F2D82E0E3D9F6CFDB
:1010900061E083E0D0D9882369F0612F8D2D5FDF77
:1010A000082F811102C053DF05C082E0FCD98111F5
:1010B000FACFE02E86E0D89EF0011124E354FD4FD4
:1010C000E10FF11D8081811105C04E2D612F8D2D05
:1010D000E9DE01C0E12C48D53BC0612F8D2DF4DE47
:1010E000E82EE3EE8E131DC08091A102811119C07C
:1010F00040E063E082E0AED960E083E09CD98823E1
:1011000039F01092BD0140E060E083E0A3D909C04E
:101110008091BD01823028F48F5F8093BD0184E00F
:1011200011DB90EE0E2D10E002541E4F80E2F82EDF
:10113000FE0CE9120AC0F8018081811106C040E06E
:101140006F2D82E0998386D999819F5F933E89F7BD
:1011500080E28E0D843008F4E12C8E2D0F90DF910B
:10116000CF911F910F91FF90EF90DF9008958091A4
:10117000320390913303089587E290E00EDA8530D0
:1011800018F48093310308951092310308958A3042
:1011900018F01092310302C0809331036091310343
:1011A00087E290E0DEC9A1D287FF03C060E081E062
:1011B00003C0EDDF60E080E0AAC684B7877F84BF0C
:1011C0000FB6F894A89580916000886180936000C4
:1011D000109260000FBE90E080E80FB6F894809304
:1011E0006100909361000FBE0E948B1979D40E9418
:1011F00014190E94441A29DA67DA2CD3811101C02C
:1012000043DA0C941623089508958FE291E00E942A
:10121000B71F8FE191E00E94B71F8FE091E00E941D
:10122000B71FE2EEF0E080818460808308958FE252
:1012300091E00E947D1E8FE191E00E947D1E8FE073
:1012400091E00C947D1E80913D0190913E010097AC
:1012500029F0019790933E0180933D0180912D01EB
:1012600090912E01009729F0019790932E01809381
:101270002D0180911D0190911E01009729F0019789
:1012800090931E0180931D010895CF93B1D98111D0
:101290001FC00E948C14811119C00E947F1D8823D9
:1012A000B9F00E942D14C92F813029F461E0892FF3
:1012B00026DE61E004C060E0892F21DE60E08C2F33
:1012C0000E94FE1D80E0CF910C94711DCF917FC1D3
:1012D000CF91089572DF78940E94241261E080918A
:1012E0009003BED280919C06843019F00E944F2555
:1012F000F9CF60E080919003B3D24FDD3DDF0E94D3
:10130000C9130E94701D63E086E095D8882381F0A0
:1013100010923303109232030E9424120E940E0195
:101320008091D8008F778093D8000E94BE221CC085
:1013300080919C06843039F010923303109232036E
:101340000E94241211C080919C06843069F480911F
:10135000320390913303883E2DEF920728F40196D3
:10136000909333038093320390DF80919C06843006
:10137000F1F480E00E94DA1D882321F08FE291E0F1
:101380000E94CA1F81E00E94DA1D882329F08FE1A4
:1013900091E00E94CA1F02C089E0D4D982E00E9475
:1013A000DA1D882321F08FE091E00E94CA1F0E947D
:1013B0004F250E943C12A7CF362F272F65E00E94B1
:1013C00069259F5FA1E0A80FA13009F480E0E32F19
:1013D000F22F40E050E0292F30E04217530714F07D
:1013E000982F01C09A2F91934F5F5F4F4530510561
:1013F000A1F70895DF92EF92FF920F931F93CF937F
:10140000DF93FC0146855785452B09F0C2C0E901F1
:10141000F1E08F329F0799F40E94F51DFC0198E0DE
:10142000DE0101900D929A95E1F788E090E0F801D5
:10143000918380830E94AE1D0E94851DA3C0F1E0B0
:101440008F319F0709F08DC00E94F81D7C01FC01BF
:1014500080818883818181110AC08281811107C0C6
:101460001092300310922F0389E06CD959C0D090AC
:101470003003809131036AE273E08D0D9DDFED2D25
:10148000DD0CFF0BE65FFE4F6081F2E36F9FB00162
:10149000112489E044D9892BA1F0809130038F5F1A
:1014A0008093300320913103082E000C990B422FBA
:1014B00050E04C5F5F4F481759071CF42C5F209396
:1014C0003003F701818120912F03882361F0E22FFF
:1014D000022E000CFF0BE65DFC4F181614F4808101
:1014E00002C0808181958983F7018281882361F020
:1014F000E22F022E000CFF0BE65DFC4F181614F4D1
:10150000808102C0808181958A83022E000C330B7A
:10151000C901019665E070E00E94892580932F0340
:10152000F7018381811137C081E080930901F701C0
:101530008381882361F080910901882341F088E04C
:1015400001D910920901F70183818B8301C01B82AD
:1015500084E090E0F801918380830E94C21CC1E086
:1015600012C08F50914071F40E94FB1DFC018081DC
:1015700091819983888382E090E0F8019183808350
:101580000E94161CC0E0809100010E94711D8C2FEA
:1015900009C080E007C068EE73E088E0C0D8892BFE
:1015A00071F6C5CFDF91CF911F910F91FF90EF9012
:1015B000DF9008958F52914049F4F9019081892F6D
:1015C000817091FD826092FD8460C4C308957F9212
:1015D0008F929F92AF92BF92CF92DF92EF92FF9243
:1015E0000F931F93CF93DF9380919C06843019F45F
:1015F0000E949716E4D30E94CA14811149C00E9428
:10160000161B882309F444C00E94A01B7C01C0E083
:10161000D0E07C2E80E0C82E81E0D82E10E047017B
:101620008C0E9D1ECE018E5B9C4F5C01F60181915C
:101630006F01F40190819823F50120812823291757
:10164000C1F001E0911101C000E0402F612F872D12
:1016500090D0882371F090919C06943021F4602FF3
:101660000E94FE1D06C080919C06853011F40E94E8
:101670008D201F5F1630D1F62196C231D10549F673
:1016800082E1F701A2E4B3E001900D928A95E1F7BF
:10169000DF91CF911F910F91FF90EF90DF90CF904E
:1016A000BF90AF909F908F907F90089550E09CE600
:1016B000899F400D511D112486E0689F400D511DEA
:1016C0001124E0913F01F0914001E40FF51F849156
:1016D00008959AE6980F983030F4E82FF0E0E65934
:1016E000FF4F8081089580E0089592EE980F9A3020
:1016F00018F490E04D9707C097EA980F9A3040F49D
:1017000090E0885591096AE070E00C94892508956D
:101710008FEF08959CEF980F9037E8F094E8980FBA
:101720009230C8F09AE6980F9830B8F090E6980F8B
:101730009832A8F091E7980F973098F09CE8980FAE
:10174000983088F09EE7980F9B3078F0885C87335C
:1017500070F080E0089581E0089582E0089584E0CB
:10176000089585E0089586E0089587E0089583E070
:1017700008950F931F93CF93DF93182F062FD42F25
:1017800047DCC82F0E94CA1481114FC06D2F8C2FC7
:101790000E942001811149C062E083E00E941B0287
:1017A000882331F0202F412F6D2F8C2F07DBC82F7E
:1017B000CC2349F02ED9882331F02D2F402F612FD3
:1017C0008C2F4CD932C06D2F8C2F0E943D0181117E
:1017D0002CC08CEF8C0F8A3928F00E941D018111DA
:1017E00012C013C082E00E9453028111F6CF62E062
:1017F00081E00E941B02882381F3602F812FCAD7CA
:10180000882359F312C0DD2381F08C2F0E949D1490
:10181000882369F00E94CA14811109C0FAD8811185
:1018200006C06D2F8C2F0E943A1580E001C08C2FCE
:10183000DF91CF911F910F91089510928F03109215
:101840008E031092460108956091970382E190E023
:101850000C94B10280919703881F8827881F0895F0
:101860001F93CF93DF931F92CDB7DEB7182F6983F5
:101870000E94C5199CEF980F69819230F0F4843072
:1018800099F4113009F446C0111106C0662311F015
:101890002D9A5DC02D985BC0143031F4662311F091
:1018A0002E9A55C02E9853C01B3019F4662361F14F
:1018B0002DC0123009F04BC035C0873049F41B30C1
:1018C00019F46623C9F13AC01C3009F040C002C0C7
:1018D0001B3031F4662311F0289839C0289A37C09C
:1018E0001A3031F4662311F02C9831C02C9A2FC095
:1018F0001C3031F4662311F05F9829C05F9A27C02D
:10190000123031F4662311F0299A21C029981FC0A2
:10191000133031F4662311F02A9A19C02A9817C09F
:10192000113031F4662311F02B9A11C02B980FC09F
:10193000111106C0662311F0769A09C0769807C087
:10194000143029F4662311F05E9A01C05E980F905E
:10195000DF91CF911F9108950F931F93CF9300E0D4
:1019600011E0C0E0F80191918F01809197038923E4
:1019700061E009F460E08C2F73DFCF5FC53091F731
:10198000CF911F910F910895FF920F931F93CF93C3
:10199000DF9308E913E0CCE0D0E0FF24F394CE011C
:1019A0000E94CD02F8018F3F11F0808301C0F082C8
:1019B00021960F5F1F4FC131D10589F701E411E076
:1019C000C9E1D0E0CE010E94CD02F80181938F01E0
:1019D0002196CE31D105B1F786E190E00E94CD028B
:1019E00090910201892341E009F440E060E081E048
:1019F0000E942A0241E061E081E00E942A0287E120
:101A000090E00E94CD028093A00380939F0382E127
:101A100090E00E94CD028F3F19F08093970302C09F
:101A20001092970381E080934601DF91CF911F913F
:101A30000F91FF9008950F931F93CF93DF9308E9C1
:101A400013E0CCE0D0E0F80161918F01CE010E945B
:101A5000B1022196C131D105B1F701E411E0C9E12C
:101A6000D0E0F80161918F01CE010E94B102219670
:101A7000CE31D105B1F7E8DE61E081E00E941B02C2
:101A800081111AC086E190E00E94CD02C82F60E06B
:101A900081E00E941B0260910201882311F06C2BEF
:101AA00002C060956C2386E190E00E94B10241E0A3
:101AB00061E081E00E942A026091A00380919F036F
:101AC000681731F060939F0387E190E00E94B102B4
:101AD00081E080934601DF91CF911F910F9108958E
:101AE000CF93DF9300D000D01F92CDB7DEB70E9416
:101AF000C81929833A834B835C836D838CEF820FF3
:101B0000823030F484B18A6084B9299A2B981EC03F
:101B1000273051F46E9A209A769A289A80919703EA
:101B200080688093970312C02150223078F484B1EA
:101B30008F6184B9289A2C9A29982A982B988AB16F
:101B4000806C8AB95F9A5E986E9A76988D81809340
:101B500090030F900F900F900F900F90DF91CF9107
:101B600008958093A103089580915803811150C076
:101B70008091970387FD4CC00E940905811148C0E0
:101B800060E081E00E941B0281110AC0109269038B
:101B9000109268038CEF92E090937D0380937C0316
:101BA00084E190E090938903809388038FEF90E025
:101BB00090937503809374038091640390916503FF
:101BC0008A3F91052CF401969093650380936403FA
:101BD00080916303282F30E02637310514F48E5F9F
:101BE00001C088E78093630380916203811102C082
:101BF0008FE008C0282F30E0203F310514F4815FCA
:101C000001C08FEF8093620310928D0310928C03BA
:101C10000895CF93C82F809396030E9409058111E0
:101C200006C0C11104C081E0CF910C941005CF9182
:101C30000895FF920F931F93CF93DF93C82F8B01CB
:101C4000F42ED22F41E065E080E00E942A0241E0BC
:101C5000F11001C040E066E080E00E942A0241E00D
:101C6000D11101C040E067E080E00E942A02CC0F61
:101C7000CF5FC0939103109393030093920310924C
:101C8000950310929403DF91CF911F910F91FF90D4
:101C90000895DF92EF92FF920F931F93CF93DF93FC
:101CA00000D000D01F92CDB7DEB79091A3038091F2
:101CB000A203981709F441C080E0E82E81E0F82ED5
:101CC00000E010E09091A303F70121917F010F5FE5
:101CD0001F4F8091A2038927822341F19223DD24A3
:101CE000D394911101C0D12C0E94C81929833A8341
:101CF0004B835C836D83E1E0F0E0EC0FFD1FE00FB0
:101D0000F11F8081813029F46D2D89E0800FA8DDDD
:101D10000DC0823059F421E040E0DD2019F069E186
:101D200070E003C063E270E081E083DF03301105FF
:101D300049F68091A3038093A2030F900F900F9018
:101D40000F900F90DF91CF911F910F91FF90EF9027
:101D5000DF9008958093A3038091A103811101C0B6
:101D600098CF0895CF93DF9300D0CDB7DEB7909191
:101D70005E03911105C06A8389835FDD89816A8171
:101D8000662379F01092610397E0909360039CE0E2
:101D900090935F03811102C064E001C063E041E001
:101DA00007C040E063E080E00E942A0240E064E077
:101DB00080E00F900F90DF91CF910C942A020F9347
:101DC0001F93CF93DF9362E080E00E941B02882381
:101DD00009F47DC080916103181624F4815080932A
:101DE000610375C063E080E00E941B02882339F123
:101DF00080915E03811111C080915F032091600387
:101E00002F5F982F9695692F70E0422F50E046176C
:101E10005707B4F52093600336C0A9E5B3E0E1E4C9
:101E2000F1E095E09E0F8D91882329F080818F3F0E
:101E300011F08F5F808331969E13F5CFDDCF64E084
:101E400080E00E941B028823B9F280915E03882300
:101E500099F2A9E5B3E0E1E4F1E020E195E09E0F1D
:101E60008D91882349F08081813118F081508083E1
:101E700003C0803109F0208331969E13F1CFBCCF8F
:101E800091509093600390916003891B87FD03C07C
:101E90008093610302C01092610309E513E0C0E082
:101EA000D0E08C2FF80191918F01992329F0FE0148
:101EB000EF5BFE4F608101C060E00E9475032196D8
:101EC000C530D10571F710928F0310928E03DF9108
:101ED000CF911F910F910895CF938091970387FF22
:101EE00008C0C0E060E08C2FBBDCCF5FC530D1F70D
:101EF0000CC080910701809398038093990380938D
:101F00009A0380939B0380939C03CF910895462F5F
:101F1000882321F06AE070E083E003C064E170E0B0
:101F200081E021E086CECF93DF931F92CDB7DEB75D
:101F300090919703882339F0906890939703898351
:101F40000E945B0306C09F779093970389830E944A
:101F50004403898160E0DBDF0F90DF91CF9174CC87
:101F6000CF93DF9320919703C82FD0E027FF20C0A5
:101F7000C050DF4F9881922339F461E071DC909179
:101F800097038881892B07C060E06ADC888180958F
:101F90009091970389238093970398818091970369
:101FA000982381E009F080E060E0DF91CF91AFCF2E
:101FB000C856DC4F888190910701282F2923392F9B
:101FC0003095211102C0892B07C0832390E0019630
:101FD00065E070E00E9489258883888138233F5F0F
:101FE000632F70E08EE190E00E94892521E040E0BF
:101FF000832FDF91CF911DCE1F93CF93DF930E944C
:10200000CC0711E0180F612F70E0EB0121978C2FA6
:10201000880F880FC80F8EE190E00E948925C60FB7
:102020000E9409056C2F70E021E0882311F041E047
:1020300001C040E0812FDF91CF911F91FACD8093B5
:10204000A003FBCB282FE82FF0E0EF5BFE4F808151
:10205000689FC00111246FEF70E00E948925822FD4
:102060000C947503FF920F931F93CF93DF9380918E
:10207000970387FF17C080915803882379F08091D8
:1020800057038111DBC1C0E060E08C2FE9DBCF5F3B
:10209000C530D1F781E080935703D0C15DDC109249
:1020A0005703CCC162E080E00E941B02882329F024
:1020B00009E513E0C0E0D0E01EC080915E0381110D
:1020C000F7CF5091000190910101F09002014091F1
:1020D000030130910401C8E9D3E0FE0120E06C2F38
:1020E0006B5F18C060E08C2F0E9475032196C5308D
:1020F000D10509F4A3C1F80181918F01882391F3DF
:10210000FE01EF5BFE4F6081EECF813041F4292B61
:102110006E1789F081918F77C1F7252BF9CF823027
:1021200011F42F29F5CF833011F4242BF1CF843013
:1021300079F7232BEDCF522331F06FEF70E07093DE
:10214000710360937003922309F453C0E091680314
:10215000F0916903E230F10549F480917C0390919C
:102160007D03019690937D0380937C0380917C0393
:1021700090917D038E3F924030F08DEF92E09093EE
:102180007D0380937C0300917C0310917D03E230FA
:10219000F10589F0C80163E070E00E94752577279A
:1021A000E130F10519F4609570957727709373030A
:1021B0006093720304C010927303109272030D3F78
:1021C000124070F010927D0310927C03CF010196B3
:1021D00063E070E00E94892590936903809368030F
:1021E00080917C0390917D03019690937D03809371
:1021F0007C03F222B1F180918803909189030097CA
:1022000031F0019790938903809388032AC08091CD
:1022100074039091750318161906FCF460917E03FF
:1022200070917F036F5F7F4F6330710528F4709367
:102230007F0360937E0315C010927F0310927E038C
:10224000069797FD05C0909375038093740309C0AA
:10225000109275031092740304C010927F031092C1
:102260007E03422309F46DC080915603882321F038
:102270008150809356030AC086E180935603809173
:102280006303882319F08150809363038091630373
:102290006AE00E946925482F009180031091810314
:1022A000C80163E070E00E94752570937703609326
:1022B0007603E0916C03F0916D03E130F10539F4A0
:1022C00060957095772770937703609376030D3F41
:1022D000124070F01092810310928003CF0101969A
:1022E00062E070E00E94892590936D0380936C03F7
:1022F000842F90E040918003509181034F5F5F4FA6
:10230000480F591F509381034093800360916C03E1
:1023100070916D036230710539F40196480F591FB1
:1023200050938103409380038091800390918103B7
:102330008E3F924030F08DEF92E090938103809336
:102340008003232309F441C080915503882321F0A1
:102350008150809355030AC083E080935503809198
:102360006203882319F081508093620380918C036B
:1023700090918D03009731F0019790938D03809396
:102380008C0323C083E090E090938D0380938C03B3
:1023900080918203909183032091620330E028179B
:1023A000390710F4019704C08217930728F40196A7
:1023B000909383038093820380918203909183039F
:1023C0009927909379038093780310E09991892F4E
:1023D0008F7729F460917003709171031BC0813075
:1023E00029F4609172037091730314C0823029F450
:1023F00060917403709175030DC0833029F460916E
:1024000076037091770306C0843059F460917803A5
:10241000709179036F3F710531F028F06FEF70E034
:1024200002C060E070E097FD6095812F0BDE1F5FBA
:10243000153061F61092650310926403DF91CF911D
:102440001F910F91FF90089547DD1092A20360E065
:102450008CE006DA60E08BE003DA60E08AE000DA24
:1024600060E08DE0FDD960E08EE0FAD960E08FE0B9
:10247000F7D960E080E1F4C9CF9387D7C82F6AE02D
:1024800070E083E00E948F03892B09F40FC160E0A4
:1024900080E00E941B02811106C041E060E00E94C2
:1024A0002A02CF9171CA65E080E00E941B02882356
:1024B00009F448C06AD766E080E00E941B022091C0
:1024C0009403309195032115310539F021503109DC
:1024D00030939503209394036CC0909191039923BA
:1024E00019F091509093910390915403992361F0C6
:1024F0001092540340E065E080E00E942A0267E009
:1025000080E00E941B0255C090919103911104C07C
:1025100081E0809354030DC0917021E0282792132D
:1025200002C060E003C0981304C061E08091900392
:1025300097D9809192039091930390939503809300
:10254000940337C00E940905811133C08091A00314
:10255000882379F160E08091900382D98091A00373
:1025600081FF16C020919D0330919E0321153105F6
:1025700039F02150310930939E0320939D0319C0F7
:102580008BED91E090939E0380939D0335DD11C008
:1025900080FF0FC0C93021F08FEF8C0F823048F4DC
:1025A0000E94CC0761E0811101C060E0809190033E
:1025B00057D90E940905882309F440C080919603E9
:1025C000853051F421E040E06EE170E082E031DBE3
:1025D00080E00E9410052EC0811104C083E00E949B
:1025E00016055EC0823011F484E016C0863011F406
:1025F00088E012C0873011F489E00EC0883011F4F1
:102600008AE00AC0813009F445C0843069F089301D
:1026100009F446C08F3071F40E94160520E041E0B5
:1026200069E170E083E005C020E041E06AE070E02D
:1026300081E0FFDA8FEF8093960338C062E080E09C
:102640000E941B02811132C00E94B708883B9B4048
:1026500068F1C73009F006DD80918E0390918F03F9
:102660008C3D2FEF920728F4019690938F0380936F
:102670008E0380918E0390918F0381379240B0F04A
:1026800080914601811112C010928F0310928E0327
:10269000CF91D1C920E041E06AE070E087E0C9CF86
:1026A00020E041E069E170E082E0C3CFCF9108957E
:1026B000A82FB0E0AC55BC4FE62FF0E0E050FF4F44
:1026C0009C918081982381E009F480E00895CF9364
:1026D000DF93C82FD62FECDF2C2F30E06D2F70E06A
:1026E000F901EC55FC4FDB01A050BF4F882329F0C6
:1026F0008C9180959081892303C090818C91892B46
:102700008083DF91CF9108950F931F93CF93DF9331
:1027100004EA13E0C8E4D0E0F80161918F01CE0132
:102720000E94B1022196CA35D105B1F7DF91CF9150
:102730001F910F91089582E1E4EAF3E0DF011D9219
:102740008A95E9F70895EF92FF921F93CF93DF9355
:1027500084EAE82E83E0F82EC8E4D0E010E0CE0151
:102760000E94CD02F70181937F018F3F09F41F5F23
:102770002196CA35D10599F7113108F0DCDF41E027
:1027800063E081E0DF91CF911F91FF90EF900C9477
:102790002A02D9CFCF93DF93D82FC62F63E081E0F1
:1027A0000E941B02811101C0CEDFAD2FB0E0AC55FD
:1027B000BC4FEC2FF0E0E050FF4F9C9180819823BC
:1027C00081E009F480E0DF91CF910895482F8CEFEC
:1027D000840F8A3930F52091270430912804C901EB
:1027E000019660E870E00E94892590932804809308
:1027F000270420912504309126042817390769F40D
:102800002115310519F02150310902C02FE730E0C0
:1028100030932804209327040895FC01E65DFB4FC4
:1028200040830895809125049091260420912704E7
:10283000309128048217930771F0019660E870E0E8
:102840000E9489259093260480932504FC01E65D6F
:10285000FB4F8081089580E008951F93CF93DF930D
:102860001F92CDB7DEB710911C04112319F0DADFE7
:10287000982F04C09091C4039923C9F3EEE7E90FA0
:10288000EB3068F41092C403F0E0E854FC4F808110
:10289000882311F0108239C081E080832FC08AE63E
:1028A000890F8830A8F41092C403E92FF0E0E659AC
:1028B000FF4F20818091C303322F382329F02095C8
:1028C00082238093C30321C0822B8093C30316C04D
:1028D000112359F0892F99830E94790721E099816A
:1028E000811120E01092290411C08091C40381114C
:1028F00007C09093C40381E08093290421E006C0BF
:102900001092C40310922904982F20E0822F0F9078
:10291000DF91CF911F9108952091250430912604D5
:1029200080912704909128042817390721F481E029
:1029300090912904911180E0089590E6980F81E02C
:10294000983208F080E00895EDE1F4E013821282FD
:102950001582148217821682118210820895EFE088
:10296000F4E081E08087178216821582148211823A
:102970001082138212820895ECE0F4E0118210823A
:1029800012820895E8E1F4E0108214821382128228
:102990001182089581E090911804913009F080E04F
:1029A000089580911804823029F080910C048111DF
:1029B00003C0089581E0089582E00895C5DFCFDF68
:1029C000DBDFE0CF1F93CF93DF93C82FD0E0FE0172
:1029D000E05BF74AE491F0E0F0931004E0930F0419
:1029E000FE01EC59F74A14911F3F09F410E0809161
:1029F0000001812359F082E080931804E0910101E5
:102A0000E12349F081E080930D0405C088EC0E9429
:102A100079078111F0CFCE019A5E880F991F880F38
:102A2000991FFC0144913196E49150E0542F4427C2
:102A30004E0F511D50931E0440931D04FC0132960D
:102A4000249131968491E22FF0E0FE2FEE27E80FDB
:102A5000F11DF0932004E0931F04E417F50730F014
:102A6000E41BF50BF0932404E0932304DF91CF9152
:102A70001F9108951F93CF93DF93C0E6C80FCF3007
:102A800038F0CCE4C80FC43108F0ACC013E001C08A
:102A900011E0662309F490C0D82F83DF882361F00A
:102AA00080910D04882309F49DC080911B048D132F
:102AB00099C010920D0496C047DF51DF5DDF62DFE1
:102AC000D0931B04113009F045C0109319048C2FCA
:102AD00090E0C4960E94CD02D82F82E3C89F900157
:102AE0001124225F3E4FC0931A0430931E0420939A
:102AF0001D042F5C3F4F3093200420931F0481E37B
:102B000090E090932404809323048FEF8D0F8E3FE9
:102B1000A0F4809100018D2359F082E08093180485
:102B200080910101D82361F081E080930D0408C0F9
:102B300088EC0E9479078111F0CF81E0809318041E
:102B400085E190E00E94CD0290E090931004809384
:102B50000F0417C0133009F043C01093190481E02B
:102B6000809318048C2F2EDF20911F0430912004B5
:102B700080911D0490911E048217930710F010920B
:102B8000180480911804823019F481E080930C04B9
:102B900010920E0480910F049091100418161906DB
:102BA0000CF542E3489F9001499F300D112430936A
:102BB000100420930F0416C090910C04992391F0F7
:102BC00090911B0498130EC080910D0481110AC0CE
:102BD00010921B041092180481E080930E0402C02E
:102BE00010921B04DF91CF911F910895CF93DF9333
:102BF0001F92CDB7DEB78983A7DEB1DEBDDEC2DEB0
:102C000091E0909318048981863011F0883019F48E
:102C10008093190402C0109218040F90DF91CF9195
:102C20000895CF93DF93CDB7DEB72E970FB6F89404
:102C3000DEBF0FBECDBF91E7980F9730B0F49EE096
:102C4000EFE5F1E0DE01119601900D929A95E1F722
:102C50009E012F5F3F4F280F311D280F311DF901B5
:102C6000EE51F1408081918102C080E090E02E968B
:102C70000FB6F894DEBF0FBECDBFDF91CF910895A0
:102C800020911904213041F420911D0430911E043B
:102C9000820F931F0C94CD02233049F420911D0420
:102CA00030911E04FC01E20FF31F849108958FEF11
:102CB0000895CF93DF93809119048830D9F4C0919F
:102CC0002104D0912204FE01EE50F84A84919FEF36
:102CD000980F9E3F18F4E115F84528F0109218045B
:102CE00010920C0401C072DD2196D0932204C0938F
:102CF00021041AC08630C1F4E0912104F09122042D
:102D0000F85A8491E115F04728F0109218041092B7
:102D10000C0401C02AD580912104909122040196CF
:102D20009093220480932104DF91CF910895CF9353
:102D3000F3DD882309F4BFC080911804811105C018
:102D400080910C04882309F4B6C06091110470913D
:102D5000120482E00E948F03909314048093130462
:102D6000009739F42091110430911204232B09F0BB
:102D7000A2C020911704222359F01092B703109299
:102D8000B60310921404109213041092170412C088
:102D90002091110430911204281739073CF4821B4A
:102DA000930B9093B7038093B60304C01092B703BC
:102DB0001092B6038091190498EF980F923010F09A
:102DC000863011F4CF9175CF2091210430912204E7
:102DD00080912304909124048217930770F48091CA
:102DE0001804823011F0CF91E9CD80910E04811149
:102DF000FACF109222041092210480912104909124
:102E000022043EDFC82F0DDF9C018091B603909114
:102E1000B70312161306C4F4409121045091220402
:102E20004F5F5F4F5093220440932104281B390BBE
:102E300037FD05C030931204209311043CC010925A
:102E400012041092110410C020910F04309110044C
:102E5000821793071CF4281B390B02C020E030E0D6
:102E60003093120420931104CF3FC9F480911804C9
:102E7000823009F0B8CF80910E048111B4CF8091D7
:102E800021049091220490932404809323041092AF
:102E900022041092210480E090E0F2DEC82F80919D
:102EA000210490912204019690932204809321049E
:102EB0008C2FCF918BCCCF910895CF93C82F42E325
:102EC00050E06FEF70E085EC93E00E94B225109225
:102ED0000A0410920904109207041092F70310924A
:102EE0000B041092F8038BE0E9EFF3E0DF011D9291
:102EF0008A95E9F710920404C09308048C2F90E09F
:102F0000C4960E94CD028F3F19F080930B0402C03B
:102F100010920B049091010180910001892B9091F6
:102F20000B04892380930B04CF910895CF93DF93F3
:102F3000C4E3D0E06FEFCE010E94B1022196C83405
:102F4000D105C1F7CEE0D1E06FEFCE010E94B10212
:102F50002196CC3F83E0D807B9F7DF91CF91089550
:102F600090910B04811103C08091000104C0813055
:102F700059F480910101282F292319F08095982375
:102F800001C0982B90930B0480910B040895E7EFF8
:102F9000F3E091818089890F9585890F089580914B
:102FA000040481110BC08091F803811107C081E0F6
:102FB0002091050430910604232B09F080E0089548
:102FC0001F93CF93DF93C82F162F0E948A0BD82F01
:102FD0008FEF8D0F823020F08D2F8D7F853069F43B
:102FE0008091050490910604112311F0019601C00F
:102FF00001979093060480930504C9DF823308F09B
:103000004BC08D2F8B7F813009F490C0D23019F0E6
:10301000D73009F09DC08091090490910A049C0169
:103020002F5F3F4F30930A0420930904FC01EB53B8
:10303000FC4FC083D230D1F4EC2FF0E0E659FF4FC3
:1030400020818091F703322F38239091F8033323A6
:1030500031F0209582238093F703915004C0822B96
:103060008093F7039F5F9093F80378C0D73009F0FF
:103070006FC0EEE7EC0FF0E0E950FC4F92818091D9
:103080000404992319F01282815003C091E09283C5
:103090008F5F8093040462C011116BC08091F803AC
:1030A00081110DC020910404222309F465C0809190
:1030B000090490910A04E9EFF3E032E822C090910C
:1030C000F7032091090430910A04E0E0F1E046E9B9
:1030D0005191652F692349F0509595238150D9016D
:1030E000AB53BC4F4C932F5F3F4F4F5F4E3981F72F
:1030F00030930A04209309049093F7038093F80314
:10310000D1CF4081442339F010822150DC01AB53F0
:10311000BC4F3C9301963F5F31963D3891F7209329
:10312000040490930A048093090426C0112309F42F
:103130006DCF8091090490910A049C012F5F3F4F4D
:1031400030930A0420930904FC01EB53FC4FC08325
:10315000D130A9F0D53099F0D23041F480910704F4
:1031600083337CF48F5F809307040BC0D73049F41E
:10317000F5CFD13079F7F2CFD13061F702C011111C
:10318000EDCFDF91CF911F9108950F931F93CF93B0
:10319000DF938091070481110CC08091080490E0B6
:1031A00060910B04C496DF91CF911F910F910C9405
:1031B000B10205EC13E0CEE0D1E0F80161918F019E
:1031C000809108049E0142E3849F200D311D11244B
:1031D000C9010E94B1022196C03481E0D80769F785
:1031E000DCCF8B3F18F4682F70E002C06AEF70E00C
:1031F0006530710510F465E070E0709348016093EC
:10320000470188E190E00E94B1022091470130918E
:10321000480145E0429FC001439F900D11249093C7
:1032200048018093470108958CE6E2E8F5E0DF016C
:10323000982F1D929A95E9F7EAEAF4E0DF011D92D2
:103240008A95E9F788E190E00E94CD0290E09C0128
:1032500025503109263F310510F084E190E090932C
:10326000480180934701209147013091480145E092
:10327000429FC001439F900D112490934801809379
:103280004701089570E0660F771FFB01EE57FA4F74
:10329000208131811216130694F4820F931F20911E
:1032A00047013091480182179307D0F4813D27E010
:1032B000920714F080ED97E09183808322C021155E
:1032C0003105F9F0A901481B590BCA0120914701AA
:1032D000309148013195219531092417350718F0AF
:1032E000118210820EC0813358EF95071CF0282FF1
:1032F000892F02C020ED87E0FB01EE57FA4F2083B3
:103300008183FB01EE57FA4F81E020813181232B2D
:1033100009F080E00895E0EFF7E59491E1EFF7E53B
:10332000849121E031E041E02093940630939506AA
:10333000409396062CE020939706923019F48093E0
:10334000930603C091E090939306823021F480931A
:1033500094069AE016C0873021F492E09093940688
:103360000FC0813021F492E0909396060CC09CEF40
:10337000980F923040F492E09093940690939606C2
:103380009BE0909397060C942203809193060895F6
:10339000CF93DF9300D000D01F92CDB7DEB785E08A
:1033A000E3E9F6E0DE01119601900D928A95E1F7CE
:1033B00029813A814B815C816D8170E080E090E0F1
:1033C0000F900F900F900F900F90DF91CF91089575
:1033D000EAE5F6E082E18E0F11928E13FDCF08959B
:1033E000809193068150823010F4269A2E983E9A4E
:1033F0004698809A8898819A89983F9A47988091B0
:103400009306873099F4269A2E98259A2D98249A17
:103410002C98579A5F98569A5E98549A5C98219A7D
:103420002998229A2A98239A2B9814C08450823083
:1034300078F46E9A7698209A2898279A2F98549A1A
:103440005C98569A5E98579A5F98249A2C9802C076
:10345000259A2D9880919306813011F4549A5C98A6
:1034600008958AB1807D8AB98BB1807D8BB98091B6
:1034700093069FEF980F923010F0873011F4279841
:103480002F986A9872980895ECDFAADFA1CFCF93A6
:10349000DF931F92CDB7DEB78983A2DF90919306A9
:1034A0008981813119F4913081F45DC0803129F432
:1034B0002FEF290F223048F436C0883030F42CEF3B
:1034C000290F223030F0973021F02FEF290F2230D2
:1034D00090F49150923020F4883020F02E9A03C05E
:1034E000883008F4469A80FD889A81FD899A82FF87
:1034F00041C0479A3FC028EF280F2930D8F59730B0
:10350000D1F48C3091F130F48A3099F180F5893022
:1035100051F007C08E3049F030F18F3041F08031EA
:1035200041F02E9A27C02D9A25C0299A23C02A9AA5
:1035300021C02B9A1FC02730E8F494509230D0F469
:103540008B3089F028F4893051F08A3051F005C071
:103550008D3069F050F08E3061F0769A0BC0289A69
:1035600009C02F9A07C05C9A05C05E9A03C05F9A93
:1035700001C02C9A0F90DF91CF91089590919306FE
:103580002CEF290F223058F4653009F44DC08F30EC
:1035900008F04AC0811126C0623021F51CC0973066
:1035A00089F4811102C06623B1F06530E9F064301E
:1035B00009F1633029F1623049F1613069F1662324
:1035C00089F132C0813119F4923061F42DC08B3011
:1035D00049F4653039F48CB182FB882780F991E099
:1035E00089270895611104C081E048991EC01CC05C
:1035F000613021F481E0499918C016C0623021F48D
:1036000081E04A9912C010C0633021F481E04B99E7
:103610000CC00AC0643021F481E04D9906C004C09A
:10362000653011F481E01F9B80E008954F925F9216
:103630006F927F928F929F92AF92BF92CF92DF92C2
:10364000EF92FF920F931F93CF93DF9381E00E943D
:103650007B037C01CAE5D6E0412C912C90E0C92E79
:1036600091E0D92E892D13DF00E011E0512C652C5B
:10367000690CA62CB12CAA0CBB1CF501E655FB4F1E
:10368000208131812E0D3F1D213D87E0380710F04C
:1036900020ED37E031832083F80170808881782223
:1036A000602F6C19892D6ADF882E772019F0882306
:1036B00019F029C0882339F1482D662DC50186559A
:1036C0009B4F3C01FC0180819181DCDDF301118283
:1036D00010828823C1F0811003C08FEF9FEF02C0DA
:1036E00081E090E0F501EE57FA4F91838083F80175
:1036F00090818881882011F0982B02C090959823A2
:10370000988344244394F2E15F0E0F5F1F4F8CE6D1
:103710005812ADCF939421969F12A4CF842DDF91A0
:10372000CF911F910F91FF90EF90DF90CF90BF90BE
:10373000AF909F908F907F906F905F904F90089583
:103740008AE596E00895882361F09FEF980F9930FD
:1037500010F4835E089596EF980F963020F486500B
:10376000089587E2089580E00895CF93DF93C82FEE
:1037700082958F70E8DFD82F8C2F8F70E4DFC82FF1
:103780008D2F24D88C2FDF91CF9120C8CF93DF933A
:10379000CDB7DEB760970FB6F894DEBF0FBECDBFD2
:1037A00090E1EDE6F1E0DE01119601900D929A951F
:1037B000E1F79E012F5F3F4F280F311D280F311D6C
:1037C000F901E85EF1098081918160960FB6F89465
:1037D000DEBF0FBECDBFDF91CF910895CF93DF93B2
:1037E000C0917206D0917306D1DF21E0C817D907C6
:1037F00009F020E0822FDF91CF910895662331F008
:10380000C5DF909373068093720608951092730635
:1038100010927206089590919C06943031F491E0D4
:10382000611101C090E0692FE9CF0895EF92FF92F6
:103830000F931F93CF93DF9310927106C5E5D1E0EC
:1038400089E8E82E86E0F82E10E001E088818823E0
:1038500071F0F7018081882351F010821092730675
:1038600010927206809171068F5F80937106812F8E
:10387000B5DF882311F0088301C018821F5F2196ED
:10388000FFEFEF1AFF0A183009F7DF91CF911F9170
:103890000F91FF90EF900895E8E7E80FE53050F4BE
:1038A000F0E0E050FF4F908180916D06982381E019
:1038B00041F526C0823819F480916F061DC0833807
:1038C00021F481E090916F0610C0843819F4809142
:1038D0006E0612C0853821F481E090916E0605C015
:1038E000873831F481E090917006191654F008C0C1
:1038F000863831F480917006881F8827881F0895C4
:1039000080E0089598E7980F953088F4892F90E02B
:1039100020916D06FC01E050FF4F8081662311F07D
:10392000282B02C08095282320936D0608958438A3
:1039300011F4619502C0853819F460936E060FC0CA
:10394000833819F0823821F4619560936F0607C0BF
:10395000863819F0873819F4619560937006809164
:103960006E06811108C080916F06811104C080919C
:103970007006882321F081E080937D0608951092DF
:103980007D060895EF92FF920F931F93CF93DF93DD
:1039900010926C060AE411E08EE7E82E86E0F82E1D
:1039A000C0E0D1E0F8018081882369F0F7018081CF
:1039B000882349F0108260E08C2FA4DF80916C0690
:1039C0008F5F80936C068C2F67DFF801882311F0DE
:1039D000D08301C01082CF5F0F5F1F4FFFEFEF1A40
:1039E000FF0ACB30F9F6DF91CF911F910F91FF9035
:1039F000EF900895CF9390919C069430D9F4C62F00
:103A00000E94690B9091740620915E01C13031F4DF
:103A1000982B8095822380935E010AC0282319F099
:103A20008095982305C020919206822B8093920660
:103A300090937406CF91089590919C06943009F06C
:103A400044C0613081F4E6E7F6E02FEF90E0319179
:103A50003817D9F12F3F19F4311101C0292F9F5F79
:103A60009630A9F71EC050915D019091910620E01B
:103A700030E0F901EC58F94F428148130AC0D901EE
:103A8000A050BF4F4C91642F652311F0128201C0EA
:103A9000942B2F5F3F4F2630310559F790939106B5
:103AA00008952F3F91F0022E000C330BF901EC58D2
:103AB000F94F8283F901E050FF4F8081809590910A
:103AC0005D01892380935D01089508951092740625
:103AD00086E0E6E7F6E0DF011D928A95E9F70895B2
:103AE000F5CF20914901882311F0822B05C09091D8
:103AF00000019095822F8923809349010895909128
:103B00000001809149018923089580915D012091F0
:103B10009106A6E7B6E0E0E0F1E030E046E04E0FC7
:103B20009C91992319F09081892B03C090819095E5
:103B300089239191582F592339F0592F522321F07D
:103B4000909529231C923F5F11964E13E9CF8093E5
:103B50005D012093910630937C06089520917406B0
:103B600080915E0130919206E0E0F1E0DF0140E0FB
:103B700058E05E0F9D91692F682339F0692F632308
:103B800021F09095392329234F5F5A13F3CF2093C7
:103B900074063093920640937C069191392F32231C
:103BA00011F0892B02C0909589235E13F6CF809384
:103BB0005E010895811104C081E090917C060EC0E1
:103BC000813039F480916C0681110BC080917D06A3
:103BD0000895823041F481E090917106911104C002
:103BE00002C081E0089580E0089584E796E008959A
:103BF0008DE696E0089582E796E008951F93CF93AF
:103C0000DF931F92CDB7DEB7182F69830E948A0B0E
:103C10009FEF910F69819E3F08F06AC0823089F45E
:103C2000812F662331F00E947907813061F561E0D0
:103C300005C00E947907811126C060E0812FDADE7D
:103C400022C0813031F584E8810F823060F4662330
:103C500009F44EC01C3711F411E901C010E961E00C
:103C6000812FEADE0DC0812F662331F00E94790793
:103C7000813049F461E005C00E947907811103C0D9
:103C800060E0812FD9DE80917C068F5F80937C0677
:103C90002FC08630B1F4812F662331F00E9479075E
:103CA000813049F461E005C00E947907811103C0A9
:103CB00060E0812FB0DD809171068F5F8093710687
:103CC00017C08730A9F4812F662331F00E9479074D
:103CD000813049F461E005C00E947907811103C079
:103CE00060E0812F0FDE80916C068F5F80936C0601
:103CF0000F90DF91CF911F9108956F927F928F92D5
:103D00009F92AF92BF92CF92DF92EF92FF920F936A
:103D10001F93CF93DF9300D01F92CDB7DEB77C0106
:103D2000CDB6DEB68091E80083FF0AC1F70180813D
:103D300090E02091A1063091A2062817390709F0DA
:103D4000FFC080919E06833009F4A1C030F4813019
:103D500071F0823009F4D8C0F3C08A3009F4BCC0D5
:103D60008B3009F4A5C0893009F0EAC052C08091B7
:103D70009D06813A09F0E4C08DB69EB61A8219827A
:103D800080919F061091A0068B83F7018085482FB4
:103D900050E08DB79EB7841B950B0FB6F8949EBF6D
:103DA0000FBE8DBFEDB7FEB731965F0160E070E0EA
:103DB000CF01D8D64FEF410F8E010F5F1F4F9501F6
:103DC000BE016D5F7F4FC7010E94FA09F70186812E
:103DD0009781009721F0408550E0B501BAD6109246
:103DE000E9008091E800877F8093E8008B81811152
:103DF0008093F10069817A81C501EED18091E8005C
:103E00008B778093E8000FB6F8949EBE0FBE8DBEF0
:103E100097C080919D06813209F092C0ADB6BEB6C2
:103E20000091A3061091A40670909F066090A006D2
:103E30008DB79EB7801B910B0FB6F8949EBF0FBE37
:103E40008DBFEDB7FEB731964F018091E800877FB7
:103E50008093E800B801CF0122D28091E8008E77EC
:103E60008093E80021E0711001C020E030E0021BE7
:103E7000130B280D391D4FEF460D672DC7010E940A
:103E8000DA0A0FB6F894BEBE0FBEADBE59C080911F
:103E90009D06813A09F054C08091E800877F8093A5
:103EA000E8008091E80080FFFCCFF701818540C0E9
:103EB00080919D06813209F043C08091E800877FA0
:103EC0008093E8000AD390919F0681E0911101C090
:103ED00080E0F701818734C080919D06813281F5B1
:103EE0008091E800877F8093E800F7D280919F0659
:103EF0009091A006882736E0969587953A95E1F748
:103F0000F701958784871CC080919D06813AC1F492
:103F10008091E800877F8093E8008091E80080FF2F
:103F2000FCCFF7018485958596958795969587951D
:103F30008093F1008091E8008E778093E800CDD2E5
:103F40000FB6F894DEBE0FBECDBE0F900F900F904F
:103F5000DF91CF911F910F91FF90EF90DF90CF9065
:103F6000BF90AF909F908F907F906F900895FC01CD
:103F7000399627E0DF011D922A95E9F721E0FC013F
:103F8000218724EF31E03587248723E0248361E013
:103F900001965BC24F925F926F927F928F929F9237
:103FA000AF92BF92CF92DF92EF92FF920F931F9347
:103FB000CF93DF9300D01F92CDB7DEB77C01ADB6B3
:103FC000BEB680919C06843009F08EC08091E400DA
:103FD0009091E500F701228533852817390709F408
:103FE00083C081818F708093E9008091E80085FF14
:103FF0007BC08DB69EB6408550E08DB79EB7841BC2
:10400000950B0FB6F8949EBF0FBE8DBFEDB7FEB7F0
:1040100031966F011B821A82198260E070E0CF0135
:10402000A1D58E010F5F1F4F960140E0BE016D5F6D
:104030007F4FC7010E94FA09482EF70184859585B4
:10404000892B51F091E080E026853785232B09F0FC
:1040500090E0092F182F02C000E010E0F701668001
:1040600077806114710489F049815A81B301C601D6
:1040700063D555245394892B09F4512CF7014085BD
:1040800050E0B601C30165D501C0512C89819A81E8
:10409000892BF1F0411004C0511002C0012BC1F076
:1040A000F701848595859787868781818F708093B6
:1040B000E9008B8181118093F10069817A8140E070
:1040C00050E0C6013FD08091E8008E778093E800F1
:1040D0008091E4009091E500F701938782870FB605
:1040E000F8949EBE0FBE8DBE0FB6F894BEBE0FBE36
:1040F000ADBE0F900F900F90DF91CF911F910F9158
:10410000FF90EF90DF90CF90BF90AF909F908F90F7
:104110007F906F905F904F90089519BC82E089BDA9
:1041200009B400FEFDCF8091D8008F7D8093D80028
:104130008091E00082608093E0008091E00081FD4A
:10414000FCCF0895CF92DF92EF92FF920F931F93CF
:10415000CF93DF93EC018B017A01DED1811133C063
:10416000E114F10439F0F70180819181081B190BEA
:10417000C80FD91FC12CD12C0115110519F180913F
:10418000E80085FD16C08091E8008E778093E800F6
:1041900086D4E114F10449F0F70180819181C80EC1
:1041A000D91ED182C08285E00EC0B6D1882321F30A
:1041B0000AC089918093F10001501109FFEFCF1AD5
:1041C000DF0ADACF80E0DF91CF911F910F91FF904E
:1041D000EF90DF90CF9008952091A3063091A40630
:1041E0002617370748F06115710539F42091E8006A
:1041F0002E772093E80001C0B90140E061157105F8
:10420000A9F120919C06222309F443C0253009F42A
:1042100042C02091E80023FD40C02091E80022FD2B
:1042200032C02091E80020FFE9CF4091F3002091B7
:10423000F20030E0342BFC01CF016115710559F01B
:104240002830310540F481918093F100615071096B
:104250002F5F3F4FF1CF41E02830310509F040E0BA
:104260002091E8002E772093E800C8CF4111C9CFF4
:104270000AC080919C06882361F0853061F08091AE
:10428000E80083FD0AC08091E80082FFF2CF80E061
:10429000089582E0089583E0089581E0089561150E
:1042A000710529F42091E8002B772093E800FC01A8
:1042B0006115710541F180919C06882361F185307B
:1042C00061F18091E80083FD24C08091E80082FFC5
:1042D000EFCF2091F3008091F20090E0922B892B98
:1042E00031F08091F10081936150710991F78091D3
:1042F000E8008B778093E800DBCF80919C068823D1
:1043000051F0853051F08091E80080FFF6CF80E0D9
:10431000089581E0089582E0089583E00895209152
:10432000A3063091A4062617370748F061157105DA
:1043300039F42091E8002E772093E80001C0B901FC
:10434000FC0120E06115710591F180919C068823A4
:1043500009F440C0853009F43FC08091E80083FD36
:104360003DC08091E80082FD2FC08091E80080FF71
:10437000E9CF2091F3008091F20090E0922B61153B
:10438000710559F08830910540F424912093F10093
:104390003196615071090196F2CF21E0089709F03A
:1043A00020E08091E8008E778093E800CBCF211148
:1043B000CCCF0AC080919C06882361F0853061F0E3
:1043C0008091E80083FD0AC08091E80082FFF2CF6F
:1043D00080E0089582E0089583E0089581E00895E3
:1043E000982F973058F59093E900981739F070910D
:1043F000EC002091ED005091F00003C0242F762FA7
:1044000050E021FF19C03091EB003E7F3093EB006C
:104410003091ED003D7F3093ED003091EB00316045
:104420003093EB007093EC002093ED005093F0007C
:104430002091EE0027FF07C09F5FD3CF8F7080933E
:10444000E90081E0089580E00895EF92FF920F93D4
:104450001F93CF93DF93E62EEC018C010C5F1F4F6F
:10446000F12CFE1491F15881552351F1F80120816E
:1044700069817A8131979081852F8F70873010F014
:1044800080E024C0223010F442E001C046E0E8E0C1
:10449000F0E020E0E617F70720F42F5FEE0FFF1F94
:1044A000F9CF2295207F422BF0E49F9F90011124A9
:1044B000551F5527551F652F622B92DF882301F367
:1044C000F39425960B5F1F4FCCCF81E0DF91CF9106
:1044D0001F910F91FF90EF90089580919D0687FFA7
:1044E00011C08091E80082FD05C080919C06811179
:1044F000F8CF11C08091E8008B770BC080919C06AB
:10450000882349F08091E80080FFF8CF8091E8008F
:104510008E778093E80008952091E4003091E500C3
:1045200095E64091EC00842F817040FF22C080917D
:10453000E80080FD1CC080919C06882391F08530A6
:1045400091F08091EB0085FD10C04091E400509106
:10455000E5004217530729F39A01915011F784E0BF
:10456000089582E0089583E0089581E0089580E051
:1045700008954091E80042FFDECF089567D06ED0E5
:10458000E0EEF0E0808181608083E8EDF0E0808102
:104590008F77808319BCA7EDB0E08C918E7F8C93D0
:1045A00080818F7E808310929B0608950F931F93C6
:1045B000CF93DF934BD052D0C8EDD0E088818F7776
:1045C000888388818068888388818F7D888319BCEF
:1045D00010929C061092980610929A0610929906D4
:1045E00000EE10E0F80180818B7F808388818160FC
:1045F000888342E060E080E0F3DEE1EEF0E080817D
:104600008E7F8083E2EEF0E0808181608083808114
:1046100088608083F80180818E7F808388818061BB
:104620008883DF91CF911F910F910895E8EDF0E01D
:1046300080818F7E8083E7EDF0E0808181608083E0
:1046400084E082BF81E080939B06B0CFE8EDF0E08C
:1046500080818E7F80831092E20008951092DA00AC
:104660001092E10008951F920F920FB60F9211243D
:104670002F933F934F935F936F937F938F939F936A
:10468000AF93BF93EF93FF938091E10082FF0BC044
:104690008091E20082FF07C08091E1008B7F8093D0
:1046A000E1000E9423098091DA0080FF1DC0809103
:1046B000D80080FF19C08091DA008E7F8093DA00E5
:1046C0008091D90019BC80FF0BC082E089BD09B47C
:1046D00000FEFDCF81E080939C060E94030904C088
:1046E00010929C060E9404098091E10080FF18C08E
:1046F0008091E20080FF14C08091E2008E7F809361
:10470000E2008091E20080618093E2008091D80015
:1047100080628093D80019BC85E080939C06BED14E
:104720008091E10084FF2EC08091E20084FF2AC0C6
:1047300019BC82E089BD09B400FEFDCF8091D8008C
:104740008F7D8093D8008091E1008F7E8093E1007F
:104750008091E2008F7E8093E2008091E200816090
:104760008093E20080919806882311F084E007C0CE
:104770008091E30087FD02C081E001C083E0809367
:104780009C068CD18091E10083FF22C08091E200E1
:1047900083FF1EC08091E100877F8093E10082E06B
:1047A00080939C06109298068091E1008E7F809302
:1047B000E1008091E2008E7F8093E2008091E20030
:1047C00080618093E20042E060E080E009DE66D133
:1047D000FF91EF91BF91AF919F918F917F916F91D9
:1047E0005F914F913F912F910F900FBE0F901F90AF
:1047F00018951F93CF93DF93CDB7DEB7AA970FB667
:10480000F894DEBF0FBECDBFEDE9F6E088E08E0F75
:104810009091F10091938E13FBCF0E941709809124
:10482000E80083FF23C180919D0690919E069530FC
:1048300009F478C030F4913081F168F0933069F177
:1048400015C1983009F4E3C0993009F4F2C09630EC
:1048500009F00CC189C0803881F0823809F006C1A6
:104860008091A1068F708093E9008091EB0085FB19
:10487000882780F91092E90006C0809199069091EE
:104880009A06911182609091E800977F9093E800DA
:104890008093F1001092F100C5C0282F2D7F09F000
:1048A000E5C0882319F0823061F0E0C080919F0656
:1048B000813009F0DBC0933009F080E080939A06E4
:1048C0002BC080919F06811127C08091A1068F7017
:1048D00009F4CCC08093E9002091EB0020FF1CC0BC
:1048E000933021F48091EB00806214C09091EB0032
:1048F00090619093EB0021E030E0A90102C0440FE9
:10490000551F8A95E2F74093EA001092EA008091E1
:10491000EB0088608093EB001092E9008091E80042
:10492000877F83C08111A2C010919F061F7780915D
:10493000E3008078812B8093E3008091E800877FFB
:104940008093E800CADD8091E80080FFFCCF809171
:10495000E30080688093E300111102C082E001C08F
:1049600083E080939C0682C08058823008F07EC02D
:1049700080919F069091A0068C3D53E0950771F5BC
:1049800083E08A838AE289834FB7F894DE01139625
:1049900020E03EE051E2E32FF0E050935700E49135
:1049A00020FF03C0E295EF703F5FEF708E2F90E025
:1049B000EA3010F0C79601C0C0968D939D932F5F8B
:1049C000243149F74FBF8091E800877F8093E8004A
:1049D0006AE270E0CE010196FFDB13C0AE014F5FCB
:1049E0005F4F6091A1060E945902BC01892B09F416
:1049F0003DC09091E800977F9093E80089819A816B
:104A00008EDC8091E8008B778093E8002FC080389F
:104A100069F58091E800877F8093E800809198068F
:104A20008093F1008091E8008E778093E80055DD57
:104A30001DC081111BC090919F069230B8F48091E7
:104A4000E800877F8093E8009093980646DD809188
:104A50009806811106C08091E30087FD02C081E0C5
:104A600001C084E080939C060E9405098091E800C3
:104A700083FF0AC08091E800877F8093E8008091DF
:104A8000EB0080628093EB00AA960FB6F894DEBF2D
:104A90000FBECDBFDF91CF911F9108950895CF93A1
:104AA00080919C06882399F0C091E900CF70909185
:104AB000EC00892F817090FD80E8C82B1092E900EE
:104AC0008091E80083FD95DECF70C093E900CF911F
:104AD0000895991B79E004C0991F961708F0961B5A
:104AE000881F7A95C9F780950895AA1BBB1B51E1D1
:104AF00007C0AA1FBB1FA617B70710F0A61BB70B4E
:104B0000881F991F5A95A9F780959095BC01CD01F2
:104B1000089597FB072E16F4009406D077FD08D071
:104B2000E4DF07FC05D03EF4909581959F4F0895F2
:104B3000709561957F4F0895FB01DC0104C08D9154
:104B40000190801921F441505040C8F7881B990BFF
:104B50000895FB01DC0102C001900D9241505040CC
:104B6000D8F70895DC0101C06D9341505040E0F743
:104B70000895F999FECF92BD81BDF89A992780B525
:104B80000895262FF999FECF1FBA92BD81BD20BD91
:104B90000FB6F894FA9AF99A0FBE01960895F89410
:104BA000FFCF0102040810204080FF01231C150ED6
:104BB0000702830800000134030200000000000027
:104BC000000182080000013603040000000000001C
:104BD000000081080000013A030800000000000006
:104BE00000006CFF00000000011400FF0100000045
:104BF000000000000000000100000000000000FFB5
:104C0000FF32006400FA00F401E204C4098813B51D
:104C100000B600B700CD00E200E900EA0092013FD3
:104C20003C1BA10165014A01F6000F012801FFFFAD
:104C3000FFFFFFFFFFFFFFFFFFFFFFFFFFFFFFFF84
:104C4000FFFFFFFFFFFFFFFFFFFFFFFFFFFFFFFF74
:104C5000FFFFFFFFFFFFFFFFFFFFFFFFFFFFFFFF64
:104C6000FFFFFFFFFFFFFFFFFFFFFFFFFFFFFFFF54
:1057F00002041E371E2737232220FFFFFFFFFF0171
:1058000058785938593959385939593859395938CE
:1058100059395938593959385939593859395938FC
:1058200059395938593959385939593859395938EC
:1058300059395938593959385939593859395938DC
:1058400059395938593959385939593859395CD031
:105850000000000000000000000000000000000048
:105860000000000000000000000000000000000038
:105870000000000000000000970E05079721971810
:10588000972B2B0B17171397339738380E050721D3
:105890001837060409081F213706121028970E979B
:1058A000081C05120415072C970F0405972B0B17DE
:1058B000171397339738380E05070F04053706126C
:1058C000370E152828271F9707972C970697181625
:1058D0001712102C9709970C15101A041508282C6C
:1058E0002C2C97069712131C150C0A0B172C1F272C
:1058F0001E202D1F271E222C971C970812110A9775
:105900000B971A0C2C970E9704110A9726970718D5
:10591000070A110F1F971F970A10040C0F37061262
:10592000109727972C040F0F2C150C0A0B172C150A
:1059300008160815190807372897373737972C970F
:10594000069738971026970612111715120F2C106C
:105950001207089727972C061210100411072C0E17
:10596000081C2C0F0C16172C9736363697280E0865
:105970001C2C13150816162C17122C9707973897FE
:10598000109704061512372C97071097271E973586
:105990000710971E22280E081C2C13150816162C0B
:1059A00017122C0B12170E081C362C060B04110AAA
:1059B000082C170B082C0F12060E2C16170417189C
:1059C00016280F041C08152C970F0807972C9716FC
:1059D000971704171816282B970F0F11972C97332A
:1059E000972C11121510040F282B970F0F17972CB7
:1059F0009733972C17120A0A0F08282B970F0F05B9
:105A0000972C9733972C050F0C110E289708040636
:105A1000972C9733972C0808131512102C040F0F8E
:105A20002C060F080415362C160817170C110A1629
:105A30002C0411072C10040615122C0C110C170C39
:105A4000040F0C1D08162897051715972C973397E8
:105A50002C05121217970F9712040708152C08111E
:105A600017151C362C181608072C0912152C090CB2
:105A700015101A0415082C18130F1204072897196B
:105A80000815972C9733972C090C15101A04150834
:105A90002C190815160C1211289705040E972C972F
:105AA00033972C0504060E18132C0E081C10041333
:105AB000381004061512362C0604112C05082C0487
:105AC00013130F0C08072C0C112C170B082C271F75
:105AD0009707972C970E97081C9710970413130895
:105AE000152897151617972C9733972C1508161706
:105AF0000415172C0E081C05120415072897070516
:105B0000972C2C9733972C07080512181106083686
:105B10002C160817170C110A2C1504110A082C2230
:105B20009735971F22279726971016972797362C79
:105B300007080904180F179733971F27101628977F
:105B4000170F972C2C9733972C17120A0A0F082C33
:105B50000F041C0815362C1608172C0C112C170BCB
:105B6000082C181608152C0F041C08152C1F973527
:105B7000972128970E0F972C2C9733972C0E081CE3
:105B80002C0F12060E362C0A122C0C1117122C0E8A
:105B9000081C2C0F12060E2C160817170C110A2CB5
:105BA0001617081328970610972C2C9733972C0656
:105BB0000F0804152C1004061512362C0C110C17A6
:105BC0000C040F0C1D082C040F0F2C170B082C07AE
:105BD0001C1104100C062C10040615122C97260715
:105BE0001097271E97350710971E229727972897FB
:105BF0001007972C2C9733972C10040615122C079E
:105C0000080F041C362C160817170C110A2C150443
:105C1000110A082C279735971F22279726971B1EB6
:105C2000271016972797362C27973397100C110CAF
:105C30001018102C07080F041C2897060B972C2C03
:105C40009733972C060F0804152C0B12170E081CFF
:105C5000362C0C110C170C040F0C1D08162C042CE0
:105C60000B12170E081C2C061211090C0A18150429
:105C7000170C12112C0C110912151004170C12110B
:105C800028970B0E972C2C9733972C0B12170E0876
:105C90001C362C0A122C0C1117122C0B12170E0882
:105CA0001C2C16081718132C161708131628341650
:105CB0000B0C0917342C972E972C34973597342CCE
:105CC0009733972C0816062C17122C170C0F070861
:105CD00028FFFFFFFFFFFFFFFFFFFFFFFFFFFFFFAB
:105CE000FFFFFFFFFFFFFFFFFFFFFFFFFFFFFFFFC4
:105CF000FFFFFFFFFFFFFFFFFFFFFFFFFFFFFFFFB4
:105D0000FFFFFFFFFFFFFFFFFFFFFFFFFFFFFFFFA3
:105D1000FFFFFFFFFFFFFFFFFFFFFFFFFFFFFFFF93
:106C0000292B969796961E14041DE0991F1A161BA1
:106C100098982008070606FF2115091919FF221761
:106C20000A052C2C231C0B1111FF24180D1010FF2A
:106C3000250C0E36369C26120F379CFF271333384F
:106C40009D9D2D2F3434FF2A2E30309BE1E3312AD5
:106C500028E09A9A35494C000050474A4D0052515D
:106C6000484B4E00004F000000000000292BE09729
:106C700096963A14041D99993B1A161B98983C084D
:106C8000070606FF3D15091919FF3E170A052C2CAA
:106C90003F1C0B1111FF40180D1010FF410C0E3658
:106CA000369C42120F379CFF431333389D9D442F6F
:106CB0003434FF2A4530309BE3E32A3128E39A9AA3
:106CC00000494C000050474A4D005251484B4E007D
:106CD000004F000000000000292B39979696A01461
:106CE000041D9999A11A161B9898A208070606FF79
:106CF000A315091919FFA4170A052C2CA51C0B11A3
:106D000011FFA6180D1010FFA70C0E36369CA81206
:106D10000F379CFFA91333389D9DAA2F3434FF2AC7
:106D2000AB30309BE3E32A3128E39A9A00494C00C8
:106D30000050474A4D005251484B4E00004F000052
:106D400000000000292B399796961E14041D99996E
:106D50001F1A161B98982008070606FF2115091907
:106D600019FF22170A052C2C2355541111FF242139
:106D70001E6210FF25221F63369C262320379CFFAE
:106D8000275758389D9D2D2F3434FF2A2E30309BA5
:106D9000E3E32A3128E39A9A00494C000050474A1D
:106DA0004D005251484B4E00004F000000000000C3
:106DB0002939969796963A14041DE0993B1A161BAA
:106DC00098983C08070606FF3D15091919FF3E175C
:106DD0000A052C2C3F1C0B1111FF40180D1010FF41
:106DE000410C4A4D369C42124B4E9CFF431350516E
:106DF0009D9D44524F34FF2A4530309BE1E3492AA0
:106E000028E39A9A4C494C000050474A4D00525191
:106E1000484B4E00004F000000000000292B9697C1
:106E200096961E1404D2E0991F1A16D3989820083B
:106E300007D406FF211509D619FF22170AEA2C2CC0
:106E4000231C0BED11FF24180DEC10FF250C0EEB8D
:106E5000369C26120F379CFF271333389D9D2D2F0C
:106E60003434FF2A2E30309BE1E3312A28E09A9A0D
:106E700035494C000050474A4D005251484B4E0096
:106E8000004F00000000000029EA39979696DCD2F6
:106E9000041D9999DDD3161B9898DED407F006FFE0
:106EA000DFD6091919FF22E50AEDE72C231CF211A0
:106EB00011FF24180D1010FF250CF3E9369C261243
:106EC000C8E89CFF27F133389D9DEC2F3434FF2A0E
:106ED000EB30309B65E32A3128E39A9A00494C0055
:106EE0000050474A4D005251484B4E00004F0000A1
:106EF00000000000E52B0000000000000000000082
:106F00000000000000000000000000000000000081
:106F100000000000000000005455000000005F5C0D
:106F200059620000605D5A630000615E5B00000012
:106F3000565758000000000000000000000000004C
:106F400000002A0000000000000000000000000017
:106F50000000000000000000000000000000000031
:106F6000FFFFFFFFFFFFFFFFFFFFFFFFFFFFFFFF31
:106F7000FFFFFFFFFFFFFFFFFFFFFFFFFFFFFFFF21
:106F8000FFFFFFFFFFFFFFFFFFFFFFFFFFFFFFFF11
:106F9000FFFFFFFFFFFFFFFFFFFFFFFFFFFFFFFF01
:106FA000FFFFFFFFFFFFFFFFFFFFFFFFFFFFFFFFF1
:106FB000FFFFFFFFFFFFFFFFFFFFFFFFFFFFFFFFE1
:106FC000FFFFFFFFFFFFFFFFFFFFFFFFFFFFFFFFD1
:106FD000FFFFFFFFFFFFFFFFFFFFFFFFFFFFFFFFC1
:106FE000FFFFFFFFFFFFFFFFFFFFFFFFFFFFFFFFB1
:106FF000FFFFFFFFFFFFFFFFFFFFFFFFFFFFFFFFA1
:00000001FF
